:020000040800F2
:10000000B00D002009010008C735000813010008E1
:10001000C5350008010D0008B16A000800000000A5
:100020000000000000000000000000001B010008AC
:100030001D0D0008000000001F010008055F0008FA
:100040002301000823010008230100082301000800
:100050002301000823010008230D00086D0D00088E
:100060007D0D00088D0D00089D0D0008230100087E
:1000700023010008230100082301000823010008D0
:1000800023010008230100082301000823010008C0
:10009000230100082301000823010008AD0D00081A
:1000A00000000000230100082301000823010008CC
:1000B00023010008C960000823010008230100088B
:1000C0002301000823010008230100082301000880
:1000D000230100084D6600082301000823010008E1
:1000E000330D0008793B00082301000823010008B4
:1000F00023010008DFF80CD000F018FC004800478E
:100100004D6E0008B00D00200648804706480047A5
:10011000FEE7FEE7FEE7FEE7FEE7FEE7FEE7FEE7B7
:10012000FEE7FEE779600008F500000840EA0103F9
:100130009B0703D009E008C9121F08C0042AFAD29D
:1001400003E011F8013B00F8013B521EF9D2704761
:10015000D2B201E000F8012B491EFBD27047002209
:10016000F6E710B513460A4604461946FFF7F0FFB6
:10017000204610BD421C10F8011B0029FBD1801A3B
:100180007047034611F8012B00F8012B002AF9D122
:1001900018467047F0B480EA0102D40F4200B2EB77
:1001A000410F02D20246084611464A0042D0C30D12
:1001B000DDB2C1F3C752AD1A202D35DAC1F31601F5
:1001C00041F4000204B15242C5F1200602FA06F1E0
:1001D0002A411044B3EBD05F23D0C4B1012DA0EB72
:1001E000C35009DCF0BC4FF0004202EAC352DBB25C
:1001F00000F5000000F0CABA400000F1807000EB8A
:10020000C350A0F1807040EAD170490009E049086C
:1002100041EAC071A0EBC35000F50000400800EBBC
:10022000C350F0BC00F0A9BA6142012202EB4101C7
:10023000001BF6E7F0BC704781F00041AAE780F0B0
:100240000040A7E72DE9FE4F804681EA0300C00F7A
:100250000C46009021F0004123F00045B8EB02006D
:10026000A94105D24046214690461C460B4602460F
:1002700023F00040104347D0270DC7F30A00C3F313
:100280000A510290401A019040286BDAC3F3130020
:1002900040F4801B0098924620B10023D2EB030A61
:1002A00063EB0B0B01985946C0F14002504600F039
:1002B00033FA06460D4650465946019A00F04BFA6D
:1002C00010EB08006141002487EA115284EAE773C9
:1002D0001A4340D0009A62B3019A012A4FEA0752AA
:1002E00015DC001B61EB02014FF0004202EA0752ED
:1002F000CDE90042001C41F5801132462B4600F04A
:1003000082FA03B0BDE8F08F40462146F9E7001BB2
:1003100061EB0201001C41F5801300185B412018BD
:10032000A2F5001747EB030140EAD570B6196D41FD
:1003300011E06D084FEA360645EAC0754FEA0752EC
:10034000001B61EB0201001C41F5801149084FEAD6
:1003500030000019514132462B4603B0BDE8F04F42
:1003600000F042BA0098012240000023D0EB0202C4
:1003700063EBE073009821464FEAE074B8EB0000AD
:1003800061EB0401E9E783F000435BE781F00041A2
:1003900058E72DE9FE4F81EA030404F0004421F000
:1003A000004100944FF0000B23F0004350EA010499
:1003B0005ED052EA03045BD0C3F30A54C1F30A557A
:1003C0002C44A4F2F3340194A0FB0254C1F31301B2
:1003D00041F48011C3F3130343F4801301FB02447F
:1003E00000FB034E840A970A44EA815447EA835784
:1003F000A4FB076802958D0A05FB07854FEA932C3D
:1004000004FB0C542705029D4FEA065847EA1637AD
:10041000B5EB08056EEB070C870E920E47EA8117C5
:1004200042EA8312A7FB0201B6EB0B0164EB000466
:100430002B0D43EA0C335E1844EB1C50DA46514650
:10044000E7FB0201C5F313044FEA0B3343EA1453ED
:100450004FEA0432019C43EA0603A4F10C0402941F
:10046000009CCDE900B400F0CEF903B0BDE8F08FF8
:1004700000200146F9E72DE9F04D81EA030404F07C
:10048000004B21F0004514464FF0000A23F00041D4
:1004900050EA050220D054EA01021DD0C5F30A57E4
:1004A0000246C5F31303C1F31300C1F30A5640F427
:1004B000801543F48013A7EB0608101BD64608F2FC
:1004C000FD3873EB050002D308F1010801E0921832
:1004D0005B41B8F1000F03DA00200146BDE8F08D62
:1004E00000204FF48011064684460EE0171B73EB84
:1004F000050705D3121B63EB050306434CEA010C09
:1005000049084FEA300092185B4150EA0107EDD1EB
:1005100052EA030012D082EA040083EA050108438C
:1005200005D0101BAB4106D20122002306E00022B9
:100530004FF0004302E06FF0010253101AEB060087
:100540004CEB085110EB0A0041EB0B01BDE8F04DFC
:1005500000F04AB970B521F0004303430CD0C1F359
:100560000A550024D5EB040564EB0403D617AD1A35
:10057000B34102DB0020014670BD201841EB02515F
:1005800070BD0EB5C10F80EAE0700844CA070021B3
:1005900040F233438DE80E000A460B4600F033F973
:1005A00003B000BD0EB540F2334102910021CDE908
:1005B00000110A460B4600F026F903B000BD70B5E5
:1005C000C1F30A5201F000450024C1F3130140F2C7
:1005D000FF3341F480119A4201DA002070BD40F2ED
:1005E00033439A42A2F2334203DC524200F0A3F8B2
:1005F00000E090402C43F1D0404270BDC1F30A525C
:1006000010B5C1F3130140F2FF3341F480119A4257
:1006100001DA002010BD40F233439A42A2F2334285
:1006200003DC524200F087F810BD904010BD00F08E
:10063000004230F000400AD0C10D01F56071C0F3F6
:10064000160042EA0151C2084007114370470020DA
:100650000146704730B5041E71F1000404DB4FF011
:100660000044404264EB0101141E73F1000405DBF9
:100670001C464FF00043524263EB04038B4208BF19
:10068000824230BD30B5041E71F1000404DB4FF02E
:100690000044404264EB0101141E73F1000405DBC9
:1006A0001C464FF00043524263EB0403994208BFDB
:1006B000904230BD01F0004330B421F0004150EAD7
:1006C000010206D00A0DA2F56072C1F31301002ADF
:1006D00002DC30BC00207047440F44EAC104C10072
:1006E000E01830BC00EBC25000F047B830B50B4604
:1006F000014600202022012409E021FA02F59D4252
:1007000005D303FA02F5491B04FA02F52844151E25
:10071000A2F10102F1DC30BD202A04DB203A00FA0C
:1007200002F1002070479140C2F1200320FA03F348
:10073000194390407047202A04DB203A21FA02F046
:100740000021704721FA02F3D040C2F1200291400B
:10075000084319467047202A06DBCB17203A41FA96
:1007600002F043EAE07306E041FA02F3D040C2F13E
:10077000200291400843194670470029A8BF7047DE
:10078000401C490008BF20F00100704710B4B0FAC7
:1007900080FC00FA0CF050EA010404BF10BC704762
:1007A00049B1CCF1200421FA04F411FA0CF118BF7C
:1007B000012121430843A3EB0C01CB1D4FEA00614B
:1007C0004FEA102042BF002010BC704700EBC3501E
:1007D00010440029A4BF10BC7047401C490008BF4A
:1007E00020F0010010BC704710B5141E73F1000416
:1007F00008DA401C41F1000192185B411A4301D113
:1008000020F0010010BD2DE9F04D92469B4611B13C
:10081000B1FA81F202E0B0FA80F220329046FFF79E
:100820007BFF04460F4640EA0A0041EA0B015346AB
:100830005A46084313D0114653EA010019D0C8F1B3
:1008400040025046FFF777FF05460E465046594690
:100850004246FFF761FF084305D0012004E020462F
:100860003946BDE8F08D0020054346EAE0762C438A
:1008700037430A986305E40AA0EB08000022FD0A4A
:1008800044EA47540A3002D500200146E9E7010551
:1008900010196941DDE9084500196941BDE8F04DCD
:1008A000A2E700002DE9F041054621F000400C468A
:1008B000284309D0C4F30A5040F23341884205DD91
:1008C00028462146BDE8F0812846FBE740F2FE318C
:1008D000884210DC0CDB4FEA043040EA155050EA45
:1008E000053105D0104804F0004101430020E9E73C
:1008F00000200146E6E7A0F233404642C6F140023E
:1009000028462146FFF708FF074688462846214625
:100910003246FFF710FF43463A46FFF765FF32467F
:10092000BDE8F041FFF7F8BE0000F03F064C074D70
:1009300006E0E06840F0010394E8070098471034AF
:10094000AC42F6D3FFF7DAFB607900088079000843
:1009500070B5044600680168C94349061CD4816823
:1009600021F00101816001F021F905460FE000BF8F
:1009700001F01CF9401B022809D9E06C40F010007E
:10098000E064206D40F001002065012070BD20680A
:100990000068C0434006EBD5002070BDF8B50026C6
:1009A0000446009600680168C94349062AD5816853
:1009B00041F001018160144814490068B0FBF1F076
:1009C00000EB400000E0401E00900028FBD101F049
:1009D000EDF8054611E000BF01F0E8F8401B0228E1
:1009E0000BD9E06C40F01000E064206D40F0010095
:1009F000206584F848600120F8BD20680068C04385
:100A00004006E9D40020F8BD3400002040420F0029
:100A10000149002008707047A0000020064A10B568
:100A20001378002B07D10123137000F01DF8BDE8E7
:100A3000104000F003B810BDA000002009480021BC
:100A40004FF020628160C1604162C162C0E90D2146
:100A50004FF480624261C163012281618262C1619F
:100A600000F0A2BD780100207CB50C460E49054679
:100A70000C4808600D49086840F400700860086878
:100A800000F400700090084800F008FD601C08D0D9
:100A9000002100910B46019103222146284600F0D7
:100AA00031FB7CBD00240140780100202038024049
:100AB0002DE9FF474FF00008012494FAA4F0324ECC
:100AC000B0FA80F0CDF80080CDF80480CDF8088031
:100AD00046F820402D4D2D4B3435022090FAA0F2DF
:100AE000B2FA82F242F02002520901D01A6800E004
:100AF0002A6890FAA0F7B7FA87F707F01F0704FAF9
:100B000007F73A42EAD0214D2035286840F40070BA
:100B100028602868CDE9001400F4007003900620D6
:100B2000029069461A4800F015FC194F3868816830
:100B300041F001018160384600F059FE4FF0FF316D
:100B4000384600F001FE384600F02AFD1FFA80F911
:100B50003868816821F0010181600098102801D077
:100B6000112802D10A4800F099FC286820F400708E
:100B7000286094FAA4F1B1FA81F146F8218004B01A
:100B80004846BDE8F08700000000474200380240B8
:100B900078010020034A12780AB1FFF789BF0020CC
:100BA00070470000A000002010B5040001D003F041
:100BB00051FB0148C47010BD1800002010B586B06C
:100BC0001548FFF725FF154805F09AF803F042FD98
:100BD0000024009423460322602102A8019400F01F
:100BE00091FA009400230322612102A8019400F0ED
:100BF00089FA002300941A462E2102A8019400F0DD
:100C000081FA002300941A462F2102A8019400F0D3
:100C100079FA06B010BD0000E40100204008002071
:100C200072B602484178491C41707047120000209A
:100C300004494878401E10F0FF00487000D162B6A9
:100C4000704700001200002030B51B4D85B0287899
:100C5000A0B105F0ADF900BF4FF0FF3000900523C3
:100C600006220721154805F0C5F803F013FD287882
:100C7000002801D10120287005B030BD00F0D4FF5C
:100C800005F048F903F09EFA0024009401230322A2
:100C9000122102A8019400F035FA009400230322E7
:100CA000082102A8019400F02DFA00F0EBFD00F0FD
:100CB000D9FD00F0DFFDCFE7120000204008002042
:100CC0001CB5002400942346012203210B48019403
:100CD00000F018FA094800940023012218210C3072
:100CE000019400F00FFA0121044800F031FBBDE847
:100CF0001C40024801210C3000F02ABBCC0100202E
:100D0000FEE700000246002004E000BF12F8013BAD
:100D10001844C0B2491EC9B2F8D27047704700F0FB
:100D2000B9BD10B503F096FABDE81040012000F0FF
:100D300061BE10B503F08EFA4FF4806000F05AFEE9
:100D40004FF4006000F056FE4FF4805000F052FE69
:100D50004FF4005000F04EFE4FF4804000F04AFE89
:100D6000BDE810404FF4004000F044BE10B503F061
:100D700071FABDE81040022000F03CBE10B503F04F
:100D800069FABDE81040042000F034BE10B503F04D
:100D900061FABDE81040082000F02CBE10B503F049
:100DA00059FABDE81040102000F024BE10B503F041
:100DB00051FA202000F01EFE402000F01BFE802093
:100DC00000F018FE4FF4807000F014FEBDE81040F3
:100DD0004FF4007000F00EBE70B506464CF2503570
:100DE0000C46284600F00EF9002824D1134801686B
:100DF00021F4807101602CB134702846BDE8704048
:100E000000F000B926F003052C68B007C10EFF20E2
:100E1000884084432946022000F048FD084E002007
:100E2000224630742946102000F06AFD317C0129E9
:100E300002D00121317470BD022070BD043C02401B
:100E4000B00300202DE9F04104464CF250370E4625
:100E5000384600F0D7F8050034D11D48016821F468
:100E6000807101602EB12680384600F0CBF805462F
:100E700028E0184E00203074E043800713D024F09F
:100E800003073D68A007C10E4FF6FF7088408543F9
:100E90003946022000F00AFD2A463946102000F0AB
:100EA0002FFD054609E000222146042000F028FD20
:100EB0000022611C042000F023FD307C012804D0B6
:100EC000012030742846BDE8F0810220FBE70000D5
:100ED000043C0240B003002070B505464CF2503689
:100EE0000C46304600F08EF800281FD12CB12C7033
:100EF0003046BDE8704000F085B825F00306346840
:100F0000A807C10EFF20884084433146022000F02C
:100F1000CDFC084D0020224628743146102000F0F8
:100F2000EFFC297C012902D00121297470BD022027
:100F300070BD0000B00300202DE9F04104464CF2E2
:100F400050370E46384600F05DF805002FD12EB11F
:100F50002680384600F056F8054628E0164E002058
:100F60003074E043800713D024F003073D68A007E6
:100F7000C10E4FF6FF70884085433946022000F0CD
:100F800095FC2A463946102000F0BAFC054609E0D7
:100F900000222146042000F0B3FC0022611C042042
:100FA00000F0AEFC307C012804D0012030742846CB
:100FB000BDE8F0810220FBE7B00300200F4A0021CA
:100FC0001068C3050E4804D5416941F00201416132
:100FD000911513689B0505D5436943F001034361EF
:100FE00041F4007113681B0505D5436943F0040300
:100FF000436141F40061116070470000183C0240F9
:10100000B003002070B5054600F0D0FD0646114C37
:1010100009E0681C07D025B100F0C8FD801BA8427C
:1010200001D9032070BD2068C007F2D12068800775
:1010300001D5022020602068C00505D42068000585
:1010400002D42068800503D5FFF7B8FF012070BDEA
:10105000002070BD183C02400B4601461846FFF7C1
:1010600065B8006870472DE9F04117460E46044602
:10107000002500F099FC50B10BE0327821460020A9
:1010800000F03EFC002808D1641C6D1C761CBD429B
:10109000F3D3BDE8F04100F029BCBDE8F08170B5A4
:1010A0000E460546002400F07FFC70B93246294602
:1010B000022000F025FC40B132462946022000F013
:1010C0001FFC10B1641C032CF6D3BDE8704000F087
:1010D0000DBC002070470000094A002152F8313051
:1010E000834208D802EBC1039B68834203D902EB19
:1010F000C10000797047491CC9B21529EED3FEE73B
:10110000B07800087CB5DDE90645CDE9004500F082
:1011100001F87CBDF0B587B00546DDE90C760170BD
:10112000481C6AD001F00F04012000FA04F46C801E
:10113000334C11F0F00F1FD0C1F30311012925D05A
:1011400002292DD0032935D02E496960216841F04C
:1011500020012160216801F020010591698800913A
:10116000AF720221CDE9027172B3032A2ED0022A96
:101170002FD0012B35D035E023496960216841F03B
:1011800001012160216801F00101E6E71F49696062
:10119000216841F002012160216801F00201DCE7D1
:1011A0001B496960216841F004012160216801F058
:1011B0000401D2E717496960216841F00801216004
:1011C000216801F00801C8E7002000E00320019039
:1011D0000FE0012B02D0019104960AE01220019049
:1011E000FAE711200190012A03D13146284600F088
:1011F000A1F86946686800F009FC07B0F0BD00007E
:101200001C3802400014024000000240000402406A
:1012100000080240000C024090F90010491C03D065
:101220004188406800F0B8BC002070472DE9F041CB
:1012300086B01F00904605464FF000064FF00604AA
:101240006CD068880090012916D0022916D0354844
:101250000190A87A0290022003906946686800F025
:10126000D5FB5FEA08000BD0012809D0022809D07D
:10127000B8F1030F09D107E02B48E9E72B48E7E76E
:10128000032602E0022600E001266888B0F5807F90
:1012900033D012DC10282ED008DC012830D00228F0
:1012A00023D0042823D008282AD122E0202824D0C3
:1012B000402822D0802823D11FE0B0F5805F1ED0C7
:1012C00009DCB0F5007F18D0B0F5806F17D0B0F50D
:1012D000006F15D113E0B0F5005F10D0B0F5804F6E
:1012E0000DD0B0F5004F0BD109E0072408E0082429
:1012F00006E0092404E00A2402E0172400E0282480
:1013000028780B4900F00F00002241F82070314688
:10131000204600F0B5FC204600F0A7FC06B0BDE872
:10132000F0810000000031100000111000002110B9
:101330002802002090F90020521C04D0CAB2418833
:10134000406800F02EBC7047FFF766BFFFF76EBF26
:10135000FFF7F0BFF8B50024009490F84820254628
:10136000012A12D0012280F848204A681F23072A48
:101370000DD20668376C521E02EB820293409F43E7
:101380000B6893401F43376435E00220F8BD0D2AF7
:101390000BD20768FE6BD21F02EB820293409E4382
:1013A0000B6893401E43FE6325E0132A0BD20668A8
:1013B000B76B0D3A02EB820293409F430B68934058
:1013C0001F43B76317E00668192A0AD2776B133AEE
:1013D00002EB820293409F430B6893401F43776365
:1013E00009E0376B193A02EB820293409F430B6886
:1013F00093401F4337630A6807230A2A0AD2066804
:10140000776902EB420293409F438B6893401F43EE
:1014100077611CE0142A0BD207683E690A3A02EB96
:10142000420293409E438B6893401E433E610EE010
:101430001A2A0BD80768FE68143A02EB420293405E
:101440009E438B6893401E43FE6000E000BF0A6825
:10145000102A01D0112A17D10D4A13681B0213D488
:10146000136843F400031360096810290CD109497B
:10147000094A0968B1FBF2F101EB8101490000E082
:10148000491E00910029FBD180F848502046F8BD44
:10149000042701403400002040420F0070B50400D2
:1014A0000BD0E06C40F00200E0642046FFF750FAF9
:1014B00006004FF0000502D065E0012070BD2168F4
:1014C0006FF01F00086020684168314A1140416098
:1014D000206881682F4A1140816000BF2068C16880
:1014E0006FF31401C1602068016901F0404101619E
:1014F0002068416901F040414161206881696FF3D2
:101500000B0181612068C1696FF30B01C161206823
:10151000016A6FF30B0101622068416A6FF30B01EE
:1015200041622068816A6FF30B0181622068C16AA1
:101530006FF30B01C1622068016B174A1140016310
:101540002068416B01F0404141632068816B01F0EC
:10155000404181632068C16B01F04041C163206854
:10156000016C01F0404101642068416C6FF315018A
:1015700041640A48016821F400010160204600F03E
:10158000E1F82565E56484F84850304670BD0000F8
:1015900000003CF88CF0808000800FFE04270140A2
:1015A0000068806D70470000F8B504004FF000053A
:1015B00003D0E06C002610B110E00120F8BD2665D4
:1015C0005B4884F84860016841F0010101600068EF
:1015D00000F001000090204600F0B5F8E06CC00675
:1015E00078D4E06C20F4885040F00200E064514868
:1015F0000168626821F44031114301606169E0686B
:101600004FF40073084393FAA3F3E26BB3FA83F346
:10161000216A9A4011430843022191FAA1F1626ABA
:10162000B1FA81F102FA01F10843616B102902D08D
:10163000A36B19430843236819684FF48077C943A3
:10164000490629D5A169D4F81CC00843A168D4F87B
:1016500010E041EA0C01BE450CD0BEF1010F09D0EB
:101660004FF0000C41EA0C01D4F82CC0BCF1010F82
:1016700002D00AE0BC46F5E76AB3E26C42F0200211
:10168000E264226D42F0010222655A68DFF8A8C0C8
:1016900002EA0C020A435A6021688A68274B1A4002
:1016A00002438A602169B94224D0012922D02168ED
:1016B0000A6B22F0F8720A6321688968204A114097
:1016C000814227D12665E06C20F0020040F0010045
:1016D000E0642AE028E0FFE74FF4604C226B9CFABC
:1016E000ACFCBCFA8CFC521E02FA0CF20A4342F427
:1016F0000061CAE721680A6B4FF0F87722F0F873AF
:10170000A26A97FAA7F7B7FA87F7521EBA401343AF
:101710000B63D1E7E06C20F0020040F01000E064C1
:10172000206D40F00100206501252846F8BD00002D
:101730002038024004270140FF16FCFC8DF1FFC059
:10174000FEFF80BF704770472DE9F04104460068F6
:101750000D4681684FF0000749050BD58068C0052C
:1017600008D5E06C40F02000E06484F84870012067
:10177000BDE8F08100F01AFA06460FE0681C0DD0B3
:1017800025B100F013FA801BA84207D9E06C40F0A5
:101790000400E06484F848700320E9E720680068EA
:1017A0008007EBD5A06918B921686FF012000860B6
:1017B000E06C40F40070E0642068816811F0405FE4
:1017C00013D1616A89B9016B11F0F87F02D080688A
:1017D00040050AD4E06C20F48070E064E06CC00442
:1017E00003D4E06C40F00100E0640020C0E710B5D5
:1017F000044690F84800012822D0012084F84800CF
:101800002046FFF7CBF800281BD1E16C40F20162C3
:10181000914341F48071E16421684A68520505D51D
:10182000E26C22F4005242F48052E264E26CD3048F
:101830004FF0000206D5236D23F00603236502E076
:10184000022010BD226584F848206FF022020A6051
:1018500021688A6812F0405FF3D18A6842F08042C2
:101860008A6010BD0248416841F001014160704743
:10187000002004E00248416841F0040141607047E3
:10188000002004E00248416841F0020141607047D5
:10189000002004E031B500F089F9044600F086F933
:1018A0000099001B8842F9D338BD000070B5054689
:1018B0004CF250360C463046FFF7A4FB002811D1FD
:1018C00009494861022D03D0012D03D025B104E060
:1018D000206002E0208000E020703046BDE87040CB
:1018E000FFF790BB70BD0000B00300200348016803
:1018F00041F001010160002070470000043C0240FB
:101900002DE9F047264E05461446307C0F46012847
:101910000AD0012030744CF250384046FFF772FB79
:101920004FF0000918B138E00220BDE8F087C6F892
:101930001490042D09D0082D0CD0102D0FD0022D9D
:1019400018D0012D20D025B327E0E1B23846FFF7AB
:1019500043FA22E0A1B23846FFF774FA1DE045468B
:101960004046FFF74FFBC0B90E48016821F4807173
:10197000016004E045464046FFF744FB68B93C601F
:101980002846FFF73FFB08E0A1B23846FFF7D4FA3C
:1019900003E0E1B23846FFF79FFA86F81090C4E7FB
:1019A000B0030020043C024006480068C00707D08E
:1019B000044805490830016004490160002070476F
:1019C00001207047043C0240EFCDAB8905040302BF
:1019D000002118B904E04008491CC9B20128FAD115
:1019E000034850F82100002800D00047704700004D
:1019F00028020020044910B50A68024202D008609B
:101A0000FFF7E6FF10BD0000140401402DE9F84F78
:101A1000DFF864B100234FF0010C4FF0030A4FF0E0
:101A20000F090BF1040EA0E00CFA03F6324072D05D
:101A30004C68022C01D0122C0ED1DC0800EB84087B
:101A4000D8F820405D07EF0E09FA07F5AC430D69A1
:101A5000BD402543C8F8205007685D0091F8048018
:101A60000AFA05F408F00308A74308FA05F848EA5B
:101A70000708C0F800804F68012F05D0022F03D05F
:101A8000112F01D0122F11D18768D1F80C80A743F4
:101A900008FA05F848EA0708C0F808804768B7431D
:101AA0000E79C6F300169E403E434660C668A643C4
:101AB0008C68AC403443C4604C68E40054D52F4C6F
:101AC000256845F001052560246823F0030504F02E
:101AD000010400942A4C2544AF689C07240F09FA9E
:101AE00004F6B743274EB04201D1002615E0264E3A
:101AF000B04201D1012610E0244EB04201D10226AD
:101B00000BE0234EB04201D1032606E0214EB04245
:101B100002D1042601E027E00526A6403E43AE6040
:101B2000DBF800405D464E689443F60300D514434D
:101B30002C60DEF8004075464E689443B60300D52D
:101B400014432C600C4D08352C684E689443F60203
:101B500000D514432C60084D0C352C684E68944316
:101B6000B60200D514432C605B1C0A6832FA03F4F9
:101B70007FF45AAFBDE8F88F0004014020380240DE
:101B80000000014000000240000402400008024042
:101B9000000C0240001002400069084000D0012003
:101BA00070470AB1816170470904FBE7014800688A
:101BB000704700003800002070B5040011D0216883
:101BC0004CF6CC400860216845F255500860D4E9D5
:101BD000000141602168A0688860FFF7E7FF0546C3
:101BE00009E0012070BD00BFFFF7E0FF401B302877
:101BF00001D9032070BD2068C0680028F4D1216895
:101C00004AF6AA200860002070BD00684AF6AA21A2
:101C1000016000207047000002480168491C016013
:101C2000704700003800002010B5032000F048F88D
:101C3000002000F005F800F017F8002010BD0000AB
:101C400010B5044607484FF47A710068B0FBF1F014
:101C500001F0F9F900222146501E00F011F8002091
:101C600010BD000034000020704700F01F02012169
:101C700091404009800000F1E020C0F80011704759
:101C8000F0B40E4B1B680C46C3F30223C3F10705E7
:101C9000042D00D90425191D072901D2002300E0D5
:101CA000DB1E012606FA05F1491E214099409E409F
:101CB000761E16403143F0BC01F086BC0CED00E00E
:101CC000064900F0070208684FF6FF03184040EA93
:101CD0000220034A10430860704700000CED00E04A
:101CE0000000FA050120810291FAA1F1024AB1FA3D
:101CF00081F142F82100704700000E4201204102AC
:101D000091FAA1F1024AB1FA81F142F8210070473B
:101D100000000E420248006800F4C0507047000006
:101D2000007000400020102191FAA1F1024AB1FA9E
:101D300081F142F82100704700000E420B4A1368FF
:101D400023F00303034313600948026842F00402CE
:101D50000260012907D040BF20BF20BF016821F0E9
:101D600004010160704730BFF8E7000000700040D8
:101D700010ED00E02DE9F84F06460078C00775D059
:101D8000DFF84C810027D8F80000C0000BD4D8F849
:101D9000001041F08051C8F80010D8F80000012769
:101DA00000F0805000904B4C2068C00510D4206893
:101DB00040F480702060FFF7F9FE054605E000BFA3
:101DC000FFF7F4FE401B64284ED82068C005F7D505
:101DD0003F4D243D286800F0C041706800F0C042CB
:101DE0008A4209D0C0F30141032905D1296889033A
:101DF00002D50120BDE8F88F354C1034216811F46C
:101E000040314AD000F44030884246D03078C00794
:101E100043D020684FF4000292FAA2F1B1FA81F1A6
:101E20004FEA810C2C494FF0010A8C4420F44030D9
:101E3000CCF880A692FAA2F2B2FA82F201EB820109
:101E40000023C1F880362060C00526D5FFF7AEFE1E
:101E500081464FF4007B0AE0FFF7A8FEA0EB0901E2
:101E600041F28830814202D90320C3E72EE09BFA79
:101E7000ABF0B0FA80F040F04001BAEB511F01D155
:101E8000296800E021689BFAABF2B2FA82F202F014
:101E90001F020AFA02F00142DED07068C0F301416D
:101EA000032906D1296800F0C04021F0C041014358
:101EB00029602068716801F44031084320602FB127
:101EC000D8F8001021F08051C8F80010002091E7E8
:101ED0002438024000700040000047422DE9F047DE
:101EE000DFF8BC8105460E46D8F8000000F001007E
:101EF000B04214D2012E05D1D8F8001041F00401EF
:101F0000C8F80010D8F8001021F001013143C8F8DA
:101F10000010D8F8000000F00100B04271D128781C
:101F2000604C800705D52068A96820F0F0000843C0
:101F300020602878C00771D05A4A5A4B696801203E
:101F4000083A2C33022910D003292ED001292FD092
:101F50005FEA402797FAA7FCBCFA8CFC4CF0200CF7
:101F60005FEA5C1C04D0126803E04FF40037F1E72D
:101F70001A6897FAA7F3B3FA83F303F01F039840A4
:101F8000024262D0206820F0030008432060FFF77F
:101F90000DFE6968074641F28830022910D00329F6
:101FA0001CD00129814626D034E04FF00077D1E7DC
:101FB0000227CFE7FFF7FAFDC11B494501D926E00B
:101FC00081462068C0F381000228F3D126E000BFDB
:101FD000FFF7ECFDC11B494501D918E08146206897
:101FE000C0F381000328F3D118E000BFFFF7DEFD46
:101FF000C11B49450BD82068C0F381000128F5D1E9
:102000000CE022E0FFF7D2FDC11B494502D90320B5
:10201000BDE8F087206810F00C0FF3D1D8F800105D
:10202000404601F00101B14211D9012E03D10168EE
:1020300041F004010160016821F0010131430160B8
:10204000006800F00100B04201D00120E0E72878EC
:10205000400705D52068E96820F4E0600843206067
:102060002878000706D52068296920F4605040EAE6
:10207000C100206000F052F82168F02292FAA2F22A
:1020800001F0F001B2FA82F2D140074A515CC84037
:10209000064908600020FFF7D3FD0020B8E70000E4
:1020A000003C024008380240517200083400002011
:1020B00001480068704700003400002008480949C2
:1020C000006809684FF4E06292FAA2F201F4E0615C
:1020D000B2FA82F2D140044A515CC8407047000015
:1020E000340000200838024061720008084809499D
:1020F000006809684FF4605292FAA2F201F460514C
:10210000B2FA82F2D140044A515CC84070470000E4
:102110003400002008380240617200081E4A11682D
:1021200001F00C00042813D0082813D00C2813D079
:10213000101F006800F460414FF4604090FAA0F076
:10214000B0FA80F0C1404FF40040491C884070470D
:1021500012487047124870474FF4701393FAA3F374
:1021600001F47010B3FA83F3D8400E4B01F4400130
:102170001268185C4FF4400393FAA3F3B3FA83F3A5
:10218000D940491CD20301D5054A00E0034A504317
:10219000B0FBF1F070470000083802400024F40062
:1021A00000127A00487200082DE9F84F07460078BF
:1021B000FB4EFC4DC0074FF0010428D0F848083012
:1021C00001684FF40038C1F38101022907D001688A
:1021D000C1F3810103291BD10068C00318D598FA07
:1021E000A8F0B0FA80F040F02000400901D030683B
:1021F00000E0286898FAA8F1B1FA81F101F01F0116
:1022000004FA01F108425CD0786800287BD058E0DD
:10221000786801280AD008B1052811D0306820F468
:1022200080303060306820F4802002E0306840F474
:1022300080303060786828B3FFF7B8FC81460BE047
:10224000306840F480203060F0E700BFFFF7AEFC5C
:10225000A0EB0900642872D898FAA8F0B0FA80F0D0
:1022600040F02000400901D0306800E0286898FA6A
:10227000A8F1B1FA81F101F01F0104FA01F108425D
:10228000E4D01EE0FFF792FC814605E0FFF78EFCEC
:10229000A0EB09006428DED898FAA8F0B0FA80F024
:1022A00040F02000400901D0306800E0286898FA2A
:1022B000A8F1B1FA81F101F01F0104FA01F108421D
:1022C000E4D13878DFF8E08280074FF0000B4FF060
:1022D00002095FD5B24808300168C1F381010129C4
:1022E00007D00168C1F3810103291CD10068C00334
:1022F00019D499FAA9F0B0FA80F040F02000400912
:1023000002D0306801E086E0286899FAA9F1B1FAB4
:1023100081F101F01F0104FA01F108422BD0F868A5
:10232000012878D127E0F868A8B394FAA4F0B0FAAD
:1023300080F048F82040FFF739FC824606E066E16D
:10234000FFF734FCA0EB0A00022884D899FAA9F11F
:10235000B1FA81F141F02001490901D0316800E072
:10236000296899FAA9F0B0FA80F000F01F0004FA89
:1023700000F00142E4D08A48001D01684FF4F85390
:1023800093FAA3F33A69B3FA83F321F4F8519A402C
:102390001143016025E0FFE794FAA4F1B1FA81F15D
:1023A00048F821B0FFF702FC824605E0FFF7FEFB8C
:1023B000A0EB0A000228C8D899FAA9F0B0FA80F078
:1023C00040F02000400901D0306800E0286899FA08
:1023D000A9F1B1FA81F101F01F0104FA01F10842FB
:1023E000E4D138784FF4007AC0067CD56C480830C8
:1023F000006810F00C0F0FD0B9694FF480700029FD
:1024000072D090FAA0F0B0FA80F048F82040FFF7C0
:10241000CDFB00907EE087E09AFAAAF0B0FA80F057
:1024200040F02000400901D0306800E028689AFAA6
:10243000AAF1B1FA81F101F01F0104FA01F1084299
:1024400002D0B86900286FD05548396A001D00686D
:1024500000F4604081421AD9084601F051FB00287F
:1024600062D14F48001D01683A6A21F4604111436E
:10247000016001684FF07F4393FAA3F3FA69B3FA5E
:1024800083F321F07F419A401143016018E04448F2
:10249000001D026822F460420A43026001684FF0A6
:1024A0007F4393FAA3F3FA69B3FA83F321F07F41F0
:1024B0009A4011430160386A01F022FB0028CFD115
:1024C0004FF4604191FAA1F1386AB1FA81F1C84044
:1024D0004FF40041401C8140314808300068F02230
:1024E00000F0F00001E070E040E092FAA2F2B2FAEF
:1024F00082F2D0402D4A105CC1402D48016000207E
:10250000FFF79EFB61E000BFFFF750FB0099401A08
:1025100002287CD89AFAAAF0B0FA80F040F02000A5
:10252000400902D0306801E0BCE128689AFAAAF1BB
:10253000B1FA81F101F01F0104FA01F10842E3D080
:102540001748001D01683A6A21F460411143016097
:1025500001684FF07F4393FAA3F3FA69B3FA83F368
:1025600021F07F419A40114301602EE090FAA0F0E3
:10257000B0FA80F048F820B0FFF718FB009005E0B3
:10258000FFF714FB0099401A0228C2D89AFAAAF061
:10259000B0FA80F040F0200040090BD030680AE02B
:1025A00000380240343802400000474251720008AF
:1025B0003400002028689AFAAAF1B1FA81F101F0FA
:1025C0001F0104FA01F10842DAD13878000753D527
:1025D000786948B394FAA4F0B0FA80F008EB800070
:1025E000C0F88046FFF7E2FA009005E0FFF7DEFA58
:1025F0000099401A02288CD899FAA9F0B0FA80F014
:1026000040F04000B4EB501F02D1306801E08EE092
:10261000286899FAA9F1B1FA81F101F01F0104FAD1
:1026200001F21042E2D027E094FAA4F1B1FA81F16C
:1026300008EB8101C1F880B6FFF7B8FA009005E019
:10264000FFF7B4FA0099401A022870D899FAA9F055
:10265000B0FA80F040F04000B4EB501F01D1306878
:1026600000E0286899FAA9F1B1FA81F101F01F019F
:1026700004FA01F21042E3D1387840077BD59B4839
:102680004FF000090068C0000AD49848016841F082
:102690008051016000684FF0010900F08050009007
:1026A00093480168C90511D4016841F48071016043
:1026B000FFF77CFA009005E0FFF778FA0099401ADE
:1026C000642834D88A480068C005F5D5B868012860
:1026D0000AD008B1052811D0286820F4807028603D
:1026E000286820F4806002E0286840F48070286048
:1026F000B86848B3FFF75AFA00900DE0286840F434
:1027000080602860F0E700BFFFF750FA0099411A97
:1027100041F2883081420AD89AFAAAF0B0FA80F0E1
:1027200040F04000B4EB501F02D1306801E095E06A
:1027300028689AFAAAF1B1FA81F101F01F0104FAAE
:1027400001F21042E0D022E0FFF730FA009007E0FB
:10275000FFF72CFA0099411A41F2883081427DD866
:102760009AFAAAF0B0FA80F040F04000B4EB501FA3
:1027700002D1306801E012E028689AFAAAF1B1FAB1
:1027800081F101F01F0104FA01F21042E0D1B9F128
:10279000000F04D05548016821F080510160786A2B
:1027A000E8B3DFF84891A9F11C09D9F80010C1F38A
:1027B0008101032976D002284FF080714FF0007A12
:1027C00058460BD091FAA1F1B1FA81F148F82100F5
:1027D000FFF7ECF9B046074656466DE04FF08071C2
:1027E00091FAA1F1B1FA81F18A0042495050FFF704
:1027F000DDF9B3468046564606E000BFFFF7D6F93E
:10280000A0EB0800022854D896FAA6F0B0FA80F09F
:1028100040F02000400903D0DBF8000001E061E057
:10282000286896FAA6F1B1FA81F101F01F0104FAC5
:1028300001F10842E2D1D7E90A103A6BD9F8003029
:10284000014323F47D031A431143C9F800104FF0EC
:10285000807090FAA0F0B0FA80F000E029E08100EA
:1028600024480C50FFF7A2F9074604E0FFF79EF951
:10287000C01B02281DD896FAA6F0B0FA80F040F0EE
:102880002000400902D0DBF8000000E0286896FA3A
:10289000A6F1B1FA81F101F01F0104FA01F1084239
:1028A000E4D01FE020E000BFFFF780F9C01B022842
:1028B00002D90320BDE8F88F96FAA6F0B0FA80F0AE
:1028C00040F02000400902D0D8F8000000E028685D
:1028D00096FAA6F1B1FA81F101F01F0104FA01F1B3
:1028E0000842E1D10020E5E70120E3E72438024077
:1028F000007000400000474270472DE9F047044651
:10290000007F01281CD001262677022060772168ED
:10291000CA2048622168532048622068816821F4F7
:10292000806181602068816821F480418160FFF7C7
:102930003DF9054600274FF0FF084FF47A790EE085
:102940000220BDE8F087FFF731F9401B484506D962
:102950002168C1F82480032060772777F1E7206899
:10296000C0684007EFD52168C1F8248066772777D3
:102970000020E6E77047000010B504460068816853
:10298000C9040CD5C068C00509D52046FFF7F2FF81
:102990002068C16801F0800161F4C071C1602068E5
:1029A000816889040CD5C068800509D52046FFF7E9
:1029B000A3FF2068C16801F0800161F42071C1604B
:1029C00003494FF4003008600120607710BD00001B
:1029D000140401402DE9F0470446007F012822D06D
:1029E0004FF0010884F81C80022060772268CA201A
:1029F000506222685320506220680025FF26B1F5FE
:102A0000807F81684FF0030A4FF47A790ED021F469
:102A1000007181602068816821F400518160FFF7B6
:102A2000C5F8074624E00220BDE8F08721F4807154
:102A300081602068816821F480518160FFF7B6F8D9
:102A4000074604E0FFF7B2F8C01B484509D82068E4
:102A5000C068C007F6D00FE0FFF7A8F8C01B4845D4
:102A600006D92068466284F81DA025770320DBE79D
:102A70002068C0688007EFD52068466284F81D8012
:102A800025770020D0E710B50C464FF480718A42BC
:102A900003D1A1610068C16904E04FF40071A16134
:102AA0000068016AC1F305402070C1F3062262701C
:102AB00001F07F02A270402202EA1142E270C1F3EB
:102AC0000562227501F0804201F08031C4E90312F1
:102AD00073B901F067F82070607801F063F86070F6
:102AE000A07801F05FF8A070207D01F05BF8207500
:102AF000002010BD10B500680B4641680D4801402C
:102B0000080CD870C1F304245C7001F03F049C7081
:102B1000C1F34231197052B901F044F8D8705878B5
:102B200001F040F85870987801F03CF89870002057
:102B300010BD00003FFFFF0010B500680C460168A3
:102B40000E480140C1F305402070C1F306236370B5
:102B500001F07F03A370402303EA1141E17052B9F1
:102B600001F020F82070607801F01CF86070A07807
:102B700001F018F8A070002010BD00007F7F7F00DA
:102B800070B5040002D0607F10B106E0012070BD76
:102B900000202077204600F041F80220607721686D
:102BA000CA204862216853204862204601F00EF88E
:102BB000FF210028206803D0416204206077E5E708
:102BC0008268154B1A4082602268906863681843D7
:102BD000D4E904352B43184390602268E068106103
:102BE00020680269238942EA034202612068C268C0
:102BF00022F08002C2602068026C22F4802202640B
:102C00002068026CA3691A430264206841620120B3
:102C10006077002070BD0000BFFF8FFF704700008D
:102C20002DE9F05F0446007F0D46012844D04FF0A7
:102C3000010B84F81CB002206077206800278068B0
:102C40004FEA4060BAB3002852DA287800F0AAFFB1
:102C5000287D00F0A7FFA8782978EA7840EA0140AB
:102C60006978090241EA02410843297D40EA016688
:102C7000286921680643E8680643CA20486221683B
:102C800053204862A869FF25B0F5807F20684FF087
:102C9000030A4FF47A7981682CD021F400718160A5
:102CA0002068C16801F0800161F42071C160FEF705
:102CB0007DFF80464FE002E00220BDE8F09F002843
:102CC00000DBEF70287800F076FF0604687800F0EB
:102CD00072FF46EA0026A87800F06DFF0643E87808
:102CE00046EA0046287D00F066FF46EA0066BFE738
:102CF000EF70ADE721F4807181602068C16801F058
:102D0000800161F4C071C160FEF750FF804605E0AC
:102D1000FEF74CFFA0EB0800484515D82068C068B6
:102D2000C007F5D02068C6612068816841F48071D1
:102D300081602068816841F480511BE0FEF736FF16
:102D4000A0EB0800484506D92068456284F81DA01C
:102D500027770320B1E72068C0688007EED5206898
:102D600006622068816841F4007181602068816892
:102D700041F4005181600948016841F4003101606B
:102D800006480830016841F400310160206845625E
:102D900084F81DB0277700208FE700000004014071
:102DA0002DE9F0470446007F0B46012825D04FF05F
:102DB000010984F81C9002206077587802B300F073
:102DC000F1FE987800F0EEFE9878D97840EA014557
:102DD00058781978000240EA413005432168CA203A
:102DE0004862216853204862204600F0EFFE00262A
:102DF000FF274FF0040838BB19E00220BDE8F08738
:102E0000C10603D500F0EF000A305870D87800F002
:102E1000D2FE0204587800F0CEFE42EA00229878F2
:102E200000F0C9FE0243187842EA4035D6E70D4863
:102E30000540206845602068C16821F08001C160BC
:102E4000204600F085F830B12068476284F81D8084
:102E500026770120D2E72068476284F81D90267704
:102E60000020CBE73FFFFF002DE9F0470446007F3D
:102E70000D46012811D04FF0010A84F81CA0022051
:102E800060772068002680684FEA406042B10028E1
:102E90001ADA287800F086FE17E00220BDE8F087F5
:102EA000002800DBEE70287800F085FE02046878C8
:102EB00000F081FE42EA0022A87800F07CFE024386
:102EC000E87842EA00470AE0EE70A878297840EAFC
:102ED00001476878E978000240EA01400743216829
:102EE000CA204862216853204862204600F06EFEE6
:102EF0004FF0FF084FF00409C0B91448074020689C
:102F000007602068816821F480218160D5E9010192
:102F1000084321688A68104388602068C16821F0EE
:102F20008001C160204600F013F838B12168C1F873
:102F3000248084F81D9026770120AFE72168C1F82E
:102F4000248084F81DA026770020A7E77F7F7F00DC
:102F500070B504460068C16821F0A001C160FEF7A9
:102F600025FE05464FF47A7607E000BFFEF71EFE09
:102F7000401BB04201D9032070BD2068C0688006A4
:102F8000F4D5002070BD10B504000ED02068016893
:102F900021F040010160204600F046F80020606505
:102FA00084F8510084F8500010BD012010BD70B5A8
:102FB000040004D094F85100002510B106E001206F
:102FC00070BD84F85050204600F02FF8022084F89D
:102FD00051002068016821F040010160D4E901013D
:102FE0000843D4E903121143084361690843218B64
:102FF00001F400710843E1690843216A0843A16AAA
:10300000084321680860A069042101EA1040616A50
:103010000843216848602168E06A0861656501200D
:1030200084F85100002070BD704770474FF0E021D8
:103030000428086903D020F004000861704740F0BC
:103040000400FAE7704710B5401EB0F1807F01D34D
:10305000012010BD4FF0E02460610F21601700F0E7
:10306000B3FA0020A06107202061002010BD10B538
:10307000FFF7E8FF10BD10B5040003D094F8350049
:1030800010B107E0012010BD002084F83400204674
:1030900000F00CF8022084F83500211D206803F0B0
:1030A0002FF8012084F83500002010BD08B5006815
:1030B0000B49884212D10B48016841F002010160BE
:1030C0000068032200F00200009001211D20FEF79D
:1030D000D7FDBDE808401D20FEF7C7BD08BD0000B4
:1030E00000040040243802400168CA6842F001022E
:1030F000CA600068016841F001010160002070476A
:10310000704770B50446006801694FF00005C94377
:10311000890715D4C168C943890711D4E91E016123
:1031200001202075206880698007204602D0FFF7C3
:10313000E7FF04E000F078F8204600F076F8257507
:1031400020680169C943490717D4C168C9434907C1
:1031500013D46FF00401016102202075206880699A
:1031600010F4407F204602D0FFF7CAFF04E000F0D1
:103170005BF8204600F059F8257520680169C943BD
:10318000090716D4C168C943090712D46FF00801B2
:103190000161042020752068C0698007204602D0A4
:1031A000FFF7AEFF04E000F03FF8204600F03DF8E6
:1031B000257520680169C943C90617D4C168C94388
:1031C000C90613D46FF01001016108202075206832
:1031D000C06910F4407F204602D0FFF791FF04E061
:1031E00000F022F8204600F020F8257520680169DB
:1031F000C943C90708D1C168C943C90704D1891E99
:103200000161204600F012F820680169C9434906AF
:1032100009D4C168C943490605D46FF04001016172
:10322000204600F031F870BD704770471149884260
:103230001ED11148114A4168491C41608168491CEE
:1032400081600188491C0180C168491CC1601078F7
:1032500060B10B480178491CC9B20170032905D936
:1032600000211170017007490120087000F03CB97D
:103270007047000068090020B00000202D000020E9
:103280002E0000202C000020704770B5040004D0F0
:1032900094F83900002510B106E0012070BD84F8D3
:1032A0003850204600F020F8022084F839002068C9
:1032B000C16821F40051C160204603F06DF8206818
:1032C000016921F4904101612068416921F02A01DE
:1032D00041612068C16841F40051C160E56301208B
:1032E00084F83900002070BD7047000090F8393034
:1032F000012B01D0122B2CD139B332B390F83830D6
:10330000012B26D0012380F8383081628285C28566
:103310000021C16390F83920122A18D05FF02202F0
:1033200080F8392080F838100168CA6842F4807249
:10333000CA6001684A6942F001024A610068C168D6
:1033400041F02001C1600020704701207047322207
:10335000E6E702207047000003480078002802D00A
:103360000248FEF752BC7047C0000020A0090020B0
:10337000044A034B1360C2E901011046FEF71CBC6E
:1033800000300040A009002070B5144C144D207985
:10339000012811D0002817D11248FDF7D5FF0128C8
:1033A00012D120682968091AA1F10B020120B2F597
:1033B000BA6F0AD860710EE00A48FDF7C5FF002811
:1033C00002D120712868206070BD40F2DC52914229
:1033D00001D302216171207170BD000078000020CE
:1033E000B4000020F806002070B5144C144D20796C
:1033F000012811D0002817D11248FDF7A5FF012898
:1034000012D120682968091AA1F10B020120B2F536
:10341000BA6F0AD860710EE00A48FDF795FF0028E0
:1034200002D120712868206070BD40F2DC529142C8
:1034300001D302216171207170BD00008000002065
:10344000B40000200407002070B5144C144D2079FE
:10345000012812D0002818D11248FDF775FF012865
:1034600013D122682868811AA1F10B030120B3F55A
:10347000BA6F0BD852B160710EE00A48FDF764FFD5
:10348000002802D120712868206070BD40F2DC5213
:10349000914201D302216171207170BD880000202A
:1034A000B4000020100700201CB501240023009464
:1034B0001A462D210B480194FDF724FE09480023EC
:1034C00000941A4611210C300194FDF71BFE0548AB
:1034D000002300941A46152118300194FDF712FEBE
:1034E0001CBD0000F806002010B5FFF74DFFFFF7E8
:1034F0007BFFBDE81040FFF7A7BF0000F0B5304EDE
:103500000022A6F13C0096F805C0017A4FF47A74C7
:10351000BCF1000F13D005466B795B1C5FB2D5E997
:1035200007355B1C6D1CBCF1010F11D0BCF1020F03
:1035300004D10DE002290FD0032912D07271204B63
:1035400008335D79BDB1012D24D0022D12D121E0C7
:103550000129EFD14771F1E7C361A342EEDDC261FA
:10356000ECE70562A542E9DD0262E7E7022917D030
:1035700003291BD05A71124910314C79002C1DD0EF
:10358000A1F14C031B7A5B1CDBB2012C14D0022C82
:1035900013D111E00129E9D14179491E4171E9E7CF
:1035A000C169491EC161E5D5C461E3E7016A491EED
:1035B0000162DFD50462DDE703724A71F0BD0000ED
:1035C00078000020FEE770470907090E002806DA98
:1035D00000F00F0000F1E02080F8141D704700F1AA
:1035E000E02080F80014704770B5002404F1B000AA
:1035F000C0B2002100F04CF90021022000F048F98F
:103600000021102000F044F900250121002000F0E5
:103610003FF96D1CEDB2802DF7D3641CE4B2082C89
:10362000E4D370BD1CB501240094002322461C2164
:103630004D480194FDF766FD4B480094002301229C
:103640001E210C300194FDF75DFD474800940023D6
:1036500001221D2118300194FDF754FD42480094C9
:10366000002301221F2124300194FDF74BFD00218E
:10367000AE2000F00DF90021022000F009F9002130
:10368000102000F005F90021402000F001F9002190
:10369000812000F0FDF80021CF2000F0F9F8002192
:1036A000A12000F0F5F80021C82000F0F1F8002179
:1036B000A62000F0EDF80021A82000F0E9F8002194
:1036C0003F2000F0E5F80021D32000F0E1F80021D0
:1036D000084600F0DDF80021D52000F0D9F80021DF
:1036E000802000F0D5F80021D92000F0D1F8002189
:1036F000F12000F0CDF80021DA2000F0C9F8002117
:10370000122000F0C5F80021DB2000F0C1F80021F4
:10371000402000F0BDF80021202000F0B9F8002181
:10372000022000F0B5F800218D2000F0B1F8002152
:10373000142000F0ADF80021A42000F0A9F8002129
:10374000A62000F0A5F80021AF2000F0A1F800218C
:10375000AF2000F09DF8FFF747FFBDE81C400021B7
:10376000084600F003B80000C803002010B5044666
:10377000B031C8B2002100F08BF8102040EA1410DC
:10378000002100F085F804F00F00BDE8104040F083
:103790000100002100F07CB82DE9F041203A00241E
:1037A0000D468046D7B27F2803D900208D1C804665
:1037B000EDB22946FFF7DAFF0F4E00BF04EB07100A
:1037C0000121305C00F064F8641CE4B2082CF5D3ED
:1037D0006D1CE9B24046FFF7C9FF002404EB071057
:1037E00030440121007A00F053F8641CE4B2082C44
:1037F000F4D3BDE8F0810000697200082DE9F047BC
:103800008046002608981D4691468A463446470859
:1038100021E0281B401EC1B20A2003F089FCB9FB3D
:10382000F0F00A21B0FBF1F201FB120026B9691E8B
:103830008C4201DA30B101263030C2B207FB04807D
:10384000C0B203E007FB0480C0B220225146FFF75C
:10385000A3FF641CE4B2AC42DBD3BDE8F0872DE9E2
:10386000F04117460E46044600250CE0314620463E
:10387000FFF792FF0834E4B2782C02D90024B61C7A
:10388000F6B26D1CEDB27A5D002AEFD1BDE8F08191
:1038900070B5054601B101211648FDF759FD1548DF
:1038A00000210C38FDF754FD0024124800210C3093
:1038B000FDF74EFD280601D5012100E000210D484D
:1038C0001830FDF745FD0B4801210C30FDF740FD98
:1038D0006806641C050EE4B2082CE6D305480121F5
:1038E0000C38FDF735FDBDE8704001210148FDF7BA
:1038F0002FBD0000D40300202DE9F0410746094800
:103900001E461546C06A0C4680472246064C39467C
:103910000648A280FCF70AFCA570E67001206070E2
:10392000BDE8F081EC71000800000020C400002018
:10393000034810B5C06A804702490320487010BD93
:10394000EC71000800000020034810B5C06A8047F1
:1039500002490220487010BDEC71000800000020F0
:10396000034810B5C06A804702490420487010BD62
:10397000EC71000800000020034810B5C06A8047C1
:1039800002490520487010BDEC71000800000020BD
:1039900010B5064802F0BAFC05484178002903D06A
:1039A000002141700121017010BD00009C03002026
:1039B0002C0000202DE9F047494C207855287DD176
:1039C000A078484D6678A5F13407032830D0DFF899
:1039D00018A1062842D0454D4FF000084FF0AA0923
:1039E000832860D0862878D131462046FDF78AF9B1
:1039F000A15D884271D185F800900520687086200D
:103A0000A87085F803803A48DAF80010B1FBF0F2AC
:103A1000B1FBF0F0120A2A71687106212846FDF701
:103A200071F9A8710721BDE8F047304802F056BE91
:103A300031462B48FDF766F9A15D88424DD1032040
:103A4000A87004212748FDF75DF928710521254854
:103A500002F044FEE178B970264820E03146204863
:103A6000FDF750F9A15D884237D10620A8700421E6
:103A70001C48FDF747F9287105211A4802F02EFE6F
:103A8000E0780102207954460843194938824843B6
:103A90001949CAF80000C968884718482168BDE874
:103AA000F047FDF7FCBA31460D48FDF72BF9A15D53
:103AB000884212D185F80090042000E00DE0687083
:103AC0008320A87085F80380B878287105210748FD
:103AD000FDF718F968710621A5E7BDE8F087000039
:103AE0005C0300207000002008000020F803002084
:103AF000A0860100000A0808EC710008000D080803
:103B0000F8B507461A48002600681A4D10F0F00F65
:103B100020D1174C1C342068C00002D5FEF7FAF8FB
:103B20000DE0206840F080502060206800F0805058
:103B30000090FEF7EFF8216821F080512160B0F588
:103B4000C05F07D1B7F5404F04D12868012640F087
:103B500004002860286820F00100304328602868AD
:103B600000F00100B04201D00120F8BD0020F8BDF6
:103B700008380240003C024010B50948FEF7FCFE40
:103B80004FF480710648FEF725FF00F063FB00F05C
:103B9000C3F90020FDF708F8BDE8104002F028BB8B
:103BA00068020020010901EB810100F00F0000EB29
:103BB0004100C0B27047002102E00A38C0B2491C7F
:103BC0000A28FAD2090740EA1160704770B5044626
:103BD0000068C168490614D44FF0FF31C160FDF799
:103BE000E5FF05464FF47A7607E000BFFDF7DEFFFC
:103BF000401BB04201D9032070BD2068C068400658
:103C0000F4D5002070BD000070B53148FDF729FAE9
:103C1000304CC1B230A0A17002F04CFF324E3046A1
:103C2000FDF71FFA314D18B13046FDF71AFA28603A
:103C30002FA0296802F03EFF3148FDF712FAE0722A
:103C40003048FDF70EFA60622F48FDF70AFAA062CD
:103C50002E48FDF706FA207010222D492D48FDF759
:103C6000FBF922782C492D48FDF7F6F92C48FDF791
:103C7000F8F9E0622B48FDF7F4F920632A48FDF7D4
:103C8000F0F923496070102280312848FDF7E4F9EB
:103C90002149627840312648FDF7DEF9FFF7A4FCA0
:103CA00000211B4A0846FFF7DAFD22A2022100206C
:103CB000FFF7D5FD164A042180320020FFF7CFFD23
:103CC000BDE8704006211BA20020FFF7C8BD000020
:103CD000000A08083C0000204C4F52415F41444418
:103CE000523D25640A000000000D0808080000206D
:103CF000C6B5B6CECEAA256420487A0A00000000D8
:103D0000000908080002080800030808000708085E
:103D1000F704002000010808F7050020000B080840
:103D2000000508080006080800080808000408083C
:103D3000000C08082056616C75653A000FB4142217
:103D40002DE9F04F87B00C4612A96846FCF7EEF952
:103D50009DF85200059066489DF851809DF850707E
:103D60009DF84C60844201D214B102E0044600E0A8
:103D700001242046FCF716FC5E4A5F4BFCF709FB6A
:103D80008A46814603F0DCF904460D464A4653460E
:103D9000FCF7F9FA0022594BFCF7FBFADFF860A1B7
:103DA00081468B46DAF80C00FCF7EBFB4A465B4693
:103DB000FCF748FAFCF703FCDFF84891DFF848B15C
:103DC000CAF80C00B0F5F47F16DBA0F5F470CAF861
:103DD0000C0000224D4B20462946FCF733FA0446DE
:103DE0000D4609E000224B4620462946FCF7CBFA57
:103DF000761C04460D46B6B200224B4620462946A4
:103E0000FCF740FCEED9D94600224B462046294615
:103E1000FCF738FC17D800224B4620462946FCF711
:103E2000B2FA7F1C04460D46BFB2EDE700224B46B6
:103E300020462946FCF7A7FA044608F101000D4682
:103E40001FFA80F801E0DFF8C89000224B462046B8
:103E50002946FCF717FCE9D90598FCF7A3FB224695
:103E60002B46FCF7EFF9FCF7C9FB80B205E03C38C4
:103E700008F1010180B21FFA81F83C28F7D205E071
:103E8000A8F13C017F1C1FFA81F8BFB2B8F13C0FCA
:103E9000F6D203E0183F761CBFB2B6B2182FF9D2A3
:103EA0009DF84D209DF84B10FAB19AF806301A444F
:103EB00092071AD0174A521E895CB14203D2B6FB50
:103EC000F1F201FB12668DF80A008DF809808DF879
:103ED00004608DF80870142269461098FCF726F9E2
:103EE00007B0BDE8F00F5DF814FB0A4A0C32E2E7B8
:103EF00042061200FCA9F1D24D62004000408F4002
:103F0000180000200018F5400020AC400000F03FF1
:103F100000004E40D471000810B5224C92B0607978
:103F200000283CD10DA800F00FF914220DA901A81A
:103F3000FCF7FCF800234FF4807206A91A48FEF73C
:103F4000A2FD9DF81900C0EB001081009DF818003B
:103F5000C0EB4012C2EB002001EB00109DF81A10DC
:103F600008449DF80D10C1EB01118A009DF80C105A
:103F7000C1EB4113C3EB012102EB01119DF80E20AF
:103F80001144081AFCF70EFB0022084BFCF701FA5B
:103F900002F074FEFCF732FBA0600120607112B0E9
:103FA00010BD000018000020680200200040DF3F24
:103FB0002DE9F04700248AB0254680B1142201463D
:103FC0006846FCF7B3F89DF80510BDF80000002620
:103FD000DFF8F490DFF8F4A088460F1812E005A887
:103FE00000F0B2F8142205A9EAE7CEB1B00717D065
:103FF0000022534620462946FCF724F9761C044645
:104000000D4636B2B742F0DCB8F1000F0BD0B8075E
:1040100009D09DF803700026DFF8B4807F1E2BE0E6
:1040200000224B46E6E7DFF8A8809DF803700026E3
:1040300008F10C087F1E0DE018F8060025494843DA
:10404000FCF7B0FA22462B46FCF7FCF8761C044637
:104050000D46F6B2B742EFDC10E000BF18F80600DC
:104060001C494843FCF79EFA22462B46FCF7EAF827
:10407000761C04460D46F6B2B742EFDC9DF80910F7
:104080009DF80A00C1EB011100EB81029DF80800C8
:104090004FF4616148439DF8041040F2A323594353
:1040A00000EBC1101044FCF77DFA22462B46FCF7CA
:1040B000C9F80022084BFCF76CF903F041F80AB08C
:1040C000BDE8F047FCF79ABA50287E4138137E418C
:1040D000D4710008805101000040DF3F0C4810B54A
:1040E0008178C078814312D0FCF768FDFDF71AFE95
:1040F0000848016841F004010160FDF7FFFDFDF78C
:10410000F1FD0121BDE810400846FDF717BE10BDC6
:1041100018000020007000400A498B680022984275
:1041200004D94B7813B14A708B68C01A8B689842D7
:1041300002D9322801D28A70704701228A708968B8
:10414000401A70471800002010B586B004460022BF
:10415000114802A9FEF7F0FC00220F480DF1020100
:10416000FEF7C8FC0D499DF80530CA88ADF800205F
:10417000632B03D0087840B11BB106E00120087022
:1041800003E0002008706432CA8014226946204689
:10419000FBF7CCFF06B010BD68020020180000201D
:1041A00010B50020FFF704FF04460548FFF700FFA5
:1041B000844202D2C043204410BD201A10BD00002A
:1041C0008802002070B51F4E86B03079002837D1A4
:1041D0000125A80590FAA0F01B49B0FA80F001EB88
:1041E0008000C0F880561A4818490024C0E900141D
:1041F00003218160C0E9031444618461FEF7C0FCBF
:104200008DF8035006208DF805408DF802008DF8DA
:10421000045000220E480DF10201FEF7C1FD029488
:10422000039400220A4802A90494FEF71DFE00220E
:1042300004212920FDF724FD2920FDF716FD357105
:1042400006B070BD18000020000047420028004062
:10425000680200200C484168C943C9070ED00B49C9
:10426000012048700A480168C1F38101012903D087
:10427000006810F00C0F06D1FCF7E6BC016841F0B5
:1042800004010160EEE77047007000401800002054
:1042900008380240AFF3008030B505464FF4807413
:1042A00099B021462048FEF795FB1F48FEF725FBF5
:1042B00014A8FFF749FF142214A908A8FBF736FF3A
:1042C0001948142208A92030FBF730FF0AAB93E805
:1042D00007008DE80700DDE90823294614A8FFF749
:1042E0002DFD142214A903A8FBF720FF0020119034
:1042F00010908DF837009DF816008DF836009DF867
:1043000015008DF835009DF8140013948DF83400D5
:104310009DF810008DF8480000220DA90248FEF714
:104320007FFC19B030BD00006802002070B5092084
:1043300000F029FC0546062000F025FC04040720B7
:1043400000F021FC44EA0024082000F01CFC20437B
:10435000FCF728F90022184BFCF71BF8FCF74EF984
:1043600004460021092001F031FA3B2000F00BFC4B
:1043700040F040013B2001F029FA3B2000F003FC13
:104380008006FAD40D4800F0D9FC3B2000F0FBFB7E
:1043900040F040013B2001F019FA3B2000F0F3FB14
:1043A0008006FAD42946092001F010FA2046BDE81B
:1043B000704000F0C3BC000080844E4000A1BC33BC
:1043C000012070470349884201D2802070470020B5
:1043D0007047000040DD4A1F014890F8AC0070476C
:1043E0001C0800202DE9F34F0200724981B04FF004
:1043F00000000CD0012A7DD10024D1F8EC00254624
:10440000072854D0082855D0092858D155E08A46A5
:10441000D1F8C400FCF7C6F806460F460298FCF730
:10442000C1F880468946302000F0ADFB30F0F9003D
:104430004FF0000401D0604D00E00025272000F07F
:10444000A2FB20F0F800BAF8C810401C0844FCF7A2
:10445000A9F89AF8CA20012A4FF0000222D0564B40
:10446000FBF7F0FE22462B46FBF7ECFE42464B469E
:10447000FBF7E8FE9AF8CC20012A4FF0000213D097
:104480005FF00003FBF7DEFE0322FCF763F8324621
:104490003B46FBF7F0FF0022484BFBF77AFF02F0A8
:1044A0004FFE7FE00023DBE74FF08043EAE7002484
:1044B000434D04E00024434D01E0434D00243D4EB4
:1044C000012056F8F07FB840FCF75BF802460B4637
:1044D00020462946FBF7CFFF02460B46002036490F
:1044E000FBF7C9FF04460D46F088FCF75BF8002295
:1044F000364B00E05BE0FBF7A5FE22462B46FBF7C0
:1045000048FF834600917079001DFCF74BF8804608
:104510003079894600B10220381A8000FCF742F851
:10452000064602988A46C10022487A4201EB82017F
:1045300090F8FA2090F8F80001EB021100B1142075
:10454000081A1C30FCF72EF832465346FBF793FF4F
:1045500002F094FB42464B46FBF71BFF0022074646
:104560000E461346FCF78EF802D23846314601E07B
:10457000002001460022164BFBF764FE22462B4624
:10458000FBF707FF02460B4658460099FBF75AFE19
:1045900000220A4BFBF7FDFE0E4A0F4BFBF752FEC3
:1045A00002F0DAFB03B0BDE8F04FFCF727B8BDE836
:1045B000FE8F00001C0800200000F03F00408F40EC
:1045C0008084FE4080840E4180841E4100001140A2
:1045D000000020402B8716D9CEF7EF3F70B5184961
:1045E00008601849184801F0C1FD174815491430F2
:1045F00001F0BCFD14481349283001F0B7FDFFF766
:1046000095FE002000F012FC0D48001D00F062F83D
:104610000E4D002404EB4406A85D00F0CBFB70199E
:104620008178407801F0D2F8641CE4B2102CF1D308
:10463000002000F0BFFB0649002081F8AC0070BDEF
:1046400090000020694A00082C09002080780008AA
:104650001C0800201CB501200024CDE900400246C2
:10466000234604210A48FCF74DFD09480023009425
:104670001A461B2194380194FCF744FD044800239A
:1046800000941A461A2188380194FCF73BFD1CBDA2
:10469000BC0800207CB5012400940023224604219C
:1046A0000B480194FCF72EFD002509482B462A46AD
:1046B0001B219438CDE90045FCF724FD0448002374
:1046C0001A461A218838CDE90045FCF71BFD7CBD50
:1046D000BC08002010B504460368032201210648E7
:1046E000FCF734FE0448636803220121BDE8104052
:1046F0000C30FCF72BBE00002808002070B51446D3
:104700000E46054600F056FB304600F017FB05202C
:1047100000F08CFB0120FCF702FB284600F066FA53
:10472000054600F069FEA54201DD002070BD0120B4
:1047300070BD0000F8B500258DF800508E4C8F4EEE
:1047400094F8AC0001280AD0022854D104F58870EE
:1047500001F0DCFD94F8AD0001287DD1FCE094F877
:10476000AD00B8B1012846D14021122001F02EF849
:10477000122000F008FA8DF800009DF80000800675
:104780006BD52021122001F021F894F8FE000028BA
:104790007ED090E094F8CC00012834D13F2000F086
:1047A000F2F98DF800009DF8000080072BD40B2152
:1047B0003E2001F00BF810213F2001F007F870486F
:1047C00001F0A4FD94F8CE00B0B10D2000F0DBF9AB
:1047D00040F040010D2000F0F9FF6948143001F06D
:1047E00065FD306810B1006900B1804704F8D85FFA
:1047F0006570A5816581F8BD6148143001F086FDC2
:1048000084F8AC50EDE7B4F8E2105E4F11B9B4F89B
:10481000E40030B1B4F8E400091AC9B23844E23413
:104820000EE094F8CA00A0B3322000F0ACF9A4F86E
:10483000E20000BF14F8E21F6088091AC9B23844C8
:1048400000F0CEF934F8020B24F8E4094C4801F0EA
:104850005DFD94F8CE0001E082E034E010B30D205D
:1048600000F091F940F040010D2000F0AFFF444806
:10487000143001F01BFD30680028B7D08668002E88
:10488000B4D094F9DA20B4F8E21000233D4801E0F6
:104890000FE001E0B047A9E739480121423800F0B4
:1048A0009FF9C7E7364884F8AC50143001F02EFD6C
:1048B000E1E784F8AC50324801F028FD3068002868
:1048C00099D0006952E0192000F05DF940B284F8F7
:1048D0000801010605D5C043401CC0F385004742CE
:1048E00001E0C0F385071A2000F04DF92649D4F8FD
:1048F000B020002F06DA00EB20108A42384405D998
:104900009D3804E08A4200EB2010F9D8A438A4F8BE
:104910000A01132000F037F984F80C010146194808
:1049200000F05EF994F8FE0008B984F8AC50144821
:1049300001F0ECFC30680028C2D08568002DBFD0A3
:1049400094F90831B4F90A2194F80C1101B0AC467D
:10495000BDE8F0400B4860470821122000F036FF08
:1049600084F8AC5030680028AAD000680028A7D08E
:1049700001B0BDE8F04000471C0800209000002076
:10498000400900201C07002040DD4A1F70B5334C51
:10499000204694F8AC3090F8AD20B0F8E210B0F8B2
:1049A000E400A4F58075012B15D0022B12D1002A4A
:1049B00010D10A1A234694F8E710B3F8E4302846D9
:1049C00018448A4243DD00F02BFF34F8E40FE1780D
:1049D0000844208070BDAAB1012AFBD1204801F013
:1049E00095FC8021122000F0F1FE002084F8AC003C
:1049F0001C4800680028EDD0C0680028EAD0BDE857
:104A00007040004741B938B994F8CA00A0B13220CB
:104A100000F0B9F8A4F8E200B4F8E210B4F8E40049
:104A20000A1A94F8E6108A420CDD284400F0D8F8FF
:104A300034F8E40FA178CBE709480121423800F0AF
:104A4000CFF8E9E7D1B2284400F0CAF802E0D1B2C9
:104A500000F0E6FE34F8E20F608070BD1C08002014
:104A600040090020900000202DE9F047324CDFF88B
:104A7000CC904FF0000894F8AC00012829D002280F
:104A800057D1FFF753FC002000F0D0F92C4E002541
:104A900005EB4507F05D00F08DF9B8198178407895
:104AA00000F094FE6D1CEDB2102DF1D3002000F04B
:104AB00081F994F8040100F0D1F984F8AC80D9F8B8
:104AC0000000002835D04068002832D0BDE8F0470B
:104AD000004794F8AD00D0B984F8D88084F8D98024
:104AE000A4F8E480A4F8E28045460B213E20CE34B1
:104AF00000F06CFE10213F2000F068FE14F8CE0993
:104B000001280AD084F8AC500E4801F0FFFBD9F818
:104B1000000000280DD0C068D6E70D2000F033F863
:104B200040F040010D2000F051FE064801F0BEFBB0
:104B3000EDE7BDE8F08700001C0800209000002091
:104B4000807800085409002070B50025012000F08D
:104B500031F9FF21112000F039FE052000F066F93F
:104B600000240120FCF7DBF82C2000F00CF800F00A
:104B70000100A040641C0543E4B2202CF1D300F0F6
:104B80003BFC284670BD08B50122694600F004F8D8
:104B90009DF8000008BD00002DE9F04104460F48D3
:104BA0000E46154600218046FCF7D2FB0B4804F068
:104BB0007F017C38074601F001F9002406E000215E
:104BC000384601F0FBF83055641CE4B2AC42F6D331
:104BD0004046BDE8F0410121FCF7BABBBC0800200B
:104BE0000A4601460020FFF7D7BF000010B520B1EC
:104BF000012808D04FF0FF3010BD1120FFF7C3FF90
:104C00004008404210BD08480849D0F8B00088422A
:104C10004FF01B0003D9FFF7B6FF9D3810BDFFF71B
:104C2000B2FFA43810BD00001C08002040DD4A1F60
:104C300073B53B4C0546002094F8AD1011B1012925
:104C40006BD12DE00020A4F8E4009DF80410A4F836
:104C5000E21094F8CA0058B1322000F0B7FD00BF4E
:104C60009DF80420501E3F2807D884F8E7200BE069
:104C7000012101A800F0D4FDF2E72946294802F0FD
:104C80004DFA202084F8E70094F8E7102846D03445
:104C900000F0C6FDA08AE17D0844A08220683CE0C7
:104CA00094F8FD0001284FF0330021D0FFF76BFF8F
:104CB00000F0BE013320491C00F088FD1D213B207F
:104CC00000F084FD9DF8041084F80C11222000F0FF
:104CD0007DFD00210E2000F079FD00210D2000F067
:104CE00075FD0120FFF74FFF30F0F80009D00DE00F
:104CF000FFF749FF00F0BE01332000F067FD1921E6
:104D0000DDE700F08DFB0120FCF709F89DF80410A9
:104D1000284600F085FDD4F8000100F095FB7CBD2D
:104D20001C0800201C0700207047000002490A7878
:104D3000824200D008707047280000200E4910B54C
:104D4000C1F8B000FBF72EFC00220C4BFBF793FBE5
:104D5000FBF754FC0446C0F30741062000F036FD83
:104D6000C4F30721072000F031FDE1B2BDE8104097
:104D7000082000F02BBD00001C08002080844E405D
:104D800070B50D46044600F015F824B1012C0DD184
:104D90002946232006E0064890F8CA00002805D1DD
:104DA00029463220BDE8704000F010BD70BD000003
:104DB0001C08002010B504460120FFF7E4FE1A4944
:104DC000000601D5012000E0002081F8AD00C0B24E
:104DD000A04227D081F8AD40012C0FD000F00CFB91
:104DE0000120FFF7D0FE00F07F01012000F0EEFC73
:104DF0000021402000F0EAFC30210EE000F0FCFA37
:104E00000120FFF7C0FE40F08001012000F0DEFC31
:104E10000021402000F0DAFC0021BDE810404120D4
:104E200000F0D4BC10BD00001C08002010B5040028
:104E300010D00020FFF77AFF2046FFF775FF012012
:104E4000FFF7A1FE00F0F8012143BDE8104001206A
:104E500000F0BCBC0120FFF769FFF0E710B5044685
:104E60000120FFF7A7FF064880F804410CB1342168
:104E700000E01221BDE81040392000F0A7BC00007E
:104E80001C08002070B504460920FFF77CFE06468A
:104E90004D20FFF778FE05462248D0F8B000FFF716
:104EA00091FA06F07F01084340F0700001062BD50F
:104EB000112C02DD45F0070502E005F0F8052D1D77
:104EC000E943490703D0022C0CDA02240DE0052C3B
:104ED00001DA052402E0142C00DD142400F0F001B6
:104EE000641F05E0112C00DD112400F0F001A41E68
:104EF00004F00F000143092000F068FC2946BDE8DA
:104F000070404D2000F062BC4FF0FF318C4201DA5E
:104F10000C4602E00E2C00DD0E2400F0F001641CB3
:104F2000E6E700001C08002070B5854C0546002609
:104F300094F8AD0010B1012824D124E014F8CE6F0C
:104F40004020FFF720FE00F0030040F00C0140205D
:104F500000F03CFC4120FFF716FE40F0C10141206B
:104F600000F034FC3520FFF70EFE00F03F00207605
:104F70001E210D2000F02AFC0020A072E072E082C9
:104F8000A082CE3C9EE094F8FD0001284FF0330053
:104F900027D0FFF7F8FD00F0BE013320491C00F0D8
:104FA00015FC1D213B2000F011FCD4F8EC00092871
:104FB0004FF031007ED2FFF7E6FD00F07F01312097
:104FC00000F004FC0021302000F000FCD4F8EC00DC
:104FD00009285BD2DFE800F00E19242F3A45565617
:104FE0005600FFF7D0FD40F04101332000F0EEFB0A
:104FF0001921D7E748212F2000F0E8FBD4F8B000B2
:10500000FBF7D0FA00224F4B35E044212F2000F06F
:10501000DDFBD4F8B000FBF7C5FA00224A4B2AE0CA
:1050200044212F2000F0D2FBD4F8B000FBF7BAFAED
:105030000022464B1FE044212F2000F0C7FBD4F88C
:10504000B000FBF7AFFA0022414B14E044212F20BF
:1050500000F0BCFBD4F8B000FBF7A4FA00223D4BF3
:1050600009E044212F2000F0B1FBD4F8B000FBF799
:1050700099FA0022384BFBF7E5F8FBF7BFFAFFF788
:105080005DFE03E040212F2000F0A0FB94F8FB0020
:1050900094F8FE60012831D01F21112000F096FB0A
:1050A0004020FFF770FD00F03F01402000F08EFB34
:1050B000002100E01CE00F2000F088FB00210D2003
:1050C00000F084FB4FF480712448FBF748F801207E
:1050D00084F8AC0035B12946214801F0DFF82048BA
:1050E00001F0E4F894F8AD0090B116B3052021E08A
:1050F000FFF749FD40F080013120C5E71D21112057
:1051000000F064FB4020FFF73EFD00F03301CCE7E8
:105110000520FFF78BFE002E10D11148D4F8D410D3
:10512000143001F0BBF8BDE870400D48143001F0B8
:10513000BDB80620BDE87040FFF778BE70BD000026
:105140001C0800200082BE40005AC4400082CE40AD
:105150008057D4408084DE40C058E4401C070020C3
:10516000400900202DE9FC5F9B4614468A46804694
:10517000DDF844900D9F0F9EFFF71CFE380A994DF5
:105180000090B8F1000F06D0B8F1010F74D1BAF158
:10519000020F73D9FEE745F8BCAFAC600C986860AD
:1051A000AE731098E87385F8109014986874159889
:1051B000A874AF812046FBF7F5F904460B46019130
:1051C000224600208849FBF756F90322FBF7C2F973
:1051D00080468B460E98FBF7E5F942465B46FBF7A7
:1051E000D8F80022814BFBF7D4F8FBF707FAA86147
:1051F000224600207E49019BFBF73DF9FBF7FEF9B3
:1052000084B2210A022000F0E1FAE1B2032000F0AA
:10521000DDFA5046FBF760FF0146122000F0D6FA97
:105220000C98FBF759FF0146132000F0CFFA252018
:10523000009900F0CBFAF9B2262000F0C7FA0EB1BF
:10524000109900E0FF21322000F0C0FA3020FFF773
:105250009AFC00F06F000EB1002100E080210843AD
:1052600040EA0911302000F0B1FA3120FFF78BFC41
:1052700040F040013120A5E0B2E0FFE728460AF106
:105280000708E0E93B840C2C80F809B047810673DD
:105290001099417380F80E901299C173139901749B
:1052A00014994174159985F8FE1001D90C2402E077
:1052B000062C00D20624B8F1070F03D0B8F1080F6E
:1052C00002D003E00B2C47D00C2C45D05FF000013E
:1052D00085F8F4101D20FFF756FC4FEA081141EA4B
:1052E0004B003043C1B21D2000F070FA1E20FFF7C2
:1052F0004AFC00F0080040EA041141EA89000E99D6
:10530000032202EA11210843C1B21E2000F05EFA16
:105310002620FFF738FC00F0F70195F8F40041EA89
:10532000C000C1B2262000F051FA0E98C1B21F2071
:1053300000F04CFA2020009900F048FAF9B2212040
:1053400000F044FA1EB12220109900F03FFA95F8BF
:10535000FB00012802D00EE00121B9E74420FFF74D
:1053600012FC40F08001442000F030FA95F8FC1067
:10537000242000F02BFAB8F1090F02D003213620C7
:1053800010E01C49D5F8B00088424FF002014FF000
:10539000360003D900F01AFA642102E000F016FA90
:1053A0007F213A2000F012FA062C4FF031000DD088
:1053B000FFF7E9FB00F0F8013120C91C00F006FA04
:1053C0000A213720BDE8FC5F00F000BAFFF7DBFBE5
:1053D00000F0F8013120491D00F0F8F90C21F0E748
:1053E000BDE8FC9F1C0800200000F03F00408F40FB
:1053F00080847E4140DD4A1F10B5074800F086FFDB
:105400000548143800F082FF0020FFF70FFD034924
:10541000002081F8AC0010BD400900201C080020CD
:1054200010B5074800F072FF0548143800F06EFF11
:105430000120FFF7FBFC0349002081F8AC0010BD00
:10544000400900201C08002010B50146254800F046
:1054500025FF254C94F8AD0010B101282DD119E09D
:105460004020FFF790FB00F0030040F010014020C7
:1054700000F0ACF94120FFF786FB00F03E0141202F
:1054800000F0A4F93520FFF77EFB00F03F0084F820
:10549000E60012E094F8FB00012819D0F721112052
:1054A00000F094F94020FFF76EFB00F03F0000BFD2
:1054B00040F04001402000F089F9022084F8AC005F
:1054C000084800F0F3FEBDE810400320FFF7AEBC33
:1054D000F521112000F07AF94020FFF754FB00F08D
:1054E0003300E5E72C0900201C0800202DE9FF4FC0
:1054F00081B01D46DDE90E4BDDE910688946DDF817
:1055000054A0129F0198FFF755FC4846FFF7BAFCDC
:105510007548320A0199009231B1012972D180F89F
:10552000E890022D54D9FEE700F8B49F0399046176
:10553000C0E90115868280F81680077680F819A0E8
:105540001699C1610398FBF72DF80022674BFAF713
:1055500092FFFBF753F885B2290A042000F036F9D0
:10556000E9B2052000F032F92046FBF71BF80246AD
:105570000B4600205E49FAF77EFFFBF73FF884B246
:10558000210A022000F022F9E1B2032000F01EF906
:105590002520009900F01AF9F1B2262000F016F942
:1055A0003020FFF7F0FA00F06F00B8F1000F01D0E3
:1055B000002100E08021084340EA0711302000F07C
:1055C00005F93120FFF7DFFA40F04001312078E0A3
:1055D000ED1DC0E93B5480F8F5B0A0F8F66080F806
:1055E000F880139980F8FB10149A80F8FC2080F85A
:1055F000FA7080F8FDA0169AC0F800210C2C02D990
:105600000C2403E06CE0062C00D20624072D02D007
:10561000082D02D003E00B2C08D00C2C06D0002261
:1056200080F8F4208146012902D00EE00122F7E73C
:105630004420FFF7A8FA40F08001442000F0C6F8AB
:1056400099F8FC10242000F0C1F81D20FFF79BFA08
:10565000290141EA4B0040EA0800C1B21D2000F0D8
:10566000B5F81E20FFF78FFA00F00B0040EA041097
:1056700040EA8700C1B21E2000F0A8F82620FFF7FC
:1056800082FA00F0F70199F8F40041EAC000C1B2D3
:10569000262000F09BF82020009900F097F8F1B246
:1056A000212000F093F8062C4FF031000ED0FFF7C8
:1056B0006AFA00F0F8013120C91C00F087F80A21CD
:1056C000372005B0BDE8F04F00F080B8FFF75BFA77
:1056D00000F0F8013120491D00F078F80C21EFE7C7
:1056E00005B0BDE8F08F00001C08002080844E400B
:1056F00080847E4170B506468AB00D461046FAF7A2
:1057000051FF00221E4BFAF744FEFAF777FF0446DA
:105710003046FFF713FB002005900690CDE9070403
:105720000521CDE90101039004904FF49650002328
:1057300000901A4629461846FFF7D8FE3120FFF799
:1057400022FA00F0BF01312000F040F8F0214020A3
:1057500000F03CF8A021412000F038F8214609482B
:1057600000F09CFD0849022081F8AC00054800F0DB
:105770009DFD0AB00320BDE87040FFF757BB000055
:1057800000408F402C0900201C08002010B50E4C52
:1057900094F8AD00002815D0012813D1FA2111206A
:1057A00000F014F84020FFF7EEF900F0FC01402073
:1057B00000F00CF8032084F8AC00BDE8104007208E
:1057C000FFF734BB10BD00001C08002013B50122F8
:1057D00001A900F001F81CBD2DE9F04104460F4875
:1057E0000E46154600218046FBF7B2FD0B4844F0FB
:1057F00080017C38074600F0E1FA002405E0315DC5
:10580000384600F0DBFA641CE4B2AC42F7D3404601
:10581000BDE8F0410121FBF79BBD0000BC08002062
:105820000A4601460020FFF7D7BF00002DE9F84FD8
:1058300089468246FDF762FEF44CDFF8D4830125E9
:10584000207A0027012824D188F80070E772A07A16
:1058500010B9FDF7C9FEA57294F9050040B1012801
:1058600008D0022808D0032808D00EDD677110E0A8
:10587000E8A204E0EBA202E0EEA200E0F1A24FF009
:1058800000010846FDF7EBFF03E0002801DA0320E2
:105890006071207A102602280BD1EEA2022100208E
:1058A000FDF7DDFF0096042302212820E269FDF7C1
:1058B000A5FF207A03280BD1E8A204210020FDF7E0
:1058C000CEFF0423009619462820226AFDF796FF92
:1058D000207A042830D1607A10B101282CD10FE051
:1058E0002572A77265726079A071E570E1696162E5
:1058F000206AA062DB48FBF7D2FBDB48A16A19E013
:1059000002206072A07A10B9FDF76EFEA572E572F2
:1059100088F800506079E0712571E169E162206AE0
:105920002063D248FBF7BBFBD148216BFBF7B7FBE9
:10593000E17AD048FBF7B3FBE07A00287ED0D4E9C7
:105940000921504600F0B0F96061D4E90B214846C6
:1059500000F0AAF9C84E4FF06608A06186F80080F2
:105960007570A078B070E07800284BD0A07930B185
:1059700001281BD0022870D0032833D186E0BF480D
:10598000FAF7F8FB401C20700021A2A20846FDF7A0
:1059900066FFBBA202210020FDF761FF10229DA13E
:1059A000B948FAF7C3FB2278B44917E0B348153079
:1059B000FAF7E0FB401C207000219AA20846FDF790
:1059C0004EFFAFA202210020FDF749FF102295A152
:1059D000AD48FAF7ABFBA94922781531A6488038C3
:1059E000FAF7A4FBE7702178A848FBF758FB1022D0
:1059F000A549A748FBF737FB9F4922788039A5487E
:105A0000FBF731FB9C49F01C8039FAF7BAFB207890
:105A1000A1A13044C01C626901F05CF820783044D8
:105A2000C01CFAF7A7FB21780844001DC0B26073C0
:105A300006F8008030444570A17800E0A7E081704E
:105A4000207900287ED0E079C8B3012850D0022800
:105A500079D0032869D1BFE0FFE78848401DFAF7F5
:105A600089FB401C2070002172A20846FDF7F7FE5A
:105A700083A202210020FDF7F2FE10226DA18248D0
:105A8000FAF754FB7D492278491DA7E77B480D3082
:105A9000FAF770FB401C207000216AA20846FDF74F
:105AA000DEFE77A202210020FDF7D9FE102265A1BB
:105AB0007548FAF73BFB714922780D318EE7FFE715
:105AC0006E48FAF757FB401C607052A20421002078
:105AD000FDF7C5FE6AA206210020FDF7C0FE6A4858
