:020000040800F2
:10000000B810002009010008AF310008A330000833
:10001000AD31000819100008C540000800000000BC
:10002000000000000000000000000000A53A0008E9
:100030001B10000800000000D9340008A73A00088F
:100040002301000823010008230100082301000800
:1000500023010008230100082301000823010008F0
:1000600023010008230100082301000823010008E0
:1000700023010008230100082301000823010008D0
:100080002301000823010008990F0008230100083C
:1000900023010008230100082301000823010008B0
:1000A00000000000230100082301000823010008CC
:1000B000AD3B0008230100082301000823010008CC
:1000C0002301000823010008230100082301000880
:1000D00023010008AD400008B940000823010008D2
:1000E00023010008553500082301000823010008FA
:1000F00023010008DFF80CD000F01AFD004800478B
:1001000039530008B81000200648804706480047C9
:10011000FEE7FEE7FEE7FEE7FEE7FEE7FEE7FEE7B7
:10012000FEE7FEE75D3B0008F5000008421C10F802
:10013000011B0029FBD1801A704710B5002200E096
:10014000521C835C8C5CA34201D1002BF8D1D8B245
:10015000E1B2401A10BD00000FB400B58DB010A977
:1001600009900B9000914FF0FF300A9000200C9006
:1001700005480690054807906A4609A80F9900F0BF
:1001800097FB0DB05DF814FBCD080008EB080008E4
:100190002DE9FF5F1D464FF0FF3BD5E90146914633
:1001A0005F464FF00008A9697F1C01988847296ABB
:1001B000824688470028F6D1BAF1FF3F0CD024F4DC
:1001C000C064002E19DD600614D5BAF12B0F09D0DA
:1001D000BAF12D0F0ED103E0584604B0BDE8F09FF0
:1001E00044F48064A9697F1C01988847761E824682
:1001F000002E02DDBAF1300F03D0B9F1000F26D086
:1002000032E0A969761E44F400747F1C0198884787
:100210008246002E05DDBAF1780F06D0BAF1580FEC
:1002200003D0B9F1000F10D01EE0B9F1000F02D0D9
:10023000B9F1100F18D1A969761E24F400747F1C3F
:10024000019888478246102002E0082000E00A203A
:10025000814609E008FB0908A969761E44F4007488
:100260007F1C019888478246002E05DD494650468E
:1002700000F009FB0028EDDAE96901988847A0053C
:1002800002D46FF00100A8E7E00725D1600613D57E
:10029000600502D5C8F1000000E0404629680A1D4B
:1002A0002A600968220501D5087015E0220701D5EA
:1002B000088011E008600FE02868011D29600068CF
:1002C000210502D580F8008006E0210702D5A0F8BC
:1002D000008001E0C0F8008038467EE72DE9F04755
:1002E00091460F4680460446002614F8015B2DB166
:1002F00000F0BCFA0068405DC007F6D12B2D02D09B
:100300002D2D18D0641E4A463946204600F0FEFACC
:1003100027B13968A14201D1C7F8008071054FF0BB
:1003200002040BD54042002803DD03F017FF0460F0
:10033000A007BDE8F08746F48066E4E70028F8DA15
:1003400003F00CFF04606FF00040F2E770B5064662
:1003500003F004FF046805460A2200213046FFF737
:10036000BDFF2C6070BD2DE9FE4F804681EA030081
:10037000C00F0C46009021F0004123F00045B8EB7F
:100380000200A94105D24046214690461C460B4634
:10039000024623F00040104347D0270DC7F30A0060
:1003A000C3F30A510290401A019040286BDAC3F35C
:1003B000130040F4801B0098924620B10023D2EB3A
:1003C000030A63EB0B0B01985946C0F140025046FB
:1003D00000F02BFA06460D4650465946019A00F0A9
:1003E00033FA10EB08006141002487EA115284EAD5
:1003F000E7731A4340D0009A62B3019A012A4FEA88
:10040000075215DC001B61EB02014FF0004202EACB
:100410000752CDE90042001C41F5801132462B46BF
:1004200000F009FB03B0BDE8F08F40462146F9E734
:10043000001B61EB0201001C41F5801300185B41B9
:100440002018A2F5001747EB030140EAD570B61952
:100450006D4111E06D084FEA360645EAC0754FEA76
:100460000752001B61EB0201001C41F58011490895
:100470004FEA30000019514132462B4603B0BDE827
:10048000F04F00F0C9BA0098012240000023D0EBE1
:10049000020263EBE073009821464FEAE074B8EB88
:1004A000000061EB0401E9E783F000435BE781F0C2
:1004B000004158E72DE9FE4F81EA030404F00044AF
:1004C00021F0004100944FF0000B23F0004350EA6C
:1004D00001045ED052EA03045BD0C3F30A54C1F3B3
:1004E0000A552C44A4F2F3340194A0FB0254C1F346
:1004F000130141F48011C3F3130343F4801301FB90
:10050000024400FB034E840A970A44EA815447EAF6
:100510008357A4FB076802958D0A05FB07854FEA00
:10052000932C04FB0C542705029D4FEA065847EA1A
:100530001637B5EB08056EEB070C870E920E47EAEF
:10054000811742EA8312A7FB0201B6EB0B0164EBB1
:1005500000042B0D43EA0C335E1844EB1C50DA46C2
:100560005146E7FB0201C5F313044FEA0B3343EA9C
:1005700014534FEA0432019C43EA0603A4F10C042D
:100580000294009CCDE900B400F055FA03B0BDE838
:10059000F08F00200146F9E72DE9F04D81EA0304D0
:1005A00004F0004B21F0004514464FF0000A23F000
:1005B000004150EA050220D054EA01021DD0C5F3E3
:1005C0000A570246C5F31303C1F31300C1F30A56D9
:1005D00040F4801543F48013A7EB0608101BD646A1
:1005E00008F2FD3873EB050002D308F1010801E0C1
:1005F00092185B41B8F1000F03DA00200146BDE814
:10060000F08D00204FF48011064684460EE0171B43
:1006100073EB050705D3121B63EB050306434CEA96
:10062000010C49084FEA300092185B4150EA01077B
:10063000EDD152EA030012D082EA040083EA0501F8
:10064000084305D0101BAB4106D20122002306E06F
:1006500000224FF0004302E06FF0010253101AEB4A
:1006600006004CEB085110EB0A0041EB0B01BDE812
:10067000F04D00F0D1B90EB5C10F80EAE07008442A
:10068000CA07002140F233438DE80E000A460B46AC
:1006900000F0D1F903B000BD00F0004220F00040AE
:1006A000C10DC0F3160040F400007F2901DA0020DC
:1006B0007047962903DCC1F19601C84001E09639E4
:1006C0008840002AF4D04042704700F0004230F0E9
:1006D00000400AD0C10D01F56071C0F3160042EA76
:1006E0000151C2084007114370470020014670477E
:1006F00030B5041E71F1000404DB4FF000444042A9
:1007000064EB0101141E73F1000405DB1C464FF07D
:100710000043524263EB04038B4208BF824230BD68
:1007200030B5041E71F1000404DB4FF00044404278
:1007300064EB0101141E73F1000405DB1C464FF04D
:100740000043524263EB0403994208BF904230BD1C
:1007500001F0004330B421F0004150EA010206D01C
:100760000A0DA2F56072C1F31301002A02DC30BC4D
:1007700000207047440F44EAC104C100E01830BCB7
:1007800000EBC25000F011B9002801DBC0F10040BD
:10079000002901DBC1F100418142704730B50B46B1
:1007A000014600202022012409E021FA02F59D42A1
:1007B00005D303FA02F5491B04FA02F52844151E75
:1007C000A2F10102F1DC30BD2DE9F05F0546002009
:1007D00092469B4688460646814640241BE02846B2
:1007E00041464746224600F0B5F953465A46C01ADC
:1007F000914110D311461846224600F016F82D1AE2
:1008000067EB01084F4622460120002100F00DF859
:1008100017EB00094E41201EA4F10104DFDC48461D
:1008200031462A464346BDE8F09F202A04DB203AA1
:1008300000FA02F1002070479140C2F1200320FA33
:1008400003F3194390407047202A06DBCB17203A68
:1008500041FA02F043EAE07306E041FA02F3D040C5
:10086000C2F1200291400843194670470048704782
:10087000FC8E000810B50446FFF7F8FF0068005D25
:1008800000F0010010BD3A2800D2303820F02002DC
:10089000412A01D3A2F13700884201D34FF0FF3043
:1008A00070470000026811441378016018467047D1
:1008B000D16004495161044911620021116111465E
:1008C00000F058B9A508000875080008426842B150
:1008D000016811F8013B23B1521EC0E9001218460D
:1008E00070470121C160881E704742685AB1C368D1
:1008F000016843B983688B4205D0491E521CC0E988
:100900000012002070474FF0FF3070472DE9F05F74
:1009100082460078002715468B460AF10104B94645
:10092000302801D09DB113E014F8010B012778287D
:1009300003D0582801D045B10AE00DB1102D07D1E0
:100940000027102514F8010B02E0082500E00A2515
:100950000026B0460EE005FB080005FB06F1012766
:1009600001EB10461FFA80F8B6F5803F00D3B94678
:1009700014F8010B2946FFF786FF0028EBDABBF1DC
:10098000000F05D00FB1641E00E05446CBF80040C4
:10099000B9F1000F06D003F0E1FB02210160C81E8F
:1009A000BDE8F09F48EA0640FAE70029A8BF704773
:1009B000401C490008BF20F00100704710B4B0FA95
:1009C00080FC00FA0CF050EA010404BF10BC704730
:1009D00049B1CCF1200421FA04F411FA0CF118BF4A
:1009E000012121430843A3EB0C01CB1D4FEA006119
:1009F0004FEA102042BF002010BC704700EBC350EC
:100A000010440029A4BF10BC7047401C490008BF17
:100A100020F0010010BC704710B5141E73F10004E3
:100A200008DA401C41F1000192185B411A4301D1E0
:100A300020F0010010BD2DE9F04D92469B4611B10A
:100A4000B1FA81F202E0B0FA80F220329046FFF76C
:100A5000ECFE04460F4640EA0A0041EA0B01534609
:100A60005A46084313D0114653EA010019D0C8F181
:100A70004002504600F06EF805460E465046594674
:100A80004246FFF7D2FE084305D0012004E020468D
:100A90003946BDE8F08D0020054346EAE0762C4358
:100AA00037430A986305E40AA0EB08000022FD0A18
:100AB00044EA47540A3002D500200146E9E701051F
:100AC00010196941DDE9084500196941BDE8F04D9B
:100AD000A2E770B521F0004303430CD0C1F30A55DF
:100AE0000024D5EB040564EB0403D617AD1AB3411B
:100AF00002DB0020014670BD201841EB025170BDA1
:100B0000C1F30A52C1F3130140F2FF3341F48011E3
:100B10009A4202DA00200146704740F233439A427B
:100B2000A2F2334202DC524200F014B8FFF77DBE5D
:100B3000064C074D06E0E06840F0010394E807002A
:100B400098471034AC42F6D3FFF7D8FA5890000813
:100B500078900008202A04DB203A21FA02F00021D4
:100B6000704721FA02F3D040C2F1200291400843BD
:100B7000194670472DE9F34F8BB04FF0000801F193
:100B80000C000C464FF0010B46460DF1080A01908F
:100B9000626901210198904705002DD0252D2CD0A8
:100BA000216A8847C0B16269012101989047216A92
:100BB00088470028F7D1411E62690198904700E0FC
:100BC000761CA1690B988847216A88470028F7D1CD
:100BD000E1690B988847DBE7A1690B9888470746CE
:100BE000A84201D1761CD3E7E1690B9888477F1CA6
:100BF00002D1B8F1000F6FD046E1002762693D468F
:100C00003946019890472A2804D162690121019848
:100C100090470125DFF8849262690121019890478D
:100C2000A0F130010A290AD24F45E5DC07EB870124
:100C300000EB4107303FDFD445F01005ECE7E90653
:100C400001D46FF000476C280AD04C2814D06828D3
:100C500015D06A280DD074281CD07A281AD01DE02F
:100C600062690121019890476C2802D045F0040583
:100C700014E045F002050DE045F020050AE0626948
:100C8000012101989047682802D045F0080505E049
:100C900045F400656269012101989047C4E9015754
:100CA00065283DD019DC58287AD00CDC452837D08F
:100CB00004DC252826D0412831D131E046282FD028
:100CC00047282CD12CE05B2877D0612828D06328D6
:100CD0007CD0642823D15AE0D0E06F2848D008DCCB
:100CE00066281DD067281BD0692821D06E2816D110
:100CF00027E0702845D0732868D0752847D0782819
:100D00000DD14DE0A1690B988847054625283FF491
:100D100069AFE1690B9888476D1C3FF46AAFB3E097
:100D200023466A466FF001000B99AFF300809EE006
:100D300045F040006060A80723464FF0000236D41B
:100D40003EE0E8077FF447AF2068011D216000689E
:100D5000290501D506701BE7290701D5068017E78D
:100D6000A90703D5F117C0E9006111E706600FE795
:100D700045F040006060A80723464FF0080216D4F3
:100D80001EE040F60E0125EA0100606016E045F025
:100D900040006060A80723464FF00A0207D40FE026
:100DA00045F040006060A80708D5234610226FF088
:100DB00001000B99AFF3008059E007E023461022B1
:100DC0006FF001000B99FFF7E3F950E04FF00009D5
:100DD0004F464B46632802D05B2806D040E0E80629
:100DE00001D40120A06001273AE062690121019845
:100DF00090475E2805D14FF0010962694946019884
:100E00009047216939B900210A46534643F8212009
:100E1000491C0829FADBB0B3216969B9C11700EB95
:100E2000D16253110AEB830122F01F02821A0120C2
:100E30000B68904003430B60626901210198904761
:100E40005D28E8D1B9F1000F09D00020514651F8D2
:100E50002020D24341F82020401C0828F7DB02ABB9
:100E6000224600976FF001000B99AFF30080002835
:100E70000CDA401C08D1BBF1000F05D04FF0FF3059
:100E80000DB0BDE8F08FFFE74046F9E7E90701D173
:100E900008F1010806444FF0000B79E6CCCCCC0CED
:100EA0002DE9F04D00231A461B1A8A4103DB00206E
:100EB0000146BDE8F08DC1F30A52C1F3130141F4BC
:100EC00080154FF0000BD10702D100186D41521E62
:100ED0000027044640F2FF11384601EB620A3E4605
:100EE0008046024600204FF48011FFF733FEC219FE
:100EF0007141BB1846EB0100B4EB030C75EB000C21
:100F000004D3E41A65EB000517460E46241908F1D0
:100F100001006D4180463428E3DDF91946EB0600F7
:100F2000091BA84103D24FF0FF32134601E0002213
:100F300013461BEB070046EB0A51BDE8F04DFFF7E7
:100F40006BBD70B58C1810F8015B15F0070301D16B
:100F500010F8013B2A1106D110F8012B03E010F81C
:100F6000016B01F8016B5B1EF9D12B0705D400233F
:100F7000521E0DD401F8013BFAE710F8013BCB1AE1
:100F8000921C03E013F8015B01F8015B521EF9D5D6
:100F9000A142D8D3002070BD014800F0FDB8000088
:100FA00028050020F8B50026044600960068016870
:100FB000C94349062AD5816841F00101816014487E
:100FC00014490068B0FBF1F000EB400000E0401E67
:100FD00000900028FBD100F083FB054611E000BF24
:100FE00000F07EFB401B02280BD9E06C40F01000A3
:100FF000E064206D40F00100206584F84860012025
:10100000F8BD20680068C0434006E9D40020F8BD60
:10101000E404002040420F00FEE7704770470000E4
:10102000F8B50024009490F848202546012A12D0F3
:10103000012280F848204A681F23072A0DD206683B
:10104000376C521E02EB820293409F430B68934021
:101050001F43376435E00220F8BD0D2A0BD2076824
:10106000FE6BD21F02EB820293409E430B689340BB
:101070001E43FE6325E0132A0BD20668B76B0D3AB8
:1010800002EB820293409F430B6893401F43B76378
:1010900017E00668192A0AD2776B133A02EB82022C
:1010A00093409F430B6893401F43776309E0376B7E
:1010B000193A02EB820293409F430B6893401F430F
:1010C00037630A6807230A2A0AD20668776902EB9F
:1010D000420293409F438B6893401F4377611CE01B
:1010E000142A0BD207683E690A3A02EB4202934087
:1010F0009E438B6893401E433E610EE01A2A0BD834
:101100000768FE68143A02EB420293409E438B68E4
:1011100093401E43FE6000E000BF0A68102A01D021
:10112000112A17D10D4A13681B0213D4136843F414
:1011300000031360096810290CD10949094A09689C
:10114000B1FBF2F101EB8101490000E0491E009181
:101150000029FBD180F848502046F8BD0427014003
:10116000E404002040420F0010B500F012F8074BD5
:10117000A3F160010A7B23F81200521C12F0010057
:10118000087301D10120087210BD00006800002022
:1011900070470068806D704770B50446006841680C
:1011A000890628D50168890725D5E16CC90603D4CD
:1011B000E16C41F40071E164816811F0405F17D186
:1011C000616AA9B9016B11F0F87F02D08168490505
:1011D0000ED4416821F020014160E06C20F4807061
:1011E000E064E06CC00403D4E06C40F00100E06413
:1011F0002046FFF7B9FF20684168090633D501682A
:10120000490730D5E16CC90603D4E16C41F40051C3
:10121000E164816811F4401F1ED1416C11F4401F3C
:1012200002D08168490517D44168490514D4816802
:1012300011F0405F10D1616A71B9416821F08001FD
:101240004160E06C20F48050E064E06CC00503D4A1
:10125000E06C40F00100E0642046FFF7DFFE21680B
:101260006FF00C0008602068416849060DD50068E1
:10127000C0070AD0E06C40F48030E064204600F003
:10128000E7F821686FF001000860206841684901B3
:101290000ED5016889060BD5216D41F0020121654B
:1012A0006FF0200505602046FFF772FF206805609B
:1012B00070BD0000F8B504004FF0000503D0E06CED
:1012C000002610B110E00120F8BD26655B4884F8C7
:1012D0004860016841F001010160006800F0010010
:1012E0000090204600F0B6F8E06CC00678D4E06CC0
:1012F00020F4885040F00200E064514801686268C0
:1013000021F44031114301606169E0684FF40073DA
:10131000084393FAA3F3E26BB3FA83F3216A9A408A
:1013200011430843022191FAA1F1626AB1FA81F1F5
:1013300002FA01F10843616B102902D0A36B194333
:101340000843236819684FF48077C943490629D5B3
:10135000A169D4F81CC00843A168D4F810E041EAA0
:101360000C01BE450CD0BEF1010F09D04FF0000CAE
:1013700041EA0C01D4F82CC0BCF1010F02D00AE004
:10138000BC46F5E76AB3E26C42F02002E264226DEB
:1013900042F0010222655A68DFF8A8C002EA0C0296
:1013A0000A435A6021688A68274B1A4002438A60C0
:1013B0002169B94224D0012922D021680A6B22F088
:1013C000F8720A6321688968204A1140814227D156
:1013D0002665E06C20F0020040F00100E0642AE0A5
:1013E00028E0FFE74FF4604C226B9CFAACFCBCFA9F
:1013F0008CFC521E02FA0CF20A4342F40061CAE766
:1014000021680A6B4FF0F87722F0F873A26A97FA16
:10141000A7F7B7FA87F7521EBA4013430B63D1E719
:10142000E06C20F0020040F01000E064206D40F01D
:101430000100206501252846F8BD00002038024043
:1014400004270140FF16FCFC8DF1FFC0FEFF80BFAA
:101450007047000000B500680F4987B0884219D175
:101460000E48016841F4007101600068694600F4AB
:101470000070059003200090019000200290084821
:1014800000F05EF800220421122000F0AFF91220D3
:1014900000F0A1F907B000BD00240140203802404F
:1014A0000000024010B5044690F84800012822D000
:1014B000012084F848002046FFF774FD00281BD166
:1014C000E16C40F20162914341F48071E164216872
:1014D0004A68520505D5E26C22F4005242F480526B
:1014E000E264E26CD3044FF0000206D5236D23F0D2
:1014F0000603236502E0022010BD226584F848201F
:101500006FF022020A6021684A68064B1A434A605B
:1015100021688A6812F0405FEED18A6842F080420A
:101520008A6010BD2000000431B500F0D9F80446EF
:1015300000F0D6F80099001B8842F9D338BD0000AE
:101540002DE9F84FDFF864B100234FF0010C4FF0A4
:10155000030A4FF00F090BF1040EA0E00CFA03F69A
:10156000324072D04C68022C01D0122C0ED1DC0813
:1015700000EB8408D8F820405D07EF0E09FA07F564
:10158000AC430D69BD402543C8F8205007685D0095
:1015900091F804800AFA05F408F00308A74308FA52
:1015A00005F848EA0708C0F800804F68012F05D009
:1015B000022F03D0112F01D0122F11D18768D1F83B
:1015C0000C80A74308FA05F848EA0708C0F8088025
:1015D0004768B7430E79C6F300169E403E43466007
:1015E000C668A6438C68AC403443C4604C68E400D1
:1015F00054D52F4C256845F001052560246823F05B
:10160000030504F0010400942A4C2544AF689C07AC
:10161000240F09FA04F6B743274EB04201D1002641
:1016200015E0264EB04201D1012610E0244EB04212
:1016300001D102260BE0234EB04201D1032606E081
:10164000214EB04202D1042601E027E00526A64043
:101650003E43AE60DBF800405D464E689443F603BF
:1016600000D514432C60DEF8004075464E68944364
:10167000B60300D514432C600C4D08352C684E6819
:101680009443F60200D514432C60084D0C352C68A9
:101690004E689443B60200D514432C605B1C0A6864
:1016A00032FA03F47FF45AAFBDE8F88F000401402A
:1016B00020380240000001400000024000040240C7
:1016C00000080240000C024000100240006908407F
:1016D00000D0012070470AB1816170470904FBE71F
:1016E00001480068704700000000002002480168BF
:1016F000491C0160704700000000002010B5032065
:1017000000F094F8012000F005F800F017F8002030
:1017100010BD000010B5044607484FF47A71006808
:10172000B0FBF1F001F008F900222146501E00F054
:101730005DF8002010BD0000E40400201F4808B53B
:10174000016841F000410160006800F00040009035
:101750001A48001F016841F001010160006800F0B3
:1017600001000090032000F061F8002211466FF0A4
:101770000B0000F03BF8002211466FF00A0000F069
:1017800035F8002211466FF0090000F02FF8002212
:101790001146501F00F02AF800221146101F00F0D9
:1017A00025F800221146901E00F020F800220121A9
:1017B000BDE80840881E00F019B800002438024037
:1017C00000F01F02012191404009800000F1E0205B
:1017D000C0F88011704700F01F02012191404009BC
:1017E000800000F1E020C0F800117047F0B40E4B0B
:1017F0001B680C46C3F30223C3F10705042D00D96F
:101800000425191D072901D2002300E0DB1E012653
:1018100006FA05F1491E214099409E40761E164069
:101820003143F0BC01F0C4BC0CED00E0064900F00F
:10183000070208684FF6FF03184040EA0220034AF7
:1018400010430860704700000CED00E00000FA054E
:101850000248006800F4C05070470000007000406B
:101860002DE9F84F06460078C00775D0DFF84C81A7
:101870000027D8F80000C0000BD4D8F8001041F0C1
:101880008051C8F80010D8F80000012700F08050FF
:1018900000904B4C2068C00510D4206840F4807044
:1018A0002060FFF71DFF054605E000BFFFF718FFAA
:1018B000401B64284ED82068C005F7D53F4D243D15
:1018C000286800F0C041706800F0C0428A4209D028
:1018D000C0F30141032905D12968890302D50120FC
:1018E000BDE8F88F354C1034216811F440314AD0EE
:1018F00000F44030884246D03078C00743D020689A
:101900004FF4000292FAA2F1B1FA81F14FEA810C90
:101910002C494FF0010A8C4420F44030CCF880A6CA
:1019200092FAA2F2B2FA82F201EB82010023C1F82C
:1019300080362060C00526D5FFF7D2FE81464FF4E1
:10194000007B0AE0FFF7CCFEA0EB090141F28830F2
:10195000814202D90320C3E72EE09BFAABF0B0FA34
:1019600080F040F04001BAEB511F01D1296800E03E
:1019700021689BFAABF2B2FA82F202F01F020AFA75
:1019800002F00142DED07068C0F30141032906D1A4
:10199000296800F0C04021F0C0410143296020685F
:1019A000716801F44031084320602FB1D8F800106D
:1019B00021F08051C8F80010002091E7243802403F
:1019C00000700040000047422DE9F047DFF8BC817D
:1019D00005460E46D8F8000000F00100B04214D2CF
:1019E000012E05D1D8F8001041F00401C8F800100C
:1019F000D8F8001021F001013143C8F80010D8F8E0
:101A0000000000F00100B04271D12878604C8007DE
:101A100005D52068A96820F0F000084320602878E8
:101A2000C00771D05A4A5A4B69680120083A2C33D2
:101A3000022910D003292ED001292FD05FEA402798
:101A400097FAA7FCBCFA8CFC4CF0200C5FEA5C1CFB
:101A500004D0126803E04FF40037F1E71A6897FAF0
:101A6000A7F3B3FA83F303F01F039840024262D056
:101A7000206820F0030008432060FFF731FE69680A
:101A8000074641F28830022910D003291CD00129D1
:101A9000814626D034E04FF00077D1E70227CFE728
:101AA000FFF71EFEC11B494501D926E0814620688B
:101AB000C0F381000228F3D126E000BFFFF710FE3B
:101AC000C11B494501D918E081462068C0F3810057
:101AD0000328F3D118E000BFFFF702FEC11B494500
:101AE0000BD82068C0F381000128F5D10CE022E07A
:101AF000FFF7F6FDC11B494502D90320BDE8F08779
:101B0000206810F00C0FF3D1D8F80010404601F017
:101B10000101B14211D9012E03D1016841F0040144
:101B20000160016821F0010131430160006800F0AB
:101B30000100B04201D00120E0E72878400705D538
:101B40002068E96820F4E0600843206028780007F6
:101B500006D52068296920F4605040EAC100206061
:101B600000F052F82168F02292FAA2F201F0F0019E
:101B7000B2FA82F2D140074A515CC8400649086077
:101B80000120FFF7C7FD0020B8E70000003C02403D
:101B90000838024026860008E40400200148006856
:101BA00070470000E40400200848094900680968FB
:101BB0004FF4E06292FAA2F201F4E061B2FA82F22A
:101BC000D140044A515CC84070470000E404002042
:101BD0000838024036860008084809490068096844
:101BE0004FF4605292FAA2F201F46051B2FA82F21A
:101BF000D140044A515CC84070470000E404002012
:101C000008380240368600081E4A116801F00C00B0
:101C1000042813D0082813D00C2813D0101F0068F4
:101C200000F460414FF4604090FAA0F0B0FA80F008
:101C3000C1404FF40040491C88407047124870472B
:101C4000124870474FF4701393FAA3F301F4701025
:101C5000B3FA83F3D8400E4B01F440011268185CCC
:101C60004FF4400393FAA3F3B3FA83F3D940491C2A
:101C7000D20301D5054A00E0034A5043B0FBF1F01E
:101C800070470000083802400024F40000127A0077
:101C90001D8600082DE9F84F07460078FB4EFC4DE5
:101CA000C0074FF0010428D0F848083001684FF40D
:101CB0000038C1F38101022907D00168C1F3810115
:101CC00003291BD10068C00318D598FAA8F0B0FA10
:101CD00080F040F02000400901D0306800E0286822
:101CE00098FAA8F1B1FA81F101F01F0104FA01F1AB
:101CF00008425CD0786800287BD058E078680128DA
:101D00000AD008B1052811D0306820F48030306046
:101D1000306820F4802002E0306840F48030306089
:101D2000786828B3FFF7DCFC81460BE0306840F4AC
:101D300080203060F0E700BFFFF7D2FCA0EB090085
:101D4000642872D898FAA8F0B0FA80F040F0200029
:101D5000400901D0306800E0286898FAA8F1B1FA8B
:101D600081F101F01F0104FA01F10842E4D01EE004
:101D7000FFF7B6FC814605E0FFF7B2FCA0EB0900D7
:101D80006428DED898FAA8F0B0FA80F040F020007D
:101D9000400901D0306800E0286898FAA8F1B1FA4B
:101DA00081F101F01F0104FA01F10842E4D1387811
:101DB000DFF8E08280074FF0000B4FF002095FD59B
:101DC000B24808300168C1F38101012907D00168D8
:101DD000C1F3810103291CD10068C00319D499FA09
:101DE000A9F0B0FA80F040F02000400902D030683D
:101DF00001E086E0286899FAA9F1B1FA81F101F0D1
:101E00001F0104FA01F108422BD0F868012878D1AB
:101E100027E0F868A8B394FAA4F0B0FA80F048F884
:101E20002040FFF75DFC824606E066E1FFF758FCC4
:101E3000A0EB0A00022884D899FAA9F1B1FA81F13D
:101E400041F02001490901D0316800E0296899FA80
:101E5000A9F0B0FA80F000F01F0004FA00F001428F
:101E6000E4D08A48001D01684FF4F85393FAA3F3B5
:101E70003A69B3FA83F321F4F8519A4011430160AF
:101E800025E0FFE794FAA4F1B1FA81F148F821B016
:101E9000FFF726FC824605E0FFF722FCA0EB0A00D4
:101EA0000228C8D899FAA9F0B0FA80F040F02000D2
:101EB000400901D0306800E0286899FAA9F1B1FA28
:101EC00081F101F01F0104FA01F10842E4D13878F0
:101ED0004FF4007AC0067CD56C480830006810F0DA
:101EE0000C0F0FD0B9694FF48070002972D090FAAE
:101EF000A0F0B0FA80F048F82040FFF7F1FB009026
:101F00007EE087E09AFAAAF0B0FA80F040F0200074
:101F1000400901D0306800E028689AFAAAF1B1FAC5
:101F200081F101F01F0104FA01F1084202D0B86901
:101F300000286FD05548396A001D006800F46040E1
:101F400081421AD9084601F0C9FA002862D14F48E7
:101F5000001D01683A6A21F4604111430160016883
:101F60004FF07F4393FAA3F3FA69B3FA83F321F0B6
:101F70007F419A401143016018E04448001D026807
:101F800022F460420A43026001684FF07F4393FAF3
:101F9000A3F3FA69B3FA83F321F07F419A40114326
:101FA0000160386A01F09AFA0028CFD14FF46041FD
:101FB00091FAA1F1386AB1FA81F1C8404FF40041B9
:101FC000401C8140314808300068F02200F0F000E9
:101FD00001E070E040E092FAA2F2B2FA82F2D04060
:101FE0002D4A105CC1402D4801600120FFF792FB93
:101FF00061E000BFFFF774FB0099401A02287CD80B
:102000009AFAAAF0B0FA80F040F02000400902D01D
:10201000306801E0BCE128689AFAAAF1B1FA81F1CE
:1020200001F01F0104FA01F10842E3D01748001D36
:1020300001683A6A21F460411143016001684FF080
:102040007F4393FAA3F3FA69B3FA83F321F07F4154
:102050009A40114301602EE090FAA0F0B0FA80F0AF
:1020600048F820B0FFF73CFB009005E0FFF738FB95
:102070000099401A0228C2D89AFAAAF0B0FA80F061
:1020800040F0200040090BD030680AE000380240E0
:10209000343802400000474226860008E40400204D
:1020A00028689AFAAAF1B1FA81F101F01F0104FA45
:1020B00001F10842DAD13878000753D5786948B37E
:1020C00094FAA4F0B0FA80F008EB8000C0F88046E3
:1020D000FFF706FB009005E0FFF702FB0099401AAE
:1020E00002288CD899FAA9F0B0FA80F040F04000AC
:1020F000B4EB501F02D1306801E08EE0286899FAF5
:10210000A9F1B1FA81F101F01F0104FA01F21042C4
:10211000E2D027E094FAA4F1B1FA81F108EB810151
:10212000C1F880B6FFF7DCFA009005E0FFF7D8FAB7
:102130000099401A022870D899FAA9F0B0FA80F0F4
:1021400040F04000B4EB501F01D1306800E0286837
:1021500099FAA9F1B1FA81F101F01F0104FA01F233
:102160001042E3D1387840077BD59B484FF00009F7
:102170000068C0000AD49848016841F080510160AD
:1021800000684FF0010900F080500090934801680A
:10219000C90511D4016841F480710160FFF7A0FA0C
:1021A000009005E0FFF79CFA0099401A642834D8A3
:1021B0008A480068C005F5D5B86801280AD008B17A
:1021C000052811D0286820F480702860286820F441
:1021D000806002E0286840F480702860B86848B3E6
:1021E000FFF77EFA00900DE0286840F480602860D8
:1021F000F0E700BFFFF774FA0099411A41F2883006
:1022000081420AD89AFAAAF0B0FA80F040F0400071
:10221000B4EB501F02D1306801E095E028689AFACB
:10222000AAF1B1FA81F101F01F0104FA01F21042A2
:10223000E0D022E0FFF754FA009007E0FFF750FAF1
:102240000099411A41F2883081427DD89AFAAAF069
:10225000B0FA80F040F04000B4EB501F02D130687B
:1022600001E012E028689AFAAAF1B1FA81F101F0CE
:102270001F0104FA01F21042E0D1B9F1000F04D0BD
:102280005548016821F080510160786AE8B3DFF8B1
:102290004891A9F11C09D9F80010C1F38101032963
:1022A00076D002284FF080714FF0007A58460BD05C
:1022B00091FAA1F1B1FA81F148F82100FFF710FA83
:1022C000B046074656466DE04FF0807191FAA1F195
:1022D000B1FA81F18A0042495050FFF701FAB34642
:1022E0008046564606E000BFFFF7FAF9A0EB08006B
:1022F000022854D896FAA6F0B0FA80F040F02000F8
:10230000400903D0DBF8000001E061E0286896FA9C
:10231000A6F1B1FA81F101F01F0104FA01F10842BE
:10232000E2D1D7E90A103A6BD9F80030014323F41F
:102330007D031A431143C9F800104FF0807090FAE2
:10234000A0F0B0FA80F000E029E0810024480C50B1
:10235000FFF7C6F9074604E0FFF7C2F9C01B0228E1
:102360001DD896FAA6F0B0FA80F040F0200040099F
:1023700002D0DBF8000000E0286896FAA6F1B1FA76
:1023800081F101F01F0104FA01F10842E4D01FE0DD
:1023900020E000BFFFF7A4F9C01B022802D90320E8
:1023A000BDE8F88F96FAA6F0B0FA80F040F0200071
:1023B000400902D0D8F8000000E0286896FAA6F19B
:1023C000B1FA81F101F01F0104FA01F10842E1D1F3
:1023D0000020E5E70120E3E72438024000700040D8
:1023E000000047427047000001490120C872704751
:1023F0000800002010B5044600688168C9040CD5A7
:10240000C068C00509D52046FFF7EEFF2068C16807
:1024100001F0800161F4C071C160206881688904A5
:102420000CD5C068800509D52046FFF7DBFF206882
:10243000C16801F0800161F42071C16003494FF46B
:10244000003008600120607710BD000014040140D6
:1024500010B500680B4641680D480140080CD87063
:10246000C1F304245C7001F03F049C70C1F342315D
:10247000197052B901F074F8D870587801F070F8FA
:102480005870987801F06CF89870002010BD00002A
:102490003FFFFF0010B500680C4601680E48014080
:1024A000C1F305402070C1F30623637001F07F0380
:1024B000A370402303EA1141E17052B901F050F8D2
:1024C0002070607801F04CF86070A07801F048F856
:1024D000A070002010BD00007F7F7F0070B5040059
:1024E00002D0607F10B106E0012070BD002020778F
:1024F000204600F041F8022060772168CA20486237
:10250000216853204862204601F03EF8FF21002850
:10251000206803D0416204206077E5E78268154BAC
:102520001A4082602268906863681843D4E90435D1
:102530002B43184390602268E068106120680269AC
:10254000238942EA034202612068C26822F08002C5
:10255000C2602068026C22F4802202642068026C4F
:10256000A3691A4302642068416201206077002059
:1025700070BD0000BFFF8FFF10B500680C49884296
:1025800014D10120810591FAA1F10A4AB1FA81F131
:1025900002EB8101C1F88006002205212920FFF706
:1025A00025F9BDE810402920FFF715B910BD00003E
:1025B00000280040000047422DE9F05F0446007FFC
:1025C0000D46012844D04FF0010B84F81CB00220C6
:1025D00060772068002780684FEA4060BAB300281F
:1025E00052DA287800F0BCFF287D00F0B9FFA87807
:1025F0002978EA7840EA01406978090241EA024113
:102600000843297D40EA0166286921680643E86895
:102610000643CA204862216853204862A869FF2502
:10262000B0F5807F20684FF0030A4FF47A79816813
:102630002CD021F4007181602068C16801F0800114
:1026400061F42071C160FFF74BF880464FE002E073
:102650000220BDE8F09F002800DBEF70287800F032
:1026600088FF0604687800F084FF46EA0026A87810
:1026700000F07FFF0643E87846EA0046287D00F038
:1026800078FF46EA0066BFE7EF70ADE721F480719E
:1026900081602068C16801F0800161F4C071C1608F
:1026A000FFF71EF8804605E0FFF71AF8A0EB0800D8
:1026B000484515D82068C068C007F5D02068C661B5
:1026C0002068816841F4807181602068816841F4EC
:1026D00080511BE0FFF704F8A0EB0800484506D93D
:1026E0002068456284F81DA027770320B1E72068A1
:1026F000C0688007EED5206806622068816841F4D2
:10270000007181602068816841F40051816009484E
:10271000016841F40031016006480830016841F465
:10272000003101602068456284F81DB027770020E1
:102730008FE70000000401402DE9F0470446007FC8
:102740000B46012825D04FF0010984F81C90022087
:102750006077587802B300F003FF987800F000FF2C
:102760009878D97840EA014558781978000240EA0B
:10277000413005432168CA204862216853204862DD
:10278000204600F001FF0026FF274FF0040838BB69
:1027900019E00220BDE8F087C10603D500F0EF0084
:1027A0000A305870D87800F0E4FE0204587800F03F
:1027B000E0FE42EA0022987800F0DBFE024318783F
:1027C00042EA4035D6E70D4805402068456020685C
:1027D000C16821F08001C160204600F085F830B169
:1027E0002068476284F81D8026770120D2E72068A0
:1027F000476284F81D9026770020CBE73FFFFF005B
:102800002DE9F0470446007F0D46012811D04FF016
:10281000010A84F81CA002206077206800268068E6
:102820004FEA406042B100281ADA287800F098FE9A
:1028300017E00220BDE8F087002800DBEE70287862
:1028400000F097FE0204687800F093FE42EA00224E
:10285000A87800F08EFE0243E87842EA00470AE0DA
:10286000EE70A878297840EA01476878E978000294
:1028700040EA014007432168CA204862216853208A
:102880004862204600F080FE4FF0FF084FF0040938
:10289000C0B914480740206807602068816821F4A7
:1028A00080218160D5E90101084321688A681043CD
:1028B00088602068C16821F08001C160204600F076
:1028C00013F838B12168C1F8248084F81D90267768
:1028D0000120AFE72168C1F8248084F81DA0267785
:1028E0000020A7E77F7F7F0070B504460068C168BD
:1028F00021F0A001C160FEF7F3FE05464FF47A76A1
:1029000007E000BFFEF7ECFE401BB04201D90320F8
:1029100070BD2068C0688006F4D5002070BD4FF0FF
:10292000E0210428086903D020F004000861704702
:1029300040F00400FAE7704710B5401EB0F1807F08
:1029400001D3012010BD4FF0E02460610F2160171A
:1029500000F02EFC0020A06107202061002010BDA7
:1029600010B5FFF7E8FF10BD30B590F83420012A0C
:1029700020D0012280F83420022380F8353003680B
:102980005C6824F070045C6003685C680D682C432C
:102990005C6003689C6824F080049C6003689C6809
:1029A00049680C439C6080F83520002180F8341081
:1029B000084630BD022030BD10B5040003D094F8A5
:1029C000350010B107E0012010BD002084F834006C
:1029D000204600F00DF8022084F83500211D206803
:1029E00001F0EAF8012084F83500002010BD000055
:1029F00008B50068B0F1804F12D10A48016841F073
:102A0000010101600068002200F001000090032134
:102A10001C20FEF7EBFEBDE808401C20FEF7DBBEE5
:102A200008BD0000243802400168CA6842F0010273
:102A3000CA600068016841F0010101600020704730
:102A400070B5044690F83400012817D0012584F8A9
:102A50003450022084F835002068826822F0770222
:102A600022F47F4282600868502837D00DDC20288D
:102A700059D005DC88B3102841D151E0022070BD47
:102A8000302853D040283AD13FE060282ED070281B
:102A90000BD0B0F5805F03D0B0F5005F2FD110E010
:102AA0002068816821F0070115E0CB68D1E9012198
:102AB000206801F0B7F82168886840F077008860E6
:102AC0001DE0CB68D1E90121206801F0ABF8206856
:102AD000816841F48041816011E01EE0CA68496864
:102AE000206801F0B1F85021206806E0CA68496802
:102AF000206801F0BAF86021206801F09DF884F8A0
:102B00003550002084F8340070BDCA6849682068D8
:102B100001F09AF840212068EFE700212068ECE7F7
:102B200010212068E9E720212068E6E730212068AD
:102B3000E3E7704770B50446006801694FF000058F
:102B4000C943890715D4C168C943890711D4E91E4F
:102B5000016101202075206880698007204602D02D
:102B6000FFF7E7FF04E000F078F8204600F076F881
:102B7000257520680169C943490717D4C168C9434D
:102B8000490713D46FF00401016102202075206809
:102B9000806910F4407F204602D0FFF7CAFF04E0AE
:102BA00000F05BF8204600F059F8257520680169AF
:102BB000C943090716D4C168C943090712D46FF085
:102BC00008010161042020752068C0698007204643
:102BD00002D0FFF7AEFF04E000F03FF8204600F01F
:102BE0003DF8257520680169C943C90617D4C16835
:102BF000C943C90613D46FF0100101610820207584
:102C00002068C06910F4407F204602D0FFF791FF92
:102C100004E000F022F8204600F020F82575206836
:102C20000169C943C90708D1C168C943C90704D1AB
:102C3000891E0161204600F013F820680169C9432C
:102C4000490609D4C168C943490605D46FF040015B
:102C50000161204600F078F870BD704770470000B1
:102C60002DE9F041324CE06A401CE062216B491CC6
:102C70002163A16B491CA163E16B491CE163A1784D
:102C8000002519B1616B491C616300E06563A1799E
:102C900011B1216C491C2164617911B1616C491C2D
:102CA0006164A16C491CA164E16C491CE16442F2BD
:102CB0001071884203D31F48E562FEF7F3FB216BD6
:102CC00041F288300126814201D325632670A16B31
:102CD00040F6B837B94201D3A563E670616B814213
:102CE00004D36563667014A001F0EEF9E06BB8429E
:102CF00001D3E5632671206CC82803D32564A57130
:102D000002F086FD606CC82803D36564657105F028
:102D10001FFBA06C322802D3A56405F073F9E06CA8
:102D2000B0F57A6F01D3E564E671BDE8F08100008B
:102D3000080000202805002041542074696D656F4B
:102D400075740D0A000000007047000010B5C16BDB
:102D5000044603A001F0B8F90020E06310BD0000B4
:102D600055415254204572726F723A25780D0A000F
:102D700038B5044600680168C26811F0010F02F41A
:102D8000807204D01AB1E16B41F00101E163016886
:102D9000C1F34002416901F0010122B119B1E26BB6
:102DA00042F00402E2630268C2F3800222B119B168
:102DB000E26B42F00202E2630268C2F3C00222B197
:102DC00019B1E16B41F00801E1630168C068C1F32A
:102DD000401100F0200019B110B1204600F057FF5B
:102DE00020680168C068C1F3C01100F0800019B10B
:102DF00010B1204601F0DEF821680868CA68C0F307
:102E0000801002F04002012570B16AB1CA68204604
:102E100022F04002CA6094F83910322911D080F8AB
:102E2000395000BF00F03CF9E06B002808D0206862
:102E300001684068009084F839502046FFF786FF0B
:102E400038BD222180F83910ECE770B5040004D0B9
:102E500094F83900002510B106E0012070BD84F817
:102E60003850204600F020F8022084F8390020680D
:102E7000C16821F40051C160204600F04BFF20687A
:102E8000016921F4904101612068416921F02A0122
:102E900041612068C16841F40051C160E5630120CF
:102EA00084F83900002070BD70B51E4E0168022202
:102EB0000123032407251C4886B0B14215D11B49C4
:102EC0000E6846F480460E60096801F48041059161
:102ED00061028DE83E006946FEF732FB00220221C6
:102EE0002520FEF783FC252018E0114EB14217D1B2
:102EF0000E49091D0E6846F400360E60096801F49B
:102F0000003105910C218DE83E006946FEF718FB63
:102F1000002211462620FEF769FC2620FEF75BFC06
:102F200006B070BD00380140000002402038024069
:102F30000044004090F83930012B01D0122B2CD1E5
:102F400039B332B390F83830012B26D0012380F802
:102F5000383081628285C2850021C16390F83920B2
:102F6000122A18D05FF0220280F8392080F8381039
:102F70000168CA6842F48072CA6001684A6942F016
:102F800001024A610068C16841F02001C16000206F
:102F90007047012070473222E6E7022070470000A8
:102FA00010B504460848844203D10848007805F06B
:102FB00033FA05484030844205D105480078BDE821
:102FC000104002F087BC10BDD4050020DA040020B8
:102FD000EC0400202DE9F047044690F839009946AA
:102FE0000D46012801D0222858D12DB322B394F8E0
:102FF0003800012852D0012684F838600027E763A2
:1030000094F8390022281AD05FF0120084F83900B1
:10301000A284E2844FF48058E08C4B46401EE0844A
:10302000A0684FF0000240454FF08001204613D1C8
:1030300000F0F3FF08BB04E00120BDE8F087322078
:10304000E4E728882168C0F308004860206908B1D7
:103050006D1C08E0AD1C06E000F0DFFF68B92168D8
:1030600015F8010B4860E08C0028D5D14B460022B2
:103070004021204600F0D1FF08B10320DDE794F89D
:103080003900322806D084F8396000BF84F83870DF
:103090000020D2E7222084F83900F7E70220CCE7AD
:1030A0007047FEE73EB5184816490024C0E90014F1
:1030B00089158460C0E903418900C0E90514C46131
:1030C00002250462C0E909451021C462C0E90D145B
:1030D000C463FEF7EFF800B1FEE7009401246946EF
:1030E0000948CDE90145FDF79BFF00B1FEE7CDE9B9
:1030F0000045694604480295FDF792FF002800D07C
:10310000FEE73EBD002401402805002030B52648DA
:103110008BB024490024C0E900147F218160FF2185
:10312000C0E9031444618461FFF7D8F900B1FEE7F8
:103130008DF81C408DF81D408DF81E40089400222B
:1031400007A919480994FFF75BFB00B1FEE70125C9
:103150008DF828508DF829508DF82A5012208DF8BE
:103160002B0000220AA91048FFF7E6FA00B1FEE79B
:103170004FF00040CDE902408DF800408DF801404D
:103180000194C00D8DF80250069004948DF81450EF
:10319000002269460448FFF70FFA002800D0FEE736
:1031A0000BB030BD002800407C050020FEE77047D2
:1031B0000907090E002806DA00F00F0000F1E020F0
:1031C00080F8141D704700F1E02080F8001470476B
:1031D00070B5002404F1B000C0B2002100F03AF94B
:1031E0000021022000F036F90021102000F032F911
:1031F00000250121002000F02DF96D1CEDB2802D7D
:10320000F7D3641CE4B2082CE4D370BD2DE9F04779
:1032100086B001244FF48056CDE90064DFF86CA13C
:10322000032569465046CDE90245FEF789F9A70313
:10323000CDE9007469465046CDE90245FEF780F9B4
:103240004FF40058CDE9008469465046CDE9024567
:10325000FEF776F94FF40049CDE9009469465046EF
:10326000CDE90245FEF76CF9012231465046FEF7E2
:1032700032FA012239465046FEF72DFA0122414624
:103280005046FEF728FA012249465046FEF723FA37
:103290000021AE2000F0DEF80021022000F0DAF874
:1032A0000021102000F0D6F80021402000F0D2F8D4
:1032B0000021812000F0CEF80021CF2000F0CAF8D4
:1032C0000021A12000F0C6F80021C82000F0C2F8BB
:1032D0000021A62000F0BEF80021A82000F0BAF8D6
:1032E00000213F2000F0B6F80021D32000F0B2F812
:1032F0000021084600F0AEF80021D52000F0AAF821
:103300000021802000F0A6F80021D92000F0A2F8CA
:103310000021F12000F09EF80021DA2000F09AF858
:103320000021122000F096F80021DB2000F092F836
:103330000021402000F08EF80021202000F08AF8C3
:103340000021022000F086F800218D2000F082F894
:103350000021142000F07EF80021A42000F07AF86B
:103360000021A62000F076F80021AF2000F072F8CE
:103370000021AF2000F06EF8FFF72AFF0021084679
:1033800000F006F806B0BDE8F08700000004024037
:1033900010B50446B031C8B2002100F05BF810202F
:1033A00040EA1410002100F055F804F00F00BDE8C9
:1033B000104040F00100002100F04CB82DE9F04130
:1033C000203A00240D468046D7B27F2803D900203A
:1033D0008D1C8046EDB22946FFF7DAFF0F4E00BF85
:1033E00004EB07100121305C00F034F8641CE4B2F7
:1033F000082CF5D36D1CE9B24046FFF7C9FF002445
:1034000004EB071030440121007A00F023F8641C1B
:10341000E4B2082CF4D3BDE8F0810000BB860008BC
:103420002DE9F04117460E46044600250CE03146D2
:103430002046FFF7C3FF0834E4B2782C02D90024F9
:10344000B61CF6B26D1CEDB27A5D002AEFD1BDE874
:10345000F08100002DE9F0471E4D06464FF4804AEA
:1034600009B1012200E0002251462846FEF733F957
:103470004FF48058002241462846FEF72CF90024DC
:103480004FF400494FF40057002239462846FEF712
:1034900022F9300601D5012200E0002249462846E3
:1034A000FEF719F9012239462846FEF714F970068D
:1034B000641C060EE4B2082CE6D3012241462846DD
:1034C000FEF709F951462846BDE8F0470122FEF70C
:1034D00002B900000004024070470000F8B507463A
:1034E0001A48002600681A4D10F0F00F20D1174C32
:1034F0001C342068C00002D5FEF7AAF90DE0206850
:1035000040F080502060206800F080500090FEF76E
:103510009FF9216821F080512160B0F5C05F07D18B
:10352000B7F5404F04D12868012640F00400286018
:10353000286820F0010030432860286800F001006E
:10354000B04201D00120F8BD0020F8BD083802408B
:10355000003C02400148FEF74DBF00007C05002002
:10356000010901EB810100F00F0000EB4100C0B246
:103570007047002102E00A38C0B2491C0A28FAD27A
:10358000090740EA1160704770B504460068C168D9
:10359000490614D44FF0FF31C160FEF7A1F805468B
:1035A0004FF47A7607E000BFFEF79AF8401BB0426E
:1035B00001D9032070BD2068C0684006F4D5002002
:1035C00070BD000010B51F4C012240212046FEF7BF
:1035D00082F80021491CC9B21429FBD301228021A1
:1035E0002046FEF778F80021491CC9B21429FBD304
:1035F000002280212046FEF76EF80021491CC9B246
:103600001429FBD3002240212046FEF764F8002154
:10361000491CC9B21429FBD3012240212046FEF7E0
:103620005AF80021491CC9B21429FBD30122802178
:103630002046FEF750F80020401CC0B21428FBD3EF
:1036400010BD00000004024070B5184C002240215B
:103650002046FEF740F80021491CC9B21429FBD3CB
:10366000012280212046FEF736F80021491CC9B20C
:103670001429FBD30025012240212046FEF72BF818
:103680000021491CC9B21429FBD300224021204645
:10369000FEF721F80021491CC9B21429FBD36D1C87
:1036A000092DE8DDBDE87040FFF78CBF0004024043
:1036B0002DE9FC41804600246D46012000F0EEF823
:1036C0002855641C032CF8D305208DF80400002035
:1036D00001A92A5C0B18401C5A700228F9D3032157
:1036E00001A801F01BFA9DF8021088420FD000F0EB
:1036F00047F9032101A801F011FA01469DF80220C3
:1037000017A000F0E1FC4FF0FF30BDE8FC819DF810
:1037100001009DF8001000EB012000B2FCF7ABFFA8
:1037200004460D46154A164BFCF7C4FE22462B46AE
:10373000FCF7C0FE06460F4620462946114A124BAA
:10374000FCF7B8FE114A124BFCF70DFE32463B4621
:10375000FCF709FEFCF7FCFFC8F800000020D4E7E6
:1037600068756D696469747920435243206572728B
:103770006F723A25642025640D0A0000978357CDA7
:103780009EC4BABE27C286A757CAA23F569FABADFA
:10379000D85F00C07CB5064600246D46012000F0CD
:1037A0007DF82855641C032CF8D303208DF8040001
:1037B000002001A92A5C0B18401C5A700228F9D37A
:1037C000032101A801F0AAF99DF8021088420ED049
:1037D00000F0D6F8032101A801F0A0F901469DF8F8
:1037E00002200EA000F070FC4FF0FF307CBD9DF871
:1037F00001009DF8001000EB012000B2FCF73BFF38
:103800000C4A0D4BFCF756FE0C4A0D4BFCF74CFED8
:10381000FCF79EFF306000207CBD000074656D7079
:1038200020435243206572726F723A2564202564EA
:103830000D0A00007B14AE47E17A843F9A9999996A
:1038400099D94340F0B585B04020112501260327C2
:103850008DE8E100104C69462046FDF771FE80209E
:103860008DE8E10069462046FDF76AFE002240210E
:103870002046FDF730FF0021491CC9B21429FBD3B3
:10388000012280212046FDF726FF0020401CC0B207
:103890001428FBD305B0F0BD000402402DE9F0412F
:1038A000364D07460024224640212846FDF713FFE7
:1038B0000020401CC0B21428FBD300260122402166
:1038C0002846FDF708FF0020401CC0B21428FBD397
:1038D00080212846FDF7FAFE610640EA11640022C5
:1038E00040212846FDF7F7FE0020401CC0B21428F6
:1038F000FBD3761C072EE1DD012280212846FDF74F
:10390000EAFE0020401CC0B21428FBD357B10022AD
:1039100080212846FDF7DFFE0020401CC0B214289D
:10392000FBD309E0012280212846FDF7D4FE0020C8
:10393000401CC0B21428FBD3012240212846FDF7C9
:10394000CAFE0020401CC0B21428FBD30022402134
:103950002846FDF7C0FE0020401CC0B21428FBD34F
:10396000012280212846FDF7B6FE0020401CC0B28F
:103970001428FBD32046BDE8F0810000000402407B
:1039800010B5FFF761FEBDE810401E2000F010B832
:1039900010B5FFF717FEBDE81040052000F008B88D
:1039A00010B5FFF70FFEBDE810400320AFF3008015
:1039B0002DE9F041344D0746002240212846FDF70D
:1039C0008AFE0020401CC0B21428FBD30724012625
:1039D00006FA04F038420AD0012280212846FDF779
:1039E0007AFE0020401CC0B21428FBD309E000225C
:1039F00080212846FDF76FFE0020401CC0B214282D
:103A0000FBD3012240212846FDF765FE0020401C23
:103A1000C0B21428FBD3002240212846FDF75BFEEC
:103A20000020401CC0B21428FBD3641ED0D5012254
:103A300040212846FDF74FFE0020401CC0B214284C
:103A4000FBD380212846FDF741FE00284FF00002FD
:103A50004FF0400128460ED0FDF73DFE0020401CEF
:103A6000C0B21428FBD3394608A000F02DFB4FF05C
:103A7000FF30BDE8F081FDF72EFE0020401CC0B2F3
:103A80001428FBD30020F4E70004024041434B20FC
:103A90004E47207768656E207772697465202578B7
:103AA0000D0A0000704710B5FDF720FEBDE810407C
:103AB000FEF756BF30B5274895B0016841F08051F8
:103AC0000160006800F0805014902348016821F4E0
:103AD000C05141F40061016001240720CDE90004D8
:103AE00010200294CDE903400220C503CDE9090569
:103AF0004FF440200B90A0050C906846FEF7CAF8E2
:103B000000B1FEE70F200D9003200E9000200F90D3
:103B10001090119001210DA8FDF756FF00B1FEE7AE
:103B200012A8CDE91245FDF79BFE00B1FEE7FEF7B6
:103B300035F84FF47A71B0FBF1F0FEF7FDFE04208A
:103B4000FEF7EDFE01210022881EFDF74FFE15B0A5
:103B500030BD000024380240007000400F4801686A
:103B600041F4807101600D4908310A680C4B1A401C
:103B70000A6002680B4B1A400260026822F480223D
:103B80000260086820F47D0008600020091D0860BC
:103B900005494FF00060086070470000003802409F
:103BA0000CC0FF88FEFFFEEE08ED00E00148FEF7C6
:103BB000C1BF00009C05002070B502684FF0804630
:103BC000134B144CB04203D0984201D0A04205D10F
:103BD00022F070054A682A43B0420CD098420AD0BD
:103BE000A04208D00C4B984205D00C4B984202D012
:103BF0000B4B984203D122F44073CA681A43026007
:103C00008A68C262096881620121416170BD000059
:103C1000000400400008004000080140000C014082
:103C20000010014010B5846842EA032224F47F4466
:103C30000A432243826010BD826822F070020A4368
:103C400042F007018160704710B5036A046A24F0EE
:103C500001040462846924F0F00444EA021423F0AD
:103C60000A020A438461026210BD10B5036A23F0A0
:103C7000100303628369046A23F4704343EA023247
:103C800024F0A00343EA01118261016210BD10B566
:103C9000846803690268816AB4F5805F0DD0526858
:103CA000CBB102F07F034A1C82620B70C18D491EAA
:103CB0000904090CC18510D027E052682BB1D2B29B
:103CC0000A80816A491C8162F0E7C2F308020A8017
:103CD000816A891CF7E70A7015E00168CA6822F05A
:103CE0002002CA6090F83910322910D00168CA68E1
:103CF00022F48072CA6001684A6922F001024A61B6
:103D0000012180F83910FFF74BF9002010BD122176
:103D1000F7E700002DE9F041044600680169E26818
:103D200021F44051114301612169A068E26908430F
:103D30006169114308432168CA6849F20C639A43D8
:103D40000243CA6020684169A26921F440711143AD
:103D50004161E1696425B1F5004F954821684FF054
:103D600032083DD081427AD1FDF736FF00EBC00129
:103D700001EB001061688900B0FBF1F6FDF72CFF44
:103D800000EBC00101EB001061688900B0FBF1F0AD
:103D9000B0FBF5F06FF01801484306EB800108EB2B
:103DA0000110B0FBF5F000F0F006FDF715FF00EB99
:103DB000C00101EB001061688900B0FBF1F0B0FBBD
:103DC000F5F006EB0016FDF707FF00EBC00101EB75
:103DD000001061688900B0FBF1F7FDF7FDFED0E04F
:103DE00081423DD1FDF7F8FE00EBC00101EB001070
:103DF00061684900B0FBF1F0B0FBF5F00601FDF79A
:103E0000EBFE00EBC00101EB001061684900B0FB64
:103E1000F1F7FDF7E1FE00EBC00101EB0010616876
:103E20004900B0FBF1F0B0FBF5F06FF0180148432A
:103E300007EB800108EBC100B0FBF5F000F0F800E3
:103E400006EB4006FDF7C8FE00EBC00101EB0010D9
:103E500061684900B0FBF1F7FDF7BEFE3CE055E0BC
:103E6000FDF7A2FE00EBC00101EB00106168490004
:103E7000B0FBF1F0B0FBF5F00601FDF795FE00EBAD
:103E8000C00101EB001061684900B0FBF1F7FDF7DC
:103E90008BFE00EBC00101EB001061684900B0FB34
:103EA000F1F0B0FBF5F06FF01801484307EB80012B
:103EB00008EBC100B0FBF5F000F0F80006EB40069F
:103EC000FDF772FE00EBC00101EB001061684900D4
:103ED000B0FBF1F7FDF768FE00EBC00101EB00104D
:103EE00061684900B0FBF1F0B0FBF5F06FF018012C
:103EF000484307EB800108EBC100B0FBF5F000F090
:103F00000700216830448860BDE8F081FDF74CFE71
:103F100000EBC00101EB001061688900B0FBF1F615
:103F2000FDF742FE00EBC00101EB00106168890063
:103F3000B0FBF1F0B0FBF5F06FF01801484306EB71
:103F4000800108EB0110B0FBF5F000F0F006FDF782
:103F50002BFE00EBC00101EB001061688900B0FB93
:103F6000F1F0B0FBF5F006EB0016FDF71DFE00EBDF
:103F7000C00101EB001061688900B0FBF1F7FDF7AB
:103F800013FE00EBC00101EB001061688900B0FB7B
:103F9000F1F0B0FBF5F06FF01801484307EB80013A
:103FA00008EB0110B0FBF5F000F00F00A9E70000EE
:103FB0000038014090F83910122903D0322901D07D
:103FC000022070478168B1F5805F016A0BD04A1CFE
:103FD0000262026809785160C18C491E0904090C0B
:103FE000C1840ED017E009880268C1F3080151604E
:103FF00001690029016A02D0491C0162ECE7891CB1
:10400000FBE70168CA6822F08002CA600068C168E4
:1040100041F04001C160002070472DE9F0471D4686
:1040200090460E460446FDF75BFB07465FEA080034
:104030004FF000094FF0010808D030E0681C05D0AF
:1040400095B1FDF74DFBC01BA8420DD82068006854
:1040500036EA0000F2D127E0681C20D025B1FDF738
:104060003FFBC01BA8421AD92068C16821F080011B
:10407000C1602068C16821F02001C1602068C1686A
:1040800021F48071C1602068416921F00101416122
:1040900084F8398084F838900320BDE8F0872068E0
:1040A000006836EA0000D7D00020F6E70148FEF7A6
:1040B0005FBE0000D40500200148FEF759BE000095
:1040C00014060020FEE700000FB4054B10B503A94D
:1040D000044A029800F086F910BC5DF814FB000059
:1040E000054D0008180500200FB4084B10B504A9B1
:1040F00002AA039800F076F9044602A9002000F015
:1041000008FD204610BC5DF814FB0000134B0008AE
:1041100037B514460846064B6A46214600F062F958
:1041200004466946002000F0F4FC20463EBD000035
:10413000134B0008490050EAC12018BF04204A0D63
:1041400018BF40F0010040F2FF72B2EB515F08BFB0
:1041500040F00200012808BF052070470048704762
:10416000240500202DE9F0414F1E00EBC701044655
:10417000D1E9000115461E4637F006020DD02A4649
:104180003346FCF797F97F1E04EBC703D3E90023FE
:10419000FCF7E9F837F00602F1D1022F25D0042F01
:1041A00013D0062F18BFBDE8F0812A463346FCF72E
:1041B00081F9D4E90A23FCF7D6F82A463346FCF7FE
:1041C00079F9D4E90823FCF7CEF82A463346FCF700
:1041D00071F9D4E90623FCF7C6F82A463346FCF702
:1041E00069F9D4E90423FCF7BEF82A463346FCF704
:1041F00061F9D4E90223FCF7B6F82A463346FCF706
:1042000059F9D4E90023BDE8F041FCF7ACB800004F
:104210000022134610460149FCF7BEB90000F03FEA
:104220000122FCF756BCFCF79EB80022134610464C
:104230001146FCF7B1B940F2013200204FF0E041E5
:10424000FCF747BC024A00201107FCF742BC000003
:1042500001FDFFFF02E008C8121F08C1002AFAD1C1
:1042600070477047002001E001C1121F002AFBD1F6
:1042700070470000014908607047000024050020D5
:104280002DE9FF5FDDE90220010DDDF838B00243C2
:1042900018D044F61050A1F2FF3141430D140F988D
:1042A000012820D0A5EB0B00401C5FEA000A4FF06C
:1042B0000004474EDFF81C91A046504616D5CAF1BF
:1042C000000728E00F98012443A2012808D000210C
:1042D00000980F9BC0E90021C0E90243BDE8FF9FA1
:1042E0006FEA0B01F4E7CBF10000DEE7074612E0CE
:1042F000F80707D02246334640464946FCF7DAF82D
:10430000804689462246334610461946FCF7D2F8C5
:1043100004460E467F10002FEAD1DDE90201BAF112
:10432000000F42464B4602DAFCF7C4F801E0FCF706
:1043300033F904460E460022284BFCF7F1F903D866
:104340004FF0FF30014607E00022254B2046314662
:10435000FCF709F8FCF7D4FB102409E0002C0ADB79
:104360000A220023FCF730FA019B30321A55641EF2
:1043700050EA0102F2D1641C019AC4F11103144401
:104380000F9A012A03D0012208430DD10AE0084305
:1043900004D000204FF0110B0F9080E7A3EB0B052A
:1043A0006D1E0DE05B4504DD4FF0000205F10105D7
:1043B00004E003DA4FF00002A5F10105002AECD079
:1043C00000980F99C0E90231C0E9004586E7000076
:1043D000000024400000F03F300000000000F043E7
:1043E0000000E03F2DE9FF4F95B09B468946064609
:1043F00000250FE2252877D100242746F84A01211D
:10440000059400E0044316F8013F203B01FA03F055
:104410001042F7D130782A2811D06FF02F0330786E
:10442000A0F13002092A16D8059A44F0020402EBE2
:10443000820203EB42021044761C0590EFE759F824
:10444000042B0592002A03DA504244F400540590EC
:1044500044F00204761C30782E2816D116F8010F8D
:1044600044F004042A280DD06FF02F023078A0F118
:104470003003092B09D807EB870302EB4303C71866
:10448000761CF3E759F8047B761C30786C280FD043
:1044900006DC4C2817D068280DD06A2814D104E017
:1044A000742810D07A280FD10DE044F400140AE0EB
:1044B00044F4801401E044F440147278824202D142
:1044C00004F58014761C761C307866280BD013DC3B
:1044D000582877D009DC002875D04528F6D0462822
:1044E000F4D047281AD19DE118E0632835D064281C
:1044F00079D0652812D195E1702873D008DC67283F
:10450000F1D069286FD06E280DD06F2806D1B5E0A4
:1045100073282CD0752875D0782874D05A461799EE
:1045200090476D1C75E1C4F30250022809D003289E
:104530000DD0D9F8001004280DD00D6009F1040940
:1045400067E1D9F80010EA17C1E90052F6E7D9F897
:1045500000100D80F2E70D70F0E719F8041B8DF8DC
:10456000001000208DF80100EA46012003E059F810
:1045700004AB4FF0FF3061074FF0000102D40DE0B3
:1045800008F101018846B9420FDA8045F8DB1AF8D4
:1045900008100029F4D108E008F1010188468142A1
:1045A000FADB1AF808100029F6D105985B46A0EB53
:1045B000080721463846179A00F094FA284400EB81
:1045C000080507E04DE029E10DE01AF8010B5A4615
:1045D00017999047B8F10108F7D25B462146384653
:1045E000179A13E142E00A220092C4F302524FF0FC
:1045F000000A022A08D059F804CB032A4FEAEC71CA
:104600000AD00DE029E02AE009F1070121F00702B4
:10461000F2E802C1914609E00FFA8CFC4FEAEC7116
:10462000042A03D14FFA8CFC4FEAEC71002907DA17
:104630000A460021DCF1000C61EB02012D2202E0B0
:10464000220504D52B228DF80420012203E0E20785
:1046500001D02022F7E7904659E00A2102E010221B
:104660000DE010214FF0000A00910BE010224FF0F6
:10467000000A44F004040827009203E008224FF0E7
:10468000000A0092C4F30252022A05D059F804CB62
:104690000021032A08D009E009F1070121F00702EF
:1046A000F2E802C1914605E01FFA8CFC042A01D110
:1046B0000CF0FF0C4FF00008220728D5702806D018
:1046C000009B83F0100353EA0A0305D00EE040225A
:1046D0008DF80420012208E05CEA010206D03022B5
:1046E0008DF804208DF8050002229046009B83F08F
:1046F000080353EA0A030AD15CEA010201D1620706
:1047000005D530228DF804204FF001087F1E58286F
:1047100004D034A003900EA802900DE036A0F9E773
:1047200053466046009AFCF74FF884460398825C33
:104730000298401E029002705CEA0100F0D10298DB
:1047400006A9081A00F1200A600702D524F4803473
:1047500000E00127574502DDA7EB0A0000E000203A
:1047600000EB0A01009005984144401A0590E003CF
:1047700006D45B462146179A059800F0B3F9054424
:10478000002706E001A85A46C05D179990476D1CA6
:104790007F1C4745F6DBE0030CD55B462146179AA4
:1047A000059800F09FF9054404E030205A46179917
:1047B00090476D1C0099481E00900029F5DC08E028
:1047C000029802995A460078491C0291179990471D
:1047D0006D1CBAF10001AAF1010AF1DC65E10000EB
:1047E00009280100303132333435363738396162C7
:1047F000636465660000000030313233343536378B
:1048000038394142434445460000000000F058F961
:104810000544761C307800287FF4ECAD19B02846AA
:10482000BDE8F08F620700D4062709F1070222F0E5
:10483000070CFCE80223E14603F000485FEA080C9D
:1048400002D00FF2702C0DE05FEA045C02D50FF28B
:10485000682C07E05FEAC47C02D00FF2602C01E014
:10486000AFF2700C4FF0FF3823F00043CDF850C08A
:1048700065280CD006DC452809D046281DD04728DD
:104880003DD13DE0662818D067287ED138E0002170
:10489000112F01DB112000E0781CCDE9000106A9F1
:1048A0000EA8FFF7EDFCDDE90F010E9A0391002140
:1048B000009207F1010A04914DE04FF0004000978B
:1048C000CDE9011006A90EA8FFF7DAFCDDE90F0219
:1048D00003920E9B11990022DDF80CA00093049224
:1048E00011B9791C00EB010AB7EB0A0004D4C0F13E
:1048F000FF3007F1010A0490AAEB0700019044E0A1
:10490000012F00DA01270021112F01DD112000E025
:104910003846CDE9000106A90EA8FFF7B1FCDDE994
:104920000F010E9A0391002104910092BA462107CB
:104930000CD40399514500DA8A46BAF1010F05DD1E
:10494000009AAAF10101515C302908D0B84202DA7C
:1049500010F1040F06DA0121CDE9011015E0AAF1EA
:104960000101E9E7002805DC049901440491AAEB60
:10497000000102E0411C514500DD8A460499401ABD
:10498000401C01904FF000400290200704D4019891
:10499000504501DBCDF8048000208DF84F000298CF
:1049A0000DF14F07B0F1004F25D02B200E9002984B
:1049B0004FF0020800280CDA404202902D200E90A1
:1049C00007E00A210298FBF7E9FE3031029007F870
:1049D000011DB8F10001A8F10108F2DC02980028DD
:1049E000EFD1791E0E980870307800F0200040F06A
:1049F000450007F8020D12A8C01B00F10708149823
:104A0000007800B1012000EB0A01019801EBE07190
:104A100005984144401A401E0590E00306D45B46C9
:104A20002146179A059800F05DF80544149800781F
:104A300018B15A46179990476D1CE00324D55B4680
:104A40002146179A059800F04DF805441CE004989B
:104A5000002807DBDDE90301884203DD0098405CA4
:104A6000179901E0179930205A469047049805F1AC
:104A70000105401C04900198401E019004D12E2095
:104A80005A46179990476D1CBAF10001AAF1010A24
:104A9000DDDC05E017F8010B5A46179990476D1CAD
:104AA000B8F10001A8F10108F4DC5B462146179A31
:104AB0000598ABE62D0000002B0000002000000050
:104AC0002DE9F041044600251E461746880404D40B
:104AD00005E039462020B0476D1C641EF9D52846F4
:104AE000BDE8F0812DE9F041044600251E469046C0
:104AF000C80301D5302700E02027880404D505E04D
:104B000041463846B0476D1C641EF9D52846BDE8BD
:104B1000F0810A68531C0B601070704730B500229A
:104B20001346124C03E0C55C55405B1C625D8B4232
:104B3000F9DBD007000E02F0020140EA411002F05A
:104B4000040140EAC10002F0080140EA41000821E6
:104B500001EA52010843042101EAD201084302217B
:104B600001EA5211084340EAD21030BDAB8C000874
:104B700070B51D4E04460D4632461C4BFBF7B8FD82
:104B800008D232461A4B20462946FBF7C9FD01D20E
:104B9000002070BD0022174B20462946FBF7FCFC85
:104BA00002460B4600201449FBF7F6FC0022134B8B
:104BB000FBF77AFC124C00222346FBF7EDFC00F0D9
:104BC00049FB104A104BFBF772FC104A104BFBF7E5
:104BD000E3FC02460B460020214600F0A5FEBDE89E
:104BE0007040FBF7B5BD00003A8C30E28E79453E4F
:104BF0008E7945BE00408F40000014400000F03F19
:104C000000002440DA1B7C613255D03F2CD49AE658
:104C10001DA7E23F70B51D4E04460D4632461C4BA3
:104C2000FBF766FD08D232461A4B20462946FBF7B1
:104C300077FD01D2002070BD0022174B2046294687
:104C4000FBF7AAFC02460B4600201449FBF7A4FC24
:104C50000022134BFBF728FC124C00222346FBF7E3
:104C60009BFC00F0F7FA104A104BFBF720FC104AAF
:104C7000104BFBF791FC02460B460020214600F04A
:104C800053FEBDE87040FBF763BD00003A8C30E294
:104C90008E79453E8E7945BE00408F4000004940E8
:104CA000000034400000244052B81E85EB51F63F0E
:104CB000C3F5285C8FC2DD3F0349024648700221DC
:104CC0000248FCF708BD0000080500200000024073
:104CD00010B586B0022000900120019002900320C0
:104CE000064C039069462046FCF72AFC0448022142
:104CF00042782046FCF7EFFC06B010BD00000240F1
:104D00000805002013B50A23012269460248FEF770
:104D100061F900981CBD0000D405002010B50028E2
:104D200021D0114B0022001F196803E0814203D8F3
:104D30000A4649680029F9D152B11368841A9C4285
:104D400004D1006818441060104602E0506000E092
:104D5000186039B102680B1A934203D10B681A44E8
:104D600002604968416010BD1C05002010B50400B8
:104D700008D0606808B1FFF7D1FF2046FFF7CEFFEB
:104D8000002010BD4FF0FF3010BD10B5040008D05A
:104D9000606808B1FFF7C2FF2046FFF7BFFF0020A1
:104DA00010BD4FF0FF3010BD2DE9F0410E0005465B
:104DB0004FF0000704D01DB1FBF7B8F904460FE02F
:104DC0004FF0FF30BDE8F081287820280CD0324623
:104DD00007A12846FBF7C0F9A41EAD1C0744761CAA
:104DE000002CF1DC3846EDE7641E6D1CF8E700008E
:104DF000253032580000000006488178FF2902D093
:104E00000549097821B100780C2801D301207047A9
:104E100000207047ED0400200900002010B580211B
:104E20000348FCF753FC08B1002010BD012010BD61
:104E300000040240044801784078814201D00120FA
:104E40007047002070470000E80400200448017803
:104E50004078814201D00120704700207047000057
:104E6000D8040020F0B585B04FF40050002401258F
:104E700003268DE8710069460948FCF761FB0220B2
:104E80008DE87100074F69463846FCF759FB202032
:104E90008DE8710069463846FCF752FB05B0F0BD5D
:104EA00000080240000402400349024608704FF423
:104EB00080710248FCF70FBC08050020000002408A
:104EC00030B585B001204FF48074CDE900400290E8
:104ED0000320074D039069462846FCF731FB05483F
:104EE000214602782846FCF7F6FB05B030BD0000ED
:104EF00000000240080500202DE9F04DC84A0024BA
:104F000090B0914205DA21F00043934201D805D1D7
:104F100020B110B0BDE8F04DFFF782B9B1F5801FA8
:104F20001BDA53EA000209D0002911DA0120FFF749
:104F3000A1F910B0BDE8F04DFFF777B90220FFF7F7
:104F400099F9FFF765F910B081F00041BDE8F08DE7
:104F50006FF035043622FBF7BCFD04EB2152C1F3A0
:104F60001308B049A2F2FF33414401F4801282F0E9
:104F70007F6103EB225281F04051009241EA080127
:104F80000022A94BFBF790FA044608F10200A74E55
:104F9000C0F313000D467E44032867D2D6E90023F0
:104FA0002046FBF7A5FB1ED10098002802BFD6E9DA
:104FB000000110B0BDE8F08DFBF75DFB07460C4625
:104FC0009B4A9C4BFBF776FA06460D469A4A9B4B4A
:104FD00038462146FBF76EFA10B032462B46BDE844
:104FE000F04DFBF7C0B94FF05532954B204629469E
:104FF000FBF760FA0022934BFBF759FA06460F467F
:1050000022462B4610461946FBF754FA32463B46D9
:10501000FBF750FA064600980F46F0B1FBF72BFB62
:1050200080468A46824A834BFBF744FA32463B4627
:10503000FBF73DFA22462B46FBF736FA05460C46AF
:105040007D4A7E4B40465146FBF734FA10B02A4663
:105050002346BDE8F04DFBF727BA0B4610B03246A9
:1050600020462946BDE8F04DFBF71EBA00224FF05E
:1050700080432046FBF777F902460B462046294637
:10508000FBF78AFA06460F460098FBF7F4FACDE9DB
:10509000040132463B4610463946FBF70BFA0C90AA
:1050A00069480C9A4044019009910B461046FBF761
:1050B00001FA8246024665488B46C8F151080B4604
:1050C00008F5D72803217844FFF74CF852465B4691
:1050D000FBF7F0F90A905E480D9152465B460421B9
:1050E0007844FFF73FF8099B0C9AFBF7E3F98446F5
:1050F00001980D9B40EA080860460A9AFBF733F9CD
:1051000083460891B8F1000F4EDD4FF0FF32204684
:105110002946FBF7DEFC22462B46FBF7CBF98046FF
:1051200000988A4660B3DDE90401414A414BFBF730
:10513000C1F9099100905A4640465146089BFBF739
:1051400012F932463B46FBF7B5F9099B009AFBF78B
:105150000AF942465346FBF7AAF922462B46FBF7CB
:10516000A3F904460D46DDE90401334A334BFBF74E
:10517000A1F910B022462B46BDE8F04DFBF794B9DB
:105180005A464046089BFBF7EEF832463B46FBF793
:1051900091F942465346FBF78AF910B022462B4656
:1051A000BDE8F04DFBF783B9009840B3DDE9040199
:1051B0001F4A204BFBF77EF980468A465A46204616
:1051C0002946089BFBF770F932463B46FBF772F91C
:1051D00042465346FBF768F922462B46FBF764F933
:1051E00004460D46DDE90401134A144BFBF762F94E
:1051F00010B022462B46BDE8F04DFBF755B90B46E3
:105200005A4620462946FBF74FF932463B46FBF704
:1052100051F910B022462B46BDE8F04DFBF747B9D7
:105220000000F07F645F09000000F03FD63E000000
:10523000763C7935EF39EA3D0000E0FE422EE63F4C
:105240005555D53F0000E03F86EBF9FF6E3D00006D
:105250006C3D00002DE9F0410446304800258142B4
:1052600005DA21F00042824201D805D124B120465E
:10527000BDE8F041FEF7D4BFB1F5801F1BDA52EA5A
:10528000040008D000290FDA0120FEF7F3FFBDE883
:10529000F041FEF7CABF0220FEF7ECFFFEF7B8FFB1
:1052A00081F00041BDE8F0816FF0350536222046DF
:1052B000FBF70FFC044605EB2150A0F2FF32D00FA4
:1052C00040F2FF331B1A0D4663F31F551044FBF7E2
:1052D000D2F906460F4629462046FFF70DFE104A32
:1052E000104BFBF7E7F804460D460F4A0F4B3046CC
:1052F0003946FBF7DFF822462B46FBF734F8054624
:105300000C460B4A0B4B30463946FBF7D3F82A467E
:105310002346BDE8F041FBF726B800000000F07F0F
:105320000EE526157BCBDB3F362BF111F3FE593D05
:1053300000609F501344D33FAEB00026FCF7DEF967
:1053400002F0A0FDE54C00256572FEF7B3FBE448D2
:10535000016841F004010160016801F0040100915D
:10536000016841F020010160016801F02001009115
:10537000016841F001010160016801F00101009143
:10538000016841F002010160006800F00200009035
:10539000FDF7BCFED448D3490C2701604FF4E1313E
:1053A000C0E90115C560C0E904578561C561FDF715
:1053B0004CFD00B1FEE7CC48CC49403001604FF4D1
:1053C0001651C0E90115C560C0E904578561C56182
:1053D000FDF73BFD00B1FEE7FDF764FEC2484FF06C
:1053E00080413838C0E900154FF4FA41C0E9025154
:1053F0000561FDF7E1FA00B1FEE74FF4805000903F
:10540000B94869463838FDF71BFB00B1FEE7B648DE
:10541000289528A938382995FDF7A6FA00B1FEE7A6
:10542000FFF74EFDFFF754FCFDF7F0FEFFF71AFD06
:10543000FEF708FAAC48002227A95838FDF708F80B
:10544000A948002224A95838FDF724F89DF89000B7
:105450009DF892209DF891108DE807009DF89E30F0
:105460009DF89D209DF89F10A1A0FEF72DFE9E485F
:105470003838FDF7D9FA00F0CBF902F069FF0A20BD
:10548000FCF752F8A3A200212820FDF7C9FFDFF89E
:105490008CA29AF800000D287ED000229248A0A18C
:1054A0008030FEF721FE904A002180327820FDF7FF
:1054B000B7FF8D48A27A9BA18030FEF715FE8A4A7D
:1054C000002180320846FDF7ABFFDFF85C82DFF891
:1054D0005C92DFF85CB200BFFFF7ACFC78B18021D2
:1054E00004A802F0D7FC002809DD04A800F0F8FEAB
:1054F000070004D002F0AEF93846FFF737FC98F801
:105500000000474630B1FFF777FC18B13D7010201E
:1055100002F06AFEFFF79AFC78B1802104A802F03D
:105520002DFD002809DD04A801F084FB070004D04C
:1055300002F0D6FB3846FFF728FC7E4F387848B19A
:10554000A07A4D2838D03D704FF49C727A497BA0E8
:10555000FEF7BAFD99F80010484631B105704FF4D6
:10556000A97275497DA0FEF7AFFD9BF80010584663
:1055700089B10570A07A412827D04120A072C2B21B
:10558000594868A18030FEF7AFFD574A00218032AC
:105590000846FDF745FF00E00CE0207810B1A07A46
:1055A000412814D02079C0B1FFF726FCF0B1257155
:1055B000122019E0012271E7FFF71EFC0028C9D074
:1055C0003D700F2002F010FEC4E74D20D6E7FFF734
:1055D00013FC58B125700F2006E0E07830B1FFF7DA
:1055E0000BFC18B1E570112002F0FEFD01F0CEFDBC
:1055F000E07AD0B3E5723C48002227A95838FCF77E
:1056000027FF3948002224A95838FCF743FF9AF8AD
:1056100000000D280ED19DF89D0001280AD19DF8AB
:105620009E00012806D1E07254A002F059FD53A05B
:10563000FEF74AFD9DF89E009DF892309DF891205E
:105640009DF890108DE80F0027489DF89D309DF83B
:105650009F204DA18030FEF747FD234A062180326E
:105660000020FDF7DDFE02F0C7FDE07908B1E5712D
:1056700009E03EB3012E06D0022E08D0032E12D030
:10568000042E1FD113E0FEF78BF902261AE0FFF774
:10569000C5FBB8B12BA8FEF77DF82B98FAF7FCFFF5
:1056A000032620610EE0FEF773F904260AE0FFF7F7
:1056B000B5FB38B12CA8FDF7FBFF2C98FAF7ECFFEF
:1056C00000262062207A20B1257202F02DFF02F020
:1056D0004DFF0A20FBF728FFFEE60000080000202F
:1056E0001C38024000380140D4050020004400402E
:1056F0003230253032642F253032642F2530326429
:105700002F20253032643A253032643A2530326415
:105710000D0A00004E422D496F540000EA0400209B
:105720002564000025630000EB0400200B05002029
:105730000C0500200A050020B08500084E42494FA4
:105740005420494E463A25733A25642C204B45593E
:105750003220646F776E0D0A000000004E42494F00
:105760005420494E463A25733A25642C204B45591E
:105770003320646F776E0D0A0000000041542B4304
:10578000434C4B3F0D0A0000323025303264253047
:10579000326425303264202530326425303264256D
:1057A00030326400F0B50B30154D20F007010024B5
:1057B000144A0FE003688B420BD38B4205D95E1A63
:1057C00043184768C3E9006700E04368136002C0FC
:1057D00004E0021D10680028ECD12046002802D108
:1057E000286808B10020F0BD064A07481060074A43
:1057F000121A22F00702C0E9002401202860D7E72E
:10580000200500201C050020BC0A0020B80C002048
:1058100010B5012208490948FDF78CFB00280AD081
:10582000064890F83930D722054906A0FEF74CFC0F
:1058300013490120087010BDEC040020140600205C
:105840003E8600084E42494F54204552523A257335
:105850003A25642C2073746172742072656376201B
:10586000756172742064617461206572726F722850
:1058700053746174653A202558293D3D0D0A000096
:105880000E0000200B49D1E90232934202D14FF0C1
:10589000FF307047084BD2B29A5C0270CA68521C43
:1058A000CA6000780D2802D14878401C487000205A
:1058B00070470000E8040020880700200448D0E971
:1058C0000210081AFF2801D90120704700207047F4
:1058D000E804002010B50246FFF7F0FF28B10AA047
:1058E000FEF7F2FB4FF0FF3010BD0D490D4C8868FC
:1058F000C3B2401CE25488600D2A02D10878401CD3
:105900000870002010BD00006E62696F742072780C
:10591000206669666F2066756C6C0D0A00000000D9
:10592000E8040020880700202DE9F04D16460F46B8
:1059300094B01C4621F0004123F00042002814BF1F
:105940004FF0010C4FF0000C0CEB470CFE4B0CEB36
:1059500003054FEA630C65452BD3350018BF0125BD
:1059600005EB44051D44F94B9D4222D3F84B52EA06
:10597000060C02D09F4205D148B914B00020194648
:10598000BDE8F08D002808BF4FF0000C01D04FF0AB
:10599000010C0CEB470313F5001F0AD8002E14BFAF
:1059A0004FF0010C4FF0000C0CEB440313F5001FFB
:1059B00007D914B0324623463946BDE8F04DFEF70C
:1059C00032BCDFF890834FF0000A002FB8BF424589
:1059D00023DAE14B9A42A8BF4FF0020A1DDADC4BF2
:1059E00093421ADCDD4B03EB2253142B08DDC3F189
:1059F000340C26FA0CF303FA0CFCB4450DD108E084
:105A00005EB9C3F1140C22FA0CF303FA0CFC9445B2
:105A100003D103F00103C3F1020A51EA00031BD1D1
:105A2000002C19DA002F18BFBAF1020F02D0BAF118
:105A3000010F07D00220FEF71DFC14B0BDE8F04DA9
:105A4000FEF7E6BB0220FEF715FCFEF7E1FB14B003
:105A500081F00041BDE8F08D330070D1424525D181
:105A600007F1804212F5801201BF00280020B849DA
:105A700014B008BFBDE8F08DB548884207DC002CA3
:105A8000A1BF1846214614B0BDE8F08D07E0002CF8
:105A9000BFBF184684F0004114B0BDE8F08DB04996
:105AA0007944D1E9000114B0BDE8F08DDFF8A0C25F
:105AB00062452AD1002C24DA39B1414517D100289A
:105AC00004BF002002461CD106E040B10220FEF7D0
:105AD000D1FBFEF7B0FB0A46394600F0D7BA9D4A23
