:020000040000FA
:060000000215810207B1A8
:03001B000207D405
:03002B000213724B
:0300330002107840
:030043000212277F
:030053000206E2C0
:03005B00020F0091
:03006300020D6E1D
:03006B000210522E
:030073000208314F
:100083000207460101FF01010503010F10FEFF41B5
:1000930020412041204120F71EF11E41201631004E
:1000A3000000007831000000000C0000000C00018B
:1000B300011F001F00FFFF100401010100BD050027
:1000C3000000E803340603E80364006400B8010297
:1000D30002000001000502070101051E02051E02C0
:1000E3000A0A03B80B02803E01020101FFFF0A1452
:1000F30001E09651180002020630313233343536AE
:1001030037383941424344454600286E756C6C20AC
:10011300706F696E74657229003F3F3F0000008075
:100123007F0000803FF9021550B743BA5100E7DB67
:100133002E0000A04010000000080000001215CDA2
:1001430060461215A0603DE9687008F618F618F6C7
:1001530018F622748067F71201740909097480671D
:10016300F7221215A0601D1215CD700519191980FB
:100173001A121401701F121455C37003E667331962
:10018300191940071818182208080874FFF618F6FA
:1001930018F618F622121455601712160C702192D5
:1001A300F01216167019501720F0140808080909E0
:1001B30009E7F61819E7F61819E7F61819E7F6220A
:1001C30012161660E6E869701F0808E62480F60830
:1001D300E436F618547FB47F0CE654806007F6E4E7
:1001E30018F618F622181822E9C6CC08C6CD08C698
:1001F300CE08C6CFC0E0E8C0E0EAC0E0EBC0E0094B
:10020300E9F809E7FA09E7FBE6F918E6F8C3EC9819
:10021300ED99EE9AEBC2E7F5F0EFC2E795F0500ED9
:10022300600CEBCFFBEACEFAE9CDF9E8CCF8EAA211
:10023300E7D2E7FAEB33FB13F5F0EEA2E7D2E7FEE2
:10024300EF33FFC5F013A2E730E601B313C5F0C3E4
:10025300C0E0C0F07F00C39BFB605B9418600C4060
:100263001AD0E023F9D0E0F80203438AF0E94860AA
:1002730003D2F0E4AFF0FAF9F8803BEB30E40D89F8
:10028300F0EA6003D2F0E4AFF0F9CAF8EB30E30D23
:1002930088F0EF6002D2F0AFF0E4CAC9F8EB54077C
:1002A3006014FBC3EA13FAE913F9E813F8EF1350E8
:1002B30002D2E0FFDBEDD0E0C0E030E739C3E49FDA
:1002C300FFF5F0EC98FC42F0ED99FD42F0EE9AFE5A
:1002D30042F0D0E0F9D0E0F8E5F0607AE923F9EEF6
:1002E30020E742D8028067C3EF33FFEC33FCED33E2
:1002F300FDEE33FE80EAEC28FCED39FDEE3AFED04C
:10030300E023F9D0E0F84002801BC3EE13FEED13A7
:10031300FDEC13FCEF135002D2E0FF08B800067F98
:100323007F74FF802EEF3350178CF020F0026010A3
:100333000CBC000C0DBD00080EBE000408E860DF15
:10034300E933E813FFEE2313FE4F4D4C8008E954C5
:1003530080FFE4FEFDFCEE33EF33F47004FCFD7E1E
:1003630080D0E0FBD0E0FAD0E0F8D0E0CFC618CEE2
:10037300C618CDC618CCC6F9221215A070041818D9
:1003830018221215CD700D74FFF61819F61819F608
:100393001819F622E7548066F6121616700F121615
:1003A3000C70F014F608F608F608F680D112160C55
:1003B300700CF608F608768008E6447F80EC121489
:1003C30058700C12140460BFE65480F6E480BB122C
:1003D3001404700519191980A5E869700C763F1883
:1003E300768018F618F6E8F922E6CDC0E018ECC0DE
:1003F300E0E633CD33CDD313F6E719FCE719193310
:10040300CC33C3947F400ECD9D502408E65480F630
:10041300E418F6800FF4043D14501408E6447FF604
:10042300187680E418F618F6D0E0FCD0E0FD22CC74
:10043300D313CCFD18E4C6CBC0E018E4C6CAC0E0B1
:100443000808ED08C633E613F618E433C675F0035F
:10045300C3CA97CA09CB97CB199C40047D08802E49
:10046300BD000302052516B6FF050606081618C3C8
:10047300CA33CACB33CB33CA27CA09CB37CB193CD0
:10048300C37D08803E187D0820E75CC633C6CA33A7
:10049300CACB33CB33DDF1D5F0EB30E77BCA97CA58
:1004A30009CB974ACB199C406F4B7025E620E0217E
:1004B3008066187D08C3CA97CA09CB97CB199CD30A
:1004C300C633C6CA33CACB33CB3350C9DDE7D5F005
:1004D300E1D3E4C636C608C636C608C636C608C65D
:1004E30036C61818188031C3CA97CA09CB97CB19D7
:1004F3009CB34097C633C6CA33CACB33CB33DD3440
:10050300D5F02EC6A2E0C640C8CA27CA09CB371900
:100513004A70BECB3CB480B90808E63308E63360C2
:100523001F181818D0E0FAD0E0FBD0E0FCD0E0FDB3
:1005330022187D08CA27CA09CB37CB193CD3808040
:1005430013F618E4B67F11F618B6FF0EF618C604B4
:1005530070D20808768080CAF618F618F680C500AF
:100563001215A0604F1215CD6012E7548066F61283
:100573001401701112160C703B090909F4F618F6F0
:1005830018F618F6221214557015121616080808D4
:1005930060EAE6447FF618768018E4F618F622122D
:1005A3001616601612160C7012E4F608F608F60812
:1005B300E65480F609090918181822EAC0E0EBC0CE
:1005C300E0ECC0E0EDC0E0E687F0A4FBACF008E6A9
:1005D30087F0A42CFCE435F0FA1809E687F0A42C84
:1005E3004B60027401CA35F0FCE433FB09E687F083
:1005F300D2F7A42CCB35F0FC1908E687F0A42BCC5A
:1006030035F0FBE433FD0819E687F0D2E7A42C4A62
:10061300CB35F0CD3400FC09E687F0D2E7A42DCC2E
:1006230035F0FDE433FA0918E687F0D2F7A42CCDB0
:1006330035F0CA3400FC08E687F0D2E7D2F7A42AE3
:10064300CC35F07A7E20E70B0ACB33CBCD33CDCC40
:1006530033CC33CB3350147004ED30E00ED2F1E4DD
:10066300CD3DCDCC3CCC3B5005DA05C2F1EB547FFC
:10067300C63308E63392F0FBE73309E733C39A50F6
:100683002D2B70190C0D4C4D70151806E608C3334D
:10069300700D20F10AA2F013F6E418800B4024E455
:1006A300F630F002768018F618F618F68024D33B5D
:1006B30014501074FFA2F013F6187680E418F6189D
:1006C300F6800FA2F013F618E63303F618ECF618CB
:1006D300EDF6D0E0FDD0E0FCD0E0FBD0E0FA22C0A4
:1006E300E074F2120C5FA2AFE433FED2AFE5A7FFD2
:1006F300E5A1F5085F54106006122A7375A1EFE5B2
:10070300085F54086008122A7975A1F7802BEFA2BD
:10071300E0C0D0E508A2E092F012152B158182F01B
:100723005017906198E0F8900C53E0C398A2D265FB
:10073300D0335002E8F075A1FEEEA2E092AF7F0144
:10074300020CBEC0E074F2120C5FA2AFE433FED21F
:10075300AF9061A4E0F8759B00E5915854086008D8
:100763007591F7122AC1802AE591585410600875D3
:1007730091EF122AC7801BE8A2E0C0D0E591A2E066
:1007830092F012152B158182F05007E0C2E0F012AF
:100793002C0B9061A3E0F8E5E9585404600E122B8A
:1007A300E175E9FB906193E0A2E640F2808BC0E043
:1007B30074F2120C5FA2AFE433FED2AF9061A5E0F6
:1007C300F8E5BF585404600675BFFB122C230207DB
:1007D3003CC0E0C0D0E8C0E0E9C0E0C082C0839084
:1007E3000C46E064016038E5F9C0E0900BBEE0F828
:1007F300743D28F582740B3400F583D0E0F0900B40
:10080300BDE0F8A3E0687006E595900BC0F0900B8F
:10081300BEE004F0C394804002E4F0A374C6F0D0B9
:1008230083D082D0E0F9D0E0F8D0D0D0E032C0E07D
:1008330074F1120C5F900C41E0F8A3E0687012535E
:100843009AF7A37401F0900C46E0602C122995806E
:1008530027C2EA900C41E0F50874012508F074C141
:100863002508F582740B3400F583E0F5F9900C410B
:10087300E0C394804002E4F07F02020CBEC3E4981C
:10088300F8E499F91208C18026C3E49AFAE49BFBC1
:10089300E920E7E91208C1E498F8E499F922C3E4EE
:1008A30098F8E499F91208C1E498F8E499F9C3E4D3
:1008B3009AFAE49BFB22EB20E7CFE920E7E0B900BB
:1008C30010BB0008E88AF084F8AAF022E4FBC8FA17
:1008D30022EB70227B10C833C8C933C9335007C316
:1008E3009AC3DBF280069A50012ADBEAC833F4C8C4
:1008F300C933F4C9FA2275F008E4C833C8C933C947
:1009030033C99AC99B5004C92AC93BD5F0ECFBC82B
:1009130033F4C8E4C9FA2212095A20F01430E72B41
:1009230074FFFCFBFA747F8022E4FCFBFA74808082
:100933001AB48008BC00F2BB00EF800F50EBF9E45F
:10094300C39AFAE49BFBE49CFCE499C6CC18C6CB9F
:1009530018C6CA18C6F922E4C9C608CAC608CBC64F
:10096300D3330308CCC63392F0C3947F402E94183C
:100973004019C9B90704CACBCC225025C309CA33CD
:10098300CACB33CBCC33CC33D9F422F4600DC9CCEE
:10099300C313CB13CBCA13CAD9F6CC22E4FCFBFA9C
:1009A3002214FCFBFA22080808EAC0E0EBC0E08648
:1009B300F0E7A4FA180986F0E7A42AFA180986F0E2
:1009C300E7A42AFA180986F0E7A42AFA1986F0E7B9
:1009D300A4FBE5F02AFA190886F0E7A42BFBE5F05F
:1009E3003AFA190886F0E7A42BFBE5F03AFA18184F
:1009F3000986F0E7A4C5F02BFBE43AFA1908E7C52A
:100A0300F0C6A426F6E5F03BFBE43AFA1886F0E7D5
:100A1300A4F6E5F00826F6E43B08F6E43A08F6D037
:100A2300E0FBD0E0FA22D083D082ECC0E0EDC0E05E
:100A3300EEC0E0EFC0E0E493A3FCE493A3FDE493F2
:100A4300A3FEE493A3FFEF4E4D4C6015121091ECFF
:100A530024FFFCED34FFFDEE34FFFEEF34FFFF8097
:100A6300E5E493A3FCE493A3FDE493A3FEE493A33F
:100A7300FFEF4E4D4C6015121204EC24FFFCED34D5
:100A8300FFFDEE34FFFEEF34FFFF80E5D0E0FFD043
:100A9300E0FED0E0FDD0E0FCE493A3C0E0E493C02B
:100AA300E022080808E630E71112147E120ABD0896
:100AB3000808C64480C618181822181818E9799E21
:100AC300C608CAC608CBC608CCC6C370207996CA66
:100AD300CBCC7019798ECBCC70137986CC700EF990
:100AE300802ACA33CACB33CBCC33CC331930E7F2A9
:100AF300CCCBCA3350147004EA30E00DE4CA3ACACE
:100B0300CB3BCBCC3CCC500209C3E913C6CC182356
:100B130013C6CB18C6CA18C6F922E4CFC0E0E4CE88
:100B2300C0E0E4CDC0E0E4CCC0E075F020C3E63320
:100B3300F608E633F608E633F608E633F61818182F
:100B4300EC33FCED33FDEE33FEEF33FFC3EC9709DB
:100B5300ED9709EE9709EF97191919400FFFEC97D5
:100B6300FC09ED97FD09EE97FE191906D5F0BEECC9
:100B7300F709EDF709EEF709EFF7191919D0E0FCBA
:100B8300D0E0FDD0E0FED0E0FF222518C582C0E012
:100B9300E51934FFC583C0E0E518C3958224F81036
:100BA300AF08858319858218800885831985821883
:100BB300D2AFCEF0A3E520F0A37808E608F0A3DED9
:100BC300FAEFF0A3E58124FAF8E608F0A3E608F0CB
:100BD300A3E608F0A30808E608F0A3E608F0A315C7
:100BE300811581D0E0FED0E0F8158115811581E8EB
:100BF300C0E0EEC0E0222518C582C0E0E51934FF4D
:100C0300C583C0E0E518C3958224F910AF08858336
:100C1300198582188008858319858218D2AFCEF092
:100C2300A3E520F0A37808E608F0A3DEFAEFF0A32B
:100C3300E58124FBF8E608F0A3E608F0A30808E63C
:100C430008F0A3E608F0A315811581D0E0FED0E0FB
:100C5300F815811581E8C0E0EEC0E022C0D0251868
:100C6300C582C0E0E51934FFC583C0E0E518C3952C
:100C73008224F310AF088583198582188008858341
:100C830019858218D2AFC8F0A3E9F0A3EAF0A3EB69
:100C9300F0A37908E709F0A3D8FAECF0A3EDF0A3E9
:100CA300EEF0A3EFF0A3D0E0F0A3D0E0F0A3D0E008
:100CB300F0A3E520F0A3E5F0F0A3228519838518BE
:100CC30082E0C0E0A3E0F9A3E0FAA3E0FBA3780885
:100CD300E0F608A3DFFAE0FCA3E0FDA3E0FEA3E057
:100CE300FFA3E0C0E0A3E0C0E0A3E0F5D0A3E0F5FC
:100CF30020A3E0A3F5F010AF08858319858218803F
:100D030008858319858218D2AFD082D083D0E0F8CA
:100D1300D0E032121601B90003020D58E49003012A
:100D2300781A79108002F0A3D8FCD9FA90121AAA83
:100D330082AB8390008678BB79018015E493A3ACE2
:100D430082AD838A828B83F0A3AA82AB838C828D4C
:100D530083D8E9D9E77582E275839A74051212EA9A
:100D630075827D75832F74001212EAC0E0C0D0E84B
:100D7300C0E0C008C009C00AC00BC082C083C2DB88
:100D8300C2C490072778081215BEE5084509450A2D
:100D9300450B601590850978081215BE90072778D2
:100DA300081214F243EB108005900C46E4F0D08354
:100DB300D082D00BD00AD009D008D0E0F8D0D0D060
:100DC300E03215000875F0108E1A8F1B85821F857F
:100DD300831E851882851983E0CEA3E0CF851F8209
:100DE300851E83EBC9EAC8EDCBECCAC3E833C8E977
:100DF30033C9EA33CAEB33CBC3EA9EF51DEB9FF548
:100E03001CB35004AB1CAA1DEC33CCED33CDD5F091
:100E1300DAAE1AAF1B221215A0601C1215CD601793
:100E2300121616700712160C7001D322C0D01216B8
:100E33000C7006D0D0B322C32233D0D0501430E08C
:100E4300F6C3E7960809E7960809E7960809E796BF
:100E5300B32220E0D5E6970809E6970809E6970844
:100E630009E697B3221215A0601B1215CD60161266
:100E73001616700712160C600CB322C0D012160C93
:100E83007005D0D022C32233D0D0501330E0EBC34F
:100E9300E7960809E7960809E7960809E7962220E6
:100EA300E0E4E6970809E6970809E6970809E69754
:100EB30022D083D082ECC0E0EDC0E0E493A3FCE455
:100EC30093A3FDED4C600D121013EC24FFFCED34E5
:100ED300FFFD80EFE493A3FCE493A3FDED4C600DD1
:100EE300121189EC24FFFCED34FFFD80EFD0E0FD0F
:100EF300D0E0FCE493A3C0E0E493C0E022C0E0743C
:100F0300F1120C5FC2D8C2C343CB107A008A0874B3
:100F1300212508F58274073400F583E0601AEAC3DB
:100F230033F8E433F9742328F582740739F583E041
:100F33002401F0A3E03400F00AEAC3940240CE7F18
:100F430002020CBED083D082E9C0E0E493A3C3863F
:100F5300F0C5F095F0F908E493A386F0C5F095F099
:100F6300700BE493A3C3994005E9048002A3E475DD
:100F7300F002A42582F582E5F03583F583D0E0F90C
:100F8300E493A3C0E0E493C0E0228519838518822B
:100F9300E0A3FEE0A3F5207808E0A3F608DFFAE07B
:100FA300A3FFE0A3C0E0E0A3C0E0E0A3C0E0E0A3B0
:100FB300C0E0E0A3C0E010AF0885821885831980E4
:100FC30008858218858319D2AFD083D0820212F0AC
:100FD300851983851882E0A3FEE0A3F5207808E055
:100FE300A3F608DFFAE0A3FFE0A3C0E0E0A3C0E0BC
:100FF300E0A3C0E0E0A3C0E010AF088582188583BA
:10100300198008858218858319D2AFD083D08222B4
:10101300C0E0C3E49396087401939618400FE493D9
:1010230066700808740193661870007019A3A3C34F
:10103300E49396087401939618A3A3400DD0E0D0CF
:10104300E0D0E0020EF0A3A3A3A3A3A3D0E022C0A9
:10105300E074F2120C5FA2AFE433FED2AFE58BA2D1
:10106300E0500312294D758B00C2C5EEA2E092AF8A
:101073007F01020CBEC0E0C0D0E8C0E0E5A8D2AF5B
:10108300C2EBA2E792AFD0E0F8D0D0D0E032C0E01C
:10109300C0F088F012146AA8F0400712138BA8F06E
:1010A300701AA3A3A3A312146AA8F0A3A3A3A34033
:1010B30013D0F0D0E0D0E0D0E0020A8FA3A3A3A323
:1010C300A3A3A3A3A3A3D0F0D0E022740480047449
:1010D300028000CCC0E0EDC0E0E518C39CCCAD19A4
:1010E30050011D10AF068C188D1980068C188D19B0
:1010F300D2AF12126CD0E0FDD0E0FC2274F8120BD8
:10110300F974FF1213D5EAFEEBFFEE8518828519F9
:1011130083F07C017D00AA82AB837900122A01EE61
:10112300FAEFFB740112133E7F01020FD3740280A6
:1011330000CCC0E0EDC0E0E518C39CCCAD19500174
:101143001D10AF068C188D1980068C188D19D2AF1F
:1011530012124AD0E0FDD0E0FC221215A060251245
:1011630015CD6020121616700302160C080808E746
:101173006670101819E766700A1819E76670041884
:1011830019E76622F422C0E0C0F088F0E4936670A9
:10119300080874019366187000A8F0A3A3700BD01D
:1011A300F0D0E0D0E0D0E0020EF0A3A3D0F0D0E086
:1011B30022D083D082CCC0E0E493A3600612128DC8
:1011C3001470FAE493A360061213EB1470FAD0E0E0
:1011D300FCE493A3C0E0E493C0E022C008C3E0961C
:1011E300F50808A3E096420808A3E096420808A37E
:1011F300E0964208A2D265D033E5087001D3D00847
:1012030022C0E0C0F088F012138BA8F0A3A3A3A31D
:10121300700BD0F0D0E0D0E0D0E0020A8FA3A3D0CF
:10122300F0D0E022C0E074F2120C5FA2AFE433FE10
:10123300D2AFC2C0E5D1A2E450031229D1EEA2E09D
:1012430092AF7F01020CBECAC0E0E493A3C582CC77
:10125300C582C583CDC583F0A3C582CCC582C583B2
:10126300CDC583DAE5D0E0CA22CAC0E0E0A3C582D7
:10127300CCC582C583CDC583F0A3C582CCC582C549
:1012830083CDC583DAE6D0E0CA22C0E0E493A3D3DA
:101293009C5010E493A3C39C400AD0E0D0E0D0E07C
:1012A3000211D1A3A3A3D0E0227009080808226089
:1012B30016181818C6C333C608C633C608C633C6BD
:1012C30008C633C6D5E0EA22C008C3E096F508088D
:1012D300A3E096420808A3E096420808A3E09645D7
:1012E300087001D3D00822C09FF59FE473D09F22DA
:1012F300D083D082C09FE493C0E0740193C0E074B4
:101303000293F59F227404800A740380067402809A
:10131300027401C0E0F404121323D0E01215DC229E
:101323002518F58210AF08F518400215198008F545
:101333001840021519D2AF85198322C0D025181081
:10134300AF08F518500205198008F5185002051961
:10135300D2AFD0D022BB0102E722C082C0838982F0
:101363008A83BB0003E08002E493D083D08222C04F
:10137300E0C0D0E8C0E0E5A8D2AFC2C7A2E792AF11
:10138300D0E0F8D0D0D0E032E49366701308740153
:101393009366700C08740293667005087403936671
:1013A300226016080808C6C313C618C613C618C693
:1013B30013C618C613C6D5E0EA22C3E0C696F608DC
:1013C300A3E0C696F608A3E0C696F608A3E0C69681
:1013D300F622251810AF08F518400215198008F5F4
:1013E3001840021519D2AF22C0E0E493A36C700930
:1013F300D0E0D0E0D0E00211D1A3A3D0E0221818AE
:1014030018E6084608700AE608C3337005E633F4A5
:10141300220822E76670100809E766700A0809E7E0
:101423006670040809E76622E066701008A3E066A8
:10143300700A08A3E066700408A3E06622C3E0967E
:1014430008A3E09608A3E09608A3E096A2D265D08D
:101453003322191919E7094709700AE709C33370D9
:1014630005E733F4220922C3E493960874019396A3
:101473000874029396087403939622181818E4C309
:1014830096F608E496F608E496F608E496F622C380
:10149300E096F008A3E096F008A3E096F008A3E036
:1014A30096F022E627F60809E637F60809E637F646
:1014B3000809E637F622E026F608A3E036F608A385
:1014C300E036F608A3E036F622E056F008A3E0562D
:1014D300F008A3E056F008A3E056F022700422605F
:1014E3000D18C6C333C608C633C6D5E0F41822E0C8
:1014F30026F008A3E036F008A3E036F008A3E036B0
:10150300F022E056F608A3E056F608A3E056F608E4
:10151300A3E056F622E657F60809E657F60809E669
:1015230057F60809E657F622C0E0E8C0E0E5812453
:10153300FCF8E6A2E7D0E0F8D0E022E647F6080997
:10154300E647F60809E647F60809E647F622C6F431
:10155300C608C6F4C608C6F4C608C6F4C622C3E065
:101563009608A3E09608A3E09608A3E09622C3E7B3
:10157300960809E7960809E7960809E7962275D0C1
:101583000075814075180175190300020D16E6F008
:1015930008A3E6F008A3E6F008A3E6F022E608466F
:1015A30008C3134608336002E633F422600C08C60E
:1015B300C313C618C613C6D5E0F422E0F608A3E0A9
:1015C300F608A3E0F608A3E0F622E7094709C313E8
:1015D3004709336002E733F422CAC0E0E6F0A30808
:1015E300DAFAD0E0FA22EAF0A3EBF0A3ECF0A3EDF1
:1015F300F022E0FAA3E0FBA3E0FCA3E0FD22E5C7B1
:1016030054F84401F5C7790122E7C3331947194751
:10161300194722E6C333184618461846222518F5FB
:1016230082E43519F58322C2AF75D69F02000022EA
:101633001212F364AE021212F398AE021212F35AAC
:10164300B0021212F30FB1021212F38BB102121293
:10165300F3E2B1021212F341B2021212F39FB20289
:101663001212F3C8B2021212F338B3021212F39138
:10167300B3021212F30AB4021212F35FB602121289
:10168300F319B8021212F3C5B8021212F30CBA021C
:101693001212F3AABC021212F3B0BF021212F3BD6C
:1016A300BF021212F34BC0021212F3FDC002121258
:1016B300F345C1021212F3A5C1021212F3C1C10212
:1016C3001212F3F5C1021212F32AC2021212F31319
:1016D300C3021212F3C8C3021212F31DC60212127E
:1016E300F36AC7021212F30DC8021212F39AC80268
:1016F3001212F3D0C8021212F382C9021212F35467
:10170300CA021212F30FCC021212F3AECC0212125F
:10171300F3E2CC021212F35DCD021212F337CE02C2
:101723001212F3FECE021212F343CF021212F35B34
:10173300CF021212F3F2CF021212F363D202121289
:10174300F378D4021212F396D4021212F3B4D40231
:101753001212F38ED5021212F3ACD8021212F30056
:1017630080031212F33580031212F35B800312120B
:10177300F39580031212F3A780031212F3F9800387
:101783001212F35A81031212F3E481031212F38843
:1017930082031212F3D082031212F30A830312128A
:1017A300F32783031212F34C83031212F39E830372
:1017B3001212F3B783031212F3DD83031212F3FC45
:1017C30083031212F33784031212F37B840312127E
:1017D300F3A284031212F3F384031212F3A3850317
:1017E3001212F35B86031212F32387031212F3E33D
:1017F30087031212F32788031212F34C8803121281
:10180300F38F88031212F3DC88031212F3348A0372
:101813001212F3BA8A031212F3D88A031212F302D2
:101823008B031212F31C8B031212F32B8B03121272
:10183300F3368B031212F3F68B031212F34F8C035E
:101843001212F3118D031212F3198D031212F39175
:101853008D031212F3E08D031212F3268E0312127C
:10186300F3678E031212F3F78F031212F3AF900391
:101873001212F31B91031212F34692031212F36B2B
:1018830092031212F37C92031212F3F292031212D6
:10189300F38493031212F3DC93031212F39C940365
:1018A3001212F3BB94031212F3CA95031212F3E854
:1018B30095031212F3FA95031212F34D96031212C3
:1018C300F38A96031212F39796031212F31A9803EC
:1018D3001212F36F99031212F38899031212F3C4CD
:1018E3009A031212F35F9B031212F3989B031212D3
:1018F300F3E49B031212F3009D031212F3499F03B7
:101903001212F3549F031212F35F9F031212F36A2E
:101913009F031212F3749F031212F37F9F03121299
:10192300F3999F031212F3A39F031212F3AD9F03C4
:101933001212F3B89F031212F3E09F031212F33B48
:10194300A0031212F345A0031212F369A0031212AB
:10195300F38DA0031212F3EBA0031212F32FA103D2
:101963001212F34BA1031212F3C2A1031212F3FAE0
:10197300A1031212F346A2031212F3A3A20312123B
:10198300F35DA3031212F341A5031212F39AA50305
:101993001212F3CAA6031212F3F0A6031212F3797A
:1019A300A8031212F3F5AB031212F3C7AD0312121D
:1019B300F390AF031212F33DB0031212F3A8B10375
:1019C3001212F347B2031212F394B2031212F3FE8C
:1019D300B2031212F30DB3031212F394B5031212EE
:1019E300F346B7031212F3B3B7031212F392B80319
:1019F3001212F3ABB9031212F328BB031212F3470B
:101A0300BB031212F39CBB031212F3A1BC03121209
:101A1300F3C9BC031212F321BD031212F300BE0378
:101A23001212F344BE031212F38FBE031212F3FA1F
:101A3300BE031212F33BC0031212F39FC003121230
:101A4300F3EDC1031212F34DC4031212F37EC40368
:101A53001212F336C6031212F38BC6031212F38F5C
:101A6300C7031212F32CC8031212F385C803121210
:101A7300F338C9031212F3DAC9031212F37ACA0351
:101A83001212F31FCB031212F32A85011212F36908
:101A930085011212F3B087011212F3FA87011212B1
:101AA300F31589011212F38589011212F3BA890120
:101AB3001212F32E8B011212F3B18D011212F3DA0B
:101AC3008E011212F3708F011212F3789801121221
:101AD300F30D99011212F3F49B011212F3E79C0127
:101AE3001212F3489D011212F3649E011212F3AA1B
:101AF3009F011212F38CA0011212F371A2011212B0
:101B0300F382A4011212F3ECA4011212F3BEA50195
:101B13001212F375A6011212F37FA6011212F3AD8E
:101B2300A6011212F36AA7011212F341A8011212BD
:101B3300F308A9011212F3BAA9011212F3E3A901DE
:101B43001212F305AA011212F35BAC011212F33362
:101B5300AD011212F377AD011212F3DFAD011212D0
:101B6300F397AE011212F3C9AE011212F30DAF01D6
:101B73001212F343AF011212F38FAF011212F3E407
:101B8300AF011212F3E9AF011212F33CB0011212CA
:101B9300F361B0011212F370B1011212F3D4B10167
:101BA3001212F344B2011212F3D0B2011212F39DD6
:101BB300B5011212F381B6011212F304B801121225
:101BC300F33ABA011212F3E8BA011212F398BB0105
:101BD3001212F3D9BD011212F37CBE011212F3C328
:101BE300BE011212F36FC0011212F383C00112126D
:101BF300F38DC0011212F3B5C0011212F3C1C0017B
:101C03001212F3E0C0011212F3C7C2011212F3FE63
:101C1300C2011212F308C3011212F312C30112120A
:101C2300F36DC3011212F3B7C3011212F3BFC40160
:101C33001212F316C5011212F365C6011212F3A9AB
:101C4300C6011212F351C7011212F334C801121262
:101C5300F3DFC8011212F32BCA011212F329CB01CD
:101C63001212F3CFCB011212F35FCC011212F376EF
:101C7300CC011212F3ADCC011212F3B7CC01121244
:101C8300F3C2CC011212F3E0CC011212F324CD0102
:101C93001212F381CD011212F3A6CD011212F3C079
:101CA300CD011212F34CCE011212F369CF011212BD
:101CB300F3D6CF011212F3BDD0011212F3E4D00117
:101CC3001212F358D1011212F3D3D1011212F3D726
:101CD300D2011212F3CDD3011212F37CD4011212EA
:101CE300F38FD5011212F32BD6011212F3B8D601DA
:101CF3001212F396D7011212F3CED7011212F32662
:101D0300D8011212F3EFD8011212F310D9011212F3
:101D1300F397D9011212F3BBD9011212F3DDD901E2
:101D23001212F326DA011212F33CDC011212F3232E
:101D3300DD011212F3D4DD011212F30AE0011212D3
:101D4300F35AE0011212F39AE0011212F3DCE001FC
:101D53001212F338E1011212F366E1011212F38A4F
:101D6300E1011212F3DDE1011212F30BE20112128F
:101D7300F344E2011212F399E2011212F3FFE201BA
:101D83001212F353E4011212F376E6011212F3E393
:101D9300E6011212F30CE7011212F397E701121294
:101DA300F3FEE7011212F349E8011212F36DE801A1
:101DB3001212F391E8011212F3ECE8011212F30785
:101DC300E9011212F3C0E9011212F3FAE901121246
:101DD300F39AC3041212F3D2C3041212F3F3C3042B
:101DE3001212F335C4041212F39BC4041212F3A5A6
:101DF300C4041212F3B5C4041212F3EAC404121297
:101E0300F333C8041212F3DDC9041212F3DDCB0459
:101E13001212F32C35001212F37235001212F35220
:101E230036001212F35437001212F357380012120D
:101E3300F3E339001212F3413A001212F3FE3A00AF
:101E43001212F31C3C001212F38D3C001212F3C960
:101E53003C001212F3173D001212F3213D0012123F
:101E6300F3653D001212F3C13D001212F35C3E0014
:101E73001212F3D93E001212F3A83F001212F341DB
:101E830040001212F36140001212F3974000121245
:101E9300F3C840001212F38941001212F399410072
:101EA3001212F3ED41001212F30842001212F31A58
:101EB30042001212F32342001212F37D4200121267
:101EC300F3D942001212F32543001212F3404300E8
:101ED3001212F37143001212F38E43001212F39A9B
:101EE30043001212F30E45001212F327450012129B
:101EF300F38E45001212F3A145001212F3AF450011
:101F03001212F36346001212F34747001212F34D05
:101F130048001212F3D748001212F3E148001212DC
:101F2300F34E49001212F36549001212F397490068
:101F33001212F3D049001212F3FA49001212F35BA2
:101F43004A001212F37B4A001212F3994A0012124A
:101F5300F3DF4A001212F3054C001212F3524C0045
:101F63001212F3814C001212F3F74C001212F31FFA
:101F73004D001212F3584D001212F3664D00121267
:101F8300F3BE4D001212F30D4E001212F34C4E002D
:101F93001212F37C4E001212F3A84E001212F3B386
:101FA3004E001212F3D14E001212F3934F0012128D
:101FB300F39D4F001212F3D84F001212F3EE4F00AD
:101FC3001212F34350001212F35750001212F3652A
:101FD30051001212F37851001212F38D51001212B4
:101FE300F32F52001212F3B252001212F370530085
:101FF3001212F37B53001212F3A754001212F3C30D
:1020030054001212F31555001212F3545500121214
:10201300F36955001212F3CB55001212F35A56000E
:102023001212F3A556001212F3F658001212F374AB
:1020330059001212F3E959001212F30B5C00121249
:10204300F3235C001212F3265C001212F3325C00DD
:102053001212F3465C001212F34E5C001212F3816B
:102063005C001212F3315D001212F3A75D0012122D
:10207300F31A5E001212F3CE5E001212F3835F00B6
:102083001212F3A25F001212F34260001212F34E17
:1020930060001212F37960001212F37C60001212D6
:1020A300F3E660001212F30E62001212F3E662000E
:1020B3001212F37163001212F38A64001212F347CF
:1020C30065001212F38065001212F3B1650012125B
:1020D300F36F66001212F39F66001212F37A670021
:1020E3001212F31368001212F39E68001212F34FD8
:1020F30069001212F3D269001212F3046A00121279
:10210300F3456A001212F3C4A5041212F329A604BC
:102113001212F366A6041212F3B5A6041212F3CB3D
:10212300A8041212F3AEAA041212F318AE04121288
:10213300F353AE041212F375AE041212F3D8AE04C5
:102143001212F30CAF041212F32FAF041212F35C4A
:10215300AF041212F3B8AF041212F3DFF302121238
:10216300F35DF4021212F393F4021212F3FFF4027A
:102173001212F372F6021212F38EF6021212F3D354
:10218300F6021212F361F7021212F3BAF7021212F5
:10219300F3E7F8021212F3F9F9021212F356FA02F4
:1021A3001212F3C2FA021212F323FB021212F364A5
:1021B300FB021212F311FC021212F323FD0212129C
:1021C300F34EFD021212F399FD021212F3E0FD0227
:1021D3001212F372FE021212F371A7021212F3D358
:1021E300D3041212F3ADD5041212F3C4D60412129F
:1021F300F3AAD7041212F3DFD9041212F332DA046A
:102203001212F381DA041212F3BADA041212F393FC
:10221300A7051212F3E4A7051212F3E7E80412125A
:10222300F305E9041212F30BE9041212F395E9041E
:102233001212F3D7E9041212F3C7EA041212F35588
:10224300EC041212F317ED041212F36FED041212E1
:10225300F3B7ED041212F321EE041212F331AE02BE
:102263001212F3C4EE041212F322EF041212F31942
:10227300E2041212F365E2041212F3D3E20412121F
:10228300F3F4E2041212F3A4E3041212F3ADE30431
:102293001212F300E4041212F329E4041212F3906D
:1022A300E4041212F321E5041212F363E50412129B
:1022B300F3ADE5041212F30CE6041212F338E6044C
:1022C3001212F3C9E6041212F308E7041212F347D9
:1022D300E7041212F37CE7041212F38EE7041212DE
:1022E300F3A0E7041212F3BFE7041212F3C8E704E2
:1022F3001212F37EE8041212F3BEE8041212F3DFA3
:10230300A4051212F3B098051212F3E698051212FF
:10231300F32F99051212F37F9A051212F37A6A00CA
:102323001212F3B96B001212F3F56B001212F3B42D
:102333006D001212F3DD6D001212F37070001212B1
:10234300F3B470001212F33D72001212F3D572004F
:102353001212F33D73001212F3DE73001212F32014
:1023630074001212F36074001212F3EB7500121270
:10237300F35B77001212F38079001212F3AE790047
:102383001212F3D579001212F3DE79001212F33927
:102393007A001212F3CC7A001212F3EA7D001212C1
:1023A300F3DFA9051212F3F5A9051212F30EA8051E
:1023B3001212F3B08A051212F3C38A051212F360E4
:1023C3008B051212F39B8B051212F3B68B051212B7
:1023D300F3DB8B051212F3208C051212F3518C05DB
:1023E3001212F3828C051212F3088E051212F3B245
:1023F300A5051212F3E8A5051212F304A60512129D
:10240300F346A6051212F356A6051212F31A800517
:102413001212F3B080051212F3D881051212F39150
:1024230083051212F3158E051212F3E58E051212AF
:10243300F33690051212F35890051212F3799005B2
:102443001212F30EDB041212F30080041212F3557E
:1024530080041212F3F280041212F30082041212A7
:10246300F3AF82041212F38183041212F3968304EE
:102473001212F3E083041212F32F84041212F38B6B
:1024830084041212F39E84041212F3F984041212C8
:10249300F30D85041212F32387041212F324880424
:1024A3001212F35F88041212F30E89041212F30A54
:1024B3008B041212F37A8B041212F3078C04121298
:1024C300F3168C041212F3298C041212F3788C0481
:1024D3001212F38E8C041212F3A58C041212F3D48D
:1024E3008C041212F3E68C041212F3BC8D04121244
:1024F300F3168E041212F3648E041212F3898F04FE
:102503001212F3AB8F041212F33992041212F36E08
:1025130092041212F30293041212F37A9304121226
:10252300F3A393041212F3DF93041212F33E940401
:102533001212F30E95041212F34295041212F34C85
:1025430095041212F35C95041212F3D99504121236
:10255300F30196041212F32396041212F34F960416
:102563001212F38A96041212F39996041212F3A428
:1025730096041212F3E596041212F3EDA305121258
:10258300F3FEA3051212F386A4051212F38FCC04F3
:102593001212F3DECC041212F380CE041212F33CB7
:1025A300D0041212F384D0041212F36CD104121269
:1025B300F39DD2041212F3BFD2041212F31BD304FD
:1025C3001212F39FD3041212F3CAD8021212F3F8B1
:1025D300D8021212F343DA021212F3C1DA02121210
:1025E300F33DDB021212F3A6DB021212F3E9DB0264
:1025F3001212F375DC021212F31BDD021212F3A79F
:10260300DD021212F3E9DD021212F332E2021212B8
:10261300F3B1E3021212F386E4021212F3B5E402F9
:102623001212F3E7E6021212F367E9021212F32021
:10263300EA021212F33DEB021212F394EE021212AB
:10264300F3A4EE021212F311F0021212F39DF00240
:102653001212F3D5F1021212F3BCF2021212F34773
:10266300F3021212F31E97041212F3D897041212F4
:10267300F34A98041212F3E698041212F3569904DB
:102683001212F33A9C041212F3119D041212F37EF8
:102693009D041212F3FB9E041212F3C59F0412123F
:1026A300F335A0041212F3FEA1041212F311A304D2
:1026B3001212F3AAA3041212F370A4041212F36BFE
:1026C300CB031212F3EACB031212F34DCC03121213
:1026D300F3A1CC031212F3DBCC031212F378CD0374
:1026E3001212F3A3CE031212F3EDCE031212F37BF5
:1026F300CF031212F3C6CF031212F306D003121242
:10270300F399D0031212F3E9D0031212F34FD20359
:102713001212F3C2D2031212F324D3031212F3CA16
:10272300D3031212F31ED4031212F393D40312121F
:10273300F3C7D4031212F316D5031212F368D503A9
:102743001212F34ED6031212F3B7D6031212F3A7E3
:10275300D7031212F365D9031212F381D9031212AC
:10276300F3A4D9031212F3EED9031212F3D3DA034B
:102773001212F357DB031212F399DB031212F30065
:10278300DC031212F3BEDC031212F3FCDC0312129D
:10279300F30DDD031212F3C4DD031212F3FBDD03A9
:1027A3001212F367DE031212F398DE031212F35DC3
:1027B300DF031212F37DDF031212F394DF0312120D
:1027C300F3D6DF031212F31EE0031212F366E003E3
:1027D3001212F3B8E0031212F378E1031212F38634
:1027E300E2031212F3A1E2031212F3ECE203121258
:1027F300F3AEE3031212F3A5E4031212F394E70317
:102803001212F3F0E7031212F314E8031212F32B7C
:10281300E8031212F3B1E8031212F331E9031212BF
:10282300F36AEA031212F36FEA031212F3F1EA03F3
:102833001212F356EB031212F39AEB031212F34A3A
:10284300EC031212F3FCED031212F39EEE031212C9
:10285300F3B3EF031212F381F0031212F3BDF1038A
:102863001212F3ECF1031212F3C6F2031212F391F4
:10287300F3031212F3EAF3031212F302F403121234
:10288300F3F8F4031212F3B3F5031212F36891058C
:102893001212F3A991051212F36392051212F3C9EE
:1028A30092051212F35793051212F35C9B05121251
:1028B300F304B0041212F3A3B0041212F398B10498
:1028C3001212F35EB2041212F377B3041212F3017D
:1028D300B4041212F376B5041212F355B7041212AC
:1028E300F31EB9041212F38BB9041212F392A90561
:1028F3001212F3A3A9051212F36B7E001212F379DD
:102903007E001212F31DAA051212F300A70512127C
:10291300F310A7051212F328A7051212F389A705CE
:102923001212F3EBA2051212F370A3051212F3D4E1
:10293300A3051212F3E7A1051212F303A205121263
:10294300F35CA2051212F367A2051212F3C7A205E4
:102953001212F34687051212F35487051212F3CEAF
:1029630087051212F3B288051212F36B8A0512124D
:10297300F3BDA9051212F3E8A8051212F304A90581
:102983001212F316A9051212F31BA9051212F388EA
:10299300FF041212F39EFF041212F3A9FF04121292
:1029A300F3C1FF041212F3DBFF041212F3E4FF047A
:1029B3001212F3D1B9041212F33EBA041212F3360F
:1029C300BC041212F328BD041212F385BE041212C2
:1029D300F3E1BE041212F332BF041212F3DFC00498
:1029E3001212F330C1041212F3D8C1041212F3729B
:1029F300C2041212F390C2041212F3ADC2041212F3
:102A0300F325C3041212F344C3041212F351C30493
:102A13001212F3AFEF041212F304F0041212F300D4
:102A2300F2041212F332F2041212F354F2041212E9
:102A3300F36DF2041212F386F2041212F390F3040C
:102A43001212F32BF4041212F3E89C051212F30C86
:102A53009D051212F3259D051212F3589D051212BE
:102A6300F3899D051212F3B79D051212F3199E0502
:102A73001212F3289E051212F3329E051212F33F2F
:102A83009E051212F3F8FC041212F31EFD04121237
:102A9300F35BFD041212F36AFD041212F389FD04C1
:102AA3001212F3F1FD041212F3FAFD041212F35998
:102AB300FE041212F37DFE041212F33CFF04121201
:102AC300F349FF041212F35AFF041212F329A90562
:102AD3001212F346A9051212F3A2F4041212F30020
:102AE300F6041212F30DF6041212F320F604121276
:102AF300F33FF6041212F355F6041212F369F604C7
:102B03001212F3DEF6041212F343F7041212F3F374
:102B1300F7041212F3C8F8041212F3D8F8041212CD
:102B2300F3E7F8041212F365FF011212F389FF01B0
:102B33001212F3B1FF011212F3D9FF011212F3EDD6
:102B430093051212F31494051212F335940512121D
:102B5300F39A94051212F35396051212F36C960529
:102B63001212F37896051212F38C96051212F3AA39
:102B730096051212F3B496051212F3BE96051212BD
:102B8300F3D196051212F32497051212F35D9705FC
:102B93001212F38C97051212F3DA97051212F32926
:102BA30098051212F34498051212F34E9805121267
:102BB300F35F98051212F3A598051212F3A4FF020E
:102BC3001212F364F6031212F38EF6031212F3AA2F
:102BD300F6031212F3BDF6031212F3D3F603121225
:102BE300F330F7031212F363F7031212F39FFB039D
:102BF3001212F3C5FC031212F3F8FC031212F3448E
:102C0300FD031212F370FE031212F398FE03121265
:102C1300F3ADFE031212F3BDFE031212F301FF0321
:102C23001212F362FF031212F372FF031212F3A1E3
:102C33009F051212F3BC9F051212F3E59F051212B2
:102C4300F3FF9F051212F324A0051212F343A0050C
:102C53001212F35BA0051212F389A0051212F3A35B
:102C6300A0051212F3A4A8051212F3C683051212CB
:102C7300F3CD83051212F3D984051212F3098505E6
:102C83001212F32F85051212F35285051212F374F3
:102C930085051212F3AE85051212F314860512127E
:102CA300F34D86051212F39986051212F3C68605B3
:102CB3001212F3E686051212F3499E051212F36B04
:102CC3009E051212F39B9F051212F39E9F0512128B
:102CD300F3D4A0051212F346A1051212F384A10541
:102CE3001212F3C5A1051212F320F9041212F33FD5
:102CF300F9041212F38EF9041212F3AAF904121250
:102D0300F3DBF9041212F3EBF9041212F3F8F904EA
:102D13001212F305FA041212F3F1FA041212F32F4A
:102D2300FB041212F339FB041212F349FC041212CE
:102D3300F354FC041212F366FC041212F36FFC0446
:102D43001212F379FC041212F393FA011212F3D85C
:102D5300FE011212F3F4FE011212F35EA805121221
:102D6300F365A9051212F3A0FF031212F3B1FF03D7
:102D73001212F360A6051212F38AA6051212F3FFCC
:102D8300A9051212F344EA011212F362EF011212BF
:102D9300F3E3A6021212F3B8A6021212F370A6020C
:102DA3001212F3B7A4021212F337A4021212F3346D
:102DB300A4021212F31AA4021212F3E9A3021212CA
:102DC300F3D0A3021212F3B6A3021212F38AA302E0
:102DD3001212F366A3021212F3CAAD021212F3BA6D
:102DE300AD021212F3A6A2021212F31CA2021212D5
:102DF300F3A3AD021212F393AD021212F3DAA1029E
:102E03001212F3B2A1021212F32EA1021212F3F85C
:102E13009F021212F3489F021212F3AB9E02121288
:102E2300F3A19D021212F34E9D021212F31C9D0296
:102E33001212F3599C021212F3849A021212F3151E
:102E43009A021212F3E799021212F3B999021212BB
:102E5300F3B699021212F3B399021212F3A0990274
:102E63001212F32D98021212F32898021212F32E63
:102E730097021212F32197021212F383AD02121278
:102E8300F36CAD021212F35CAD021212F34CAD02FD
:102E93001212F31DAC021212F3EB95021212F32F6E
:102EA30095021212F3A594021212F337AB02121217
:102EB300F3AB93021212F30793021212F34E920230
:102EC3001212F31192021212F394AA021212F3696C
:102ED300EE041212F36E91021212F3CC900212124C
:102EE300F34F90021212F3BE8F021212F3AD8F0250
:102EF3001212F31A8F021212F3E48E021212F38BE0
:102F03008E021212F3418E021212F3E28D0212129A
:102F1300F3B18D021212F3798A021212F3338A0289
:102F23001212F3278A021212F38789021212F3C7CD
:102F330088021212F34086021212F3D18302121294
:102F4300F38F83021212F36382021212F3008002E0
:102F53001212F31882021212F35DA8021212F35432
:102F630081021212F32781021212F36A80021212F3
:102F7300F33A80021212F32DFF0200000080FBE4FB
:102F8300738F000100C70687000100C606240002F4
:102F9300005E122500020060122600020062122762
:102FA3000002006412280001006612290001006774
:102FB30012840004006812860001006C122A0001CA
:102FC300006D122B0001006E122C00010072122DF5
:102FD300000800B2062E00010073122F00010074D6
:102FE3001230000100751231000100761232000127
:102FF30000BA0633000100BB063400010077123625
:10300300000100BC0638000100781239000100718C
:103013001283000200831263000100811264000125
:10302300006F126500010070126D00010082126EC4
:10303300000200B006430001007912440002007A46
:1030430012450001007C12460002007D1247000871
:1030530000BE06480001007F124B000100801204ED
:103063000001008512A100010088123700010087CA
:10307300128800010086123C000100BD060000001A
:1030830000000000013636010100010201000103C6
:1030930001000104010606050200000701003408CF
:1030A30001000F090401010D0100FF0E08000017C4
:1030B300020000190100FF1A0100011B0100FE1CA0
:1030C3000100081D0200001F010001200100012171
:1030D3000200002301000F24020000260100012743
:1030E300010008280200FF2A0100072B0102402CDF
:1030F3000100002D0100012E0100012F0100FF300E
:10310300010B1C310800003A0100083B01000F2F9E
:1031130001000003007100300160001100700031F4
:1031230002200350048000100061000000140063BB
:1031330000730072006200430000001300060000E9
:103143000000000400120000000000000000000462
:10315300000400370037003C024400000000000078
:10316300000000650000003500810000000500003C
:103173000083000000010371030103010301030144
:1031830003010322030203010310030003000300EE
:1031930003000300030003000342030003240306A8
:1031A300030003000304031203250323032503235E
:1031B30003040304030003000300034403000300A8
:1031C3000323030003650321003503810300030583
:1031D3000300030003000301017101010101011157
:1031E3000101013101010101018001100161013B74
:1031F30000140063017301720162014301000113B2
:103203000106013D01350004011201000100010026
:1032130001000104010401330133013C0144013283
:103223000136000001000165010001350081010044
:103233000105018201830100010302710230016073
:1032430002110270020102020202028002100261F4
:10325300023A0041006302730272026202430200F7
:1032630002130238000002000204021202000200EC
:10327300020002000204020402370037003C024449
:1032830002000239000002000265020002350281D9
:103293000200020502820283020002030471040297
:1032A3000460041104700402040204010402041003
:1032B3000461040004140463047304720462044389
:1032C30004000413040604000400040404120400AC
:1032D300040004000400045104640000040004001A
:1032E30004440400040004000400046504000435DD
:1032F300048104640005040004830400043600010F
:1033030000060000000F00000000000000000000A5
:1033130000000003FFFF00000403FFFF0000FFFFA6
:103323000FF4010005C4040320000100000B00009A
:1033330000000000000003010F00007D2613001DA4
:103343002601007D260200E7250300ED250400F396
:10335300250500F92506000526FFFF000001D11A07
:1033630006071B08011B0B1F1B104D1A02D71A055A
:10337300F51A07DD1A0CB31A0DC51AFF000003EA8C
:10338300F5E5D5D5C5B5A59595858575756565555A
:1033930055454535352525151505511F811F571FE2
:1033A3005D1F7B1F6F1F691F871F8D1F931F9F1F2C
:1033B300631F4B1F451F00160F00000B150B020068
:1033C30002220F320000065A6967426565416C6C40
:1033D30069616E636530394E65774C616E64204573
:1033E3004455202020011000000000000000008947
:1033F30067452301EFCDAB4120532059201B1F5FAD
:1034030020151F211FA120BF20C520A720B320AD59
:1034130020551E4F1E8B1E911E851E3D1E303017DC
:10342300181921301B1D1F30000119161816161507
:10343300230300303016181920231A1C1E300C0EDB
:10344300020B040B0A0708000F00034948424D18FA
:103453001725050200383C3E363B3B352B432C7584
:103463001F991FB920A51FAB1F952065206B2077DF
:10347300207120020402010101010902611E671E7D
:103483005B1E971E6D1E7F1E00BE040A0E00040005
:103493007F00E8030000000028000C00100C0A0362
:1034A300080900040009FF1E1E0301040C10080F85
:1034B300058882898312384E22125489F9EA2290B0
:1034C3000413125489FB121E7922E0F508E4F5096E
:1034D300F50AF50B227401F0900C6BE0640F227473
:1034E3000912133E7F04020F8DEE2412FAEF34000B
:1034F300FB12201DE92212133E7F06020F8D790570
:10350300122029740422A3A3E024F5C394122212E7
:103513002A5B8A0C8B0D8C0E8D0F22122101900CCD
:103523008B125D257A147B0022C082C08390041322
:103533001252296009900413125484122317900421
:10354300101249F17408F0A3E4F0A3F090047FF0A3
:10355300900415F07C0BFDF97A167B0412227B7C18
:103563000B7D0079007A217B0412227B02495E7471
:10357300F1120B8D74F71213D5EAFEEBFF12417FA4
:103583007405124BFD7403F0EE24020A0AEF3400B3
:103593001236332421FCEF3400FD8C828D83E088C6
:1035A30082898312363E600BEE241F12418274FF20
:1035B300F0A3F0EE241FEF34001C1CFD8C828D83DE
:1035C300A3E0C0E01248BBD0E012363E8882898374
:1035D300124F837403F0EE2417F508EF12660BAC59
:1035E30008FD851882851983AA82AB83122CE374A4
:1035F300081216207403F0EE24221265DD12130C58
:103603007C0B7D00AA08AB091261E712133E900CF4
:10361300801210D27402121620AC82AD831259C6E6
:1036230012133EE97007EEFAEFFB121F0F02665307
:10363300FB12364AE8F0A3E9F0EE22F012364AE82C
:10364300F0A31269C1E0221237178A828B83227496
:10365300F0120B8DEAFEEBFF8C088D09890A7410BA
:103663001216201266107412121620126A3FEE24EC
:10367300020A0AEF3400FB123717850F0DE50D8898
:10368300828983123741E50E123741E50A12373337
:10369300900C8512372E900C8412372EED12372F93
:1036A300EC88828983F0E8FC8A828B83E0C39C8E5A
:1036B300828F83A3A3A3A3125E1412554E8508829F
:1036C300850983A3A3A3A3A3A3A3A3E06403700512
:1036D300123725800412417FE4124BFD7409F07503
:1036E3000C16750D04750E00780C12130C1253533F
:1036F30012133E750CFF750DFF780C121310AC08F6
:10370300AD091259C612133EE97007EEFAEFFB1228
:103713001F0F80388A828B83E024FFF8A3E034FFF5
:10372300F922EE240E125F7B740122E088828983E2
:1037330012373722F0E824FF18E934FFF922123751
:10374300378882898322123C8712133E7F08020F37
:103753008D74F0120B8DEAFEEBFF890B8C0E8D0F2F
:10376300750A00A2AFE433F50CC2AF90042C803588
:10377300123832502D12383F6403702612589C853C
:103783000882850983A3A3E02405FCA3E03400FD9C
:10379300EEFAEFFB122CE31258A57410250AF50A72
:1037A300150B12481412650EE50B6006E508450972
:1037B30070BEE50CA2E092AFA2AFE433F50CC2AF4A
:1037C30090042C80222402F8E50912665FFAE9FBD3
:1037D3008A828B83125F6C1258D61248BB1258D65A
:1037E300050A150B124814124825602512383F6448
:1037F3000270F1123832E50840CB12463FE5091258
:10380300382C50E0850E82850F837401F0E50B7030
:10381300D3E50CA2E092AF8E828F83E50AF0EE240B
:10382300FFFAEF34FFFB02374F123C10A2E522E50B
:10383300081258BEE509123C10A2E62285088285CB
:103843000983A3A31248C312384E22A3E0131354CF
:103853003F54032274ED120B8D74F61213D58912A3
:103863008A108B0F851882851983E4F0900432E067
:10387300C3940840057511078003E0F511E5113382
:10388300333354F8900C6AF8E0282433F50A1252C3
:103893009B70030239CBEA250AF8EB3400F9EA24DA
:1038A30002F50AEB3400F50B850A82F58312554EB7
:1038B300900C6AE0FCFAC3E49AFA95E0FBE82AFE6E
:1038C300E93BFF900C681258C3750E00780C121375
:1038D3000C7D00EEFAEFFB1261E712133E851882AE
:1038E300851983AC82AD83A911EE24FFFAEF34FF6F
:1038F300FB121E258A0C8B0DAE0CAF0D8E828F83AF
:10390300E41258E0E50FC454F0F9900480E0C433A6
:103913003354C0F8900C64E0A2E0E4331313484935
:10392300440F1258DCE510C454F045128E828F8385
:10393300F0EEF8850A82850B83E0C39885088285BB
:103943000983A3A3A3A3F0850A82850B83EEF0A3C7
:10395300EFF0E508240E1239D9E508240D1239D900
:103963007409121620E4F0750C21750D04780C12FD
:10397300130C7C0B7D00E5082417FAE50912535C50
:1039830012133E851882851983E0600EE508240E24
:10399300F582E509124032D2E3F0E4F50AF50B783B
:1039A3000A1213107403121620AE82AF8312200B77
:1039B300EEFCEFFDAA08AB091259CC12133EE9AA9B
:1039C30008AB0960071222937A007B00740A121372
:1039D3003E7F0B020F8DF582E509125F7EE4F02234
:1039E30074F3120B8D8A0A8B0BA2AFE433F50CC26E
:1039F300AF75080075090090042C8026123C165000
:103A03001E850A82850B83A3A3126A3F12547E127A
:103A13002011E9600A123C06C2E6F08E088F0912F3
:103A23003BF6123E5470D5E50845096006123AF399
:103A3300D2E6F0E50CA2E092AF7F05020F8D74F0A1
:103A4300120B8DEAFEEBFF8C0C8D0D750E00A2AFF1
:103A5300E433F50FC2AF75080075090090042C809C
:103A630024850A08850B09123AF3D2E4F0E508121B
:103A7300463FE509124032D2E7F0E50A24FBF5821E
:103A8300E50B1266411265C5E50A450B604BE50A75
:103A93001258BEE50B124032A2E750DE850A82853A
:103AA3000B83A3A31210D2AC0CAD0DEEFAEFFB12F5
:103AB3002017740212133EE960C0E508450960A1AE
:103AC300E508240DF582E509123E4E700C85088247
:103AD300850983125EA2D2E4F0E50FA2E092AFE57E
:103AE3000845096006121F09750E01A90E02374F1A
:103AF300E5081258BEE509123C102274F2120B8D30
:103B030074FE1213D5750C00750D00851882851986
:103B130083E4F0A3F0A2AF33F50AC2AF90042C12F2
:103B230065CD802FEE24FBF582EF34FF124BEB12B1
:103B33001310123BE812133EEEFCEFFD851882854D
:103B43001983AA82AB831222ABAE08AF0990043269
:103B5300E014F0EE4F6025123C165017EE240B12C2
:103B63003C0024FFF0A3E034FFF0888289831252E3
:103B73002960B18E0C8F0D123BF680A3E50AA2E0FB
:103B830092AF900432E0602C900C6BE0640F6006FF
:103B930090047FE0701E7A0A7B041221019084F165
:103BA3001210CE7A0A7B04123C8712133E800574EE
:103BB300F01248D0851882851983AA82AB8312221A
:103BC300B18A088B09AE08AF09EE4F6013121E319C
:103BD300123C06A2E28E828F83A350D374E980D174
:103BE30074020234F9EEFCEFFD7A2C7B041222BD41
:103BF300740222EE24FBF582EF12664122F8EF12E3
:103C030065FE22123C0A22EE2410F582EF3400F501
:103C130083E022123C0AA2E72274F7120B8DEAFE1C
:103C2300EBFF121E319012301248BF122F82E9644B
:103C330001900C87700AE02401F8A3E034008004AB
:103C4300E0F8A3E0F9EE240B12418212554E9004E2
:103C530032E0701F900C6BE0640F70177A0A7B04DC
:103C63001221019084F11210CE7A0A7B04123C8750
:103C730012133EE5A8F8C2AF900432E004F0E8A2C4
:103C8300E70255101220F574042274F7120B8DEA23
:103C9300FEEBFF123CC3F0121E31EEFCEFFD7A2C5B
:103CA3007B041222B7E5A8F8C2AF9004321244F79E
:103CB300900C6BE0640F70057908121FC3024DB9B5
:103CC300123C0AC2E42274F7120B8D74EA1213D564
:103CD300EAFEEBFF900C64E060358518828519835A
:103CE3007401F0121620E4123D59121620AA82AB79
:103CF30083122CE38E828F83125EA2C0E0740A12B9
:103D03001620D0E0125C01740B121620124F4C7473
:103D130016024214C082C083121E1902495E74F750
:103D2300120B8D74EB1213D5EAFEEBFF8518828517
:103D330019837406123D59121620AA82AB83122CE2
:103D4300E3EE2407FCEF3400FD740A121620124F31
:103D53004C7415024214F0EE2412FCEF3400FD748F
:103D6300022274F7120B8D74F71213D5EAFEEBFFE0
:103D7300EE242112402F60411259D28518828519F1
:103D830083AA82AB83122CE374081216207403F007
:103D9300900C801210D2EE241F1241821210D29086
:103DA3000C93E0F97404121620AC82AD83EEFAEFA3
:103DB300FB121E1F740412133E740902421474F2A0
:103DC300120B8D8A088B09750A00750B00750CE7B9
:103DD300A2AFE433F50DC2AF90042C80078E0A8F97
:103DE3000B123BF6123E54602B123C1650EF123E60
:103DF3004870EAEE242E123E408A828B83A3A3E00E
:103E03006870DA780A121310123BE812133E90041A
:103E130032E014F0E50DA2E092AFEE4F6013EEFA3C
:103E2300EFFB121E3179F0EEFAEFFB121FC9750C8E
:103E330000A90CAA08AB09121FC90234FCF582EFD2
:103E4300123C10F822EE240DF582EF123C106401AF
:103E530022E0FEA3E0FFEE4F2274F4120B8D74F701
:103E63001213D5EAFEEBFF121E73E9F508704AEE52
:103E7300240E12402F60427A007909121EBBEA4BCE
:103E830060377408121620123ECC1210D27508FF48
:103E93007509FF78081213108E828F83A3A3A3A33F
:103EA300A3A3A3A3E0F97404121620AC82AD83127A
:103EB3001E1F740412133E800D8E828F83A3E508A8
:103EC300124091121E7F0234E2740212662C74FFB8
:103ED300F0A31262002274F1120B8DEAFEEBFF7560
:103EE30008008E828F83A3A3A3A3A3A31235094043
:103EF300037508E88E828F83A3A3A3A3A3A3A3A31D
:103F0300A3A3E0C3941040057508E880138E828F45
:103F130083A3A3A3A3A3A3A3A3A3A3E0640F600BFF
:103F230090045CE0540870037508E8EE240B123E1D
:103F3300408E828F83A3A3A3A3A3A3A3A3A3A3E0DE
:103F4300C398500DEE240B12402F640F60037508C5
:103F5300E8900C84E0F47003A3E0F470037508ECBC
:103F63007A237B00122311900413126669900413C1
:103F730012522960288E828F83A3A3A982AA8389E0
:103F83000C8A0D750E00780C12130C7C237D0090A7
:103F930004131254841261E712133E800375081A46
:103FA300A90802665874F5120B8DEAFEEBFF8E82A8
:103FB3008F83A3A3A3A3A3A3A3A3E0900C6B126279
:103FC30006900C86F0EE240B12402F900C661261C3
:103FD300FCA3A3A3A3E0900480F0F9122B6990043F
:103FE30080E0600CEE2404124BD7EE240612403618
:103FF30090047F1234D8600474018001E4900415A6
:10400300F0EE240D1261F012130C7C0B7D007A1676
:104013007B041261E712133EEE2418124E041213AE
:104023000C7C0B7D007A217B04024A50F582EF124F
:104033003C1022FAEF3400FB79E1122B512274F782
:10404300120B8DEAFEEBFF8E828F83A3E0700312C7
:1040530034C28E828F83742C125DA0024DB974F723
:10406300120B8DEAFEEBFF9004131252296010909D
:104073000413125484900413E4F0A3F01223178E54
:10408300828F837408124091122D49024DB9F0EECC
:10409300FAEFFB2274F6120B8D90047FE060109010
:1040A3000415E0700A1240B5EA4B6003121F0F02B9
:1040B3005EC9900C66E0FB900C86E0FA900C6BE016
:1040C300F9121E2B2274F5120B8D74EF1213D5EA1D
:1040D300FEEBFF8E828F83A3A3A3A3A3A3E0A2E29D
:1040E300400302417AEE242AF582EF3400126A3D3E
:1040F300EE2412FAEF3400FB121E37E97079908434
:10410300C4E064017031EE241A124BE5702985185E
:10411300828519837410F0EE24121265BA740212A8
:104123001620123637242A1265BA7404121620E8B0
:10413300F0A31265A980401261ED12130C7C0B7D74
:104143000074091216201261E312133E12200BE9C8
:10415300FA740612162085820885830978081213DB
:1041630010EE242A1241821210D27B30125BA57901
:104173000112350312133E7411024A53EE240EF555
:1041830082EF125F7E22C082C083900480E06003CE
:1041930012207D02495EC082C0839004777487F049
:1041A300A37434F0A37414F0A37434F0A3747FF0F5
:1041B300A37434F090123C749EF0A37432F0900414
:1041C300617413F0A3741EF09012267443F0A37469
:1041D3001EF09012287449F0A3741EF090045CE062
:1041E30044028002F0A3F002495EC082C083124100
:1041F300F97903024FE8EAFCEBFDEA2413F582EBBD
:10420300123C10FA22C082C0831241F97905024F91
:10421300E812133E024DB9C082C083790802604898
:10422300C082C08374FE1213D580077A2C7B0412DC
:10423300426190042C12522970F190042E125229DB
:1042430060097A2E7B0412426180EF90042CE4F023
:10425300A3F0900432F0A3F0A3F0740280161222AC
:10426300B1851882851983EAF0A3EB12651E121F2C
:10427300FF22741112133E02495E74F6120B8DE98C
:10428300FF8F087457125348743412534DFE8E082F
:10429300FA7B0012228DEA4B6017EA2508F8EB340B
:1042A30000F98A828B83125E0EA3A3A3A3E4F0809A
:1042B300227A027B0012228DEA4B60138F0874204E
:1042C3001253487434124644F0A3741A1246597AAE
:1042D300007B00025EC9E9FDEAFC74062DFAECA23C
:1042E300E0501EEA75F00A84A8F0E86014740A2A04
:1042F300C398FAE8C394054004740A2AFA740B2A93
:10430300FAEDC394134004781480027806E82A2453
:1043130009F8E43400F97A0A7B001208B9E8F902D3
:1043230012F0C082C08390045CE05402600A122D34
:104333004FE9600479018002790002495EC082C0BE
:104343008390045CE054026014900432E0700A121B
:1043530052266009124365500479018002790002F4
:10436300495E900435E02410124834A2E722C0824B
:10437300C0839084C2E0F8900434E0C398500512DF
:10438300228D80047A007B0002495EC082C08312C2
:104393001FFF790002495EC082C08374FE1213D5E9
:1043A300851882851983124500600D14606524FE0B
:1043B300700302443A0244C4900C6BE0640F60182B
:1043C300121FD5E9701285188285198312548490BF
:1043D300122A1248BF122F82900C93E0C0E0851876
:1043E30082851983124F61D0E01244E6F81244D457
:1043F30074141244E6FCA3E0FD7A2E7B041222AB74
:10440300E5A8F8C2AF9004341244F77920121FC311
:1044130002425D121FCFE98518828519836011124C
:1044230048BF740D1244E6FAA3E0FB122D4980E065
:104433001248BF741580BB12483A70030244C48506
:104443001882851983125E9FC0E01244D9D0E0120E
:1044530044E62402F812472B2401FAA3E03400FBBC
:104463008882898312450014C39409502012483A64
:10447300FA851882851983A3126763A3A3A3E0F8BF
:10448300747528F582743412534D6A600F1244D93F
:10449300E06408702C12483A6408702585188285F8
:1044A3001983E0F812484014124504240AC0E08539
:1044B30018828519831244D4D0E0124504040243C0
:1044C300F5851882851983AA82AB83121FFF0244E4
:1044D30013A31248CA22851882851983126770A311
:1044E300A3A3221244EA2212662CE022E5A8F8C212
:1044F300AF900433E004F0E8A2E792AF22EAF0A31E
:10450300EB1244EAF8124845A3E022C082C083902C
:10451300043712522960081244D5122F828002797F
:104523000002495E74F7120B8DEAFEEBFFEE240DD9
:10453300123728F0EE242F12402FC0E012417FD013
:10454300E0F0EE243012402FC0E0EE24121241823C
:10455300D0E0125BD5C0E0EE2413124182D0E0F02C
:10456300EE242B1241821210D2EE2422FCEF3400EF
:10457300FDEE242D12402FF91259CC12133EE9708F
:1045830007EEFAEFFB121F0F024DB9C082C0831270
:104593001FD5E9600479208002790102495EC08257
:1045A300C083EA1258B5E0D2E00241E9C082C08379
:1045B3001258AE123E4E701112464E400C8A828B38
:1045C30083A3E0F9121FC98069124638124032A250
:1045D300E650128A828B83A3E0F990122C1248BF13
:1045E300122F82804D1258AE123E4E700D12464E5F
:1045F30050088A828B83743080358A828B83A3E050
:10460300641B8A828B83700474228023A3E0700F5F
:104613001258AE123E43743628F5827434800D125C
:1046230058AE123E43742028F58274341246441265
:10463300465902495EEA12463FEB22EE240FF58209
:1046430022125F7EE4938A828B8322EA12463FEB37
:10465300123C10A2E322F0900457E0F912229922AF
:1046630074F7120B8DE9FE125226602EEE702E9017
:104673000435125F6CE4F0900435125484121EFD6D
:10468300900435E0240E12436B5003126031900402
:1046930035E4F0A3F07910121FC3024DB9741B6EF9
:1046A300701012472F640570C6900435125F6CEECC
:1046B30080C474E96E7050900435E02411F81247F9
:1046C3002B60E6900435E0240E18181812472BA22D
:1046D300E2900435E0400C241112472814F0122C08
:1046E3008980B7240F12472AC2E7F012472F6403C9
:1046F300700C900435E02410124728D2E2F01247E0
:1047030039122F82024683741C6E709D90043512F9
:1047130054849012321248BF122F82900435E4F071
:10472300A3F002469D08080812483522900435E09C
:10473300240D12483422900435125489FB90122818
:104743001248C32274F4120B8D750A00750B00A274
:10475300AFE433FEC2AF1252266008EEA2E092AF7E
:1047630002480C9012301248BF122F82E94410F80D
:1047730090042C800985080A85090B1248141248F5
:104783002560D8123AF3586870EB780A121310AC0C
:1047930008AD09123BEC12133E900435E508F0A373
:1047A300E509F01243654064900433E014F0EEA28F
:1047B300E092AF900435E0240E181812665DFEE90E
:1047C300FF8E828F83E0FA900435E0F8124840F9B7
:1047D300121EC1E9900430F0A3E4125D2BE0A2E7BE
:1047E3005018900435E02412124820122B8D9004A7
:1047F30035E02413124820122B8190043512482DE2
:10480300A2E1B3E433F9122C710234E7900432804D
:104813009AE50824FBF582E5091266412212483421
:10482300F922126512E508450922E0240F124834E3
:1048330022F812661DE022851882851983124845E5
:10484300E0221248C9A3A3A3A32274F7120B8DEA93
:10485300FEEBFF121FF912463EEF124653400A12B7
:104863003E4870059084C080039084C1E0F9EEFC5B
:10487300EFFD7A2C7B041222C3E9602FEEFAEFFBE3
:1048830090122E1248BF122F82EE240EF582EF12E1
:10489300494840081244EF121F098019EEFAEFFB52
:1048A3009012261248BF122F82800A8E828F83A312
:1048B30074F11248D0024DB98A828B831248C32205
:1048C3001248C722E0F8A3E0F583888222124091C0
:1048D300121EFD22C082C083121F0902495EC082DC
:1048E300C083790090045CE054027007124942507F
:1048F3000279E890045CE05460700FEA242FF5829B
:10490300EB124032A2E1500279E88A828B83A3A39F
:10491300A3A3E0C39475400279E8EA242DF582EB62
:104923001240327012EA242AF582EB1240327007E9
:1049330079F5121FC98024E970F8121EEB80F6EA9C
:10494300242FF582EB123C10A2E222C082C0838A9C
:10495300828B83740DF0122D498000D083D08202A4
:1049630012F0C082C0838A828B83E4F0A3F01249E1
:10497300429084C0E0F8400F900433E0C398400FA6
:1049830079F1121FC980D4900432E0C39850F11218
:1049930052A980F174F6120B8DE9FE244AFAE4342D
:1049A30000FB12228DEA4B601DEE8A828B83A3A348
:1049B300A3A3F0EA244AF8EB3400F98A828B83A399
:1049C300A312554E80047A007B00025EC9C082C0E8
:1049D30083900453E4F0900456F090043F1249F19D
:1049E3007402F09004481249F174010241E974C35E
:1049F300F0A3741FF0A32274F5120B8D74F112133C
:104A0300D58518828519837402F07401121620E982
:104A1300F060047AFF7BFF74021216201266697538
:104A2300084B750904750A00780812130C7C0B7D7A
:104A33000074071216201261E312133E8518828553
:104A43001983AA82AB83122D49740F80031261E785
:104A530012133E7F03020F8D74F7120B8D74FE1237
:104A630013D5851882851983740AF07401121620F0
:104A73001265A9740202421474F0120B8D1263655D
:104A83001215BE7808790C1209A978081213087A4E
:104A9300427B0402374974F4120B8D74CB1213D585
:104AA300900C6BE0640F600D851882851983742E5A
:104AB30012549E80227A397B0412351E1208C18853
:104AC300088909E4F50AF50B78081213087A397B8B
:104AD30004123C8712133E74350234E474F1120B52
:104AE3008D74F71213D5EAFEEBFF7800124BE260E8
:104AF30007E06403600278E8EE241712418212355E
:104B03000B5022E87021EE2417124036EE242212B5
:104B13004BD7124BE27022EE24191265BA900C7A2D
:104B230012554E802678E8E88E828F83A3125D2B80
:104B33007417F0121FDB026653900C7A74FEF0A315
:104B430004124BF37A717B0C122CE3EE2425F50847
:104B5300EF340085080CF50D750E00780C12130C5C
:104B63007C0B7D007A4B7B041261E712133E1237F4
:104B730025124BFD7402124BF3851882851983AA03
:104B830082AB83122CD7EE2422F582EF3400124B32
:104B9300EB12130C12535312133EEE2402F8EF12CE
:104BA300665FFAE912363324241259DB78081213AC
:104BB300107402121620AC82AD8379831A1A12592B
:104BC300CA12133EE96003024B39EEFAEFFB121FE0
:104BD3000F024B39FAEF3400FB7950122B5122EEBE
:104BE3002421123C0D640222F583126512780C22F3
:104BF300F0EE2419FCEF3400FD22F0EE240D125FD9
:104C03007B2274F6120B8D74F71213D5900456E0C1
:104C130070387401F0F9122C3B851882851983AA28
:104C230082AB8312200575084B75090478081213AB
:104C330010900C801210D27B017404121620AC82E7
:104C4300AD837A0312350112133E7409025EC674F2
:104C5300F7120B8D124E307004A374EBF0900456D0
:104C6300E0A2E25003C2E2F0E0A2E15005124E419D
:104C730080098E828F83742A125DA0024DB974F469
:104C8300120B8D74FE1213D5124D40EE2402F8EF71
:104C93003400F9124F6D851882851983124F87E00E
:104CA300F50B7012851882851983AA82AB83795319
:104CB300122B511265001261ED12130C7C0B7D0057
:104CC3007A4B7B041261E712133E851882851983A0
:104CD300125484A90B121F39900456E0A2E1500A22
:104CE3008E828F83A3E0F9121F3F900456E4F07481
:104CF300020234E474F7120B8DEAFEEBFF8E828F0F
:104D030083A374EBF0900456E0A2E1500579EB1213
:104D13001F3FEEFAEFFB121F6F024DB974F7120B30
:104D23008D124D40900453E4F0900456F07AFF7BCB
:104D3300FF8E828F83A3E0F9121F398079EAFEEB9D
:104D4300FF7901122C417A397B041221017A427BCB
:104D5300041221012274F7120B8DEAFEEBFF121FDE
:104D630069804C74F7120B8D124E99A3A3A3E060D4
:104D730003E4800274EB124DA55003C2E2F0E0A2FB
:104D8300E15005124E418011A2E0500D8E828F83B7
:104D9300742AF0A374EB125DA0EEFAEFFB121F214D
:104DA30080148E828F83A3F0900456E0A2E222EE59
:104DB300FAEFFB1220717F01020F8D74F6120B8D37
:104DC300EAFEEBFF900456E0D2E1F07901122C3BAE
:104DD300EE240D124E04121310EE240B1241821214
:104DE30010D2EE2402EF3400FF0E0E7401C0E01265
:104DF300200BE9FAD0E0FBEEFCEFFD123501025E79
:104E0300C6F508EF12660B78082274F7120B8D12A1
:104E13004E307004A374EBF0900456E0A2E250030A
:104E2300C2E2F0E0A2E15003124E418089EAFEEBB8
:104E3300FF7901122C418E828F83E0642022C2E12C
:104E4300125BE5E0F9121F3F2274F7120B8DEAFEA5
:104E5300EBFF7901122C417A397B041267F0E06091
:104E630003E4800274EB124DA55003C2E2F0E0A20A
:104E7300E15003124E41024D9C74F7120B8D124EFA
:104E83009974EB124DAA5003C2E2F0E0A2E1500381
:104E9300124E41024DB9EAFEEBFF7901122C418E0D
:104EA300828F83A32274F7120B8D124EBE024DB272
:104EB30074F7120B8D124EBE024DB9EAFEEBFF7A68
:104EC300397B04122101EEFAEFFB121F932274F7D0
:104ED300120B8D74EF1213D5EAFEEBFF125BA57A6A
:104EE300717B0C122CD1E9605B8518828519837460
:104EF30009F0740112162074EF126634124F6DF824
:104F03007402121620E8124F87A3A3E0C0E07404D2
:104F1300121620D0E0124F83E0640870168E828F41
:104F230083A3A3124F61A3E0C0E07405121620D03F
:104F3300E080067405121620E4125C017406121652
:104F430020124F4C7411024214AA82AB8312203BED
:104F5300851882851983AA82AB83122D4922124FA9
:104F63006522126774A3A3A3A322E8FAE9FB8A824A
:104F73008B83125D2588828983E0FCA3E0F9EC2210
:104F8300125BF622F0A3E9F08A828B831267702208
:104F9300C082C08312207D02495EC082C083900418
:104FA30073749DF0A37433F0A37462F0A37434F0AC
:104FB30090123674DAF0A37431F0A3743CF0A37446
:104FC30032F090045F7433F0A3741FF090045CE03C
:104FD30044010241E9C082C083EAFCEBFDEA2416E6
:104FE3001242007902121FE702495E74F6120B8D1A
:104FF30074FE1213D590045812522960077A587B15
:1050030004121FFF90045EE4F0900587125229609A
:105013002C800D851882851983AA82AB83121FFF0A
:10502300900457E0F912229F8A088B09A808A9095E
:1050330085188285198312554EE84970D6025EC4DD
:1050430074F6120B8DE9FA7B00900457E0F91222F3
:10505300C9025EC974F7120B8D74F01213D5EAFE00
:10506300EBFF89088E828F83E0F8744128F5827400
:105073003412534DC0E07401121620D0E0F0640BDB
:10508300700D8E828F83A3E9F012205F025160E0DE
:105093007003025160640C600302514C741A65087A
:1050A300700B7404121620E4F0A302514B74041223
:1050B3001620EEF0A3EF125BCDC0E07403121620AE
:1050C300D0E0124F83A31215F574061216201215A1
:1050D300E98E828F83A3A3A3A3A3A3A3A3A3126590
:1050E300C1740A121620123637240E12402FA2E47E
:1050F3005009851882851983E48012EE2411123E2B
:1051030040900C8DE0C398851882851983F0E0C028
:10511300E0740C121620D0E0F0EE241412402FC0DD
:10512300E0740D121620D0E0F0EE241512402FC0CB
:10513300E0740E121620D0E0F0EE241612402FC0B9
:10514300E0740F121620D0E0F07402121620E50866
:10515300F07401121620AA82AB83122D4974100237
:105163004214C082C08390045EE07004790180021F
:10517300790002495EC082C08390045EE0640370DC
:105183000479018002790002495E74F6120B8D9056
:10519300045EE0C333F8E433F9743428F5827412FF
:1051A30039F583125693C2E7F0C333FCE82CF5823A
:1051B300E9124185A3E493FEC333FCE433FD743465
:1051C3002CF58274123D126A3DEC4D6005EE90049D
:1051D3005EF08A828B83E0C333FCE433FDE82CF575
:1051E30082E93DF583E493F508131313541F54FE2A
:1051F300F8746D28F58274041241851252297005E2
:1052030012204D801BE508540FC333FCE82CF582B4
:10521300E912534DC0E0740193F583D082122F82BB
:10522300025EC9900435125D25E8492274F0120B21
:105233008D74FE1213D5890FEAFEEBFF8908744CB7
:10524300125348743412534D12529B603B8A828B23
:1052530083E50FF0A3E4F08E0C8F0DF50E780C129E
:10526300130C850F0A742B250AF582743412534DDF
:10527300FC7D00EA24020A0AEB12535C12133EAAD5
:1052830008AB091252A9800B851882851983E50F93
:10529300125365740202374CFA7B0012228D8A087E
:1052A3008B09EA450922900457E0F91222992274E6
:1052B300EE120B8D74FE1213D5890C8C088D09899F
:1052C3000E744C250EF582743412534DF50EEA60BC
:1052D300067405250EF50E850E10AA107B0012220A
:1052E3008D8A108B11AE10AF11EE4F60418E828FFD
:1052F30083E50CF0A3E4F0EE250EF8EF3400F98E0D
:10530300828F83125BECE4F0F50A780812130C85A4
:105313000C08742B125348743412534DFC1253551A
:1053230012133EEEFAEFFB1252A97900800D851895
:1053330082851983E50C125365791A740212133EA0
:105343007F0A020F8D2508F58222125F7EE49322E5
:105353007C0B7D00EE2417FAEF3400FB12226F74EE
:105363000322F0791AAA82AB83121FC922C082C01A
:1053730083E99004570241E974F6120B8D74FE120F
:1053830013D5EAFEEBFFEE54207031803AE5A8F81E
:10539300C2AF900434E0141244F98A828B831266FC
:1053A3004690045A126669121FDB85188285198399
:1053B300E0641560077A5A7B04121FFF7A2E7B0480
:1053C3001222B1EA4B70C6EF548070088012900429
:1053D3005A12548E900457E0F912229FEA4B70EE52
:1053E300EE5410600B851882851983742D12549E18
:1053F300EEA2E0500B851882851983742412549E03
:10540300EE5402600B851882851983742512549E0D
:10541300EE5404600B851882851983742612549EFA
:10542300EE5408600B851882851983742812549EE4
:10543300EE5440600D7401121620126627742C126C
:10544300549EEE5480600D74011216201266277468
:105453002F12549E9004581252296018E5A8F8C2DE
:10546300AF900458125484900458E4F0A31244F902
:10547300A312548E7A007B00025EC48E828F83A3B4
:10548300A3125489FB22E0FAA3E022EAF0A3EBF093
:10549300121FDB7A5A7B04121FFF22F0AA82AB830E
:1054A300121FDB22C082C08390045A1265C1EA68CE
:1054B3007002EB69700790045AE4F0A3F002495EAE
:1054C30074F7120B8DEAFEEBFFEE4F70031228F90F
:1054D300A2AFE433F508C2AF8E828F8312522960E4
:1054E30028E824FBFAE934FFFB90045A126A3FE8E8
:1054F3006C7002E96D700790045AE4F0A3F08E8299
:105503008F83E4F0A3F0122317E508A2E092AF0221
:105513004DB9C082C083900C7AE064FE7003A3E0AF
:10552300F470097C717D0C122CD7801C8A828B83CA
:10553300A3A3A3A3A3A3A3A37402F0900C7A12655D
:10554300C18A828B8312554E02495EE8F0A3E9F0CB
:1055530022C082C083900C841265EA4004790380E0
:1055630002790202495EC082C08312569C8C828DEE
:10557300831234B868703B740268701C8A828B8310
:105583001255BAE068702B8A828B83A31255BAA393
:10559300E068701E7901801C7403687015EC2405A3
:1055A300FCED3400FDEA2405FAEB3400FB122CDD9C
:1055B3008002790002495EA3A3A3A3A3E0F88C822F
:1055C3008D83A3A3A3A3A32274F7120B8D740912D3
:1055D30016201265C17508001234B4FE8A828B83CB
:1055E300A3A3A3A3A3A3A3A3E06E706674026E7028
:1055F3004E8A828B83C082C08388828983A3A3A3BC
:10560300A3A3E0FE88828983A3A3A3A3A3A3E0FBB0
:10561300EEFAD083D082E06A7003A3E06B70338824
:10562300828983A3A3A3E0FA88828983A3A3A3A384
:10563300E0F9EA6C7002E96D701875080180137463
:10564300036E700EE82405FCE93400FD122CDDE93D
:10565300F508A908024DB9C082C0838A828B83A34F
:10566300A3A3A3A3A3A3A3E064027016900C7A12CE
:105673005693687003A3E06970047901800F790081
:10568300800BEAFCEBFD7A717B0C122CD102495E94
:10569300125D258A828B83E0228A828B8312384EA5
:1056A300F82274EA120B8D8A088B098C128D1374FD
:1056B30016121620126610750A008C828D83A3A31E
:1056C300A3A3A3A3A3A3E0F510E9A2E75008750CD5
:1056D300FF750DFF8006900C801258C3E9C2E7F5F1
:1056E30011EA240EF582EB12382CEA500A124639DD
:1056F30012418574088007124639124185E4125815
:10570300CBA2E2EA50071258B5748080051258B54F
:1057130074101258CBA2E4500CEA2411F582EB1258
:105723004185E48011900C8DE0C0E0EA2411F582FC
:10573300EB124185D0E01258CBA2E05003750A204A
:10574300A2E350067410450AF50A8A828B83A3A349
:10575300E024FFFEA3E034FFFF1258AE124032C331
:105763009402E04006141258DC7403450AF50A85D6
:105773001114751500740E78141214DFE515F50B6A
:10578300740265117012900C851258DB900C841210
:1057930060D7F01258A5801A74036511701012585F
:1057A3009C7C947D0CEEFAEFFB122CE380E5E51173
:1057B3006026E5106014E50E650C7004E50F650DB9
:1057C30070087440450AF50A800E8E828F83E50DBA
:1057D3001258EEE50C1258E085100C750D00740A92
:1057E300780C1214DFE50D450BF50B740265107090
:1057F300188512828513831258DA851282851383E2
:105803001260D7F01258A5801A7403651070101235
:10581300589CAC12AD13EEFAEFFB122CE380E5E5D6
:1058230010600E8E828F83E50F1258EEE50E12582C
:10583300E0EEF8EFF9E824FF1EE934FFFFE5082462
:105843000DF582E5091240327005900C70800390CB
:105853000C7CE0FA04F0EA88828983125D2BE50B65
:105863001258EEE50AF0E5082404F8E5093400F9D6
:10587300E5082402FAE5093400FBEEFC8A828B83F7
:10588300E0F50888828983E02508C39C125E14EE44
:10589300F0A3EFF079000265D8EE24F9FEEF34FFB0
:1058A300FF22EE24FF1EEF34FFFF22EA240DF582D0
:1058B300EB221258BEEB125F7E22E82410F58222FF
:1058C300E0F50CA3E0F50D22F0EA240EF582EB12CD
:1058D3003C1022A3A3A3A3A3E08E828F831258E4D8
:1058E30022F0EE24FF1EEF34FFFF221258E48E82D3
:1058F3008F832274EC120B8D890A8A0F8C108D1101
:105903008B0B741412162012650E741612162012C5
:1059130058C3AA0B121EBB8A128B13A812A913E831
:10592300FEE9FFE849604312417FE50B124BFDE5B9
:105933000AF0750E00780C12130C12535312133E17
:105943007808121310AC10AD11A90F1259C8121315
:105953003EE97016E50A24F96003147006123C064A
:10596300D2E5F0EEFAEFFB121F0F80007F0C020F5F
:105973008D74F7120B8DEAFEEBFF7801EE242312F0
:10598300402F6002780512417FE8124BFD7404F04A
:10599300EE2402EF34000A0A12363324221259DBB2
:1059A300EE24201241821210D21259D279031A1A0C
:1059B3001259CA12133EE97007EEFAEFFB121F0FDA
:1059C300024DB97903EEFAEFFB122023740222EEA3
:1059D3002417FCEF3400FD22123C0D8882898312C8
:1059E3005BF67401F02274F3120B8D8A088B09ECB9
:1059F300FEEDFF8A828B837405125BD58A828B83CB
:105A0300A3A3F0EA2403F50AEB3400F50B850A821D
:105A13001265BFEE24241241821215F5E82411F514
:105A230082E91241851215E9125BA5E8FAE9FB1236
:105A33002CD7850A82850B83125F71125484888266
:105A43008983A3A3A3A3A3A3A3A3A3EAF0A3EB1212
:105A53005BCDC0E01258BDE9124185D0E0125BBCBA
:105A63002415125BB7125BBC240E125BB7125C01E8
:105A7300850A82850B83E02416FAA3E03400FB1227
:105A8300203B8E828F83A3A3A3A3A3A3E0C0E085BF
:105A93000A82850B83E0240D126618D0E0125BDDC9
:105AA300850A82850B83125484EA240BFCEB3400B1
:105AB300FD88828983E08C828D83F0A3E4125BC529
:105AC300E08C828D83A31265D3FCA30808A983A26B
:105AD300E7E433C0E0124638124185D0E0F07407A2
:105AE3005C60047A0180027A0075F00374075CA499
:105AF3002AFAE82AF8E93400F9E5082405FAE50961
:105B03003400FB88828983E08A828B83125BC5859C
