:020000040000FA
:060000000211B00207A985
:03002B000225C7E4
:03004300021001A7
:03004B00020E8220
:030053000206FBA7
:03005B00020E9101
:03006300020E9DED
:10008300020745010101010503010F10FEFF0300F3
:100093000300030003000300030003000300030045
:1000A30005000A00140028004F009E000000881A73
:1000B300881A881A881A3E193819881A582700008E
:1000C3000000E028000000000C0000000C00010A02
:1000D300D007D00701D704FF0101001A1100000067
:1000E3007511E80364006400B80102020000100007
:1000F300050207011E02051E020A03B80B02803E19
:1001030001033200020192870A01E0020206303144
:100113003233343536373839414243444546002873
:100123006E756C6C20706F696E74657229003F3F49
:100133003F000000803FF9021550B743BA51000059
:10014300204100E7DB2E0000A04010000000080063
:1001530000000A0000001211CF60461211FC603D3E
:10016300E9687008F618F618F618F622748067F72F
:1001730012018D090909748067F7221211FC601DB1
:100183001211CF7005191919801A121044701F1219
:100193001083C37003E66733191919400718181839
:1001A3002208080874FFF618F618F618F62212103B
:1001B300836017121244702192F012123A70195090
:1001C3001720F014080808090909E7F61819E7F6D3
:1001D3001819E7F61819E7F62212123A60E6E869E9
:1001E300701F0808E62480F608E436F618547FB436
:1001F3007F0CE654806007F6E418F618F622181808
:1002030022E9C6CC08C6CD08C6CE08C6CFC0E0E8F2
:10021300C0E0EAC0E0EBC0E009E9F809E7FA09E762
:10022300FBE6F918E6F8C3EC98ED99EE9AEBC2E712
:10023300F5F0EFC2E795F0500E600CEBCFFBEACE82
:10024300FAE9CDF9E8CCF8EAA2E7D2E7FAEB33FB17
:1002530013F5F0EEA2E7D2E7FEEF33FFC5F013A2EA
:10026300E730E601B313C5F0C3C0E0C0F07F00C3BD
:100273009BFB605B9418600C401AD0E023F9D0E03C
:10028300F802035C8AF0E9486003D2F0E4AFF0FAC5
:10029300F9F8803BEB30E40D89F0EA6003D2F0E437
:1002A300AFF0F9CAF8EB30E30D88F0EF6002D2F05B
:1002B300AFF0E4CAC9F8EB54076014FBC3EA13FABE
:1002C300E913F9E813F8EF135002D2E0FFDBEDD0A6
:1002D300E0C0E030E739C3E49FFFF5F0EC98FC425F
:1002E300F0ED99FD42F0EE9AFE42F0D0E0F9D0E055
:1002F300F8E5F0607AE923F9EE20E742D802806757
:10030300C3EF33FFEC33FCED33FDEE33FE80EAEC59
:1003130028FCED39FDEE3AFED0E023F9D0E0F840B9
:1003230002801BC3EE13FEED13FDEC13FCEF135021
:1003330002D2E0FF08B800067F7F74FF802EEF3300
:1003430050178CF020F00260100CBC000C0DBD00A7
:10035300080EBE000408E860DFE933E813FFEE236C
:1003630013FE4F4D4C8008E95480FFE4FEFDFCEE84
:1003730033EF33F47004FCFD7E80D0E0FBD0E0FA71
:10038300D0E0F8D0E0CFC618CEC618CDC618CCC67C
:10039300F9221211FC7004181818221211CF700DD3
:1003A30074FFF61819F61819F61819F622E754808F
:1003B30066F612123A700F12124470F014F608F631
:1003C30008F608F680D1121244700CF608F6087687
:1003D3008008E6447F80EC121086700C1210476090
:1003E300BFE65480F6E480BB121047700519191953
:1003F30080A5E869700C763F18768018F618F6E841
:10040300F922E6CDC0E018ECC0E0E633CD33CDD31E
:1004130013F6E719FCE7191933CC33C3947F400E65
:10042300CD9D502408E65480F6E418F6800FF404BA
:100433003D14501408E6447FF6187680E418F61845
:10044300F6D0E0FCD0E0FD22CCD313CCFD18E4C6FB
:10045300CBC0E018E4C6CAC0E00808ED08C633E61E
:1004630013F618E433C675F003C3CA97CA09CB97CA
:10047300CB199C40047D08802EBD000302053E1667
:10048300B6FF050606081618C3CA33CACB33CB33E7
:10049300CA27CA09CB37CB193CC37D08803E187DD8
:1004A3000820E75CC633C6CA33CACB33CB33DDF18E
:1004B300D5F0EB30E77BCA97CA09CB974ACB199C97
:1004C300406F4B7025E620E0218066187D08C3CA83
:1004D30097CA09CB97CB199CD3C633C6CA33CACBA9
:1004E30033CB3350C9DDE7D5F0E1D3E4C636C608D4
:1004F300C636C608C636C608C636C61818188031AA
:10050300C3CA97CA09CB97CB199CB34097C633C6C6
:10051300CA33CACB33CB33DD34D5F02EC6A2E0C603
:1005230040C8CA27CA09CB37194A70BECB3CB4802E
:10053300B90808E63308E633601F181818D0E0FA44
:10054300D0E0FBD0E0FCD0E0FD22187D08CA27CA2A
:1005530009CB37CB193CD3808013F618E4B67F114F
:10056300F618B6FF0EF618C60470D2080876808017
:10057300CAF618F618F680C5001211FC604F121166
:10058300CF6012E7548066F61210447011121244C1
:10059300703B090909F4F618F618F618F62212103A
:1005A30083701512123A08080860EAE6447FF618C9
:1005B300768018E4F618F62212123A6016121244E4
:1005C3007012E4F608F608F608E65480F6090909FD
:1005D30018181822EAC0E0EBC0E0ECC0E0EDC0E080
:1005E300E687F0A4FBACF008E687F0A42CFCE43526
:1005F300F0FA1809E687F0A42C4B60027401CA359F
:10060300F0FCE433FB09E687F0D2F7A42CCB35F0FA
:10061300FC1908E687F0A42BCC35F0FBE433FD0886
:1006230019E687F0D2E7A42C4ACB35F0CD3400FC91
:1006330009E687F0D2E7A42DCC35F0FDE433FA09BF
:1006430018E687F0D2F7A42CCD35F0CA3400FC08A5
:10065300E687F0D2E7D2F7A42ACC35F07A7E20E7FA
:100663000B0ACB33CBCD33CDCC33CC33CB3350147C
:100673007004ED30E00ED2F1E4CD3DCDCC3CCC3B6B
:100683005005DA05C2F1EB547FC63308E63392F026
:10069300FBE73309E733C39A502D2B70190C0D4C2C
:1006A3004D70151806E608C333700D20F10AA2F049
:1006B30013F6E418800B4024E4F630F00276801839
:1006C300F618F618F68024D33B14501074FFA2F0EA
:1006D30013F6187680E418F618F6800FA2F013F6D6
:1006E30018E63303F618ECF618EDF6D0E0FDD0E08B
:1006F300FCD0E0FBD0E0FA22C0E074F2120ABCE5C1
:10070300A7FAE5A1FBEA5B5410600812211253A17A
:10071300EF802AEAA2E0C0D0EBA2E092F012110E21
:10072300158182F05017906198E0FA90167EE0C32D
:100733009AA2D265D0335002EAF053A1FE7F0102A0
:100743000B73C0E074F2120ABC9061A4E0FA759BCB
:1007530000E5915A540860087591F7122154802AD4
:10076300E5915A541060087591EF12215A801BEAE3
:10077300A2E0C0D0E591A2E092F012110E158182A1
:10078300F05007E0C2E0F012227A9061A3E0FAE5AC
:10079300E95A5404600E12225075E9FB906193E00C
:1007A300A2E640F28097C0E074F2120ABC9061A501
:1007B300E0FAE5BF5A5404600653BFFB12229202CB
:1007C3000740C3E498F8E499F91208068026C3E4C5
:1007D3009AFAE49BFBE920E7E9120806E498F8E4B7
:1007E30099F922C3E498F8E499F9120806E498F811
:1007F300E499F9C3E49AFAE49BFB22EB20E7CFE9FF
:1008030020E7E0B90010BB0008E88AF084F8AAF0FA
:1008130022E4FBC8FA22EB70227B10C833C8C93329
:10082300C9335007C39AC3DBF280069A50012ADB0F
:10083300EAC833F4C8C933F4C9FA2275F008E4C826
:1008430033C8C933C933C99AC99B5004C92AC93BA0
:10085300D5F0ECFBC833F4C8E4C9FA2212089F2090
:10086300F01430E72B74FFFCFBFA747F8022E4FC66
:10087300FBFA7480801AB48008BC00F2BB00EF80DE
:100883000F50EBF9E4C39AFAE49BFBE49CFCE49974
:10089300C6CC18C6CB18C6CA18C6F922E4C9C608FE
:1008A300CAC608CBC6D3330308CCC63392F0C3946D
:1008B3007F402E94184019C9B90704CACBCC2250E3
:1008C30025C309CA33CACB33CBCC33CC33D9F422B7
:1008D300F4600DC9CCC313CB13CBCA13CAD9F6CC5E
:1008E30022E4FCFBFA2214FCFBFA22080808EAC003
:1008F300E0EBC0E086F0E7A4FA180986F0E7A42A43
:10090300FA180986F0E7A42AFA180986F0E7A42A58
:10091300FA1986F0E7A4FBE5F02AFA190886F0E74E
:10092300A42BFBE5F03AFA190886F0E7A42BFBE5C4
:10093300F03AFA18180986F0E7A4C5F02BFBE43A5D
:10094300FA1908E7C5F0C6A426F6E5F03BFBE43A3E
:10095300FA1886F0E7A4F6E5F00826F6E43B08F675
:10096300E43A08F6D0E0FBD0E0FA22080808E630C3
:10097300E7111210C1120986080808C64480C61878
:10098300181822181818E9799EC608CAC608CBC6D3
:1009930008CCC6C370207996CACBCC7019798ECB9C
:1009A300CC70137986CC700EF9802ACA33CACB3344
:1009B300CBCC33CC331930E7F2CCCBCA33501470E1
:1009C30004EA30E00DE4CA3ACACB3BCBCC3CCC5072
:1009D3000209C3E913C6CC182313C6CB18C6CA1819
:1009E300C6F922E4CFC0E0E4CEC0E0E4CDC0E0E449
:1009F300CCC0E075F020C3E633F608E633F608E62C
:100A030033F608E633F6181818EC33FCED33FDEE35
:100A130033FEEF33FFC3EC9709ED9709EE9709EF28
:100A230097191919400FFFEC97FC09ED97FD09EE93
:100A330097FE191906D5F0BEECF709EDF709EEF7A5
:100A430009EFF7191919D0E0FCD0E0FDD0E0FED092
:100A5300E0FF222518C582C0E0E51934FFC583C035
:100A6300E0E518C3958224F8F8E4C5A885831985C1
:100A73008218C5A8E8CEF0A3E520F0A37808E6081D
:100A8300F0A3DEFAEFF0A3E58124FAF8E608F0A379
:100A9300E608F0A3E608F0A30808E608F0A3E608D2
:100AA300F0A315811581D0E0FED0E0F81581158102
:100AB3001581E8C0E0EEC0E022C0D02518C582C091
:100AC300E0E51934FFC583C0E0E518C3958224F33C
:100AD30010AF08858319858218800885831985825C
:100AE30018D2AFC8F0A3E9F0A3EAF0A3EBF0A3791F
:100AF30008E709F0A3D8FAECF0A3EDF0A3EEF0A316
:100B0300EFF0A3D0E0F0A3D0E0F0A3D0E0F0A3E5B2
:100B130020F0A3E5F0F0A322121225B90003020B83
:100B23005DE490030178AE79198002F0A3D8FCD973
:100B3300FA901BAEAA82AB8390008678D4790180A9
:100B430015E493A3AC82AD838A828B83F0A3AA823C
:100B5300AB838C828D83D8E9D9E775829C7583FD3D
:100B63007402120F487582C27583257400120F48F0
:100B7300851983851882E0C0E0A3E0F9A3E0FAA316
:100B8300E0FBA37808E0F608A3DFFAE0FCA3E0FDAE
:100B9300A3E0FEA3E0FFA3E0C0E0A3E0C0E0A3E086
:100BA300F5D0A3E0F520A3E0A3F5F0E4C5A8858381
:100BB30019858218C5A8D082D083D0E0F8D0E0325E
:100BC3001211FC601C1211CF601712123A70071237
:100BD30012447001D322C0D01212447006D0D0B395
:100BE30022C32233D0D0501430E0F6C3E79608096D
:100BF300E7960809E7960809E796B32220E0D5E6C9
:100C0300970809E6970809E6970809E697B32212B9
:100C130011FC601B1211CF601612123A70071212E8
:100C230044600CB322C0D01212447005D0D022C34A
:100C33002233D0D0501330E0EBC3E7960809E79690
:100C43000809E7960809E7962220E0E4E6970809F1
:100C5300E6970809E6970809E69722D083D082EC45
:100C6300C0E0EDC0E0E493A3FCE493A3FDED4C608E
:100C73000D120CF0EC24FFFCED34FFFD80EFE49348
:100C8300A3FCE493A3FDED4C600D120E2DEC24FFA9
:100C9300FCED34FFFD80EFD0E0FDD0E0FCE493A356
:100CA300C0E0E493C0E022D083D082E9C0E0E493C3
:100CB300A3C386F0C5F095F0F908E493A386F0C5C5
:100CC300F095F0700BE493A3C3994005E904800207
:100CD300A3E475F002A42582F582E5F03583F5835C
:100CE300D0E0F9E493A3C0E0E493C0E022C0E0C302
:100CF300E49396087401939618400FE49366700882
:100D030008740193661870007019A3A3C3E4939643
:100D1300087401939618A3A3400DD0E0D0E0D0E06F
:100D2300020C9AA3A3A3A3A3A3D0E02285198385CE
:100D33001882E0A3FEE0A3F5207808E0A3F608DF1D
:100D4300FAE0A3FFE0A3C0E0E0A3C0E0E0A3C0E0BB
:100D5300E0A3C0E0E0A3C0E0E4C5A88582188583D2
:100D630019C5A8D083D082020F4ED083D082C5F09C
:100D7300E493A3C5F0C395F0F5F0E493A3C395F012
:100D83004005E5F0048001E475F002A42582F582B4
:100D9300E5F03583F583E493A3C0E0E493C0E02258
:100DA3007404800474028000CCC0E0EDC0E0E51858
:100DB300C39CCCAD1950011D10AF068C188D198042
:100DC300068C188D19D2AF120ECBD0E0FDD0E0FC0B
:100DD3002274028000CCC0E0EDC0E0E518C39CCCD7
:100DE300AD1950011D10AF068C188D1980068C1893
:100DF3008D19D2AF120EA9D0E0FDD0E0FC22121162
:100E0300FC60251211CF602012123A7003021244C3
:100E1300080808E76670101819E766700A1819E7DA
:100E23006670041819E76622F422C0E0C0F088F067
:100E3300E4936670080874019366187000A8F0A321
:100E4300A3700BD0F0D0E0D0E0D0E0020C9AA3A3C3
:100E5300D0F0D0E022D083D082CCC0E0E493A36072
:100E630006120F0B1470FAE493A3600612102E14EB
:100E730070FAD0E0FCE493A3C0E0E493C0E022C0A6
:100E8300E074F2120ABC1220587F01020B73C0E017
:100E930074F2120ABC12205E80EFC0E074F2120AF0
:100EA300BC12206480E3CAC0E0E493A3C582CCC52E
:100EB30082C583CDC583F0A3C582CCC582C583CD4E
:100EC300C583DAE5D0E0CA22CAC0E0E0A3C582CC7C
:100ED300C582C583CDC583F0A3C582CCC582C58336
:100EE300CDC583DAE6D0E0CA22700908080822607B
:100EF30016181818C6C333C608C633C608C633C681
:100F030008C633C6D5E0EA22C0E0E493A3D39C50DD
:100F130010E493A3C39C400AD0E0D0E0D0E0020EDB
:100F230075A3A3A3D0E022C5822518C582C5833546
:100F33001910AF07F5198582188007F519858218EE
:100F4300D2AFC58322C09FF59FE473D09F22D08385
:100F5300D082C09FE493C0E0740193C0E074029315
:100F6300F59F227404800A7403800674028002745D
:100F730001C0E0F404120F81D0E012120B222518F5
:100F8300F58210AF08F518400215198008F51840CE
:100F9300021519D2AF85198322BB0102E722C08251
:100FA300C08389828A83BB0003E08002E493D083F9
:100FB300D08222C0D0251810AF08F51850020519A9
:100FC3008008F51850020519D2AFD0D02260160858
:100FD3000808C6C313C618C613C618C613C618C650
:100FE30013C6D5E0EA22C3E0C696F608A3E0C69688
:100FF300F608A3E0C696F608A3E0C696F622C0E07C
:1010030074F2120ABCC2C0E5D1A2E4500312208ECE
:101013007F01020B73251810AF08F518400215194C
:101023008008F51840021519D2AF22C0E0E493A35B
:101033006C7009D0E0D0E0D0E0020E75A3A3D0E03D
:1010430022181818E6084608700AE608C333700524
:10105300E633F4220822C3E7960809E7960809E76E
:10106300960809E796A2D265D03322E0667010088D
:10107300A3E066700A08A3E066700408A3E0662292
:10108300191919E7094709700AE709C3337005E716
:1010930033F4220922C3E09608A3E09608A3E0965E
:1010A30008A3E096A2D265D03322C3E096F008A34A
:1010B300E096F008A3E096F008A3E096F022181853
:1010C30018E4C396F608E496F608E496F608E49660
:1010D300F622E026F608A3E036F608A3E036F60883
:1010E300A3E036F622E026F008A3E036F008A3E0FA
:1010F30036F008A3E036F022E627F60809E637F6CD
:101103000809E637F60809E637F622C0E0E8C0E04A
:10111300E58124FCF8E6A2E7D0E0F8D0E022E65728
:10112300F60809E657F60809E657F60809E657F6FA
:1011330022E056F608A3E056F608A3E056F608A305
:10114300E056F622E647F60809E647F60809E647B9
:10115300F60809E647F622700422600D18C6C33369
:10116300C608C633C6D5E0F41822E056F008A3E05B
:1011730056F008A3E056F008A3E056F022C6F4C6E2
:1011830008C6F4C608C6F4C608C6F4C622C3E09669
:1011930008A3E09608A3E09608A3E09622C3E79687
:1011A3000809E7960809E7960809E7962275D0002B
:1011B30075814075180175190300020B1B600C083B
:1011C300C6C313C618C613C6D5E0F422E7094709F8
:1011D300C3134709336002E733F422E6F008A3E6BA
:1011E300F008A3E6F008A3E6F022E0F608A3E0F691
:1011F30008A3E0F608A3E0F622E6084608C3134670
:1012030008336002E633F422CAC0E0E6F0A308DA4A
:10121300FAD0E0FA22C5822518C582C5833519C5DF
:10122300832274F855C74401F5C77901222518F5BF
:1012330082E43519F58322E6C33318461846184667
:1012430022E7C33319471947194722120F51E72ED3
:1012530000120F51222F00120F515F2F00120F5156
:10126300802F00120F51CC2F00120F51A630001205
:101273000F51573100120F51E73100120F51D7327E
:1012830000120F511A3300120F513F3300120F5146
:10129300913300120F51B63300120F51DD34001297
:1012A3000F51513500120F51743500120F519C35F7
:1012B30000120F51AE3500120F51B83500120F5105
:1012C3003C3600120F51AB3600120F515437001247
:1012D3000F515C3700120F51C63700120F510838F7
:1012E30000120F51183800120F51003900120F511C
:1012F3008B3900120F51EE3900120F51C03A001210
:101303000F51373B00120F51743B00120F51DB3B5F
:1013130000120F51283D00120F51443D00120F518E
:101323009D3D00120F513A3E00120F518A3E0012AA
:101333000F51253F00120F51D23F00120F511040A1
:1013430000120F51804000120F51CB4000120F5179
:10135300044100120F51344200120F51874300120F
:101363000F51E84300120F51314400120F515944F9
:1013730000120F51DC4400120F515C4500120F5153
:10138300CF4500120F51F44500120F5105460012CC
:101393000F517B4600120F511F4700120F51614737
:1013A30000120F51E74700120F510E4800120F5160
:1013B300364900120F51494900120F51A249001238
:1013C3000F51E34900120F516B4B00120F51014DA6
:1013D30000120F51304D00120F51DD4D00120F510D
:1013E300364E00120F51224F00120F512551001299
:1013F3000F512F5100120F51395100120F51435108
:1014030000120F514D5100120F51675100120F512D
:10141300715100120F517B5100120F51855100126F
:101423000F51A65100120F51F45100120F51FE51EA
:1014330000120F51225200120F51465200120F5147
:10144300A55200120F51F05200120F510E53001209
:101453000F517E5300120F51BB5300120F51025410
:1014630000120F516A5400120F51DC5400120F5135
:10147300105600120F51335600120F51F656001238
:101483000F511C5700120F51FC5700120F515D5A98
:1014930000120F51C45B00120F51875D00120F51F0
:1014A300D95D00120F51BC5E00120F51095F00128B
:1014B3000F51745F00120F517E5F00120F519D6137
:1014C30000120F51C26100120F51136200120F512B
:1014D300146300120F514C6300120F518C630012FE
:1014E3000F51EF6300120F51086500120F51686529
:1014F30000120F514E6600120F51546800120F5123
:10150300706800120F51156A00120F515B6A0012C6
:101513000F51396B00120F51A36B00120F51D46B93
:1015230000120F51106C00120F519E6C00120F51DC
:10153300A16C00120F510D6D00120F514881011261
:101543000F519A8101120F51D18301120F511D8442
:1015530001120F51DF8401120F51568501120F51F1
:101563007E8601120F51BB8801120F51528901125D
:101573000F51F28F01120F51789001120F51F59212
:1015830001120F51D99301120F517E9401120F5181
:10159300979501120F51C89601120F51BB97011273
:1015A3000F51EC9A01120F51AF9C01120F510F9D75
:1015B30001120F51C59D01120F51729E01120F515D
:1015C3009D9E01120F512A9F01120F5117A0011264
:1015D3000F51EBA001120F5189A101120F51B6A1B6
:1015E30001120F51D8A101120F51D1A301120F51B2
:1015F300ACA401120F51F9A401120F515AA5011203
:101603000F511CA601120F5151A601120F519FA693
:1016130001120F51CFA601120F510DA701120F5145
:1016230065A701120F516AA701120F51C5A7011235
:101633000F51EDA701120F510CA901120F5178A9F7
:1016430001120F51E2A901120F516BAA01120F519E
:101653008AAC01120F5168AD01120F51D7AE0112BE
:101663000F5169B001120F51F9B001120F5100B2BD
:1016730001120F5189B201120F51D0B201120F5151
:1016830047B401120F515BB401120F5175B401122B
:101693000F5190B401120F519CB401120F51BAB4FF
:1016A30001120F5171B601120F51AAB601120F5157
:1016B300B7B601120F51C0B601120F512CB7011268
:1016C3000F5182B701120F518DB801120F51E9B8B2
:1016D30001120F51DCB901120F5120BA01120F513F
:1016E300A3BA01120F51A7BB01120F5163BC011220
:1016F3000F51DEBD01120F51B8BE01120F514FBF82
:1017030001120F51E1BF01120F51F8BF01120F5126
:101713001CC001120F5126C001120F5132C0011219
:101723000F5150C001120F5194C001120F51E5C067
:1017330001120F5106C101120F5143C201120F5181
:101743008FC201120F5186C301120F51AEC3011292
:101753000F5110C401120F5189C401120F519AC5C0
:1017630001120F5146C601120F5133C701120F5117
:1017730097C701120F512EC801120F51FEC8011253
:101783000F512DC901120F518CC901120F513ACAC1
:1017930001120F5160CA01120F51D8CA01120F5121
:1017A300FDCA01120F5120CB01120F515BCB011265
:1017B3000F5139CD01120F5126CE01120F51DECE3A
:1017C30001120F5175D001120F51C9D001120F51DF
:1017D300E8D001120F5157D101120F51CBD1011291
:1017E3000F5124D201120F514AD201120F5185D247
:1017F30001120F51B1D201120F51FCD201120F513C
:1018030055D301120F51D1D301120F51B5D4011287
:101813000F5122D501120F514BD501120F51B1D5E2
:1018230001120F5106D601120F5140D601120F516A
:1018330095D601120F51BAD601120F5100D70112DA
:101843000F511DD701120F51C7D701120F51A47F9A
:1018530000120F51EF7F00120F516C8002120F51D3
:10186300A08002120F51768102120F514A82021296
:101873000F51758302120F51F98402120F517785AC
:1018830002120F513E8602120F515F8702120F514F
:10189300D18702120F51338802120F51818802122D
:1018A3000F518B8802120F51C98802120F513289CE
:1018B30002120F51D18902120F514F8A02120F5196
:1018C300048B02120F51768B02120F519C8B021262
:1018D3000F51CC8B02120F51F98B02120F519F8CB7
:1018E30002120F51AF8C02120F51028D02120F51CF
:1018F3000E8D02120F511A8D02120F51238D0212F7
:101903000F51848D02120F51E48D02120F51358E47
:1019130002120F51508E02120F51808E02120F517C
:10192300A18E02120F51AD8E02120F51EE8F0212D1
:101933000F510C9002120F51759002120F518890A3
:1019430002120F519F9002120F51329102120F5146
:10195300319202120F512D9302120F51AF930212C3
:101963000F51B99302120F511C9402120F512D946F
:1019730002120F51709402120F51B79402120F51B9
:10198300ED9402120F51239502120F514195021249
:101993000F51659502120F51A69502120F51999698
:1019A30002120F51DF9602120F511A9702120F51B2
:1019B300799702120F51A19702120F51DA9702126F
:1019C3000F51E89702120F51499802120F5186984E
:1019D30002120F51C89802120F51F99802120F51B7
:1019E3002D9902120F51389902120F515699021272
:1019F3000F511E9A02120F51289A02120F51679A21
:101A030002120F517D9A02120F51E79A02120F51DF
:101A1300FB9A02120F51F39B02120F51069C021202
:101A23000F511B9C02120F51BB9C02120F511F9DA1
:101A330002120F51E29D02120F51ED9D02120F513E
:101A43000C9F02120F51289F02120F51809F021206
:101A53000F51B79F02120F51D19F02120F5145A090
:101A630002120F51D6A002120F511EA102120F51E2
:101A730039A302120F51A3A302120F510EA4021293
:101A83000F5167A602120F5177A602120F517AA6C1
:101A930002120F5186A602120F519AA602120F517B
:101AA300A2A602120F51D7A602120F5185A7021246
:101AB3000F51F5A702120F5159A802120F51F2A8A4
:101AC30002120F518CA902120F51BAA902120F511F
:101AD3004AAA02120F5156AA02120F5185AA0212E4
:101AE3000F51A7AA02120F51CEAA02120F5134AB03
:101AF30002120F519EAC02120F51A1AC02120F51F0
:101B030018AD02120F5104AE02120F51DCAE0212D5
:101B13000F5166AF02120F519BB002120F514DB11C
:101B230002120F5186B102120F51B7B102120F51B7
:101B3300C0B102120F51ACB202120F516C2B001242
:101B43000F51B8B302120F5182B402120F5106B5EE
:101B530002120F51C32E00120F5185B502120F51FD
:101B6300008003120F51128003120F51858003125C
:101B73000F51BB8003120F51128103120F51CA82FE
:101B830003120F51AE8403120F51A18703120F5199
:101B9300CF8703120F51F38703120F516288031289
:101BA3000F51968803120F51D38803120F51232E1E
:101BB30000120F51508903120F515BB003120F51E2
:101BC3007DB003120F518EB003120F519FB0031259
:101BD3000F51F6B003120F5149B103120F51A6B1C1
:101BE30003120F51F0B103120F51E1B303120F515E
:101BF300F8DD03120F5137AB03120F5159AC031227
:101C03000F51A4AC03120F51F7AC03120F5141ADA6
:101C130003120F5173AD03120F5176AD03120F511F
:101C230079AD03120F51DBAD03120F5157AF0312FE
:101C33000F513DB003120F51009F03120F51469FE6
:101C430003120F51B69F03120F51DE9F03120F5160
:101C5300A0A003120F51A9A003120F51FFA003125A
:101C63000F512AA103120F5189A103120F5128A268
:101C730003120F5164A203120F51BEA203120F519C
:101C830015A303120F5143A303120F51C2A303124F
:101C93000F510FA403120F514EA403120F5182A42C
:101CA30003120F5194A403120F51A6A403120F5150
:101CB300C5A403120F5184A503120F51CED60312EC
:101CC3000F517DCD03120F51E1CD03120F5105CEFC
:101CD30003120F510BCF03120F51606D00120F51FE
:101CE300486E00120F51846E00120F5135700012AE
:101CF3000F51777000120F512B7200120F51727235
:101D030000120F514F7300120F51DA7300120F516B
:101D1300717400120F51C57400120F510575001232
:101D23000F51C27600120F51307800120F51427AD0
:101D330000120F51507A00120F51B47A00120F5152
:101D4300087B00120F51FD7D00120F5146DF031275
:101D53000F515CDF03120F511EB803120F5136B837
:101D630003120F51DEB803120F511FB903120F51A3
:101D73003CB903120F515FB903120F51A6B90312F5
:101D83000F51DFB903120F5113BA03120F51A1BB45
:101D930003120F51C3D903120F5137DA03120F5134
:101DA3007CDA03120F518DDA03120F5197DA031203
:101DB3000F517FDD03120F5103E002120F514CE06C
:101DC30002120F5154E102120F510EE202120F518F
:101DD30023E202120F516DE202120F51BEE2021210
:101DE3000F51D1E202120F5114E302120F51F9E421
:101DF30002120F510FE602120F514AE602120F515F
:101E030054E802120F516CE802120F51ADE80212AE
:101E13000F51E1E802120F5141E902120F515AE941
:101E230002120F5177E902120F51DBE902120F512F
:101E330086EB02120F51A8EB02120F51DDEB0212D7
:101E43000F5108EC02120F5118EC02120F5124EC3F
:101E530002120F518EEC02120F5145ED02120F5177
:101E630079ED02120F5183ED02120F51A0ED021210
:101E73000F5102EE02120F511FEE02120F5187EEA5
:101E830002120F51C2EE02120F51D1EE02120F5184
:101E9300CFD803120F51E0D803120F5171D9031297
:101EA3000F51CBB502120F51F9B502120F5168B79A
:101EB30002120F51F6B702120F5172B802120F51EC
:101EC300D5B802120F5117B902120F518EB902126F
:101ED3000F5139BA02120F51BBBA02120F51F7BA9E
:101EE30002120F51B3BE02120F5180C002120F51E2
:101EF3004AC102120F516EC102120F5159C302128D
:101F03000F51CBC502120F5158C602120F5169C7A8
:101F130002120F51D0CA02120F51E0CA02120F511E
:101F23004ACC02120F51C5CC02120F51DFCD02125F
:101F33000F515FCF02120F51E7EE02120F51A6EFBE
:101F430002120F511AF002120F519EF002120F519A
:101F5300F5F002120F51F4F102120F5151F2021275
:101F63000F5166F502120F51F8F502120F515DF68B
:101F730002120F51FCF702120F51B7F802120F5160
:101F830023F902120F51B7FA02120F5154FB021236
:101F93000F5154FC02120F5103DC03120F5105DCE5
:101FA30003120F5118DC03120F5182CF03120F518A
:101FB300CFCF03120F517ED003120F51E4D003127F
:101FC3000F5119FE02120F5172FE02120F514CDB18
:101FD30003120F5198DB03120F5162D103120F51F9
:101FE30070D103120F51E3FF02120F51F8DC0312F9
:101FF3000F5108DD03120F5120DD03120F5171DD64
:1020030003120F519ED503120F51C5D503120F5161
:102013004ED603120F51B5D603120F51DD9E031294
:102023000F51EFFF01120F51F2FF01120F51E4C2E2
:1020330003120F51F2C203120F5172C303120F5155
:1020430039C403120F51EFC503120F51467E00121C
:102053000F51817E00120F51A57E00120F51037F95
:1020630000120F51657F00120F51ADA503120F51DE
:102073002CA603120F51DCA603120F515DA7031206
:102083000F516DA803120F5111AA03120F517AAA0F
:1020930003120F51E8AA03120F51F6AA03120F51AC
:1020A30005AB03120F5118AB03120F512EAB0312E2
:1020B3000F51E4FA01120F5135FB01120F5149FD83
:1020C30001120F5181FD01120F51A6FD01120F5193
:1020D300BFFD01120F51D8FD01120F51D9FE01129C
:1020E3000F5168FF01120F5162CB03120F51A5CBA1
:1020F30003120F51B6CB03120F51E9CB03120F5149
:102103001FCC03120F5155CC03120F51CECC031227
:102113000F510BCD03120F515EC603120F5186C62A
:1021230003120F51C3C603120F51D5C603120F5129
:10213300F1C603120F5159C703120F5162C703129D
:102143000F51C3C703120F51E7C703120F51AEC894
:1021530003120F51BBC803120F51CCC803120F5106
:102163006BDE03120F51B8DE03120F51C0BB031213
:102173000F511BBD03120F5128BD03120F513EBD5A
:1021830003120F515BBD03120F5172BD03120F51A6
:1021930087BD03120F510BBE03120F51EABE031288
:1021A3000F5133BF03120F5143BF03120F51B1DA63
:1021B30003120F51D6DA03120F51FFDA03120F5134
:1021C30027DB03120F51FAC803120F5113C903126D
:1021D3000F511FC903120F5133C903120F5157C9AE
:1021E30003120F5163C903120F5172C903120F5126
:1021F30085C903120F51D8C903120F5112CA031212
:102203000F5142CA03120F5191CA03120F51DFCA71
:1022130003120F51F7CA03120F5101CB03120F51CF
:1022230012CB03120F5157CB03120F51A7FF011209
:102233000F51E49203120F51109303120F512C9379
:1022430003120F513F9303120F51559303120F5172
:10225300BF9303120F51F29303120F5157970312B7
:102263000F51809803120F51B09803120F5119990F
:1022730003120F51FD9903120F51259A03120F51A7
:102283003A9A03120F514A9A03120F518B9A03126F
:102293000F51E09A03120F51F09A03120F5167D4B2
:1022A30003120F5182D403120F51ABD403120F51F7
:1022B300C5D403120F51EAD403120F5109D50312E7
:1022C3000F5122D503120F5151D503120F516CD563
:1022D30003120F51D7DE03120F5152BF03120F51D6
:1022E30059BF03120F5166C003120F5198C0031256
:1022F3000F51BEC003120F51F1C003120F5103C19E
:1023030003120F513EC103120F51AEC103120F51FD
:10231300EBC103120F5138C203120F5166C20312ED
:102323000F5186C203120F512FD303120F5151D3F2
:1023330003120F5164D403120F51CFD703120F515D
:102343002DD803120F516CD803120F51ADD80312BD
:102353000F518E8903120F51988903120F51DB8994
:1023630003120F51CC8B03120F511B8C03120F510D
:10237300018D03120F51438D03120F51748D0312FC
:102383000F51018E03120F51F99003120F51E69171
:1023930003120F51649203120F51A39203120F51B0
:1023A30054B403120F5173B403120F51BCB403128C
:1023B3000F51D8B403120F5109B503120F5120B5B1
:1023C30003120F512DB503120F514AB503120F51CA
:1023D30037B603120F516EB603120F5178B60312BC
:1023E3000F5185B703120F5190B703120F51A2B7C4
:1023F30003120F51ABB703120F51B5B703120F51AD
:102403001C9B03120F51AF9E03120F5117DF0312D0
:102413000F5166DF03120F516BDC03120F5194DC73
:1024230003120F5101D002120F51D9D402120F51CE
:102433004A2B00120F512B2B00120F51F82A0012B6
:102443000F51B2FA01120F5194FA01120F51B2F95E
:1024530001120F5116F901120F51A2F701120F5178
:10246300A82E00120F513CB502120F514EF5011266
:102473000F5180F401120F51062E00120F51C72D78
:1024830000120F51AAF301120F5175F301120F51EC
:1024930042F301120F5123F301120F51C3F2011240
:1024A3000F5175F201120F51B9F101120F5177EE6D
:1024B30001120F514FEE01120F51F4ED01120F51A2
:1024C300D1ED01120F512BED01120F51D3EC01127B
:1024D3000F5130EB01120F512DEB01120F513CEA5A
:1024E30001120F511CEA01120F516CE901120F5135
:1024F300EEE701120F51B5E701120F5186E7011202
:102503000F517B2D00120F51A92C00120F510E2CCD
:1025130000120F5183E701120F5175E701120F519A
:1025230061E701120F519D2B00120F5154E7011265
:102533000F5177E601120F5103E601120F51C9E55E
:1025430001120F5171E501120F516D2E00120F513F
:102553000F8903120F517E2B00120F5140E5011218
:102563000F5172E201120F5130E201120F5124E2B6
:1025730001120F5197E101120F51E5E001120F51C2
:1025830084DE01120F51EEDB01120F51B8DB011291
:102593000F5156DA01120F5102DA01120F513BD9D2
:1025A30001120F510ED901120F5168D801120F51A8
:1025B3003BD801120F5101D801120F5128B3020069
:1025C300000080FBC2C732E4738F000100EF118764
:1025D300000100EE11240002000D1C250002000F73
:1025E3001C26000200111C27000200131C280001F6
:1025F30000151C29000100161C84000400171C860A
:102603000001001B1C2A0001001C1C2B0001001DE3
:102613001C2C0001001F1C2D000800CA112E0001F4
:1026230000201C2F000100211C30000100221C315E
:10263300000100231C32000100D21133000100D33A
:102643001134000100241C36000100D41183000260
:1026530000311C62001000DD1163000100ED116404
:10266300000100C711650001001E1C6D0001003050
:102673001C6E000200C81143000100251C44000227
:1026830000261C45000100281C46000200291C47A7
:10269300000800D511480001002B1C490001002C43
:1026A3001C4A0002002D1C4B0001002F1C040001DA
:1026B30000331CA1000100351C37000100341C004D
:1026C3000000000000000136360101000102010094
:1026D30001030100010401060605020000070100D1
:1026E300340801000F090401010D0100FF0E080069
:1026F3000017020000190100FF1A0100011B01006D
:10270300FE1C0100081D0200001F01000120010042
:1027130001210200002301000F2402000026010012
:102723000127010008280200FF2A0100072B0102EC
:10273300402C0100002D0100012E0100012F01009A
:10274300FF30010B1C310800003A0100083B010077
:102753000F2F0100000300710030016000110070B1
:1027630000310220035004800010006100000014B7
:102773000063007300720062004300000013000650
:102783000000000000040012000000000000000030
:102793000004000400370037003C0244000000003E
:1027A3000000000000650000003500810000000506
:1027B300000000830000000101710101010101110A
:1027C3000101013101010101018001100161013B9E
:1027D30000140063017301720162014301000113DC
:1027E3000106013D01350004011201000100010051
:1027F30001000104010401330133013C01440132AE
:10280300013600000100016501000135008101006E
:1028130001050182018301000103047104020460C4
:10282300041104700402040204010402041004618C
:102833000400041404630473047204620443040074
:102843000413040604000400040404120400040036
:102853000400040004510464000004000400044460
:10286300040004000400040004650400043504812A
:1028730004640005040004830400040302710230AD
:1028830001600211027002010202020202800210C0
:102893000261023A00410063027302720262024360
:1028A30002000213023800000200020402120200B6
:1028B3000200020002000204020402370037003C57
:1028C30002440200023900000200026502000235E0
:1028D30002810200020502820283020002010371E7
:1028E30003010301030103010301032203020301A3
:1028F30003100300030003000300030003000300AD
:10290300034203000324030603000300030403122A
:102913000325032303250323030403040300030004
:10292300030003440300030003230300036503219F
:10293300003503810300030503000300030003368E
:10294300000100060000000F00000000000000006E
:10295300000000000003FFFF00000403FFFF00006E
:10296300FFFF0FF4010005C4040320000100000B66
:10297300000000000000000003010F00005C1F13B3
:1029830000F61E01005C1F0200C01E0300C61E04E9
:1029930000CC1E0500D21E0600DE1EFFFF00000154
:1029A300781506AE1508A8150BC015100015027E84
:1029B30015059C150784150C60150D6C15FF00009B
:1029C300030003000400080010001F003E007B000A
:1029D300F600EC01D703AF075D0FB91E713D000090
:1029E30003EAF5E5D5D5C5B5A595958585757565D1
:1029F3006555554545353525251515059819C819C6
:102A03009E19A419C219B619B019CE19D419DA1915
:102A1300E619AA1992198C199C36063A703DD940C9
:102A23004344AD47174B814EEA5100160F00000B8C
:102A3300150B020002220F320000060001020304FC
:102A430005060708090A0B0C0D0E0F881A9A1AA01F
:102A53001A6219A61A5C1968199C189618D218D804
:102A630018CC188418001B1E1B241B061B121B0CDE
:102A73001B0C0E020B040B0A0708000F303016184C
:102A83001920231A1C1E30000119161816161523B7
:102A9300030000383C3E363B3B352B432C000349B7
:102AA30048424D1817250502303017181921301BDD
:102AB3001D1F30BC19E019181BEC19F219F41AACDC
:102AC3001AB21ABE1AB81AA818AE18A218DE18003D
:102AD30005150D09100804B418C61800BE040A0E23
:102AE3000015000400010309280F100A0900000C57
:102AF300040810080574F6120A5674FF121018E43D
:102B0300851882851983F0858208858309780812E0
:102B13000F6E7508017509007808120F6E1243369F
:102B2300120FB67401024DD574F6120A568C088D35
:102B3300097808120F6E75080B7509007808120FD3
:102B43006E124336024DD574F6120A568C088D095F
:102B53007808120F6E75080B7509007808120F6E4E
:102B630012434112422C024DD5C082C0838A828B0C
:102B730083E0D2E7F0121E66024E20C082C0837942
:102B8300001256E290032E125D77C3EA9CEB9D5030
:102B9300061232FF600109024E2074F7120A56EA48
:102BA300125D6EEB12616D122DFCAEF075F00BED44
:102BB300A42EFD900330E02CFEA3E03DFFEA2403A6
:102BC300FCEB3400FD740169600574026970278AA7
:102BD300828B83A31256EC8E828F83A3124B657470
:102BE3000269701DECFAEDFB121B54E97013E48EBD
:102BF300828F83F0800BEE2403FAEF3400FB122460
:102C030060EEFAEFFB121B3C023E8574F2120A5689
:102C13008A088B09EA240BF50CEB12615279008ABE
:102C2300828B83E06070890A890B805FE50A75F007
:102C33000BA4FAACF075F00BE50B1230917049AEB2
:102C430082AF8385088285098312682312314BA3DF
:102C53001260F0A3124D24E5082403FCE5093400B7
:102C6300FDEE24030A0A0AEF3400FB122460850CEC
:102C730082850D83E50AF0A3E50B1252EA121B3C91
:102C8300790190032E125D7F122C9C123089E50A84
:102C93009AE50B9B409602471AE50A2401F50AE5DB
:102CA3000B3400F50B2274F1120A56EAFEEBFF74A3
:102CB3000F12123012432E750E01850882F583A37D
:102CC30085820C85830DEE240BF8EF3400F9EC704C
:102CD30001ED6030EC125D6EED124B5B7901EEFAA3
:102CE300EFFB122526E5087002E5097003022D7437
:102CF300850C82850D831261577902AA08AB0912EC
:102D03002526806DEE2403F50AEF122CA4E5087046
:102D130002E5096033125D6CE509124B5BE508249B
:102D230003FAE5093400123081700CEEFAEFFB125E
:102D3300250EE9F50E80B9AA0AAB0B123082703169
:102D43007903EEFAEFFB80B78E828F83A3E064FEF4
:102D53007004A3E064FF700A0A0A0AAB0B12308204
:102D6300700CEEFAEFFB12250EE9F50E8003750EDB
:102D730000A90E7F07020D2F74F7120A5690032E37
:102D8300124B65EA7001EB6031EA75F00BA4FAAC03
:102D9300F075F00BEBA42CFBEAFEEBFF121CCE90BC
:102DA3000330124B65900330E07002A3E06012EE33
:102DB300FCEFFD7900121C448007900330E4F0A37C
:102DC300F0023E8574F6120A5675080075090078FC
:102DD30008120F6E90032E122DFCAAF075F00BED66
:102DE300A42AFD7A237B00121D347402120FB6E964
:102DF300FE60031224780240BC126114EC75F00BE0
:102E0300A4FC2274F7120A567E007F00800AEEFAB1
:102E1300EFFB12243C123FA7122E6140F1023E85C4
:102E230074F7120A567E007F008016EEF8EFF9124F
:102E33002E4CFCA3E039FDEEFAEFFB122430123FD7
:102E4300A7122E6140E5023E85E875F00BA4F8AAAF
:102E5300F075F00BE9A42AF9900330E028229003DF
:102E63002E125121C3EE98EF992274F7120A567E5F
:102E7300007F008028EEF8EFF9E875F00BA4F8AABC
:102E8300F075F00BE9123146A2E7500EC2E7F0AC41
:102E930082AD83EEFAEFFB122436123FA7122E61A6
:102EA30040D3023E85C082C083EC7001ED60051201
:102EB300234C80097C087D007900121C44024E20BB
:102EC30074F6120A567900EA7001EB60147C008CE8
:102ED300081262F7600479017C080CECC394084083
:102EE300EE024DD874F7120A5674F3121018ECFE62
:102EF300EDFFE4851882851983F0740112123012F4
:102F0300437F1212667403121230AC82AD83EEFA61
:102F1300EFFB122460EEFAEFFB121B54023E8074A7
:102F2300F7120A5674F3121018ECFEEDFFE485183D
:102F330082851983F0EAFCEBFD740312123012430D
:102F4300B47401121230124D2174FE68700374FFC1
:102F5300696004790180027900023E8074F7120AE5
:102F630056EAFEEBFF122FAD7010122FB864FFFC70
:102F73008A828B83E05CF0121B3C02467674F71264
:102F83000A56EAFEEBFF7508008E828F83E0601716
:102F9300122FAD7012122FB8FC8A828B83E05C7003
:102FA30006E04CF0121B3C024676122556E9F50862
:102FB3007401650822124B50125121122E4CFAA3B0
:102FC300E039FB8E828F83E02274F0120A568A085E
:102FD3008B09EA2403FEEB3400FF7C007D000A0A20
:102FE3000AFB122460E508240BF50CE50912615273
:102FF3007900850882850983A385820A85830BE08E
:1030030064FE7004A3E064FF606589088909805445
:10301300E50875F00BA4FAACF075F00BE509123076
:1030230091603E850A82850B83126A02A3E06C706D
:1030330003A3E06D702BEA2403F50EEB3400F50FC8
:1030430012307E700BAC0EAD0FEEFAEFFB12246064
:10305300850C82850D83126129790190032E124319
:103063002E124DAC123089E5089AE5099B40A180E8
:1030730005740D120FB67F08020D2F0A0A0AFB1200
:103083001B54E964012290032E1256F0C322A42C90
:10309300FB900330E02AFAA3E03BFB8A828B83E0B8
:1030A300540F2274EF120A568A828B83A385820EF1
:1030B30085830F126157EA240BF508EB124DB48593
:1030C3000882126155751000EA2403F50CEB3400F5
:1030D300F50D12307E7065750A00750B008055E59D
:1030E3000A75F00BA4F8AAF075F00BE50B12314644
:1030F300540F603DAE82AF83EE2403FCEF3400FD3A
:10310300AA0CAB0D122346E9640170258E828F83CE
:10311300A3124DA8850E82850F83E8F0A3E912312F
:103123004BE50AF0A3E50BF075100190032E125D39
:103133007F122C9C90032E12421F40A3A9107F09DB
:10314300020D2F1231D5E02212314F22F085088271
:103153008509832274F3120A56EAFEEBFF8E828FEF
:1031630083A385820A85830B126157EE2403F50836
:10317300EF124DB47C007D000A0A0AFB122460EEB4
:10318300FAEFFB122556E9F50C7401650C703EEE5F
:10319300125D6EEF1231DF75F00BA4F8AAF075F033
:1031A3000BE91231D5A31256EC850A82850B8312E3
:1031B3004B65E82403FEE93400FFEEFAEF12308199
:1031C300700BEEFCEFFDAA08AB09122460A90C02F8
:1031D3003E35122E58F8A3E039025A4B124B5612C1
:1031E3005121E82274EE120A5674E6121018EAFE10
:1031F300EBFFEE240BF50AEF122CA4850A82126171
:1032030055750E01750800750900751000751100DC
:10321300E4851882851983F0EE2403FCEF3400FD66
:103223007403121230AA82AB831224608E828F83BE
:10323300A385820C85830D851882851983AA82ABA9
:103243008312126CE964017034740B121230124D44
:10325300A8850A82850B83124D2474011212301241
:103263004DA8850C82850D83E0687003A3E0696037
:1032730055851882851983858208858309740D1203
:103283001230E412611AF8A3E0F9740E121230122C
:103293004D24740D121230AA82AB83121266E964B4
:1032A30001700B740D121230858210858311781012
:1032B300120F6EAC08AD09EEFAEFFB12250874028B
:1032C300120FB6E9F50EEEFAEFFB121260A90E74B7
:1032D3001A025F01C082C083780079008003123B29
:1032E300D2123089E89AE99B500DE8FAE9FB1232D1
:1032F300FF70EB790080027901024E20EA75F00B32
:10330300A4FAACF075F00BEBA42CFB900330126B1A
:103313009AF583E0540F22C082C083902AE4123DC1
:103323003CEC75F012A4FCAAF075F012EDA42AFD92
:1033330079FF7AA87B16121C44024E2074F6120AF7
:10334300567E007F007C007D0080348C088D09E56B
:103353000875F012A4F508ABF075F012E509A42B7B
:10336300F509E50824ACF582E5093416F583E0FB9D
:10337300C3994008EAC39B4003123FA71239BC120A
:1033830037F7C3EC9508ED950940C0026B93C082F3
:10339300C083780079008003123BD2902AE4123F65
:1033A3001C500912373864FF70EE80047A007B00EA
:1033B300024E2074F0120A5674F31210188A0A8B04
:1033C3000BECFEEDFF890CEE7001EF6011EEFAEFEE
:1033D300FB1212B48A088B09EA7001EB70521212C5
:1033E300908A088B09EA7001EB60457401851882A5
:1033F300851983F0121230E50AF0A3E50BF0EEFC19
:10340300EFFD740312123012354A740B121230128C
:103413003AA9A3A3124D24E4850882850983A3A3B3
:10342300A3A3A3A312610CAA0AAB0B1217E2800B8E
:10343300E5087002E50970030234C27A00E50C6006
:1034430007C3940550027A048508828509831261B3
:1034530038A3A3A3E50CF0EA850882850983A3A317
:10346300A3A3A3F07402850882850983A3A3A3A35E
:10347300A3A3A3A3F07401850882850983A3A3A34F
:10348300A3A3A3A3A31234D6A3A3A3F0E5082410F4
:10349300F582E50912616DE4F01234D6F0125D6C29
:1034A300E50912616DE4F0908137780C1211EDE5B6
:1034B30008240CF582E50912616D780C1211DE12F5
:1034C30036994005E4901BB1F01216CEAA08AB0959
:1034D300023074A3124CE2025B9A74F2120A56741D
:1034E300F31210188A088B09ECFEEDFF750A00EE43
:1034F300FAEFFB1212B48A0C8B0DA80CA90DE8701D
:1035030001E9603E88828983E065087004A3E06571
:1035130009602F88828983A3A3A3A3E0C3940550E2
:10352300211261257401851882851983F0121230E6
:10353300126129EEFCEFFD740312123012354A7545
:103543000A01A90A0247151243BB1212782274F624
:10355300120A561235927002E5836010A3A3A3A347
:10356300E06009C394055004790180027900024D9B
:10357300D874F6120A561235927002E583600BA3D3
:10358300A3A3A3E07004790180027900024DD8124D
:1035930012AE8A828B83E58222C082C083EAFCEB6F
:1035A300FD7A007B001212BA024E20C082C0837CD7
:1035B300007D0080F074F2120A5674F31210188A18
:1035C3000C8B0D8C0A8D0B7E007F008021123AAF8D
:1035D30012123012363060137403121230AC82AD03
:1035E30083AA0CAB0D122346E97035123FA7902A2C
:1035F300E4123FB7503012397060F0E50C7002E509
:103603000D70CA74FF650A700474FF650B60DC8576
:103613000882850983E0650A7004A3E0650B70CB1B
:10362300AA08AB0980047A007B00024715E8F0A3DF
:10363300E91243DF121272E92274F4120A5674F388
:103643001210187508001212B48A0A8B0BAE0AAF57
:103653000BEE7001EF602A740185188285198312BD
:103663004D1BF8A3E0F9740B1212301243D7121258
:103673005A7C127D0079FFEEFAEFFB121C447508A9
:103683000112369950097401901BB1F01216CEA99C
:1036930008740D024E2E7A04790012128A902AE4DD
:1036A300123FBDEA98EB992274F7120A56E9FE74A9
:1036B300FE6A700374FF6B780079007005804D1209
:1036C3003BD2902AE4123BBD5042E8FCE9FDEC7585
:1036D300F012A4FCAFF075F012EDA42FFDEC24A8BA
:1036E300FCED3416FD8C828D83A3A3A3A3E064FFBA
:1036F30060CD8C828D83E06A7003A3E06B70C08021
:1037030008EC6005C39405401C123BD2902AE412D6
:103713003F1C501A123738FCEE70E674016C6005DA
:1037230074036C70E48A828B831256EC80047AFEF5
:103733007BFF023E85E8FAE9FBEA75F012A4FAACD6
:10374300F075F012EBA42C1239DB221212C6024ED2
:1037530020C082C083790180F274F0120A568A0A6B
:103763008B0B7A04790112128A8A0CEA7001EB60DE
:1037730040EAC333FAEB33FB121CCE8A088B09AE43
:1037830008AF09EE7001EF60237AFE7BFF1212CCC3
:1037930074FE6A700374FF6B601B8508828509835E
:1037A300124B65E5082402124DB080E1750C0080D0
:1037B300047E007F00850A82850B83E50C1252EAA2
:1037C30002307974F6120A567508007509007808F4
:1037D300120F6E1237F77403780812115A123964F4
:1037E3007B00121D347402120FB6E9FE600312123D
:1037F300DE0240BC902AE41237FE22E493F50874FB
:103803000193F5092274F6120A5674FE1210181267
:1038130040EF024DB974F4120A5674DF1210187E89
:1038230000851882851983858208858309780812A3
:103833000F6E7508028E097808120F6E7C007D00EA
:1038430012422A120FB6E960030238EE1238F5125B
:103853004DA2C3EA98EB9950030238EE8077740FB8
:103863001212308582088583097808120F6E750855
:10387300087509007808120F6E7403780A12115A3A
:103883007402250AFCE4350BFD12422A120FB6E935
:10389300704274021212307401F074111212301259
:1038A3004DA8740D121230124D247402121230AA54
:1038B30082AB83121272E9601B7413121230E0F9A7
:1038C3007405121230AC82AD83740F12123012568B
:1038D300EC1212960E8E8285820A750B00124DA28F
:1038E300C3E50A98E4995003023861EEF9742102A2
:1038F3004E2E902AE4E493FA740193FB2274F61299
:103903000A5674FE121018851882851983E4F0A3F1
:10391300F0FE8033123970602B7808120F6E750831
:10392300087509007808120F6E74041212301243DE
:103933002E7403780812115A123964124339120F84
:10394300B612431E123FACFF902AE4123FB740C4A5
:103953008518828519838582088583097808024D35
:10396300B974022508FCE43509FD7A2222EEF8EF4A
:10397300F9E875F012A4F8AAF075F012E9123A8E7C
:10398300A3A3A3A3E064FF2274F7120A567C007D6D
:10399300008004191239BC1239B3500D1239C5C352
:1039A300940550F0E970EC80047A007B00023E85B8
:1039B3001238F5C3EC9AED9B22EC24010CED340094
:1039C300FD22ECFAEDFBEA75F012A4FAAEF075F005
:1039D30012EBA42E1239DB22FBEA24A8FAEB3416ED
:1039E300FB8A828B83A3A3A3A3E02274F3120A5658
:1039F30074F3121018750A00750B008052E50C124F
:103A030060E38E828F83123AA9E0687003A3E069B2
:103A130060257401121230E0687003A3E069601737
:103A2300EE2402FCEF3400FD7403121230AA82ABC1
:103A330083122346E96007EEFAEFFB1217EE050C3B
:103A4300902AEDE493FAE50CC39A40B1122C9C1230
:103A53003AA1E50A98E50B99502CE50A75F012A4F2
:103A6300F8AAF075F012E50B123A8EE064FF7004C9
:103A7300A3E064FF60D6123AAF1212301236306000
:103A8300CB750C0080BA740D023E32A42AF9E824E7
:103A9300A8F508E93416F509850882F58322902AEA
:103AA300E4E4123FBE221251210231507401851801
:103AB30082851983124CE2125121740B2274F6127F
:103AC3000A561240C1123D3CEC8508F0A4CCAAF082
:103AD3008509F0A42AFA8508F0EDA42AFD79FF7A76
:103AE3005F7B1B121C44900333740EF0A37413F01A
:103AF3009003357408F0A37413F09003377432F015
:103B0300A37413F09003397444F0A37413F0900377
:103B13003B744AF0A37413F090033D7450F0A37404
:103B230013F090033F7456F0A37413F0E490033240
:103B3300F0024DD8C082C083780079008003123B25
:103B4300D2123F195024E8FAE9FBEA75F00EA4FA01
:103B5300ACF075F00EEBA42CFBEA245FF582EB12BC
:103B630045C770DAAA82AB8380047A007B00024ED9
:103B73002074F7120A567A007B0078007900802FB0
:103B8300E8FCE9FDEC75F00EA4FCAEF075F00EED6B
:103B9300A42EFDEC245FF582ED1245C7600EA3A3AE
:103BA300A3A3A3E0FCEA2CFAEB3400FB123BD29074
:103BB3002AE6123BBD40C9023E85E493FC7401939F
:103BC300FDC3E89CE99D22120FB67F03020D2FE887
:103BD300240108E93400F92274EC120A5689108A88
:103BE300088B098C0D8D0C7414121230125D7F7EBC
:103BF300007F0012136EAA08AB091213748A0E8B8E
:103C03000F850882850983A3A3A3A3A3A3A3A3E08A
:103C1300640170077508018E0980058E08850D09FA
:103C230074FE650E700474FF650F7003023D1F8EF2
:103C33000D8002050D850D12902AE612684450711D
:103C4300E50D75F00EA4245FFEE5F012407A6510D1
:103C530070E1A3E0650870DB8E828F83A3A3E06528
:103C63000E7004A3E0650F70CA8E828F83A3A3A393
:103C7300A3E0650970BD750D00E50DC3950C400308
:103C8300023D1FE50DC333F8E433F9E50A28F508CF
:103C9300E50B39F50985088212664612131AE97095
:103CA3000C850882850983126648121326050D8048
:103CB300C81213028A128B13AE12AF13EE7001EF08
:103CC300605A8E828F83E510F0A3E508124D8EA310
:103CD300E50EF0A3E50F124D8EA3A3A3E509F09023
:103CE3002AF3E493C3950C5004E493F50C8E828F6E
:103CF30083A3A3A3A3A3E50CF0850A08850B097589
:103D03000A007808120F6AE50CC333FCE433FDEEB6
:103D13002406FAEF3400126131120FB6EEFAEFFB0C
:103D23007F0C020D2FC082C083123D3979FF121C14
:103D3300447901024E20902AE2E493FC740193FD3E
:103D43002274F7120A56EA7001EB60498A828B8368
:103D5300A3A3A3A3A3A3E5827002E58360377E0038
:103D630080010E8A828B83A3A3A3A3A3E0FFEEC3E8
:103D73009F5022EEC333F8E433F9EA28F582EB3996
:103D8300F583A3A3A3A3A3A3E06C7003A3E06D70C7
:103D9300D1790180027900023E8574F3120A56EA52
:103DA3002405F8EB3400F9E8FEE9FFEA7001EB6063
:103DB3006F8E828F83E06073EA240608EB3400F988
:103DC300E0F50B750A00800B8E828F83E014F060A0
:103DD3005A050AE50AC3950B5046E50AC333F508AD
:103DE300E433F509EA2508F508EB3509F509740606
:103DF3002508F508E43509F509850882F583E06CA3
:103E03007003A3E06D60C1850882850983E0F5082E
:103E1300A3E0126123E824020808E93400F980B121
:103E23008E828F83E060047901800279008003121F
:103E33000FB67F05020D2F74F7120A56EA7001EBD5
:103E430060371269F0C0E0902AF3E493FED0E0C338
:103E53009E502688828983E0C333FEE433FFEA2E33
:103E6300F582EB3FF583A3A3A3A3A3A3ECF0A3EDF8
:103E730012650304F07901800279008005740D1244
:103E83000FB67F01020D2F74F2120A5689088C09AE
:103E9300123FC67005125D7B8003123F9F74FE655F
:103EA3000A700474FF650B70067A007B00806478E7
:103EB30000790080187401650C700F8C828D83E08B
:103EC300650A7004A3E0650B6049123BD2123F19E7
:103ED30050D71243638A828B83E0650870ECA3E0BA
:103EE300F50CEA2402FCEB3400FD8E828F83E06440
:103EF3000160C2E50C70D38C828D83E0650A700487
:103F0300A3E0650B70C48A828B83A3A3A3A3E0659C
:103F13000970B702471A902AE61238F8C3E89AE9FB
:103F23009B2274F2120A56EA2408F8EB124D12642B
:103F3300017005125D7B8003123F9F74FE650A705A
:103F43000474FF650B60527E007F008047EEF8EF3C
:103F5300F9E875F00EA4F8AAF075F00EE9A42AF9B1
:103F6300E8245FFAE9341BFB850882850983E06452
:103F730001701B8A828B83A3E0640170148A828B95
:103F830083A3A3E0650A7004A3E0650B7003121317
:103F930014123FA7123FB440B402471A12135C8AAB
:103FA3000A8B0B22123FACFF22EE24010EEF3400EA
:103FB30022902AE6123FBD022E68E493F87401931F
:103FC300F9C322EA2408F8EB126143E06401227486
:103FD300F3120A56890C8A0A8B0B750800750900BF
:103FE3007E007F00801B1242FB650C7011AC0AAD92
:103FF3000BAA82AB8312131AE96003124DAC123F72
:10400300A7123FB440E0AA08AB09023E3574F1128F
:104013000A56890D8A0A8B0B8C0E750C00750800E5
:104023007509008005050C124DAC902AE6123AA4DE
:10403300E50898E509995038E50875F00EA4F8AA43
:10404300F075F00EE509A42AF9E8245FFEE91240B1
:104053007A650D70D2AC0AAD0BEEFAEFFB12131AB0
:10406300E960C4E50CC3950E40BBEEFAEFFB800498
:104073007A007B00022D76341BFF022FC674F612E2
:104083000A567508007509007808120F6E1240C1B0
:104093001242D8E9A42AF975832A7582E2E49328A7
:1040A300FCA3E49339FD7A417B00121D34740212A0
:1040B3000FB6E9FE600312134AEEF9024DD8902AB7
:1040C300E21237FE902AE62274F6120A5674FE12A2
:1040D30010181240EF120F6E750802750900780868
:1040E300120F6E7C007D007A41024DCD85188285CA
:1040F3001983E4F0A312435785820885830978085E
:104103002274F4120A5674E71210187E007F008599
:1041130018828519838582088583097808120F6EB2
:104123007508028E097808120F6E7C007D007A41B3
:1041330012422C120FB6E9600302420E8E0A8E0B56
:1041430080587402121230AC82AD83740D12123097
:104153001256EC121362740A121230E060397411B1
:104163001212308582088583097808120F6E741243
:10417300121230E0FD7411121230E0FC74041212BA
:1041830030AA82AB83740D121230E0F912130E744D
:1041930002120FB6123FA7122C9C85188285198331
:1041A30012421F5066740B121230858208858309F0
:1041B3007808120F6E902AE2120DD4902AE212426E
:1041C30017E8850AF0A4C8AAF0850BF0A42AFA859B
:1041D3000AF01242ED12422C120FB6E970B9740ABA
:1041E300121230E4F0740C121230E07003024145F5
:1041F300740A1212307401F0740D121230124DA8A9
:104203007402121230124D24024161EEFAEFFB7474
:1042130019024E2EE493F8740193F922125121C32B
:10422300E50A98E50B99227A227B00121D46740455
:104233002274F5120A5674F0121018851882851923
:1042430083E4F0A3F0FE805A1242FB64FF605085C2
:104253008208858309750A007808120F6A123D39AE
:104263007405121230AA82AB83126132120FB67434
:10427300021212308582088583097808120F6E9026
:104283002AE2120DD4740412123012432E902AE241
:104293001242D81242ED124339120FB612431E12C4
:1042A3003FACFF123FB440A08518828519838582F5
:1042B300088583097808120F6E750802750900785E
:1042C30008120F6E7C007D007A41124339120FB63B
:1042D3007410023BCA124217E88508F0A4C8AAF07A
:1042E3008509F0A42AFA8508F022E9A42AF97402C0
:1042F30028FCE439FD7A4122124300E022EEF8EF74
:10430300F9E875F00EA4F8AAF075F00EE9A42AF9FD
:10431300E8245FF582E9341BF58322851882851929
:1043230083E02401F0A3E03400F022E0F508A3E0E9
:10433300F509221243417B00121D40740422EA75E1
:10434300F00BA4FAACF075F00BEBA42CFBEAFCEB3E
:10435300FD7A232212435B22F0851882851983227A
:10436300E8FAE9FBEA75F00EA4FAACF075F00EEB8F
:10437300A42CFBEA245FFAEB341BFB22EAF0A3EB49
:104383001243DF22C082C08374F31210181245480F
:104393006402700E1243CD1212301243D71212660A
:1043A300800CEAFCEBFD74031212301243B4024E8C
:1043B300151243BB12126C22AA82AB8312246085AE
:1043C3001882851983AA82AB83228A828B83125136
:1043D30021740122E8F0A3E91243DF221243E3220E
:1043E30012435B80E074F7120A5674F3121018EC50
:1043F300FEEDFF7404851882851983F0740B121285
:1044030030EAF0A3EB123634F508601D74038E8294
:104413008F83A3A3A3A3A3A3A3A3F0121230AC82FD
:10442300AD83EEFAEFFB12234CA908023E80C08253
:10443300C08374F31210187404851882851983F0ED
:10444300740B12123012437F1212727401024E1750
:104453001256F0740D2274F6120A5674F3121018E1
:10446300900332E0706E7404851882851983F0908E
:1044730003711243D1121230124D24121680EAFC3A
:10448300EBFD740312123012354A12168C8A088B14
:1044930009A808A9097401121230E0687003A3E0A7
:1044A30069602B74FE68700374FF696021740112E4
:1044B3001230124D247403121230AA82AB831216E7
:1044C30092851882851983AA82AB831212787401AC
:1044D300900332F0740D024DD5C082C08374F31281
:1044E3001018124548FC74026C701E1243CD121250
:1044F30030E8F0A3E9125F6C704885188285198350
:10450300AA82AB83121278803974036C7011EAFCAF
:10451300EBFD74031212301243B4E9702580DB748F
:10452300016C70128A828B83124DA8740B121230A5
:10453300E8F0A3E9800B740B12123074FEF0A3743D
:10454300FFF0024E157404851882851983F08A8260
:104553008B83A3A3A3A30239E874F5120A56780048
:104563007900880888097C007D0080031239BC909B
:104573002AE6E493FE740193FFC3EC9EED9F502162
:10458300ECFEED1245AB60E4AE08AF0974012EF505
:1045930008E43FF509EA6E7002EB6F70CFA882A9B9
:1045A30083E8FAE9FB023BCDFFEE75F00EA4FE852E
:1045B300F00A75F00EEFA4250AFFEE245FF582EFF3
:1045C3001245C722341BF583E064FF22C082C083F7
:1045D3009003467496F0A37415F09003487490F01A
:1045E300A37415F090034C74F2F0A37413F0024E0D
:1045F30020C082C08390034A748AF0A37415F0022A
:104603004E2074F7120A56EAFEEBFF900380E0FA9D
:1046130074086A601974046A60148E828F83E0647C
:10462300017046124B4C1257EFE06406703B8E82CA
:104633008F83A3A3124DA874FE68700374FF69608F
:1046430028900371E0687003A3E069700BEE2415F2
:10465300F582EF1262FD600AEEFA12164AE9F508D6
:10466300800AEEFA12165080F47508C2EEFAEFFBD8
:10467300121CD4A908023E8574F2120A568A088BCA
:10468300098A828B83A385820A85830B8A828B8323
:10469300E0F8850A82850B83E028FAE43400FB12F4
:1046A3001CCE8A0C8B0DAE0CAF0DEE7001EF605C6F
:1046B300850882850983E0FC7D007900121C448E05
:1046C300828F83A3A31261571216868E828F83A3D0
:1046D300A3A3A3124B65850882850983E0F8EE281E
:1046E300F8EF3400F9124B4C125104C0E012616729
:1046F300D0E0F0121698EE240E12616AE9124CDE35
:10470300E0C0E0EE241112616AD0E0F0EEFAEFFBB4
:104713008005740D120FB67F06020D2F74F4120A72
:104723005674EB1210188A088B098C0A8D0B9003B0
:104733008178081211DEE99003871249D71211DE3E
:104743007405121230E9F074041212307401F0741B
:1047530007121230E4F07402900380024E2B74F4BB
:10476300120A5674EB121018EAFEEBFF900342E0B4
:104773007002A3E070677A077B00121CCE9003429D
:10478300124B65900342E07002A3E0604C90034239
:10479300125D778F838E827407120ECB8E828F8386
:1047A30078081211ED85188285198378081211DEB5
:1047B3008E828F83A3A3A3A3E0C0E07405121230FB
:1047C300D0E01264FDC0E07404121230D0E0F07443
:1047D3000712123012492180067910800279017480
:1047E30015024E2EC082C083900342E07002A3E004
:1047F30060109003421256EC121CD4900342E4F072
:10480300A3F01215BA12178E024E2074F3120A5631
:1048130074EB121018ECFEEDFF74221212307808BC
:104823001211ED7426121230E0FC7427121230E0DC
:10483300FD7428121230E0F50C740F6C7005740FC0
:104843006D6012901C23E06402700579C102491C5B
:10485300ECC39D40F690038178081211DEE99003C2
:1048630087F0EC900385F0ED900386F0E50C900360
:1048730088F074FF6A700374FF6B701F901C31E043
:1048830064FF7004A3E064FF7005121C50800C9059
:104893001C31124CD7E8F0A3E9800790037EEAF0BD
:1048A300A3EBF0EE7001EF6017EEFAEFFB1218487E
:1048B300E96401700BEEFCEFFD7A927B0312234C4B
:1048C300900371E4F0A3F0900374F0A3F0900391CC
:1048D300F0901C23E06402700A740F900385F0903B
:1048E3000386F07405900380F07404121230E4F030
:1048F30090038178081211ED851882851983780851
:104903001211DE900387E0C0E07405121230D0E08C
:10491300F074071212301249217415023E32E41268
:104923004926221243E31223CA229003CCE0F91250
:104933001D7C22C082C083900341E07003121EF0ED
:104943001213B6024E20C082C083900341E0700769
:10495300E4901BB0F080317401901BB0F0900341E0
:10496300E064FF60237C41E0C394415002E0FCEC2F
:10497300FAE0C39AF0EC75F0E8A4CCAAF075F00362
:10498300A42AFD7A801249977AB07B1B79411223BE
:10499300B2024E207B009003CCE0F9121D7022740A
:1049A300F4120A5674EB1210188A088B098C0A8DBC
:1049B3000B74019003801249D71211DE7405121291
:1049C30030E9F074041212307403F07407121230D9
:1049D300E4024E2B124357780822124926741522FB
:1049E30074F4120A5674FC121018E985188285199A
:1049F30083F0EAFEEBFF90037E125D771215B48A13
:104A03000A8B0BEA7001EB700579CA024B47EA2463
:104A130009F508EB124DB4850882F583E064FE7056
:104A230004A3E064FF700579C3024B4790037E1231
:104A330056EC1217F4E50A240CF582E50B124CCF61
:104A4300124CF474021212307402F0740112123018
:104A5300AA82AB8312170A8A0A8B0BAE0AAF0BEE3C
:104A63007001EF7003024B3E124B4C124DA87406BB
:104A730088828983F0A3A882A98390036BE088824C
:104A83008983F0EE2417F582EF1255F8EE241A12FB
:104A9300616A124B65EE241312616A740112610498
:104AA3007440F0A3E412511A8E828F83A3A3E8F01B
:104AB300A3E912618DE9FE6003024B407409900380
:104AC30080F0AA08AB09794B124CC9124DA8900388
:104AD30074124D24900373E0FA851882851983E0DC
:104AE3006A600CE090037312511679E11223B290BD
:104AF3001C11124DA8901C13E0687003A3E06960B9
:104B03001A900344124D24901C131256EC1216B043
:104B1300901C13125D777A011249977A007B041275
:104B2300492D901C1312432E7402780812115AACAB
:104B330008AD09FA7B0412499980027E10E49011B2
:104B430011F0EEF97404024E2E124B5022EE240B98
:104B5300F582EF3400F58322124B561256F0888209
:104B63008983EAF0A3EBF02274F1120A5674E2127D
:104B73001018851882851983ECF0A3EDF0EAFEEB9B
:104B8300FF742D121230E0F50E900380E0FA7404E6
:104B93006A600574086A700579C2024CC18518827F
:104BA300851983E0FCEEFA1215B48A088B09EA70C2
:104BB30001EB700579CA024CC1EA2409F50AEB122C
:104BC300617CE064FE7004A3E064FF700579C302B6
:104BD3004CC1740390038012511679501223B2AA68
:104BE3000AAB0B794B1223B2851882851983124CB9
:104BF300D7124D24E5082402F50CE50912618690CD
:104C03000373124CEC900374124D24E50E90036B66
:104C1300124CF474CE550E4480C0E074121212305C
:104C2300D0E0F0E508240CF582E509124CCFF074CE
:104C33000F1212307402124CEC7407121230E8F0A7
:104C4300A3E9124D2A7410121230E8F0A3E912619D
:104C53001AC0E07405121230D0E0F0741B12123047
:104C6300E4124CDEA3A3E0900386F07A867B0379FB
:104C730054124CC9A3A3A3E0900385F07A857B0368
:104C830079471223B2900385E0C3940F502474052F
:104C9300121230E0C0E07402121230D0E0F074045B
:104CA3001212307401F07402121230AA82AB831212
:104CB30023D67405121230AA82AB831223B8741E52
:104CC300120FB6022D761223B2023150125464042D
:104CD3009003912212512190037E22124CE222F082
:104CE300850882850983A3A32212510CF8A3E0F956
:104CF30022F0EEFCEFFD7A927B0312234C22C0825A
:104D0300C083EB900388F01215A2024E20F8EF1235
:104D13004F1A8882F583E022124D92A3E02212609B
:104D2300F4E8F0A3E9F022124D9D024CEF74F71260
:104D33000A5674F8121018EAFEEBFF79009003800C
:104D4300E06408704185188285198374FD126159E6
:104D53001216807402121230124B6574051212304F
:104D6300E4124D8EE0C0E07404121230D0E0124D14
:104D730099C0E07406121230D0E0F07407121230BA
:104D83001251151216EC7408023E82124D9222F053
:104D93008E828F83A322F0022FC612435BE022850B
:104DA300188285198312512122E5082401F508E5AB
:104DB300093400F50922120F6E750802750900788F
:104DC30008120F6E7C007D007A22124339120FB64F
:104DD3007402120FB67F02020D2FC082C0839003AC
:104DE30052747CF0A37414F09003EF743AF0A3743C
:104DF30017F090035674ACF0A37414F09003587436
:104E03007CF0A37414F090035A74B2F0A37414F0FA
:104E1300800B740B121230124453120FB6D083D08E
:104E230082020F4E740780031249DD120FB67F040E
:104E3300020D2F74F0120A568A828B83126171EE6F
:104E43007001EF7003024F17EA2402F8EB124F1AB6
:104E5300900312E07002A3E0601388828983E0F973
:104E6300EEFAEFFB9003121257EF1225CAEE240657
:104E7300F8EF3400F9880A890BEE2409080808EFD3
:104E83003400F9880C890D8882F583E06402704B45
:104E9300850A82850B83E054026052850882850966
:104EA30083E064E96047EE240A08EF1269F5700AAB
:104EB300901C25E00488828983F0E014F074048553
:104EC3000C82850D83F0901C261260FEE8F0A3E9A6
:104ED300126A0A7001EB70031264E2850C82850D7D
:104EE30083E0FA74026A600574066A7027850A8291
:104EF300850B83E0A2E0501C850882850983E0F9D5
:104F0300EEFAEFFB1224BA850A82850B83E054FE86
:104F1300F0A3E0F00230793400F98808890922749B
:104F2300EC120A5674DD121018EAFEEBFF8C128D98
:104F3300137437121230780C1211ED7510007405CA
:104F4300121230AC82AD8312246CEE240BF508EF01
:104F5300124DB47405121230E0A2E5501975100118
:104F6300AC82AD838508828509831256EC1224C670
:104F7300E960030250BD7405121230E0A2E650222C
:104F83007406121230E0540370187405121230E0E4
:104F9300540CFA740C6A600A74086A60057511018E
:104FA30080037511007405121230E05403FA740281
:104FB3006A7013AC82AD838508828509831256EC2F
:104FC30012244E0250BDEE2406F50AEF122CA474EF
:104FD300016A7037E51160031250F3740512123041
:104FE300A882A9837403121230E8F0A3E912511ABC
:104FF300851882851983125104C0E074021212309D
:10500300D0E012511612259E0250BDEA60030250F1
:10501300BD900368E06401700C850A82850B83E010
:1050230070030250BD7422121230740212511A74AA
:105033001A121230124D24E5116008740512123051
:105043001250F37405121230E0540C64047073EEC2
:10505300240FF582EF1262FDC0E07417121230D0F4
:10506300E0F0900314E07002A3E0604E1216868A0B
:10507300088B09A808A909741A121230E068700392
:10508300A3E0697035780C120F66E510F50878080F
:10509300120F727812120F6EA911740C121230AC27
:1050A30082AD837421121230AA82AB83900314124F
:1050B30057EF1225CA7407120FB67423120FB602E4
:1050C3003D23780C120F667812120F6E90037E1236
:1050D3000DA7A9107422121230AC82AD83740D1285
:1050E3001230AA82AB831224AE7408120FB680CAA0
:1050F300AC82AD838508828509831256F012245A47
:1051030022E8F0A3E912510C22F0850A82850B8371
:10511300E022E41243DF2212314F12512122E00236
:105123004CEFC082C083121E2A024E20C082C0836D
:10513300121E30024E20C082C083121E36024E2041
:10514300C082C083121E3C024E2074F7120A5674AA
:1051530009121230E0F5087808120F72121E487413
:1051630001023E82C082C083121E4E024E20C082C4
:10517300C083121E54024E20C082C083121E5A02E4
:105183004E2074F7120A56EAFEEBFF7401697010A1
:1051930079001214BE7C1E7900EEFAEFFB12146A3A
:1051A300023E8574F4120A5674F91210188A088B99
:1051B300098C0A8D0B74131212301256EC901133B2
:1051C300E07002A3E06027E9851882851983F074F3
:1051D3000112123078081211DEEAF8EBF9740512A5
:1051E30012301243D79011331257EF1225CA024ED1
:1051F30027C082C083121E8A024E2074F7120A56F9
:10520300901BB3E0F97F00800B12543D540D6401F1
:105213007001190F1253FA5003E970ED023E8574C1
:10522300F7120A56901BB4E0F97F00800B12543D2D
:10523300548D64817001190F1253FA5003E970ED14
:10524300023E8574F3120A56890CE975F006A4F838
:10525300A9F0740C28F508E439F509EA2508FAE4FD
:105263003509FB121CCE8A0A8B0BAE0AAF0BEE700C
:1052730001EF6027AC08AD097900121C44124B4CB6
:10528300E50CF0EE2508F8EF3509F98E828F83A33C
:10529300A3A3A3A3A3A3A3A3124D24EEFAEFFB029C
:1052A3003E3574F6120A56EAFEEBFF121446901BC3
:1052B300B2E0FAE9C39A400990034E1256EC121475
:1052C3004CEE2402F8EF124F1A900350E0888289C3
:1052D30083F0900350E0041252EA121452850882BC
:1052E300850983E00240BDF0EEFAEFFB22C082C0E5
:1052F30083790090034E8001091256EC8A828B83D6
:10530300E5827002E58370F0024E2074F7120A56AC
:10531300EAFEEBFFEE7001EF605E90034EE0700279
:10532300A3E0605490034E125A467A007B00800F2C
:10533300AA82AB83125A46E5827002E5836039EE96
:1053430065827003EF658370E78E828F83124DA8A9
:1053530090034E125D77EE6C7002EF6D7005900353
:105363004E80048A828B83124D24EEFAEFFB1225C2
:105373006EEEFAEFFB121CD4023E85C082C083900E
:10538300034EE0F8A3E08003ECF8EDF9E87001E9DF
:105393006009125D73EC7001ED70ED8A828B83E41A
:1053A300F0A3F0E87001E9600688828983800390A6
:1053B300034E124B65024E2074F7120A5690034EA9
:1053C30080048A828B8312614D7001EB60227F001F
:1053D30080010F1253FA50EAEF75F006A4FCADF00A
:1053E300EA2CFCEB3DFD74101254516970E4800407
:1053F3007A007B00023E8512545EFCEFC39C22744C
:10540300F7120A56780080010812545AFDE8C39D2A
:105413005025E875F006A4FEAFF0EA2EFEEB3FFF41
:10542300EE2410F582EF1262FD6970DCEE2411F5B3
:1054330082EF1262FD4CF0023E85EF75F006A4FC8C
:10544300ADF0EA2CFCEB3DFD7411125451222CF506
:1054530082E43DF583E02212545E22EA240BF582B6
:10546300EB3400F583E02274F6120A561215367AED
:1054730000801B8A087509007403780812115A12F8
:1054830062DC125EA8A3A3A3A3A3A3A3F00A902A9A
:10549300F612683D40DD7A00801A8A0875090074A7
:1054A30003780812115AE50824EAF582E509341A4B
:1054B3001261550A12683A40E1902AE8E493900396
:1054C3005CF01254CB024DD87CE87D037A107B004C
:1054D3009003CCE0F9121D762274F0120A5674FD83
:1054E300121018EAFEEBFF89088C091215188A0AB4
:1054F3008B0BA80AA90B900371E0687003A3E06902
:10550300700579000255EDAC087902EEFAEFFB1253
:105513001512E960EDE508F50A780A120F72125BBD
:10552300B4120FB6E960030255EBE508C2E5F508CE
:10553300900351E0F50C900371125D7F780A120F0E
:105543006E7D017C00900351E0F9AA0AAB0B1214A3
:10555300CA7402120FB6E9FA900351E004F0EA604C
:10556300030255EB74011212307406126194EA704F
:1055730001EB60701255F2E50A241AF582E50B126D
:10558300616D124B65E50A125D6EE50B12616D12DA
:1055930043D188828983F074785508126301A3A3E9
:1055A300E50CF0EE88828983A3A3A3F0EF888289B8
:1055B30083A3A3A3A3F0E488828983A3125602746E
:1055C300FD126159E5096013C3941E500EE50A24C8
:1055D30013F582E50B12616DE509F0AA0AAB0B1214
:1055E300138C80067910800279C77403023076EA3F
:1055F3002417F582EB124B567401F012168022A386
:10560300A3A3A3F0850A82850B83A3A322C082C030
:10561300839011D4E06401901C247006E0FC7901AE
:105623008004E0FC79037A007B0012146A024E20A6
:1056330074F4120A568A088B09E9FE121722E960EC
:10564300077AFF7BFF0256CE901C23E06402706E44
:1056530079001256D1EA7001EB60421269F0FC74D2
:10566300016C7022900370E08A828B83A3A3A3A3AF
:10567300F08A828B83A3A31256EC74FE6A700374C0
:10568300FF6B6010804574036C601A74046C7004C3
:105693007AFE80AF88828983E0640270089003BD3C
:1056A300E06402701990037E125D77AA08AB0912B9
:1056B30017D0EA7001EB6006AA08AB09800DAA08AF
:1056C300AB099003521257EF1225CA024E31AA08B2
:1056D300AB091256D922121518EEF912150C22EA4B
:1056E300240BF582EB3400F5831256F022E0FAA383
:1056F300E0FB2274F7120A56EAFEEBFF1212A2E94C
:10570300700AEEFAEFFB1212A8E96006EEFAEFFB5D
:1057130080047AFE7BFF023E8574F2120A568A08E1
:105723008B098C0A8D0BE9FE7F00121722E97900A1
:1057330060030257E5AA08AB09126B777002E58391
:105743006017A3A3A3A3A3E0FA74026A704F9003A4
:10575300BDE0640270030257E3AA08AB0990035843
:105763001257EF1225CA1212AE8A0C8B0DA80CA980
:105773000DE87001E96069E82405F582E91262FD2C
:10578300A2E0505C750C01A2E1501C7901AC08AD9C
:1057930009AA0AAB0B12149AE9700F804374036AC7
:1057A300703E750C028003D2E1F0900371E0650A4C
:1057B3007004A3E0650B700E7C1EEEF9AA08AB091A
:1057C30012146A0F801AA90CAC08AD09AA0AAB0B14
:1057D30012149AE9700A0FEEF9AA08AB091214BE63
:1057E300EFF902471AEEFAEFFB9003541257F32234
:1057F300E0F8A3E0F58388822274E8120A5674F075
:105803001210188A148B158C088D09742812123003
:10581300E0F510A3E0F5119003F5E07002A3E0605A
:1058230012126B7D7002E5836009A3E070057900B5
:10583300025A2CE514241DF516E5153400F51785D9
:105843001682125A44A3E0F50C88828983A3A3E04D
:10585300F50B88828983A3A3A3E0FA88828983A3B3
:10586300A3A3A3E0F9EAFEE9FFAA08AB091214C453
:10587300E9FA125A51E02AF50A530C78E514240B7D
:10588300F50EE5153400F50F7808120F6E7D001242
:105893005A31120FB6E9FA74036A6092EA704290C1
:1058A300036AE0601EE50CF50D780D120F727901A5
:1058B300AC08AD09850E82850F831256EC125BBED0
:1058C300120FB6E50CF50D780D120F72125BB412C0
:1058D3000FB6E9700C85108285118374FFF0A380E5
:1058E30049851082851183E064FF7004A3E064FF9F
:1058F30060399003BDE064027003025831850E8263
:10590300850F83E0FAA3E01257EB1225CAEA650874
:105913007003EB650960030258311257E81225CA78
:10592300851082851183EAF0A3EBF07808120F6EDD
:105933007D01125A31120FB6A90CEEFAEFFB1215C4
:10594300188A088B09A808A909900371E0687003F5
:10595300A3E0696003025A23EEFAEFFB123592705B
:1059630002E5836023A3A3A3A3E0FA74016A60059D
:1059730074026A7013851882851983AC82AD83EE35
:10598300FAEFFB12124E8014121680EAFCEBFD852F
:105993001882851983AA82AB8312234C85148285CE
:1059A3001583A3A3A3A3A3A3A3A3E06401701AE590
:1059B300142415F582E51512616D125D77740812D2
:1059C3001230AA82AB8312234C8516828517831269
:1059D30057EFA3E04430F5087808120F72740112F0
:1059E30012308582088583097808120F6E740B12B2
:1059F30012308582088583097808120F6EE50BF54E
:105A0300087808120F727900EEFCEFFD850E82858F
:105A13000F831256EC1214947406120FB602583107
:105A2300125A51E50AF0121698741002681BAC0A58
:105A3300A90B850E82850F831256F01214CA7402C5
:105A430022F5831251218001F988828983228516E8
:105A5300828517831257F3025B9A74EE120A567407
:105A6300F01210188A108B11EA241DF50EEB340086
:105A7300F50F850E82125A44A3A3E0F50C888289A0
:105A830083125B8FE0FBECFEEBFF88828983A3A389
:105A9300125B8FA3A3E0FAE4CAFBECF508EBF5096C
:105AA30088828983A3A3A3A3A3A3A3E0F50A88827F
:105AB3008983A3E05478F50BA2E45016E82408FC8C
:105AC300E93400FD7408121230AA82AB8312234C0E
:105AD3007A08E50BA2E55024EAF8850E82850F8348
:105AE300E028F8A3E03400F9740828FCE439FD85C4
:105AF3001882851983AA82AB8312234CAC0AA90CA2
:105B0300EEFAEFFB1214D0E9FA74036A607990039A
:105B130071E06E7003A3E06F605EEA7054E50BF50D
:105B23000D780D120F72125BA0120FB6E970587840
