:020000040000FA
:060000000211CB0207AA69
:03002B0002265456
:0300430002101C8C
:03004B00020E831F
:030053000206FCA6
:03005B00020E9200
:03006300020E9EEC
:10008300020746010101010503010F10FEFF0300F2
:100093000300030003000300030003000300030045
:1000A30005000A00140028004F009E000000191AE2
:1000B300191A191A191ACF18C918191A6729000019
:1000C3000000A328000000000C0000000C00010A3F
:1000D300D007AB0701F004FF01010033110000005A
:1000E3008E11E80364006400B801020200001000EE
:1000F300050207011E02051E020A03B80B02803E19
:100103000103320002019287010A01E00202063074
:10011300313233343536373839414243444546006A
:10012300286E756C6C20706F696E74657229003F60
:100133003F3F000000803FF9021550B743BA51001A
:1001430000204100E7DB2E0000A040100000000863
:100153000000000A0000001211EA60461212176044
:100163003DE9687008F618F618F618F622748067E9
:10017300F712018E090909748067F72212121760BA
:100183001D1211EA7005191919801A12105F701FD8
:1001930012109EC37003E667331919194007181824
:1001A300182208080874FFF618F618F618F6221233
:1001B300109E601712125F702192F012125570197F
:1001C300501720F014080808090909E7F61819E779
:1001D300F61819E7F61819E7F62212125560E6E841
:1001E30069701F0808E62480F608E436F618547F81
:1001F300B47F0CE654806007F6E418F618F622186C
:100203001822E9C6CC08C6CD08C6CE08C6CFC0E0C2
:10021300E8C0E0EAC0E0EBC0E009E9F809E7FA0961
:10022300E7FBE6F918E6F8C3EC98ED99EE9AEBC212
:10023300E7F5F0EFC2E795F0500E600CEBCFFBEA69
:10024300CEFAE9CDF9E8CCF8EAA2E7D2E7FAEB3344
:10025300FB13F5F0EEA2E7D2E7FEEF33FFC5F01391
:10026300A2E730E601B313C5F0C3C0E0C0F07F00DE
:10027300C39BFB605B9418600C401AD0E023F9D059
:10028300E0F802035D8AF0E9486003D2F0E4AFF0DE
:10029300FAF9F8803BEB30E40D89F0EA6003D2F021
:1002A300E4AFF0F9CAF8EB30E30D88F0EF6002D267
:1002B300F0AFF0E4CAC9F8EB54076014FBC3EA13C8
:1002C300FAE913F9E813F8EF135002D2E0FFDBED7C
:1002D300D0E0C0E030E739C3E49FFFF5F0EC98FCD1
:1002E30042F0ED99FD42F0EE9AFE42F0D0E0F9D0F3
:1002F300E0F8E5F0607AE923F9EE20E742D80280DE
:1003030067C3EF33FFEC33FCED33FDEE33FE80EADE
:10031300EC28FCED39FDEE3AFED0E023F9D0E0F80D
:100323004002801BC3EE13FEED13FDEC13FCEF1331
:100333005002D2E0FF08B800067F7F74FF802EEFE3
:100343003350178CF020F00260100CBC000C0DBD74
:1003530000080EBE000408E860DFE933E813FFEE8F
:100363002313FE4F4D4C8008E95480FFE4FEFDFC4F
:10037300EE33EF33F47004FCFD7E80D0E0FBD0E07D
:10038300FAD0E0F8D0E0CFC618CEC618CDC618CC48
:10039300C6F9221212177004181818221211EA70E3
:1003A3000D74FFF61819F61819F61819F622E75402
:1003B3008066F6121255700F12125F70F014F60871
:1003C300F608F608F680D112125F700CF608F608EC
:1003D300768008E6447F80EC1210A1700C12106244
:1003E30060BFE65480F6E480BB12106270051919F1
:1003F3001980A5E869700C763F18768018F618F610
:10040300E8F922E6CDC0E018ECC0E0E633CD33CD09
:10041300D313F6E719FCE7191933CC33C3947F40A0
:100423000ECD9D502408E65480F6E418F6800FF4B0
:10043300043D14501408E6447FF6187680E418F659
:1004430018F6D0E0FCD0E0FD22CCD313CCFD18E4A9
:10045300C6CBC0E018E4C6CAC0E00808ED08C6333E
:10046300E613F618E433C675F003C3CA97CA09CB7B
:1004730097CB199C40047D08802EBD000302053FE5
:1004830016B6FF050606081618C3CA33CACB33CB04
:1004930033CA27CA09CB37CB193CC37D08803E1822
:1004A3007D0820E75CC633C6CA33CACB33CB33DD02
:1004B300F1D5F0EB30E77BCA97CA09CB974ACB1942
:1004C3009C406F4B7025E620E0218066187D08C3B1
:1004D300CA97CA09CB97CB199CD3C633C6CA33CAAA
:1004E300CB33CB3350C9DDE7D5F0E1D3E4C636C611
:1004F30008C636C608C636C608C636C618181880D3
:1005030031C3CA97CA09CB97CB199CB34097C6335B
:10051300C6CA33CACB33CB33DD34D5F02EC6A2E003
:10052300C640C8CA27CA09CB37194A70BECB3CB4E8
:1005330080B90808E63308E633601F181818D0E0BE
:10054300FAD0E0FBD0E0FCD0E0FD22187D08CA27FA
:10055300CA09CB37CB193CD3808013F618E4B67F96
:1005630011F618B6FF0EF618C60470D20808768086
:1005730080CAF618F618F680C500121217604F12DB
:1005830011EA6012E7548066F612105F70111212BE
:100593005F703B090909F4F618F618F618F62212EB
:1005A300109E701512125508080860EAE6447FF69B
:1005B30018768018E4F618F62212125560161212F5
:1005C3005F7012E4F608F608F608E65480F60909A7
:1005D3000918181822EAC0E0EBC0E0ECC0E0EDC057
:1005E300E0E687F0A4FBACF008E687F0A42CFCE47B
:1005F30035F0FA1809E687F0A42C4B60027401CA9F
:1006030035F0FCE433FB09E687F0D2F7A42CCB35B5
:10061300F0FC1908E687F0A42BCC35F0FBE433FD9E
:100623000819E687F0D2E7A42C4ACB35F0CD340085
:10063300FC09E687F0D2E7A42DCC35F0FDE433FACC
:100643000918E687F0D2F7A42CCD35F0CA3400FCA4
:1006530008E687F0D2E7D2F7A42ACC35F07A7E20D9
:10066300E70B0ACB33CBCD33CDCC33CC33CB3350A9
:10067300147004ED30E00ED2F1E4CD3DCDCC3CCC92
:100683003B5005DA05C2F1EB547FC63308E63392DB
:10069300F0FBE73309E733C39A502D2B70190C0D88
:1006A3004C4D70151806E608C333700D20F10AA2ED
:1006B300F013F6E418800B4024E4F630F002768061
:1006C30018F618F618F68024D33B14501074FFA2C2
:1006D300F013F6187680E418F618F6800FA2F013DC
:1006E300F618E63303F618ECF618EDF6D0E0FDD075
:1006F300E0FCD0E0FBD0E0FA22C0E074F2120ABDC5
:10070300E5A7FAE5A1FBEA5B5410600812216953DF
:10071300A1EF802AEAA2E0C0D0EBA2E092F012118E
:1007230029158182F05017906198E0FA901696E0AF
:10073300C39AA2D265D0335002EAF053A1FE7F01DF
:10074300020B74C0E074F2120ABD9061A4E0FA7562
:100753009B00E5915A540860087591F71221AB800C
:100763002AE5915A541060087591EF1221B1801B4C
:10077300EAA2E0C0D0E591A2E092F012112915811E
:1007830082F05007E0C2E0F01222D19061A3E0FAB8
:10079300E5E95A5404600E1222A775E9FB906193B0
:1007A300E0A2E640F28097C0E074F2120ABD9061C5
:1007B300A5E0FAE5BF5A5404600653BFFB1222E9D1
:1007C300020741C3E498F8E499F91208078026C3A5
:1007D300E49AFAE49BFBE920E7E9120807E498F8B6
:1007E300E499F922C3E498F8E499F9120807E49824
:1007F300F8E499F9C3E49AFAE49BFB22EB20E7CFF0
:10080300E920E7E0B90010BB0008E88AF084F8AA01
:10081300F022E4FBC8FA22EB70227B10C833C8C96C
:1008230033C9335007C39AC3DBF280069A50012AB7
:10083300DBEAC833F4C8C933F4C9FA2275F008E413
:10084300C833C8C933C933C99AC99B5004C92AC913
:100853003BD5F0ECFBC833F4C8E4C9FA221208A074
:1008630020F01430E72B74FFFCFBFA747F8022E442
:10087300FCFBFA7480801AB48008BC00F2BB00EF62
:10088300800F50EBF9E4C39AFAE49BFBE49CFCE48D
:1008930099C6CC18C6CB18C6CA18C6F922E4C9C66D
:1008A30008CAC608CBC6D3330308CCC63392F0C3F9
:1008B300947F402E94184019C9B90704CACBCC229F
:1008C3005025C309CA33CACB33CBCC33CC33D9F489
:1008D30022F4600DC9CCC313CB13CBCA13CAD9F608
:1008E300CC22E4FCFBFA2214FCFBFA22080808EAF7
:1008F300C0E0EBC0E086F0E7A4FA180986F0E7A4AD
:100903002AFA180986F0E7A42AFA180986F0E7A458
:100913002AFA1986F0E7A4FBE5F02AFA190886F00B
:10092300E7A42BFBE5F03AFA190886F0E7A42BFBC2
:10093300E5F03AFA18180986F0E7A4C5F02BFBE4B2
:100943003AFA1908E7C5F0C6A426F6E5F03BFBE43E
:100953003AFA1886F0E7A4F6E5F00826F6E43B0831
:10096300F6E43A08F6D0E0FBD0E0FA22080808E6FD
:1009730030E7111210DC120987080808C64480C644
:1009830018181822181818E9799EC608CAC608CB81
:10099300C608CCC6C370207996CACBCC7019798EA1
:1009A300CBCC70137986CC700EF9802ACA33CACBAC
:1009B30033CBCC33CC331930E7F2CCCBCA3350141E
:1009C3007004EA30E00DE4CA3ACACB3BCBCC3CCC52
:1009D300500209C3E913C6CC182313C6CB18C6CAE1
:1009E30018C6F922E4CFC0E0E4CEC0E0E4CDC0E015
:1009F300E4CCC0E075F020C3E633F608E633F6082E
:100A0300E633F608E633F6181818EC33FCED33FD3D
:100A1300EE33FEEF33FFC3EC9709ED9709EE970929
:100A2300EF97191919400FFFEC97FC09ED97FD0992
:100A3300EE97FE191906D5F0BEECF709EDF709EEAE
:100A4300F709EFF7191919D0E0FCD0E0FDD0E0FE6B
:100A5300D0E0FF222518C582C0E0E51934FFC58325
:100A6300C0E0E518C3958224F8F8E4C5A885831986
:100A7300858218C5A8E8CEF0A3E520F0A37808E6A0
:100A830008F0A3DEFAEFF0A3E58124FAF8E608F014
:100A9300A3E608F0A3E608F0A30808E608F0A3E637
:100AA30008F0A315811581D0E0FED0E0F81581157B
:100AB300811581E8C0E0EEC0E022C0D02518C582D0
:100AC300C0E0E51934FFC583C0E0E518C39582246F
:100AD300F310AF08858319858218800885831985EB
:100AE3008218D2AFC8F0A3E9F0A3EAF0A3EBF0A316
:100AF3007908E709F0A3D8FAECF0A3EDF0A3EEF040
:100B0300A3EFF0A3D0E0F0A3D0E0F0A3D0E0F0A3F4
:100B1300E520F0A3E5F0F0A322121240B90003028E
:100B23000B5EE490030178C679198002F0A3D8FC28
:100B3300D9FA901BC6AA82AB8390008678D5790137
:100B43008015E493A3AC82AD838A828B83F0A3AA3E
:100B530082AB838C828D83D8E9D9E7758231758323
:100B6300CB7403120F2B75824F7583267400120FFB
:100B73002B851983851882E0C0E0A3E0F9A3E0FA8E
:100B8300A3E0FBA37808E0F608A3DFFAE0FCA3E008
:100B9300FDA3E0FEA3E0FFA3E0C0E0A3E0C0E0A369
:100BA300E0F5D0A3E0F520A3E0A3F5F0E4C5A88524
:100BB3008319858218C5A8D082D083D0E0F8D0E00D
:100BC30032121217601C1211EA60171212557007C5
:100BD30012125F7001D322C0D012125F7006D0D000
:100BE300B322C32233D0D0501430E0F6C3E79608C3
:100BF30009E7960809E7960809E796B32220E0D5A6
:100C0300E6970809E6970809E6970809E697B322E5
:100C1300121217601B1211EA601612125570071296
:100C2300125F600CB322C0D012125F7005D0D022C5
:100C3300C32233D0D0501330E0EBC3E7960809E763
:100C4300960809E7960809E7962220E0E4E6970864
:100C530009E6970809E6970809E69722D083D08228
:100C6300ECC0E0EDC0E0E493A3FCE493A3FDED4C02
:100C7300600D120CF1EC24FFFCED34FFFD80EFE47A
:100C830093A3FCE493A3FDED4C600D120E2EEC2414
:100C9300FFFCED34FFFD80EFD0E0FDD0E0FCE493FA
:100CA300A3C0E0E493C0E022D083D082E9C0E0E4B3
:100CB30093A3C386F0C5F095F0F908E493A386F0F7
:100CC300C5F095F0700BE493A3C3994005E9048044
:100CD30002A3E475F002A42582F582E5F03583F5DD
:100CE30083D0E0F9E493A3C0E0E493C0E022C0E042
:100CF300C3E49396087401939618400FE4936670C7
:100D03000808740193661870007019A3A3C3E493D1
:100D130096087401939618A3A3400DD0E0D0E0D0B9
:100D2300E0020C9BA3A3A3A3A3A3D0E02285198372
:100D3300851882E0A3FEE0A3F5207808E0A3F60877
:100D4300DFFAE0A3FFE0A3C0E0E0A3C0E0E0A3C0BC
:100D5300E0E0A3C0E0E0A3C0E0E4C5A88582188575
:100D63008319C5A8D083D082020F31D083D082C526
:100D7300F0E493A3C5F0C395F0F5F0E493A3C39512
:100D8300F04005E5F0048001E475F002A42582F546
:100D930082E5F03583F583E493A3C0E0E493C0E0F8
:100DA300227404800474028000CCC0E0EDC0E0E54E
:100DB30018C39CCCAD1950011D10AF068C188D19AA
:100DC30080068C188D19D2AF120ECCD0E0FDD0E086
:100DD300FC2274028000CCC0E0EDC0E0E518C39CA7
:100DE300CCAD1950011D10AF068C188D1980068CDF
:100DF300188D19D2AF120EAAD0E0FDD0E0FC22125A
:100E0300121760251211EA602012125570030212A4
:100E13005F080808E76670101819E766700A181962
:100E2300E76670041819E76622F422C0E0C0F08870
:100E3300F0E4936670080874019366187000A8F0D4
:100E4300A3A3700BD0F0D0E0D0E0D0E0020C9BA3C2
:100E5300A3D0F0D0E022D083D082CCC0E0E493A32F
:100E63006006120EED1470FAE493A36006121049A3
:100E73001470FAD0E0FCE493A3C0E0E493C0E02252
:100E8300C0E074F2120ABD1220A97F01020B74C0E4
:100E9300E074F2120ABD1220AF80EFC0E074F212C8
:100EA3000ABD1220B580E3CAC0E0E493A3C582CC97
:100EB300C582C583CDC583F0A3C582CCC582C58356
:100EC300CDC583DAE5D0E0CA22CAC0E0E0A3C5827B
:100ED300CCC582C583CDC583F0A3C582CCC582C5ED
:100EE30083CDC583DAE6D0E0CA22C0E0E493A3D37E
:100EF3009C5010E493A3C39C400AD0E0D0E0D0E020
:100F0300020E76A3A3A3D0E022700908080822608A
:100F130016181818C6C333C608C633C608C633C660
:100F230008C633C6D5E0EA22C09FF59FE473D09F7D
:100F330022D083D082C09FE493C0E0740193C0E0C9
:100F4300740293F59F22C5822518C582C58335197E
:100F530010AF07F5198582188007F519858218D215
:100F6300AFC583227404800A74038006740280026E
:100F73007401C0E0F404120F82D0E012122622257D
:100F830018F58210AF08F518400215198008F518F6
:100F930040021519D2AF85198322C0D0251810AF8E
:100FA30008F518500205198008F51850020519D2E2
:100FB300AFD0D0226017080808C6A2E713C618C628
:100FC30013C618C613C618C613C6D5E0E922BB015B
:100FD30002E722C082C08389828A83BB0003E08048
:100FE30002E493D083D082226016080808C6C31394
:100FF300C618C613C618C613C618C613C6D5E0EA64
:1010030022C3E0C696F608A3E0C696F608A3E0C698
:1010130096F608A3E0C696F622C0E074F2120ABD63
:10102300C2C0E5D1A2E450031220DF7F01020B749A
:10103300251810AF08F518400215198008F5184057
:10104300021519D2AF22C0E0E493A36C7009D0E07B
:10105300D0E0D0E0020E76A3A3D0E022181818E661
:10106300084608700AE608C3337005E633F422081D
:1010730022C3E7960809E7960809E7960809E79661
:10108300A2D265D03322E066701008A3E066700A2E
:1010930008A3E066700408A3E06622191919E7099A
:1010A3004709700AE709C3337005E733F4220922BD
:1010B300C3E09608A3E09608A3E09608A3E096A2EF
:1010C300D265D03322C3E096F008A3E096F008A3DC
:1010D300E096F008A3E096F022181818E4C396F6F9
:1010E30008E496F608E496F608E496F622E026F677
:1010F30008A3E036F608A3E036F608A3E036F622A6
:10110300E026F008A3E036F008A3E036F008A3E0F9
:1011130036F022E627F60809E637F60809E637F639
:101123000809E637F622C0E0E8C0E0E58124FCF8D0
:10113300E6A2E7D0E0F8D0E022E657F60809E65742
:10114300F60809E657F60809E657F622E056F608C8
:10115300A3E056F608A3E056F608A3E056F622E607
:1011630047F60809E647F60809E647F60809E64799
:10117300F622700422600D18C6C333C608C633C6F0
:10118300D5E0F41822E056F008A3E056F008A3E0F7
:1011930056F008A3E056F022C6F4C608C6F4C60803
:1011A300C6F4C608C6F4C622C3E09608A3E09608B0
:1011B300A3E09608A3E09622C3E7960809E79608FA
:1011C30009E7960809E7962275D0007581407518DE
:1011D3000175190300020B1C600C08C6C313C61863
:1011E300C613C6D5E0F422E7094709C313470933F9
:1011F3006002E733F422E6F008A3E6F008A3E6F082
:1012030008A3E6F022E0F608A3E0F608A3E0F60858
:10121300A3E0F622E6084608C3134608336002E655
:1012230033F422CAC0E0E6F0A308DAFAD0E0FA22E7
:10123300C5822518C582C5833519C5832274F8551F
:10124300C74401F5C77901222518F582E43519F55C
:101253008322E6C33318461846184622E7C33319D8
:10126300471947194722120F34C93400120F34F1BA
:101273003400120F34033500120F340D3500120FF2
:1012830034913500120F34003600120F34A93600A2
:10129300120F34B13600120F34523700120F34B527
:1012A3003700120F34873800120F34FE3800120F44
:1012B300343B3900120F34A23900120F34EF3A00D5
:1012C300120F340B3B00120F34643B00120F340136
:1012D3003C00120F34513C00120F34EC3C00120F4F
:1012E30034993D00120F34D73D00120F34473E00AE
:1012F300120F34923E00120F34CB3E00120F34F91A
:101303003F00120F34334100120F34944100120F87
:1013130034DD4100120F34054200120F34884200BD
:10132300120F34084300120F347B4300120F34A012
:101333004300120F34B14300120F34274400120F3D
:1013430034CB4400120F340D4500120F3493450083
:10135300120F34BA4500120F34E24600120F34F56F
:101363004600120F344E4700120F348F4700120FFE
:1013730034174900120F34AD4A00120F34DC4A000F
:10138300120F346F4B00120F34C84B00120F34B4DA
:101393004C00120F34B74E00120F34C14E00120F1F
:1013A30034CB4E00120F34D54E00120F34DF4E00F3
:1013B300120F34F94E00120F34034F00120F340D85
:1013C3004F00120F34174F00120F34384F00120F13
:1013D30034864F00120F34904F00120F34B44F0075
:1013E300120F34D84F00120F34375000120F3482CB
:1013F3005000120F34A05000120F34105100120F7E
:10140300344D5100120F34945100120F34FC51002B
:10141300120F346E5200120F34A25300120F34C550
:101423005300120F34885400120F34AE5400120FBD
:10143300348E5500120F34EF5700120F34565900F3
:10144300120F34195B00120F346B5B00120F344E12
:101453005C00120F349B5C00120F34065D00120F08
:1014630034105D00120F342F5F00120F34545F00ED
:10147300120F34A55F00120F34A66000120F34DE82
:101483006000120F341E6100120F34816100120FCD
:10149300349A6200120F34FA6200120F34E06300D0
:1014A300120F34E66500120F34026600120F34A7E0
:1014B3006700120F34ED6700120F34CB6800120F70
:1014C30034356900120F34666900120F34A26900C3
:1014D300120F34306A00120F34336A00120F349F34
:1014E3006A00120F34F58101120F34478201120F83
:1014F300347E8401120F34CA8401120F348C8501A7
:10150300120F34038601120F342B8701120F346834
:101513008901120F34FF8901120F349F9001120FBA
:1015230034259101120F34A29301120F34869401D2
:10153300120F342B9501120F34449601120F347598
:101543009701120F34689801120F34999B01120FFF
:10155300345C9D01120F34BC9D01120F34729E0145
:10156300120F341F9F01120F344A9F01120F34D7F9
:101573009F01120F34C4A001120F3498A101120F5E
:101583003436A201120F3463A201120F3485A20173
:10159300120F347EA401120F3459A501120F34A681
:1015A300A501120F3407A601120F34C9A601120FA9
:1015B30034FEA601120F344CA701120F347CA7018D
:1015C300120F34BAA701120F3412A801120F3417E5
:1015D300A801120F3472A801120F349AA801120F36
:1015E30034B9A901120F3425AA01120F348FAA01AD
:1015F300120F3418AB01120F3437AD01120F34152B
:10160300AE01120F3484AF01120F3416B101120F61
:1016130034A6B101120F34ADB201120F3436B30147
:10162300120F347DB301120F34F4B401120F3408D6
:10163300B501120F3422B501120F343DB501120F5B
:101643003449B501120F3467B501120F341EB701C7
:10165300120F3457B701120F3464B701120F34B3AA
:10166300B701120F34A6B801120F34EAB801120FF2
:10167300346DB901120F3471BA01120F342DBB014D
:10168300120F34A8BC01120F3482BD01120F34199A
:10169300BE01120F34ABBE01120F34C2BE01120FD2
:1016A30034E6BE01120F34F0BE01120F34FCBE014A
:1016B300120F341ABF01120F345EBF01120F34AF81
:1016C300BF01120F34D0BF01120F340DC101120F2D
:1016D3003459C101120F3450C201120F3478C201C0
:1016E300120F34DAC201120F3453C301120F3464E0
:1016F300C401120F3410C501120F34FDC501120FBE
:101703003461C601120F34F8C601120F34C8C70181
:10171300120F34F7C701120F3456C801120F3404E5
:10172300C901120F342AC901120F34A2C901120FC1
:1017330034C7C901120F34EAC901120F3425CA0193
:10174300120F3403CC01120F34F0CC01120F34A862
:10175300CD01120F343FCF01120F3493CF01120F7B
:1017630034B2CF01120F3421D001120F3495D001BE
:10177300120F34EED001120F3414D101120F344F73
:10178300D101120F347BD101120F34C6D101120FD4
:10179300341FD201120F349BD201120F347FD301B5
:1017A300120F34ECD301120F3415D401120F347B12
:1017B300D401120F34D0D401120F340AD501120F01
:1017C300345FD501120F3484D501120F34CAD50109
:1017D300120F34E7D501120F3491D601120F3404DE
:1017E300E903120F344FE903120F346C8002120F16
:1017F30034A08002120F34768102120F344A82021F
:10180300120F34758302120F34F98402120F3477E6
:101813008502120F343E8602120F345F8702120FC5
:1018230034D18702120F34338802120F34818802B5
:10183300120F348B8802120F34C98802120F34320C
:101843008902120F34D18902120F344F8A02120F08
:1018530034048B02120F34768B02120F349C8B02EA
:10186300120F34CC8B02120F34F98B02120F349FF8
:101873008C02120F34AF8C02120F34028D02120F3E
:10188300340E8D02120F341A8D02120F34238D027F
:10189300120F34848D02120F34E48D02120F34358B
:1018A3008E02120F34508E02120F34808E02120FEA
:1018B30034A18E02120F34AD8E02120F34EE8F025A
:1018C300120F340C9002120F34759002120F3488E9
:1018D3009002120F349F9002120F34329102120FB2
:1018E30034319202120F342D9302120F34AF93024C
:1018F300120F34B99302120F341C9402120F342DB9
:101903009402120F34709402120F34B79402120F20
:1019130034ED9402120F34239502120F34419502D1
:10192300120F34659502120F34A69502120F3499E3
:101933009602120F34DF9602120F341A9702120F17
:1019430034799702120F34A19702120F34DA9702F7
:10195300120F34E89702120F34499802120F34869B
:101963009802120F34C89802120F34F99802120F1A
:10197300342D9902120F34389902120F34569902FA
:10198300120F341E9A02120F34289A02120F346770
:101993009A02120F347D9A02120F34E79A02120F41
:1019A30034FB9A02120F34F39B02120F34069C028B
:1019B300120F341B9C02120F34BB9C02120F341FF4
:1019C3009D02120F34E29D02120F34ED9D02120F9D
:1019D300340C9F02120F34289F02120F34809F028F
:1019E300120F34B79F02120F34D19F02120F3445E6
:1019F300A002120F34D6A002120F341EA102120F3E
:101A03003439A302120F34A3A302120F340EA4021B
:101A1300120F3467A602120F3477A602120F347A1C
:101A2300A602120F3486A602120F349AA602120FD0
:101A330034A2A602120F34D7A602120F3485A702CE
:101A4300120F34F5A702120F3459A802120F34F201
:101A5300A802120F348CA902120F34BAA902120F72
:101A6300344AAA02120F3456AA02120F3485AA026C
:101A7300120F34A7AA02120F34CEAA02120F343463
:101A8300AB02120F349EAC02120F34A1AC02120F40
:101A93003418AD02120F3404AE02120F34DCAE025E
:101AA300120F3466AF02120F349BB002120F344D83
:101AB300B102120F3486B102120F34B7B102120F02
:101AC30034C0B102120F34ACB202120F3428B30285
:101AD300120F34B8B302120F3482B402120F340659
:101AE300B502120F343CB502120F3485B502120F42
:101AF3003466F601120F3478F601120F34EBF60157
:101B0300120F3421F701120F3478F701120F34301A
:101B1300F901120F3414FB01120F3407FE01120FE7
:101B23003435FE01120F3459FE01120F34C8FE0181
:101B3300120F34FCFE01120F3439FF01120F3475FA
:101B4300FF01120F34B6FF01120F3460A903120F05
:101B53003482A903120F3493A903120F34A4A903E7
:101B6300120F34FBA903120F344EAA03120F34AB26
:101B7300AA03120F34F5AA03120F34E0AC03120FB9
:101B83003478D303120F34A6D303120F34D52E00A7
:101B9300120F34ECD303120F3412D403120F345D3B
:101BA300D403120F34A63400120F34CBE703120F01
:101BB30034B69703120F34C89803120F34CB98032B
:101BC300120F340A9903120F34569903120F3488F3
:101BD3009903120F348B9903120F348E9903120F4A
:101BE30034679A03120F34A69D03120F3446DA03A7
:101BF300120F3461DA03120F34ACDA03120F34F626
:101C0300DA03120F34E63200120F341ED703120F19
:101C13003464D803120F34AAE803120F34BDD80377
:101C2300120F34D6D803120F3416D903120F34C54A
:101C3300D903120F34F4D903120F34C4FC02120F68
:101C4300343FFD02120F344AFD02120F346FFD02BE
:101C5300120F34099103120F344F9103120F34BF43
:101C63009103120F34E79103120F34A99203120F59
:101C730034B29203120F34089303120F34339303D5
:101C8300120F34929303120F34319403120F346DF5
:101C93009403120F34C79403120F341E9503120FCB
:101CA300344C9503120F34CB9503120F341896035B
:101CB300120F34579603120F348B9603120F349D71
:101CC3009603120F34AF9603120F34CE9603120FFE
:101CD300348D9703120F34C49D03120F3493CF0333
:101CE300120F34F7CF03120F341BD003120F34211A
:101CF300D103120F34F26A00120F34DA6B00120FA1
:101D030034166C00120F34C76D00120F34096E00C5
:101D1300120F34BD6F00120F34047000120F34E140
:101D23007000120F346C7100120F34037200120F23
:101D330034577200120F34977200120F3454740028
:101D4300120F34C27500120F34D47700120F34E22D
:101D53007700120F34467800120F349A7800120F6E
:101D6300348F7B00120F3410EA03120F3426EA0378
:101D7300120F34B0B403120F34C8B403120F34700B
:101D8300B503120F34B1B503120F34CEB503120FDE
:101D930034F1B503120F3438B603120F3471B6039E
:101DA300120F34A5B603120F3433B803120F34BD28
:101DB300E303120F3431E403120F3476E403120FFA
:101DC3003487E403120F3491E403120F34B0E403B5
:101DD300120F3429E503120F34B8EE02120F340147
:101DE300EF02120F3402F002120F348FF002120FBF
:101DF30034D9F002120F342AF102120F340FF30216
:101E0300120F3425F402120F3460F402120F3460FF
:101E1300F602120F347BF602120F34BCF602120FD5
:101E230034F8F602120F3451F702120F346AF70234
:101E3300120F3487F702120F34EBF702120F3496A6
:101E4300F902120F34B8F902120F34EDF902120F2E
:101E53003415FA02120F3422FA02120F3427FA024F
:101E6300120F3491FA02120F3448FB02120F347C22
:101E7300FB02120F3486FB02120F3489FB02120F8E
:101E830034EBFB02120F3408FC02120F3470FC0215
:101E9300120F34ABFC02120F34AEFC02120F34C922
:101EA300E203120F34DAE203120F346BE303120F6F
:101EB30034CBB502120F34F9B502120F3468B702EE
:101EC300120F34F6B702120F3472B802120F34D560
:101ED300B802120F3417B902120F348EB902120F5F
:101EE3003439BA02120F34BBBA02120F34F7BA02F2
:101EF300120F34B3BE02120F3480C002120F344AE1
:101F0300C102120F346EC102120F3459C302120FF1
:101F130034CBC502120F3458C602120F3469C702FC
:101F2300120F34D0CA02120F34E0CA02120F344A1D
:101F3300CC02120F34C5CC02120F34DFCD02120FC4
:101F4300345FCF02120F3403E002120F34C2E002F7
:101F5300120F3436E102120F34BAE102120F3411B8
:101F6300E202120F3410E302120F346DE302120F78
:101F73003482E602120F3414E702120F3479E702B7
:101F8300120F3418E902120F34D3E902120F343F4F
:101F9300EA02120F34D3EB02120F3470EC02120F69
:101FA3003470ED02120F34D39E03120F34D59E0307
:101FB300120F3498D103120F34E5D103120F349466
:101FC300D203120F34FAD203120F34AECB03120F23
:101FD3003407CC03120F34E6C203120F3414C303C5
:101FE300120F344AC303120F34A9C303120F34E58B
:101FF300C303120F34FAC303120F3410C403120FB6
:102003003444C403120F34ABE003120F34B7E003BC
:10201300120F3421E103120F3433E103120F34851D
:10202300E103120F34ADE603120F34F9E603120F86
:102033003451D503120F345FD503120F344EEA0324
:10204300120F3474FF02120F3484FF02120F349CF8
:10205300FF02120F34EDFF02120F347BDF03120F66
:1020630034A2DF03120F342BE003120F3492E00388
:10207300120F34DD9E03120F34EF7F00120F3476FC
:10208300BF03120F3484BF03120F3404C003120FB3
:1020930034CBC003120F3481C203120F34AEDB03FF
:1020A300120F34E9DB03120F340DDC03120F346B10
:1020B300DC03120F34CDDC03120F34009F03120F25
:1020C300347F9F03120F342FA003120F34B0A003E9
:1020D300120F34C0A103120F3464A303120F34CDC3
:1020E300A303120F343BA403120F3449A403120FAA
:1020F3003458A403120F346BA403120F3481A403C6
:10210300120F348AA403120F349DA403120F34EE6A
:10211300A403120F3402A703120F343AA703120FBA
:10212300345FA703120F3478A703120F3491A70368
:10213300120F3492A803120F3421A903120F34781B
:10214300CD03120F34BBCD03120F34CCCD03120FCA
:1021530034FFCD03120F3435CE03120F346BCE038D
:10216300120F34E4CE03120F3421CF03120F342D98
:10217300C603120F3455C603120F3492C603120F4F
:1021830034A4C603120F34C0C603120F3428C70386
:10219300120F3431C703120F3492C703120F34B630
:1021A300C703120F347DC803120F348AC803120FFA
:1021B300349BC803120F343EE803120F348BE80339
:1021C300120F3452B803120F34ADB903120F34BADD
:1021D300B903120F34D0B903120F34EDB903120F40
:1021E3003404BA03120F3419BA03120F349DBA031D
:1021F300120F347CBB03120F34C5BB03120F34D54B
:10220300BB03120F347CE503120F34A1E503120F55
:1022130034CAE503120F34F2E503120F34C9C803BD
:10222300120F34E2C803120F34EEC803120F340244
:10223300C903120F3426C903120F3432C903120F14
:102243003441C903120F3454C903120F34A7C9030D
:10225300120F34E1C903120F3411CA03120F346091
:10226300CA03120F34AECA03120F34C6CA03120FC5
:1022730034D0CA03120F34E1CA03120F3426CB033E
:10228300120F3459E903120F34D18803120F34FDAE
:102293008803120F34198903120F342C8903120F88
:1022A30034428903120F34AC8903120F34DF8903DC
:1022B300120F34448D03120F346D8E03120F349DAD
:1022C3008E03120F34068F03120F34EA8F03120F9B
:1022D30034129003120F34279003120F34379003F4
:1022E300120F34789003120F34CD9003120F34DDA4
:1022F3009003120F3444DE03120F345FDE03120F18
:102303003488DE03120F34A2DE03120F34C7DE0358
:10231300120F34E6DE03120F34FFDE03120F342EE6
:10232300DF03120F3449DF03120F34A1E903120F45
:1023330034E4BB03120F34EBBB03120F34F8BC03BA
:10234300120F342ABD03120F3450BD03120F34830E
:10235300BD03120F3495BD03120F34D0BD03120F0A
:102363003440BE03120F347DBE03120F34CABE03C2
:10237300120F34F8BE03120F3418BF03120F340CBC
:10238300DD03120F342EDD03120F3441DE03120F6F
:1023930034C9E103120F3427E203120F3466E20358
:1023A300120F34A7E203120F34008003120F340A12
:1023B3008003120F344D8003120F343E8203120F39
:1023C30034248303120F34668303120F3497830379
:1023D300120F34248403120F34D78603120F34CE22
:1023E3008703120F344C8803120F348B8803120FA8
:1023F3003417E603120F34D87B00120F34067C0027
:10240300120F344A7C00120F34AB7C00120F34F5E8
:102413007C00120F341D7D00120F34A57D00120FB6
:1024230034D97E00120F3437AD03120F3456AD0387
:10243300120F349FAD03120F34BBAD03120F34ECF4
:10244300AD03120F3403AE03120F3410AE03120F99
:10245300342DAE03120F341AAF03120F3451AF03EE
:10246300120F345BAF03120F3468B003120F3473CF
:10247300B003120F3485B003120F348EB003120F62
:102483003498B003120F3401B103120F3494B40320
:10249300120F34E1E903120F3430EA03120F343E12
:1024A300E703120F3467E703120F3401D002120F50
:1024B30034D9D402120F34B42E00120F34772E0005
:1024C300120F343C2E00120F34182E00120F34FD5D
:1024D3002D00120F348D2D00120F34BB2C00120F60
:1024E30034202C00120F34323400120F34B2D403D0
:1024F300120F34AF2B00120F34902B00120F3494B1
:102503003200120F346F3200120F347E2B00120F81
:10251300343BF601120F341DF601120F3449F50155
:10252300120F34ADF401120F3439F301120F34E5F5
:10253300F001120F3480F001120F3439ED01120F44
:102543003411ED01120F34B6EC01120F3493EC0188
:10255300120F34EDEB01120F3495EB01120F34F22D
:10256300E901120F34EFE901120F34FEE801120FF3
:1025730034DEE801120F342EE801120F34B0E60105
:10258300120F3477E601120F3448E601120F342C90
:102593003200120F343C3100120F34AC3000120FF2
:1025A3003445E601120F3437E601120F3423E601F6
:1025B300120F34FB2F00120F3416E601120F343EB4
:1025C300E501120F34CAE401120F3490E401120F33
:1025D3003438E401120F340B3300120F3499DB0348
:1025E300120F34212F00120F3407E401120F343974
:1025F300E101120F34F7E001120F34EBE001120F87
:10260300345EE001120F34ACDF01120F344BDD01F5
:10261300120F34B5DA01120F347FDA01120F341DB1
:10262300D901120F34CCD801120F3405D801120F7F
:1026330034D8D701120F3432D701120F3405D70122
:10264300120F34CBD601120F34E3D3030000008002
:10265300FBC2C732E473870001004B1C2400020055
:10266300251C25000200271C26000200291C270028
:1026730002002B1C280001002D1C290001002E1C28
:10268300840004002F1C86000100331C2A00010073
:10269300341C2B000100351C2C000100371C2D00BD
:1026A3000800E3112E000100381C2F000100391C23
:1026B300300001003A1C310001003B1C32000100D4
:1026C300EB1133000100EC11340001003C1C360017
:1026D3000100ED1183000200491C62001000F61195
:1026E30063000100061264000100E01165000100AF
:1026F300361C6D000100481C6E000200E11143000E
:1027030001003D1C440002003E1C45000100401C2A
:1027130046000200411C47000800EE11480001007A
:10272300431C49000100441C4A000200451C4B00A5
:102733000100471C040001004C1CA10001004E1CB9
:10274300370001004D1C0000000000000001363678
:102753000101000102010001030100010401060659
:1027630005020000070100340801000F09040101FC
:102773000D0100FF0E08000017020000190100FF01
:102783001A0100011B0100FE1C0100081D020000CC
:102793001F01000120010001210200002301000F9D
:1027A300240200002601000127010008280200FF7F
:1027B3002A0100072B0102402C0100002D0100011A
:1027C3002E0100012F0100FF30010B1C3108000016
:1027D3003A0100083B01000F2F01000003027102C0
:1027E3003001600211027002010202020202800241
:1027F300100261023A004100630273027202620234
:102803004302000213023800000200020402120213
:102813000002000200020002040204023700370033
:102823003C02440200023900000200026502000279
:1028330035028102000205028202830200020101C5
:1028430071010101010111010101310101010101C5
:102853008001100161013B001400630173017201E7
:10286300620143010001130106013D01350004012A
:102873001201000100010001000104010401330100
:1028830033013C01440132013600000100016501BE
:10289300000135008101000105018201830100016E
:1028A3000103710301030103010301030103220374
:1028B30002030103100300030003000300030003EA
:1028C3000003000342030003240306030003000381
:1028D300040312032503230325032303040304032F
:1028E3000003000300034403000300032303000366
:1028F300650321003503810300030503000300037F
:10290300000303047104020460041104700402044C
:1029130002040104020410046104000414046304A7
:1029230073047204620443040004130406040004E1
:10293300000404041204000400040004000451040D
:1029430064000004000400044404000400040004C0
:1029530000046504000435048104640005040004D4
:102963008304000403007100300160001100700053
:1029730031022003500480001000610000001400A5
:10298300630073007200620043000000130006003E
:10299300000000000400120000000000000000001E
:1029A30004000400370037003C024400000000002C
:1029B30000000000650000003500810000000500F4
:1029C30000008300000036000100060000000F0035
:1029D30000000000000000000000000003FFFF00F3
:1029E300000403FFFF0000FFFF0FF4010005C40410
:1029F3000320000100000B000000000000000003A2
:102A0300010F00006B1F1300051F01006B1F020065
:102A1300CF1E0300D51E0400DB1E0500E11E0600C9
:102A2300ED1EFFFF00000121150657150851150B78
:102A3300691510A914022715054515072D150C094D
:102A4300150D1515FF000003000300040008001016
:102A5300001F003E007B00F600EC01D703AF075DCB
:102A63000FB91E713D000003EAF5E5D5D5C5B5A53F
:102A73009595858575756565555545453535252583
:102A8300151505291959192F1935195319471941BD
:102A9300195F1965196B1977193B1923191D199CAE
:102AA30036063A703DD9404344AD47174B814EEA51
:102AB3005100160F00000B150B020002220F32000B
:102AC3000006000102030405060708090A0B0C0DA2
:102AD3000E0F191A2B1A311AF318371AED18F918A1
:102AE300911AAF1AB51A971AA31A9D1A2D182718F7
:102AF300631869185D1815180C0E020B040B0A07EE
:102B030008000F00034948424D181725050200012C
:102B1300191618161615230300303017181921300B
:102B23001B1D1F3000383C3E363B3B352B432C30BE
:102B33003016181920231A1C1E304D197119A91AA1
:102B43007D198319851A3D1A431A4F1A491A3918E0
:102B53003F1833186F180005150D0910080400BE3F
:102B6300040A451857180E0004001500010309282C
:102B73000C100A0900000504080F08C082C0838AEC
:102B8300828B83E0D2E7F0121E75024BB2C082C083
:102B930083790012547490032E125B09C3EA9CEBF1
:102BA3009D5006123254600109024BB274F7120AA7
:102BB30057EA125B00EB125EFF122DD9AEF075F0EF
:102BC3000BEDA42EFD900330E02CFEA3E03DFFEAC5
:102BD3002403FCEB3400FD74016960057402697021
:102BE300278A828B83A312547E8E828F83A31249FA
:102BF30011740269701DECFAEDFB1224C9E970131C
:102C0300E48E828F83F0800BEE2403FAEF3400FB13
:102C13001224CFEEFAEFFB12250B023C4C74F21296
:102C23000A578A088B09EA240BF50CEB125EE47948
:102C3300008A828B83E06070890A890B805FE50AD2
:102C430075F00BA4FAACF075F00BE50B122FE670E0
:102C530049AE82AF838508828509831265B5123038
:102C6300A0A3125E82A3124AD0E5082403FCE5095F
:102C73003400FDEE24030A0A0AEF3400FB1224CFCA
:102C8300850C82850D83E50AF0A3E50B12507C12B7
:102C9300250B790190032E125B11122CAE122FDE3D
:102CA300E50A9AE50B9B40960244C6E50A2401F522
:102CB3000AE50B3400F50B2274F1120A57EAFEEB16
:102CC300FF740F12124B1240F3750E01850882F543
:102CD30083A385820C85830DEE240BF8EF3400F972
:102CE300EC7001ED6030EC125B00ED1249077901E5
:102CF300EEFAEFFB1224F3E5087002E50970030214
:102D03002D86850C82850D83125EE97902AA08ABB4
:102D1300091224F3806DEE2403F50AEF122CB6E5B5
:102D2300087002E5096033125AFEE509124907E506
:102D3300082403FAE5093400122FD6700CEEFAEFDB
:102D4300FB1224E1E9F50E80B9AA0AAB0B122FD7C7
:102D530070317903EEFAEFFB80B78E828F83A3E0A5
:102D630064FE7004A3E064FF700A0A0A0AAB0B1244
:102D73002FD7700CEEFAEFFB1224E1E9F50E800376
:102D8300750E00A90E7F07020D3074F7120A5790D3
:102D9300032E124911EA7001EB6031EA75F00BA4BE
:102DA300FAACF075F00BEBA42CFBEAFEEBFF121C64
:102DB300E9900330124911900330E07002A3E06000
:102DC30012EEFCEFFD7900121C5F8007900330E4E4
:102DD300F0A3F0023C4C125EA6EC75F00BA4FC22AF
:102DE300E875F00BA4F8AAF075F00BE9A42AF990A2
:102DF3000330E02822EE98EF9922C082C083EC7062
:102E030001ED60051223A380097C087D007900127F
:102E13001C5F024BB274F6120A577900EA7001EB99
:102E230060147C008C08126089600479017C080CB2
:102E3300ECC3940840EE024B6A74F7120A5774F31A
:102E4300121033ECFEEDFFE4851882851983F074CC
:102E53000112124B12412B1225E3740312124BACD5
:102E630082AD83EEFAEFFB1224CFEEFAEFFB1224CE
:102E7300C9023C4774F7120A5774F3121033ECFE7D
:102E8300EDFFE4851882851983F0EAFCEBFD7403FA
:102E930012124B124160740112124B124ACD74FE8E
:102EA30068700374FF696004790180027900023C51
:102EB3004774F7120A57EAFEEBFF122F0270101243
:102EC3002F0D64FFFC8A828B83E05CF012250B02DA
:102ED300442274F7120A57EAFEEBFF7508008E824C
:102EE3008F83E06017122F027012122F0DFC8A825B
:102EF3008B83E05C7006E04CF012250B0244221237
:102F030024F9E9F50874016508221248FC124EB34E
:102F1300122DE3FAA3E039FB8E828F83E02274F053
:102F2300120A578A088B09EA2403FEEB3400FF7C5C
:102F3300007D000A0A0AFB1224CFE508240BF50CD6
:102F4300E509125EE47900850882850983A38582F9
:102F53000A85830BE064FE7004A3E064FF60658967
:102F63000889098054E50875F00BA4FAACF075F0F4
:102F73000BE509122FE6603E850A82850B831267F3
:102F830094A3E06C7003A3E06D702BEA2403F50EA9
:102F9300EB3400F50F122FD3700BAC0EAD0FEEFA1E
:102FA300EFFB1224CF850C82850D83125EBB790162
:102FB30090032E1240F3124B52122FDEE5089AE5CE
:102FC300099B40A18005740D120F9D7F08020D30EF
:102FD3000A0A0AFB1224C9E964012290032E12543F
:102FE30082C322A42CFB900330E02AFAA3E03BFB2C
:102FF3008A828B83E0540F2274EF120A578A828BE2
:1030030083A385820E85830F125EE9EA240BF508FC
:10301300EB124B5A850882125EE7751000EA24030F
:10302300F50CEB3400F50D122FD37065750A00759E
:103033000B008055E50A75F00BA4F8AAF075F00BA8
:10304300E50B12309B540F603DAE82AF83EE240339
:10305300FCEF3400FDAA0CAB0D12239DE964017053
:10306300258E828F83A3124B4E850E82850F83E8B4
:10307300F0A3E91230A0E50AF0A3E50BF075100107
:1030830090032E125B11122CAE90032E123FE640DA
:10309300A3A9107F09020D3012312AE0221230A4B5
:1030A30022F08508828509832274F3120A57EAFE07
:1030B300EBFF8E828F83A385820A85830B125EE9E1
:1030C300EE2403F508EF124B5A7C007D000A0A0A2E
:1030D300FB1224CFEEFAEFFB1224F9E9F50C74018D
:1030E300650C703EEE125B00EF12313475F00BA4E9
:1030F300F8AAF075F00BE912312AA312547E850A5F
:1031030082850B83124911E82403FEE93400FFEEA4
:10311300FAEF122FD6700BEEFCEFFDAA08AB0912E3
:1031230024CFA90C023BFC122DEFF8A3E039025780
:10313300DD124902124EB3E82274EE120A5774E606
:10314300121033EAFEEBFFEE240BF50AEF122CB656
:10315300850A82125EE7750E017508007509007510
:103163001000751100E4851882851983F0EE24039D
:10317300FCEF3400FD740312124BAA82AB831224BA
:10318300CF8E828F83A385820C85830D85188285DC
:103193001983AA82AB831225B3E964017034740BDB
:1031A30012124B124B4E850A82850B83124AD0743E
:1031B3000112124B124B4E850C82850D83E0687011
:1031C30003A3E06960558518828519838582088584
:1031D3008309740D12124BE4125EACF8A3E0F97488
:1031E3000E12124B124AD0740D12124BAA82AB83E9
:1031F3001225E3E96401700B740D12124B858210E2
:103203008583117810120F6FAC08AD09EEFAEFFB4E
:103213001224DB7402120F9DE9F50EEEFAEFFB1296
:103223001B8DA90E741A025C93C082C08378007947
:10323300008003123999122FDEE89AE99B500DE8BA
:10324300FAE9FB12325470EB790080027901024BE8
:10325300B2EA75F00BA4FAACF075F00BEBA42CFBFF
:1032630090033012692CF583E0540F22C082C0838F
:10327300902B6D123B03EC75F012A4FCAAF075F0D1
:1032830012EDA42AFD79FF7AC07B16121C5F024B54
:10329300B274F6120A577E007F007C007D008034F2
:1032A3008C088D09E50875F012A4F508ABF075F0EC
:1032B30012E509A42BF509E50824C4F582E50934D0
:1032C30016F583E0FBC3994008EAC39B4003123D14
:1032D3006E12378312371BC3EC9508ED950940C076
:1032E300026925C082C0837800790080031239996E
:1032F300902B6D123CE3500912368D64FF70EE8003
:10330300047A007B00024BB274F0120A5774F31272
:1033130010338A0A8B0BECFEEDFF890CEE7001EF84
:103323006011EEFAEFFB1212758A088B09EA70013D
:10333300EB7052121C058A088B09EA7001EB604599
:103343007401851882851983F012124BE50AF0A3E4
:10335300E50BF0EEFCEFFD740312124B12349F7475
:103363000B12124B123870A3A3124AD0E4850882C1
:10337300850983A3A3A3A3A3A3125E9EAA0AAB0BEF
:10338300121773800BE5087002E509700302341706
:103393007A00E50C6007C3940550027A048508821D
:1033A300850983125ECAA3A3A3E50CF0EA8508820C
:1033B300850983A3A3A3A3A3F074028508828509C7
:1033C30083A3A3A3A3A3A3A3A3F074018508828566
:1033D3000983A3A3A3A3A3A3A3A312342BA3A3A3EC
:1033E300F0E5082410F582E509125EFFE4F01234DB
:1033F3002BF0125AFEE509125EFFE4F09081857806
:103403000C121208E508240CF582E509125EFF7818
:103413000C1211F91235EE4005E4901BC9F0121697
:103423005FAA08AB09022FC9A3124A8E02592C7452
:10343300F2120A5774F31210338A088B09ECFEED6B
:10344300FF750A00EEFAEFFB1212758A0C8B0DA8BA
:103453000CA90DE87001E9603E88828983E0650864
:103463007004A3E06509602F88828983A3A3A3A3C3
:10347300E0C394055021125EB77401851882851943
:1034830083F012124B125EBBEEFCEFFD74031212BB
:103493004B12349F750A01A90A0244C112416712F3
:1034A30025952274F6120A571234E77002E58360F9
:1034B30010A3A3A3A3E06009C3940550047901807A
:1034C300027900024B6A74F6120A571234E770024B
:1034D300E583600BA3A3A3A3E070047901800279C1
:1034E30000024B6A12126F8A828B83E58222C082AA
:1034F300C083EAFCEBFD7A007B0012127B024BB225
:10350300C082C0837C007D0080F074F2120A57747D
:10351300F31210338A0C8B0D8C0A8D0B7E007F0007
:10352300802112387612124B123585601374031200
:10353300124BAC82AD83AA0CAB0D12239DE97035FF
:10354300123D6E902B6D123D7E503012373760F076
:10355300E50C7002E50D70CA74FF650A700474FF10
:10356300650B60DC850882850983E0650A7004A326
:10357300E0650B70CBAA08AB0980047A007B0002DC
:1035830044C1E8F0A3E912418B12259BE92274F4AC
:10359300120A5774F31210337508001212758A0A4F
:1035A3008B0BAE0AAF0BEE7001EF602A7401851826
:1035B30082851983124AC7F8A3E0F9740B12124BE0
:1035C3001241831224B77C127D0079FFEEFAEFFBE0
:1035D300121C5F7508011235EE50097401901BC966
:1035E300F012165FA908740D024BC07A0479001219
:1035F30024FF902B6D123D84EA98EB992274F71205
:103603000A57E9FE74FE6A700374FF6B7800790051
:103613007005804D123999902B6D1239845042E810
:10362300FCE9FDEC75F012A4FCAFF075F012EDA40B
:103633002FFDEC24C0FCED3416FD8C828D83A3A3F7
:10364300A3A3E064FF60CD8C828D83E06A7003A343
:10365300E06B70C08008EC6005C39405401C123910
:1036630099902B6D123CE3501A12368DFCEE70E6E6
:1036730074016C600574036C70E48A828B8312544A
:103683007E80047AFE7BFF023C4CE8FAE9FBEA7594
:10369300F012A4FAACF075F012EBA42C1237A222AC
:1036A300121287024BB2C082C083790180F274F098
:1036B300120A578A0A8B0B7A0479011224FF8A0CA7
:1036C300EA7001EB6040EAC333FAEB33FB121CE907
:1036D3008A088B09AE08AF09EE7001EF60237AFE0A
:1036E3007BFF12128D74FE6A700374FF6B601B857F
:1036F3000882850983124911E5082402124B56807A
:10370300E1750C0080047E007F00850A82850B83AF
:10371300E50C12507C022FCE902B6D12372222E43F
:1037230093F508740193F50922902B6DE493FA74D1
:103733000193FB22EEF8EFF9E875F012A4F8AAF072
:1037430075F012E9123855A3A3A3A3E064FF227412
:10375300F7120A577C007D00800419123783123751
:103763007A500D12378CC3940550F0E970EC800445
:103773007A007B00023C4C12372CC3EC9AED9B225F
:10378300EC24010CED3400FD22ECFAEDFBEA75F0BC
:1037930012A4FAAEF075F012EBA42E1237A222FB9C
:1037A300EA24C0FAEB3416FB8A828B83A3A3A3A378
:1037B300E02274F3120A5774F3121033750A00757A
:1037C3000B008052E50C125E758E828F8312387067
:1037D300E0687003A3E0696025740112124BE0688E
:1037E3007003A3E0696017EE2402FCEF3400FD745C
:1037F3000312124BAA82AB8312239DE96007EEFAF0
:10380300EFFB12177F050C902B74E493FAE50CC3BE
:103813009A40B1122CAE123868E50A98E50B99501C
:103823002CE50A75F012A4F8AAF075F012E50B1254
:103833003855E064FF7004A3E064FF60D612387665
:1038430012124B12358560CB750C0080BA740D02D1
:103853003BF9A42AF9E824C0F508E93416F50985EB
:103863000882F58322902B6DE4123D8522124EB31C
:103873000230A57401851882851983124A8E124E6F
:10388300B3740B2274F6120A57123E88123B03ECF0
:103893008508F0A4CCAAF08509F0A42AFA8508F0DB
:1038A300EDA42AFD79FF7A777B1B121C5F9003330B
:1038B30074B7F0A37412F090033574B1F0A37412CB
:1038C300F090033774DBF0A37412F090033974EDB6
:1038D300F0A37412F090033B74F3F0A37412F0900E
:1038E300033D74F9F0A37412F090033F74FFF0A347
:1038F3007412F0E4900332F0024B6AC082C0837802
:103903000079008003123999123CE05024E8FAE967
:10391300FBEA75F00EA4FAACF075F00EEBA42CFBE9
:10392300EA2477F582EB12437370DAAA82AB8380C1
:10393300047A007B00024BB274F7120A577A007BB9
:103943000078007900802FE8FCE9FDEC75F00EA407
:10395300FCAEF075F00EEDA42EFDEC2477F582EDB0
:10396300124373600EA3A3A3A3A3E0FCEA2CFAEB18
:103973003400FB123999902B6B12398440C9023CF5
:103983004CE493FC740193FDC3E89CE99D22120F60
:103993009D7F03020D30E8240108E93400F9227405
:1039A300EC120A5789108A088B098C0D8D0C74143C
:1039B30012124B125B117E007F00121317AA08AB81
:1039C3000912131D8A0E8B0F850882850983A3A311
:1039D300A3A3A3A3A3A3E0640170077508018E0941
:1039E30080058E08850D0974FE650E700474FF65ED
:1039F3000F7003023AE68E0D8002050D850D1290BD
:103A03002B6B1265D65071E50D75F00EA42477FE6D
:103A1300E5F0123E41651070E1A3E0650870DB8EAE
:103A2300828F83A3A3E0650E7004A3E0650F70CAC1
:103A33008E828F83A3A3A3A3E0650970BD750D00D8
:103A4300E50DC3950C4003023AE6E50DC333F8E4F4
:103A530033F9E50A28F508E50B39F50985088212DB
:103A630063D81212C3E9700C850882850983126337
:103A7300DA1212CF050D80C81212AB8A128B13AE65
:103A830012AF13EE7001EF605A8E828F83E510F050
:103A9300A3E508124B3AA3E50EF0A3E50F124B3A48
:103AA300A3A3A3E509F0902B7AE493C3950C5004E8
:103AB300E493F50C8E828F83A3A3A3A3A3E50CF059
:103AC300850A08850B09750A007808120F6BE50C47
:103AD300C333FCE433FDEE2406FAEF3400125EC375
:103AE300120F9DEEFAEFFB7F0C020D30C082C083F4
:103AF300123B0079FF121C5F7901024BB2902B69D4
:103B0300E493FC740193FD2274F7120A57EA7001DF
:103B1300EB60498A828B83A3A3A3A3A3A3E582704B
:103B230002E58360377E0080010E8A828B83A3A324
:103B3300A3A3A3E0FFEEC39F5022EEC333F8E43305
:103B4300F9EA28F582EB39F583A3A3A3A3A3A3E0A2
:103B53006C7003A3E06D70D1790180027900023C9F
:103B63004C74F3120A57EA2405F8EB3400F9E8FE23
:103B7300E9FFEA7001EB606F8E828F83E06073EA86
:103B8300240608EB3400F9E0F50B750A00800B8E70
:103B9300828F83E014F0605A050AE50AC3950B503F
:103BA30046E50AC333F508E433F509EA2508F508C1
:103BB300EB3509F50974062508F508E43509F50917
:103BC300850882F583E06C7003A3E06D60C185080E
:103BD30082850983E0F508A3E0125EB5E8240208B4
:103BE30008E93400F980B18E828F83E060047901A3
:103BF300800279008003120F9D7F05020D3074F758
:103C0300120A57EA7001EB6037126782C0E0902B0B
:103C13007AE493FED0E0C39E502688828983E0C372
:103C230033FEE433FFEA2EF582EB3FF583A3A3A330
:103C3300A3A3A3ECF0A3ED12629504F07901800233
:103C430079008005740D120F9D7F01020D3074F20F
:103C5300120A5789088C09123D8D7005125B0D807D
:103C630003123D6674FE650A700474FF650B7006EB
:103C73007A007B0080647800790080187401650CF9
:103C8300700F8C828D83E0650A7004A3E0650B607E
:103C930049123999123CE050D712410F8A828B8323
:103CA300E0650870ECA3E0F50CEA2402FCEB3400B9
:103CB300FD8E828F83E0640160C2E50C70D38C8239
:103CC3008D83E0650A7004A3E0650B70C48A828B60
:103CD30083A3A3A3A3E0650970B70244C6902B6B2B
:103CE30012372FC3E89AE99B2274F2120A57EA2487
:103CF30008F8EB124ABE64017005125B0D800312D3
:103D03003D6674FE650A700474FF650B60527E00A5
:103D13007F008047EEF8EFF9E875F00EA4F8AAF0FB
:103D230075F00EE9A42AF9E82477FAE9341BFB8538
:103D33000882850983E06401701B8A828B83A3E078
:103D4300640170148A828B83A3A3E0650A7004A3C1
:103D5300E0650B70031212BD123D6E123D7B40B441
:103D63000244C61213058A0A8B0B22123D73FF22EB
:103D7300EE24010EEF340022902B6B123D84022DB2
:103D8300F8E493F8740193F9C322EA2408F8EB12D8
:103D93005ED5E064012274F3120A57890C8A0A8BF8
:103DA3000B7508007509007E007F00801B1240C060
:103DB300650C7011AC0AAD0BAA82AB831212C3E976
:103DC3006003124B52123D6E123D7B40E0AA08ABDA
:103DD30009023BFC74F1120A57890D8A0A8B0B8C7A
:103DE3000E750C007508007509008005050C124B53
:103DF30052902B6B12386BE50898E509995038E51A
:103E03000875F00EA4F8AAF075F00EE509A42AF9D6
:103E1300E82477FEE9123E41650D70D2AC0AAD0B82
:103E2300EEFAEFFB1212C3E960C4E50CC3950E4032
:103E3300BBEEFAEFFB80047A007B00022D88341B73
:103E4300FF022F1B74F6120A5775080075090078D4
:103E530008120F6F123E8812409DE9A42AF9758358
:103E63002B758269E49328FCA3E49339FD7A417BA3
:103E730000121D4F7402120F9DE9FE60031212F32C
:103E8300EEF9024B6A902B69123722902B6B227446
:103E9300F6120A5774FE121033123EB6120F6F75E4
:103EA30008027509007808120F6F7C007D007A41C3
:103EB300024B5F851882851983E4F0A312410385C1
:103EC300820885830978082274F4120A5774E7126A
:103ED30010337E007F0085188285198385820885CB
:103EE30083097808120F6F7508028E097808120F7C
:103EF3006F7C007D007A41123FF1120F9DE9600350
:103F0300023FD58E0A8E0B8058740212124BAC827C
:103F1300AD83740D12124B12547E12130B740A12DA
:103F2300124BE06039741112124B858208858309A4
:103F33007808120F6F741212124BE0FD74111212F3
:103F43004BE0FC740412124BAA82AB83740D121261
:103F53004BE0F91212B77402120F9D123D6E122C30
:103F6300AE851882851983123FE65066740B1212D0
:103F73004B8582088583097808120F6F902B69128D
:103F83000DD5902B69123FDEE8850AF0A4C8AAF08C
:103F9300850BF0A42AFA850AF01240B2123FF112FF
:103FA3000F9DE970B9740A12124BE4F0740C1212EB
:103FB3004BE07003023F0C740A12124B7401F0744D
:103FC3000D12124B124B4E740212124B124AD002B4
:103FD3003F28EEFAEFFB7419024BC0E493F8740127
:103FE30093F922124EB3C3E50A98E50B99227B009D
:103FF300121D6174042274F5120A5774F0121033FF
:10400300851882851983E4F0A3F0FE805A1240C01C
:1040130064FF6050858208858309750A0078081259
:104023000F6B123B00740512124BAA82AB83125E14
:10403300C4120F9D740212124B858208858309787E
:1040430008120F6F902B69120DD5740412124B12C4
:1040530040F3902B6912409D1240B21240FB120FA5
:104063009D1240E3123D73FF123D7B40A0851882F1
:104073008519838582088583097808120F6F75086F
:10408300027509007808120F6F7C007D007A4112D7
:1040930040FB120F9D7410023991123FDEE8850830
:1040A300F0A4C8AAF08509F0A42AFA8508F022E949
:1040B300A42AF9740228FCE439FD7A41221240C58E
:1040C300E022EEF8EFF9E875F00EA4F8AAF075F027
:1040D3000EE9A42AF9E82477F582E9341BF5832253
:1040E300851882851983E02401F0A3E03400F022CF
:1040F300E0F508A3E0F509227B00121D5B7404229E
:1041030012410722F085188285198322E8FAE9FB18
:10411300EA75F00EA4FAACF075F00EEBA42CFBEAF2
:104123002477FAEB341BFB22EAF0A3EB12418B2238
:10413300C082C08374F31210331242F46402700E0F
:1041430012417912124B1241831225E3800CEAFCCF
:10415300EBFD740312124B124160024BA71241672D
:104163001225B322AA82AB831224CF851882851924
:1041730083AA82AB83228A828B83124EB374012279
:10418300E8F0A3E912418B2212418F2212410780EA
:10419300E074F7120A5774F3121033ECFEEDFF7458
:1041A30004851882851983F0740B12124BEAF0A36D
:1041B300EB123589F508601D74038E828F83A3A3E8
:1041C300A3A3A3A3A3A3F012124BAC82AD83EEFA75
:1041D300EFFB1223A3A908023C47C082C08374F3F8
:1041E3001210337404851882851983F0740B12122C
:1041F3004B12412B12259B7401024BA9125482745A
:104203000D2274F6120A5774F3121033900332E03E
:10421300706E7404851882851983F09003711241BE
:104223007D12124B124AD0121629EAFCEBFD7403DD
:1042330012124B12349F1216358A088B09A808A94B
:1042430009740112124BE0687003A3E069602B74D8
:10425300FE68700374FF696021740112124B124AE5
:10426300D0740312124BAA82AB8312163B851882B9
:10427300851983AA82AB831225957401900332F0CA
:10428300740D024B67C082C08374F3121033124261
:10429300F4FC74026C701E12417912124BE8F0A305
:1042A300E9125CFE7048851882851983AA82AB8364
:1042B300122595803974036C7011EAFCEBFD7403CD
:1042C30012124B124160E9702580DB74016C70128D
:1042D3008A828B83124B4E740B12124BE8F0A3E9C4
:1042E300800B740B12124B74FEF0A374FFF0024B9D
:1042F300A77404851882851983F08A828B83A3A30C
:10430300A3A30237AF74F5120A577800790088081F
:1043130088097C007D008003123783902B6BE49324
:10432300FE740193FFC3EC9EED9F5021ECFEED1252
:10433300435760E4AE08AF0974012EF508E43FF576
:1043430009EA6E7002EB6F70CFA882A983E8FAE9DD
:10435300FB023994FFEE75F00EA4FE85F00A75F0AA
:104363000EEFA4250AFFEE2477F582EF12437322A2
:10437300341BF583E064FF22C082C083900346743C
:104383003FF0A37415F09003487439F0A37415F04B
:1043930090034C749BF0A37413F0024BB2C082C021
:1043A3008390034A7433F0A37415F0024BB274F78D
:1043B300120A57EAFEEBFF900380E0FA74086A6082
:1043C3001974046A60148E828F83E064017046124C
:1043D30048F8125581E06406703B8E828F83A3A355
:1043E300124B4E74FE68700374FF6960289003716A
:1043F300E0687003A3E069700BEE2415F582EF12F9
:10440300608F600AEEFA1215F3E9F508800AEEFAF6
:104413001215F980F47508C2EEFAEFFB121CEFA92E
:1044230008023C4C74F2120A578A088B098A828B61
:1044330083A385820A85830B8A828B83E0F8850AAE
:1044430082850B83E028FAE43400FB121CE98A0C12
:104453008B0DAE0CAF0DEE7001EF605C85088285AD
:104463000983E0FC7D007900121C5F8E828F83A399
:10447300A3125EE912162F8E828F83A3A3A3A31226
:104483004911850882850983E0F8EE28F8EF3400A6
:10449300F91248F8124E96C0E0125EF9D0E0F0121D
:1044A3001641EE240E125EFCE9124A8AE0C0E0EEE9
:1044B3002411125EFCD0E0F0EEFAEFFB8005740DE0
:1044C300120F9D7F06020D3074F4120A5774EB121B
:1044D30010338A088B098C0A8D0B9003817808129C
:1044E30011F9E99003871247831211F97405121227
:1044F3004BE9F0740412124B7401F0740712124B5F
:10450300E4F07402900380024BBD74F4120A5774F2
:10451300EB121033EAFEEBFF900342E07002A3E0DC
:1045230070677A077B00121CE990034212491190CD
:104533000342E07002A3E0604C900342125B098FD8
:10454300838E827407120ECC8E828F8378081212A8
:104553000885188285198378081211F98E828F8352
:10456300A3A3A3A3E0C0E0740512124BD0E0126230
:104573008FC0E0740412124BD0E0F0740712124B98
:104583001246CD80067910800279017415024BC062
:10459300C082C083900342E07002A3E060109003E6
:1045A3004212547E121CEF900342E4F0A3F0121562
:1045B3006312171F024BB274F3120A5774EB1210F3
:1045C30033ECFEEDFF742212124B780812120874BA
:1045D3002612124BE0FC742712124BE0FD742812D2
:1045E300124BE0F50C740F6C7005740F6D60129034
:1045F3001C3BE06402700579C10246C8ECC39D40D0
:10460300F690038178081211F9E9900387F0EC9092
:104613000385F0ED900386F0E50C900388F074FFBA
:104623006A700374FF6B701F901C49E064FF700491
:10463300A3E064FF7005121C6B800C901C49124AA6
:1046430083E8F0A3E9800790037EEAF0A3EBF0EEA2
:104653007001EF6017EEFAEFFB1217D9E9640170EE
:104663000BEEFCEFFD7A927B031223A3900371E41C
:10467300F0A3F0900374F0A3F0900391F0901C3B2F
:10468300E06402700A740F900385F0900386F0745F
:1046930005900380F0740412124BE4F090038178C8
:1046A3000812120885188285198378081211F99067
:1046B3000387E0C0E0740512124BD0E0F0740712D8
:1046C300124B1246CD7415023BF9E41246D2221264
:1046D300418F122451229003CCE0F9121D9722C07E
:1046E30082C083900341E07003121EFF12135F0226
:1046F3004BB2C082C083900341E07007E4901BC8B3
:10470300F080317401901BC8F0900341E064FF60B6
:10471300237C41E0C394415002E0FCECFAE0C39AED
:10472300F0EC75F0E8A4CCAAF075F003A42AFD7AA6
:10473300801247437AC87B1B7941122439024BB25A
:104743007B009003CCE0F9121D8B2274F4120A57FC
:1047530074EB1210338A088B098C0A8D0B74019049
:1047630003801247831211F9740512124BE9F07496
:104773000412124B7403F0740712124BE4024BBD84
:104783001241037808221246D274152274F4120AD5
:104793005774FC121033E9851882851983F0EAFEF9
:1047A300EBFF90037E125B0912155D8A0A8B0BEAFD
:1047B3007001EB700579CA0248F3EA2409F508EBA6
:1047C300124B5A850882F583E064FE7004A3E0640B
:1047D300FF700579C30248F390037E12547E1217CB
:1047E30085E50A240CF582E50B124A7B124AA07474
:1047F3000212124B7402F0740112124BAA82AB83A1
:1048030012169B8A0A8B0BAE0AAF0BEE7001EF7088
:10481300030248EA1248F8124B4E740688828983D1
:10482300F0A3A882A98390036BE088828983F0EECA
:104833002417F582EF12538AEE241A125EFC1249F2
:1048430011EE2413125EFC7401125E967440F0A301
:10485300E4124EAC8E828F83A3A3E8F0A3E9125F28
:104863001FE9FE60030248EC7409900380F0AA0874
:10487300AB09794B124A75124B4E900374124AD00E
:10488300900373E0FA851882851983E06A600CE06F
:10489300900373124EA879E1122439901C29124B0C
:1048A3004E901C2BE0687003A3E069601A900344E8
:1048B300124AD0901C2B12547E121659901C2B12A4
:1048C3005B097A011247437A007B041246D9901C94
:1048D3002B1240F374027808121175AC08AD09FA73
:1048E3007B0412474580027E10E490112AF0EEF912
:1048F3007404024BC01248FC22EE240BF582EF3401
:1049030000F5832212490212548288828983EAF0D5
:10491300A3EBF02274F1120A5774E21210338518D4
:1049230082851983ECF0A3EDF0EAFEEBFF742D1200
:10493300124BE0F50E900380E0FA74046A6005748C
:10494300086A700579C2024A6D851882851983E069
:10495300FCEEFA12155D8A088B09EA7001EB70050B
:1049630079CA024A6DEA2409F50AEB125F0EE06484
:10497300FE7004A3E064FF700579C3024A6D7403FB
:10498300900380124EA87950122439AA0AAB0B79EE
:104993004B122439851882851983124A83124AD00F
:1049A300E5082402F50CE509125F18900373124A17
:1049B30098900374124AD0E50E90036B124AA074C8
:1049C300CE550E4480C0E0741212124BD0E0F0E5D5
:1049D30008240CF582E509124A7BF0740F12124B7E
:1049E3007402124A98740712124BE8F0A3E9124AB0
:1049F300D6741012124BE8F0A3E9125EACC0E07457
:104A03000512124BD0E0F0741B12124BE4124A8AC7
:104A1300A3A3E0900386F07A867B037954124A7548
:104A2300A3A3A3E0900385F07A857B03794712243F
:104A330039900385E0C3940F5024740512124BE0A0
:104A4300C0E0740212124BD0E0F0740412124B74E3
:104A530001F0740212124BAA82AB8312245D740517
:104A630012124BAA82AB8312243F741E120F9D02B3
:104A73002D881224390230A51251F6049003912295
:104A8300124EB390037E22124A8E22F0850882854D
:104A93000983A3A322124E9EF8A3E0F922F0EEFCB1
:104AA300EFFD7A927B031223A322C082C083EB9093
:104AB3000388F012154B024BB2F8EF124CAC88820C
:104AC300F583E022124B3EA3E022125E86E8F0A3B8
:104AD300E9F022124B49024A9B74F7120A5774F801
:104AE300121033EAFEEBFF7900900380E064087054
:104AF3004185188285198374FD125EEB12162974A1
:104B03000212124B124911740512124BE4124B3A62
:104B1300E0C0E0740412124BD0E0124B45C0E074C5
:104B23000612124BD0E0F0740712124B124EA7126A
:104B3300167D7408023C49124B3E22F08E828F830D
:104B4300A322F0022F1B124107E022124EB322E5EB
:104B5300082401F508E5093400F509221240FB1287
:104B63000F9D7402120F9D7F02020D30C082C0831D
:104B73009003527425F0A37414F09003EF74CBF0F8
:104B8300A37416F09003567455F0A37414F09003B5
:104B9300587425F0A37414F090035A745BF0A37453
:104BA30014F0800B740B12124B1241FF120F9DD0A5
:104BB30083D082020F3174078003124789120F9D3D
:104BC3007F04020D3074F0120A578A828B83125FBE
:104BD30003EE7001EF7003024CA9EA2402F8EB1212
:104BE3004CAC900312E07002A3E0601388828983C7
:104BF300E0F9EEFAEFFB900312125581122657EEFD
:104C03002406F8EF3400F9880A890BEE2409080812
:104C130008EF3400F9880C890D8882F583E064027B
:104C2300704B850A82850B83E054026052850882AB
:104C3300850983E064E96047EE240A08EF12678779
:104C4300700A901C3DE00488828983F0E014F074BC
:104C530004850C82850D83F0901C3E125E90E8F073
:104C6300A3E912679C7001EB7003126274850C82D6
:104C7300850D83E0FA74026A600574066A702785FD
:104C83000A82850B83E0A2E0501C85088285098394
:104C9300E0F9EEFAEFFB122547850A82850B83E0E4
:104CA30054FEF0A3E0F0022FCE3400F988088909FE
:104CB3002274EC120A5774DD121033EAFEEBFF8CF8
:104CC300128D13743712124B780C121208751000E0
:104CD300740512124BAC82AD8312252FEE240BF513
:104CE30008EF124B5A740512124BE0A2E5501975E6
:104CF3001001AC82AD8385088285098312547E122C
:104D03002553E96003024E4F740512124BE0A2E6ED
:104D13005022740612124BE05403701874051212D9
:104D23004BE0540CFA740C6A600A74086A600575E7
:104D330011018003751100740512124BE05403FA3C
:104D430074026A7013AC82AD83850882850983126D
:104D5300547E12251D024E4FEE2406F50AEF122C47
:104D6300B674016A7037E5116003124E857405123B
:104D7300124BA882A983740312124BE8F0A3E91221
:104D83004EAC851882851983124E96C0E0740212C8
:104D9300124BD0E0124EA812262B024E4FEA6003AC
:104DA300024E4F900368E06401700C850A82850B04
:104DB30083E07003024E4F742212124B7402124EA0
:104DC300AC741A12124B124AD0E511600874051222
:104DD300124B124E85740512124BE0540C6404708E
:104DE30073EE240FF582EF12608FC0E07417121276
:104DF3004BD0E0F0900314E07002A3E0604E121673
:104E03002F8A088B09A808A909741A12124BE068A3
:104E13007003A3E0697035780C120F67E510F5088D
:104E23007808120F737812120F6FA911740C1212F3
:104E33004BAC82AD83742112124BAA82AB839003D5
:104E4300141255811226577407120F9D7423120FE3
:104E53009D023AEA780C120F677812120F6F9003D3
:104E63007E120DA8A910742212124BAC82AD83746A
:104E73000D12124BAA82AB8312253B7408120F9DAD
:104E830080CAAC82AD83850882850983125482125D
:104E9300252922E8F0A3E9124E9E22F0850A828595
:104EA3000B83E022E412418B221230A4124EB32270
:104EB300E0024A9BC082C083121E39024BB2C082F9
:104EC300C083121E3F024BB2C082C083121E450232
:104ED3004BB2C082C083121E4B024BB274F7120A4C
:104EE30057740912124BE0F5087808120F73121E5B
:104EF300577401023C49C082C083121E5D024BB24B
:104F0300C082C083121E63024BB2C082C083121ED2
:104F130069024BB274F7120A57EAFEEBFF74016998
:104F2300701079001214677C1E7900EEFAEFFB1201
:104F33001413023C4C74F4120A5774F91210338A96
:104F4300088B098C0A8D0B741312124B12547E902A
:104F5300114CE07002A3E06027E98518828519836C
:104F6300F0740112124B78081211F9EAF8EBF97494
:104F73000512124B12418390114C12558112265780
:104F8300024BB9C082C083121E99024BB274F7124E
:104F93000A57901BCBE0F97F00800B1251CF540DC1
:104FA30064017001190F12518C5003E970ED023C3A
:104FB3004C74F7120A57901BCCE0F97F00800B1258
:104FC30051CF548D64817001190F12518C5003E934
:104FD30070ED023C4C74F3120A57890CE975F00624
:104FE300A4F8A9F0740C28F508E439F509EA2508B2
:104FF300FAE43509FB121CE98A0A8B0BAE0AAF0BE4
:10500300EE7001EF6027AC08AD097900121C5F1246
:1050130048F8E50CF0EE2508F8EF3509F98E828F94
:1050230083A3A3A3A3A3A3A3A3A3124AD0EEFAEF3C
:10503300FB023BFC74F6120A57EAFEEBFF1213EF76
:10504300901BCAE0FAE9C39A400990034E12547EBA
:105053001213F5EE2402F8EF124CAC900350E088E3
:10506300828983F0900350E00412507C1213FB8575
:105073000882850983E0023E84F0EEFAEFFB22C04A
:1050830082C083790090034E80010912547E8A8284
:105093008B83E5827002E58370F0024BB274F712E2
:1050A3000A57EAFEEBFFEE7001EF605E90034EE0FD
:1050B3007002A3E0605490034E1257D87A007B002D
:1050C300800FAA82AB831257D8E5827002E5836012
:1050D30039EE65827003EF658370E78E828F8312EA
:1050E3004B4E90034E125B09EE6C7002EF6D700530
:1050F30090034E80048A828B83124AD0EEFAEFFB30
:105103001225FBEEFAEFFB121CEF023C4CC082C0EF
:105113008390034EE0F8A3E08003ECF8EDF9E87028
:1051230001E96009125B05EC7001ED70ED8A828B79
:1051330083E4F0A3F0E87001E96006888289838044
:105143000390034E124911024BB274F7120A57909F
:10515300034E80048A828B83125EDF7001EB602230
:105163007F0080010F12518C50EAEF75F006A4FC0A
:10517300ADF0EA2CFCEB3DFD74101251E36970E4D1
:1051830080047A007B00023C4C1251F0FCEFC39C7C
:105193002274F7120A5778008001081251ECFDE8D7
:1051A300C39D5025E875F006A4FEAFF0EA2EFEEB92
:1051B3003FFFEE2410F582EF12608F6970DCEE245E
:1051C30011F582EF12608F4CF0023C4CEF75F00644
:1051D300A4FCADF0EA2CFCEB3DFD74111251E3226B
:1051E3002CF582E43DF583E0221251F022EA240BF0
:1051F300F582EB3400F583E02274F6120A57121499
:10520300DF7A00801B8A087509007403780812117D
:105213007512606E125C3AA3A3A3A3A3A3A3F00A1F
:10522300902B7D1265CF40DD7A00801A8A087509BC
:105233000074037808121175E5082402F582E50964
:10524300341B125EE70A1265CC40E1902B6FE493A6
:1052530090035CF012525D024B6A7CE87D037A1086
:105263007B009003CCE0F9121D912274F0120A57CF
:1052730074FD121033EAFEEBFF89088C091214C186
:105283008A0A8B0BA80AA90B900371E0687003A329
:10529300E0697005790002537FAC087902EEFAEFFA
:1052A300FB1214BBE960EDE508F50A780A120F73E7
:1052B300125946120F9DE9600302537DE508C2E5CA
:1052C300F508900351E0F50C900371125B11780A15
:1052D300120F6F7D017C00900351E0F9AA0AAB0B1A
:1052E3001214737402120F9DE9FA900351E004F053
:1052F300EA600302537D740112124B7406125F2697
:10530300EA7001EB6070125384E50A241AF582E512
:105313000B125EFF124911E50A125B00E50B125EE8
:10532300FF12417D88828983F07478550812609357
:10533300A3A3E50CF0EE88828983A3A3A3F0EF88EF
:10534300828983A3A3A3A3F0E488828983A312534E
:105353009474FD125EEBE5096013C3941E500EE5D1
:105363000A2413F582E50B125EFFE509F0AA0AABE6
:105373000B12133580067910800279C77403022F4C
:10538300CBEA2417F582EB1249027401F0121629B5
:1053930022A3A3A3A3F0850A82850B83A3A322C020
:1053A30082C0839011EDE06401901C3C7006E0FC28
:1053B30079018004E0FC79037A007B001214130264
:1053C3004BB274F4120A578A088B09E9FE1216B31A
:1053D300E960077AFF7BFF025460901C3BE06402A4
:1053E300706E7900125463EA7001EB6042126782B7
:1053F300FC74016C7022900370E08A828B83A3A3F8
:10540300A3A3F08A828B83A3A312547E74FE6A70D3
:105413000374FF6B6010804574036C601A74046C32
:1054230070047AFE80AF88828983E06402700890FA
:1054330003BDE06402701990037E125B09AA08ABF6
:1054430009121761EA7001EB6006AA08AB09800D27
:10545300AA08AB09900352125581122657024BC377
:10546300AA08AB0912546B221214C1EEF91214B537
:1054730022EA240BF582EB3400F58312548222E0F6
:10548300FAA3E0FB2274F7120A57EAFEEBFF121BA2
:10549300A5E9700AEEFAEFFB121269E96006EEFA6B
:1054A300EFFB80047AFE7BFF023C4C74F2120A5736
:1054B3008A088B098C0A8D0BE9FE7F001216B3E96B
:1054C30079006003025577AA08AB091269097002D3
:1054D300E5836017A3A3A3A3A3E0FA74026A704F42
:1054E3009003BDE064027003025575AA08AB0990EE
:1054F300035812558112265712126F8A0C8B0DA86E
:105503000CA90DE87001E96069E82405F582E91248
:10551300608FA2E0505C750C01A2E1501C7901ACD4
:1055230008AD09AA0AAB0B121443E9700F80437448
:10553300036A703E750C028003D2E1F0900371E0C0
:10554300650A7004A3E0650B700E7C1EEEF9AA08D1
:10555300AB091214130F801AA90CAC08AD09AA0ADF
:10556300AB0B121443E9700A0FEEF9AA08AB091248
:105573001467EFF90244C6EEFAEFFB900354125599
:105583008522E0F8A3E0F58388822274E8120A57A3
:1055930074F01210338A148B158C088D0974281239
:1055A300124BE0F510A3E0F5119003F5E07002A3B0
:1055B300E0601212690F7002E5836009A3E07005D1
:1055C30079000257BEE514241DF516E5153400F5E0
:1055D300178516821257D6A3E0F50C88828983A318
:1055E300A3E0F50B88828983A3A3A3E0FA888289C9
:1055F30083A3A3A3A3E0F9EAFEE9FFAA08AB091278
:10560300146DE9FA1257E3E02AF50A530C78E5140E
:10561300240BF50EE5153400F50F7808120F6F7D96
:10562300001257C3120F9DE9FA74036A6092EA707D
:105633004290036AE0601EE50CF50D780D120F73BE
:105643007901AC08AD09850E82850F8312547E1251
:105653005950120F9DE50CF50D780D120F73125969
:1056630046120F9DE9700C85108285118374FFF03B
:10567300A38049851082851183E064FF7004A3E051
:1056830064FF60399003BDE0640270030255C38573
:105693000E82850F83E0FAA3E012557D122657EAA6
:1056A30065087003EB650960030255C312557A124E
:1056B3002657851082851183EAF0A3EBF078081250
:1056C3000F6F7D011257C3120F9DA90CEEFAEFFB6A
:1056D3001214C18A088B09A808A909900371E0680C
:1056E3007003A3E06960030257B5EEFAEFFB1234CF
:1056F300E77002E5836023A3A3A3A3E0FA74016A1E
:10570300600574026A7013851882851983AC82ADB3
:1057130083EEFAEFFB1224C38014121629EAFCEB82
:10572300FD851882851983AA82AB831223A385146E
:1057330082851583A3A3A3A3A3A3A3A3E0640170FA
:105743001AE5142415F582E515125EFF125B097440
:105753000812124BAA82AB831223A38516828517E4
:1057630083125581A3E04430F5087808120F73744F
:105773000112124B8582088583097808120F6F7412
:105783000B12124B8582088583097808120F6FE587
:105793000BF5087808120F737900EEFCEFFD850E08
:1057A30082850F8312547E12143D7406120F9D02DC
:1057B30055C31257E3E50AF012164174100265ADA2
:1057C300AC0AA90B850E82850F83125482121473BF
:1057D300740222F583124EB38001F98882898322F1
:1057E30085168285178312558502592C74EE120A89
:1057F3005774F01210338A108B11EA241DF50EEB47
:105803003400F50F850E821257D6A3A3E0F50C885A
:10581300828983125921E0FBECFEEBFF88828983A6
:10582300A3A3125921A3A3E0FAE4CAFBECF508EB06
:10583300F50988828983A3A3A3A3A3A3A3E0F50AFD
:1058430088828983A3E05478F50BA2E45016E824F8
:1058530008FCE93400FD740812124BAA82AB8312D0
:1058630023A37A08E50BA2E55024EAF8850E828586
:105873000F83E028F8A3E03400F9740828FCE43926
:10588300FD851882851983AA82AB831223A3AC0AF0
:10589300A90CEEFAEFFB121479E9FA74036A607942
:1058A300900371E06E7003A3E06F605EEA7054E5ED
:1058B3000BF50D780D120F73125932120F9DE9700B
:1058C30058780B120F73740112124B85820E858365
:1058D3000F780E120F6F740B12124B85820E858395
:1058E3000F780E120F6FE50CF50B780B120F73A9DF
:1058F3000AAC08AD09EEFAEFFB12143D7406120F61
:105903009D801674046A701180B7E50BF50A780A56
:10591300120F73125932120F9D7410025C93A3A3DA
:10592300A3E0FC888289838001A3A3A3A3A3227994
:1059330001E510240BF582E51112490212691B12CD
:1059430059502279027CFE7DFFEEFAEFFB121461BF
:1059530074012274E8120A5774F5121033EAFEEB4D
:10596300FF8C088D098912742312124BE0F50F7412
:105973002412124BE0F516A3E0F517742812124B0C
:10598300E0F50EA90F12147F8A108B117401121205
:105993004B7408F0E50EA2E450037410F0E50EA278
:1059A300E55004E02408F0851882851983AA82ABA8
:1059B3008312169B8A0C8B0DEA7001EB7003025A5B
:1059C300F9125384E50C241AF582E50D125EFF12D9
:1059D3004911E50C2418F514E50D3400F515E50C13
:1059E3002416F50AE50D122CB6740312124BAC8281
:1059F300AD83AA10AB111224C3E9601E7401850A9A
:105A030082850B83F0740312124BA882A983851439
:105A130082851583E8F0A3E98025E50EA2E45020F2
:105A2300E5106E7003E5116F70167401850A8285A7
:105A33000B83F0851482851583E516F0A3E517F033
:105A4300E50C125B00E50D125EFF125B117402851B
:105A53000A82850B83F0A3E50E125398E50FF0EE4F
:105A6300850A82850B83A3A3A3F0EF850A82850BA6
:105A730083125394A3A3A3E508F0E509850A82855D
:105A83000B83A3A3A3A3A3A3F0AA10AB1112146DBA
:105A9300E92512850A82850B83A3A3A3A3A3A3A34A
:105AA300F0750800E50EA2E45014AC16AD17E50A34
:105AB3002408FAE50B3400FB1223A3750808E50E4E
:105AC300A2E5501C742612124B125B09E50A250845
:105AD300F8E50B3400F9740828FAE439FB1223A320
:105AE300850C82850D83A3A3E510F0A3E511F0AA2D
:105AF3000CAB0D121335740B0265ADE508240BF5E1
:105B0300822288828983125EA6228A828B83E0F5B1
:105B13000AA3E0F50B2274F2120A578A088B09ECE8
:105B2300FEEDFF890A79001214C190037112313717
