:020000040800F2
:10000000E816002009020008015600081302000843
:1000100083550008151F0008759A000800000000AD
:100020000000000000000000000000001B020008AB
:1000300075210008000000001F020008358A000832
:1000400023020008230200082302000823020008FC
:1000500023020008230200081D2200086322000872
:10006000712200087F2200088D2200082302000868
:1000700023020008230200082302000823020008CC
:1000800023020008230200082302000823020008BC
:100090002302000823020008230200089B22000814
:1000A00000000000230200082302000823020008C9
:1000B000658C0008758C00082302000823020008E4
:1000C000230200082302000823020008230200087C
:1000D000230200082D9400082302000823020008D0
:1000E0002B220008995D0008230200082302000863
:1000F0002302000800F002F800F076F80AA090E869
:10010000000C82448344AAF10107DA4501D100F0D2
:100110006BF8AFF2090EBAE80F0013F0010F18BF29
:10012000FB1A43F001031847D0CA0000F0CA0000D0
:100130000A444FF0000C10F8013B13F0070408BF0D
:1001400010F8014B1D1108BF10F8015B641E05D0AB
:1001500010F8016B641E01F8016BF9D113F0080F60
:100160001EBF10F8014BAD1C0C1B09D16D1E58BFF2
:1001700001F801CBFAD505E014F8016B01F8016B29
:100180006D1EF9D59142D6D370470000002300249C
:1001900000250026103A28BF78C1FBD8520728BF97
:1001A00030C148BF0B60704766290BF02E8465296B
:1001B0000BF02B8467290BF0288461290BF027842E
:1001C000642900F0B380732900F0AB8600207047EB
:1001D0001FB500F0BDFE0400002000210AF0A2FCC3
:1001E000E0601FBD10B510BD00F0B6FF1146FFF76F
:1001F000EFFF09F0CBFF00F0D4FF03B4FFF7F2FFED
:1002000003BC09F070FC000009488047094800471A
:10021000FEE7FEE7FEE7FEE7FEE7FEE7FEE7FEE7B6
:10022000FEE7FEE704480549054A064B7047000013
:10023000018C0008F5000008E8100020E8160020F6
:10024000E8120020E8120020704700000FB40449B3
:1002500010B503AA029800F069FE10BC5DF814FB0B
:10026000640800200FB41CB5074B06AA7B446946FE
:100270000090059800F02BFE0020694600F03AFE41
:100280001CBC5DF814FB0000850C000070B5044632
:1002900085690068C10601D5302600E02026C00728
:1002A00007D070BDD4E9012130469047206A401C38
:1002B00020626D1EF6D570BD70B504468569007864
:1002C000C00707D170BDD4E9012120209047206AE2
:1002D000401C20626D1EF6D570BD70B50C460546FB
:1002E000012A05D02878800600D5EA69002302E0BB
:1002F000012305E05B1C934202D2E05C0028F9D1A7
:10030000A869E618C01AA861286A18442862284615
:10031000FFF7BCFF04E0D5E9012114F8010B904779
:10032000B442F8D32846FFF7C7FF70BD2DE9F0416E
:100330000646002410687529314616A510D0AFF383
:100340000080002802DA404213A507E031688A07DE
:1003500001D512A502E0490704D511A5012401E049
:10036000AFF3008000210A2206F1240709E0B0FB68
:10037000F2FCB0FBF2F302FB1C003030785418465C
:10038000491C0028F3D123462A463046BDE8F041F7
:1003900000F0B1B9000000002D0000002B000000AB
:1003A000200000002DE9F05F894604464FF0000A66
:1003B000DFF874B1FB44C0F820A02046E16888470C
:1003C000002874D0252806D0D4E901219047206A5E
:1003D000401C2062F1E700265F462046E16888471E
:1003E0002028054607DB312D05D2781910F8200C9E
:1003F00008B10643F1E7B00701D526F00406C4F8BA
:100400001CA00027C4F818A02A2D09D0284609F0FE
:1004100063FB38B304EB8708303DC8F8185019E087
:1004200059F8041B204604EB87029161E168884774
:10043000012F054618D1E069002820DA26F02006B1
:100440001DE0D8F8180000EB800005EB40003038C4
:10045000C8F818002046E1688847054609F03CFBCB
:100460000028EED1012F0AD02E2D08D12046E168B8
:1004700088477F1C0546022F46F02006C4DBA06992
:10048000002803DA404246F00106A061F00701D0DF
:1004900026F010066C2D0BD0682D09D04C2D39D0CC
:1004A0006A2D35D0742D35D07A2D33D016E038E052
:1004B000E1682F4620468847B842054609D16C2F8F
:1004C00026D04FF48060E168064320468847054601
:1004D00004E06C2F1AD04FF4807006430DB3A5F1E1
:1004E0004100192802D8203546F400664A462946BC
:1004F000204626604E46FFF757FE80B101280BD0FC
:10050000F61D26F0070000F1080956E74020E4E751
:100510008020D8E70020D6E706F104094DE72846F9
:1005200052E7206ABDE8F09F74C7000040EA01036B
:10053000024630B59B0710D14FF0013400E008C2ED
:1005400008C91D1B9D4315EAC41FF8D013F0FF0115
:1005500002F8011B0DD01B0AF8E711F8013B002B34
:1005600002F8013B05D011F8013B002B02F8013BDA
:10057000F3D130BD10B5431C02E010F8011B71B17E
:100580008107FAD14FF0013202C88C1A8C4314EA69
:10059000C211F9D0C01A0A0603D0C01E10BDC01A7D
:1005A00010BD0A0401D0801E10BD0902FCD0401EFF
:1005B00010BD032A40F2308010F0030C00F01580CB
:1005C00011F8013BBCF1020F624498BF11F801CB56
:1005D00000F8013B38BF11F8013BA2F1040298BFBB
:1005E00000F801CB38BF00F8013B11F0030300F025
:1005F0002580083AC0F0088051F8043B083A51F8C9
:1006000004CBA0E80810F5E7121D5CBF51F8043BCD
:1006100040F8043BAFF30080D20724BF11F8013B40
:1006200011F801CB48BF11F8012B24BF00F8013BA2
:1006300000F801CB48BF00F8012B704710B5203AF5
:10064000C0F00B80B1E81850203AA0E81850B1E88B
:100650001850A0E81850BFF4F5AF5FEA027C24BF41
:10066000B1E81850A0E8185044BF18C918C0BDE838
:1006700010405FEA827C24BF51F8043B40F8043B01
:1006800008BF7047D20728BF31F8023B48BF11F8B6
:10069000012B28BF20F8023B48BF00F8012B704710
:1006A0004FF0000200B5134694469646203922BF0B
:1006B000A0E80C50A0E80C50B1F12001BFF4F7AF56
:1006C000090728BFA0E80C5048BF0CC05DF804EB38
:1006D000890028BF40F8042B08BF704748BF20F8A6
:1006E000022B11F0804F18BF00F8012B70477047A4
:1006F0007047704770472DE9F0470D46994692467E
:10070000044600F124080168880604D5E06921F058
:100710001001216000E00120A84201DD471B00E03C
:100720000027A1697A1902EB0900081AA061207854
:10073000C00602D42046FFF7A9FD002608E0D4E950
:1007400001211AF806009047206A401C761C20629E
:100750004E45F4DB2078C0060AD52046FFF796FD0B
:1007600006E0D4E9012130209047206A401C206235
:10077000381EA7F10107F4DC07E0D4E9012118F8DD
:1007800005009047206A401C2062281EA5F1010543
:10079000F3DC2046FFF790FD2078000602D502200A
:1007A000BDE8F0870120FBE770472DE9FF4F0C46BD
:1007B0001E464FF0FF378BB0D2E90001DDF86080B4
:1007C0000A908A46C1F30A5505B93D4600210846FC
:1007D0004FF00000BAF1000F00F4400005DA00EB22
:1007E00080004FF4400101EA50004FEA9059B9F1FE
:1007F000010F00DDB9460A9850EA4A000ED044F6CF
:100800001050A5F2FF3545432F14B8F1000F1ED04C
:100810007542291E1EDDC9F100021CE0B8F1010F6E
:100820004FF0000001D0302103E0F24305E02154F5
:10083000401CB042FBDB30460022002121540B99C2
:10084000C1F80880C1E900200FB0BDE8F08FBD1BE2
:100850006D1CDEE74A4600DA694206A800F002FC99
:1008600006AB93E8070003AB83E8070050460A99FC
:1008700000F0E0FC8DE80700A0F500501F38009064
:100880000398002D0ADD42F21F014A460844002366
:1008900003A90390684600F049FF09E0A0F5005065
:1008A0004A461F38002303A90390684600F053FF0F
:1008B0008DE807000004000C03D04FF0FF30410822
:1008C00000E01046B8F1000F03D000220092154658
:1008D0001EE0751E05D400F03FFB303262556D1EE0
:1008E000F9D5B3460122084302D000227F1C04E060
:1008F0002078302801D100227F1E002A099784D059
:100900001DE0112D07DA00F027FB303262556D1C17
:1009100050EA0102F5D1084302D00098C8B10EE0B8
:100920000021681E05E0235C625C63542254401E73
:10093000491C8142F7DBAB46A81B401E09900020F2
:1009400004F80B000B98099AC0F80880C0E9002B46
:100950007AE711264FF0000857E72DE9F04F884657
:100960000446D21D22F0070191B0D1E90001CDE982
:100970000A0109F09DF802460B98C00F01D02D2006
:1009800007E02068810701D52B2002E0202101EA41
:10099000C000032A099001D0072A05DB034641461F
:1009A000204600F01FFB0BE12078800601D5E069AE
:1009B00000E00620B8F1650F814606D0B8F1660F59
:1009C00018D0B8F1670F70D131E00020B9F1110FE4
:1009D000009001DB112301E009F101030AAA01A93A
:1009E0000CA8FFF7E2FEDDE90C70002609F1010515
:1009F000834647E001204B4600904FF000470AAA8B
:100A000001A90CA8FFF7D1FEDDE90DB00C995D46F8
:100A1000002610B909F101000D18B9EB050003D447
:100A2000C0F1FF3609F10105A5EB09002BE0B9F192
:100A3000010F01DA4FF001090020B9F1110F009008
:100A4000484601DD112300E003460AAA01A90CA8CB
:100A5000FFF7ABFEDDE90C704D460026834620789B
:100A600000070AD4AB4500DA5D4601A8012D04DD7C
:100A7000411911F8011C302907D04F4502DA17F14E
:100A8000040F04DA012082460FE06D1EEEE7002F0E
:100A900002DCED1B3E4403E0781CA84200DD7D1C17
:100AA000B81B00F1010A4FF000472078000703D47B
:100AB000AA4501DB4FF0FF3A0021B7F1004F0DF1DD
:100AC00043088DF8431024D002202B23002F01DA95
:100AD0007F422D230A21021EA0F1010000DC5FB13C
:100AE00097FBF1FC97FBF1F201FB1C7C17460CF124
:100AF000300C08F801CDEEE7A8F101000370218861
:100B0000090501D5452100E06521A0F1010800F8A3
:100B1000011C09980FA9A1EB0807FF1D00B10120D6
:100B2000411901EBEA70A1693844081A401EA0611E
:100B30002078C00602D42046FFF7A8FB099828B108
:100B4000D4E901219047206A401C20622078C00629
:100B500022D52046FFF79AFB1EE0002E04DBB345AA
:100B600002DD01A8805D00E03020D4E9012190473A
:100B7000206A401C2062761CAAF101005FEA000A8C
:100B80000AD100F0E5F9C0680168405CD4E90121B0
:100B90009047206A401C2062281EA5F10105DCDC7C
:100BA00007E0D4E9012118F8010B9047206A401CA6
:100BB0002062381EA7F10107F3DC2046FFF77CFB1B
:100BC000032011B041E600002DE9F04F04460D4628
:100BD000D21D22F0070089B0D0E900974846394677
:100BE00008F066FF0246F80F01D02D2307E02068C9
:100BF000810701D52B2302E0202101EAC0038DF8F3
:100C000020300BB1012000E00020032A824601D0F1
:100C1000072A04DB2946204600F0E4F93FE120786A
:100C2000800601D40D2500E0E569C7F30A560D2DB5
:100C300049DA00214FEA175B08464FF00000002F09
:100C400000F4400007DA00EB80004FF4400100EBB5
:100C5000D07001EA60008115012901DD4FF0FF31FC
:100C600000224FEA850CBCF1180F06D31346ACF1F5
:100C700018004FF08052C24003E04FF4801323FA73
:100C80000CF30CF10C0CBCF1200F04D3ACF1200CD4
:100C900009FA0CF001E007FA0CF000294FF00048C7
:100CA00001DD18B90FE00ED140450CD319EB020954
:100CB0005F4121B9404502D19F4329EA0209BBEBBC
:100CC000175F00D0761C2088000502D57B48784449
:100CD00002E07A487844193808AA302302F80A302A
:100CE000037C0AF10101002E0AF1020A53546A46FC
:100CF00002DC4FF0300101E04FF031014FF001080C
:100D00008DF8001002D0A6F2FF3603E059EA470141
:100D100000D06B4E002D02DC2178090704D54FF07E
:100D200002082E218DF80110C44600210BE0C7F304
:100D300003433F01C35C491C6D1E02F808300529BE
:100D400008F1010801DA002DF1DC00210CE000EBD4
:100D50001973491C1B786D1E082902F808304FEAE8
:100D6000091908F1010801DA002DF0DC21688B0671
:100D700002D516E0A8F10108E04505DD02EB080305
:100D800013F8013C302BF5D0B8F1000F09DD02EB70
:100D9000080313F8013C2E2B03D1090701D4A8F155
:100DA0000108002D05DD3E2102F808106D1E08F136
:100DB0000108407C002E02F8080008F1010804DA5E
:100DC0002D20764202F8080002E02B2002F80800ED
:100DD0000A214FF47A70864208F101080BDB96FB7A
:100DE000F0F3303302F8083096FBF0F308F1010815
:100DF00000FB136601E0642E0CDB642096FBF0F32D
:100E0000303302F8083096FBF0F308F1010800FBDC
:100E1000136601E00A2E06DB96FBF1F0303002F893
:100E2000080008F1010896FBF1F001FB106030307A
:100E300002F80800A16908F1010808EB050202EBBD
:100E40000A00081AA0612078C00602D42046FFF7E5
:100E50001DFA216A08AE01EB0A00206204E0D4E921
:100E6000012116F8010B9047BAF1010AF7D2207858
:100E7000C00602D52046FFF709FA6E4609E016F8CB
:100E8000010B3E280FD0D4E901219047206A401C75
:100E90002062B8F10108F2D22046FFF70DFA09B03E
:100EA0000320BDE8F08F206A2844206203E0D4E9E3
:100EB0000121302090476D1EEBD3F8E77EBE000085
:100EC00002FCFFFF01694A1C02610878704700B507
:100ED0008FB0CDE901310021059105497944CDE973
:100EE000031011466846FFF75DFA0FB000BD000021
:100EF000E5FFFFFF0A6802F8010B0A60704710B5B2
:100F0000436913B1AFF3008001E0FFF7E6F9012078
:100F100010BD127800F124010A7000224A700122EB
:100F2000EDE711684FF0FF32E9E70000074B70B5BD
:100F30000D467B44FFF7CBFF0446284600F004F93A
:100F400010B14FF0FF3070BD204670BDB38F000070
:100F500000487047A410002030B5B0F10A024FEAF3
:100F6000900E71F100034EEA817EB0EB0E0061EB52
:100F700091014FEA101E4EEA017E10EB0E0041EB8C
:100F800011114FEA102E4EEA016E10EB0E0041EBEC
:100F900011214FEA104E4EEA014E10EB0E0041EBCC
:100FA0001141401841F100014FEAD00040EA417080
:100FB0004FEAD10110EB80054FEA810444EA9074B6
:100FC00044EB01046D1944EB0404521BA3414FF0A0
:100FD000000348BF0A3200D530BD401C41F100017A
:100FE00030BD00002DE9F0411F460446032601688C
:100FF000072A01F4006004DB08B116A505E016A578
:1010000003E008B115A500E015A521F0100020604F
:10101000A069C01EA0610FB1401EA0612046FFF76D
:1010200035F94FB1D4E9012138469047206A401C78
:101030002062C01C206206E0206AFAE7D4E90121A0
:1010400015F8010B9047761EF8D22046FFF734F9C9
:10105000BDE8F0814E414E006E616E00494E460083
:10106000696E66002DE9F047814616468AB035481C
:1010700078440DC88DE80D0032487844801C03ACDC
:101080000DC884E80D0041F69B300844372190FBE1
:10109000F1F290FBF1F5A5F1800501FB12041B3C78
:1010A00002D56442012000E00020DFF898A08046CD
:1010B0000027FA44AAF1BE0A0EE0E0070AD0324641
:1010C000684607EB470101230AEB810100F043FB6F
:1010D0008DE8070064107F1C002CEED1194F7F446F
:1010E000AE3F19E0E80715D007EB04100DF1180A20
:1010F00090E80E008AE80E00C068F04201D198190D
:1011000008903246012306A903A800F024FB03AB94
:1011100083E807006D10641C002DE3D14FF001033C
:1011200032466946B8F1000F03A802D000F0FEFA7B
:1011300001E000F010FBC9E90001C9F808200AB07D
:10114000BDE8F0876CBB0000007B00F080007047BA
:1011500000487047841000207546FFF7F9FFAE463F
:1011600005006946534620F00700854618B020B5B3
:10117000FFF758F8BDE820404FF000064FF0000799
:101180004FF000084FF0000B21F00701AC46ACE82F
:10119000C009ACE8C009ACE8C009ACE8C0098D469C
:1011A000704710B50446AFF300802046BDE81040FC
:1011B000FFF723B84FF0013C50F8042B51F8043BE3
:1011C0009A4221D1A2EB0C03934313EACC1317D11B
:1011D00050F8042B51F8043B9A4215D1A2EB0C03B2
:1011E000934313EACC130BD150F8042B51F8043B72
:1011F0009A4209D1A2EB0C03934313EACC13DBD040
:101200004FF00000704700BFD01A01BAB1FA81F167
:1012100001F0180122FA01F0CB40C1F12001DBB24C
:10122000C0B2C01A2CFA01F3D11A914311EAC311CA
:10123000E6D170475FEA400C08BF91F0000F4FEA1B
:101240008C234FEAC12243EA51514FEA1C5018BF88
:1012500000F5F0404FEA300018BF41F000415FEA6E
:101260006C5C00F02980BCF1FF3F08BF40F080407B
:101270007047130C06BF12044FF0100C4FF0000C17
:10128000130E04BF12020CF1080C130F04BF12015D
:101290000CF1040C930F04BF92000CF1020CD30F5D
:1012A00004BF52000CF1010C11464FF00002A0F1F6
:1012B0001F00A0EB0C00704711F0004F08BF7047F3
:1012C00031F000413FF4D5AF0B0C06BF09044FF0DD
:1012D000100C4FF0000C0B0E04BF09020CF1080CAF
:1012E0000B0F04BF09010CF1040C8B0F04BF890024
:1012F0000CF1020CCB0F04BF49000CF1010CCCF136
:101300002003A0EB0C0022FA03F302FA0CF241EAEC
:10131000030100F10100704720F07F4C80EA0300D8
:1013200023F07F47ACEB070303F57C5300F000404C
:1013300003F1FF032DE980494FEA154B09B44FEA49
:10134000144325EA0B4E24EA03480FF2042606EB69
:10135000132749083E785FEA320203FB0667C7F5A8
:10136000000707FB06F64FEA54374FEAD64606F168
:10137000020607FB066CCCF1005C4FEA1C472CEA26
:10138000074C07FB06F40CFB06F504EB15464FEA89
:10139000961634BF00204FF000404FEAD13706FBCD
:1013A00007FC4FEA1C4C0CFB0BF7D21B03FB0CF7A2
:1013B00061EB07010CFB0EF7B0EB074072EB174235
:1013C0000CFB08F734BFA2EB0742B2EB074261EB1C
:1013D00017414FEA0C444FEA910706FB07FC4FEA1E
:1013E0001C4C0CFB0BF7B0EBC74072EB573203FB06
:1013F0000CF734BFA2EBC742B2EBC74261EB5731E7
:101400000CFB0EF7B0EBC70072EB57720CFB08F742
:1014100034BFA2EBC702B2EBC70261EB5771039F67
:101420004FEA816141EA921104EBCC044FEAD137D3
:101430004FEA826206FB07FC42EA90124FEA8060A4
:101440004FEA1C4C0CFB0BF7D21B03FB0CF761EBB8
:1014500007010CFB0EF7B0EB074072EB17420CFBD9
:1014600008F734BFA2EB0742B2EB074261EB17412A
:101470004FEA8C554FEA910704EB9C2406FB07FCCE
:101480004FEA1C4C0CFB0BF7B0EBC74072EB57322A
:1014900003FB0CF734BFA2EBC742B2EBC74261EBD0
:1014A00057310CFB0EF7B0EBC70072EB57720CFB19
:1014B00008F734BFA2EBC702B2EBC70261EB57716A
:1014C00015EB4C254FEA816141EA92114FEA8262A5
:1014D0004FEAD13742EA901206FB07FC44F10004C0
:1014E0004FEA80604FEA1C4C0CFB0BF7D21B03FB4E
:1014F0000CF761EB07010CFB0EF7B0EB074072EB4A
:1015000017420CFB08F734BFA2EB0742B2EB0742CD
:1015100061EB174115EB1C154FEA813141EA92410D
:101520004FEA823242EA90424FEA80304FEA0C762C
:1015300044F1000448EA03434EEA0B484FF0000E22
:10154000B2EB080C71EB030724BF624639464EEB41
:101550000E0E4FF0000B0018524149414BEB0B0BA4
:10156000B2EB080C71EB03077BF1000B24BF624662
:1015700039464EEB0E0E4FF0000B00185241494118
:101580004BEB0B0BB2EB080C71EB03077BF1000B81
:1015900024BF624639464EEB0E0E51EA020718BFD1
:1015A00046F0010616EB0E7655F1000254F10001EB
:1015B00003D5BDE88901BDE80088BDE88901BDE823
:1015C0000048B619524141EB0101A3F101037047F4
:1015D00080807F7E7D7C7B7A797877767675747370
:1015E000727171706F6E6E6D6C6C6B6A6A6968682F
:1015F000676666656464636362616160605F5F5EC5
:101600005E5D5D5C5C5B5B5A5A595958585757563A
:10161000565555555454535352525251515050509F
:101620004F4F4F4E4E4D4D4D4C4C4C4B4B4B4A4AF1
:101630004A49494948484847474747464646454535
:10164000454444444443434343424242424141416E
:10165000002B9C4630D477002BD01CB54FEA3707BF
:1016600003B44FF010004FF01001BAF1000F06D094
:10167000BCF1000FDCBF40F0080040F008014FF063
:1016800000000FBCBDE810400BF1010BBBF1010FD6
:1016900008BF5FEA170722BF12F1010211F1010131
:1016A0004FF0004143F1000300F0004043EA000026
:1016B0007047F9D35708D0E746EA064613F1400FC2
:1016C0004FEA16461FDD13F1200FDFBF16430A460F
:1016D000002120335B42BED0C3F1200746EA064614
:1016E00002FA07F74FEA164646EA0706C3F1200753
:1016F00022FA03F201FA07F721FA03F14FF000038F
:1017000042EA0702A7E746EA020646EA06464FEA29
:10171000164646EA0106BCBF46EA0646360C4FF0BE
:1017200000034FF000024FF0000194E72DE9804CD8
:101730009A46934670B491E8380007C831EA400CE5
:1017400048BF34EA430C03D5FFF7E6FDFFF780FFFF
:10175000F0BCBDE8008C2DE9804C9A46934670B4ED
:1017600091E8380007C810F0804F08BF13F0804F91
:1017700003D100F005F8FFF76BFFF0BCBDE8008C6B
:1017800020F07F4780EA030023F07F4C07EB0C0337
:10179000A3F57C5300F00040A3F1FE0392F0000F8C
:1017A00000F0B38095F0000F00F077802DE901493B
:1017B0004FEA11404FEA144621EA004800FB06FCBC
:1017C00024EA064708FB06F607FB08F800FB07F7C4
:1017D00018EB06484CEB164C4FEA124B18EB074837
:1017E0004FEA15464CEB174022EA0B4E0BFB06FC6A
:1017F00025EA06470EFB06F607FB0EFE0BFB07F776
:101800001EEB064E4CEB164C4FF000061EEB074E3F
:101810004CEB174B18EB0B0840F1000018EB0E0BCC
:1018200058EB000840F100008F1A4FF000013CBF58
:10183000C943661B14BFB5EB040C00213CBFC94370
:10184000F61B4FEA17444EEA8E0E27EA04454FEA8C
:101850001C4704FB07622CEA074C05FB07F70CFB4F
:1018600005F604FB0CFC16EB074642EB174216EBA1
:101870000C4642EB1C421BEB060658EB02024141B0
:1018800046EA9E0601D5BDE80189B619524141EBF1
:101890000101A3F10103BDE801894FEA14454FEAB4
:1018A000114724EA054621EA074C05FB07F406FB2D
:1018B00007F70CFB06F105FB0CFC11EB074144EBB1
:1018C00017444FEA124711EB0C4144EB1C4422EA47
:1018D000074C05FB07F206FB07F70CFB06F605FBBA
:1018E0000CFC16EB074642EB174216EB0C4642EB9C
:1018F0001C456A1854F1000148BF7047B61952419F
:1019000041EB0101A3F10103704795F0000F37D0BF
:101910004FEA11424FEA144721EA024624EA074CF3
:1019200002FB07F106FB07F70CFB06F402FB0CFCBD
:1019300014EB074441EB17414FEA154714EB0C44F5
:1019400041EB1C4125EA074C02FB07F506FB07F7B4
:101950000CFB06F602FB0CFC16EB074645EB1745A5
:1019600016EB0C4645EB1C42121951F1000148BF21
:101970007047B619524141EB0101A3F101037047D1
:101980004FEA14454FEA114724EA054621EA074C7D
:1019900005FB07F106FB07F70CFB06F24FF000060C
:1019A00005FB0CFC12EB074241EB174112EB0C421A
:1019B00051EB1C4148BF7047921841EB0101A3F164
:1019C0000103704710B50021034800F07DF80221A3
:1019D000024800F079F810BD1C0A0020280A0020F7
:1019E00070B50446002520680068C0F38010F0B18F
:1019F0002068806820F001002168886001F0D0FD37
:101A000005460EE001F0CCFD401B022809D9E06C30
:101A100040F01000E064206D40F0010020650120DE
:101A200070BD20680068C0F380100028EAD1002053
:101A3000F6E7000038B50446002500200090206835
:101A40000068C0F3801090BB2068806840F00100FF
:101A500021688860174800681749B0FBF1F000EB77
:101A60004000009002E00098401E0090009800287E
:101A7000F9D101F095FD054613E001F091FD401B01
:101A800002280ED9E06C40F01000E064206D40F0B8
:101A90000100206500BF002084F8480000BF01203D
:101AA00038BD20680068C0F380100028E5D0002011
:101AB000F6E700006C00002040420F000021014AC0
:101AC000117070475808002070B504460D4606484E
:101AD000007840B90120044908702946204600F0EA
:101AE0001FF800F003F870BD5808002010B5002161
:101AF0000A488160C1604162C16281634FF0206128
:101B000041630021C1634FF4806141610121816221
:101B100000218161C16101F069F910BD340A002022
:101B20007CB505460C4610481049086000BF1048B7
:101B3000006840F400700E4908600846006800F430
:101B40000070019000BF00BF084801F0B5F8601CAC
:101B500040B1002000900346032221460190284610
:101B600000F02AFE7CBD000000240140340A002061
:101B7000203802407FB506460C46002001900290B6
:101B800003900025012090FAA0F1B1FA81F13A4AC0
:101B900042F8210000BF2020022191FAA1F1B1FA00
:101BA00081F108430121B1EB601F02D13348006885
:101BB00002E03248343000682021022292FAA2F278
:101BC000B2FA82F2114301F01F0201219140084054
:101BD0000028E0D000BF29482030006840F40070A1
:101BE0002649203108600846006800F40070009023
:101BF00000BF00BF0194012002900620039001A9BC
:101C00001F4800F06DFF1E480068806840F001002A
:101C10001B49096888601A4801F02FFA4FF0FF311C
:101C2000174801F0CBF9164801F0DCF885B21448EA
:101C30000068806820F001001149096888600198F7
:101C4000102802D00198112802D10D4801F034F873
:101C50000A482030006820F40070084920310860EC
:101C60000020012191FAA1F1B1FA81F1024A42F872
:101C70002100284604B070BD0000474200380240F1
:101C8000340A00200148006870470000300000203E
:101C900001480068704700003400002070B5044619
:101CA0000D4605480078012804D129462046FFF753
:101CB00061FF70BD0020FCE7580800202DE9F047C7
:101CC00000211A48FFF7EAFF1949088008460088F2
:101CD00009F0F0F980460022164B09F01FF806467D
:101CE0004FF06632144B09F035FA044608F030FF25
:101CF0001249086002211248FFF7D0FF11490880FD
:101D00000846008809F0D6F906460022094B09F07A
:101D100005F804464FF06632074B09F01BFA80467F
:101D200008F016FF08490860BDE8F0871C0A00208B
:101D30002C0000200000B04066660A403000002001
:101D4000280A00202E0000203400002010B5044690
:101D5000012C01D104F004FC0148047010BD000006
:101D60004500002000B585B01648FFF7A7FE1648CD
:101D700006F0E0FC04F0ACFE0020009003460322D5
:101D80006021019002A800F017FD0020009003469A
:101D900003226121019002A800F00EFD00200090B6
:101DA000034602462E21019002A800F005FD002006
:101DB0000090034602462F21019002A800F0FCFC8F
:101DC00005B000BDAC0A0020500F002072B60348D9
:101DD0000078401C01490870704700003A0000205C
:101DE00004480078401E034908700846007800B98E
:101DF00062B670473A00002008B51348007840B931
:101E000001F00CFC06F01CFE04F052FB00F050F850
:101E100001E006F071FE4FF0FF3005230622072196
:101E200000900A4806F024FD04F074FE064800788D
:101E300040B901200449087000F0A0FC012801D13C
:101E400000F090F808BD000038000020500F00207E
:101E50001CB5002000900346012203210190114887
:101E600000F0AAFC002000900346012218210190F6
:101E70000D4800F0A1FC0020012103460246CDE9F7
:101E800000102D21094800F097FC0121054800F0C1
:101E90001EFE0121044800F01AFE0121034800F053
:101EA00016FE1CBD880A0020940A0020A00A00200B
:101EB00000B585B000F062FC012811D1002000902F
:101EC000034603220B21019002A800F075FC0020BC
:101ED0000090034603220C21019002A800F06CFC44
:101EE00000200090012303221221019002A800F09B
:101EF00063FC00200090034603220821019002A801
:101F000000F05AFC01F014F901F0FEF801F006F9B6
:101F100005B000BD00BFFEE70246002110780102B7
:101F20005078014308467047014600200A781006A1
:101F30004A7840EA02408A7840EA0220CA78104390
:101F4000704710B502460B46002103E010780844A4
:101F5000C1B2521C181EA3F10104E3B2F6D1C8B2FB
:101F6000014610BD10B50B48007890B90A490B48DE
:101F700006F014FF4FF47A71084806F0DBFF0748BB
:101F800006F0E2FF01E006F0A3FF02480078002817
:101F9000F9D010BD39000020115C0008F00A0020C3
:101FA00010B50020094908700948007830B10128AF
:101FB00005D0022804D0032806D104E000BF00BFEA
:101FC00006F00CFA00E000BF00BF10BD21000020A9
:101FD0001C00002010B50D48007830B1012807D052
:101FE000022806D003280FD106E006F00DFA0BE018
:101FF00000BF00F05DF807E00020044908700449C4
:10200000087006F04DFB00BF00BF10BD1C00002093
:102010002000002010B50120094908700948007807
:1020200030B1012805D0022804D0032806D104E0ED
:1020300000BF00BF06F0D2F900E000BF00BF10BD36
:10204000210000201C00002010B501200949087063
:102050000948007830B1012805D0022804D00328AF
:1020600006D104E000BF00BF06F0A2F900E000BF07
:1020700000BF10BD210000201C00002010B5002072
:10208000094908700948007830B1012805D00228B4
:1020900004D0032806D104E000BF00BF06F088F991
:1020A00000E000BF00BF10BD210000201C00002088
:1020B00010B52D480078052853D2DFE800F003144E
:1020C00026384A002948007828B901202749087095
:1020D00006F040FA06E000202449087006F03AFABB
:1020E00006F090F83DE02148007830B902201F4901
:1020F0000870012006F0BAF906E000201B490870BC
:1021000006F0B4F906F07EF82BE01848007830B9F4
:10211000032016490870012006F0CEF906E00020E1
:102120001249087006F0C8F906F06CF819E00F487B
:10213000007830B904200D490870012006F0E2F95A
:1021400006E000200949087006F0DCF906F05AF8AC
:1021500007E000200649087006F0A2FA06F052F8DF
:1021600000BF00BF10BD00001D00002020000020A7
:102170001C000020704710B50446204600F0E2FF26
:1021800010BD000038B51AA20021084603F0CCFCAF
:10219000102004230090184802880021382003F002
:1021A0003FFC16A20221002003F0BEFC10200423F5
:1021B0000090144802780221382003F031FC12A26A
:1021C0000421002003F0B0FC114800681149B0FB65
:1021D000F1F410200423224619460090382003F021
:1021E0001FFC0D4A0621002003F09EFC38BD0000B4
:1021F000204E657449643A00280000202041646440
:1022000072203A00040000202046726571203A00D6
:1022100024000020A086010012BA000810B504F0C6
:102220009FF9012001F0B8F810BD10B504F098F93D
:102230004FF4806001F0B0F84FF4006001F0ACF8AA
:102240004FF4805001F0A8F84FF4005001F0A4F8CA
:102250004FF4804001F0A0F84FF4004001F09CF8EA
:1022600010BD10B504F07CF9022001F095F810BD06
:1022700010B504F075F9042001F08EF810BD10B50A
:1022800004F06EF9082001F087F810BD10B504F0D5
:1022900067F9102001F080F810BD10B504F060F966
:1022A000202001F079F8402001F076F8802001F03C
:1022B00073F84FF4807001F06FF84FF4007001F084
:1022C0006BF810BD10B514480078052821D2DFE85E
:1022D00000F00308140E1A0007F0E6FE06F02CF8D2
:1022E00017E008F0C1FA012006F034F911E008F017
:1022F00033FA012006F0E0F80BE008F0BDF9012008
:1023000006F0B4F805E008F085FA012006F0FAF8C6
:1023100000BF00BF10BD00002000002010B5144811
:102320000078052821D2DFE800F00308140E1A0017
:1023300007F0CEFE06F000F817E007F0D3FC01200E
:1023400006F008F911E007F033FC012006F0B4F8BC
:102350000BE007F0CBFB012006F088F805E007F062
:1023600097FC012006F0CEF800BF00BF10BD0000B2
:10237000200000202DE9F04104460D4600260027EC
:10238000B0464CF2503000F0ADF90646002E36D182
:102390001C48006820F480701A49086035B1257027
:1023A0004CF2503000F09EF9064628E024F0030875
:1023B000D8F80070A007C10EFF2000FA01F827EA44
:1023C000080724F00301022000F0CAFE064600BF01
:1023D00000200D49087400BF24F003013A46102084
:1023E00000F0E8FE064600BF0748007C012802D145
:1023F0000220BDE8F08101200349087400BF304687
:10240000F7E70000043C0240BC0D00202DE9F0413C
:1024100004460D4600260027B0464CF2503000F02E
:1024200061F90646002E46D12448006820F48070E9
:102430002249086035B125804CF2503000F052F945
:10244000064638E000BF00201D49087400BF04F0B4
:102450000300032819D024F00308D8F80070A0075F
:10246000C10E4FF6FF7000FA01F827EA080724F0C2
:102470000301022000F074FE064624F003013A46F0
:10248000102000F097FE064609E0002221460420B5
:1024900000F090FE0022611C042000F08BFE00BFC3
:1024A0000748007C012802D10220BDE8F08101200C
:1024B0000349087400BF3046F7E70000043C0240BF
:1024C000BC0D002070B504460D4600264CF250307D
:1024D00000F008F906465EB90648006820F48070EE
:1024E0000449086025604CF2503000F0FBF80646C5
:1024F000304670BD043C02402DE9F04104460D46D3
:102500000026B04600274CF2503000F0EBF80646AB
:1025100086BB35B125704CF2503000F0E3F806462A
:1025200028E024F00307D7F80080A007C10EFF20A1
:1025300000FA01F728EA070824F00301022000F05E
:102540000FFE064600BF00200B49087400BF24F0B0
:1025500003014246102000F02DFE064600BF06484B
:10256000007C012802D10220BDE8F081012002494F
:10257000087400BF3046F7E7BC0D00202DE9F0419C
:1025800004460D4600260027B0464CF2503000F0BD
:10259000A9F80646002E40D135B125804CF25030C6
:1025A00000F0A0F8064638E000BF00201C4908747F
:1025B00000BF04F00300032819D024F00308D8F862
:1025C0000070A007C10E4FF6FF7000FA01F827EA6D
:1025D000080724F00301022000F0C2FD064624F0A3
:1025E00003013A46102000F0E5FD064609E000220E
:1025F0002146042000F0DEFD0022611C042000F0D2
:10260000D9FD00BF0648007C012802D10220BDE8A8
:10261000F08101200249087400BF3046F7E700004E
:10262000BC0D002070B504460D4600264CF250301B
:1026300000F058F806462EB925604CF2503000F0F4
:1026400051F80646304670BD0021094A51610949DA
:10265000096841F40071074A11601146096841F0A8
:1026600008011160002120F0FF0211607047000096
:10267000BC0D0020043C024000201849096801F408
:102680008071B1F5807F07D11549496941F0020198
:10269000134A516140F480701049096801F40071D7
:1026A000B1F5007F07D10E49496941F001010C4A9B
:1026B000516140F400700949096801F40061B1F505
:1026C000006F07D10649496941F00401044A51618C
:1026D00040F400600149086070470000183C024067
:1026E000BC0D002070B5044600F05AFF054609E015
:1026F000601C38B124B100F053FF401BA04201D947
:10270000032070BD1448006800F001000028EFD1DC
:102710001148006800F00200022801D10E4908604B
:102720000D48006800F48070B0F5807F0DD00A4835
:10273000006800F40060B0F5006F06D0064800683D
:1027400000F40070B0F5007F03D1FFF795FF012082
:10275000D7E70020D5E70000183C024070B5FFF72E
:1027600091FA0446FFF794FA05462946204607F0F9
:10277000F5FD07F03BFD07F0C5FB70BD002070477D
:102780000246002111E00B4850F8310090420AD86F
:10279000084B481C53F83000904204D9184600EB0F
:1027A000C10000797047481CC1B21529EBD300BFA6
:1027B000FEE700007CCA00082DE9FC4704460D46F0
:1027C00016461F46DDE90A893B4632462946204621
:1027D000CDE9008900F002F8BDE8FC872DE9F0435F
:1027E00087B004460E4615461F46DDE90E98267052
:1027F000701C10B907B0BDE8F083207800F00F011D
:10280000012088406080207800F0F00078B94748C7
:10281000606000BF4648006840F00100444908601D
:102820000846006800F00100019000BF4EE02078EB
:1028300000F0F00010280FD13E48606000BF3C4817
:10284000006840F002003A4908600846006800F05D
:102850000200019000BF39E0207800F0F00020284D
:102860000FD13548606000BF3148006840F0040077
:102870002F4908600846006800F00400019000BF7E
:1028800024E0207800F0F00030280FD12B48606061
:1028900000BF2748006840F0080025490860084646
:1028A000006800F00800019000BF0FE0244860605D
:1028B00000BF1F48006840F020001D49086008461E
:1028C000006800F02000019000BF00BF6088029007
:1028D00084F80A90CDF810900220059015B90020D8
:1028E000039017E0032D02D10320039012E0022D84
:1028F00009D1012F02D11220039001E002200390A0
:10290000CDF8188006E0012F02D11120039001E0DC
:1029100001200390012D03D14146204600F0B6F876
:1029200002A9606800F046FD00BF63E700000240B6
:102930001C3802400004024000080240000C024023
:10294000001402402DE9F04385B004460D461646BA
:102950001F464FF000084FF0060917B905B0BDE853
:10296000F08360880090012D02D14448019006E078
:10297000022D02D14248019001E042480190A07A24
:102980000290022003906946606800F013FD052E56
:102990000ED2DFE806F00304070A0E0000BF4FF076
:1029A000030809E04FF0020806E04FF0010803E0D9
:1029B00000BF4FF0000800BF00BF6088B0F5807F07
:1029C0003DD012DC102834D008DC012825D00228A4
:1029D00026D0042827D008283DD127E020282BD056
:1029E00040282AD0802836D128E0B0F5805F2CD04E
:1029F00009DCB0F5007F23D0B0F5806F23D0B0F5AF
:102A0000006F28D120E0B0F5005F1FD0B0F5804FF7
:102A10001DD0B0F5004F1ED11AE04FF006091BE0A3
:102A20004FF0070918E04FF0080915E04FF00909C9
:102A300012E04FF00A090FE000BF00BF00BF00BF67
:102A40004FF0170908E000BF00BF00BF00BF00BF84
:102A50004FF0280900E000BF00BF207800F00F0011
:102A6000094941F8207000224146484600F004FE22
:102A7000484600F0F4FD00BF70E7000000001110B0
:102A80000000211000003110040B002070B5044636
:102A90000D460CB1606800B900BF94F90000401CFD
:102AA00000B970BDEAB26188606800F073FD00BFD4
:102AB000F7E72DE9F04104460D4616461F463B4612
:102AC000324629462046FFF73DFFBDE8F08170B54C
:102AD00004460D4629462046FFF7D8FF70BD00008A
:102AE00038B5024600230020009000BF92F848004D
:102AF000012801D1022038BD012082F8480000BF22
:102B00004868072812D21068006C0C79641E04EB28
:102B100084051F24AC40A0430D796D1E05EB85058F
:102B20000C68AC4020431468206453E048680D28CA
:102B300012D21068C06B0C79E41F04EB84051F24CB
:102B4000AC40A0430D79ED1F05EB85050C68AC404A
:102B500020431468E0633DE04868132812D21068EF
:102B6000806B0C790D3C04EB84051F24AC40A04322
:102B70000D790D3D05EB85050C68AC4020431468CC
:102B8000A06327E04868192812D21068406B0C79BE
:102B9000133C04EB84051F24AC40A0430D79133D86
:102BA00005EB85050C68AC4020431468606311E0B8
:102BB0001068006B0C79193C04EB84051F24AC40B1
:102BC000A0430D79193D05EB85050C68AC40204309
:102BD0001468206308680A2810D2106840690C78CD
:102BE00004EB44050724AC40A0430D7805EB4505F4
:102BF0008C68AC402043146860612CE0086814289D
:102C000012D2106800690C780A3C04EB44050724D2
:102C1000AC40A0430D780A3D05EB45058C68AC40FF
:102C200020431468206116E008681A2812D810683A
:102C3000C0680C78143C04EB44050724AC40A04366
:102C40000D78143D05EB45058C68AC4020431468B5
:102C5000E06000E000BF0868102802D00868112872
:102C60001DD11248006800F40000C0B90F48006888
:102C700040F400000D4C2060086810280FD10C486B
:102C800000680C4CB0FBF4F000EB800040000090BA
:102C900002E00098401E009000980028F9D100BF83
:102CA000002082F8480000BF184624E704270140AE
:102CB0006C00002040420F0070B5044600250CB99E
:102CC000012070BDE06C40F00200E0642046FEF799
:102CD00087FE0546002D76D16FF01F002168086041
:102CE000206840683B490840216848602068806847
:102CF000394908402168886000BF2068C0686FF3C8
:102D000014002168C8602068006900F04040216814
:102D100008612068406900F04040216848612068EF
:102D200080696FF30B00216888612068C0696FF3C8
:102D30000B002168C8612068006A6FF30B002168EE
:102D400008622068406A6FF30B00216848622068BF
:102D5000806A6FF30B00216888622068C06A6FF395
:102D60000B002168C8622068006B1C49084021687C
:102D700008632068406B00F0404021684863206889
:102D8000806B00F04040216888632068C06B00F0D1
:102D900040402168C8632068006C00F04040216812
:102DA00008642068406C6FF31500216848640C4883
:102DB000006820F400000A490860204600F0FCF892
:102DC00000202065E06400BF002084F8480000BFB8
:102DD000284676E700003CF88CF0808000800FFEEB
:102DE0000427014001460868806D7047F8B5044625
:102DF0000027002600250CB90120F8BD206910B17C
:102E0000E06A00B100BF606B102800D000BFE06C2A
:102E1000A0B90020206584F8480000BF6148006820
:102E200040F001005F4908600846006800F00100BA
:102E3000009000BF00BF204600F0BFF8E06C00F03B
:102E40001000002874D1E06C20F4885040F002009B
:102E5000E0645548006820F44030616808435249F6
:102E600008606169E06808434FF4007292FAA2F2C8
:102E7000B2FA82F2E16B91400843216A08430222D0
:102E800092FAA2F2B2FA82F2616A914008430543D3
:102E9000606B102803D0D4E90D0108430543206876
:102EA0000068C0F3801090BBA0690543E169A06889
:102EB00008432169B1F5807F02D02169012902D13F
:102EC0004FF4807100E0002108430643E06A0128C6
:102ED00016D1606A60B9206B401E4FF4604191FAD0
:102EE000A1F1B1FA81F1884040F40060064307E0A7
:102EF000E06C40F02000E064206D40F001002065AF
:102F000020684068294908403043216848602068AB
:102F10008068274908402843216888602069B0F507
:102F2000807F02D02069012803D14FF4807001E036
:102F300035E00020B0F5807F10D12068006B20F0D4
:102F4000F871A06A401E4FF0F87292FAA2F2B2FA3B
:102F500082F2904001432068016305E02068006B25
:102F600020F0F870216808632068806811490840E3
:102F7000A84208D100202065E06C20F0020040F05B
:102F80000100E0640CE0E06C20F0020040F0100072
:102F9000E064206D40F001002065012700E001277A
:102FA00038462AE72038024004270140FF16FCFC7F
:102FB0008DF1FFC0FEFF80BF7047704770B50446BB
:102FC0000D4600262068806800F4806078B1206893
:102FD000806800F4807050B1E06C40F02000E06444
:102FE00000BF002084F8480000BF012070BD00F041
:102FF000D7FA064612E0681C80B125B100F0D0FA7D
:10300000801BA8420AD9E06C40F00400E06400BFD5
:10301000002084F8480000BF0320E7E7206800682C
:1030200000F002000028E6D0A06918B96FF0120085
:1030300021680860E06C40F40070E06420688068FB
:1030400000F04050B8B9606AA8B92068006B00F081
:10305000F87020B12068806800F4806058B9E06C96
:1030600020F48070E064E06C00F4805018B9E06CEB
:1030700040F00100E0640020B8E770B50446002588
:1030800000BF94F84800012801D1022070BD012042
:1030900084F8480000BF2046FEF7CCFC054685BBFF
:1030A000E06C40F20161884340F48070E064206885
:1030B000406800F4806028B1E06C20F4005040F4D7
:1030C0008050E064E06C00F4805020B1206D20F06E
:1030D0000600206501E00020206500BF002084F884
:1030E000480000BF6FF022002168086020688068F7
:1030F00000F0405028B92068806840F08040216886
:1031000088602846C2E700000348406840F001009C
:103110000149486070470000002004E0034840680F
:1031200040F004000149486070470000002004E0BE
:103130000348406840F002000149486070470000C1
:10314000002004E031B5002400F02AFA044600BF54
:1031500000F026FA001B00998842F9D338BD000020
:1031600070B504460D4600264CF25030FFF7BAFA0F
:1031700006468EB9002009494861022C00D128601A
:10318000012C01D1002028800CB9002028704CF2BD
:103190005030FFF7A7FA0646304670BDBC0D002040
:1031A0000348006840F001000149086000207047B2
:1031B000043C02402DE9F04104460E461546012725
:1031C00000BF2248007C012802D10220BDE8F08126
:1031D00001201E49087400BF4CF25030FFF782FAFC
:1031E00007465FBB002019494861042C04D1E9B2AD
:1031F0003046FFF7BFF80746082C04D1A9B2304685
:10320000FFF704F90746102C04D129463046FFF792
:1032100059F90746022C04D129463046FFF702FA35
:103220000746012C04D1A9B23046FFF7A7F907469B
:1032300024B9E9B23046FFF75FF9074600BF002026
:103240000249087400BF3846C0E70000BC0D0020EA
:103250000748006800F0010030B106480449083111
:1032600008600548086001E0012070470020FCE785
:10327000043C0240EFCDAB89050403022DE9F04187
:1032800004460E460127002500BF1E48007C012889
:1032900002D10220BDE8F08101201A49087400BF64
:1032A0004CF25030FFF71EFA07461FBB4FF0FF30BD
:1032B0003060656817E02846FFF7C6F94CF25030D9
:1032C000FFF710FA07461048006820F008000E4982
:1032D00008600846006820F4007008600FB135608F
:1032E00007E005F58075D4E9011001EB0020A84244
:1032F000E1D800BF00BF00200249087400BF384673
:10330000C8E70000BC0D0020043C024003480068F0
:1033100040F002000149086000207047043C024070
:103320000D48006800F0020088B10B48006800F00A
:10333000010028B1094808490831086008480860B8
:10334000084805490C3108600748086001E0012081
:1033500070470020FCE70000043C0240EFCDAB8941
:1033600005040302BFAE9D8C1615141370B50446F8
:103370000025002C05DD02E06410681CC5B2012C9C
:10338000FAD1044850F8250018B1024951F8250037
:10339000804770BD040B002010B504460448006847
:1033A000204020B1024804602046FFF7DFFF10BD37
:1033B0001404014078B50346002200240020CAE02E
:1033C000012696400D6805EA0604002C71D04D6870
:1033D000022D02D04D68122D13D1D60803F120051D
:1033E00055F826005507EE0E0F25B540A8435607A1
:1033F000F60E0D69B5402843D60803F1200545F8BF
:103400002600186856000325B540A8430D7905F03D
:1034100003055600B540284318604D68012D08D0BB
:103420004D68022D05D04D68112D02D04D68122D2A
:1034300013D1986856000325B540A8435600CD68BF
:10344000B54028439860586801259540A8430D79F8
:10345000C5F30015954028435860D86856000325E9
:10346000B540A84356008D68B5402843D8604D68E4
:1034700005F08055B5F1805F6CD100BF394D2D68E6
:1034800045F00105374E356035462D6805F00105DC
:10349000009500BF00BF344D960855F826009507EB
:1034A0002E0F0F25B540A843304DAB4202D1002569
:1034B00015E04FE02E4DAB4201D101250FE02D4D1F
:1034C000AB4201D102250AE02B4DAB4201D10325CD
:1034D00005E02A4DAB4201D1042500E00525960701
:1034E000360FB5402843204D960845F82600244D58
:1034F0002868A0434D6805F48035B5F5803F00D1BC
:1035000020431F4D28602D1D2868A0434D6805F4F9
:103510000035B5F5003F00D12043194D2D1D286021
:103520002D1D2868A0434D6805F48015B5F5801F52
:1035300000D12043124D083528602D1D2868A04376
:103540004D6805F40015B5F5001F00D120430C4D62
:103550000C352860521C0D68D540002D7FF430AF2B
:1035600078BD000020380240080001400000024001
:103570000004024000080240000C0240001002401B
:1035800000040140024613690B400BB1012000E02A
:10359000002070470AB1816101E00B04836170472C
:1035A00001480068704700007000002070B50446B4
:1035B0000CB9012070BD4CF6CC402168086045F282
:1035C000555021680860D4E9001048602168A0685F
:1035D0008860FFF7E5FF054606E0FFF7E1FF401BC7
:1035E000302801D90320E5E72068C0680028F4D11D
:1035F0004AF6AA20216808600020DBE701464AF667
:10360000AA200A6810600020704700000248006885
:10361000401C0149086070477000002010B503206D
:1036200000F068F8002000F005F800F017F800201E
:1036300010BD000070B50446074800684FF47A7169
:10364000B0FBF1F5284601F015FD00222146501E81
:1036500000F012F8002070BD6C000020704700BF21
:1036600000F01F02012191404209920002F1E02284
:10367000C2F8001100BF70472DE9F05F80460D468B
:103680001646002702F02CF8074639462A463346EC
:1036900001F00700C0F1070ABAF1040F02D94FF098
:1036A000040A01E0C0F1070AD14600F1040ABAF1A8
:1036B000070F02D24FF0000A01E0A0F1030AD4463E
:1036C0004FF0010A0AFA09FAAAF1010A0AEA020A03
:1036D0000AFA0CFA4FF0010B0BFA0CFBABF1010BE1
:1036E0000BEA030B4AEA0B042146404602F000F8BD
:1036F000BDE8F09F00BF00F00702064B19684FF6C7
:10370000FF031940044B0B4343EA0221014B1960AC
:1037100000BF70470CED00E00000FA0501208102B7
:1037200091FAA1F1B1FA81F1014A42F82100704702
:1037300000000E420120410291FAA1F1B1FA81F19B
:10374000014A42F82100704700000E42024800681A
:1037500000F4C050704700000070004000201021AD
:1037600091FAA1F1B1FA81F1014A42F821007047C2
:1037700000000E420D4A126822F0030202430B4B76
:103780001A600B4A126842F00402094B1A600129C0
:1037900001D130BF02E040BF20BF20BF044A126801
:1037A00022F00402024B1A607047000000700040D3
:1037B00010ED00E0F8B5044600260025207800F062
:1037C000010000287ED0207800F0010000B100BF89
:1037D00000276A48006800F0805070B900BF674851
:1037E000006840F08050654908600846006800F0B5
:1037F0008050009000BF00BF01276148006800F4BE
:103800008070B0B95E48006840F480705C49086020
:10381000FFF7C6FE064606E0FFF7C2FE801B6428DF
:1038200001D90320F8BD5648006800F480700028D4
:10383000F2D052482438006800F0C045606800F0BB
:10384000C040A8420DD0606800F44030B0F5403F61
:1038500007D14A482438006800F4003008B101203C
:10386000E0E746481030006800F44035002D59D09C
:10387000606800F44030A84254D0207800F0010085
:1038800078B33E481030006820F440350121C80567
:1038900090FAA0F0B0FA80F03A4A02EB8000C0F84B
:1038A000801600214FF4000090FAA0F0B0FA80F0EA
:1038B00002EB8000C0F8801630481030056005F437
:1038C000807000E057E060B1FFF76AFE064609E04D
:1038D000FFF766FE801B41F28831884202D903203F
:1038E000A0E71FE04020C10091FAA1F1B1FA81F1F7
:1038F00008430121B1EB601F03D120482438006840
:1039000002E01E48103000684021CA0092FAA2F27C
:10391000B2FA82F2114301F01F02012191400840E6
:103920000028D5D000BF00BF606800F44030B0F57B
:10393000403F0BD111482438006820F0C040616836
:1039400001F0C04108430D492439086000BF0B480D
:1039500010300068616801F44031084307491031B4
:10396000086000BF012F05D10448006820F0805096
:103970000249086000BF002054E7000024380240DC
:10398000007000400000474270B504460D46002616
:10399000B348006800F00100A84218D200BF012D12
:1039A00005D1AF48006840F00400AD490860AC485C
:1039B000006820F001002843A949086000BF0846BC
:1039C000006800F00100A84201D0012070BD2078FD
:1039D00000F00200022807D1A248006820F0F000A1
:1039E000A16808439F490860207800F00100002882
:1039F0007BD06068022821D12020010391FAA1F137
:103A0000B1FA81F108430121B1EB601F03D1954860
:103A10000838006802E093482C30006820210A032F
:103A200092FAA2F2B2FA82F2114301F01F020121CE
:103A30009140084000286CD10120C7E76068032846
:103A400020D12020010591FAA1F1B1FA81F10843BA
:103A50000121B1EB601F03D182480838006802E001
:103A600080482C30006820210A0592FAA2F2B2FAAE
:103A700082F2114301F01F02012191400840A8BBCE
:103A80000120A3E76068012820D12020022191FABB
:103A9000A1F1B1FA81F108430121B1EB601F03D11B
:103AA00070480838006802E06E482C300068202119
:103AB000022292FAA2F2B2FA82F2114301F01F023C
:103AC00001219140084088B901207FE720200101B1
:103AD00091FAA1F1B1FA81F108430121B1EB601F24
:103AE00005D160480838006804E069E011E05D48ED
:103AF0002C30006820210A0192FAA2F2B2FA82F276
:103B0000114301F01F0201219140084008B9012032
:103B10005CE75448006820F003006168084351499D
:103B20000860FFF73DFD06466068022810D108E0F6
:103B3000FFF736FD801B41F28831884201D903200E
:103B400044E74848006800F00C000828F0D137E04E
:103B50006068032810D108E0FFF722FD801B41F2C6
:103B60008831884201D9032030E73E48006800F0E0
:103B70000C000C28F0D123E06068012810D108E087
:103B8000FFF70EFD801B41F28831884201D90320E6
:103B90001CE73448006800F00C000428F0D10FE066
:103BA00008E0FFF7FDFC801B41F28831884201D913
:103BB00003200BE72B48006800F00C000028F0D130
:103BC0002748006800F00100A84218D900BF012D65
:103BD00005D12348006840F00400214908602048CE
:103BE000006820F0010028431D49086000BF084616
:103BF000006800F00100A84201D00120E6E620782C
:103C000000F00400042807D11648006820F4E060A2
:103C1000E168084313490860207800F0080008288C
:103C200008D11048006820F46050216940EAC100C2
:103C30000C49086000F04EF80A49096801F0F001EB
:103C4000F02292FAA2F2B2FA82F2D140064A515C14
:103C5000C840064908600020FFF7ECFC0020B5E6EC
:103C6000003C02400838024029BC00086C000020DB
:103C700001480068704700006C00002000B5FFF7A5
:103C8000F7FF0749096801F4E0614FF4E06292FA36
:103C9000A2F2B2FA82F2D140024A515CC84000BDA1
:103CA0000838024039BC000800B5FFF7E1FF0749BA
:103CB000096801F460514FF4605292FAA2F2B2FA2C
:103CC00082F2D140024A515CC84000BD083802402F
:103CD00039BC0008F0B50021002300240022002593
:103CE0000020254E316801F00C067EB3042E04D06E
:103CF000082E04D00C2E2AD103E020483AE02048B8
:103D000038E001F470164FF4701797FAA7F7B7FA76
:103D100087F7FE401B4FBB5D01F440064FF44007A0
:103D200097FAA7F7B7FA87F7FE40741C124E366869
:103D300006F4803626B1124E5E43B6FBF4F203E081
:103D40000E4E5E43B6FBF4F2104613E000E000BFF7
:103D5000094E361F366806F460464FF4604797FAFE
:103D6000A7F7B7FA87F726FA07F56E1C0127B740C1
:103D7000F80300BF00BFF0BD083802400024F40083
:103D800000127A0020BC0008F8B50446002520780F
:103D900000F00100002879D0F748006800F00C001E
:103DA00008280CD0F448006800F00C000C282BD137
:103DB000F148006800F48030B0F5803F24D1202025
:103DC000010391FAA1F1B1FA81F108430121B1EBAC
:103DD000601F03D1E8480838006802E0E6482C304C
:103DE000006820210A0392FAA2F2B2FA82F2114389
:103DF00001F01F020121914008400028CBD06068EB
:103E0000002843D10120F8BD00BF6068012808D117
:103E1000D9480838006840F48030D749083908602C
:103E20002DE0606868B9D4480838006820F4803014
:103E3000D149083908600846006820F480200860ED
:103E40001DE0606805280DD1CB480838006840F4B3
:103E50008020C949083908600846006840F480306D
:103E600008600CE0C4480838006820F48030C2497B
:103E7000083908600846006820F48020086000BF08
:103E8000606860B3FFF78CFB054607E052E0FFF780
:103E900087FB401B642801D90320B4E720200103DD
:103EA00091FAA1F1B1FA81F108430121B1EB601F50
:103EB00003D1B1480838006802E0AF482C300068F0
:103EC00020210A0392FAA2F2B2FA82F2114301F01F
:103ED0001F020121914008400028D8D02AE0FFF7B6
:103EE0005FFB054606E0FFF75BFB401B642801D93A
:103EF000032088E72020010391FAA1F1B1FA81F1B2
:103F000008430121B1EB601F03D19B4808380068CA
:103F100002E099482C30006820210A0392FAA2F2AC
:103F2000B2FA82F2114301F01F02012191400840D0
:103F30000028D8D1207800F00200022845D18E4810
:103F4000006800F00C0004280AD08B48006800F0DC
:103F50000C000C283BD18848006800F48030A8BBD6
:103F60002020022191FAA1F1B1FA81F10843012147
:103F7000B1EB601F03D180480838006802E07E483A
:103F80002C3000682021022292FAA2F2B2FA82F2C8
:103F9000114301F01F0201219140084020B1E06867
:103FA000012801D001202EE77348001F006820F48B
:103FB000F8504FF4F85292FAA2F2B2FA82F2216962
:103FC000914008436C49091F08607DE0FFE7E06805
:103FD000F0B3012090FAA0F1B1FA81F1674A42F8FA
:103FE0002100FFF7DDFA054606E0FFF7D9FA401B8E
:103FF000022801D9032006E72020022191FAA1F12D
:10400000B1FA81F108430121B1EB601F03D15A4895
:104010000838006802E058482C300068202102224D
:1040200092FAA2F2B2FA82F2114301F01F020121C8
:10403000914008400028D8D04F48001F006820F465
:10404000F8504FF4F85292FAA2F2B2FA82F200E07B
:1040500006E02169914008434749091F086033E0A1
:104060000020012191FAA1F1B1FA81F1434A42F80D
:104070002100FFF795FA054606E0FFF791FA401B8D
:10408000022801D90320BEE62020022191FAA1F1E5
:10409000B1FA81F108430121B1EB601F03D1364829
:1040A0000838006802E034482C30006820210222E1
:1040B00092FAA2F2B2FA82F2114301F01F02012138
:1040C000914008400028D8D1207800F01000102836
:1040D00073D12948006800F00C0000286ED1202020
:1040E000010191FAA1F1B1FA81F108430121B1EB8B
:1040F000601F03D120480838006802E01E482C30B9
:10410000006820210A0192FAA2F2B2FA82F2114367
:1041100001F01F0201219140084018B1A06908B9BF
:10412000012070E61449091F206A096801F4604102
:10413000884225D9206A01F0DBFD08B1012062E642
:104140000D48001F006820F46040216A08430A49B6
:10415000091F08600846006820F07F404FF07F424A
:1041600092FAA2F2B2FA82F2E1699140084302495E
:10417000091F086023E000000838024000004742A1
:10418000FC48006820F46040216A0843F94908604F
:104190000846006820F07F404FF07F4292FAA2F27A
:1041A000B2FA82F2E16991400843F2490860206A5C
:1041B00001F09EFD18B1012025E6A5E01FE04FF4B7
:1041C000604191FAA1F1B1FA81F1206AC840401C26
:1041D00001218140C803E749091D096801F0F00188
:1041E000F02292FAA2F2B2FA82F2D140E24A515C93
:1041F000C840E24908600020FFF71CFA84E0A0698B
:10420000F0B30120010291FAA1F1B1FA81F1DC4A87
:1042100042F82100FFF7C4F9054606E0FFF7C0F9B0
:10422000401B022801D90320EDE52020010191FA6D
:10423000A1F1B1FA81F108430121B1EB601F03D173
:10424000CC48001F006802E0CA48303000682021D6
:104250000A0192FAA2F2B2FA82F2114301F01F02AD
:104260000121914008400028D8D0C248006820F4BD
:104270006040216A0843BF4908600846006800E0C2
:104280000DE020F07F404FF07F4292FAA2F2B2FAA6
:1042900082F2E16991400843B649086034E00020A9
:1042A0004FF4807191FAA1F1B1FA81F1B44A42F868
:1042B0002100FFF775F9054606E0FFF771F9401B8D
:1042C000022801D903209EE52020010191FAA1F1E5
:1042D000B1FA81F108430121B1EB601F03D1A54878
:1042E000001F006802E0A3483030006820210A0166
:1042F00092FAA2F2B2FA82F2114301F01F020121F6
:10430000914008400028D8D1207800F00800082803
:104310006ED16069A8B3012090FAA0F1B1FA81F1E1
:10432000974A02EB8101C1F88006FFF739F905468B
:1043300006E0FFF735F9401B022801D9032062E5AA
:104340004020022191FAA1F1B1FA81F10843012143
:10435000B1EB601F03D18748001F006802E0854869
:10436000303000684021022292FAA2F2B2FA82F2C0
:10437000114301F01F020121914008400028D8D0CC
:1043800036E0FFE70021012090FAA0F0B0FA80F0BB
:104390007B4A02EB8000C0F88016FFF701F9054662
:1043A00006E0FFF7FDF8401B022801D903202AE5AB
:1043B0004020022191FAA1F1B1FA81F108430121D3
:1043C000B1EB601F03D16B48001F006802E0694831
:1043D000303000684021022292FAA2F2B2FA82F250
:1043E000114301F01F020121914008400028D8D15B
:1043F000207800F00400042875D100265D482030A4
:10440000006800F0805080B900BF5A482030006832
:1044100040F080505749203108600846006800F09D
:104420008050009000BF00BF01265648006800F48D
:104430008070B0B95348006840F4807051490860FA
:10444000FFF7AEF8054606E0FFF7AAF8401B642820
:1044500001D90320D7E44B48006800F4807000289D
:10446000F2D000BFA068012808D14248303000686F
:1044700040F480703F49303108602DE0A06868B991
:104480003C483030006820F480703A493031086090
:104490000846006820F4806008601DE0A0680528D8
:1044A0000DD134483030006840F4806031493031FB
:1044B00008600846006840F4807008600CE02D48F1
:1044C0003030006820F480702A4930310860084696
:1044D000006820F48060086000BFA06870B3FFF738
:1044E0005FF8054609E06AE0FFF75AF8401B41F221
:1044F0008831884201D9032085E44020C10091FA27
:10450000A1F1B1FA81F108430121B1EB601F03D1A0
:104510001848001F006802E016483030006840214B
:10452000CA0092FAA2F2B2FA82F2114301F01F021B
:104530000121914008400028D6D035E0FFF730F83F
:10454000054608E0FFF72CF8401B41F2883188420D
:1045500001D9032057E44020C10091FAA1F1B1FA3A
:1045600081F108430121B1EB601F0DD10148001F0B
:1045700000680BE00438024029BC00086C000020F1
:1045800000004742007000406C4800684021CA00AB
:1045900092FAA2F2B2FA82F2114301F01F02012153
:1045A000914008400028CDD1012E07D16348103832
:1045B000006820F0805061491039086000BF606ACF
:1045C000F0B35E482C38006800F00C000C287AD05C
:1045D000606A022879D100204FF0807191FAA1F130
:1045E000B1FA81F1564A42F82100FEF7D9FF05469B
:1045F00006E0FEF7D5FF401B022801D9032002E4A4
:104600002020010591FAA1F1B1FA81F108430121BD
:10461000B1EB601F03D149483438006801E04748D6
:10462000006820210A0592FAA2F2B2FA82F211433E
:1046300001F01F020121914008400028D9D100E07B
:104640007AE0D4E90A010843216B08433B492C393D
:10465000096821F47D01084338492C39086001209C
:10466000010691FAA1F1B1FA81F1354A42F821002F
:10467000FEF796FF054606E0FEF792FF401B022874
:1046800001D9032009E42020010591FAA1F1B1FA32
:1046900081F108430121B1EB601F03D12748343871
:1046A000006801E02548006820210A0592FAA2F27C
:1046B000B2FA82F2114301F01F0201219140084039
:1046C0000028D9D038E035E0FFE700214FF08070B6
:1046D00090FAA0F0B0FA80F0194A42F82010FEF7E4
:1046E0005FFF054606E0FEF75BFF401B022801D98D
:1046F000032058E42020010591FAA1F1B1FA81F1DB
:1047000008430121B1EB601F03D10C483438006825
:1047100001E00A48006820210A0592FAA2F2B2FAE2
:1047200082F2114301F01F0201219140084000284C
:10473000D9D101E0012036E4002034E434380240CD
:1047400000004742704770B50446002500BF207F37
:10475000012801D1022070BD0120207700BF022076
:10476000607700BFCA2021684862532021684862F0
:1047700000BF2068806820F480602168886020681D
:10478000806820F4804021688860FEF709FF0546B4
:1047900012E0FEF705FF401BB0F57A7F0CD900BF91
:1047A000FF202168486200BF0320607700BF00201F
:1047B000207700BF0320CEE72068C068C0F38000E8
:1047C0000028E6D000BFFF202168486200BF01201A
:1047D000607700BF0020207700BF00BFBBE77047B5
:1047E00010B5044620688068C0F3003078B12068B6
:1047F000C068C0F3002050B12046FFF7F0FF2068EA
:10480000C06800F0800060F4C0702168C860206853
:104810008068C0F3403078B12068C068C0F34020A1
:1048200050B12046FFF78EFF2068C06800F080007E
:1048300060F420702168C8604FF4003002490860BD
:104840000120607710BD00001404014070B50446DB
:104850000D46002600BF207F012801D1022070BD37
:104860000120207700BF0220607700BFCA202168A6
:10487000486253202168486200BFB5F5807F29D186
:104880002068806820F480702168886020688068D3
:1048900020F4805021688860FEF782FE064612E010
:1048A000FEF77EFE801BB0F57A7F0CD900BFFF209B
:1048B0002168486200BF0320607700BF0020207796
:1048C00000BF0320CBE72068C06800F0010000288B
:1048D000E6D028E02068806820F4007021688860B5
:1048E0002068806820F4005021688860FEF758FE38
:1048F000064612E0FEF754FE801BB0F57A7F0CD915
:1049000000BFFF202168486200BF0320607700BF1E
:104910000020207700BF0320A1E72068C068C0F313
:1049200040000028E6D000BFFF202168486200BF99
:104930000120607700BF0020207700BF00BF8EE716
:104940002DE9F04106460C46174698460025B7F576
:10495000807F05D14FF48070A0613068C56904E0A4
:104960004FF40070A0613068056AC5F305402070FF
:10497000C5F30620607005F07F00A07005F480008C
:10498000000CE070C5F30560207505F080402061E3
:1049900005F08030E060B8F1000F0FD1207801F011
:1049A00011FA2070607801F00DFA6070A07801F0C3
:1049B00009FAA070207D01F005FA20750020BDE8FD
:1049C000F081000070B505460B46164600242868A5
:1049D00040680E4900EA0104200CD870C4F304209A
:1049E000587004F03F009870C4F3423018705EB9FC
:1049F000D87801F0E7F9D870587801F0E3F95870E9
:104A0000987801F0DFF99870002070BD3FFFFF003B
:104A10002DE9F04106460C4617460025306800682F
:104A20000F4900EA0105C5F305402070C5F30620D3
:104A3000607005F07F00A07005F48000000CE0704D
:104A40005FB9207801F0BEF92070607801F0BAF902
:104A50006070A07801F0B6F9A0700020BDE8F08188
:104A60007F7F7F0010B504460CB9012010BD607F28
:104A700020B900202077204600F04EF80220607711
:104A800000BFCA202168486253202168486200BFE5
:104A9000204601F0AFF940B100BFFF202168486215
:104AA00000BF042060770120E0E720688068194992
:104AB000084021688860216960680843616908438B
:104AC000216889680843216888602168E068086176
:104AD00020680169208941EA004021680861206856
:104AE000C06820F080002168C8602068006C20F455
:104AF0008020216808642068006CA169084321684F
:104B0000086400BFFF202168486200BF0120607771
:104B10000020ABE7BFFF8FFF704700002DE9F04793
:104B200004460D4616460027B84600BF207F0128E0
:104B300002D10220BDE8F0870120207700BF0220CB
:104B400060774EBB2068806800F0400000B102E052
:104B50000020E87000BF286900B900E000BF287895
:104B600001F03BF94FEA0049687801F036F949EA6B
:104B70000029A87801F031F949EA0009E87849EA02
:104B80000049287D01F029F949EA006029690843B4
:104B9000E96840EA01082AE02068806800F04000E7
:104BA00020B1287801F00EF9804602E00020E8707C
:104BB00000BF286920B9287D01F004F9804604E08F
:104BC000287D01F0FFF8804600BF2878000469784E
:104BD00040EA0120A9780843E97840EA0140297DAC
:104BE00040EA016029690843E96840EA010800BF1A
:104BF000CA202168486253202168486200BFA86922
:104C0000B0F5807F3AD12068806820F480702168F8
:104C100088602068C06800F0800060F4C07021687F
:104C2000C860FEF7BDFC074612E0FEF7B9FCC01BEA
:104C3000B0F57A7F0CD900BFFF202168486200BF21
:104C40000320607700BF0020207700BF032071E7BA
:104C50002068C06800F001000028E6D02068C0F895
:104C60001C802068806840F480702168886020681B
:104C7000806840F480502168886039E0206880684E
:104C800020F40070216888602068C06800F080000F
:104C900060F420702168C860FEF782FC074612E0CD
:104CA000FEF77EFCC01BB0F57A7F0CD900BFFF2059
:104CB0002168486200BF0320607700BF0020207792
:104CC00000BF032036E72068C068C0F3400000281A
:104CD000E6D02068C0F820802068806840F400702A
:104CE000216888602068806840F4005021688860EE
:104CF0000D48006840F400300B4908600A4808304D
:104D0000006840F4003008490831086000BFFF2007
:104D10002168486200BF0120607700BF0020207733
:104D200000BF00BF06E70000000401402DE9F0418C
:104D300004460D461646002700BF207F012802D1F9
:104D40000220BDE8F0810120207700BF02206077BB
:104D50004EB9687800F01000102804D1687800F08F
:104D6000EF000A30687086B9E87801F036F803047D
:104D7000687801F032F843EA0023A87801F02DF8B2
:104D80000343287843EA403711E0687801F01AF8C5
:104D90000746A87801F016F80746E8780004697815
:104DA00040EA0120A9780843297840EA413700BF4A
:104DB000CA202168486253202168486200BF20460B
:104DC00001F018F860B100BFFF202168486200BF01
:104DD0000420607700BF0020207700BF0120B0E7EB
:104DE00013483840216848602068C06820F080007F
:104DF0002168C860204600F0B3F860B100BFFF2012
:104E00002168486200BF0420607700BF002020773F
:104E100000BF012095E700BFFF202168486200BF66
:104E20000120607700BF0020207700BF00BF88E727
:104E30003FFFFF002DE9F04104460D4616460027CE
:104E400000BF207F012802D10220BDE8F0810120AF
:104E5000207700BF02206077CEB92068806800F01C
:104E6000400000B102E00020E87000BF287800F0A8
:104E7000B4FF0304687800F0B0FF43EA0023A87889
:104E800000F0ABFF0343E87843EA004716E02068F0
:104E9000806800F0400020B1287800F093FF0746BA
:104EA00002E00020E87000BF28780004697840EA3A
:104EB0000120A9780843E97840EA014700BFCA20E9
:104EC0002168486253202168486200BF204600F0F4
:104ED00091FF60B100BFFF202168486200BF04203D
:104EE000607700BF0020207700BF0120ADE71B489E
:104EF0003840216808602068806820F4802021689C
:104F00008860D5E901010843216889680843216860
:104F100088602068C06820F080002168C860204652
:104F200000F01EF860B100BFFF202168486200BF9A
:104F30000420607700BF0020207700BF012084E7B5
:104F400000BFFF202168486200BF0120607700BFDA
:104F50000020207700BF00BF77E700007F7F7F0041
:104F600070B5044600252068C06820F0A0002168C4
:104F7000C860FEF715FB054607E0FEF711FB401B76
:104F8000B0F57A7F01D9032070BD2068C06800F0B9
:104F900020000028F1D00020F6E710B504460CB937
:104FA000012010BD2068006820F0400021680860E2
:104FB000204600F048F80020606584F8510000BFEA
:104FC00084F8500000BF00BFEBE710B504460CB9F1
:104FD000012010BD94F8510028B9002084F8500039
:104FE000204600F031F8022084F851002068006863
:104FF00020F0400021680860D4E901010843E1681D
:1050000008432169084361690843218B01F4007159
:105010000843E1690843216A0843A16A08432168FB
:1050200008600421A06901EA1040616A0843216810
:1050300048602168E06A086100206065012084F80A
:1050400051000020C5E770477047042808D14FF091
:10505000E021096941F004014FF0E022116107E00D
:105060004FF0E021096921F004014FF0E0221161C5
:105070007047704770B504462546681EB0F1807FC2
:1050800001D301200FE0681E4FF0E02148610F219D
:105090004FF0FF3000F02CFB00204FF0E021886142
:1050A00007200861002070BD10B5FFF7E2FF10BDBA
:1050B00010B504460CB9012010BD94F8350028B98C
:1050C000002084F83400204600F00CF8022084F818
:1050D0003500211D206803F0D5FD012084F835003E
:1050E0000020E9E738B504462068B0F1804F16D1BA
:1050F00000BF1848006840F00100164908600846E3
:10510000006800F00100009000BF00BF00220321F2
:105110001C20FEF7B1FA1C20FEF7A1FA19E00E4997
:105120002068884215D100BF0A48006840F002009C
:10513000084908600846006800F00200009000BFBF
:1051400000BF012203211D20FEF796FA1D20FEF765
:1051500086FA38BD24380240000400400146086841
:10516000C06840F001000A68D0600868006840F03C
:1051700001000A68106000207047704710B50446AF
:1051800020680069C0F34000D8B12068C068C0F34F
:105190004000B0B16FF00200216808610120207565
:1051A0002068806900F0030018B12046FFF7E5FF92
:1051B00005E0204600F08BF8204600F089F800203A
:1051C000207520680069C0F38000D8B12068C068ED
:1051D000C0F38000B0B16FF00400216808610220C4
:1051E00020752068806900F4407018B12046FFF7F0
:1051F000C4FF05E0204600F06AF8204600F068F899
:105200000020207520680069C0F3C000D8B1206874
:10521000C068C0F3C000B0B16FF008002168086139
:10522000042020752068C06900F0030018B12046F2
:10523000FFF7A3FF05E0204600F049F8204600F004
:1052400047F80020207520680069C0F30010D8B12D
:105250002068C068C0F30010B0B16FF01000216882
:105260000861082020752068C06900F4407018B1FA
:105270002046FFF782FF05E0204600F028F8204690
:1052800000F026F8002020752068006900F0010079
:1052900058B12068C06800F0010030B16FF0010023
:1052A00021680861204600F015F820680069C0F305
:1052B000801058B12068C068C0F3801030B16FF022
:1052C000400021680861204600F050F810BD70478A
:1052D0007047000010B504462068B0F1804F36D109
:1052E0001C480088401C1B4908801B480068401C63
:1052F00019490860084600680A2803D3002008609E
:1053000005F0BCF815480068401C144908600846C0
:10531000006840F2BF71884204D300200F49086042
:10532000FCF7CCFC0E48007890B10E480078401C89
:105330000C49087008460078032809DD0020084958
:1053400008700849087001200749087000E000BF94
:1053500010BD000054000020580000205C00002018
:10536000690000206A00002068000020704710B526
:1053700004460CB9012010BDA06900B100E000BFD7
:1053800094F8390028B9002084F83800204600F04D
:1053900025F8022084F839002068C06820F4005005
:1053A0002168C860204603F089FE2068006920F467
:1053B0009040216808612068406920F02A00216837
:1053C00048612068C06840F400502168C86000202F
:1053D000E063012084F839000020CCE7704730B545
:1053E0000346002493F83940012C01D0122C37D108
:1053F00001B10AB9012030BD00BF93F8380001287F
:1054000001D10220F7E7012083F8380000BF99623C
:105410009A85DA850020D86393F83900122803D1E1
:10542000322083F8390002E0222083F8390000BFDF
:10543000002083F8380000BF1868C06840F480700E
:105440001D68E8601868406940F001001D686861E7
:105450001868C06840F020001D68E8600020CAE7B6
:105460000220C8E710B50248FEF7C8F810BD0000DA
:105470007810002070B504460D46044804490860C1
:10548000084644608560FEF791F870BD003000402A
:105490007810002010B5FCF7AFFCFCF7D9FC00F049
:1054A0005BF94FF4E13003F0EBFF02F0C3FE00F0D4
:1054B000C1FC00F031F9FCF765FE4FF4FA60FCF72F
:1054C0005AFE04F035FEFCF77DFA0D490DA0FAF7FF
:1054D000BDFE00F055F8012003F00CFC40F64B3106
:1054E0000720FFF7C7FF04F0C9FD04464FF4167309
:1054F0001A460E2100F0A6F804F0CCFE10BD000004
:1055000012BA0008D0C2B4F3C2BDBDCCD3FD204C4A
:105510006F5261204E6F646525730D0A0000000014
:1055200010B504F0E9FD10B1FCF774FD07E0114877
:10553000007820B100200F490870FCF731FDFFF71B
:1055400091FF04F0E7FD10B1FCF77EFD07E00A488B
:10555000007820B1002008490870FCF78FFDFFF7A4
:1055600081FF0648007820B1002004490870FCF74C
:1055700031FD10BD7C0000207D0000207E00002059
:10558000704700BFFEE7000030B5C1B0002501A89C
:1055900000F098FC0546002D11DD9DF80800134928
:1055A000097888420BD19DF80500012807D1052113
:1055B00001A8FCF7C6FC9DF80910884201D041B053
:1055C00030BD0DF10600FCF7A7FC04460848006852
:1055D000844200D0F3E70120FCF7CDFD0548826A44
:1055E000054801780548904700BFE8E7040000201F
:1055F00028000020C4BB000805000020830900200B
:105600007047000010B508480849086008488860DD
:10561000084848600848C8600848086108480168A8
:105620000248884710BD0000995C00086808002007
:105630001D5C0008B15C0008815C0008695C000822
:10564000C4BB00082DE9F04105460E4617461C462E
:10565000FFF7D8FF3A463146284600F009F80348DC
:10566000416B20468847BDE8F0810000C4BB0008BC
:10567000F0B58BB005460E4614461848C16828465A
:105680008847002005900690CDE9070401200021FD
:1056900008220323CDE90132CDE903100720009051
:1056A0000E480B460A463146C7690120B84701201B
:1056B0000021069107910523CDE90810CDE90231BB
:1056C000CDE904100820CDE9001004480323072287
:1056D00087690120B8470BB0F0BD0000C4BB0008CB
:1056E00002480068C0F30220704700000CED00E0A3
:1056F00010B5002807DA0A07140E054A00F00F0358
:105700001B1FD45403E00A07130E024A135410BDA2
:1057100018ED00E000E400E070B5002419E004F1A9
:10572000B001C8B2002100F035FA0021022000F0DB
:1057300031FA0021102000F02DFA002505E00121AA
:10574000002000F027FA681CC5B2802DF7DB601C32
:10575000C4B2082CE3DB70BD1CB50120009000230F
:1057600002461C2101904C48FDF726F801200090CC
:10577000002302461E2101904848FDF71DF8012034
:105780000090002302461D2101904548FDF714F8C2
:1057900001200090002302461F2101904148FDF79F
:1057A0000BF80021AE2000F0F5F90021022000F0F6
:1057B000F1F90021102000F0EDF90021402000F067
:1057C000E9F90021812000F0E5F90021CF2000F067
:1057D000E1F90021A12000F0DDF90021C82000F04E
:1057E000D9F90021A62000F0D5F90021A82000F069
:1057F000D1F900213F2000F0CDF90021D32000F0A5
:10580000C9F90021084600F0C5F90021D52000F0B3
:10581000C1F90021802000F0BDF90021D92000F05D
:10582000B9F90021F12000F0B5F90021DA2000F0EB
:10583000B1F90021122000F0ADF90021DB2000F0C9
:10584000A9F90021402000F0A5F90021202000F056
:10585000A1F90021022000F09DF900218D2000F027
:1058600099F90021142000F095F90021A42000F0FE
:1058700091F90021A62000F08DF90021AF2000F061
:1058800089F90021AF2000F085F9FFF745FF0021DD
:10589000084600F009F81CBDFC0D0020080E002091
:1058A000140E0020200E002070B504460D4605F1B0
:1058B000B001C8B2002100F06DF9102141EA1410C6
:1058C000002100F067F904F00F0141F00100002110
:1058D00000F060F970BD00002DE9F04180460E46F1
:1058E0001546002731464046FFF7DEFF00240AE058
:1058F000124A02EB8511085D012100F04BF9781C7A
:10590000C7B2601CC4B2102CF2DB701CC1B240469E
:10591000FFF7CAFF00240CE06900491C074A02EBAC
:105920004111085D012100F035F9781CC7B2601CF7
:10593000C4B2102CF0DBBDE8F0810000880000202C
:105940002DE9F04107460E46904600250024A8F1B7
:105950002000C5B27F2F02DD0027B01CC6B2314641
:105960003846FFF7A1FF002408E004EB05110F4AB9
:10597000505C012100F00EF9601CC4B2082CF4DB6D
:10598000701CC1B23846FFF78FFF002409E004EB1A
:1059900005110831054A505C012100F0FBF8601C3C
:1059A000C4B2082CF3DBBDE8F081000069BE00083A
:1059B0002DE9F04107460E46904600250024A8F147
:1059C0002000C5B27F2F02DD0027B01CC6B23146D1
:1059D0003846FFF769FF002408E004EB05110F4A81
:1059E000505C012100F0D6F8601CC4B2082CF4DB36
:1059F000701CC1B23846FFF757FF002409E004EBE2
:105A000005110831054A505C012100F0C3F8601C03
:105A1000C4B2082CF3DBBDE8F081000059C40008D3
:105A20002DE9FF5F074691461D460E9E4FF0000A86
:105A3000002433E0281B401EC1B20A2004F0BEFB44
:105A4000B9FBF0F00A21B0FBF1F201FB1208BAF148
:105A5000000F13D1681EA04210DDB8F1000F0BD16A
:105A6000B34606EBDB71491001FB0471C8B220227A
:105A70000199FFF765FF0FE04FF0010AB34606EB0F
:105A8000DB71491001FB0471C8B208F13001CAB2E0
:105A90000199FFF755FF00BF601CC4B2AC42C9DBDF
:105AA000BDE8FF9F2DE9FF5F074691461D460E9E0C
:105AB0004FF0000A002433E0281B401EC1B20A2028
:105AC00004F07CFBB9FBF0F00A21B0FBF1F201FB22
:105AD0001208BAF1000F13D1681EA04210DDB8F110
