:020000040800F2
:1000000048130020090100089D4200081301000860
:1000100011360008C1110008DD7B00080000000057
:100020000000000000000000000000001B010008AC
:10003000BD130008000000001F010008156E000835
:100040002301000823010008230100082301000800
:100050002301000823010008E914000833150008F3
:100060004315000853150008631500082301000814
:1000700023010008230100082301000823010008D0
:1000800023010008230100082301000823010008C0
:10009000230100082301000823010008731500084C
:1000A00000000000230100082301000823010008CC
:1000B00023010008657000082301000823010008DF
:1000C0002301000823010008230100082301000880
:1000D00023010008C1760008797700082301000891
:1000E000F9140008594C00082301000823010008F6
:1000F00023010008DFF80CD000F0ECFC00480047BA
:1001000059800008481300200648804706480047E9
:10011000FEE7FEE7FEE7FEE7FEE7FEE7FEE7FEE7B7
:10012000FEE7FEE7896F0008F500000840EA0103DA
:100130009B0703D009E008C9121F08C0042AFAD29D
:1001400003E011F8013B00F8013B521EF9D2704761
:10015000D2B201E000F8012B491EFBD27047002209
:10016000F6E710B513460A4604461946FFF7F0FFB6
:10017000204610BD30B505462A460B4612F8010B45
:1001800013F8014B08B1A042F8D01CB1002802D0EE
:100190006D1CF1E7284630BD421C10F8011B0029F8
:1001A000FBD1801A7047034611F8012B00F8012B90
:1001B000002AF9D11846704730B50546002003469D
:1001C00000E05B1C934205D2EC5CC85C201A01D1B4
:1001D000002CF6D130BDF0B480EA0102D40F420009
:1001E000B2EB410F02D20246084611464A0042D005
:1001F000C30DDDB2C1F3C752AD1A202D35DAC1F3FC
:10020000160141F4000204B15242C5F1200602FA7F
:1002100006F12A411044B3EBD05F23D0C4B1012DC5
:10022000A0EBC35009DCF0BC4FF0004202EAC3521D
:10023000DBB200F5000000F07EBB400000F18070F2
:1002400000EBC350A0F1807040EAD170490009E092
:10025000490841EAC071A0EBC35000F50000400816
:1002600000EBC350F0BC00F05DBB6142012202EB29
:100270004101001BF6E7F0BC704781F00041AAE79E
:1002800080F00040A7E730B480EA010202F00045A8
:1002900030F0004221F0004013D090B1C30DD40DD6
:1002A000C2F31601C0F31600E41A41F4000140F451
:1002B00000027D34914201D3641C00E04900002C0F
:1002C00002DA30BC002070474FF400000023914256
:1002D00001D3891A034340084FEA4101F7D151B1D4
:1002E000914202D14FF0004105E002D24FF00101EE
:1002F00001E06FF0010103EBC450284430BC00F072
:1003000011BB420005D0C0F3C7525242914201DCFA
:100310000020704700EBC15070472DE9FE4F80462A
:1003200081EA0300C00F0C46009021F0004123F049
:100330000045B8EB0200A94105D24046214690464F
:100340001C460B46024623F00040104347D0270DC1
:10035000C7F30A00C3F30A510290401A01904028E3
:100360006BDAC3F3130040F4801B0098924620B16F
:100370000023D2EB030A63EB0B0B01985946C0F143
:100380004002504600F04EFA06460D465046594689
:10039000019A00F066FA10EB08006141002487EA38
:1003A000115284EAE7731A4340D0009A62B3019A6B
:1003B000012A4FEA075215DC001B61EB02014FF0E6
:1003C000004202EA0752CDE90042001C41F58011CB
:1003D00032462B4600F0ECFA03B0BDE8F08F404601
:1003E0002146F9E7001B61EB0201001C41F5801377
:1003F00000185B412018A2F5001747EB030140EA03
:10040000D570B6196D4111E06D084FEA360645EA20
:10041000C0754FEA0752001B61EB0201001C41F559
:10042000801149084FEA30000019514132462B46ED
:1004300003B0BDE8F04F00F0ACBA009801224000D4
:100440000023D0EB020263EBE073009821464FEAF1
:10045000E074B8EB000061EB0401E9E783F00043CE
:100460005BE781F0004158E72DE9FE4F81EA030484
:1004700004F0004421F0004100944FF0000B23F001
:10048000004350EA01045ED052EA03045BD0C3F398
:100490000A54C1F30A552C44A4F2F3340194A0FB8E
:1004A0000254C1F3130141F48011C3F3130343F465
:1004B000801301FB024400FB034E840A970A44EABE
:1004C000815447EA8357A4FB076802958D0A05FB10
:1004D00007854FEA932C04FB0C542705029D4FEA35
:1004E000065847EA1637B5EB08056EEB070C870E82
:1004F000920E47EA811742EA8312A7FB0201B6EB8C
:100500000B0164EB00042B0D43EA0C335E1844EB43
:100510001C50DA465146E7FB0201C5F313044FEACB
:100520000B3343EA14534FEA0432019C43EA0603B7
:10053000A4F10C040294009CCDE900B400F038FA58
:1005400003B0BDE8F08F00200146F9E72DE9F04D3A
:1005500081EA030404F0004B21F0004514464FF0FB
:10056000000A23F0004150EA050220D054EA0102BB
:100570001DD0C5F30A570246C5F31303C1F3130098
:10058000C1F30A5640F4801543F48013A7EB060824
:10059000101BD64608F2FD3873EB050002D308F1B4
:1005A000010801E092185B41B8F1000F03DA002066
:1005B0000146BDE8F08D00204FF4801106468446C8
:1005C0000EE0171B73EB050705D3121B63EB050346
:1005D00006434CEA010C49084FEA300092185B418F
:1005E00050EA0107EDD152EA030012D082EA04007A
:1005F00083EA0501084305D0101BAB4106D2012256
:10060000002306E000224FF0004302E06FF00102F9
:1006100053101AEB06004CEB085110EB0A0041EBAB
:100620000B01BDE8F04D00F0B4B970B521F0004306
:1006300003430CD0C1F30A550024D5EB040564EB49
:100640000403D617AD1AB34102DB0020014670BD8A
:10065000201841EB025170BD0EB5C10F80EAE07069
:100660000844CA07002140F233438DE80E000A46D1
:100670000B4600F09DF903B000BD0EB540F23341CA
:1006800002910021CDE900110A460B4600F090F9D5
:1006900003B000BD00F0004220F00040C10DC0F3E7
:1006A000160040F400007F2901DA002070479629E7
:1006B00003DCC1F19601C84001E096398840002A68
:1006C000F4D04042704720F00040C10DC0F3160046
:1006D00040F400007F2901DA00207047962903DCEE
:1006E000C1F19601C840704796398840704770B58F
:1006F000C1F30A5201F000450024C1F3130140F296
:10070000FF3341F480119A4201DA002070BD40F2BB
:1007100033439A42A2F2334203DC524200F091F892
:1007200000E090402C43F1D0404270BDC1F30A522A
:1007300010B5C1F3130140F2FF3341F480119A4226
:1007400001DA002010BD40F233439A42A2F2334254
:1007500003DC524200F075F810BD904010BD00005F
:1007600030B5041E71F1000404DB4FF00044404238
:1007700064EB0101141E73F1000405DB1C464FF00D
:100780000043524263EB04038B4208BF824230BDF8
:1007900030B5041E71F1000404DB4FF00044404208
:1007A00064EB0101141E73F1000405DB1C464FF0DD
:1007B0000043524263EB0403994208BF904230BDAC
:1007C00001F0004330B421F0004150EA010206D0AC
:1007D0000A0DA2F56072C1F31301002A02DC30BCDD
:1007E00000207047440F44EAC104C100E01830BC47
:1007F00000EBC25000F096B830B50B460146002021
:100800002022012409E021FA02F59D4205D303FAD2
:1008100002F5491B04FA02F52844151EA2F1010253
:10082000F1DC30BD202A04DB203A00FA02F100207E
:1008300070479140C2F1200320FA03F3194390401E
:100840007047202A04DB203A21FA02F00021704789
:1008500021FA02F3D040C2F1200291400843194628
:100860007047202A06DBCB17203A41FA02F043EA10
:10087000E07306E041FA02F3D040C2F12002914059
:1008800008431946704700000FB4002300B589B033
:100890000CA900910B996FF00042CB601E4B0693A0
:1008A0001E4B07930423CDE901321D4A08920246EC
:1008B0006B46002000F0A6F909B05DF814FB70B596
:1008C00086B006464FF0FF300091CDE901010020CF
:1008D00015460C4604903246694604A8FFF7D4FF3B
:1008E00003460498211825B108B10A4600E02246C3
:1008F0002A6000280DD0002B02DD0098884208D025
:10090000081B0094CDE901043246694604A8FFF7AC
:10091000BBFF06B070BD00003D0E00085B0E000876
:10092000F90A00080029A8BF7047401C490008BF09
:1009300020F00100704710B4B0FA80FC00FA0CF00F
:1009400050EA010404BF10BC704749B1CCF1200447
:1009500021FA04F411FA0CF118BF012121430843D4
:10096000A3EB0C01CB1D4FEA00614FEA102042BF00
:10097000002010BC704700EBC35010440029A4BFF6
:1009800010BC7047401C490008BF20F0010010BC9B
:10099000704710B5141E73F1000408DA401C41F1D1
:1009A000000192185B411A4301D120F0010010BDF3
:1009B0002DE9F04D92469B4611B1B1FA81F202E069
:1009C000B0FA80F220329046FFF72CFF04460F4623
:1009D00040EA0A0041EA0B0153465A46084313D045
:1009E000114653EA010019D0C8F140025046FFF702
:1009F00028FF05460E46504659464246FFF712FF6D
:100A0000084305D0012004E020463946BDE8F08DBA
:100A10000020054346EAE0762C4337430A986305F5
:100A2000E40AA0EB08000022FD0A44EA47540A3019
:100A300002D500200146E9E7010510196941DDE909
:100A4000084500196941BDE8F04DA2E72DE9F041E4
:100A5000054621F000400C46284309D0C4F30A5053
:100A600040F23341884205DD28462146BDE8F08149
:100A70002846FBE740F2FE31884210DC0CDB4FEAEF
:100A8000043040EA155050EA053105D0104804F012
:100A9000004101430020E9E700200146E6E7A0F21B
:100AA00033404642C6F1400228462146FFF7BAFECF
:100AB00007468846284621463246FFF7C2FE43468F
:100AC0003A46FFF766FF3246BDE8F041FFF7AABE9F
:100AD0000000F03F064C074D06E0E06840F00103DF
:100AE00094E8070098471034AC42F6D3FFF706FBB2
:100AF0001090000830900008C0B24FF4F05100F0A0
:100B0000BDB900002DE9FF4F087881B09946FF2854
:100B100005D0491C2D2804D00024002308E0002320
:100B20000BE00124F9E703EB830300EB4303491CCB
:100B30000878FF28F7D104B15B42002000901478B8
:100B400001462D2C01D02B2C04D1521C2D2C12D05F
:100B50000024009400251678FF2E0ED00A24A0FB56
:100B600004C801FB0481002700FB0711521C16EB8F
:100B70000C006941EFE70124EBE7994450EA0102D8
:100B80000ED00024AA4D2646DFF8A88200F08AF98C
:100B900082468B46B9F1000009DAC9F100071BE073
:100BA00001980021C0E9001105B0BDE8F08F0746AB
:100BB00012E0F80707D022462B4630464146FFF7A1
:100BC00053FC0646884622462B4610461946FFF738
:100BD0004BFC04460D467F10002FEAD1B9F1000FFF
:100BE000324643465046594602DAFFF7AFFC01E071
:100BF000FFF73AFC009A0AB181F00041019AC2E97C
:100C00000001D1E72DE9FF4F1F468DB0D7E901461E
:100C10004FF0FF382E2045464FF000090B90B96980
:100C20006D1C0E988847396A824688470028F6D19D
:100C3000BAF1FF3F0AD024F4D064002E11DDBAF1DE
:100C40002B0F08D0BAF12D0F0BD102E0404611B0A6
:100C5000ABE744F48064B9696D1C0E9888478246FE
:100C6000761E6946600501D52D2000E02B208DF809
:100C7000000001F1010B0DF1200809E0B9696D1CBC
:100C80000E98884782460F9844F40074761E0560DB
:100C9000002E02DDBAF1300FF0D00B998A453ED11B
:100CA00044F0800406E00F99681CA9F1010944F49E
:100CB00000740860B9696D1C761E0E9888478246DC
:100CC0003028F0D02BE00B998A4505D1200603D4BB
:100CD00044F08004761E18E0504606F0D7FF08B3B3
:100CE0000DF11301761E44F400748B4508D2AAF16D
:100CF00030000BF8010B200607D5A9F1010003E035
:100D0000200602D409F101008146A00502D50F9901
:100D1000681C0860B9696D1C0E9888478246002ED1
:100D2000D1DC53E0002E51DDBAF1650F02D0BAF1EB
:100D3000450F4BD1A00549D5B9696D1C24F4407409
:100D4000761E0E9888478246002E0CDD2B2804D094
:100D5000BAF12D0F07D144F48074B9696D1C0E9857
:100D600088478246761EE00501D52D2100E02B2123
:100D700008F8011BCDF82C8021E00DF12901761E29
:100D800044F4007488450CD2AAF1300010F0FF0042
:100D900088F8000002D10B99884509D908F10108AB
:100DA00006E0E00501D5244801E042F20F708146DB
:100DB000B9696D1C0E98884782460F980560002E11
:100DC00004DD504606F062FF0028D6D1F9690E987E
:100DD0008847FF208BF8000088F80000002006906C
:100DE00007904B466A4608A906A8FFF78BFEA005A8
:100DF00002D46FF001002AE714F0240F0AD0E007B4
:100E000014D1DDE906123868031D3B600068C0E9B3
:100E100000120BE0DDE90601FFF7D2FC0146E00716
:100E200004D13868021D3A600068016028460EE768
:100E3000000024400000F03FF1D8FFFF426842B1BB
:100E4000016811F8013B23B1521EC0E90012184697
:100E500070470121C160881E704742685AB1C3685B
:100E6000016843B983688B4205D0491E521CC0E912
:100E70000012002070474FF0FF3070477F2801D9E3
:100E8000002208E0064A02EB5002C007127800D1A7
:100E9000120902F00F020120904008407047000044
:100EA000D08F00080EB540F2334202920022CDE905
:100EB00000221346FFF77CFD03B000BD70B504F0BF
:100EC0007BFB002422464FF480511B4800F00FFFAB
:100ED0001A4E4FF4006500222946304600F007FF05
:100EE0000121562004F04CFB641CE4B2282CFBD3F7
:100EF0000021562004F044FB0022521CD2B2282AC2
:100F0000FBD341F6F571552004F03AFB0020401C5C
:100F1000C0B22828FBD301222946304600F0E7FE64
:100F20000022521CD2B2282AFBD329463046BDE803
:100F30007040002200F0DBBE0000024000040240CE
:100F400010B5052820D006283BD007281BD1012149
:100F5000562004F015FB0020401CC0B22828FBD30B
:100F60000021562004F00CFB0020401CC0B22828B1
:100F7000FBD341F6F771552004F002FB0020401C22
:100F8000C0B22828FBD310BD0121562004F0F8FA86
:100F90000020401CC0B22828FBD30021562004F0BA
:100FA000EFFA0020401CC0B22828FBD341F6F571AF
:100FB000552004F0E5FA0020401CC0B22828FBD3DD
:100FC00010BD0121562004F0DBFA0020401CC0B205
:100FD0002828FBD30021562004F0D2FA0020401C20
:100FE000C0B22828FBD341F6F671552004F0C8FAA8
:100FF0000020401CC0B22828FBD310BD70B5114E94
:101000000546002400222021304600F070FE28060C
:1010100001D5012200E000228021304600F067FE69
:1010200001222021304600F062FE6806050E0022F3
:101030002021304600F05BFE641CE4B2082CE1D3B2
:1010400070BD00000000024010B50446000AFFF722
:10105000D5FFE0B2BDE81040FFF7D0BF0149002046
:10106000087070477400002010B5040001D004F02F
:10107000D1F90148C47010BD1800002010B586B029
:101080001548FFF7EBFF154805F0C2FD04F0AEFC74
:101090000024009423460322502102A8019400F06A
:1010A000F9FA009400230322512102A8019400F0D0
:1010B000F1FA002300941A462E2102A8019400F0B0
:1010C000E9FA002300941A462F2102A8019400F0A7
:1010D000E1FA06B010BD000044010020780D0020A8
:1010E00072B602484178491C4170704714000020D4
:1010F00004494878401E10F0FF00487000D162B6E5
:10110000704700001400002030B51B4D85B02878D2
:10111000A0B105F0D5FE00BF4FF0FF3000901D23B9
:101120001E221F21154805F0EDFD04F07FFC2878F4
:10113000002801D10120287005B030BD00F01AFE52
:1011400005F070FE04F01EF9002400940123032230
:10115000122102A8019400F09DFA009400230322BA
:10116000082102A8019400F095FA00F039FC00F083
:1011700027FC00F02DFCCFE714000020780D0020A4
:101180001CB5002400942346012213210B4801942E
:1011900000F080FA094800940023012214210C3049
:1011A000019400F077FA0121044800F099FBBDE8B2
:1011B0001C40024801210C3000F092BB2C010020A1
:1011C000FEE700000246002004E000BF12F8013BE9
:1011D0001844C0B2491EC9B2F8D2704710B5FF21F9
:1011E0000448FEF7BCFF044900200880034908704A
:1011F00010BD000020040020360000203200002036
:1012000070B50024B4F1010502F0F0F900F04AF9DC
:1012100020B1641CE4B2032CF6D30EE002F0E6F930
:101220000024A51E02F0E2F908A10BA000F002F9CB
:1012300038B1641CE4B2032CF4D302F0D7F9284689
:1012400070BD002402F0D2F9204670BD3132333433
:10125000353637380000000054502D4C494E4B5F56
:10126000343944313145000070B51546FFF705F8B3
:10127000044604212846FFF744F82146FFF703F807
:101280004FF08141FEF7A7FF04460146052000F01C
:1012900003F8204670BD000070B50A461B4D4FF69E
:1012A000F071052818D04FF6FF74062828D00728BB
:1012B0002AD1174882420ADA01461046FEF7E3FFB8
:1012C0000C21FFF71EF8FFF7E5F904EA0011BDE86D
:1012D0007040012004F054B94FF0814082420DDB90
:1012E000AA4201DB0B4609E001461046FEF7C5FFA6
:1012F0000C21FFF706F8FFF7CDF983B21946E6E7B0
:10130000AA42E4DA2946D8E770BD00000000A041F7
:101310000000C041194810B5016888B041F0005183
:101320000160006800F00050079014480838016818
:1013300041F0010101600068002400F00100079005
:10134000102000900320CDE9010469460C4800F00C
:1013500003FC0D490B480860084600F0E4FA02203F
:10136000CDE90540002205A9074800F0BBFA00219D
:10137000054800F0FAFA08B010BD00002438024019
:101380000000024000740040A00E002010B54FF095
:101390006632084BFFF7DAF80C22FFF746F9FFF741
:1013A000C5F903460022BDE810401146024800F08E
:1013B000CFBA000066660A40A00E0020704700F019
:1013C00017BB000030B5A1B00C4605468021684629
:1013D000FEF7C5FEFFF702FF23462A460CA168462A
:1013E00006F024FC6846FEF7D7FEC1B2684605F059
:1013F00003FC40F2DC50FFF7E2FF0CA10C48FEF7C3
:10140000B9FE10B1002021B030BD4FF0FF30FAE737
:1014100041542B43495053544152543D225443505C
:10142000222C222573222C25640000004F4B000043
:101430002004002030B5A1B00C4605468021684646
:10144000FEF78DFEFFF7CAFE23462A460DA1684629
:1014500006F0ECFB6846FEF79FFEC1B2684605F059
:10146000CBFB02F0C3F841F27C50FFF7A8FF0BA1C1
:101470000B48FEF77FFE10B1002021B030BD4FF0C9
:10148000FF30FAE741542B43574A41505F435552CE
:101490003D222573222C2225732200004F4B000091
:1014A0002004002010B5FFF799FE0F2108A005F0D9
:1014B000A3FB40F6B830FFF782FF09A10948FEF709
:1014C00059FE08B1002010BD4FF0FF3010BD0000E4
:1014D00041542B43574D4F44455F4355523D3100D6
:1014E0004F4B00002004002010B503F093FFBDE82F
:1014F0001040012000F024BB10B503F08BFF4FF427
:10150000806000F01DFB4FF4006000F019FB4FF409
:10151000805000F015FB4FF4005000F011FB4FF429
:10152000804000F00DFBBDE810404FF4004000F09B
:1015300007BB10B503F06EFFBDE81040022000F0BD
:10154000FFBA10B503F066FFBDE81040042000F0BC
:10155000F7BA10B503F05EFFBDE81040082000F0B8
:10156000EFBA10B503F056FFBDE81040102000F0B0
:10157000E7BA10B503F04EFF202000F0E1FA40205A
:1015800000F0DEFA802000F0DBFA4FF4807000F00B
:10159000D7FABDE810404FF4007000F0D1BA000057
:1015A000074900224A6107490B6843F400730B6046
:1015B0000B6843F008030B6020F0FF0002607047E7
:1015C00034050020043C02400F4A00211068C30586
:1015D0000E4804D5416941F002014161911513683B
:1015E0009B0505D5436943F00103436141F4007154
:1015F00013681B0505D5436943F00403436141F4B7
:101600000061116070470000183C02403405002062
:1016100070B5054600F070FB0646114C09E0681CE9
:1016200007D025B100F068FB801BA84201D9032038
:1016300070BD2068C007F2D12068800701D5022064
:1016400020602068C00505D42068000502D4206809
:10165000800503D5FFF7B8FF012070BD002070BDE5
:10166000183C024000207047094A002152F83130EE
:10167000834208D802EBC1039B68834203D902EB83
:10168000C10000797047491CC9B21529EED3FEE7A5
:10169000208F00087CB5DDE90645CDE9004500F066
:1016A00001F87CBDF0B587B00546DDE90C76017028
:1016B000481C6AD001F00F04012000FA04F46C8089
:1016C000334C11F0F00F1FD0C1F30311012925D0C5
:1016D00002292DD0032935D02E496960216841F0B7
:1016E00020012160216801F02001059169880091A5
:1016F000AF720221CDE9027172B3032A2ED0022A01
:101700002FD0012B35D035E023496960216841F0A5
:1017100001012160216801F00101E6E71F496960CC
:10172000216841F002012160216801F00201DCE73B
:101730001B496960216841F004012160216801F0C2
:101740000401D2E717496960216841F0080121606E
:10175000216801F00801C8E7002000E003200190A3
:101760000FE0012B02D0019104960AE012200190B3
:10177000FAE711200190012A03D13146284600F0F2
:10178000A1F86946686800F0E7F907B0F0BD00000D
:101790001C380240001402400000024000040240D5
:1017A00000080240000C024090F90010491C03D0D0
:1017B0004188406800F096BA002070472DE9F0415A
:1017C00086B01F00904605464FF000064FF0060415
:1017D0006CD068880090012916D0022916D03548AF
:1017E0000190A87A0290022003906946686800F090
:1017F000B3F95FEA08000BD0012809D0022809D00C
:10180000B8F1030F09D107E02B48E9E72B48E7E7D8
:10181000032602E0022600E001266888B0F5807FFA
:1018200033D012DC10282ED008DC012830D002285A
:1018300023D0042823D008282AD122E0202824D02D
:10184000402822D0802823D11FE0B0F5805F1ED031
:1018500009DCB0F5007F18D0B0F5806F17D0B0F577
:10186000006F15D113E0B0F5005F10D0B0F5804FD8
:101870000DD0B0F5004F0BD109E0072408E0082493
:1018800006E0092404E00A2402E0172400E02824EA
:1018900028780B4900F00F00002241F820703146F3
:1018A000204600F093FA204600F085FA06B0BDE825
:1018B000F081000000003110000011100000211024
:1018C000C001002090F90020521C04D0CAB2418807
:1018D000406800F00CBA7047FFF766BFFFF76EBFB5
:1018E000FFF7F0BF70B54379012B1AD00124447182
:1018F00002230371D1E9003105680B43296840F6E2
:10190000FE769640B14393401943296001680B6805
:10191000C0259540AB430B6004710021417108461E
:1019200070BD022070BD70B5040003D02079002581
:1019300010B105E0012070BD6571204600F007F888
:1019400002202071256101202071002070BD7047A8
:1019500018B5046800940068104421B11430009058
:101960000360002018BD0830F9E730B54279012A3C
:1019700012D0012242710223037103681D6802FA2A
:1019800001F425431D60002901680B6806D0C3F3EC
:1019900083430F2B0AD00DE0022030BDC3F3830335
:1019A0000F2B07D14B6843F0010302E04B6843F073
:1019B00002034B60027100214171084630BD0000F6
:1019C0000248416841F0010141607047002004E095
:1019D0000248416841F0040141607047002004E082
:1019E0000248416841F0020141607047002004E074
:1019F00031B500F081F9044600F07EF90099001B32
:101A00008842F9D338BD00002DE9F0471C4E054649
:101A10000F46307C012808D0012030744CF2503839
:101A20004046FFF7F5FD18B127E00220BDE8F0873A
:101A30004FF0FF313960C146DFF848806C6816E02E
:101A40002046FFF7ADFD4846FFF7E2FDD8F800203D
:101A500022F00802C8F80020D8F8002022F4007212
:101A6000C8F8002008B13C6007E004F58074D5E9AF
:101A7000011201EB0221A142E2D800213174D5E725
:101A800034050020043C02400348016841F0020193
:101A90000160002070470000043C02402DE9F04145
:101AA0000C4C16460F46207C012809D001202074DA
:101AB0004CF250384046FFF7ABFD002518B107E067
:101AC0000220BDE8F08165613E604046FFF7A0FD61
:101AD0002574F6E7340500200B480168890710D506
:101AE0000068C00705D00848084908300160084967
:101AF0000160054807490C3001600749016000207A
:101B00007047012070470000043C0240EFCDAB89D4
:101B100005040302BFAE9D8C16151413002118B9DD
:101B200004E04008491CC9B20128FAD1034850F822
:101B30002100002800D0004770470000C0010020AD
:101B4000044910B50A68024202D00860FFF7E6FFB8
:101B500010BD0000140401402DE9F84FDFF864B116
:101B600000234FF0010C4FF0030A4FF00F090BF167
:101B7000040EA0E00CFA03F6324072D04C68022C3E
:101B800001D0122C0ED1DC0800EB8408D8F82040DC
:101B90005D07EF0E09FA07F5AC430D69BD4025431B
:101BA000C8F8205007685D0091F804800AFA05F42F
:101BB00008F00308A74308FA05F848EA0708C0F840
:101BC00000804F68012F05D0022F03D0112F01D0C4
:101BD000122F11D18768D1F80C80A74308FA05F8B5
:101BE00048EA0708C0F808804768B7430E79C6F38B
:101BF00000169E403E434660C668A6438C68AC40D3
:101C00003443C4604C68E40054D52F4C256845F03B
:101C100001052560246823F0030504F00104009405
:101C20002A4C2544AF689C07240F09FA04F6B743F1
:101C3000274EB04201D1002615E0264EB04201D118
:101C4000012610E0244EB04201D102260BE0234EC3
:101C5000B04201D1032606E0214EB04202D1042653
:101C600001E027E00526A6403E43AE60DBF80040D9
:101C70005D464E689443F60300D514432C60DEF8AD
:101C8000004075464E689443B60300D514432C605B
:101C90000C4D08352C684E689443F60200D5144369
:101CA0002C60084D0C352C684E689443B60200D564
:101CB00014432C605B1C0A6832FA03F47FF45AAFB9
:101CC000BDE8F88F000401402038024000000140C8
:101CD000000002400004024000080240000C0240E4
:101CE000001002400069084000D0012070470AB18E
:101CF000816170470904FBE70148006870470000F4
:101D00003C00002070B5040011D021684CF6CC4096
:101D10000860216845F255500860D4E9000141602F
:101D20002168A0688860FFF7E7FF054609E0012009
:101D300070BD00BFFFF7E0FF401B302801D9032032
:101D400070BD2068C0680028F4D121684AF6AA2036
:101D50000860002070BD00684AF6AA2101600020DA
:101D60007047000002480168491C0160704700008C
:101D70003C00002010B5032000F048F8002000F0DF
:101D800005F800F017F8002010BD000010B504465B
:101D900007484FF47A710068B0FBF1F001F0F9F9EF
:101DA00000222146501E00F011F8002010BD000056
:101DB00038000020704700F01F02012191404009C7
:101DC000800000F1E020C0F800117047F0B40E4B25
:101DD0001B680C46C3F30223C3F10705042D00D989
:101DE0000425191D072901D2002300E0DB1E01266E
:101DF00006FA05F1491E214099409E40761E164084
:101E00003143F0BC02F04BBA0CED00E0064900F0A3
:101E1000070208684FF6FF03184040EA0220034A11
:101E200010430860704700000CED00E00000FA0568
:101E30000120810291FAA1F1024AB1FA81F142F83E
:101E40002100704700000E420120410291FAA1F1E9
:101E5000024AB1FA81F142F82100704700000E42B7
:101E60000248006800F4C050704700000070004055
:101E70000020102191FAA1F1024AB1FA81F142F851
:101E80002100704700000E420B4A136823F0030341
:101E9000034313600948026842F00402026001290A
:101EA00007D040BF20BF20BF016821F004010160BE
:101EB000704730BFF8E700000070004010ED00E010
:101EC0002DE9F84F06460078C00775D0DFF84C8141
:101ED0000027D8F80000C0000BD4D8F8001041F05B
:101EE0008051C8F80010D8F80000012700F0805099
:101EF00000904B4C2068C00510D4206840F48070DE
:101F00002060FFF7F9FE054605E000BFFFF7F4FE8D
:101F1000401B64284ED82068C005F7D53F4D243DAE
:101F2000286800F0C041706800F0C0428A4209D0C1
:101F3000C0F30141032905D12968890302D5012095
:101F4000BDE8F88F354C1034216811F440314AD087
:101F500000F44030884246D03078C00743D0206833
:101F60004FF4000292FAA2F1B1FA81F14FEA810C2A
:101F70002C494FF0010A8C4420F44030CCF880A664
:101F800092FAA2F2B2FA82F201EB82010023C1F8C6
:101F900080362060C00526D5FFF7AEFE81464FF49F
:101FA000007B0AE0FFF7A8FEA0EB090141F28830B0
:101FB000814202D90320C3E72EE09BFAABF0B0FACE
:101FC00080F040F04001BAEB511F01D1296800E0D8
:101FD00021689BFAABF2B2FA82F202F01F020AFA0F
:101FE00002F00142DED07068C0F30141032906D13E
:101FF000296800F0C04021F0C041014329602068F9
:10200000716801F44031084320602FB1D8F8001006
:1020100021F08051C8F80010002091E724380240D8
:1020200000700040000047422DE9F047DFF8BC8116
:1020300005460E46D8F8000000F00100B04214D268
:10204000012E05D1D8F8001041F00401C8F80010A5
:10205000D8F8001021F001013143C8F80010D8F879
:10206000000000F00100B04271D12878604C800778
:1020700005D52068A96820F0F00008432060287882
:10208000C00771D05A4A5A4B69680120083A2C336C
:10209000022910D003292ED001292FD05FEA402732
:1020A00097FAA7FCBCFA8CFC4CF0200C5FEA5C1C95
:1020B00004D0126803E04FF40037F1E71A6897FA8A
:1020C000A7F3B3FA83F303F01F039840024262D0F0
:1020D000206820F0030008432060FFF70DFE6968C8
:1020E000074641F28830022910D003291CD001296B
:1020F000814626D034E04FF00077D1E70227CFE7C2
:10210000FFF7FAFDC11B494501D926E08146206849
:10211000C0F381000228F3D126E000BFFFF7ECFDF9
:10212000C11B494501D918E081462068C0F38100F0
:102130000328F3D118E000BFFFF7DEFDC11B4945BE
:102140000BD82068C0F381000128F5D10CE022E013
:10215000FFF7D2FDC11B494502D90320BDE8F08736
:10216000206810F00C0FF3D1D8F80010404601F0B1
:102170000101B14211D9012E03D1016841F00401DE
:102180000160016821F0010131430160006800F045
:102190000100B04201D00120E0E72878400705D5D2
:1021A0002068E96820F4E060084320602878000790
:1021B00006D52068296920F4605040EAC1002060FB
:1021C00000F052F82168F02292FAA2F201F0F00138
:1021D000B2FA82F2D140074A515CC8400649086011
:1021E0000020FFF7D3FD0020B8E70000003C0240CC
:1021F00008380240E58800083800002001480068DF
:102200007047000038000020084809490068096844
:102210004FF4E06292FAA2F201F4E061B2FA82F2C3
:10222000D140044A515CC84070470000380000208B
:1022300008380240F588000808480949006809681C
:102240004FF4605292FAA2F201F46051B2FA82F2B3
:10225000D140044A515CC84070470000380000205B
:1022600008380240F58800081E4A116801F00C0089
:10227000042813D0082813D00C2813D0101F00688E
:1022800000F460414FF4604090FAA0F0B0FA80F0A2
:10229000C1404FF40040491C8840704712487047C5
:1022A000124870474FF4701393FAA3F301F47010BF
:1022B000B3FA83F3D8400E4B01F440011268185C66
:1022C0004FF4400393FAA3F3B3FA83F3D940491CC4
:1022D000D20301D5054A00E0034A5043B0FBF1F0B8
:1022E00070470000083802400024F40000127A0011
:1022F000DC8800082DE9F84F07460078FB4EFC4DBE
:10230000C0074FF0010428D0F848083001684FF4A6
:102310000038C1F38101022907D00168C1F38101AE
:1023200003291BD10068C00318D598FAA8F0B0FAA9
:1023300080F040F02000400901D0306800E02868BB
:1023400098FAA8F1B1FA81F101F01F0104FA01F144
:1023500008425CD0786800287BD058E07868012873
:102360000AD008B1052811D0306820F480303060E0
:10237000306820F4802002E0306840F48030306023
:10238000786828B3FFF7B8FC81460BE0306840F46A
:1023900080203060F0E700BFFFF7AEFCA0EB090043
:1023A000642872D898FAA8F0B0FA80F040F02000C3
:1023B000400901D0306800E0286898FAA8F1B1FA25
:1023C00081F101F01F0104FA01F10842E4D01EE09E
:1023D000FFF792FC814605E0FFF78EFCA0EB0900B9
:1023E0006428DED898FAA8F0B0FA80F040F0200017
:1023F000400901D0306800E0286898FAA8F1B1FAE5
:1024000081F101F01F0104FA01F10842E4D13878AA
:10241000DFF8E08280074FF0000B4FF002095FD534
:10242000B24808300168C1F38101012907D0016871
:10243000C1F3810103291CD10068C00319D499FAA2
:10244000A9F0B0FA80F040F02000400902D03068D6
:1024500001E086E0286899FAA9F1B1FA81F101F06A
:102460001F0104FA01F108422BD0F868012878D145
:1024700027E0F868A8B394FAA4F0B0FA80F048F81E
:102480002040FFF739FC824606E066E1FFF734FCA6
:10249000A0EB0A00022884D899FAA9F1B1FA81F1D7
:1024A00041F02001490901D0316800E0296899FA1A
:1024B000A9F0B0FA80F000F01F0004FA00F0014229
:1024C000E4D08A48001D01684FF4F85393FAA3F34F
:1024D0003A69B3FA83F321F4F8519A401143016049
:1024E00025E0FFE794FAA4F1B1FA81F148F821B0B0
:1024F000FFF702FC824605E0FFF7FEFBA0EB0A00B7
:102500000228C8D899FAA9F0B0FA80F040F020006B
:10251000400901D0306800E0286899FAA9F1B1FAC1
:1025200081F101F01F0104FA01F10842E4D1387889
:102530004FF4007AC0067CD56C480830006810F073
:102540000C0F0FD0B9694FF48070002972D090FA47
:10255000A0F0B0FA80F048F82040FFF7CDFB0090E3
:102560007EE087E09AFAAAF0B0FA80F040F020000E
:10257000400901D0306800E028689AFAAAF1B1FA5F
:1025800081F101F01F0104FA01F1084202D0B8699B
:1025900000286FD05548396A001D006800F460407B
:1025A00081421AD9084602F0F7FA002862D14F4852
:1025B000001D01683A6A21F460411143016001681D
:1025C0004FF07F4393FAA3F3FA69B3FA83F321F050
:1025D0007F419A401143016018E04448001D0268A1
:1025E00022F460420A43026001684FF07F4393FA8D
:1025F000A3F3FA69B3FA83F321F07F419A401143C0
:102600000160386A02F0C8FA0028CFD14FF4604167
:1026100091FAA1F1386AB1FA81F1C8404FF4004152
:10262000401C8140314808300068F02200F0F00082
:1026300001E070E040E092FAA2F2B2FA82F2D040F9
:102640002D4A105CC1402D4801600020FFF79EFB21
:1026500061E000BFFFF750FB0099401A02287CD8C8
:102660009AFAAAF0B0FA80F040F02000400902D0B7
:10267000306801E0BCE128689AFAAAF1B1FA81F168
:1026800001F01F0104FA01F10842E3D01748001DD0
:1026900001683A6A21F460411143016001684FF01A
:1026A0007F4393FAA3F3FA69B3FA83F321F07F41EE
:1026B0009A40114301602EE090FAA0F0B0FA80F049
:1026C00048F820B0FFF718FB009005E0FFF714FB77
:1026D0000099401A0228C2D89AFAAAF0B0FA80F0FB
:1026E00040F0200040090BD030680AE0003802407A
:1026F0003438024000004742E588000838000020D6
:1027000028689AFAAAF1B1FA81F101F01F0104FADE
:1027100001F10842DAD13878000753D5786948B317
:1027200094FAA4F0B0FA80F008EB8000C0F880467C
:10273000FFF7E2FA009005E0FFF7DEFA0099401A91
:1027400002288CD899FAA9F0B0FA80F040F0400045
:10275000B4EB501F02D1306801E08EE0286899FA8E
:10276000A9F1B1FA81F101F01F0104FA01F210425E
:10277000E2D027E094FAA4F1B1FA81F108EB8101EB
:10278000C1F880B6FFF7B8FA009005E0FFF7B4FA99
:102790000099401A022870D899FAA9F0B0FA80F08E
:1027A00040F04000B4EB501F01D1306800E02868D1
:1027B00099FAA9F1B1FA81F101F01F0104FA01F2CD
:1027C0001042E3D1387840077BD59B484FF0000991
:1027D0000068C0000AD49848016841F08051016047
:1027E00000684FF0010900F08050009093480168A4
:1027F000C90511D4016841F480710160FFF77CFACA
:10280000009005E0FFF778FA0099401A642834D860
:102810008A480068C005F5D5B86801280AD008B113
:10282000052811D0286820F480702860286820F4DA
:10283000806002E0286840F480702860B86848B37F
:10284000FFF75AFA00900DE0286840F48060286095
:10285000F0E700BFFFF750FA0099411A41F28830C3
:1028600081420AD89AFAAAF0B0FA80F040F040000B
:10287000B4EB501F02D1306801E095E028689AFA65
:10288000AAF1B1FA81F101F01F0104FA01F210423C
:10289000E0D022E0FFF730FA009007E0FFF72CFAD3
:1028A0000099411A41F2883081427DD89AFAAAF003
:1028B000B0FA80F040F04000B4EB501F02D1306815
:1028C00001E012E028689AFAAAF1B1FA81F101F068
:1028D0001F0104FA01F21042E0D1B9F1000F04D057
:1028E0005548016821F080510160786AE8B3DFF84B
:1028F0004891A9F11C09D9F80010C1F381010329FD
:1029000076D002284FF080714FF0007A58460BD0F5
:1029100091FAA1F1B1FA81F148F82100FFF7ECF941
:10292000B046074656466DE04FF0807191FAA1F12E
:10293000B1FA81F18A0042495050FFF7DDF9B34600
:102940008046564606E000BFFFF7D6F9A0EB080028
:10295000022854D896FAA6F0B0FA80F040F0200091
:10296000400903D0DBF8000001E061E0286896FA36
:10297000A6F1B1FA81F101F01F0104FA01F1084258
:10298000E2D1D7E90A103A6BD9F80030014323F4B9
:102990007D031A431143C9F800104FF0807090FA7C
:1029A000A0F0B0FA80F000E029E0810024480C504B
:1029B000FFF7A2F9074604E0FFF79EF9C01B0228C3
:1029C0001DD896FAA6F0B0FA80F040F02000400939
:1029D00002D0DBF8000000E0286896FAA6F1B1FA10
:1029E00081F101F01F0104FA01F10842E4D01FE077
:1029F00020E000BFFFF780F9C01B022802D90320A6
:102A0000BDE8F88F96FAA6F0B0FA80F040F020000A
:102A1000400902D0D8F8000000E0286896FAA6F134
:102A2000B1FA81F101F01F0104FA01F10842E1D18C
:102A30000020E5E70120E3E7243802400070004071
:102A40000000474270472DE9F0470446007F012807
:102A50001CD001262677022060772168CA204862B0
:102A60002168532048622068816821F48061816078
:102A70002068816821F480418160FFF73DF90546B7
:102A800000274FF0FF084FF47A790EE00220BDE8EE
:102A9000F087FFF731F9401B484506D92168C1F896
:102AA0002480032060772777F1E72068C06840071B
:102AB000EFD52168C1F82480667727770020E6E704
:102AC0007047000010B5044600688168C9040CD541
:102AD000C068C00509D52046FFF7F2FF2068C1682D
:102AE00001F0800161F4C071C160206881688904CF
:102AF0000CD5C068800509D52046FFF7A3FF2068E4
:102B0000C16801F0800161F42071C16003494FF494
:102B1000003008600120607710BD000014040140FF
:102B20002DE9F0470446007F012822D04FF001082C
:102B300084F81C80022060772268CA2050622268D4
:102B40005320506220680025FF26B1F5807F816800
:102B50004FF0030A4FF47A790ED021F400718160AE
:102B60002068816821F400518160FFF7C5F80746AD
:102B700024E00220BDE8F08721F4807181602068A4
:102B8000816821F480518160FFF7B6F8074604E0C0
:102B9000FFF7B2F8C01B484509D82068C068C007D5
:102BA000F6D00FE0FFF7A8F8C01B484506D920680B
:102BB000466284F81DA025770320DBE72068C06803
:102BC0008007EFD52068466284F81D8025770020B5
:102BD000D0E710B50C464FF480718A4203D1A16151
:102BE0000068C16904E04FF40071A1610068016AE6
:102BF000C1F305402070C1F30622627001F07F022C
:102C0000A270402202EA1142E270C1F3056222750D
:102C100001F0804201F08031C4E9031273B902F07F
:102C200031F82070607802F02DF86070A07802F022
:102C300029F8A070207D02F025F82075002010BD35
:102C400010B500680B4641680D480140080CD8706B
:102C5000C1F304245C7001F03F049C70C1F3423165
:102C6000197052B902F00EF8D870587802F00AF8CC
:102C70005870987802F006F89870002010BD000097
:102C80003FFFFF0010B500680C4601680E48014088
:102C9000C1F305402070C1F30623637001F07F0388
:102CA000A370402303EA1141E17052B901F0EAFF39
:102CB0002070607801F0E6FF6070A07801F0E2FF1C
:102CC000A070002010BD00007F7F7F0070B5040061
:102CD00002D0607F10B106E0012070BD0020207797
:102CE000204600F041F8022060772168CA2048623F
:102CF000216853204862204601F0D8FFFF210028B8
:102D0000206803D0416204206077E5E78268154BB4
:102D10001A4082602268906863681843D4E90435D9
:102D20002B43184390602268E068106120680269B4
:102D3000238942EA034202612068C26822F08002CD
:102D4000C2602068026C22F4802202642068026C57
:102D5000A3691A4302642068416201206077002061
:102D600070BD0000BFFF8FFF704700002DE9F05FCE
:102D70000446007F0D46012844D04FF0010B84F833
:102D80001CB0022060772068002780684FEA40600E
:102D9000BAB3002852DA287801F074FF287D01F0D8
:102DA00071FFA8782978EA7840EA01406978090239
:102DB00041EA02410843297D40EA01662869216809
:102DC0000643E8680643CA204862216853204862E7
:102DD000A869FF25B0F5807F20684FF0030A4FF403
:102DE0007A7981682CD021F4007181602068C168F3
:102DF00001F0800161F42071C160FEF77DFF804623
:102E00004FE002E00220BDE8F09F002800DBEF70F9
:102E1000287801F040FF0604687801F03CFF46EA9C
:102E20000026A87801F037FF0643E87846EA004616
:102E3000287D01F030FF46EA0066BFE7EF70ADE79E
:102E400021F4807181602068C16801F0800161F423
:102E5000C071C160FEF750FF804605E0FEF74CFFF1
:102E6000A0EB0800484515D82068C068C007F5D019
:102E70002068C6612068816841F4807181602068A3
:102E8000816841F480511BE0FEF736FFA0EB08009B
:102E9000484506D92068456284F81DA0277703209D
:102EA000B1E72068C0688007EED520680662206818
:102EB000816841F4007181602068816841F40051AB
:102EC00081600948016841F400310160064808301A
:102ED000016841F4003101602068456284F81DB04A
:102EE000277700208FE70000000401402DE9F0471C
:102EF0000446007F0B46012825D04FF0010984F8D5
:102F00001C9002206077587802B301F0BBFE9878DD
:102F100001F0B8FE9878D97840EA014558781978D8
:102F2000000240EA413005432168CA204862216816
:102F300053204862204601F0B9FE0026FF274FF0DB
:102F4000040838BB19E00220BDE8F087C10603D5AC
:102F500000F0EF000A305870D87801F09CFE0204AF
:102F6000587801F098FE42EA0022987801F093FE2A
:102F70000243187842EA4035D6E70D4805402068FC
:102F800045602068C16821F08001C160204600F0E2
:102F900085F830B12068476284F81D8026770120CB
:102FA000D2E72068476284F81D9026770020CBE79F
:102FB0003FFFFF002DE9F0470446007F0D46012842
:102FC00011D04FF0010A84F81CA00220607720681D
:102FD000002680684FEA406042B100281ADA28785B
:102FE00001F050FE17E00220BDE8F087002800DB6A
:102FF000EE70287801F04FFE0204687801F04BFE75
:1030000042EA0022A87801F046FE0243E87842EA4C
:1030100000470AE0EE70A878297840EA014768780E
:10302000E978000240EA014007432168CA2048626B
:10303000216853204862204601F038FE4FF0FF0817
:103040004FF00409C0B914480740206807602068A1
:10305000816821F480218160D5E90101084321685C
:103060008A68104388602068C16821F08001C160CF
:10307000204600F013F838B12168C1F8248084F8A4
:103080001D9026770120AFE72168C1F8248084F8DD
:103090001DA026770020A7E77F7F7F0070B504463C
:1030A0000068C16821F0A001C160FEF725FE054659
:1030B0004FF47A7607E000BFFEF71EFE401BB042D9
:1030C00001D9032070BD2068C0688006F4D50020B7
:1030D00070BD10B504000ED02068016821F04001D9
:1030E0000160204600F046F80020606584F8510039
:1030F00084F8500010BD012010BD70B5040004D04C
:1031000094F85100002510B106E0012070BD84F84C
:103110005050204600F02FF8022084F8510020681B
:10312000016821F040010160D4E901010843D4E9BC
:1031300003121143084361690843218B01F40071B4
:103140000843E1690843216A0843A16A08432168EA
:103150000860A069042101EA1040616A08432168FF
:1031600048602168E06A08616565012084F85100C3
:10317000002070BD704770474FF0E02104280869B7
:1031800003D020F004000861704740F00400FAE723
:10319000704710B5401EB0F1807F01D3012010BDF3
:1031A0004FF0E02460610F21601701F078F80020F3
:1031B000A06107202061002010BD10B5FFF7E8FFD7
:1031C00010BD10B5040003D094F8350010B107E02D
:1031D000012010BD002084F83400204600F00CF8D7
:1031E000022084F83500211D206803F057FF0120DC
:1031F00084F83500002010BD08B500680B498842EE
:1032000012D10B48016841F00201016000680322FD
:1032100000F00200009001211D20FEF7D7FDBDE85F
:1032200008401D20FEF7C7BD08BD00000004004097
:10323000243802400168CA6842F00102CA6000688E
:10324000016841F00101016000207047704770B5CE
:103250000446006801694FF00005C943890715D489
:10326000C168C943890711D4E91E01610120207595
:10327000206880698007204602D0FFF7E7FF04E05E
:1032800000F078F8204600F0FAF82575206801690A
:10329000C943490717D4C168C943490713D46FF01C
:1032A00004010161022020752068806910F4407FCC
:1032B000204602D0FFF7CAFF04E000F05BF820468A
:1032C00000F0DDF8257520680169C943090716D4A7
:1032D000C168C943090712D46FF0080101610420D5
:1032E00020752068C0698007204602D0FFF7AEFF36
:1032F00004E000F03FF8204600F0C1F82575206892
:103300000169C943C90617D4C168C943C90613D4A2
:103310006FF010010161082020752068C06910F469
:10332000407F204602D0FFF791FF04E000F022F832
:10333000204600F0A4F8257520680169C943C90733
:1033400008D1C168C943C90704D1891E016120465B
:1033500000F0A4F820680169C943490609D4C1688E
:10336000C943490605D46FF040010161204600F0D1
:10337000D5F870BD704770B5044690F834000D461E
:1033800001280DD0012684F83460022084F835002D
:1033900042B1042A18D0082A2AD00C2A4DD139E08B
:1033A000022070BD206803F0BAFE2068816941F0F8
:1033B000080181612068816921F004018161206830
:1033C0008169EA68114311E0206803F0BEFE2068BD
:1033D000816941F4006181612068816921F4806123
:1033E000816120688169EA6841EA0221816124E003
:1033F000206803F0C2FE2068C16941F00801C16184
:103400002068C16921F00401C1612068C169EA68CE
:10341000114311E0206803F0C7FE2068C16941F440
:103420000061C1612068C16921F48061C1612068C7
:10343000C169EA6841EA0221C16184F8356000206F
:1034400084F8340070BD10B5040003D094F8350042
:1034500010B107E0012010BD002084F834002046A0
:1034600000F00CF8022084F83500211D206803F0DC
:1034700015FE012084F83500002010BD704770470C
:1034800010B504460068012203F03EFE2068016882
:1034900041F001010160002010BD0000164910B587
:1034A000884228D115484168491C4160144909786F
:1034B00011B10168491C0160124B002101221878EA
:1034C00050B111480478641CE4B20470032C03D991
:1034D000197001700D4802700D4B187800280AD041
:1034E0000C480478641CE4B20470032C03D91970EE
:1034F00001700948027010BD000F002084000020F8
:10350000090000202D0000202E0000202C000020AB
:10351000330000203400002032000020704770B5D6
:10352000040004D094F83900002510B106E0012011
:1035300070BD84F83850204600F020F8022084F84E
:1035400039002068C16821F40051C160204603F0B1
:103550005DFF2068016921F49041016120684169A3
:1035600021F02A0141612068C16841F40051C16025
:10357000E563012084F83900002070BD7047000029
:1035800090F83930012B01D0122B2CD139B332B342
:1035900090F83830012B26D0012380F83830816232
:1035A0008285C2850021C16390F83920122A18D083
:1035B0005FF0220280F8392080F838100168CA686C
:1035C00042F48072CA6001684A6942F001024A61AD
:1035D0000068C16841F02001C160002070470120EF
:1035E00070473222E6E70220704700000148FEF7EC
:1035F000B2BB0000380F0020044A034B1360C2E93D
:1036000001011046FEF77EBB00300040380F00205D
:10361000FEE700002DE9F04FADF50B7D802101A8FC
:10362000FCF79DFD802161A8FCF799FD802141A850
:10363000FCF795FD802121A8FCF791FDFE4D0026A9
:10364000287855287ED1DFF8F483697898F8060049
:10365000814278D1E878FA4F2C7A4FF0550907F17A
:10366000020B4FF0010A012822D104F10900C1B276
:103670002846FDF7A7FD2919497A884218D187F80D
:10368000009098F806007870A878B87087F803A0C2
:103690006A68CBF8022087F808A0002078720A2117
:1036A0003846FDF78FFDB8720B21384604F042F81A
:1036B000E878022846D104F10900C1B2DE48FDF7DE
:1036C00081FD2919497A88423CD1DC4887F800906D
:1036D000002480797870A878B8700220F870696842
:1036E000CBF80210012038727C720A21D448FDF711
:1036F00069FDB8720B21D24804F01CF8CE4809309D
:10370000FCF74AFD401CC0B2054405F10900FCF776
:1037100043FD401CC1B205EB010808F1090085908A
:1037200004F09DFB81468A468598FCF735FD401CD8
:10373000C7B2B84408F109008346FCF72DFD401CD0
:10374000C0B201E08AE065E208EB00058995093521
:103750002846FCF721FD401CC0B28190584604F079
:103760007EFBCDE98601284604F079FB8046899DE1
:1037700081988B46284409308990FCF70DFD401C48
:10378000C5B201A88999FCF70EFD61A88599FCF7DF
:103790000AFD66208DF8040101208DF80501A74877
:1037A0002A4601A980798DF806010DF20710FCF771
:1037B000BDFC41A828443A4661A9C01CFCF7B6FCF0
:1037C0009E48007A00284DD09C4E102701286ED0CC
:1037D00002286DD0032841D1DDE9860142465B46CF
:1037E000FCF73CFE0E460446FCF7A0FF002103F068
:1037F000F3FB48465146FCF799FF03F0EDFC00222D
:10380000904B48465146FCF72FFE22463346FCF7C4
:103810009DFEFCF78BFF044600F051FD00218AA2BB
:10382000084600F0A8FE01AA0221002000F0A3FE35
:10383000E8000838C0B23A22022100F039FE032322
:10384000224604210020009700F064FE7FA204219C
:10385000182000F090FE7949012088720DF50B7D4B
:10386000BDE8F08FDFF8D48198F80410491CC9B284
:1038700088F80410012909D07548022919D00329B4
:1038800017D0042926D088F8054035E005EB070954
:1038900009F1030241A96E48FCF748FC98F80500BD
:1038A0004844C01C88F8050088F80B0026E026E193
:1038B0005DE198F8051005EB0709084409F10302DA
:1038C00041A9FCF733FC98F805004844C01C88F86F
:1038D0000500E9E798F8051005EB0709084409F128
:1038E000030241A9FCF722FC98F805004844C01CDB
:1038F00088F80B0088F8054088F8044098F80A001A
:1039000018B100F0DCFC88F80A404D4801A980306D
:10391000FCF730FC01A978B149488030FCF743FC42
:1039200088F80F40E81911287DD9102F64D980211B
:1039300021A8FCF714FC69E04648FCF71BFC01A930
:1039400020B14448FCF72FFC01200AE041488030B8
:10395000FCF710FC01A938B13E488030FCF723FC8D
:10396000022088F80F00DDE73B48FCF703FC4FF02E
:10397000030930B101A93848FCF715FC88F80F900D
:10398000D0E798F8031098F80200814207D001A907
:103990003148FCF708FC88F80F9088F8034098F845
:1039A000021098F80100814209D02A4801A980300C
:1039B000FCF7F9FB022188F80F1088F8024098F80C
:1039C000011098F80000814208D001A92148FCF7B5
:1039D000EAFB012188F80F1088F8014098F80000F0
:1039E00000289FD0164801A98030FCF7DCFB88F83E
:1039F0000F4088F8004095E7C7F110052A4601A955
:103A000021A8FCF793FB21A84455EEB298F80F00CB
:103A1000082478B3012848D002285CD003287FF41A
:103A20001DAF062000E026E000F067FC21AA062179
:103A3000002000F0A0FD11E00C0300204000002059
:103A4000A20900200000594050574D0025000000F9
:103A5000A4050020A20A0020A20B0020F006000E00
:103A60003A22062100F024FD04EBC600C0B261AA90
:103A700006212DE005E001A921A8FCF794FB6D1EAD
:103A8000C3E7002000F039FC002121AA084600F01D
:103A900072FDF006000E3A22002100F009FD04EB51
:103AA000C600C0B261AA002112E0022000F025FC8D
:103AB00021AA0221002000F05EFDF006000E3A224D
:103AC000022100F0F5FC04EBC600C0B261AA02219D
:103AD00000F051FDC2E6042000F00FFC21AA0421F1
:103AE000002000F048FDF006000E3A22042100F00C
:103AF000DFFC04EBC600C0B261AA0421E8E700F0D5
:103B0000DEFB48465146FCF75BFE8146404659467F
:103B1000FCF756FE0446DDE98601FCF751FE4A46F5
:103B20002146FDF7A1FB044600213DA2084600F016
:103B300022FD01AA0221002000F01DFDE800083846
:103B4000C0B23A22022100F0B3FC2046FCF7BBFDD4
:103B50000246032304210020009700F0DBFC31A281
:103B60000421182000F007FD0120B07276E6DDE99F
:103B7000860142465B46FCF771FC02460B4648460E
:103B80005146FCF7E3FC4FF06632274BFCF76CFC28
:103B900004460E4600F093FB002124A2084600F0E4
:103BA000EAFC01AA0221002000F0E5FCE800083848
:103BB000C0B23A22022100F07BFC20463146FCF7DD
:103BC000B5FD0246022304210020009700F0A2FC6C
:103BD0002E220421102000F06BFC0022144B204602
:103BE0003146FCF741FCFCF7A1FD0A21B0FBF1F2E4
:103BF00001FB1202012304211820009700F08AFC27
:103C00000CA20421202000F0B6FC20463146FDF72E
:103C1000BDFB20E6FF210848FCF7A1FA1EE60000E4
:103C2000414F00006D41000066660A40444F0000AD
:103C300000002440560000000C0300202DE9F04F46
:103C4000ADF50B7D802101A8FCF789FA802161A8E0
:103C5000FCF785FA802141A8FCF781FA802121A890
:103C6000FCF77DFAFA4D0026A87A55287DD1DFF8B9
:103C7000E483E97A98F80600814277D1687BF64FB1
:103C8000AC7C4FF0550907F1020B4FF0010A0128F7
:103C90002AD104F10900C1B22846FDF793FA291987
:103CA000C97C884220D187F8009098F80600787087
:103CB000287BB87087F803A0D5F80E20CBF8022037
:103CC00087F808A0002078720A213846FDF77AFAB2
:103CD000B8720E21E1A002F08FFF0520FDF76FFB07
:103CE0000B21384603F090FD687B02283DD104F19A
:103CF0000900C1B2D6480A30FDF764FA2919C97C17
:103D0000884232D1D34887F80090002480797870B7
:103D1000287BB8700220F870D5F80E10CBF802108E
:103D2000012038727C720A21CB48FDF74BFAB87239
:103D3000C7481330FCF730FA401CC0B2054405F107
:103D40001300FCF729FA401CC1B205EB010808F189
:103D50001300859004F083F881468A468598FCF725
:103D60001BFA401CC7B2B84401E09CE082E208F1B3
:103D700013008346FCF710FA401CC1B208EB0105A2
:103D8000899513352846FCF707FA401CC0B281908C
:103D9000584604F064F8CDE98601284604F05FF83F
:103DA0008346899D81988846284413308990FCF782
:103DB000F3F9401CC5B201A88999FCF7F4F961A890
:103DC0008599FCF7F0F90D21A4A002F015FF05205C
:103DD000FDF7F5FA0B21A04803F016FD66208DF8DB
:103DE000040101208DF805019A482A4601A980792D
:103DF0008DF806010DF20710FCF798F941A8284448
:103E00003A4661A9C01CFCF791F99248007A002853
:103E10004DD0904E102701287CD002287BD003285B
:103E200041D1DDE986015A464346FCF717FB0E46B1
:103E30000446FCF77BFC002103F0CEF848465146CF
:103E4000FCF774FC03F0C8F90022884B4846514641
:103E5000FCF70AFB22463346FCF778FBFCF766FCCE
:103E6000044600F02CFA002181A2084600F083FBF2
:103E700001AA0221002000F07EFBE8000838C0B251
:103E80003A22022100F014FB0323224604210020E1
:103E9000009700F03FFB77A20421182000F06BFB95
:103EA0006C49012088720DF50B7DBDE8F08FDFF8BD
:103EB000A48198F80410491CC9B288F8041001299B
:103EC0002AD06D48022938D0032936D0042946D09B
:103ED00088F8044088F8054098F80A0018B100F006
:103EE000EEF988F80A405C4801A98030FCF742F9F5
:103EF00001A998B358488030FCF755F988F80F406D
:103F0000E81911287DD9102F7CD9802121A8FCF730
:103F100026F9C1E023E15AE105EB070909F10302A3
:103F200041A95548FCF702F998F805004844C01C1F
:103F300088F8050088F80B00CEE798F8051005EB27
:103F40000709084409F1030241A9FCF7EFF898F8C2
:103F500005004844C01C88F80500EBE714E098F819
:103F6000051005EB0709084409F1030241A9FCF714
:103F7000DDF898F805004844C01C88F80B0088F864
:103F8000054088F80440A7E73C48FCF7F3F801A98E
:103F900020B13A48FCF707F901200AE037488030A1
:103FA000FCF7E8F801A938B134488030FCF7FBF899
:103FB000022088F80F00A3E73148FCF7DBF84FF048
:103FC000030930B101A92E48FCF7EDF888F80F90ED
:103FD00096E798F8031098F80200814207D001A9EB
:103FE0002748FCF7E0F888F80F9088F8034098F825
:103FF000021098F8010081420CD0204801A98030BD
:1040000001E068E03EE0FCF7CEF8022188F80F10EE
:1040100088F8024098F8011098F80000814208D012
:1040200001A91648FCF7BFF8012188F80F1088F89D
:10403000014098F800000028BDD0074801A9803051
:10404000FCF7B1F888F80F4088F8004058E7000006
:104050002004002040000020A209002041542B43EE
:10406000495053454E443D31310000000000594055
:1040700050574D0025000000A4050020A20A002092
:10408000A20B0020C7F110052A4601A921A8FCF7C0
:104090004DF821A84455EEB298F80F00082400B35B
:1040A000012832D0022846D003287FF4FCAE062037
:1040B00000F023F921AA0621002000F05CFAF006A6
:1040C000000E3A22062100F0F3F904EBC600C0B25C
:1040D00061AA06212CE001A921A8FCF764F86D1E55
:1040E000D9E7002000F009F9002121AA084600F0D4
:1040F00042FAF006000E3A22002100F0D9F904EB52
:10410000C600C0B261AA002112E0022000F0F5F85A
:1041100021AA0221002000F02EFAF006000E3A2219
:10412000022100F0C5F904EBC600C0B261AA022169
:1041300000F021FAB7E6042000F0DFF821AA0421FC
:10414000002000F018FAF006000E3A22042100F0D8
:10415000AFF904EBC600C0B261AA0421E8E700F0A1
:10416000AEF848465146FCF72BFB8146584641467F
:10417000FCF726FB0446DDE98601FCF721FB4A46F5
:104180002146FDF771F8044600213DA2084600F0E3
:10419000F2F901AA0221002000F0EDF9E800083848
:1041A000C0B23A22022100F083F92046FCF78BFAD4
:1041B0000246032304210020009700F0ABF931A24E
:1041C0000421182000F0D7F90120B0726BE6DDE978
:1041D00086015A464346FCF741F902460B464846DB
:1041E0005146FCF7B3F94FF06632274BFCF73CF928
:1041F00004460E4600F063F8002124A2084600F0B1
:10420000BAF901AA0221002000F0B5F9E800083847
:10421000C0B23A22022100F04BF920463146FCF7A9
:1042200085FA0246022304210020009700F072F96B
:104230002E220421102000F03BF90022144B2046CE
:104240003146FCF711F9FCF771FA0A21B0FBF1F2E3
:1042500001FB1202012304211820009700F05AF9F3
:104260000CA20421202000F086F920463146FDF7FB
:104270008DF815E6FF210848FBF771FF13E60000F3
:10428000414F00006D41000066660A40444F000047
:1042900000002440560000000C030020704709076E
:1042A000090E002806DA00F00F0000F1E02080F887
:1042B000141D704700F1E02080F80014704770B5BD
:1042C000002404F1B000C0B2002100F06DF900211B
:1042D000022000F069F90021102000F065F90025A6
:1042E0000121002000F060F96D1CEDB2802DF7D3A4
:1042F000641CE4B2082CE4D370BD70B50446861C7F
:1043000018E004F1B000C0B2002100F04DF9002126
:10431000022000F049F90021102000F045F90025A5
:104320000121002000F040F96D1CEDB2802DF7D383
:10433000641CE4B2B442E4D370BD00001CB5012497
:1043400000940023224619214D480194FDF7A2F95B
:104350004B4800940023012218210C300194FDF7F2
:1043600099F947480094002301221621183001943E
:10437000FDF790F9424800940023012217212430D0
:104380000194FDF787F90021AE2000F00DF900211E
:10439000022000F009F90021102000F005F90021A9
:1043A000402000F001F90021812000F0FDF80021FB
:1043B000CF2000F0F9F80021A12000F0F5F800214D
:1043C000C82000F0F1F80021A62000F0EDF800214F
:1043D000A82000F0E9F800213F2000F0E5F80021D6
:1043E000D32000F0E1F80021084600F0DDF80021BC
:1043F000D52000F0D9F80021802000F0D5F8002168
:10440000D92000F0D1F80021F12000F0CDF80021F2
:10441000DA2000F0C9F80021122000F0C5F80021D0
:10442000DB2000F0C1F80021402000F0BDF80021A1
:10443000202000F0B9F80021022000F0B5F800219A
:104440008D2000F0B1F80021142000F0ADF800211B
:10445000A42000F0A9F80021A62000F0A5F8002172
:10446000AF2000F0A1F80021AF2000F09DF8FFF789
:1044700026FFBDE81C400021084600F003B80000FC
:10448000240C002010B50446B031C8B2002100F061
:104490008BF8102040EA1410002100F085F804F099
:1044A0000F00BDE8104040F00100002100F07CB892
:1044B0002DE9F041203A00240D468046D7B27F28EE
:1044C00003D900208D1C8046EDB22946FFF7DAFFA4
:1044D0000F4E00BF04EB07100121305C00F064F8C0
:1044E000641CE4B2082CF5D36D1CE9B24046FFF71A
:1044F000C9FF002404EB071030440121007A00F0CA
:1045000053F8641CE4B2082CF4D3BDE8F081000039
:10451000FD8800082DE9F0478046002608981D46D2
:1045200091468A463446470821E0281B401EC1B206
:104530000A2004F031F9B9FBF0F00A21B0FBF1F2E6
:1045400001FB120026B9691E8C4201DA30B1012646
:104550003030C2B207FB0480C0B203E007FB048026
:10456000C0B220225146FFF7A3FF641CE4B2AC4264
:10457000DBD3BDE8F0872DE9F04117460E4604462F
:1045800000250CE031462046FFF792FF0834E4B2E4
:10459000782C02D90024B61CF6B26D1CEDB27A5DFF
:1045A000002AEFD1BDE8F08170B5054601B10121C7
:1045B0001648FDF795F9154800210C38FDF790F9DC
:1045C0000024124800210C30FDF78AF9280601D595
:1045D000012100E000210D481830FDF781F90B485A
:1045E00001210C30FDF77CF96806641C050EE4B26D
:1045F000082CE6D3054801210C38FDF771F9BDE818
:10460000704001210148FDF76BB90000300C00201B
:104610002DE9F04107460C481E461546C06A0C4677
:1046200080472246094C39460948A281FBF77EFDA6
:104630006570A67001202070217A002902D0E071F7
:1046400000202072BDE8F081808800080000002072
:1046500090000020034810B5C06A8047024903203B
:10466000087010BD8088000800000020034810B5C5
:10467000C06A804702490220087010BD8088000887
:1046800000000020034810B5C06A8047024904209A
:10469000087010BD8088000800000020034810B595
:1046A000C06A804702490520087010BD8088000854
:1046B0000000002010B5064802F062FE054841786F
:1046C000002903D0002141700121017010BD0000BC
:1046D00020050020320000202DE9F04FFE4C85B06F
:1046E0002078AA2877D1A078DFF8F08366780027B1
:1046F0004FF0040AA8F11D0506286DD009DC4FF023
:10470000020B4FF0010966D2DFE800F0112367BF0A
:10471000D7EDDFF8CC8381384FF0AA0908F1010BFF
:10472000062858D2DFE800F0EFEEEDECEBEA314678
:10473000E948FCF747FDA15D88424CD1444688F822
:1047400002700421E548FCF73DFD20710521E34896
:1047500013E23146E048FCF735FDA15D88423AD1CD
:10476000464688F802900421DC48FCF72BFD3071A6
:104770000521DA4802F0DEFFD4F80300C5F819007D
:10478000E079217A41EA0021D4482982001F2E21B4
:104790008378C278CDE90113CDE903124178009105
:1047A00002782E23CFA1D34803F040FA298AD148BA
:1047B000FCF708FECF48FBF7EFFC401CC2B2AA731F
:1047C000CC49CD4800F078FF298ACC4803F007FA9D
:1047D000A97BCB48E7E085E0C3E03146BE48FCF763
:1047E000F1FCA15D88427DD1474688F802B00421E2
:1047F000BA48FCF7E7FC38710521B84802F09AFF87
:10480000B7486E72E11C8038F21EFBF78FFCFCF794
:1048100049FEB84A0020803206E0211889792C2907
:1048200004D01154401CC0B2B042F6D30021B54BA5
:1048300007E00A182244D27A0A2A04D05A54491CA2
:10484000C9B2B142F5D3AF49A1F18000FCF7F2FD46
:10485000A8488030FBF7A0FC401C2873A948FBF750
:104860009BFC401C6873A3492A7B8031A64800F05A
:1048700023FF6A7BA349A54800F01EFF297BA448BB
:1048800003F0ADF9697BA3488DE031469248FCF70F
:1048900099FCA15D884261D1032088F80200464658
:1048A00004218E48FCF78EFC307105218B4802F004
:1048B00041FFE178A971984875E031468648FCF7D8
:1048C00081FCA15D884249D1464688F802A00421B6
:1048D0008248FCF777FC30710521804802F02AFFFE
:1048E000E07801E03AE01AE030B101280CD002286B
:1048F0000DD003280ED00FE02F720DE018E1CBE0B1
:10490000B0E09CE077E053E085F8089004E085F89B
:1049100008B001E003202872297A804843E031463C
:104920006D48FCF74FFCA15D884217D1052088F83F
:104930000200464604216948FCF744FC3071052119
:10494000664802F0F7FEB4F80300E8826079287642
:10495000E178227942EA01226A82E87105B0BDE875
:10496000F08F31465C48FCF72DFCA15D8842F5D103
:10497000062088F80200464604215848FCF722FC2D
:1049800030710521554802F0D5FEE078010220790A
:10499000644C08436249A882484363492060C9685F
:1049A00088476248216805B0BDE8F04F03F017B9A9
:1049B00031464948FCF706FCA15D8842CED188F813
:1049C0000090092088F80100812088F8020088F80A
:1049D0000370D5F81910CBF80310288A4446010A51
:1049E00088F8081088F809000A213D48FCF7EAFB1E
:1049F000A0720B21C0E031463748FCF7E3FBA15D14
:104A00008842ABD188F800906A7A88F80120822029
:104A100088F802003249444688F803708039201D26
:104A2000D21EFBF783FB687A401CC1B22C48FCF70E
:104A3000C9FB697A6218891C5070C9B29CE0314682
:104A40002548FCF7BFFBA15D884287D188F800901C
:104A500088F801A0832088F8020088F80370444693
:104A6000A87911E031461C48FCF7ACFBA15D8842F7
:104A7000A4D188F8009088F801A0842088F802006A
:104A800088F80370287A4446052120711448FCF701
:104A900099FB607106216FE031460F48FCF792FBED
:104AA000A15D88428AD188F80090062088F801002C
:104AB000852088F8020088F80370E98AABF80310B3
:104AC000297E8BF80510444607210548FCF77AFB40
:104AD000E071082150E000000C0300205D00002080
:104AE000A3080020256425632564256325642563C8
:104AF00025640000A306002000030808000408083D
:104B0000000A0808A3070020000508080006080896
:104B10000007080800080808000108080002080843
:104B2000A086010010000020808800080009080805
:104B300031461448FCF746FBA15D884285D188F8D0
:104B40000090052088F80100862088F802000E48B1
:104B500088F803700D4900684446B0FBF1F2B0FBE1
:104B6000F1F0120A88F8042088F8050006210848A8
:104B7000FCF728FBA0710721054805B0BDE8F04F00
:104B800002F0D8BD0C03002010000020A086010018
:104B9000A308002000687047F8B507461A480026A9
:104BA00000681A4D10F0F00F20D1174C1C3420680B
:104BB000C00002D5FDF754F90DE0206840F08050A8
:104BC0002060206800F080500090FDF749F92168CE
:104BD00021F080512160B0F5C05F07D1B7F5404F9B
:104BE00004D12868012640F004002860286820F0DD
:104BF000010030432860286800F00100B04201D075
:104C00000120F8BD0020F8BD08380240003C0240F9
:104C100030B50F4887B0016841F0010101600068BC
:104C20004FF4807400F0010005900120CDE90040B0
:104C300002900220074D039069462846FCF78CFF3E
:104C4000002221462846FDF752F807B030BD00008B
:104C50001C3802400000024010B50948FDF732FF41
:104C60004FF480710648FDF75BFF00F0D3FB00F0C6
:104C700033FA0020FCF7F8F9BDE8104002F0F2BA70
:104C800000020020010901EB810100F00F0000EBA0
:104C90004100C0B27047002102E00A38C0B2491C8E
:104CA0000A28FAD2090740EA1160704770B5044635
:104CB0000068C168490614D44FF0FF31C160FDF7A8
:104CC0001BF805464FF47A7607E000BFFDF714F8AD
:104CD000401BB04201D9032070BD2068C068400667
:104CE000F4D5002070BD00002DE9F04100254648B4
:104CF000FFF750FF454CA0714548FFF74BFFC2B28C
:104D00002272A17943A002F081FF484F3846FFF795
:104D100041FF474E18B13846FFF73CFF306045A0D1
:104D2000316802F073FF4748FFF734FF20734648AD
:104D3000FFF730FF6073227B4449454800F0B2FC26
:104D40004249627B8031434800F0ACFC4248FFF7A7
:104D500021FFC2B23D49A2738039404800F0A2FC55
:104D60003F48FFF717FF2082FCF79CFB002832D05A
:104D70003CA002F04BFF6D1CEDB2032DF4D30025D7
:104D8000324932488031FCF755FB002827D03AA041
:104D900002F03CFF2D4A2D4980323BA002F036FF45
:104DA0006D1CEDB2032DEBD300252848218A8038F5
:104DB000FCF708FB00281CD037A002F027FF23498E
:104DC000228A803939A002F021FF6D1CEDB2032D3B
:104DD000EBD3BDE8F08139A002F018FFCFE73EA089
:104DE00002F014FF194A1949803227A002F00EFF81
:104DF000DAE73DA002F00AFF228ABDE8F04113493C
:104E00002AA0803902F002BF0001080840000020FB
:104E1000000208084E535F414444523D25642C4E25
:104E2000535F4D4F44453D25640A000000090808C2
:104E300010000020C6B5B6CECEAA256420487A0A56
:104E400000000000000708080008080823070020E9
:104E50000005080800060808000A080800030808FA
:104E600000040808C9E8D6C377696669C4A3CABD47
:104E7000CAA7B0DC0A00000077696669C1ACBDD37F
:104E8000CAA7B0DC0A000000574946493D25732CEB
:104E90005057443D25730A00BDA8C1A2544350C1D8
:104EA000ACBDD3CAA7B0DC0A0000000049503D25C4
:104EB000732C504F52543D25640A0000C9E8D6C3F4
:104EC00077696669C4A3CABDCEAA73746174696F39
:104ED0006EB3C9B9A60A000077696669C1ACBDD3D3
:104EE000B3C9B9A60A000000BDA8C1A2544350C16D
:104EF000ACBDD3B3C9B9A60A000000000FB4142298
:104F00002DE9F04F87B00C4612A96846FBF70EF961
:104F10009DF85200059066489DF851809DF85070AC
:104F20009DF84C60844201D214B102E0044600E0D6
:104F300001242046FBF7A1FB5E4A5F4BFBF794FA86
:104F40008A46814603F030FC04460D464A465346E5
:104F5000FBF784FA0022594BFBF786FADFF860A1D1
:104F600081468B46DAF80C00FBF776FB4A465B4637
:104F7000FBF7D3F9FBF7BBFBDFF84891DFF848B14B
:104F8000CAF80C00B0F5F47F16DBA0F5F470CAF88F
:104F90000C0000224D4B20462946FBF7BEF9044683
:104FA0000D4609E000224B4620462946FBF756FAFB
:104FB000761C04460D46B6B200224B4620462946D2
:104FC000FBF7E6FBEED9D94600224B4620462946A0
:104FD000FBF7DEFB17D800224B4620462946FBF79D
:104FE0003DFA7F1C04460D46BFB2EDE700224B465A
:104FF00020462946FBF732FA044608F101000D4627
:105000001FFA80F801E0DFF8C89000224B462046E6
:105010002946FBF7BDFBE9D90598FBF72EFB224695
:105020002B46FBF77AF9FBF781FB80B205E03C38B1
:1050300008F1010180B21FFA81F83C28F7D205E09F
:10504000A8F13C017F1C1FFA81F8BFB2B8F13C0FF8
:10505000F6D203E0183F761CBFB2B6B2182FF9D2D1
:105060009DF84D209DF84B10FAB19AF806301A447D
:1050700092071AD0174A521E895CB14203D2B6FB7E
:10508000F1F201FB12668DF80A008DF809808DF8A7
:1050900004608DF80870142269461098FBF746F8F2
:1050A00007B0BDE8F00F5DF814FB0A4A0C32E2E7E6
:1050B00042061200FCA9F1D24D62004000408F4030
:1050C000180000200018F5400020AC400000F03F20
:1050D00000004E406888000810B5224C92B06079FC
:1050E00000283CD10DA800F00FF914220DA901A849
:1050F000FBF71CF800234FF4807206A91A48FDF74D
:1051000068FD9DF81900C0EB001081009DF81800A3
:10511000C0EB4012C2EB002001EB00109DF81A100A
:1051200008449DF80D10C1EB01118A009DF80C1088
:10513000C1EB4113C3EB012102EB01119DF80E20DD
:105140001144081AFBF799FA0022084BFBF78CF977
:1051500002F09AFEFBF7EAFAA0600120607112B03B
:1051600010BD000018000020000200200040DF3FBA
:105170002DE9F04700248AB0254680B1142201466B
:105180006846FAF7D3FF9DF80510BDF80000002629
:10519000DFF8F490DFF8F4A088460F1812E005A8B5
:1051A00000F0B2F8142205A9EAE7CEB1B00717D093
:1051B0000022534620462946FBF7AFF8761C0446EA
:1051C0000D4636B2B742F0DCB8F1000F0BD0B8078D
:1051D00009D09DF803700026DFF8B4807F1E2BE015
:1051E00000224B46E6E7DFF8A8809DF80370002612
:1051F00008F10C087F1E0DE018F806002549484309
:10520000FBF73BFA22462B46FBF787F8761C044651
:105210000D46F6B2B742EFDC10E000BF18F806000A
:105220001C494843FBF729FA22462B46FBF775F841
:10523000761C04460D46F6B2B742EFDC9DF8091025
:105240009DF80A00C1EB011100EB81029DF80800F6
:105250004FF4616148439DF8041040F2A323594381
:1052600000EBC1101044FBF708FA22462B46FBF76F
:1052700054F80022084BFBF7F7F803F095FA0AB050
:10528000BDE8F047FBF752BA50287E4138137E4103
:1052900068880008805101000040DF3F0C4810B5CD
:1052A0008178C078814312D0FBF7E8FEFCF7E0FD7F
:1052B0000848016841F004010160FCF7C5FDFCF7F6
:1052C000B7FD0121BDE810400846FCF7DDBD10BD6B
:1052D00018000020007000400A498B6800229842A4
:1052E00004D94B7813B14A708B68C01A8B68984206
:1052F00002D9322801D28A70704701228A708968E7
:10530000401A70471800002010B586B004460022ED
:10531000114802A9FDF7B6FC00220F480DF1020169
:10532000FDF78EFC0D499DF80530CA88ADF80020C8
:10533000632B03D0087840B11BB106E00120087050
:1053400003E0002008706432CA80142269462046B7
:10535000FAF7ECFE06B010BD000200201800002095
:1053600010B50020FFF704FF04460548FFF700FFD3
:10537000844202D2C043204410BD201A10BD000058
:105380002002002070B51F4E86B03079002837D13A
:105390000125A80590FAA0F01B49B0FA80F001EBB6
:1053A0008000C0F880561A4818490024C0E900144B
:1053B00003218160C0E9031444618461FDF786FC28
:1053C0008DF8035006208DF805408DF802008DF809
:1053D000045000220E480DF10201FDF787FD0294F2
:1053E000039400220A4802A90494FDF7E3FD002279
:1053F00004212920FCF7EAFC2920FCF7DCFC3571AC
:1054000006B070BD18000020000047420028004090
:10541000000200200C484168C943C9070ED00B495F
:10542000012048700A480168C1F38101012903D0B5
:10543000006810F00C0F06D1FBF766BE016841F062
:1054400004010160EEE77047007000401800002082
:1054500008380240AFF3008030B505464FF4807441
:1054600099B021462048FDF75BFB1F48FDF7EBFA9A
:1054700014A8FFF749FF142214A908A8FAF756FE4A
:105480001948142208A92030FAF750FE0AAB93E815
:1054900007008DE80700DDE90823294614A8FFF777
:1054A0002DFD142214A903A8FAF740FE0020119044
:1054B00010908DF837009DF816008DF836009DF895
:1054C00015008DF835009DF8140013948DF8340004
:1054D0009DF810008DF8480000220DA90248FDF744
:1054E00045FC19B030BD00000002002070B5092055
:1054F00000F015FD0546062000F011FD040407200C
:1055000000F00DFD44EA0024082000F008FD2043CF
:10551000FBF7B3F80022184BFAF7A6FFFBF706F9E2
:1055200004460021092001F037FB3B2000F0F7FC86
:1055300040F040013B2001F02FFB3B2000F0EFFC4E
:105540008006FAD40D4800F0DFFD3B2000F0E7FCB8
:1055500040F040013B2001F01FFB3B2000F0DFFC4E
:105560008006FAD42946092001F016FB2046BDE842
:10557000704000F0C9BD000080844E4000A1BC33E3
:105580002DE9F0410B4D0F4606464FF480540022A2
:1055900021462846FCF7ABFB3046FBF72FFD38468B
:1055A000FBF752FD21462846BDE8F0410122FCF7F9
:1055B0009EBB00000000024038B500F02DF81348F3
:1055C000016841F4805101600068124C00F4805081
:1055D00000900F4820604FF4827060600020A0604F
:1055E000E0604FF400712061C4E90501E0612062D0
:1055F0006062A0620A20E0622046FDF77EFD20681E
:10560000016841F04001016038BD000020380240CF
:10561000003001404C050020F0B51F4887B00168FC
:1056200041F001010160016801F00101059101688B
:1056300041F0020101600068012400F002000590C1
:105640004FF48556CDE90064144F0325694638466A
:10565000CDE90245FCF780FA012231463846FCF7D5
:1056600046FB402000900020CDE9020501906946EC
:105670003846FCF771FAAE02CDE90064CDE9024587
:10568000074C69462046FCF767FA0122314620465E
:10569000FCF72DFB07B0F0BD1C38024000000240B3
:1056A0000004024010B5002303E010C841F8234075
:1056B0005B1C9342F9D310BDF0B585B016460F467A
:1056C0000546FCF709FA0020CDE900050121029109
:1056D000049004A96846FCF797F9002408E000BF8D
:1056E00057F8242029460220FCF7D8F9641C2D1D08
:1056F000B442F5D3FCF7C8F905B0F0BD1CB50024E1
:10570000012300941A46172106480194FBF7C2FFB3
:105710000448012300941A4616210C300194FBF72B
:10572000B9FF1CBD340200201CB5012400940023E5
:105730002246172107480194FBF7ACFF0020CDE972
:10574000004003460348012216210C30FBF7A2FF5C
:105750001CBD00003402002001207047034988422C
:1057600001D28020704700207047000040DD4A1FB2
:10577000014890F8AC007047540D00202DE9F34F1C
:105780000200724981B04FF000000CD0012A7DD197
:105790000024D1F8EC002546072854D0082855D01D
:1057A000092858D155E08A46D1F8C400FAF765FFB8
:1057B00006460F460298FAF760FF80468946302079
:1057C00000F0ADFB30F0F9004FF0000401D0604D67
:1057D00000E00025272000F0A2FB20F0F800BAF836
:1057E000C810401C0844FAF748FF9AF8CA20012A5A
:1057F0004FF0000222D0564BFAF78FFD22462B467F
:10580000FAF78BFD42464B46FAF787FD9AF8CC2013
:10581000012A4FF0000213D05FF00003FAF77DFD7C
:105820000322FAF702FF32463B46FAF78FFE0022C8
:10583000484BFAF719FE02F0B7FF7FE00023DBE7E1
:105840004FF08043EAE70024434D04E00024434D39
:1058500001E0434D00243D4E012056F8F07FB84052
:10586000FAF7FAFE02460B4620462946FAF76EFE84
:1058700002460B4600203649FAF768FE04460D46FC
:10588000F088FAF7FAFE0022364B00E05BE0FAF708
:1058900044FD22462B46FAF7E7FD834600917079D6
:1058A000001DFAF7EAFE80463079894600B10220F1
:1058B000381A8000FAF7E1FE064602988A46C100CF
:1058C00022487A4201EB820190F8FA2090F8F80021
:1058D00001EB021100B11420081A1C30FAF7CDFEBA
:1058E00032465346FAF732FE02F0CEFA42464B46B3
:1058F000FAF7BAFD002207460E461346FAF748FFAC
:1059000002D23846314601E0002001460022164B03
:10591000FAF703FD22462B46FAF7A6FD02460B4690
:1059200058460099FAF7F9FC00220A4BFAF79CFD59
:105930000E4A0F4BFAF7F1FC02F014FB03B0BDE87E
:10594000F04FFAF7F3BEBDE8FE8F0000540D0020C3
:105950000000F03F00408F408084FE4080840E4174
:1059600080841E4100001140000020402B8716D982
:10597000CEF7EF3F70B5184908601849184801F094
:105980002FFC17481549143001F02AFC144813491C
:10599000283001F025FCFFF7A9FD002000F02CFCC9
:1059A0000D48001D00F062F80E4D002404EB440683
:1059B000A85D00F0E5FB70198178407801F0ECF803
:1059C000641CE4B2102CF1D3002000F0D9FB06498E
:1059D000002081F8AC0070BD64000020015E00086A
:1059E000640E0020F08E0008540D00201CB501202C
:1059F0000024CDE90040024623461C210A48FBF75B
:105A000049FE0948002300941A4610219438019455
:105A1000FBF740FE0448002300941A460F21883803
:105A20000194FBF737FE1CBDF40D00207CB501246A
:105A30000094002322461C210B480194FBF72AFE08
:105A4000002509482B462A4610219438CDE9004507
:105A5000FBF720FE044800231A460F218838CDE9C1
:105A60000045FBF717FE7CBDF40D002010B5044681
:105A70000368032201210648FBF730FF04486368EE
:105A800003220121BDE810400C30FBF727BF0000C6
:105A9000600D002070B514460E46054600F070FB00
:105AA000304600F031FB052000F0A6FB0120FBF79B
:105AB00086FC284600F066FA054600F083FEA54203
:105AC00001DD002070BD012070BD0000F8B500258B
:105AD0008DF800508E4C8F4E94F8AC0001280AD0FF
