:020000040000FA
:060000000212350207B9EF
:03002B000227BAEF
:0300430002108622
:03004B00020EA8FA
:0300530002070C95
:03005B00020EB7DB
:03006300020EC3C7
:10008300020755010101010503010F10FEFF0300E3
:100093000300030003000300030003000300030045
:1000A30005000A00140028004F009E000000831A78
:1000B300831A831A831A39193319831AD02A000031
:1000C30000000C2A000000000C0000000C00010AD4
:1000D300D007F40101F104FF010100341100000015
:1000E3008F11E80364006400B801020200001000ED
:1000F300050207011E02051E020A03B80B02803E19
:100103000103320002017913010A01E0020206F33E
:1001130004353F000080BF1872313F2292D43EDD88
:100123009B2A3F04000040D85BDE3E30313233343B
:10013300353637383941424344454600286E756C9D
:100143006C20706F696E74657229003F3F3F000039
:1001530000807FF9021550B743BA5100E7DB2E1038
:100163000000000800000012127260461212636061
:100173003DE9687008F618F618F618F622748067D9
:10018300F712019E090909748067F722121263604E
:100193001D1212727005191919801A12111D701F80
:1001A3001210DEC37003E6673319191940071818D4
:1001B300182208080874FFF618F618F618F6221223
:1001C30010DE60171212D7702192F01212CD70193F
:1001D300501720F014080808090909E7F61819E769
:1001E300F61819E7F61819E7F6221212CD60E6E8B9
:1001F30069701F0808E62480F608E436F618547F71
:10020300B47F0CE654806007F6E418F618F622185B
:100213001822E9C6CC08C6CD08C6CE08C6CFC0E0B2
:10022300E8C0E0EAC0E0EBC0E009E9F809E7FA0951
:10023300E7FBE6F918E6F8C3EC98ED99EE9AEBC202
:10024300E7F5F0EFC2E795F0500E600CEBCFFBEA59
:10025300CEFAE9CDF9E8CCF8EAA2E7D2E7FAEB3334
:10026300FB13F5F0EEA2E7D2E7FEEF33FFC5F01381
:10027300A2E730E601B313C5F0C3C0E0C0F07F00CE
:10028300C39BFB605B9418600C401AD0E023F9D049
:10029300E0F802036D8AF0E9486003D2F0E4AFF0BE
:1002A300FAF9F8803BEB30E40D89F0EA6003D2F011
:1002B300E4AFF0F9CAF8EB30E30D88F0EF6002D257
:1002C300F0AFF0E4CAC9F8EB54076014FBC3EA13B8
:1002D300FAE913F9E813F8EF135002D2E0FFDBED6C
:1002E300D0E0C0E030E739C3E49FFFF5F0EC98FCC1
:1002F30042F0ED99FD42F0EE9AFE42F0D0E0F9D0E3
:10030300E0F8E5F0607AE923F9EE20E742D80280CD
:1003130067C3EF33FFEC33FCED33FDEE33FE80EACE
:10032300EC28FCED39FDEE3AFED0E023F9D0E0F8FD
:100333004002801BC3EE13FEED13FDEC13FCEF1321
:100343005002D2E0FF08B800067F7F74FF802EEFD3
:100353003350178CF020F00260100CBC000C0DBD64
:1003630000080EBE000408E860DFE933E813FFEE7F
:100373002313FE4F4D4C8008E95480FFE4FEFDFC3F
:10038300EE33EF33F47004FCFD7E80D0E0FBD0E06D
:10039300FAD0E0F8D0E0CFC618CEC618CDC618CC38
:1003A300C6F92212126370041818182212127270FE
:1003B3000D74FFF61819F61819F61819F622E754F2
:1003C3008066F61212CD700F1212D770F014F60871
:1003D300F608F608F680D11212D7700CF608F60864
:1003E300768008E6447F80EC1210E1700C12112035
:1003F30060BFE65480F6E480BB1211207005191922
:100403001980A5E869700C763F18768018F618F6FF
:10041300E8F922E6CDC0E018ECC0E0E633CD33CDF9
:10042300D313F6E719FCE7191933CC33C3947F4090
:100433000ECD9D502408E65480F6E418F6800FF4A0
:10044300043D14501408E6447FF6187680E418F649
:1004530018F6D0E0FCD0E0FD22CCD313CCFD18E499
:10046300C6CBC0E018E4C6CAC0E00808ED08C6332E
:10047300E613F618E433C675F003C3CA97CA09CB6B
:1004830097CB199C40047D08802EBD000302054FC5
:1004930016B6FF050606081618C3CA33CACB33CBF4
:1004A30033CA27CA09CB37CB193CC37D08803E1812
:1004B3007D0820E75CC633C6CA33CACB33CB33DDF2
:1004C300F1D5F0EB30E77BCA97CA09CB974ACB1932
:1004D3009C406F4B7025E620E0218066187D08C3A1
:1004E300CA97CA09CB97CB199CD3C633C6CA33CA9A
:1004F300CB33CB3350C9DDE7D5F0E1D3E4C636C601
:1005030008C636C608C636C608C636C618181880C2
:1005130031C3CA97CA09CB97CB199CB34097C6334B
:10052300C6CA33CACB33CB33DD34D5F02EC6A2E0F3
:10053300C640C8CA27CA09CB37194A70BECB3CB4D8
:1005430080B90808E63308E633601F181818D0E0AE
:10055300FAD0E0FBD0E0FCD0E0FD22187D08CA27EA
:10056300CA09CB37CB193CD3808013F618E4B67F86
:1005730011F618B6FF0EF618C60470D20808768076
:1005830080CAF618F618F680C500121263604F127F
:1005930012726012E7548066F612111D7011121266
:1005A300D7703B090909F4F618F618F618F6221263
:1005B30010DE70151212CD08080860EAE6447FF6D3
:1005C30018768018E4F618F6221212CD601612126D
:1005D300D77012E4F608F608F608E65480F609091F
:1005E3000918181822EAC0E0EBC0E0ECC0E0EDC047
:1005F300E0E687F0A4FBACF008E687F0A42CFCE46B
:1006030035F0FA1809E687F0A42C4B60027401CA8E
:1006130035F0FCE433FB09E687F0D2F7A42CCB35A5
:10062300F0FC1908E687F0A42BCC35F0FBE433FD8E
:100633000819E687F0D2E7A42C4ACB35F0CD340075
:10064300FC09E687F0D2E7A42DCC35F0FDE433FABC
:100653000918E687F0D2F7A42CCD35F0CA3400FC94
:1006630008E687F0D2E7D2F7A42ACC35F07A7E20C9
:10067300E70B0ACB33CBCD33CDCC33CC33CB335099
:10068300147004ED30E00ED2F1E4CD3DCDCC3CCC82
:100693003B5005DA05C2F1EB547FC63308E63392CB
:1006A300F0FBE73309E733C39A502D2B70190C0D78
:1006B3004C4D70151806E608C333700D20F10AA2DD
:1006C300F013F6E418800B4024E4F630F002768051
:1006D30018F618F618F68024D33B14501074FFA2B2
:1006E300F013F6187680E418F618F6800FA2F013CC
:1006F300F618E63303F618ECF618EDF6D0E0FDD065
:10070300E0FCD0E0FBD0E0FA22C0E074F2120AD29F
:10071300E5A7F8E5A1F9585410600812220F53A178
:10072300EF802AE8A2E0C0D0E9A2E092F012119390
:10073300158182F05017906198E0F8901697E0C306
:1007430098A2D265D0335002E8F053A1FE7F010294
:100753000B89C0E074F2120AD29061A4E0F8759B91
:1007630000E59158540860087591F7122251802AC8
:10077300E59158541060087591EF122257801BE8D9
:10078300A2E0C0D0E591A2E092F01211931581820C
:10079300F05007E0C2E0F01223779061A3E0F8E5A0
:1007A300E9585404600E12234D75E9FB906193E000
:1007B300A2E640F28097C0E074F2120AD29061A5DB
:1007C300E0F8E5BF585404600653BFFB12238F02C1
:1007D3000750C3E498F8E499F91208168026C3E495
:1007E3009AFAE49BFBE920E7E9120816E498F8E497
:1007F30099F922C3E498F8E499F9120816E498F8F1
:10080300E499F9C3E49AFAE49BFB22EB20E7CFE9EE
:1008130020E7E0B90010BB0008E88AF084F8AAF0EA
:1008230022E4FBC8FA22EB70227B10C833C8C93319
:10083300C9335007C39AC3DBF280069A50012ADBFF
:10084300EAC833F4C8C933F4C9FA2275F008E4C816
:1008530033C8C933C933C99AC99B5004C92AC93B90
:10086300D5F0ECFBC833F4C8E4C9FA221208AF2070
:10087300F01430E72B74FFFCFBFA747F8022E4FC56
:10088300FBFA7480801AB48008BC00F2BB00EF80CE
:100893000F50EBF9E4C39AFAE49BFBE49CFCE49964
:1008A300C6CC18C6CB18C6CA18C6F922E4C9C608EE
:1008B300CAC608CBC6D3330308CCC63392F0C3945D
:1008C3007F402E94184019C9B90704CACBCC2250D3
:1008D30025C309CA33CACB33CBCC33CC33D9F422A7
:1008E300F4600DC9CCC313CB13CBCA13CAD9F6CC4E
:1008F30022E4FCFBFA2214FCFBFA22080808EAC0F3
:10090300E0EBC0E086F0E7A4FA180986F0E7A42A32
:10091300FA180986F0E7A42AFA180986F0E7A42A48
:10092300FA1986F0E7A4FBE5F02AFA190886F0E73E
:10093300A42BFBE5F03AFA190886F0E7A42BFBE5B4
:10094300F03AFA18180986F0E7A4C5F02BFBE43A4D
:10095300FA1908E7C5F0C6A426F6E5F03BFBE43A2E
:10096300FA1886F0E7A4F6E5F00826F6E43B08F665
:10097300E43A08F6D0E0FBD0E0FA22080808E630B3
:10098300E711121146120996080808C64480C618D2
:10099300181822181818E9799EC608CAC608CBC6C3
:1009A30008CCC6C370207996CACBCC7019798ECB8C
:1009B300CC70137986CC700EF9802ACA33CACB3334
:1009C300CBCC33CC331930E7F2CCCBCA33501470D1
:1009D30004EA30E00DE4CA3ACACB3BCBCC3CCC5062
:1009E3000209C3E913C6CC182313C6CB18C6CA1809
:1009F300C6F922E4CFC0E0E4CEC0E0E4CDC0E0E439
:100A0300CCC0E075F020C3E633F608E633F608E61B
:100A130033F608E633F6181818EC33FCED33FDEE25
:100A230033FEEF33FFC3EC9709ED9709EE9709EF18
:100A330097191919400FFFEC97FC09ED97FD09EE83
:100A430097FE191906D5F0BEECF709EDF709EEF795
:100A530009EFF7191919D0E0FCD0E0FDD0E0FED082
:100A6300E0FF222518C582C0E0E51934FFC583C025
:100A7300E0E518C3958224F810AF088583198582B1
:100A8300188008858319858218D2AFCEF0A3E5209C
:100A9300F0A37808E608F0A3DEFAEFF0A3E58124DB
:100AA300FAF8E608F0A3E608F0A3E608F0A30808BE
:100AB300E608F0A3E608F0A315811581D0E0FED087
:100AC300E0F8158115811581E8C0E0EEC0E022C091
:100AD300D02518C582C0E0E51934FFC583C0E0E521
:100AE30018C3958224F310AF088583198582188073
:100AF30008858319858218D2AFC8F0A3E9F0A3EA69
:100B0300F0A3EBF0A37908E709F0A3D8FAECF0A37C
:100B1300EDF0A3EEF0A3EFF0A3D0E0F0A3D0E0F06C
:100B2300A3D0E0F0A3E520F0A3E5F0F0A322121296
:100B3300C2B90003020B73E490030178CC791A80E5
:100B430002F0A3D8FCD9FA901CCCAA82AB83900004
:100B53008678E579018015E493A3AC82AD838A821C
:100B63008B83F0A3AA82AB838C828D83D8E9D9E7E8
:100B730075823A7583D27403120F957582B57583A6
:100B8300277400120F95851983851882E0C0E0A3AE
:100B9300E0F9A3E0FAA3E0FBA37808E0F608A3DFFB
:100BA300FAE0FCA3E0FDA3E0FEA3E0FFA3E0C0E0C6
:100BB300A3E0C0E0A3E0F5D0A3E0F520A3E0A3F514
:100BC300F010AF08858319858218800885831985FD
:100BD3008218D2AFD082D083D0E0F8D0E0321212A4
:100BE30063601C12127260171212CD70071212D7B3
:100BF3007001D322C0D01212D77006D0D0B322C353
:100C03002233D0D0501430E0F6C3E7960809E796B4
:100C13000809E7960809E796B32220E0D5E6970886
:100C230009E6970809E6970809E697B322D083D027
:100C330082ECC0E0EDC0E0E493A3FCE493A3FDEDFC
:100C43004C600D120D54EC24FFFCED34FFFD80EFDE
:100C5300E493A3FCE493A3FDED4C600D120E53EC5F
:100C630024FFFCED34FFFD80EFD0E0FDD0E0FCE499
:100C730093A3C0E0E493C0E022121263601B12123C
:100C83007260161212CD70071212D7600CB322C015
:100C9300D01212D77005D0D022C32233D0D0501334
:100CA30030E0EBC3E7960809E7960809E7960809D9
:100CB300E7962220E0E4E6970809E6970809E69715
:100CC3000809E69722D083D082E9C0E0E493A3C366
:100CD30086F0C5F095F0F908E493A386F0C5F09586
:100CE300F0700BE493A3C3994005E9048002A3E4E5
:100CF30075F002A42582F582E5F03583F583D0E013
:100D0300F9E493A3C0E0E493C0E022851983851836
:100D130082E0A3FEE0A3F5207808E0A3F608DFFA5B
:100D2300E0A3FFE0A3C0E0E0A3C0E0E0A3C0E0E0F5
:100D3300A3C0E0E0A3C0E010AF0885821885831943
:100D43008008858218858319D2AFD083D082020FA1
:100D53009BC0E0C3E49396087401939618400FE494
:100D63009366700808740193661870007019A3A342
:100D7300C3E49396087401939618A3A3400DD0E09F
:100D8300D0E0D0E0020C6CA3A3A3A3A3A3D0E022E2
:100D9300D083D082C5F0E493A3C5F0C395F0F5F0FA
:100DA300E493A3C395F04005E5F0048001E475F0F6
:100DB30002A42582F582E5F03583F583E493A3C08D
:100DC300E0E493C0E0227404800474028000CCC089
:100DD300E0EDC0E0E518C39CCCAD1950011D10AF88
:100DE300068C188D1980068C188D19D2AF120F1727
:100DF300D0E0FDD0E0FC2274028000CCC0E0EDC066
:100E0300E0E518C39CCCAD1950011D10AF068C183A
:100E13008D1980068C188D19D2AF120EF5D0E0FD16
:100E2300D0E0FC22121263602512127260201212AB
:100E3300CD70030212D7080808E76670101819E787
:100E430066700A1819E76670041819E76622F42217
:100E5300C0E0C0F088F0E4936670080874019366FC
:100E6300187000A8F0A3A3700BD0F0D0E0D0E0D0AE
:100E7300E0020C6CA3A3D0F0D0E022D083D082CCCC
:100E8300C0E0E493A36006120F761470FAE493A310
:100E9300600612109D1470FAD0E0FCE493A3C0E046
:100EA300E493C0E022C0E074F2120AD212214F7F11
:100EB30001020B89C0E074F2120AD212215580EFAD
:100EC300C0E074F2120AD212215B80E3C008C3E0CF
:100ED30096F50808A3E096420808A3E0964208089E
:100EE300A3E0964208A2D265D033E5087001D3D0BF
:100EF3000822CAC0E0E493A3C582CCC582C583CDD2
:100F0300C583F0A3C582CCC582C583CDC583DAE58D
:100F1300D0E0CA22CAC0E0E0A3C582CCC582C583A3
:100F2300CDC583F0A3C582CCC582C583CDC583DA85
:100F3300E6D0E0CA22C008C3E096F50808A3E0960D
:100F4300420808A3E096420808A3E096450870010A
:100F5300D3D008227009080808226016181818C68A
:100F6300C333C608C633C608C633C608C633C6D598
:100F7300E0EA22C0E0E493A3D39C5010E493A3C31C
:100F83009C400AD0E0D0E0D0E0020E9BA3A3A3D004
:100F9300E022C09FF59FE473D09F22D083D082C00C
:100FA3009FE493C0E0740193C0E0740293F59F2221
:100FB300C5822518C582C583351910AF07F5198574
:100FC30082188007F519858218D2AFC583222518A8
:100FD300F58210AF08F518400215198008F518407E
:100FE300021519D2AF851983227404800A74038011
:100FF30006740280027401C0E0F404120FD1D0E041
:10100300121290226017080808C6A2E713C618C672
:1010130013C618C613C618C613C6D5E0E922C0D036
:10102300251810AF08F518500205198008F5185057
:10103300020519D2AFD0D022BB0102E722C082C081
:101043008389828A83BB0003E08002E493D083D048
:1010530082226016080808C6C313C618C613C6182A
:10106300C613C618C613C6D5E0EA22C3E0C696F671
:1010730008A3E0C696F608A3E0C696F608A3E0C662
:1010830096F622C0E074F2120AD2C2C0E5D1A2E4FD
:1010930050031221857F01020B89C0E0E493A36C06
:1010A3007009D0E0D0E0D0E0020E9BA3A3D0E022F1
:1010B300251810AF08F518400215198008F51840D7
:1010C300021519D2AF22C3E09608A3E09608A3E065
:1010D3009608A3E096A2D265D03322191919E7091D
:1010E3004709700AE709C3337005E733F42209227D
:1010F300C3E7960809E7960809E7960809E796A261
:10110300D265D03322E066701008A3E066700A0847
:10111300A3E066700408A3E06622181818E60846E0
:1011230008700AE608C3337005E633F4220822C3C5
:10113300E096F008A3E096F008A3E096F008A3E099
:1011430096F022181818E4C396F608E496F608E415
:1011530096F608E496F622E026F608A3E036F608AB
:10116300A3E036F608A3E036F622E026F008A3E073
:1011730036F008A3E036F008A3E036F022E627F6BF
:101183000809E637F60809E637F60809E637F622CE
:10119300C0E0E8C0E0E58124FCF8E6A2E7D0E0F88F
:1011A300D0E022E657F60809E657F60809E657F6AF
:1011B3000809E657F622E056F008A3E056F008A324
:1011C300E056F008A3E056F022700422600D18C622
:1011D300C333C608C633C6D5E0F41822E647F6087B
:1011E30009E647F60809E647F60809E647F622E066
:1011F30056F608A3E056F608A3E056F608A3E05611
:10120300F622C6F4C608C6F4C608C6F4C608C6F471
:10121300C622C3E09608A3E09608A3E09608A3E0DD
:101223009622C3E7960809E7960809E7960809E7AF
:10123300962275D000758140751801751903000257
:101243000B31600C08C6C313C618C613C6D5E0F429
:1012530022E6F008A3E6F008A3E6F008A3E6F022EE
:10126300E6084608C3134608336002E633F422E770
:10127300094709C3134709336002E733F422E0F651
:1012830008A3E0F608A3E0F608A3E0F622CAC0E04C
:10129300E6F0A308DAFAD0E0FA22C5822518C5825F
:1012A300C5833519C58322EAF0A3EBF0A3ECF0A3C1
:1012B300EDF022E0FAA3E0FBA3E0FCA3E0FD22E5CE
:1012C300C754F84401F5C7790122E6C33318461819
:1012D30046184622E7C333194719471947222518E9
:1012E300F582E43519F58322120F9EFA3600120FA8
:1012F3009E693700120F9E123800120F9E1A380093
:10130300120F9EBB3800120F9E1E3900120F9EF063
:101313003900120F9E673A00120F9EA43A00120F73
:101323009E0B3B00120F9E583C00120F9E743C0014
:10133300120F9ECD3C00120F9E6A3D00120F9EBA03
:101343003D00120F9E553E00120F9E023F00120FEA
:101353009E403F00120F9EB03F00120F9EFB3F00C6
:10136300120F9E344000120F9E624100120F9E9C8A
:101373004200120F9EFD4200120F9E464300120FC1
:101383009E6E4300120F9EF14300120F9E714400A4
:10139300120F9EE44400120F9E094500120F9E1A7D
:1013A3004500120F9E904500120F9E344600120F07
:1013B3009E764600120F9EFC4600120F9E234700A6
:1013C300120F9E4B4800120F9E5E4800120F9EB7ED
:1013D3004800120F9EF84800120F9E804A00120F19
:1013E3009E164C00120F9E454C00120F9ED84C00C7
:1013F300120F9E314D00120F9E1D4E00120F9E20A4
:101403005000120F9E2A5000120F9E345000120FEC
:101413009E3E5000120F9E485000120F9E625000D5
:10142300120F9E6C5000120F9E765000120F9E807A
:101433005000120F9EA15000120F9EEF5000120F8A
:101443009EF95000120F9E1D5100120F9E41510034
:10145300120F9EA05100120F9EEB5100120F9E0916
:101463005200120F9E795200120F9EB65200120FB5
:101473009EFD5200120F9E655300120F9ED753001C
:10148300120F9E0B5500120F9E2E5500120F9EF148
:101493005500120F9E175600120F9EF75600120F9B
:1014A3009E585900120F9EBF5A00120F9E825C0075
:1014B300120F9ED45C00120F9EB75D00120F9E04A4
:1014C3005E00120F9E6F5E00120F9E795E00120F78
:1014D3009E986000120F9EBD6000120F9E0E610069
:1014E300120F9E0F6200120F9E476200120F9E871B
:1014F3006200120F9EEA6200120F9E036400120F35
:101503009E636400120F9E496500120F9E4F670091
:10151300120F9E6B6700120F9E106900120F9E56EA
:101523006900120F9E346A00120F9E9E6A00120F0A
:101533009ECF6A00120F9E0B6B00120F9E996B00D9
:10154300120F9E9C6B00120F9E086C00120F9E944C
:101553008201120F9EE68201120F9E1D8501120F5A
:101563009E698501120F9E2B8601120F9EA2860192
:10157300120F9ECA8701120F9E078A01120F9E9EA9
:101583008A01120F9E3E9101120F9EC49101120F08
:101593009E419401120F9E259501120F9ECA95013B
:1015A300120F9EE39601120F9E149801120F9E07CD
:1015B3009901120F9E389C01120F9EFB9D01120F81
:1015C3009E5B9E01120F9E119F01120F9EBE9F01F3
:1015D300120F9EE99F01120F9E76A001120F9E63C8
:1015E300A101120F9E37A201120F9ED5A201120F65
:1015F3009E02A301120F9E24A301120F9E1DA5019B
:10160300120F9EF8A501120F9E45A601120F9EA66A
:10161300A601120F9E68A701120F9E9DA701120F2C
:101623009EEBA701120F9E1BA801120F9E59A80142
:10163300120F9EB1A801120F9EB6A801120F9E11A0
:10164300A901120F9E39A901120F9E58AA01120F68
:101653009EC4AA01120F9E2EAB01120F9EB7AB01BF
:10166300120F9ED6AD01120F9EB4AE01120F9E2330
:10167300B001120F9EB5B101120F9E45B201120FB8
:101683009E4CB301120F9ED5B301120F9E1CB401E1
:10169300120F9E93B501120F9EA7B501120F9EC1A3
:1016A300B501120F9EDCB501120F9EE8B501120FB2
:1016B3009E06B601120F9EBDB701120F9EF6B7012B
:1016C300120F9E03B801120F9E52B801120F9E45CE
:1016D300B901120F9E89B901120F9E0CBA01120FA4
:1016E3009E10BB01120F9ECCBB01120F9E47BD0182
:1016F300120F9E21BE01120F9EB8BE01120F9E4A09
:10170300BF01120F9E61BF01120F9E85BF01120F11
:101713009E8FBF01120F9E9BBF01120F9EB9BF0187
:10172300120F9EFDBF01120F9E4EC001120F9E6F3E
:10173300C001120F9EACC101120F9EF8C101120F1E
:101743009EEFC201120F9E17C301120F9E79C301B0
:10175300120F9EF2C301120F9E03C501120F9EAF1B
:10176300C501120F9E9CC601120F9E00C701120FE6
:101773009E97C701120F9E67C801120F9E96C8015C
:10178300120F9EF5C801120F9EA3C901120F9EC925
:10179300C901120F9E41CA01120F9E66CA01120FA0
:1017A3009E89CA01120F9EC4CA01120F9EA2CC01C8
:1017B300120F9E8FCD01120F9E47CE01120F9EDE98
:1017C300CF01120F9E32D001120F9E51D001120F82
:1017D3009EC0D001120F9E34D101120F9E8DD101F4
:1017E300120F9EB3D101120F9EEED101120F9E1A5A
:1017F300D201120F9E65D201120F9EBED201120FAB
:101803009E3AD301120F9E1ED401120F9E8BD40158
:10181300120F9EB4D401120F9E1AD501120F9E6FA0
:10182300D501120F9EA9D501120F9EFED501120FED
:101833009E23D601120F9E69D601120F9E86D601F2
:10184300120F9E30D701120F9E3FF803120F9E8A8C
:10185300F803120F9E6C8002120F9EA08002120FDB
:101863009E768102120F9E4A8202120F9E75830298
:10187300120F9EF98402120F9E778502120F9E3E6D
:101883008602120F9E5F8702120F9ED18702120FEC
:101893009E338802120F9E818802120F9E8B88024C
:1018A300120F9EC98802120F9E328902120F9ED117
:1018B3008902120F9E4F8A02120F9E048B02120F8F
:1018C3009E768B02120F9E9C8B02120F9ECC8B0274
:1018D300120F9EF98B02120F9E9F8C02120F9EAF66
:1018E3008C02120F9E028D02120F9E0E8D02120F9A
:1018F3009E1A8D02120F9E238D02120F9E848D025B
:10190300120F9EE48D02120F9E358E02120F9E500F
:101913008E02120F9E808E02120F9EA18E02120F54
:101923009EAD8E02120F9EEE8F02120F9E0C90023E
:10193300120F9E759002120F9E889002120F9E9FA7
:101943009002120F9E329102120F9E319202120FD9
:101953009E2D9302120F9EAF9302120F9EB9930214
:10196300120F9E1C9402120F9E2D9402120F9E7052
:101973009402120F9EB79402120F9EED9402120F5F
:101983009E239502120F9E419502120F9E659502AA
:10199300120F9EA69502120F9E999602120F9EDFBA
:1019A3009602120F9E1A9702120F9E799702120F38
:1019B3009EA19702120F9EDA9702120F9EE89702DA
:1019C300120F9E499802120F9E869802120F9EC80C
:1019D3009802120F9EF99802120F9E2D9902120F70
:1019E3009E389902120F9E569902120F9E1E9A025A
:1019F300120F9E289A02120F9E679A02120F9E7D63
:101A03009A02120F9EE79A02120F9EFB9A02120F7E
:101A13009EF39B02120F9E069C02120F9E1B9C02BA
:101A2300120F9EBB9C02120F9E1F9D02120F9EE27D
:101A33009D02120F9EED9D02120F9E0C9F02120F2C
:101A43009E289F02120F9E809F02120F9EB79F0235
:101A5300120F9ED19F02120F9E45A002120F9ED617
:101A6300A002120F9E1EA102120F9E39A302120F93
:101A73009EA3A302120F9E0EA402120F9E67A6023C
:101A8300120F9E77A602120F9E7AA602120F9E864F
:101A9300A602120F9E9AA602120F9EA2A602120F70
:101AA3009ED7A602120F9E85A702120F9EF5A702CC
:101AB300120F9E59A802120F9EF2A802120F9E8CBB
:101AC300A902120F9EBAA902120F9E4AAA02120F6E
:101AD3009E56AA02120F9E85AA02120F9EA7AA0261
:101AE300120F9ECEAA02120F9E34AB02120F9E9EBD
:101AF300AC02120F9EA1AC02120F9E18AD02120F80
:101B03009E04AE02120F9EDCAE02120F9E66AF025F
:101B1300120F9E9BB002120F9E4DB102120F9E86B2
:101B2300B102120F9EB7B102120F9EC0B102120F83
:101B33009EACB202120F9E28B302120F9EB8B302DC
:101B4300120F9E82B402120F9E06B502120F9E3C24
:101B5300B502120F9E85B502120F9EB38B03120FAF
:101B63009EC18B03120F9E2A8C03120F9E628C035D
:101B7300120F9EB58C03120F9E518E03120F9E31CE
:101B83009003120F9E109303120F9E3C9303120FA8
:101B93009E5C9303120F9EBA9303120F9EF093035E
:101BA300120F9E2B9403120F9E699403120F9EAF84
:101BB3009403120F9EE4B703120F9E0BB803120F88
:101BC3009E1CB803120F9E2DB803120F9E86B803F6
:101BD300120F9EDDB803120F9E39B903120F9E80B8
:101BE300B903120F9E6FBB03120F9ED2DE03120FB7
:101BF3009EFEDE03120F9E3BDF03120F9E44DF03A4
:101C0300120F9E6ADF03120F9EB5DF03120F9E0AA7
:101C1300E003120F9E4AF603120F9E94B303120FB2
:101C23009E5CB403120F9E5FB403120F9E96B4031F
:101C3300120F9EF7B403120F9E1FB503120F9E22BD
:101C4300B503120F9E25B503120F9EEDB503120FB8
:101C53009E89B703120F9EAAE803120F9EC5E803DD
:101C6300120F9E16E903120F9E5BE903120F9E05E6
:101C7300EA03120F9E643100120F9E6CE503120FEC
:101C83009EE5F703120F9EC3E503120F9EDCE503E7
:101C9300120F9E14E603120F9EC1E603120F9EE974
:101CA300E603120F9EF57C00120F9E6D7D00120F4E
:101CB3009E787D00120F9E997D00120F9EED940376
:101CC300120F9E359503120F9EA39503120F9EC606
:101CD3009503120F9E669603120F9E6F9603120FC3
:101CE3009EBC9603120F9EE59603120F9E45970323
:101CF300120F9E763600120F9E0F9803120F9E5CF2
:101D03009803120F9EB69803120F9EE49803120FC6
:101D13009E6C9903120F9EB19903120F9EF09903C3
:101D2300120F9E259A03120F9E379A03120F9E4994
:101D33009A03120F9E689A03120F9E319B03120F90
:101D43009EE4EF03120F9E04DB03120F9E68DB0376
:101D5300120F9E8CDB03120F9E85DC03120F9E5B1A
:101D63006C00120F9E3A6D00120F9E766D00120FDB
:101D73009E136F00120F9E556F00120F9E09710084
:101D8300120F9E4D7100120F9E2E7200120F9EBBFA
:101D93007200120F9E467300120F9E9C7300120F67
:101DA3009EDC7300120F9E7E7500120F9E07770054
:101DB300120F9E1E7900120F9E2C7900120F9E9116
:101DC3007900120F9EDB7900120F9EB47C00120F74
:101DD3009E01F903120F9E17F903120F9E83C60388
:101DE300120F9E96C603120F9E34C703120F9E6FE7
:101DF300C703120F9E8AC703120F9EAFC703120FAA
:101E03009EF4C703120F9E25C803120F9E56C803E4
:101E1300120F9ECDC903120F9EBCF203120F9E2810
:101E2300F303120F9E6AF303120F9E7AF303120F4A
:101E33009E84F303120F9E44FF01120F9EC4FF0101
:101E4300120F9EC6EE02120F9E0EEF02120F9E0994
:101E5300F002120F9E93F002120F9EDDF002120F9A
:101E63009E2CF102120F9E10F302120F9E2EF4020B
:101E7300120F9E69F402120F9E64F602120F9E7FE8
:101E8300F602120F9EC0F602120F9EFCF602120F0C
:101E93009E55F702120F9E6EF702120F9E8BF702EA
:101EA300120F9EEEF702120F9E7FF902120F9EA1F0
:101EB300F902120F9ED6F902120F9EFEF902120FBB
:101EC3009E0BFA02120F9E10FA02120F9E7AFA026A
:101ED300120F9E35FB02120F9E69FB02120F9E73B7
:101EE300FB02120F9E76FB02120F9EEAFB02120FF9
:101EF3009E05FC02120F9E6BFC02120F9EA6FC02B3
:101F0300120F9EA9FC02120F9ED0F103120F9EE145
:101F1300F103120F9E69F203120F9ECBB502120F4B
:101F23009EF9B502120F9E44B702120F9ED2B7025A
:101F3300120F9E4EB802120F9EB1B802120F9EF3FB
:101F4300B802120F9E6CB902120F9E10BA02120F42
:101F53009E87BA02120F9EC9BA02120F9E76BE0264
:101F6300120F9E43C002120F9EF3C002120F9E3A3D
:101F7300C102120F9E1FC302120F9E8BC502120FC6
:101F83009E05C602120F9EFBC602120F9E64CA0272
:101F9300120F9E74CA02120F9ED4CB02120F9E4FD1
:101FA300CC02120F9E69CD02120F9ED4CE02120FE5
:101FB3009EEDDF02120F9EACE002120F9E23E102A0
:101FC300120F9EA8E102120F9EFFE102120F9EFF65
:101FD300E202120F9E5CE302120F9E61E602120FF1
:101FE3009E1BE702120F9E80E702120F9E27E90253
:101FF300120F9EDBE902120F9E46EA02120F9EF7B2
:10200300EB02120F9E90EC02120F9E86ED02120F4E
:102013009EF7FF01120F9EF9FF01120F9EF3DC03DF
:10202300120F9E42DD03120F9EFBDD03120F9E6112
:10203300DE03120F9EC5D203120F9E1ED303120F8F
:102043009EC0FC02120F9EECFC02120F9E22FD02A8
:10205300120F9E81FD02120F9EBDFD02120F9ED232
:10206300FD02120F9EE8FD02120F9E1CFE02120FCC
:102073009E3AE703120F9E46E703120F9EA9E7035A
:10208300120F9EB5E703120F9EC1E703120F9E11B5
:10209300E803120F9E57E803120F9E3CF403120F3E
:1020A3009E88F403120F9E7AE203120F9E88E203C6
:1020B300120F9E3FF903120F9E5BF503120F9E6BE7
:1020C300F503120F9E83F503120F9ECBF503120F38
:1020D3009EC6ED03120F9EEDED03120F9E72EE03EB
:1020E300120F9ECBEE03120F9EDD9E03120F9E0C6A
:1020F300D903120F9E25D903120F9E3ED903120F47
:102103009E51D903120F9E88D903120F9EB1D90392
:10211300120F9E18DA03120F9ED3DA03120F9EFDDD
:102123007F00120F9EDAC903120F9EE8C903120F34
:102133009E62CA03120F9E2ECB03120F9EDACC03AC
:10214300120F9E1AEA03120F9E53EA03120F9E7098
:10215300EA03120F9ECEEA03120F9E33EB03120F14
:102163009E92A403120F9EFEA403120F9EB7A50313
:10217300120F9E34A603120F9E54A703120F9EE361
:10218300A803120F9E4DA903120F9EA6A903120FB7
:102193009EB2A903120F9EC1A903120F9ED4A903D5
:1021A300120F9EEAA903120F9EF3A903120F9EE4D6
:1021B300AE03120F9E37AF03120F9E3FB103120FF0
:1021C3009E71B103120F9E93B103120F9EACB10324
:1021D300120F9EC5B103120F9EC7B203120F9E5575
:1021E300B303120F9EABE003120F9EDDE003120F49
:1021F3009EE9E003120F9E1CE103120F9E4DE103C3
:10220300120F9E7BE103120F9EF0E103120F9E1F3C
:10221300E203120F9E29CD03120F9E4FCD03120F1F
:102223009E8CCD03120F9E9ECD03120F9EBACD033B
:10223300120F9E28CE03120F9E31CE03120F9E90D3
:10224300CE03120F9EB4CE03120F9E73CF03120F51
:102253009E80CF03120F9E91CF03120F9EBBF603F6
:10226300120F9E08F703120F9E5BC303120F9EA368
:10227300C403120F9EB0C403120F9EC3C403120FF4
:102283009EE2C403120F9EF8C403120F9E0CC503F3
:10229300120F9E86C503120F9E1CC603120F9E6467
:1022A300C603120F9E74C603120F9EA3F303120FED
:1022B3009EC7F303120F9EEFF303120F9E17F4034F
:1022C300120F9E9DD403120F9EB6D403120F9EC20B
:1022D300D403120F9ED6D403120F9EF4D403120F0D
:1022E3009EFED403120F9E08D503120F9E1BD50327
:1022F300120F9E6FD503120F9EA8D503120F9ED700
:10230300D503120F9E25D603120F9E74D603120F08
:102313009E8FD603120F9E99D603120F9EAAD60341
:10232300120F9EF0D603120F9EB57F00120F9E056B
:10233300F701120F9E31F701120F9E4DF701120F95
:102343009E60F701120F9E76F701120F9EE2F701CE
:10235300120F9E15F801120F9E72FB01120F9E9D24
:10236300FC01120F9ED0FC01120F9E35FD01120FCE
:102373009E1DFE01120F9E45FE01120F9E5AFE0185
:10238300120F9E6AFE01120F9EAEFE01120F9E03F4
:10239300FF01120F9E13FF01120F9E72EB03120F28
:1023A3009E8DEB03120F9EB6EB03120F9ED0EB0331
:1023B300120F9EF5EB03120F9E14EC03120F9E2CCB
:1023C300EC03120F9E5AEC03120F9E74EC03120FD0
:1023D3009E94F803120F9E5A9B03120F9E619B0358
:1023E300120F9E6D9C03120F9E9D9C03120F9EC3A2
:1023F3009C03120F9EF69C03120F9E089D03120F5F
:102403009E429D03120F9EA89D03120F9EE19D0302
:10241300120F9E2D9E03120F9E5A9E03120F9E7A39
:102423009E03120F9EA5EC03120F9EC7EC03120F1F
:102433009EC3ED03120F9EE4EE03120F9E43EF03C0
:10244300120F9E81EF03120F9EC2EF03120F9E0025
:102453008003120F9E0A8003120F9E4C8003120FFB
:102463009E3A8203120F9E208303120F9E648303FE
:10247300120F9E978303120F9E218403120F9E95C2
:102483008603120F9E958903120F9E808A03120FF3
:102493009EFC8A03120F9E398B03120F9E7A8B03C5
:1024A300120F9E8E8B03120F9EE2F003120F9EBF3C
:1024B300CF03120F9EEDCF03120F9EBDD103120F58
:1024C3009E009F03120F9E369F03120F9E539F037E
:1024D300120F9E6C9F03120F9E7F9F03120F9ECEBF
:1024E3009F03120F9E4EA003120F9E93A003120F81
:1024F3009EBFA003120F9ECEA003120F9E5FA103E7
:10250300120F9EA8A203120F9E58A303120F9E063A
:10251300AA03120F9E5FAA03120F9EE8AA03120FCB
:102523009E2DAB03120F9E1DAC03120F9EA4AD0391
:10253300120F9EC8AD03120F9EE1AD03120F9EEB67
:10254300AD03120F9E01AE03120F9E20AE03120FB6
:102553009EA6AE03120F9EC5BB03120F9EE4BB03E0
:10256300120F9E2FBC03120F9E4BBC03120F9E7CB7
:10257300BC03120F9E93BC03120F9EA0BC03120F49
:102583009EBDBC03120F9EA0BD03120F9ED7BD03B9
:10259300120F9EE1BD03120F9EE8BE03120F9EF3BE
:1025A300BE03120F9E05BF03120F9E0EBF03120F31
:1025B3009E18BF03120F9E7FBF03120F9EF9C20323
:1025C300120F9E27F703120F9EFBD603120F9ED402
:1025D300F503120F9ED4F803120F9E88F703120F10
:1025E3009E99F703120F9E21F903120F9ECDF40358
:1025F300120F9EF7F403120F9E9ECF02120F9EBC82
:10260300D402120F9E6C3600120F9E8A3000120FF6
:102613009E3E3000120F9E1D3000120F9EE02F00D1
:10262300120F9EA52F00120F9E812F00120F9E6680
:102633002F00120F9EF62E00120F9E242E00120F53
:102643009E892D00120F9E5A3600120F9E323600BD
:10265300120F9E182D00120F9EF92C00120F9E0FC1
:102663003600120F9E9B3500120F9EE72C00120FAF
:102673009EDAF601120F9EBCF601120F9EE8F501D9
:10268300120F9E4CF501120F9ED8F301120F9E8478
:10269300F101120F9E1FF101120F9ED8ED01120FCF
:1026A3009EB0ED01120F9E55ED01120F9E32ED010A
:1026B300120F9E8CEC01120F9E34EC01120F9E91AF
:1026C300EA01120F9E8EEA01120F9E9DE901120F7D
:1026D3009E7DE901120F9ECDE801120F9E4FE70187
:1026E300120F9E16E701120F9EE7E601120F9E746A
:1026F3003400120F9E4F3400120F9EFD3300120F51
:102703009ED83300120F9E953300120F9EE4E6010C
:10271300120F9ED6E601120F9EC2E601120F9EA56E
:102723003200120F9EB5E601120F9EDDE501120F76
:102733009E69E501120F9E2FE501120F9ED7E4015A
:10274300120F9EDB9703120F9E153200120F9E6A23
:10275300D701120F9EA6E401120F9ED8E101120FBA
:102763009E96E101120F9E8AE101120F9EFDE00188
:10277300120F9E4BE001120F9EEADD01120F9E54D1
:10278300DB01120F9E1EDB01120F9EBCD901120F3B
:102793009E6BD901120F9EA4D801120F9E77D80108
:1027A300120F9ED1D701120F9EA4D701120F9E279D
:1027B300E40300000080FBC2C732000022E47387F9
:1027C300000100511D240002002B1D250002002DD5
:1027D3001D260002002F1D27000200311D280001C5
:1027E30000331D29000100341D84000400351D86BB
:1027F300000100391D2A0001003A1D2B0001003B96
:102803001D2C0001003D1D2D000800E4112E0001C8
:10281300003E1D2F0001003F1D30000100401D310F
:10282300000100411D32000100EC1133000100EDF5
:102833001134000100421D36000100EE1183000235
:10284300004F1D62001000F71163000100071264BE
:10285300000100E111650001003C1D6D0001004E07
:102863001D6E000200E21143000100431D440002FB
:1028730000441D45000100461D46000200471D4758
:10288300000800EF1148000100491D490001004AFA
:102893001D4A0002004B1D4B0001004D1D040001A9
:1028A30000521DA1000100541D37000100531D00FB
:1028B30000000000000001363601010001020100A2
:1028C30001030100010401060605020000070100DF
:1028D300340801000F090401010D0100FF0E080077
:1028E3000017020000190100FF1A0100011B01007B
:1028F300FE1C0100081D0200001F01000120010051
:1029030001210200002301000F2402000026010020
:102913000127010008280200FF2A0100072B0102FA
:10292300402C0100002D0100012E0100012F0100A8
:10293300FF30010B1C310800003A0100083B010085
:102943000F2F0100000302710230016002110270B7
:10295300020102020202028002100261023A0041F5
:10296300006302730272026202430200021302381E
:102973000000020002040212020002000200020030
:102983000204020402370037003C02440200023909
:102993000000020002650200023502810200020506
:1029A300028202830200020101710101010101118E
:1029B3000101013101010101018001100161013BAC
:1029C30000140063017301720162014301000113EA
:1029D3000106013D0135000401120100010001005F
:1029E30001000104010401330133013C01440132BC
:1029F300013600000100016501000135008101007D
:102A03000105018201830100010103710301030137
:102A13000301030103010322030203010310030063
:102A23000300030003000300030003000342030049
:102A330003240306030003000304031203250323F3
:102A430003250323030403040300030003000344D7
:102A530003000300032303000365032100350381FF
:102A630003000305030003000300030304710402CE
:102A7300046004110470040204020401040204103B
:102A830004610400041404630473047204620443C1
:102A930004000413040604000400040404120400E4
:102AA3000400040004000451046400000400040052
:102AB3000444040004000400040004650400043515
:102AC300048104640005040004830400040300710A
:102AD30000300160001100700031022003500480B7
:102AE30000100061000000140063007300720062B4
:102AF3000043000000130006000000000004001261
:102B0300000000000000000000040004003700374C
:102B1300003C0244000000000000000000650000CB
:102B2300003500810000000500000083000000362E
:102B3300000100060000000F00000000000000007C
:102B4300000000000003FFFF00000403FFFF00007C
:102B5300FFFF0FF4010005C4040320000100000B74
:102B6300000000000000000003010F0000D51F1348
:102B7300006F1F0100D51F0200391F03003F1F0410
:102B830000451F05004B1F0600571FFFFF000001F4
:102B93008B1506C11508BB150BD315101315029120
:102BA3001505AF150797150C73150D7F15FF00005D
:102BB300030003000400080010001F003E007B0018
:102BC300F600EC01D703AF075D0FB91E713D00009E
:102BD30003EAF5E5D5D5C5B5A595958585757565DF
:102BE3006555554545353525251515059319C319DE
:102BF30099199F19BD19B119AB19C919CF19D5194C
:102C0300E119A5198D1987199C36063A703DD940EB
:102C13004344AD47174B814EEA5100160F00000B9A
:102C2300150B020002220F3200000600010203040A
:102C330005060708090A0B0C0D0E0F831A951A9B3C
:102C43001A5D19A11A57196319FB1A191B1F1B01C6
:102C53001B0D1B071B97189118CD18D318C7187F86
:102C6300180C0E020B040B0A0708000F0003494857
:102C7300424D1817250502000119161816161523BB
:102C83000300303017181921301B1D1F3000383C4A
:102C93003E363B3B352B432C303016181920231A74
:102CA3001C1E30B719DB19131BE719ED19EF1AA70F
:102CB3001AAD1AB91AB31AA318A9189D18D918006E
:102CC30005150D0910080400BE040AAF18C1180E3B
:102CD3000004001500010309280C100A090000056F
:102CE30004080F08C082C0838A828B83E0D2E7F096
:102CF300121EDF024D1BC082C08379001255DD9086
:102D0300032E125C72C3EA9CEB9D50061233BD6026
:102D13000109024D1B74F7120A66EA125C69EB1291
:102D23006068122F42AEF075F00BEDA42EFD9003F8
:102D330030E02CFEA3E03DFFEA2403FCEB3400FD6E
:102D4300740169600574026970278A828B83A312F8
:102D530055E78E828F83A3124A7A740269701DEC41
:102D6300FAEDFB122629E97013E48E828F83F0803B
:102D73000BEE2403FAEF3400FB12262FEEFAEFFBDF
:102D830012266B023DB574F2120A668A088B09EAB1
:102D9300240BF50CEB12604D79008A828B83E06083
:102DA30070890A890B805FE50A75F00BA4FAACF011
:102DB30075F00BE50B12314F7049AE82AF83850876
:102DC3008285098312671E123209A3125FEBA312D5
:102DD3004C39E5082403FCE5093400FDEE24030A1D
:102DE3000A0AEF3400FB12262F850C82850D83E53A
:102DF3000AF0A3E50B1251E512266B790190032E1D
:102E0300125C7A122E17123147E50A9AE50B9B40A2
:102E13009602462FE50A2401F50AE50B3400F50B6B
:102E23002274F1120A66EAFEEBFF740F1212E1122A
:102E3300425C750E01850882F583A385820C858328
:102E43000DEE240BF8EF3400F9EC7001ED6030EC7B
:102E5300125C69ED124A707901EEFAEFFB12265308
:102E6300E5087002E5097003022EEF850C82850DDB
:102E7300831260527902AA08AB09122653806DEEC1
:102E83002403F50AEF122E1FE5087002E5096033EB
:102E9300125C67E509124A70E5082403FAE5093470
:102EA3000012313F700CEEFAEFFB122641E9F50EEA
:102EB30080B9AA0AAB0B12314070317903EEFAEFF5
:102EC300FB80B78E828F83A3E064FE7004A3E0646B
:102ED300FF700A0A0A0AAB0B123140700CEEFAEFCC
:102EE300FB122641E9F50E8003750E00A90E7F073C
:102EF300020D0E74F7120A6690032E124A7AEA70D4
:102F030001EB6031EA75F00BA4FAACF075F00BEB52
:102F1300A42CFBEAFEEBFF121D53900330124A7AF6
:102F2300900330E07002A3E06012EEFCEFFD790045
:102F3300121CC98007900330E4F0A3F0023DB512E0
:102F4300600FEC75F00BA4FC22E875F00BA4F8AA53
:102F5300F075F00BE9A42AF9900330E02822EE98EB
:102F6300EF9922C082C083EC7001ED600512244901
:102F730080097C087D007900121CC9024D1B74F680
:102F8300120A667900EA7001EB60147C008C081267
:102F930061F2600479017C080CECC3940840EE02F2
:102FA3004CD374F7120A6674F31210B3ECFEEDFF00
:102FB300E4851882851983F074011212E112429498
:102FC30012260B74031212E1AC82AD83EEFAEFFB0F
:102FD30012262FEEFAEFFB122629023DB074F712E8
:102FE3000A6674F31210B3ECFEEDFFE485188285D4
:102FF3001983F0EAFCEBFD74031212E11242C97467
:10300300011212E1124C3674FE68700374FF69609A
:1030130004790180027900023DB074F7120A66EA6E
:10302300FEEBFF12306B701012307664FFFC8A8265
:103033008B83E05CF012266B02458B74F7120A66F1
:10304300EAFEEBFF7508008E828F83E06017123073
:103053006B7012123076FC8A828B83E05C7006E020
:103063004CF012266B02458B122659E9F5087401C0
:10307300650822124A6512501C122F4CFAA3E0393C
:10308300FB8E828F83E02274F0120A668A088B0912
:10309300EA2403FEEB3400FF7C007D000A0A0AFBEE
:1030A30012262FE508240BF50CE50912604D790073
:1030B300850882850983A385820A85830BE064FEE4
:1030C3007004A3E064FF6065890889098054E508FA
:1030D30075F00BA4FAACF075F00BE50912314F60F3
:1030E3003E850A82850B831268FDA3E06C7003A3FF
:1030F300E06D702BEA2403F50EEB3400F50F12316B
:103103003C700BAC0EAD0FEEFAEFFB12262F850CC5
:1031130082850D83126024790190032E12425C1282
:103123004CBB123147E5089AE5099B40A180057421
:103133000D1210217F08020D0E0A0A0AFB1226291E
:10314300E964012290032E1255EBC322A42CFB90B9
:103153000330E02AFAA3E03BFB8A828B83E0540F1F
:103163002274EF120A668A828B83A385820E85837B
:103173000F126052EA240BF508EB124CC385088248
:10318300126050751000EA2403F50CEB3400F50DC2
:1031930012313C7065750A00750B008055E50A75A0
:1031A300F00BA4F8AAF075F00BE50B123204540FE0
:1031B300603DAE82AF83EE2403FCEF3400FDAA0C26
:1031C300AB0D122443E9640170258E828F83A31211
:1031D3004CB7850E82850F83E8F0A3E9123209E527
:1031E3000AF0A3E50BF075100190032E125C7A121E
:1031F3002E1790032E12414F40A3A9107F09020DF1
:103203000E123293E02212320D22F08508828509D4
:10321300832274F3120A66EAFEEBFF8E828F83A386
:1032230085820A85830B126052EE2403F508EF12A0
:103233004CC37C007D000A0A0AFB12262FEEFAEF2C
:10324300FB122659E9F50C7401650C703EEE125C15
:1032530069EF12329D75F00BA4F8AAF075F00BE933
:10326300123293A31255E7850A82850B83124A7A99
:10327300E82403FEE93400FFEEFAEF12313F700B4E
:10328300EEFCEFFDAA08AB0912262FA90C023D653F
:10329300122F58F8A3E039025946124A6B12501CF8
:1032A300E82274EE120A6674E61210B3EAFEEBFF2C
:1032B300EE240BF50AEF122E1F850A821260507559
:1032C3000E01750800750900751000751100E4857D
:1032D3001882851983F0EE2403FCEF3400FD740398
:1032E3001212E1AA82AB8312262F8E828F83A385CB
:1032F300820C85830D851882851983AA82AB83127C
:103303001C75E964017034740B1212E1124CB78519
:103313000A82850B83124C3974011212E1124CB7E5
:10332300850C82850D83E0687003A3E06960558591
:103333001882851983858208858309740D1212E129
:10334300E4126015F8A3E0F9740E1212E1124C397D
:10335300740D1212E1AA82AB8312260BE964017089
:103363000B740D1212E18582108583117810120FF0
:10337300F4AC08AD09EEFAEFFB12263B740212100F
:1033830021E9F50EEEFAEFFB122611A90E741A02CB
:103393005DFCC082C083780079008003123B021277
:1033A3003147E89AE99B500DE8FAE9FB1233BD7007
:1033B300EB790080027901024D1BEA75F00BA4FA48
:1033C300ACF075F00BEBA42CFB900330126A95F56F
:1033D30083E0540F22C082C083902CD6123C6CEC45
:1033E30075F012A4FCAAF075F012EDA42AFD79FF82
:1033F3007AC17B16121CC9024D1B74F6120A667E33
:10340300007F007C007D0080348C088D09E5087501
:10341300F012A4F508ABF075F012E509A42BF50939
:10342300E50824C5F582E5093416F583E0FBC39965
:103433004008EAC39B4003123ED71238EC1238848B
:10344300C3EC9508ED950940C0026A8EC082C08323
:10345300780079008003123B02902CD6123E4C5028
:10346300091237F664FF70EE80047A007B00024D88
:103473001B74F0120A6674F31210B38A0A8B0BECF6
:10348300FEEDFF890CEE7001EF6011EEFAEFFB1217
:1034930026058A088B09EA7001EB70521226F58A19
:1034A300088B09EA7001EB60457401851882851960
:1034B30083F01212E1E50AF0A3E50BF0EEFCEFFD59
:1034C30074031212E1123608740B1212E11239D985
:1034D300A3A3124C39E4850882850983A3A3A3A37C
:1034E300A3A3126007AA0AAB0B1217DD800BE50832
:1034F3007002E50970030235807A00E50C6007C3AA
:10350300940550027A04850882850983126033A3E7
:10351300A3A3E50CF0EA850882850983A3A3A3A3EB
:10352300A3F07402850882850983A3A3A3A3A3A39D
:10353300A3A3F07401850882850983A3A3A3A3A38E
:10354300A3A3A3123594A3A3A3F0E5082410F58243
:10355300E509126068E4F0123594F0125C67E5093E
:10356300126068E4F0908223780C121281E508243B
:103573000CF582E509126068780C12125412375761
:103583004005E4901CCFF01216C9AA08AB0902311A
:1035930032A3124BF7025A9574F2120A6674F312AD
:1035A30010B38A088B09ECFEEDFF750A00EEFAEF03
:1035B300FB1226058A0C8B0DA80CA90DE87001E9F6
:1035C300603E88828983E065087004A3E065096032
:1035D3002F88828983A3A3A3A3E0C3940550211258
:1035E30060207401851882851983F01212E112603C
:1035F30024EEFCEFFD74031212E1123608750A0182
:10360300A90A02462A1242D012271F2274F6120A6E
:10361300661236507002E5836010A3A3A3A3E06093
:1036230009C394055004790180027900024CD374D4
:10363300F6120A661236507002E583600BA3A3A349
:10364300A3E07004790180027900024CD31226476B
:103653008A828B83E58222C082C083EAFCEBFD7AF7
:10366300007B00121CF3024D1BC082C0837C007DD3
:103673000080F074F2120A6674F31210B38A0C8B92
:103683000D8C0A8D0B7E007F0080211239DF121210
:10369300E11236EE601374031212E1AC82AD83AA19
:1036A3000CAB0D122443E97035123ED7902CD61281
:1036B3003EE750301238A060F0E50C7002E50D7063
:1036C300CA74FF650A700474FF650B60DC850882A9
:1036D300850983E0650A7004A3E0650B70CBAA0833
:1036E300AB0980047A007B0002462AE8F0A3E912C2
:1036F30042F4122749E92274F4120A6674F3121091
:10370300B37508001226058A0A8B0BAE0AAF0BEEBF
:103713007001EF602A7401851882851983124C3079
:10372300F8A3E0F9740B1212E11242EC1226177C93
:10373300127D0079FFEEFAEFFB121CC97508011226
:10374300375750097401901CCFF01216C9A9087499
:103753000D024D297A0479001226FB902CD6123ED5
:10376300EDEA98EB992274F7120A66E9FE74FE6A91
:10377300700374FF6B780079007005804D123B0273
:10378300902CD6123AED5042E8FCE9FDEC75F012AC
:10379300A4FCAFF075F012EDA42FFDEC24C1FCEDF9
:1037A3003416FD8C828D83A3A3A3A3E064FF60CDB5
:1037B3008C828D83E06A7003A3E06B70C08008EC99
:1037C3006005C39405401C123B02902CD6123E4C5C
:1037D300501A1237F6FCEE70E674016C6005740340
:1037E3006C70E48A828B831255E780047AFE7BFF38
:1037F300023DB5E8FAE9FBEA75F012A4FAACF075FC
:10380300F012EBA42C12390B221212F1024D1BC041
:1038130082C083790180F274F0120A668A0A8B0BE4
:103823007A0479011226FB8A0CEA7001EB6040EA04
:10383300C333FAEB33FB121D538A088B09AE08AF6F
:1038430009EE7001EF60237AFE7BFF1212F774FE1C
:103853006A700374FF6B601B850882850983124AB3
:103863007AE5082402124CBF80E1750C0080047EC7
:10387300007F00850A82850B83E50C1251E5023136
:1038830037902CD612388B22E493F508740193F504
:103893000922902CD6E493FA740193FB22EEF8EFFD
:1038A300F9E875F012A4F8AAF075F012E91239BE1E
:1038B300A3A3A3A3E064FF2274F7120A667C007D2E
:1038C300008004191238EC1238E3500D1238F5C396
:1038D300940550F0E970EC80047A007B00023DB55A
:1038E300123895C3EC9AED9B22EC24010CED3400C5
:1038F300FD22ECFAEDFBEA75F012A4FAAEF075F0D6
:1039030012EBA42E12390B22FBEA24C1FAEB341674
:10391300FB8A828B83A3A3A3A3E02274F3120A6618
:1039230074F31210B3750A00750B008052E50C1284
:103933005FDE8E828F831239D9E0687003A3E0695A
:10394300602574011212E1E0687003A3E069601757
:10395300EE2402FCEF3400FD74031212E1AA82ABE1
:1039630083122443E96007EEFAEFFB1217E9050C13
:10397300902CDDE493FAE50CC39A40B1122E171292
:1039830039D1E50A98E50B99502CE50A75F012A494
:10399300F8AAF075F012E50B1239BEE064FF70046B
:1039A300A3E064FF60D61239DF1212E11236EE6033
:1039B300CB750C0080BA740D023D62A42AF9E82489
:1039C300C1F508E93416F509850882F58322902CA0
:1039D300D6E4123EEE2212501C02320E74018518F8
:1039E30082851983124BF712501C740B2274F61242
:1039F3000A66123FF1123C6CEC8508F0A4CCAAF0E5
:103A03008509F0A42AFA8508F0EDA42AFD79FF7A46
:103A1300787B1B121CC99003337421F0A37413F039
:103A2300900335741BF0A37413F09003377445F0BF
:103A3300A37413F09003397457F0A37413F0900335
:103A43003B745DF0A37413F090033D7463F0A374AF
:103A530013F090033F7469F0A37413F0E4900332FE
:103A6300F0024CD3C082C083780079008003123BFC
:103A730002123E495024E8FAE9FBEA75F00EA4FA73
:103A8300ACF075F00EEBA42CFBEA2478F582EB1274
:103A930044DC70DAAA82AB8380047A007B00024D97
:103AA3001B74F7120A667A007B0078007900802F76
:103AB300E8FCE9FDEC75F00EA4FCAEF075F00EED3C
:103AC300A42EFDEC2478F582ED1244DC600EA3A352
:103AD300A3A3A3E0FCEA2CFAEB3400FB123B029015
:103AE3002CD4123AED40C9023DB5E493FC74019322
:103AF300FDC3E89CE99D221210217F03020D0EE80D
:103B0300240108E93400F92274EC120A6689108A48
:103B1300088B098C0D8D0C74141212E1125C7A7EE1
:103B2300007F00121381AA08AB091213878A0E8B38
:103B33000F850882850983A3A3A3A3A3A3A3A3E05B
:103B4300640170077508018E0980058E08850D09CB
:103B530074FE650E700474FF650F7003023C4F8E94
:103B63000D8002050D850D12902CD412673F507104
:103B7300E50D75F00EA42478FEE5F0123FAA65105A
:103B830070E1A3E0650870DB8E828F83A3A3E065F9
:103B93000E7004A3E0650F70CA8E828F83A3A3A364
:103BA300A3E0650970BD750D00E50DC3950C4003D9
:103BB300023C4FE50DC333F8E433F9E50A28F50871
:103BC300E50B39F50985088212654112132DE97059
:103BD3000C850882850983126543121339050D800C
:103BE300C81213158A128B13AE12AF13EE7001EFC6
:103BF300605A8E828F83E510F0A3E508124CA3A3CD
:103C0300E50EF0A3E50F124CA3A3A3A3E509F090DF
:103C13002CE3E493C3950C5004E493F50C8E828F4C
:103C230083A3A3A3A3A3E50CF0850A08850B097559
:103C33000A007808120FF0E50CC333FCE433FDEE01
:103C43002406FAEF340012602C121021EEFAEFFB77
:103C53007F0C020D0EC082C083123C6979FF121CD7
:103C6300C97901024D1B902CD2E493FC740193FD9E
:103C73002274F7120A66EA7001EB60498A828B8329
:103C8300A3A3A3A3A3A3E5827002E58360377E0009
:103C930080010E8A828B83A3A3A3A3A3E0FFEEC3B9
:103CA3009F5022EEC333F8E433F9EA28F582EB3967
:103CB300F583A3A3A3A3A3A3E06C7003A3E06D7098
:103CC300D1790180027900023DB574F3120A66EAE4
:103CD3002405F8EB3400F9E8FEE9FFEA7001EB6034
:103CE3006F8E828F83E06073EA240608EB3400F959
:103CF300E0F50B750A00800B8E828F83E014F06071
:103D03005A050AE50AC3950B5046E50AC333F5087D
:103D1300E433F509EA2508F508EB3509F5097406D6
:103D23002508F508E43509F509850882F583E06C73
:103D33007003A3E06D60C1850882850983E0F508FF
:103D4300A3E012601EE824020808E93400F980B1F8
:103D53008E828F83E06004790180027900800312F0
:103D630010217F05020D0E74F7120A66EA7001EB4B
:103D730060371268EBC0E0902CE3E493FED0E0C31D
:103D83009E502688828983E0C333FEE433FFEA2E04
:103D9300F582EB3FF583A3A3A3A3A3A3ECF0A3EDC9
:103DA3001263FE04F07901800279008005740D121C
:103DB30010217F01020D0E74F2120A6689088C0924
:103DC300123EF67005125C768003123ECF74FE65D8
:103DD3000A700474FF650B70067A007B00806478B8
:103DE30000790080187401650C700F8C828D83E05C
:103DF300650A7004A3E0650B6049123B02123E4959
:103E030050D71242788A828B83E0650870ECA3E076
:103E1300F50CEA2402FCEB3400FD8E828F83E06410
:103E23000160C2E50C70D38C828D83E0650A700457
:103E3300A3E0650B70C48A828B83A3A3A3A3E0656D
:103E43000970B702462F902CD4123898C3E89AE928
:103E53009B2274F2120A66EA2408F8EB124C2764D8
:103E6300017005125C768003123ECF74FE650A7002
:103E73000474FF650B60527E007F008047EEF8EF0D
:103E8300F9E875F00EA4F8AAF075F00EE9A42AF982
:103E9300E82478FAE9341BFB850882850983E0640A
:103EA30001701B8A828B83A3E0640170148A828B66
:103EB30083A3A3E0650A7004A3E0650B70031213E8
:103EC30027123ED7123EE440B402462F12136F8AE4
:103ED3000A8B0B22123EDCFF22EE24010EEF34008C
:103EE30022902CD4123EED022F61E493F8740193D7
:103EF300F9C322EA2408F8EB12603EE0640122745D
:103F0300F3120A66890C8A0A8B0B7508007509007F
:103F13007E007F00801B124229650C7011AC0AAD34
:103F23000BAA82AB8312132DE96003124CBB123E22
:103F3300D7123EE440E0AA08AB09023D6574F112D2
:103F43000A66890D8A0A8B0B8C0E750C00750800A6
:103F53007509008005050C124CBB902CD41239D482
:103F6300E50898E509995038E50875F00EA4F8AA14
:103F7300F075F00EE509A42AF9E82478FEE9123F6A
:103F8300AA650D70D2AC0AAD0BEEFAEFFB12132D3E
:103F9300E960C4E50CC3950E40BBEEFAEFFB800469
:103FA3007A007B00022EF1341BFF02308474F61278
:103FB3000A667508007509007808120FF4123FF1BC
:103FC300124206E9A42AF975832C7582D2E4932858
:103FD300FCA3E49339FD7A417B00121DB9740212EC
:103FE3001021E9FE600312135DEEF9024CD3902C0D
:103FF300D212388B902CD42274F6120A6674FE12F5
:1040030010B312401F120FF47508027509007808E7
:10401300120FF47C007D007A41024CC8851882851A
:104023001983E4F0A312426C85820885830978081A
:104033002274F4120A6674E71210B37E007F0085BF
:1040430018828519838582088583097808120FF4FD
:104053007508028E097808120FF47C007D007A41FE
:1040630012415A121021E9600302413E8E0A8E0B5F
:10407300805874021212E1AC82AD83740D1212E106
:104083001255E7121375740A1212E1E060397411C4
:104093001212E18582088583097808120FF47412DD
:1040A3001212E1E0FD74111212E1E0FC7404121229
:1040B300E1AA82AB83740D1212E1E0F912132174A9
:1040C30002121021123ED7122E17851882851983EA
:1040D30012414F5066740B1212E1858208858309E1
:1040E3007808120FF4902CD2120DFA902CD21241B0
:1040F30047E8850AF0A4C8AAF0850BF0A42AFA853C
:104103000AF012421B12415A121021E970B9740AC3
:104113001212E1E4F0740C1212E1E0700302407534
:10412300740A1212E17401F0740D1212E1124CB709
:1041330074021212E1124C39024091EEFAEFFB7451
:1041430019024D29E493F8740193F92212501CC308
:10415300E50A98E50B99227B00121DCB74042274A7
:10416300F5120A6674F01210B3851882851983E478
:10417300F0A3F0FE805A12422964FF605085820842
:10418300858309750A007808120FF0123C697405DB
:104193001212E1AA82AB8312602D12102174021253
:1041A30012E18582088583097808120FF4902CD2D6
:1041B300120DFA74041212E112425C902CD21242D4
:1041C3000612421B12426412102112424C123EDCB0
:1041D300FF123EE440A085188285198385820885F5
:1041E30083097808120FF47508027509007808121C
:1041F3000FF47C007D007A41124264121021741086
:10420300023AFA124147E88508F0A4C8AAF08509E2
:10421300F0A42AFA8508F022E9A42AF9740228FCFA
:10422300E439FD7A412212422EE022EEF8EFF9E85A
:1042330075F00EA4F8AAF075F00EE9A42AF9E824A3
:1042430078F582E9341BF58322851882851983E08A
:104253002401F0A3E03400F022E0F508A3E0F5091F
:10426300227B00121DC574042212427022F08518AD
:104273008285198322E8FAE9FBEA75F00EA4FAAC09
:10428300F075F00EEBA42CFBEA2478FAEB341BFB5D
:1042930022EAF0A3EB1242F422C082C08374F31229
:1042A30010B312445D6402700E1242E21212E11264
:1042B30042EC12260B800CEAFCEBFD74031212E1B4
:1042C3001242C9024D101242D0121C7522AA82ABAF
:1042D3008312262F851882851983AA82AB83228AAB
:1042E300828B8312501C740122E8F0A3E91242F47A
:1042F300221242F82212427080E074F7120A6674A6
:10430300F31210B3ECFEEDFF740485188285198354
:10431300F0740B1212E1EAF0A3EB1236F2F5086027
:104323001D74038E828F83A3A3A3A3A3A3A3A3F0CC
:104333001212E1AC82AD83EEFAEFFB122449A90815
:10434300023DB0C082C08374F31210B374048518A5
:1043530082851983F0740B1212E1124294122749D9
:104363007401024D121255EB740D2274F6120A6693
:1043730074F31210B3900332E0706E7404851882E4
:10438300851983F09003711242E61212E1124C393F
:10439300121693EAFCEBFD74031212E112360812B3
:1043A300169F8A088B09A808A90974011212E1E073
:1043B300687003A3E069602B74FE68700374FF697F
:1043C300602174011212E1124C3974031212E1AA32
:1043D30082AB831216A5851882851983AA82AB83C3
:1043E30012271F7401900332F0740D024CD0C08267
:1043F300C08374F31210B312445DFC74026C701E1C
:104403001242E21212E1E8F0A3E9125E67704885F6
:104413001882851983AA82AB8312271F80397403FC
:104423006C7011EAFCEBFD74031212E11242C9E94C
:10443300702580DB74016C70128A828B83124CB7F7
:10444300740B1212E1E8F0A3E9800B740B1212E172
:1044530074FEF0A374FFF0024D1074048518828576
:104463001983F08A828B83A3A3A3A302391874F55B
:10447300120A6678007900880888097C007D00802C
:10448300031238EC902CD4E493FE740193FFC3EC35
:104493009EED9F5021ECFEED1244C060E4AE08AFE8
:1044A3000974012EF508E43FF509EA6E7002EB6F1B
:1044B30070CFA882A983E8FAE9FB023AFDFFEE7503
:1044C300F00EA4FE85F00A75F00EEFA4250AFFEEA8
:1044D3002478F582EF1244DC22341BF583E064FF79
:1044E30022C082C08390034674A9F0A37415F09090
:1044F300034874A3F0A37415F090034C7405F0A360
:104503007414F0024D1BC082C08390034A749DF063
:10451300A37415F0024D1B74F7120A66EAFEEBFF53
:10452300900380E0FA74086A601974046A60148E58
:10453300828F83E064017046124A611256EAE06496
:1045430006703B8E828F83A3A3124CB774FE6870F0
:104553000374FF696028900371E0687003A3E06946
:10456300700BEE2415F582EF1261F8600AEEFA1271
:10457300165DE9F508800AEEFA12166380F47508F1
:10458300C2EEFAEFFB121D59A908023DB574F212EF
:104593000A668A088B098A828B83A385820A8583AC
:1045A3000B8A828B83E0F8850A82850B83E028FAE5
:1045B300E43400FB121D538A0C8B0DAE0CAF0DEED1
:1045C3007001EF605C850882850983E0FC7D0079DA
:1045D30000121CC98E828F83A3A3126052121699F4
:1045E3008E828F83A3A3A3A3124A7A8508828509A7
:1045F30083E0F8EE28F8EF3400F9124A61124FFF16
:10460300C0E0126062D0E0F01216ABEE240E12602E
:1046130065E9124BF3E0C0E0EE2411126065D0E0CF
:10462300F0EEFAEFFB8005740D1210217F06020DE8
:104633000E74F4120A6674EB1210B38A088B098C99
:104643000A8D0B9003817808121254E990038712A4
:1046530048EC12125474051212E1E9F074041212B8
:10466300E17401F074071212E1E4F0740290038024
:10467300024D2674F4120A6674EB1210B3EAFEEBD1
:10468300FF900342E07002A3E070677A077B001299
:104693001D53900342124A7A900342E07002A3E052
:1046A300604C900342125C728F838E827407120FE8
:1046B300178E828F83780812128185188285198359
:1046C30078081212548E828F83A3A3A3A3E0C0E0C1
:1046D30074051212E1D0E01263F8C0E07404121200
:1046E300E1D0E0F074071212E11248368006791027
:1046F300800279017415024D29C082C08390034260
:10470300E07002A3E060109003421255E7121D59B6
:10471300900342E4F0A3F01215CD121789024D1B4A
:1047230074F3120A6674EB1210B3ECFEEDFF7422FD
:104733001212E1780812128174261212E1E0FC745D
:10474300271212E1E0FD74281212E1E0F50C740F58
:104753006C7005740F6D6012901D41E0640270056A
:1047630079C1024831ECC39D40F690038178081269
:104773001254E9900387F0EC900385F0ED900386E3
:10478300F0E50C900388F074FF6A700374FF6B709C
:104793001F901D4FE064FF7004A3E064FF700512D7
:1047A3001CD5800C901D4F124BECE8F0A3E9800759
:1047B30090037EEAF0A3EBF0EE7001EF6017EEFAE0
:1047C300EFFB121843E96401700BEEFCEFFD7A92E4
:1047D3007B03122449900371E4F0A3F0900374F077
:1047E300A3F0900391F0901D41E06402700A740FEE
:1047F300900385F0900386F07405900380F07404B1
:104803001212E1E4F0900381780812128185188274
:104813008519837808121254900387E0C0E0740569
:104823001212E1D0E0F074071212E1124836741547
:10483300023D62E412483B221242F8122581229083
:1048430003CCE0F9121E0122C082C083900341E031
:104853007003121F691213C9024D1BC082C08390DB
:104863000341E07007E4901CCEF080317401901C8A
:10487300CEF0900341E064FF60237C41E0C39441A8
:104883005002E0FCECFAE0C39AF0EC75F0E8A4CC3B
:10489300AAF075F003A42AFD7A801248AC7ACE7B85
:1048A3001C7941122569024D1B7B009003CCE0F972
:1048B300121DF52274F4120A6674EB1210B38A08FF
:1048C3008B098C0A8D0B74019003801248EC121231
:1048D3005474051212E1E9F074041212E17403F046
:1048E30074071212E1E4024D2612426C7808221278
:1048F300483B74152274F4120A6674FC1210B3E96F
:10490300851882851983F0EAFEEBFF90037E125C23
:10491300721215C78A0A8B0BEA7001EB700579CA0C
:10492300024A5CEA2409F508EB124CC3850882F5B8
:1049330083E064FE7004A3E064FF700579C3024A58
:104943005C90037E1255E71217EFE50A240CF582FB
:10495300E50B124BE4124C0974021212E17402F0DB
:1049630074011212E1AA82AB831217058A0A8B0B18
:10497300AE0AAF0BEE7001EF7003024A53124A61A5
:10498300124CB7740688828983F0A3A882A9839006
:10499300036BE088828983F0EE2417F582EF1254CB
:1049A300F3EE241A126065124A7AEE24131260653C
:1049B3007401125FFF7440F0A3E41250158E828FCE
:1049C30083A3A3E8F0A3E9126088E9FE6003024A27
:1049D300557409900380F0AA08AB09794B124BDE9A
:1049E300124CB7900374124C39900373E0FA851894
:1049F30082851983E06A600CE09003731250117989
:104A0300E1122569901D2F124CB7901D31E068709B
:104A130003A3E069601A900344124C39901D3112CC
:104A230055E71216C3901D31125C727A011248AC1D
:104A33007A007B04124842901D3112425C74027862
:104A4300081211CCAC08AD09FA7B041248AE8002FF
:104A53007E10E490112BF0EEF97404024D29124AF2
:104A63006522EE240BF582EF3400F58322124A6BA4
:104A73001255EB88828983EAF0A3EBF02274F112DA
:104A83000A6674E21210B3851882851983ECF0A3C9
:104A9300EDF0EAFEEBFF742D1212E1E0F50E900348
:104AA30080E0FA74046A600574086A700579C202CA
:104AB3004BD6851882851983E0FCEEFA1215C78A56
:104AC300088B09EA7001EB700579CA024BD6EA2418
:104AD30009F50AEB126077E064FE7004A3E064FF5B
:104AE300700579C3024BD674039003801250117979
:104AF30050122569AA0AAB0B794B122569851882D6
:104B0300851983124BEC124C39E5082402F50CE5A8
:104B130009126081900373124C01900374124C3993
:104B2300E50E90036B124C0974CE550E4480C0E021
:104B330074121212E1D0E0F0E508240CF582E509C5
:104B4300124BE4F0740F1212E17402124C01740759
:104B53001212E1E8F0A3E9124C3F74101212E1E8DB
:104B6300F0A3E9126015C0E074051212E1D0E0F081
:104B7300741B1212E1E4124BF3A3A3E0900386F03B
:104B83007A867B037954124BDEA3A3A3E0900385BB
:104B9300F07A857B037947122569900385E0C394F6
:104BA3000F502474051212E1E0C0E074021212E106
:104BB300D0E0F074041212E17401F074021212E1F5
:104BC300AA82AB8312258D74051212E1AA82AB83EC
:104BD30012256F741E121021022EF1122569023262
:104BE3000E12535F049003912212501C90037E22F5
:104BF300124BF722F0850882850983A3A322125062
:104C030007F8A3E0F922F0EEFCEFFD7A927B0312A2
:104C1300244922C082C083EB900388F01215B502A9
:104C23004D1BF8EF124E158882F583E022124CA734
:104C3300A3E022125FEFE8F0A3E9F022124CB202E4
:104C43004C0474F7120A6674F81210B3EAFEEBFF11
:104C53007900900380E06408704185188285198388
:104C630074FD12605412169374021212E1124A7AFE
:104C730074051212E1E4124CA3E0C0E074041212B2
:104C8300E1D0E0124CAEC0E074061212E1D0E0F0C5
:104C930074071212E11250101216E77408023DB2A3
:104CA300124CA722F08E828F83A322F0023084124B
:104CB3004270E02212501C22E5082401F508E509A0
:104CC3003400F509221242641210217402121021D9
:104CD3007F02020D0EC082C083900352748FF0A333
:104CE3007414F09003EF7435F0A37417F090035627
:104CF30074BFF0A37414F0900358748FF0A374146A
:104D0300F090035A74C5F0A37414F0800B740B1263
:104D130012E1124368121021D083D082020F9B74D8
:104D23000780031248F21210217F04020D0E74F063
:104D3300120A668A828B8312606CEE7001EF700335
:104D4300024E12EA2402F8EB124E15900312E070A1
:104D530002A3E0601388828983E0F9EEFAEFFB9007
:104D630003121256EA1227C0EE2406F8EF3400F9B4
:104D7300880A890BEE2409080808EF3400F9880C27
:104D8300890D8882F583E06402704B850A82850B66
:104D930083E054026052850882850983E064E960F8
:104DA30047EE240A08EF1268F0700A901D43E004EE
:104DB30088828983F0E014F07404850C82850D8366
:104DC300F0901D44125FF9E8F0A3E9126905700140
:104DD300EB70031263DD850C82850D83E0FA7402A8
:104DE3006A600574066A7027850A82850B83E0A2D0
:104DF300E0501C850882850983E0F9EEFAEFFB1287
:104E030026A7850A82850B83E054FEF0A3E0F00217
:104E130031373400F9880889092274EC120A667460
:104E2300DD1210B3EAFEEBFF8C128D1374371212EE
:104E3300E1780C12128175100074051212E1AC8234
:104E4300AD8312268FEE240BF508EF124CC37405C5
:104E53001212E1E0A2E55019751001AC82AD838511
:104E630008828509831255E71226B3E96003024FCE
:104E7300B874051212E1E0A2E6502274061212E1A0
:104E8300E05403701874051212E1E0540CFA740C28
:104E93006A600A74086A6005751101800375110060
:104EA30074051212E1E05403FA74026A7013AC82BF
:104EB300AD838508828509831255E712267D024F4B
:104EC300B8EE2406F50AEF122E1F74016A7037E557
:104ED300116003124FEE74051212E1A882A98374C4
:104EE300031212E1E8F0A3E912501585188285191F
:104EF30083124FFFC0E074021212E1D0E01250118E
:104F0300122797024FB8EA6003024FB8900368E094
:104F13006401700C850A82850B83E07003024FB82D
:104F230074221212E17402125015741A1212E11251
:104F33004C39E511600874051212E1124FEE740545
:104F43001212E1E0540C64047073EE240FF582EF47
:104F53001261F8C0E074171212E1D0E0F09003146C
:104F6300E07002A3E0604E1216998A088B09A80824
:104F7300A909741A1212E1E0687003A3E06970359D
:104F8300780C120FECE510F5087808120FF8781278
:104F9300120FF4A911740C1212E1AC82AD837421C7
:104FA3001212E1AA82AB839003141256EA1227C0AD
:104FB30074071210217423121021023C53780C122F
:104FC3000FEC7812120FF490037E120DCDA910741A
:104FD300221212E1AC82AD83740D1212E1AA82ABEC
:104FE3008312269B740812102180CAAC82AD83857C
:104FF30008828509831255EB12268922E8F0A3E97A
:1050030012500722F0850A82850B83E022E41242C4
:10501300F42212320D12501C22E0024C04C082C052
:1050230083121EA3024D1BC082C083121EA9024D10
:105033001BC082C083121EAF024D1BC082C08312ED
:105043001EB5024D1B74F7120A6674091212E1E0D1
:10505300F5087808120FF8121EC17401023DB2C0A0
:1050630082C083121EC7024D1BC082C083121ECD95
:10507300024D1BC082C083121ED3024D1B74F71254
:105083000A66EAFEEBFF740169701079001214D10D
:105093007C1E7900EEFAEFFB12147D023DB574F429
:1050A300120A6674F91210B38A088B098C0A8D0BE5
:1050B30074131212E11255E790114DE07002A3E050
:1050C3006027E9851882851983F074011212E1784B
:1050D30008121254EAF8EBF974051212E11242ECC9
:1050E30090114D1256EA1227C0024D22C082C0838E
:1050F300121F03024D1B74F7120A66901CD1E0F9CC
:105103007F00800B125338540D64017001190F1284
:1051130052F55003E970ED023DB574F7120A66903B
:105123001CD2E0F97F00800B125338548D648170D8
:1051330001190F1252F55003E970ED023DB574F3F6
:10514300120A66890CE975F006A4F8A9F0740C2814
:10515300F508E439F509EA2508FAE43509FB121DD7
:10516300538A0A8B0BAE0AAF0BEE7001EF6027ACCC
:1051730008AD097900121CC9124A61E50CF0EE254D
:1051830008F8EF3509F98E828F83A3A3A3A3A3A302
:10519300A3A3A3124C39EEFAEFFB023D6574F6129A
:1051A3000A66EAFEEBFF121459901CD0E0FAE9C339
:1051B3009A400990034E1255E712145FEE2402F849
:1051C300EF124E15900350E088828983F0900350CC
:1051D300E0041251E5121465850882850983E00213
:1051E3003FEDF0EEFAEFFB22C082C083790090031B
:1051F3004E8001091255E78A828B83E5827002E5AE
:105203008370F0024D1B74F7120A66EAFEEBFFEEA1
:105213007001EF605E90034EE07002A3E060549073
:10522300034E1259417A007B00800FAA82AB83128E
:105233005941E5827002E5836039EE65827003EFC0
:10524300658370E78E828F83124CB790034E125C96
:1052530072EE6C7002EF6D700590034E80048A82CB
:105263008B83124C39EEFAEFFB122767EEFAEFFB52
:10527300121D59023DB5C082C08390034EE0F8A3CE
:10528300E08003ECF8EDF9E87001E96009125C6E67
:10529300EC7001ED70ED8A828B83E4F0A3F0E8708B
:1052A30001E9600688828983800390034E124A7A5B
:1052B300024D1B74F7120A6690034E80048A828B98
:1052C300831260487001EB60227F0080010F12524D
:1052D300F550EAEF75F006A4FCADF0EA2CFCEB3DCB
:1052E300FD741012534C6970E480047A007B000251
:1052F3003DB5125359FCEFC39C2274F7120A66782A
:1053030000800108125355FDE8C39D5025E875F050
:1053130006A4FEAFF0EA2EFEEB3FFFEE2410F5826B
:10532300EF1261F86970DCEE2411F582EF1261F877
:105333004CF0023DB5EF75F006A4FCADF0EA2CFC91
:10534300EB3DFD741112534C222CF582E43DF583A1
:10535300E02212535922EA240BF582EB3400F58341
:10536300E02274F6120A661215497A00801B8A0835
:10537300750900740378081211CC1261D7125DA36A
:10538300A3A3A3A3A3A3A3F00A902CE61267384018
:10539300DD7A00801A8A08750900740378081211EF
:1053A300CCE5082403F582E509341B1260500A1288
:1053B300673540E1902CD8E49390035CF01253C618
:1053C300024CD37CE87D037A107B009003CCE0F998
:1053D300121DFB2274F0120A6674FD1210B3EAFE6A
:1053E300EBFF89088C0912152B8A0A8B0BA80AA9D3
:1053F3000B900371E0687003A3E069700579000204
:1054030054E8AC087902EEFAEFFB121525E960EDDA
:10541300E508F50A780A120FF8125AAF121021E9BB
:1054230060030254E6E508C2E5F508900351E0F590
:105433000C900371125C7A780A120FF47D017C00E0
:10544300900351E0F9AA0AAB0B1214DD7402121097
:1054530021E9FA900351E004F0EA60030254E67490
:10546300011212E1740612608FEA7001EB60701290
:1054730054EDE50A241AF582E50B126068124A7AA4
:10548300E50A125C69E50B1260681242E6888289BC
:1054930083F0747855081261FCA3A3E50CF0EE8841
:1054A300828983A3A3A3F0EF88828983A3A3A3A301
:1054B300F0E488828983A31254FD74FD126054E5DD
:1054C300096013C3941E500EE50A2413F582E50BFD
:1054D300126068E509F0AA0AAB0B12139F800679E4
:1054E30010800279C77403023134EA2417F582EB82
:1054F300124A6B7401F012169322A3A3A3A3F0859F
:105503000A82850B83A3A322C082C0839011EEE09D
:105513006401901D427006E0FC79018004E0FC798F
:10552300037A007B0012147D024D1B74F4120A6689
:105533008A088B09E9FE12171DE960077AFF7BFFD2
:105543000255C9901D41E06402706E79001255CC7A
:10555300EA7001EB60421268EBFC74016C702290FC
:105563000370E08A828B83A3A3A3A3F08A828B8335
:10557300A3A31255E774FE6A700374FF6B60108077
:105583004574036C601A74046C70047AFE80AF88EF
:10559300828983E0640270089003BDE0640270199D
:1055A30090037E125C72AA08AB091217CBEA700152
:1055B300EB6006AA08AB09800DAA08AB0990035259
:1055C3001256EA1227C0024D2CAA08AB091255D471
:1055D3002212152BEEF912151F22EA240BF582EB8A
:1055E3003400F5831255EB22E0FAA3E0FB2274F7B3
:1055F300120A66EAFEEBFF12265FE9700AEEFAEF83
:10560300FB12264DE96006EEFAEFFB80047AFE7B7F
:10561300FF023DB574F2120A668A088B098C0A8D63
:105623000BE9FE7F0012171DE9790060030256E0C3
:10563300AA08AB09126A727002E5836017A3A3A3D9
:10564300A3A3E0FA74026A704F9003BDE064027092
:10565300030256DEAA08AB099003581256EA122732
:10566300C01226478A0C8B0DA80CA90DE87001E91E
:105673006069E82405F582E91261F8A2E0505C75DF
:105683000C01A2E1501C7901AC08AD09AA0AAB0BCD
:105693001214ADE9700F804374036A703E750C02F7
:1056A3008003D2E1F0900371E0650A7004A3E06522
:1056B3000B700E7C1EEEF9AA08AB0912147D0F8045
:1056C3001AA90CAC08AD09AA0AAB0B1214ADE97008
:1056D3000A0FEEF9AA08AB091214D1EFF902462F0B
:1056E300EEFAEFFB9003541256EE22E0F8A3E0F536
:1056F3008388822274E8120A6674F01210B38A1443
:105703008B158C088D0974281212E1E0F510A3E0C3
:10571300F5119003F5E07002A3E06012126A78704D
:1057230002E5836009A3E070057900025927E514B7
:10573300241DF516E5153400F51785168212593F19
:10574300A3E0F50C88828983A3A3E0F50B88828903
:1057530083A3A3A3E0FA88828983A3A3A3A3E0F985
:10576300EAFEE9FFAA08AB091214D7E9FA12594C69
:10577300E02AF50A530C78E514240BF50EE51534ED
:1057830000F50F7808120FF47D0012592C12102126
:10579300E9FA74036A6092EA704290036AE0601E59
:1057A300E50CF50D780D120FF87901AC08AD0985FC
:1057B3000E82850F831255E7125AB9121021E50C98
:1057C300F50D780D120FF8125AAF121021E9700C73
:1057D30085108285118374FFF0A38049851082852B
:1057E3001183E064FF7004A3E064FF60399003BD9C
:1057F300E06402700302572C850E82850F83E0FA62
:10580300A3E01256E61227C0EA65087003EB6509A8
:10581300600302572C1256E31227C08510828511AC
:1058230083EAF0A3EBF07808120FF47D0112592CF0
:10583300121021A90CEEFAEFFB12152B8A088B0923
:10584300A808A909900371E0687003A3E0696003E5
:1058530002591EEEFAEFFB1236507002E583602305
:10586300A3A3A3A3E0FA74016A600574026A701328
:10587300851882851983AC82AD83EEFAEFFB12267D
:10588300238014121693EAFCEBFD85188285198395
:10589300AA82AB83122449851482851583A3A3A30B
:1058A300A3A3A3A3A3E06401701AE5142415F5824E
:1058B300E515126068125C7274081212E1AA82ABD9
:1058C300831224498516828517831256EAA3E0447E
:1058D30030F5087808120FF874011212E185820876
:1058E3008583097808120FF4740B1212E18582087C
:1058F3008583097808120FF4E50BF5087808120F71
:10590300F87900EEFCEFFD850E82850F831255E7D3
:105913001214A7740612102102572C12594CE50ACF
:10592300F01216AB7410026716AC0AA90B850E822F
:10593300850F831255EB1214DD740222F583125086
:105943001C8001F988828983228516828517831238
:1059530056EE025A9574EE120A6674F01210B38A68
:10596300108B11EA241DF50EEB3400F50F850E8222
:1059730012593FA3A3E0F50C88828983125A8AE067
:10598300FBECFEEBFF88828983A3A3125A8AA3A3AD
:10599300E0FAE4CAFBECF508EBF50988828983A3F6
:1059A300A3A3A3A3A3A3E0F50A88828983A3E05456
:1059B30078F50BA2E45016E82408FCE93400FD74E2
:1059C300081212E1AA82AB831224497A08E50BA2DA
:1059D300E55024EAF8850E82850F83E028F8A3E0DA
:1059E3003400F9740828FCE439FD8518828519838D
:1059F300AA82AB83122449AC0AA90CEEFAEFFB127C
:105A030014E3E9FA74036A6079900371E06E70033A
:105A1300A3E06F605EEA7054E50BF50D780D120F8D
:105A2300F8125A9B121021E97058780B120FF87470
:105A3300011212E185820E85830F780E120FF47422
:105A43000B1212E185820E85830F780E120FF4E597
:105A53000CF50B780B120FF8A90AAC08AD09EEFA96
:105A6300EFFB1214A77406121021801674046A70D7
:105A73001180B7E50BF50A780A120FF8125A9B1238
:105A830010217410025DFCA3A3A3E0FC8882898328
:105A93008001A3A3A3A3A3227901E510240BF5821C
:105AA300E511124A6B126A84125AB92279027CFEFA
:105AB3007DFFEEFAEFFB1214CB74012274E8120A95
:105AC3006674F51210B3EAFEEBFF8C088D09891298
:105AD30074231212E1E0F50F74241212E1E0F516BB
:105AE300A3E0F51774281212E1E0F50EA90F1214C2
:105AF300E98A108B1174011212E17408F0E50EA209
:105B0300E450037410F0E50EA2E55004E02408F01D
:105B1300851882851983AA82AB831217058A0C8B99
:105B23000DEA7001EB7003025C621254EDE50C2484
