:020000040800F2
:1000000078120020090100080B30000813010008D5
:1000100009300008B1090008E96600080000000086
:100020000000000000000000000000001B010008AC
:10003000210B0008000000001F010008515A0008B1
:100040002301000823010008230100082301000800
:1000500023010008230100083D1000088710000854
:1000600097100008A7100008B71000082301000827
:1000700023010008230100082301000823010008D0
:1000800023010008230100082301000823010008C0
:10009000230100082301000823010008C7100008FD
:1000A00000000000230100082301000823010008CC
:1000B00023010008155C0008230100082301000843
:1000C0002301000823010008230100082301000880
:1000D00023010008996100088562000823010008D7
:1000E0004D100008C937000823010008230100084B
:1000F00023010008DFF80CD000F096FB0048004711
:1001000061700008781200200648804706480047C2
:10011000FEE7FEE7FEE7FEE7FEE7FEE7FEE7FEE7B7
:10012000FEE7FEE7C55B0008F500000840EA0103B2
:100130009B0703D009E008C9121F08C0042AFAD29D
:1001400003E011F8013B00F8013B521EF9D2704761
:10015000D2B201E000F8012B491EFBD27047002209
:10016000F6E710B513460A4604461946FFF7F0FFB6
:10017000204610BD30B505462A460B4612F8010B45
:1001800013F8014B08B1A042F8D01CB1002802D0EE
:100190006D1CF1E7284630BD421C10F8011B0029F8
:1001A000FBD1801A7047034611F8012B00F8012B90
:1001B000002AF9D11846704730B50546002003469D
:1001C00000E05B1C934205D2EC5CC85C201A01D1B4
:1001D000002CF6D130BD2DE9FE4F804681EA0300A8
:1001E000C00F0C46009021F0004123F00045B8EB11
:1001F0000200A94105D24046214690461C460B46C6
:10020000024623F00040104347D0270DC7F30A00F1
:10021000C3F30A510290401A019040286BDAC3F3ED
:10022000130040F4801B0098924620B10023D2EBCB
:10023000030A63EB0B0B01985946C0F1400250468C
:1002400000F01FFA06460D4650465946019A00F046
:1002500037FA10EB08006141002487EA115284EA62
:10026000E7731A4340D0009A62B3019A012A4FEA19
:10027000075215DC001B61EB02014FF0004202EA5D
:100280000752CDE90042001C41F5801132462B4651
:1002900000F037FA03B0BDE8F08F40462146F9E799
:1002A000001B61EB0201001C41F5801300185B414B
:1002B0002018A2F5001747EB030140EAD570B619E4
:1002C0006D4111E06D084FEA360645EAC0754FEA08
:1002D0000752001B61EB0201001C41F58011490827
:1002E0004FEA30000019514132462B4603B0BDE8B9
:1002F000F04F00F0F7B90098012240000023D0EB46
:10030000020263EBE073009821464FEAE074B8EB19
:10031000000061EB0401E9E783F000435BE781F053
:10032000004158E72DE9FE4F81EA030404F0004440
:1003300021F0004100944FF0000B23F0004350EAFD
:1003400001045ED052EA03045BD0C3F30A54C1F344
:100350000A552C44A4F2F3340194A0FB0254C1F3D7
:10036000130141F48011C3F3130343F4801301FB21
:10037000024400FB034E840A970A44EA815447EA88
:100380008357A4FB076802958D0A05FB07854FEA92
:10039000932C04FB0C542705029D4FEA065847EAAC
:1003A0001637B5EB08056EEB070C870E920E47EA81
:1003B000811742EA8312A7FB0201B6EB0B0164EB43
:1003C00000042B0D43EA0C335E1844EB1C50DA4654
:1003D0005146E7FB0201C5F313044FEA0B3343EA2E
:1003E00014534FEA0432019C43EA0603A4F10C04BF
:1003F0000294009CCDE900B400F083F903B0BDE89D
:10040000F08F00200146F9E72DE9F04D81EA030461
:1004100004F0004B21F0004514464FF0000A23F091
:10042000004150EA050220D054EA01021DD0C5F374
:100430000A570246C5F31303C1F31300C1F30A566A
:1004400040F4801543F48013A7EB0608101BD64632
:1004500008F2FD3873EB050002D308F1010801E052
:1004600092185B41B8F1000F03DA00200146BDE8A5
:10047000F08D00204FF48011064684460EE0171BD5
:1004800073EB050705D3121B63EB050306434CEA28
:10049000010C49084FEA300092185B4150EA01070D
:1004A000EDD152EA030012D082EA040083EA05018A
:1004B000084305D0101BAB4106D20122002306E001
:1004C00000224FF0004302E06FF0010253101AEBDC
:1004D00006004CEB085110EB0A0041EB0B01BDE8A4
:1004E000F04D00F0FFB870B521F0004303430CD08D
:1004F000C1F30A550024D5EB040564EB0403D617B9
:10050000AD1AB34102DB0020014670BD201841EB5B
:10051000025170BD0EB5C10F80EAE0700844CA07F1
:10052000002140F233438DE80E000A460B4600F0EE
:10053000E8F803B000BD0EB540F23341029100214E
:10054000CDE900110A460B4600F0DBF803B000BD10
:1005500070B5C1F30A5201F000450024C1F3130144
:1005600040F2FF3341F480119A4201DA002070BD5D
:1005700040F233439A42A2F2334203DC524200F08B
:100580008FF800E090402C43F1D0404270BDC1F3A1
:100590000A5210B5C1F3130140F2FF3341F4801148
:1005A0009A4201DA002010BD40F233439A42A2F28F
:1005B000334203DC524200F073F810BD904010BD8E
:1005C00030B5041E71F1000404DB4FF000444042DA
:1005D00064EB0101141E73F1000405DB1C464FF0AF
:1005E0000043524263EB04038B4208BF824230BD9A
:1005F00030B5041E71F1000404DB4FF000444042AA
:1006000064EB0101141E73F1000405DB1C464FF07E
:100610000043524263EB0403994208BF904230BD4D
:100620002DE9F05F0546002092469B468846064627
:10063000814640241BE0284641464746224600F0BA
:100640002FF853465A46C01A914110D31146184606
:10065000224600F016F82D1A67EB01084F46224695
:100660000120002100F00DF817EB00094E41201E7B
:10067000A4F10104DFDC484631462A464346BDE882
:10068000F09F202A04DB203A00FA02F10020704794
:100690009140C2F1200320FA03F3194390407047C0
:1006A000202A04DB203A21FA02F00021704721FAC7
:1006B00002F3D040C2F1200291400843194670472E
:1006C000202A06DBCB17203A41FA02F043EAE07316
:1006D00006E041FA02F3D040C2F120029140084303
:1006E0001946704710B5141E73F1000408DA401C57
:1006F00041F1000192185B411A4301D120F0010041
:1007000010BD2DE9F04D92469B4611B1B1FA81F230
:1007100002E0B0FA80F220329046FFF7B2FF0446C2
:100720000F4640EA0A0041EA0B0153465A46084385
:1007300013D0114653EA010019D0C8F140025046C7
:10074000FFF7AEFF05460E46504659464246FFF7B4
:1007500098FF084305D0012004E020463946BDE853
:10076000F08D0020054346EAE0762C4337430A9893
:100770006305E40AA0EB08000022FD0A44EA47549E
:100780000A3002D500200146E9E701051019694148
:10079000DDE9084500196941BDE8F04DA2E7000018
:1007A0002DE9F041054621F000400C46284309D0D0
:1007B000C4F30A5040F23341884205DD2846214601
:1007C000BDE8F0812846FBE740F2FE31884210DCAC
:1007D0000CDB4FEA043040EA155050EA053105D0F1
:1007E000104804F0004101430020E9E700200146E1
:1007F000E6E7A0F233404642C6F1400228462146D1
:10080000FFF73FFF07468846284621463246FFF756
:1008100047FF43463A46FFF765FF3246BDE8F041E1
:10082000FFF72FBF0000F03F064C074D06E0E068E1
:1008300040F0010394E8070098471034AC42F6D327
:10084000FFF75CFCC87B0008E87B0008014900203A
:10085000087070478C00002010B5040001D003F030
:100860005DFC0148C47010BD1C00002010B586B0AE
:100870001548FFF7EBFF154804F0E8FF03F0A8FE6A
:100880000024009423460322502102A8019400F082
:10089000ABFC009400230322512102A8019400F034
:1008A000A3FC002300941A462E2102A8019400F014
:1008B0009BFC002300941A462F2102A8019400F00B
:1008C00093FC06B010BD0000D80100200C0D0020E4
:1008D00072B602484178491C4170704718000020E8
:1008E00004494878401E10F0FF00487000D162B6FD
:1008F000704700001800002030B51B4D85B02878E7
:10090000A0B105F0FBF800BF4FF0FF3000900523C9
:1009100006220721154805F013F803F079FE287820
:10092000002801D10120287005B030BD00F05EFF25
:1009300005F096F803F0AAFB00240094012303229B
:10094000122102A8019400F04FFC0094002303221E
:10095000082102A8019400F047FC00F07DFD00F0A2
:100960006BFD00F071FDCFE7180000200C0D00209A
:100970001CB5002400942346012203210B48019456
:1009800000F032FC094800940023012218210C30A9
:10099000019400F029FC0121044800F04BFDBDE862
:1009A0001C40024801210C3000F044BDC001002071
:1009B000FEE7002202E010F8013B1A44491EC9B2CA
:1009C000F9D2D0B27047000010B5FF210448FFF7FC
:1009D000C6FB0449002008800349087010BD0000D0
:1009E000B40400203A0000203600002070B5002436
:1009F000B4F1010500F0F2FA28B1641CE4B2284613
:100A0000032CF7D370BD0024A51E06A108A000F09A
:100A10003BFA0028F6D0641CE4B22846032CF4D339
:100A200070BD0000313233343536373800000000F5
:100A300054502D4C494E4B5F343944313145000000
:100A40002DE9F041A0B00F46804600248021684681
:100A5000FFF785FB00F0BEF8022813D142F2FC1626
:100A6000B0F1050502F078FA314619A000F054F90A
:100A700030B1641CE4B2032CF4D302F06DFA1BE035
:100A800002F06AFA3B46424615A1684605F0A6FF09
:100A90006846FFF781FBC1B2684600F0F3F8002812
:100AA00002DA6FF0030507E00024651F18A11B4858
:100AB000FFF760FB20B1002520B02846BDE8F0819B
:100AC0000A2000F02EF8641CE4B2322CEED3F3E7D7
:100AD0003132302E37372E35382E333400000000B7
:100AE0007B2274223A312C22646576696365223A4E
:100AF000222573222C226B6579223A222573222C1F
:100B000022766572223A2276312E302E34227D00F2
:100B100022737461747573223A300000B4040020AB
:100B2000704700F0A1BC000038B529486A4601783A
:100B3000491C8DF800104178491C8DF8011081780E
:100B4000491C8DF80210C0780C21401C8DF8030060
:100B5000002005F0E9FE00210122084605F0A8FE6C
:100B600001221146002005F0A3FE0520FFF7D9FF62
:100B70000321002003F02AF8132805D010220121B8
:100B8000002005F095FE14E004220121002005F06C
:100B90008FFE0221002003F019F8040004D0024661
:100BA0000221002005F084FE0520FFF7BAFF200790
:100BB00001D5002038BD0621002003F007F8FF28EA
:100BC000E7D010220121002005F072FEFF2038BD81
:100BD0005500002000B5A1B080216846FFF7BFFA9C
:100BE000FFF7F2FE0FA1684605F0F8FE6846FFF732
:100BF000D3FAC1B2684604F0F1FD1420FFF791FF6B
:100C00000CA10E48FFF7B6FA4FF0FF3140B1C079A2
:100C10003038C0B2821E032A02D840B221B000BDD3
:100C20000846FBE741542B43495053544154555314
:100C3000000000005354415455533A00B4040020BE
:100C400010B50BA1FFF796FA002810D0002406215A
:100C500009A000F017F810F0FF0F03D0641CE4B2F5
:100C6000032CF4D3002D02D105490020088010BDCB
:100C700024234154230D0000244F4B23230D000057
:100C80000C00002070B5A0B00D460646002480215F
:100C90006846FFF764FAFFF797FE2A4616A16846F2
:100CA00005F09CFE6846FFF777FAC1B2684604F08B
:100CB00095FD0320FFF735FF13A11448FFF75AFAFB
:100CC00078B1FFF781FE2946304604F093FDA51E5A
:100CD0000FA10E48FFF74EFA30B10025284620B08C
:100CE00070BD4FF0FF30FAE76420FFF71AFF641C75
:100CF000E4B23C2CECD3F1E741542B43495053452B
:100D00004E443D25640000004F4B0000B404002019
:100D100053454E44204F4B0030B5A1B00C4605461C
:100D200080216846FFF71BFAFFF74EFE23462A464E
:100D300011A1684605F052FE6846FFF72DFAC1B2D0
:100D4000684604F04BFD02F007F94FF47A70FFF7A4
:100D5000E8FE02F001F94FF4FA70FFF7E2FE02F04C
:100D6000FBF80CA10C48FFF705FA10B1002021B0E8
:100D700030BD4FF0FF30FAE741542B4349505354F4
:100D80004152543D22544350222C222573222C25BB
:100D9000640000004F4B0000B404002030B5A1B047
:100DA0000C46054680216846FFF7D9F9FFF70CFE8F
:100DB00023462A4606A1684605F010FE6846FFF75E
:100DC000EBF9C1B2684604F009FD21B030BD000066
:100DD00041542B43495053544152543D22544350A3
:100DE000222C222573222C256400000070B5A0B0AF
:100DF0000C460646002580216846FFF7B0F92346D9
:100E000032460FA1684605F0E9FD6846FFF7C4F9D0
:100E1000C1B26846FFF736FF6C1E002805DB16A13D
:100E20001848FFF7A7F918B1002420B0204670BD7C
:100E30000A20FFF776FE6D1CEDB2322DEFD3F4E7FA
:100E40007B2274223A332C22646174617479706558
:100E5000223A312C226461746173223A7B22257319
:100E6000223A222573227D2C226D73676964223A0F
:100E70003030317D0000000022737461747573227C
:100E80003A300000B404002030B5A1B00C4605464D
:100E900080216846FFF763F9FFF796FD23462A464F
:100EA0001BA1684605F09AFD6846FFF775F9C1B2C7
:100EB000684604F093FC02F04FF84FF47A74204631
:100EC000FFF72FFE02F048F82046FFF72AFE02F057
:100ED00043F82046FFF725FE02F03EF82046FFF7D4
:100EE00020FE02F039F82046FFF71BFE02F034F82E
:100EF0006010FFF716FE02F02FF80BA10B48FFF76A
:100F000039F910B1002021B030BD4FF0FF30FAE7C1
:100F100041542B43574A41505F4355523D2225735C
:100F2000222C2225732200004F4B0000B404002025
:100F300030B5A1B00C46054680216846FFF70FF991
:100F4000FFF742FD23462A461CA1684605F046FDF0
:100F50006846FFF721F9C1B2684604F03FFC01F092
:100F6000FBFF4FF4FA70FFF7DCFD01F0F5FF4FF4E3
:100F70007A742046FFF7D5FD01F0EEFF2046FFF71B
:100F8000D0FD01F0E9FF2046FFF7CBFD01F0E4FFC3
:100F90002046FFF7C6FD01F0DFFF2046FFF7C1FD49
:100FA00001F0DAFF0BA10C48FFF7E4F810B10020C4
:100FB00021B030BD4FF0FF30FAE7000041542B4321
:100FC000574A41505F4355523D222573222C22251A
:100FD000732200004F4B0000B404002010B5FFF74F
:100FE000F3FC0F210FA004F0F9FB01F0B5FF4FF463
:100FF0007A742046FFF795FD01F0AEFF2046FFF71B
:1010000090FD01F0A9FF2046FFF78BFD01F0A4FF42
:1010100008A10948FFF7AEF808B1002010BD4FF055
:10102000FF3010BD41542B43574D4F44455F43554E
:10103000523D31004F4B0000B404002010B503F0C6
:101040006DF8BDE81040012000F0B6BA10B503F00D
:1010500065F84FF4806000F0AFFA4FF4006000F0E4
:10106000ABFA4FF4805000F0A7FA4FF4005000F0B4
:10107000A3FA4FF4804000F09FFABDE810404FF40F
:10108000004000F099BA10B503F048F8BDE81040F0
:10109000022000F091BA10B503F040F8BDE810400E
:1010A000042000F089BA10B503F038F8BDE810400C
:1010B000082000F081BA10B503F030F8BDE8104008
:1010C000102000F079BA10B503F028F8202000F0C5
:1010D00073FA402000F070FA802000F06DFA4FF4AF
:1010E000807000F069FABDE810404FF4007000F025
:1010F00063BA0000074900224A6107490B6843F4BC
:1011000000730B600B6843F008030B6020F0FF00D6
:1011100002607047C8050020043C02400F4A0021CD
:101120001068C3050E4804D5416941F002014161D0
:10113000911513689B0505D5436943F0010343618D
:1011400041F4007113681B0505D5436943F004039E
:10115000436141F40061116070470000183C024097
:10116000C805002070B5054600F002FB0646114C8C
:1011700009E0681C07D025B100F0FAFA801BA842EC
:1011800001D9032070BD2068C007F2D12068800714
:1011900001D5022020602068C00505D42068000524
:1011A00002D42068800503D5FFF7B8FF012070BD89
:1011B000002070BD183C024000207047094A002101
:1011C00052F83130834208D802EBC1039B68834256
:1011D00003D902EBC10000797047491CC9B2152937
:1011E000EED3FEE7187B00087CB5DDE90645CDE9C6
:1011F000004500F001F87CBDF0B587B00546DDE99B
:101200000C760170481C6AD001F00F04012000FA2E
:1012100004F46C80334C11F0F00F1FD0C1F30311B4
:10122000012925D002292DD0032935D02E49696006
:10123000216841F020012160216801F02001059121
:1012400069880091AF720221CDE9027172B3032A5D
:101250002ED0022A2FD0012B35D035E023496960EA
:10126000216841F001012160216801F00101E6E7F8
:101270001F496960216841F002012160216801F085
:101280000201DCE71B496960216841F0040121602B
:10129000216801F00401D2E717496960216841F033
:1012A00008012160216801F00801C8E7002000E082
:1012B000032001900FE0012B02D0019104960AE077
:1012C00012200190FAE711200190012A03D1314642
:1012D000284600F0A1F86946686800F079F907B07F
:1012E000F0BD00001C380240001402400000024023
:1012F0000004024000080240000C024090F9001077
:10130000491C03D04188406800F028BA002070478B
:101310002DE9F04186B01F00904605464FF00006CB
:101320004FF006046CD068880090012916D002297D
:1013300016D035480190A87A0290022003906946A1
:10134000686800F045F95FEA08000BD0012809D071
:10135000022809D0B8F1030F09D107E02B48E9E7CB
:101360002B48E7E7032602E0022600E00126688812
:10137000B0F5807F33D012DC10282ED008DC012895
:1013800030D0022823D0042823D008282AD122E0F4
:10139000202824D0402822D0802823D11FE0B0F577
:1013A000805F1ED009DCB0F5007F18D0B0F5806FEB
:1013B00017D0B0F5006F15D113E0B0F5005F10D075
:1013C000B0F5804F0DD0B0F5004F0BD109E00724E8
:1013D00008E0082406E0092404E00A2402E01724B7
:1013E00000E0282428780B4900F00F00002241F883
:1013F00020703146204600F025FA204600F017FA0A
:1014000006B0BDE8F08100000000311000001110AE
:10141000000021105402002090F90020521C04D03A
:10142000CAB24188406800F09EB97047FFF766BFB6
:10143000FFF76EBFFFF7F0BF0248416841F00101BE
:1014400041607047002004E00248416841F0040117
:1014500041607047002004E00248416841F0020109
:1014600041607047002004E031B500F081F9044686
:1014700000F07EF90099001B8842F9D338BD0000C6
:101480002DE9F0471C4E05460F46307C012808D058
:10149000012030744CF250384046FFF763FE18B11B
:1014A00027E00220BDE8F0874FF0FF313960C146E8
:1014B000DFF848806C6816E02046FFF71BFE4846C0
:1014C000FFF750FED8F8002022F00802C8F80020EC
:1014D000D8F8002022F40072C8F8002008B13C605F
:1014E00007E004F58074D5E9011201EB0221A14265
:1014F000E2D800213174D5E7C8050020043C024041
:101500000348016841F002010160002070470000BB
:10151000043C02402DE9F0410C4C16460F46207C5D
:10152000012809D0012020744CF250384046FFF7C2
:1015300019FE002518B107E00220BDE8F0816561C1
:101540003E604046FFF70EFE2574F6E7C805002012
:101550000B480168890710D50068C00705D0084806
:1015600008490830016008490160054807490C3006
:1015700001600749016000207047012070470000AA
:10158000043C0240EFCDAB8905040302BFAE9D8C45
:1015900016151413002118B904E04008491CC9B2FB
:1015A0000128FAD1034850F82100002800D0004754
:1015B0007047000054020020044910B50A68024236
:1015C00002D00860FFF7E6FF10BD000014040140E0
:1015D0002DE9F84FDFF864B100234FF0010C4FF014
:1015E000030A4FF00F090BF1040EA0E00CFA03F60A
:1015F000324072D04C68022C01D0122C0ED1DC0883
:1016000000EB8408D8F820405D07EF0E09FA07F5D3
:10161000AC430D69BD402543C8F8205007685D0004
:1016200091F804800AFA05F408F00308A74308FAC1
:1016300005F848EA0708C0F800804F68012F05D078
:10164000022F03D0112F01D0122F11D18768D1F8AA
:101650000C80A74308FA05F848EA0708C0F8088094
:101660004768B7430E79C6F300169E403E43466076
:10167000C668A6438C68AC403443C4604C68E40040
:1016800054D52F4C256845F001052560246823F0CA
:10169000030504F0010400942A4C2544AF689C071C
:1016A000240F09FA04F6B743274EB04201D10026B1
:1016B00015E0264EB04201D1012610E0244EB04282
:1016C00001D102260BE0234EB04201D1032606E0F1
:1016D000214EB04202D1042601E027E00526A640B3
:1016E0003E43AE60DBF800405D464E689443F6032F
:1016F00000D514432C60DEF8004075464E689443D4
:10170000B60300D514432C600C4D08352C684E6888
:101710009443F60200D514432C60084D0C352C6818
:101720004E689443B60200D514432C605B1C0A68D3
:1017300032FA03F47FF45AAFBDE8F88F0004014099
:101740002038024000000140000002400004024036
:1017500000080240000C02400010024000690840EE
:1017600000D0012070470AB1816170470904FBE78E
:1017700001480068704700004000002070B5040078
:1017800011D021684CF6CC400860216845F25550D4
:101790000860D4E9000141602168A0688860FFF713
:1017A000E7FF054609E0012070BD00BFFFF7E0FF3D
:1017B000401B302801D9032070BD2068C068002874
:1017C000F4D121684AF6AA200860002070BD0068A4
:1017D0004AF6AA2101600020704700000248016813
:1017E000491C0160704700004000002010B5032034
:1017F00000F048F8002000F005F800F017F800208D
:1018000010BD000010B5044607484FF47A71006817
:10181000B0FBF1F001F0F9F900222146501E00F072
:1018200011F8002010BD00003C000020704700F0BF
:101830001F02012191404009800000F1E020C0F822
:1018400000117047F0B40E4B1B680C46C3F3022323
:10185000C3F10705042D00D90425191D072901D25C
:10186000002300E0DB1E012606FA05F1491E214097
:1018700099409E40761E16403143F0BC01F0C6BB35
:101880000CED00E0064900F0070208684FF6FF0380
:10189000184040EA0220034A1043086070470000E5
:1018A0000CED00E00000FA050120810291FAA1F19F
:1018B000024AB1FA81F142F82100704700000E425D
:1018C0000120410291FAA1F1024AB1FA81F142F8F4
:1018D0002100704700000E420248006800F4C0502A
:1018E00070470000007000400020102191FAA1F123
:1018F000024AB1FA81F142F82100704700000E421D
:101900000B4A136823F0030303431360094802687A
:1019100042F004020260012907D040BF20BF20BF6F
:10192000016821F004010160704730BFF8E7000052
:101930000070004010ED00E02DE9F84F06460078F9
:10194000C00775D0DFF84C810027D8F80000C00030
:101950000BD4D8F8001041F08051C8F80010D8F826
:101960000000012700F0805000904B4C2068C0051B
:1019700010D4206840F480702060FFF7F9FE05461F
:1019800005E000BFFFF7F4FE401B64284ED8206836
:10199000C005F7D53F4D243D286800F0C041706870
:1019A00000F0C0428A4209D0C0F30141032905D1A9
:1019B0002968890302D50120BDE8F88F354C103421
:1019C000216811F440314AD000F44030884246D0BA
:1019D0003078C00743D020684FF4000292FAA2F199
:1019E000B1FA81F14FEA810C2C494FF0010A8C4485
:1019F00020F44030CCF880A692FAA2F2B2FA82F239
:101A000001EB82010023C1F880362060C00526D595
:101A1000FFF7AEFE81464FF4007B0AE0FFF7A8FE19
:101A2000A0EB090141F28830814202D90320C3E7CB
:101A30002EE09BFAABF0B0FA80F040F04001BAEB38
:101A4000511F01D1296800E021689BFAABF2B2FA7C
:101A500082F202F01F020AFA02F00142DED0706840
:101A6000C0F30141032906D1296800F0C04021F0EC
:101A7000C041014329602068716801F44031084386
:101A800020602FB1D8F8001021F08051C8F8001064
:101A9000002091E7243802400070004000004742D7
:101AA0002DE9F047DFF8BC8105460E46D8F8000066
:101AB00000F00100B04214D2012E05D1D8F8001078
:101AC00041F00401C8F80010D8F8001021F001011D
:101AD0003143C8F80010D8F8000000F00100B0420F
:101AE00071D12878604C800705D52068A96820F05E
:101AF000F000084320602878C00771D05A4A5A4B3A
:101B000069680120083A2C33022910D003292ED00D
:101B100001292FD05FEA402797FAA7FCBCFA8CFC7A
:101B20004CF0200C5FEA5C1C04D0126803E04FF418
:101B30000037F1E71A6897FAA7F3B3FA83F303F0D3
:101B40001F039840024262D0206820F0030008433F
:101B50002060FFF70DFE6968074641F288300229D0
:101B600010D003291CD00129814626D034E04FF043
:101B70000077D1E70227CFE7FFF7FAFDC11B494500
:101B800001D926E081462068C0F381000228F3D104
:101B900026E000BFFFF7ECFDC11B494501D918E065
:101BA00081462068C0F381000328F3D118E000BF0C
:101BB000FFF7DEFDC11B49450BD82068C0F381004B
:101BC0000128F5D10CE022E0FFF7D2FDC11B494509
:101BD00002D90320BDE8F087206810F00C0FF3D184
:101BE000D8F80010404601F00101B14211D9012E90
:101BF00003D1016841F004010160016821F0010195
:101C000031430160006800F00100B04201D00120C2
:101C1000E0E72878400705D52068E96820F4E0600F
:101C2000084320602878000706D52068296920F439
:101C3000605040EAC100206000F052F82168F022B4
:101C400092FAA2F201F0F001B2FA82F2D140074A10
:101C5000515CC840064908600020FFF7D3FD002012
:101C6000B8E70000003C024008380240CD7A000886
:101C70003C00002001480068704700003C00002044
:101C800008480949006809684FF4E06292FAA2F234
:101C900001F4E061B2FA82F2D140044A515CC840DA
:101CA000704700003C00002008380240DD7A000840
:101CB00008480949006809684FF4605292FAA2F294
:101CC00001F46051B2FA82F2D140044A515CC8403A
:101CD000704700003C00002008380240DD7A000810
:101CE0001E4A116801F00C00042813D0082813D0F4
:101CF0000C2813D0101F006800F460414FF46040BE
:101D000090FAA0F0B0FA80F0C1404FF40040491CB6
:101D10008840704712487047124870474FF470135C
:101D200093FAA3F301F47010B3FA83F3D8400E4B87
:101D300001F440011268185C4FF4400393FAA3F3D6
:101D4000B3FA83F3D940491CD20301D5054A00E018
:101D5000034A5043B0FBF1F07047000008380240DE
:101D60000024F40000127A00C47A00082DE9F84F2C
:101D700007460078FB4EFC4DC0074FF0010428D009
:101D8000F848083001684FF40038C1F38101022996
:101D900007D00168C1F3810103291BD10068C0038A
:101DA00018D598FAA8F0B0FA80F040F02000400969
:101DB00001D0306800E0286898FAA8F1B1FA81F102
:101DC00001F01F0104FA01F108425CD07868002894
:101DD0007BD058E0786801280AD008B1052811D0D6
:101DE000306820F480303060306820F4802002E0D9
:101DF000306840F480303060786828B3FFF7B8FC72
:101E000081460BE0306840F480203060F0E700BF8E
:101E1000FFF7AEFCA0EB0900642872D898FAA8F08E
:101E2000B0FA80F040F02000400901D0306800E0B6
:101E3000286898FAA8F1B1FA81F101F01F0104FABB
:101E400001F10842E4D01EE0FFF792FC814605E074
:101E5000FFF78EFCA0EB09006428DED898FAA8F002
:101E6000B0FA80F040F02000400901D0306800E076
:101E7000286898FAA8F1B1FA81F101F01F0104FA7B
:101E800001F10842E4D13878DFF8E08280074FF0B2
:101E9000000B4FF002095FD5B24808300168C1F36A
:101EA0008101012907D00168C1F3810103291CD1F7
:101EB0000068C00319D499FAA9F0B0FA80F040F094
:101EC0002000400902D0306801E086E0286899FAD5
:101ED000A9F1B1FA81F101F01F0104FA01F1084200
:101EE0002BD0F868012878D127E0F868A8B394FAD5
:101EF000A4F0B0FA80F048F82040FFF739FC8246A1
:101F000006E066E1FFF734FCA0EB0A00022884D863
:101F100099FAA9F1B1FA81F141F02001490901D002
:101F2000316800E0296899FAA9F0B0FA80F000F071
:101F30001F0004FA00F00142E4D08A48001D016845
:101F40004FF4F85393FAA3F33A69B3FA83F321F405
:101F5000F8519A401143016025E0FFE794FAA4F19B
:101F6000B1FA81F148F821B0FFF702FC824605E0A2
:101F7000FFF7FEFBA0EB0A000228C8D899FAA9F0E7
:101F8000B0FA80F040F02000400901D0306800E055
:101F9000286899FAA9F1B1FA81F101F01F0104FA58
:101FA00001F10842E4D138784FF4007AC0067CD5BC
:101FB0006C480830006810F00C0F0FD0B9694FF46E
:101FC0008070002972D090FAA0F0B0FA80F048F842
:101FD0002040FFF7CDFB00907EE087E09AFAAAF060
:101FE000B0FA80F040F02000400901D0306800E0F5
:101FF00028689AFAAAF1B1FA81F101F01F0104FAF6
:1020000001F1084202D0B86900286FD05548396AFA
:10201000001D006800F4604081421AD9084601F0B2
:1020200097FB002862D14F48001D01683A6A21F4ED
:1020300060411143016001684FF07F4393FAA3F3BD
:10204000FA69B3FA83F321F07F419A4011430160AA
:1020500018E04448001D026822F460420A4302600E
:1020600001684FF07F4393FAA3F3FA69B3FA83F35D
:1020700021F07F419A4011430160386A01F068FB0A
:102080000028CFD14FF4604191FAA1F1386AB1FA3A
:1020900081F1C8404FF40041401C81403148083074
:1020A0000068F02200F0F00001E070E040E092FAF9
:1020B000A2F2B2FA82F2D0402D4A105CC1402D4803
:1020C00001600020FFF79EFB61E000BFFFF750FBBF
:1020D0000099401A02287CD89AFAAAF0B0FA80F047
:1020E00040F02000400902D0306801E0BCE12868DF
:1020F0009AFAAAF1B1FA81F101F01F0104FA01F193
:102100000842E3D01748001D01683A6A21F4604193
:102110001143016001684FF07F4393FAA3F3FA691A
:10212000B3FA83F321F07F419A40114301602EE01E
:1021300090FAA0F0B0FA80F048F820B0FFF718FB52
:10214000009005E0FFF714FB0099401A0228C2D85E
:102150009AFAAAF0B0FA80F040F0200040090BD0C3
:1021600030680AE00038024034380240000047423C
:10217000CD7A00083C00002028689AFAAAF1B1FA4A
:1021800081F101F01F0104FA01F10842DAD1387837
:10219000000753D5786948B394FAA4F0B0FA80F0F8
:1021A00008EB8000C0F88046FFF7E2FA009005E0F7
:1021B000FFF7DEFA0099401A02288CD899FAA9F0A4
:1021C000B0FA80F040F04000B4EB501F02D130680C
:1021D00001E08EE0286899FAA9F1B1FA81F101F0E5
:1021E0001F0104FA01F21042E2D027E094FAA4F1B0
:1021F000B1FA81F108EB8101C1F880B6FFF7B8FAB6
:10220000009005E0FFF7B4FA0099401A022870D850
:1022100099FAA9F0B0FA80F040F04000B4EB501FFA
:1022200001D1306800E0286899FAA9F1B1FA81F18A
:1022300001F01F0104FA01F21042E3D1387840079F
:102240007BD59B484FF000090068C0000AD498482D
:10225000016841F08051016000684FF0010900F011
:102260008050009093480168C90511D4016841F479
:1022700080710160FFF77CFA009005E0FFF778FAC3
:102280000099401A642834D88A480068C005F5D5FA
:10229000B86801280AD008B1052811D0286820F4B0
:1022A00080702860286820F4806002E0286840F48C
:1022B00080702860B86848B3FFF75AFA00900DE0C4
:1022C000286840F480602860F0E700BFFFF750FA0C
:1022D0000099411A41F2883081420AD89AFAAAF04C
:1022E000B0FA80F040F04000B4EB501F02D13068EB
:1022F00001E095E028689AFAAAF1B1FA81F101F0BB
:102300001F0104FA01F21042E0D022E0FFF730FA98
:10231000009007E0FFF72CFA0099411A41F288304B
:1023200081427DD89AFAAAF0B0FA80F040F04000DD
:10233000B4EB501F02D1306801E012E028689AFA2D
:10234000AAF1B1FA81F101F01F0104FA01F2104281
:10235000E0D1B9F1000F04D05548016821F0805157
:102360000160786AE8B3DFF84891A9F11C09D9F84F
:102370000010C1F38101032976D002284FF080714B
:102380004FF0007A58460BD091FAA1F1B1FA81F1E1
:1023900048F82100FFF7ECF9B046074656466DE0D5
:1023A0004FF0807191FAA1F1B1FA81F18A004249AE
:1023B0005050FFF7DDF9B3468046564606E000BFB1
:1023C000FFF7D6F9A0EB0800022854D896FAA6F039
:1023D000B0FA80F040F02000400903D0DBF80000A4
:1023E00001E061E0286896FAA6F1B1FA81F101F006
:1023F0001F0104FA01F10842E2D1D7E90A103A6B51
:10240000D9F80030014323F47D031A431143C9F87E
:1024100000104FF0807090FAA0F0B0FA80F000E069
:1024200029E0810024480C50FFF7A2F9074604E098
:10243000FFF79EF9C01B02281DD896FAA6F0B0FA45
:1024400080F040F02000400902D0DBF8000000E0FE
:10245000286896FAA6F1B1FA81F101F01F0104FA99
:1024600001F10842E4D01FE020E000BFFFF780F94F
:10247000C01B022802D90320BDE8F88F96FAA6F007
:10248000B0FA80F040F02000400902D0D8F80000F7
:1024900000E0286896FAA6F1B1FA81F101F01F0177
:1024A00004FA01F10842E1D10020E5E70120E3E769
:1024B00024380240007000400000474270472DE978
:1024C000F0470446007F01281CD001262677022011
:1024D00060772168CA2048622168532048622068DA
:1024E000816821F4806181602068816821F48041E5
:1024F0008160FFF73DF9054600274FF0FF084FF4D4
:102500007A790EE00220BDE8F087FFF731F9401B31
:10251000484506D92168C1F82480032060772777D1
:10252000F1E72068C0684007EFD52168C1F8248032
:10253000667727770020E6E77047000010B504466D
:1025400000688168C9040CD5C068C00509D520465B
:10255000FFF7F2FF2068C16801F0800161F4C071EB
:10256000C1602068816889040CD5C068800509D5E0
:102570002046FFF7A3FF2068C16801F0800161F4E5
:102580002071C16003494FF400300860012060777A
:1025900010BD0000140401402DE9F0470446007FFF
:1025A000012822D04FF0010884F81C8002206077B7
:1025B0002268CA2050622268532050622068002599
:1025C000FF26B1F5807F81684FF0030A4FF47A79D6
:1025D0000ED021F4007181602068816821F40051DF
:1025E0008160FFF7C5F8074624E00220BDE8F087C8
:1025F00021F4807181602068816821F480518160BC
:10260000FFF7B6F8074604E0FFF7B2F8C01B4845ED
:1026100009D82068C068C007F6D00FE0FFF7A8F817
:10262000C01B484506D92068466284F81DA025775E
:102630000320DBE72068C0688007EFD5206846628A
:1026400084F81D8025770020D0E710B50C464FF4A4
:1026500080718A4203D1A1610068C16904E04FF42E
:102660000071A1610068016AC1F305402070C1F3E7
:102670000622627001F07F02A270402202EA11423B
:10268000E270C1F30562227501F0804201F08031F1
:10269000C4E9031273B901F0ADF82070607801F05D
:1026A000A9F86070A07801F0A5F8A070207D01F075
:1026B000A1F82075002010BD10B500680B464168D8
:1026C0000D480140080CD870C1F304245C7001F07F
:1026D0003F049C70C1F34231197052B901F08AF87D
:1026E000D870587801F086F85870987801F082F820
:1026F0009870002010BD00003FFFFF0010B500687B
:102700000C4601680E480140C1F305402070C1F33A
:102710000623637001F07F03A370402303EA114195
:10272000E17052B901F066F82070607801F062F84B
:102730006070A07801F05EF8A070002010BD00006D
:102740007F7F7F0070B5040002D0607F10B106E08B
:10275000012070BD00202077204600F041F80220C3
:1027600060772168CA204862216853204862204669
:1027700001F054F8FF210028206803D041620420B2
:102780006077E5E78268154B1A408260226890689E
:1027900063681843D4E904352B43184390602268DA
:1027A000E068106120680269238942EA03420261FD
:1027B0002068C26822F08002C2602068026C22F4A5
:1027C000802202642068026CA3691A4302642068B4
:1027D000416201206077002070BD0000BFFF8FFFC5
:1027E000704700002DE9F05F0446007F0D46012888
:1027F00044D04FF0010B84F81CB0022060772068B1
:10280000002780684FEA4060BAB3002852DA28787F
:1028100000F0F0FF287D00F0EDFFA8782978EA7835
:1028200040EA01406978090241EA02410843297DF2
:1028300040EA0166286921680643E8680643CA2021
:102840004862216853204862A869FF25B0F5807F5F
:1028500020684FF0030A4FF47A7981682CD021F474
:10286000007181602068C16801F0800161F420710D
:10287000C160FEF77DFF80464FE002E00220BDE828
:10288000F09F002800DBEF70287800F0BCFF060402
:10289000687800F0B8FF46EA0026A87800F0B3FF99
:1028A0000643E87846EA0046287D00F0ACFF46EA99
:1028B0000066BFE7EF70ADE721F4807181602068AA
:1028C000C16801F0800161F4C071C160FEF750FF82
:1028D000804605E0FEF74CFFA0EB0800484515D800
:1028E0002068C068C007F5D02068C661206881688C
:1028F00041F4807181602068816841F480511BE05F
:10290000FEF736FFA0EB0800484506D9206845626F
:1029100084F81DA027770320B1E72068C0688007EE
:10292000EED5206806622068816841F400718160FC
:102930002068816841F4005181600948016841F4D0
:102940000031016006480830016841F4003101603F
:102950002068456284F81DB0277700208FE70000CB
:10296000000401402DE9F0470446007F0B46012892
:1029700025D04FF0010984F81C9002206077587828
:1029800002B300F037FF987800F034FF9878D978D8
:1029900040EA014558781978000240EA4130054381
:1029A0002168CA204862216853204862204600F00E
:1029B00035FF0026FF274FF0040838BB19E002203E
:1029C000BDE8F087C10603D500F0EF000A3058706B
:1029D000D87800F018FF0204587800F014FF42EA9B
:1029E0000022987800F00FFF0243187842EA403541
:1029F000D6E70D480540206845602068C16821F091
:102A00008001C160204600F085F830B1206847623F
:102A100084F81D8026770120D2E72068476284F879
:102A20001D9026770020CBE73FFFFF002DE9F04700
:102A30000446007F0D46012811D04FF0010A84F8AA
:102A40001CA0022060772068002680684FEA406062
:102A500042B100281ADA287800F0CCFE17E00220F4
:102A6000BDE8F087002800DBEE70287800F0CBFE90
:102A70000204687800F0C7FE42EA0022A87800F05D
:102A8000C2FE0243E87842EA00470AE0EE70A87806
:102A9000297840EA01476878E978000240EA014075
:102AA00007432168CA2048622168532048622046B3
:102AB00000F0B4FE4FF0FF084FF00409C0B914480D
:102AC0000740206807602068816821F480218160C8
:102AD000D5E90101084321688A68104388602068AD
:102AE000C16821F08001C160204600F013F838B1C0
:102AF0002168C1F8248084F81D9026770120AFE773
:102B00002168C1F8248084F81DA026770020A7E75B
:102B10007F7F7F0070B504460068C16821F0A00186
:102B2000C160FEF725FE05464FF47A7607E000BF48
:102B3000FEF71EFE401BB04201D9032070BD206885
:102B4000C0688006F4D5002070BD10B504000ED01A
:102B50002068016821F040010160204600F046F83D
:102B60000020606584F8510084F8500010BD0120F9
:102B700010BD70B5040004D094F85100002510B1C8
:102B800006E0012070BD84F85050204600F02FF878
:102B9000022084F851002068016821F040010160A2
:102BA000D4E901010843D4E90312114308436169E0
:102BB0000843218B01F400710843E1690843216A4D
:102BC0000843A16A084321680860A069042101EA5A
:102BD0001040616A0843216848602168E06A086122
:102BE0006565012084F85100002070BD7047704772
:102BF0004FF0E0210428086903D020F004000861A8
:102C0000704740F00400FAE7704710B5401EB0F17D
:102C1000807F01D3012010BD4FF0E02460610F21BF
:102C2000601700F0F3F90020A06107202061002068
:102C300010BD10B5FFF7E8FF10BD10B5040003D0BC
:102C400094F8350010B107E0012010BD002084F891
:102C50003400204600F00CF8022084F83500211DD5
:102C6000206802F0F3FF012084F83500002010BD39
:102C700008B500680B49884212D10B48016841F041
:102C8000020101600068032200F0020000900121AF
:102C90001D20FEF7D7FDBDE808401D20FEF7C7BD8B
:102CA00008BD000000040040243802400168CA68E2
:102CB00042F00102CA600068016841F00101016050
:102CC00000207047704770B50446006801694FF0F6
:102CD0000005C943890715D4C168C943890711D4C0
:102CE000E91E016101202075206880698007204667
:102CF00002D0FFF7E7FF04E000F078F8204600F08C
:102D000076F8257520680169C943490717D4C16859
:102D1000C943490713D46FF00401016102202075F3
:102D20002068806910F4407F204602D0FFF7CAFF78
:102D300004E000F05BF8204600F059F825752068A3
:102D40000169C943090716D4C168C943090712D4E8
:102D50006FF008010161042020752068C0698007B8
:102D6000204602D0FFF7AEFF04E000F03FF8204617
:102D700000F03DF8257520680169C943C90617D4DC
:102D8000C168C943C90613D46FF01001016108205E
:102D900020752068C06910F4407F204602D0FFF7FC
:102DA00091FF04E000F022F8204600F020F825759D
:102DB00020680169C943C90708D1C168C943C90767
:102DC00004D1891E0161204600F012F820680169D3
:102DD000C943490609D4C168C943490605D46FF0FF
:102DE00040010161204600F04FF870BD7047704708
:102DF0001B4910B5884232D11A494CF25A32088820
:102E0000904202D2401C088000E00A801648016807
:102E1000491C01601549097811B14168491C41609C
:102E2000134A00200123117851B112490C78641C17
:102E3000E4B20C70032C03D9107008700E490B70AB
:102E40000E4C217800290AD00D490A78521CD2B2C2
:102E50000A70032A03D9207008700A48037010BD55
:102E6000340E00200C0000209C0000200A000020EE
:102E70003100002032000020300000203700002008
:102E80003800002036000020704770B5040004D0E0
:102E900094F83900002510B106E0012070BD84F8D7
:102EA0003850204600F020F8022084F839002068CD
:102EB000C16821F40051C160204603F013F8206876
:102EC000016921F4904101612068416921F02A01E2
:102ED00041612068C16841F40051C160E56301208F
:102EE00084F83900002070BD7047000090F8393038
:102EF000012B01D0122B2CD139B332B390F83830DA
:102F0000012B26D0012380F8383081628285C2856A
:102F10000021C16390F83920122A18D05FF02202F4
:102F200080F8392080F838100168CA6842F480724D
:102F3000CA6001684A6942F001024A610068C168DA
:102F400041F02001C160002070470120704732220B
:102F5000E6E70220704700000148FEF738BC000099
:102F60006C0E0020044A034B1360C2E901011046B5
:102F7000FEF704BC003000406C0E002030B51A484B
:102F8000C023A821037041700E228270FE24C470F9
:102F90001648FF240C250470447084700024C4700B
:102FA0001348057019254570AB2585707C25C570C3
:102FB0000471012444710F48B4250370417082707C
:102FC000C5700D4813250570882545700B480370A2
:102FD00041708270B221C1700948172101707021BF
:102FE00041700848047030BD4D00002051000020A1
:102FF00061000020550000204700002059000020FB
:103000004900002067000020FEE770470907090E0D
:10301000002806DA00F00F0000F1E02080F8141D0F
:10302000704700F1E02080F8001470471CB54FF0A5
:10303000FF3000901D231E221F210A4802F080FC51
:103040000120009002460190064800231C217C309C
:10305000FEF7CAF8FFF792FF03F048FBBDE81C40FB
:1030600003F0B6BBE00500202DE9F0410746094812
:103070001E461546C06A0C4680472246064C394615
:103080000648E281FDF752F8A570E67001206070F5
:10309000BDE8F081687A000800000020A40000204C
:1030A000034810B5C06A804702490320487010BD2C
:1030B000687A000800000020034810B5C06A804705
:1030C00002490220487010BD687A00080000002004
:1030D000034810B5C06A804702490420487010BDFB
:1030E000687A000800000020034810B5C06A8047D5
:1030F00002490520487010BD687A000800000020D1
:1031000010B5064802F0A8FE05484178002903D012
:10311000002141700121017010BD0000A0040020B9
:103120003000002010B5064802F096FE05484178B0
:10313000002903D0002141700121017010BD000061
:10314000B4050020360000202DE9F04F85B0802125
:10315000FC48FDF704F8FF21FB48FDF700F8F948AB
:10316000FF22FA498030FCF7E1FF03F055F8F54FF4
:103170008037387877287DD1F54C7878E071FF2852
:1031800078D2FFF7E9FEB878DFF8C8A30026EE4D45
:103190004FF0BB084FF02C0B4FF00A0980286AD083
:1031A00008DC4FF00409062866D2DFE800F0650C61
:1031B0007ED8F6F5812873D0822872D0832871D00A
:1031C000842859D18BE2DF48E1798030FDF7F1FBAB
:1031D000E179795C8842F4D185F8008085F8019026
:1031E0000120A870EE700421D748FDF7E2FB28719A
:1031F0002672E079D84A06E07B18DB782C2B05D0C4
:103200005354491C2172217A8142F5D3D24B667204
:10321000CAB2803307E08D183D442D790A2D05D0C0
:103220005D54491C6172617A8142F4D3CA48FCF74B
:10323000B3FF401C2070C8488030FCF7ADFF401C35
:1032400060702278C449C54801F028F8C249627804
:103250008031C34801F022F82178C24803F0DCFA3B
:103260006178C14803F0D8FA0521B74802F0E8FFB9
:10327000A67202E05AE231E146E26FF0010500BFBA
:10328000FFF76AFEB449B4488031FDF751FE50B1F2
:10329000A570A07A401CC0B2A0720228F0D340E210
:1032A000ACE1D2E103E2A6703BE2A648E1798030CE
:1032B000FDF77FFBE179795C8842F0D185F80080E9
:1032C00085F801900220A870EE7004219E48FDF759
:1032D00070FB287105219C4802F0B2FF99489C4D73
:1032E00081301035D0F802002061F879397A2E2328
:1032F00041EA0021A181AA78E9782E20CDE90102D6
:10330000CDE90301687800908E482A7897A180382B
:1033100003F064FB8B48A1898038FDF73FFD8948A5
:103320008038FCF739FF401CC2B28649A27180394F
:10333000924800F0B3FFA189914803F06DFAE87854
:10334000A978000640EA0140697840EA012029781E
:1033500001438C4803F060FAA1798B48BBE07948BF
:10336000E1798030FDF725FBE179795C884296D1DF
:1033700085F8008085F801900320A870EE70042184
:103380007148FDF716FB287105216F4802F058FFC0
:103390002672E0797D4A08E075E057E07B18DB781B
:1033A0002C2B05D05354491C2172217A8142F5D32C
:1033B000654B6672CAB2803B07E08D183D442D799B
:1033C0000A2D05D05D54491C6172617A8142F4D3A3
:1033D0006E48FCF7E1FE401CE0705B488038FCF76B
:1033E000DBFE401C207180216948FCF7B8FE564B7B
:1033F000664A803B67A1534803F0F0FA5148FCF756
:10340000CBFEC5B22A4670A1614803F0E7FA6048D6
:10341000FCF7C2FEC1B25E4802F0E0F92946494815
:1034200002F0E8F9FDF7D0FAE27858496A4800F06E
:1034300035FF454922798039684800F02FFFE1784F
:10344000674803F0E9F92179664844E03D48E179AD
:103450008030FDF7AEFAE179795C884287D185F852
:10346000008085F8019085F80290EE7004213648BE
:10347000FDF79FFA28710521334802F0E1FEF97843
:103480006171594827E02F48E1798030FDF791FAC2
:10349000E179795C8842E1D185F8008085F8019076
:1034A0000520A870EE7004212748FDF782FA2871E4
:1034B0000521254802F0C4FEF87801023879084356
:1034C0004A49E08148434A49CAF800005446C9685D
:1034D00088474848216803F09FF922E11948E179BB
:1034E0008030FDF766FAE179795C8842F5D185F89C
:1034F0000080227860781849104408306870802075
:10350000A870EE70281DFCF711FE20781249001DEE
:10351000C0B25F4605F800B0401CC6B2A819627878
:103520008031FCF703FE6178227870181144294439
:10353000401C4F71A178C0B219B166212954401CBA
:10354000A8E059E0E709002068080020A003002057
:103550006800002014000020680600200001080810
:103560000002080800030808000408082564256311
:10357000256425632564256325640000000508088B
:1035800000060808000D0808000E0808680700205B
:10359000660B00207B2274223A312C226465766906
:1035A0006365223A222573222C226B6579223A2206
:1035B0002573222C22766572223A2276302E302E06
:1035C000302E30227D00000041542B43495053459A
:1035D0004E443D2564000000000708080008080864
:1035E00000090808000A0808000B0808A086010066
:1035F000687A0008000C08086E219FE7E1794D48C1
:10360000FDF7D7F9E179795C88427DD185F80080B2
:1036100085F801908120A870EE70474800F096F878
:103620004649020ECA70020C8A70020A4A7008707B
:1036300020696860A089010A297268720A214048DD
:10364000FDF7B7F9A8720B2168E0E1793948FDF779
:10365000B0F9E179795C884263D185F80080E2783D
:10366000207938491044801D68708220A870EE705F
:10367000281DFCF75BFDE0783149001DC0B28039A0
:1036800005F800B0401CC6B2A8192279FCF74EFD1F
:1036900020793044C0B205F80090401CC4B22146E5
:1036A0002748FDF786F92855641CE1B236E0E17938
:1036B0002048FDF77EF9E179795C884231D185F8BF
:1036C0000080052068708320A870EE7060792871F2
:1036D00005211B48FDF76DF9687106211EE0E179AF
:1036E0001448FDF766F9E179795C884219D185F8CB
:1036F0000080062068708420A870EE701249DAF805
:103700000000B0FBF1F000E00BE0010A29716871E4
:1037100006210B48FDF74DF9A8710721084802F072
:103720008FFD05B0BDE8F04FFFF716BC05B0BDE852
:10373000F08F0000670A0020000D080878000020C4
:103740006808002068070020A08601000068704714
:10375000F8B507461A48002600681A4D10F0F00F19
:1037600020D1174C1C342068C00002D5FEF7B4F8F5
:103770000DE0206840F080502060206800F080500C
:103780000090FEF7A9F8216821F080512160B0F582
:10379000C05F07D1B7F5404F04D12868012640F03B
:1037A00004002860286820F0010030432860286861
:1037B00000F00100B04201D00120F8BD0020F8BDAA
:1037C00008380240003C024010B50948FEF7B6FE3A
:1037D0004FF480710648FEF7DFFE00F09FFC00F01A
:1037E000FFFA0020FDF738F8BDE8104002F0A6BA55
:1037F00094020020010901EB810100F00F0000EBB1
:103800004100C0B27047002102E00A38C0B2491C32
:103810000A28FAD2090740EA1160704770B50446D9
:103820000068C168490614D44FF0FF31C160FDF74C
:103830009FFF05464FF47A7607E000BFFDF798FF3B
:10384000401BB04201D9032070BD2068C06840060B
:10385000F4D5002070BD0000F0B5A1B00025802196
:103860006846FCF77CFC6B48FFF770FF6A4C6B4FB7
:1038700060713846FFF76AFF694E18B13846FFF7A6
:1038800065FF30606748FFF761FF20706648FFF70B
:103890005DFF607022786549654800F0F5FC63497A
:1038A00062788031634800F0EFFC6348FFF74EFF19
:1038B000C2B2A2716149624800F0E6FC6148FFF7BC
:1038C00045FFA0816048FFF741FFE0705F48FFF7C8
:1038D0003DFF2071E2785E495E4800F0D5FC5C490E
:1038E000227980315C4800F0CFFC61795BA003F065
:1038F00065F85EA0316803F061F800BFFDF76EFB6C
:10390000002855D05DA003F059F86D1CEDB2032DD1
:10391000F4D30025AE1E454944488031FDF7B4FA82
:10392000002849D05AA003F049F8404A3F49803264
:103930005BA003F043F86D1CEDB2A670032DEAD333
:103940000025A1893D48FDF7E7F9002840D058A09F
:1039500003F034F8A28939495AA003F02FF86D1CFE
:10396000EDB2032DEDD33A4B394A803359A1684665
:1039700003F034F800244FF47A752846FDF7D1F8A7
:103980006846FCF709FCC1B26846FDF77BF90028E0
:1039900027DA5DA003F012F82D4A2D4980325FA08E
:1039A00003F00CF8641CE4B2032CE6D321B0F0BDA4
:1039B00061A003F003F8ACE766A002F0FFFF1B4A2A
:1039C0001A49803236A002F0F9FF0020A070B7E754
:1039D00064A002F0F3FFA28918493AA002F0EEFFBA
:1039E000C1E765A002F0EAFF194A194980324BA0ED
:1039F00002F0E4FF002465A16748FCF7BBFB002848
:103A0000D4D10A20FDF78DF8641CE4B2322CF2D335
:103A1000CCE70000000B080868000020000C080834
:103A200014000020000308080004080868060020AD
:103A30000001080800020808000E080867090020B5
:103A4000000508080006080800090808000A080818
:103A5000680700200007080800080808C9E8B1B88E
:103A6000CAFDC1BFCEAA2564CCA80A00C6B5B6CE91
:103A7000CEAA256420487A0A00000000C9E8D6C30F
:103A800077696669C4A3CABDCAA7B0DC0A00000092
:103A900077696669C1ACBDD3CAA7B0DC0A00000073
:103AA000574946493D25732C5057443D25730A001C
:103AB000B7FECEF1C6F74950C1ACBDD3CAA7B0DC42
:103AC0000A00000049503D25732C504F52543D25AB
:103AD000640A00007B2274223A312C2264657669E4
:103AE0006365223A222573222C226B6579223A22C1
:103AF0002573222C22766572223A2276302E302EC1
:103B0000302E30227D000000C9E8B1B8B1EACAB653
:103B1000C1ACBDD3CAA7B0DC0A0000004465766919
:103B2000636549443D25732C4465766963654B653F
:103B3000793D25730A000000C9E8D6C37769666934
:103B4000C4A3CABDCEAA73746174696F6EB3C9B9D8
:103B5000A60A000077696669C1ACBDD3B3C9B9A62E
:103B60000A000000B7FECEF1C6F74950C1ACBDD384
:103B7000B3C9B9A60A000000C9E8B1B8B1EACAB62B
:103B8000C1ACBDD3B3C9B9A60A00000022737461E9
:103B9000747573223A300000B404002070B50446F6
:103BA000094800210546FDF745FC204602F02AFEA3
:103BB000012002F021FE02F015FE044601212846F4
:103BC000FDF738FC204670BD5C06002070B5044649
:103BD0000B480E4600210546FDF72CFC304602F04E
:103BE00011FE092000EB4410C0B202F005FE02F005
:103BF000F9FD044601212846FDF71CFC204670BD56
:103C00005C0600200FB414222DE9F04F87B00C465B
:103C100012A96846FCF78AFA9DF85200059066489A
:103C20009DF851809DF850709DF84C60844201D2FF
:103C300014B102E0044600E001242046FCF77BFCBE
:103C40005E4A5F4BFCF76EFB8A46814603F0ACFE92
:103C500004460D464A465346FCF75EFB0022594B8C
:103C6000FCF760FBDFF860A181468B46DAF80C00B8
:103C7000FCF750FC4A465B46FCF7ADFAFCF768FCE3
:103C8000DFF84891DFF848B1CAF80C00B0F5F47FCE
:103C900016DBA0F5F470CAF80C0000224D4B20464C
:103CA0002946FCF798FA04460D4609E000224B46E7
:103CB00020462946FCF730FB761C04460D46B6B27A
:103CC00000224B4620462946FCF792FCEED9D94605
:103CD00000224B4620462946FCF78AFC17D80022D2
:103CE0004B4620462946FCF717FB7F1C04460D4631
:103CF000BFB2EDE700224B4620462946FCF70CFBFD
:103D0000044608F101000D461FFA80F801E0DFF8D3
:103D1000C89000224B4620462946FCF769FCE9D9A9
:103D20000598FCF708FC22462B46FCF754FAFCF7F2
:103D30002EFC80B205E03C3808F1010180B21FFA88
:103D400081F83C28F7D205E0A8F13C017F1C1FFA5E
:103D500081F8BFB2B8F13C0FF6D203E0183F761CF1
:103D6000BFB2B6B2182FF9D29DF84D209DF84B1076
:103D7000FAB19AF806301A4492071AD0174A521E1E
:103D8000895CB14203D2B6FBF1F201FB12668DF8F9
:103D90000A008DF809808DF804608DF808701422EF
:103DA00069461098FCF7C2F907B0BDE8F00F5DF85E
:103DB00014FB0A4A0C32E2E742061200FCA9F1D2D7
:103DC0004D62004000408F401C0000200018F5406C
:103DD0000020AC400000F03F00004E404E7A00084A
:103DE00010B5224C92B0607900283CD10DA800F0AB
:103DF0000FF914220DA901A8FCF798F900234FF43C
:103E0000807206A91A48FEF720FC9DF81900C0EB45
:103E1000001081009DF81800C0EB4012C2EB00209A
:103E200001EB00109DF81A1008449DF80D10C1EB2D
:103E300001118A009DF80C10C1EB4113C3EB012165
:103E400002EB01119DF80E201144081AFCF773FBD8
:103E50000022084BFCF766FA03F01AF8FCF797FB10
:103E6000A0600120607112B010BD00001C00002095
:103E7000940200200040DF3F2DE9F04700248AB083
:103E8000254680B1142201466846FCF74FF99DF89B
:103E90000510BDF800000026DFF8F490DFF8F4A06C
:103EA00088460F1812E005A800F0B2F8142205A900
:103EB000EAE7CEB1B00717D0002253462046294684
:103EC000FCF789F9761C04460D4636B2B742F0DCA1
:103ED000B8F1000F0BD0B80709D09DF80370002689
:103EE000DFF8B4807F1E2BE000224B46E6E7DFF8C8
:103EF000A8809DF80370002608F10C087F1E0DE0D5
:103F000018F8060025494843FCF715FB22462B46C6
:103F1000FCF761F9761C04460D46F6B2B742EFDCB9
:103F200010E000BF18F806001C494843FCF703FBEB
:103F300022462B46FCF74FF9761C04460D46F6B296
:103F4000B742EFDC9DF809109DF80A00C1EB0111A2
:103F500000EB81029DF808004FF4616148439DF831
:103F6000041040F2A323594300EBC1101044FCF7A6
:103F7000E2FA22462B46FCF72EF90022084BFCF70A
:103F8000D1F903F011FD0AB0BDE8F047FCF7FFBA24
:103F900050287E4138137E414E7A0008805101003E
:103FA0000040DF3F0C4810B58178C078814312D0C3
:103FB000FCF75CFCFDF798FC0848016841F004013F
:103FC0000160FDF77DFCFDF76FFC0121BDE81040AD
:103FD0000846FDF795BC10BD1C0000200070004095
:103FE0000A498B680022984204D94B7813B14A7071
:103FF0008B68C01A8B68984202D9322801D28A7025
:10400000704701228A708968401A70471C0000209E
:1040100010B586B004460022114802A9FEF76EFBD7
:1040200000220F480DF10201FEF746FB0D499DF8F5
:104030000530CA88ADF80020632B03D0087840B162
:104040001BB106E00120087003E000200870643214
:10405000CA80142269462046FCF768F806B010BDF5
:10406000940200201C00002010B50020FFF704FF80
:1040700004460548FFF700FF844202D2C0432044B3
:1040800010BD201A10BD0000B402002070B51F4EF4
:1040900086B03079002837D10125A80590FAA0F024
:1040A0001B49B0FA80F001EB8000C0F880561A4836
:1040B00018490024C0E9001403218160C0E90314F9
:1040C00044618461FEF73EFB8DF8035006208DF8B5
:1040D00005408DF802008DF8045000220E480DF1C5
:1040E0000201FEF73FFC0294039400220A4802A951
:1040F0000494FEF79BFC002204212920FDF7A2FB7B
:104100002920FDF794FB357106B070BD1C0000201E
:104110000000474200280040940200200C484168FB
:10412000C943C9070ED00B49012048700A480168ED
:10413000C1F38101012903D0006810F00C0F06D1F2
:10414000FCF7DABB016841F004010160EEE770475B
:10415000007000401C00002008380240AFF30080CF
:1041600030B505464FF4807499B021462048FEF7DB
:1041700013FA1F48FEF7A3F914A8FFF749FF14220A
:1041800014A908A8FBF7D2FF1948142208A9203067
:10419000FBF7CCFF0AAB93E807008DE80700DDE9E9
:1041A0000823294614A8FFF72DFD142214A903A8FB
:1041B000FBF7BCFF0020119010908DF837009DF8A0
:1041C00016008DF836009DF815008DF835009DF825
:1041D000140013948DF834009DF810008DF84800F9
:1041E00000220DA90248FEF7FDFA19B030BD00000B
:1041F0009402002070B5092000F083FC05460620DB
:1042000000F07FFC0404072000F07BFC44EA00245B
:10421000082000F076FC2043FCF78DF90022184BB3
:10422000FCF780F8FCF7B3F904460021092001F0FF
:10423000A5FA3B2000F065FC40F040013B2001F076
:104240009DFA3B2000F05DFC8006FAD40D4800F09A
:104250004DFD3B2000F055FC40F040013B2001F0BB
:104260008DFA3B2000F04DFC8006FAD42946092047
:1042700001F084FA2046BDE8704000F037BD000030
:1042800080844E4000A1BC3310B5002303E010C869
:1042900041F823405B1C9342F9D310BDF0B585B0C3
:1042A00016460F460546FDF753F90020CDE90005F7
:1042B00001210291049004A96846FDF7E1F8002469
:1042C00008E000BF57F8242029460220FDF722F914
:1042D000641C2D1DB442F5D3FDF712F905B0F0BDF5
:1042E0001CB50024012300941A46172106480194A6
:1042F000FCF77AFF0448012300941A4616210C307B
:104300000194FCF771FF1CBDC80200201CB50124FC
:10431000009400232246172107480194FCF764FF0C
:104320000020CDE9004003460348012216210C304D
:10433000FCF75AFF1CBD0000C80200200120704796
:104340000349884201D28020704700207047000056
:1043500040DD4A1F014890F8AC007047E80C00208F
:104360002DE9F34F0200724981B04FF000000CD0EC
:10437000012A7DD10024D1F8EC002546072854D02D
:10438000082855D0092858D155E08A46D1F8C400EC
:10439000FCF7D1F806460F460298FCF7CCF88046A9
:1043A0008946302000F0ADFB30F0F9004FF00004FA
:1043B00001D0604D00E00025272000F0A2FB20F096
:1043C000F800BAF8C810401C0844FCF7B4F89AF892
:1043D000CA20012A4FF0000222D0564BFBF7FBFE09
:1043E00022462B46FBF7F7FE42464B46FBF7F3FE11
:1043F0009AF8CC20012A4FF0000213D05FF000039E
:10440000FBF7E9FE0322FCF76EF832463B46FBF76A
:10441000FBFF0022484BFBF785FF03F0C5FA7FE066
:104420000023DBE74FF08043EAE70024434D04E03C
:104430000024434D01E0434D00243D4E012056F839
:10444000F07FB840FCF766F802460B462046294646
:10445000FBF7DAFF02460B4600203649FBF7D4FF94
:1044600004460D46F088FCF766F80022364B00E063
:104470005BE0FBF7B0FE22462B46FBF753FF83467B
:1044800000917079001DFCF756F880463079894616
:1044900000B10220381A8000FCF74DF80646029859
:1044A0008A46C10022487A4201EB820190F8FA2044
:1044B00090F8F80001EB021100B11420081A1C302A
:1044C000FCF739F832465346FBF79EFF02F0E0FC5A
:1044D00042464B46FBF726FF002207460E46134690
:1044E000FCF786F802D23846314601E0002001464A
:1044F0000022164BFBF76FFE22462B46FBF712FFFE
:1045000002460B4658460099FBF765FE00220A4B0F
:10451000FBF708FF0E4A0F4BFBF75DFE02F026FD8E
:1045200003B0BDE8F04FFCF732B8BDE8FE8F0000E5
:10453000E80C00200000F03F00408F408084FE40E7
:1045400080840E4180841E41000011400000204004
:104550002B8716D9CEF7EF3F70B518490860184978
:10456000184801F0A9FB17481549143001F0A4FBC5
:1045700014481349283001F09FFBFFF73BFE002051
:1045800000F02CFC0D48001D00F062F80E4D0024D8
:1045900004EB4406A85D00F0E5FB701981784078D3
:1045A00001F0ECF8641CE4B2102CF1D3002000F010
:1045B000D9FB0649002081F8AC0070BD7C000020CA
:1045C000E5490008F80D0020E87A0008E80C002012
:1045D0001CB501200024CDE90040024623460421F9
:1045E0000A48FCF701FE0023084800941A461946C1
:1045F00094380194FCF7F8FD0448002300941A460F
:10460000012188380194FCF7EFFD1CBD880D0020C6
:104610007CB5012400940023224604210B48019418
:10462000FCF7E2FD002509482B462A462946943826
:10463000CDE90045FCF7D8FD044800231A460121C6
:104640008838CDE90045FCF7CFFD7CBD880D002002
:1046500010B504460368032201210648FCF7E8FE72
:104660000448636803220121BDE810400C30FCF7C8
:10467000DFBE0000F40C002070B514460E4605465F
:1046800000F070FB304600F031FB052000F0A6FB87
:104690000120FCF746FA284600F066FA054600F0CD
:1046A00083FEA54201DD002070BD012070BD000029
:1046B000F8B500258DF800508E4C8F4E94F8AC0064
:1046C00001280AD0022854D104F5887001F0C4FBF7
:1046D00094F8AD0001287DD1FCE094F8AD00B8B1AC
:1046E000012846D14021122001F048F8122000F0A4
:1046F00008FA8DF800009DF8000080066BD5202197
:10470000122001F03BF894F8FE0000287ED090E0E3
:1047100094F8CC00012834D13F2000F0F2F98DF854
:1047200000009DF8000080072BD40B213E2001F0F3
:1047300025F810213F2001F021F8704801F08CFB92
:1047400094F8CE00B0B10D2000F0DBF940F040014C
:104750000D2001F013F86948143001F04DFB30686A
:1047600010B1006900B1804704F8D85F6570A58179
:104770006581F8BD6148143001F06EFB84F8AC50DF
:10478000EDE7B4F8E2105E4F11B9B4F8E40030B1CF
:10479000B4F8E400091AC9B23844E2340EE094F8DF
:1047A000CA00A0B3322000F0ACF9A4F8E20000BFC8
:1047B00014F8E21F6088091AC9B2384400F0CEF933
:1047C00034F8020B24F8E4094C4801F045FB94F856
:1047D000CE0001E082E034E010B30D2000F091F94A
:1047E00040F040010D2000F0C9FF4448143001F0B2
:1047F00003FB30680028B7D08668002EB4D094F947
:10480000DA20B4F8E21000233D4801E00FE001E0B7
:10481000B047A9E739480121423800F09FF9C7E7BE
:10482000364884F8AC50143001F016FBE1E784F808
:10483000AC50324801F010FB3068002899D0006974
:1048400052E0192000F05DF940B284F80801010639
:1048500005D5C043401CC0F38500474201E0C0F3CA
:1048600085071A2000F04DF92649D4F8B020002F12
:1048700006DA00EB20108A42384405D99D3804E05E
:104880008A4200EB2010F9D8A438A4F80A011320BA
:1048900000F037F984F80C010146194800F05EF980
:1048A00094F8FE0008B984F8AC50144801F0D4FA2A
:1048B00030680028C2D08568002DBFD094F9083137
:1048C000B4F90A2194F80C1101B0AC46BDE8F040EF
:1048D0000B4860470821122000F050FF84F8AC50CC
:1048E00030680028AAD000680028A7D001B0BDE831
:1048F000F0400047E80C00207C0000200C0E002057
:10490000E80B002040DD4A1F70B5334C204694F878
:10491000AC3090F8AD20B0F8E210B0F8E400A4F5A7
:104920008075012B15D0022B12D1002A10D10A1A42
:10493000234694F8E710B3F8E430284618448A4236
:1049400043DD00F045FF34F8E40FE17808442080AF
:1049500070BDAAB1012AFBD1204801F07DFA802167
:10496000122000F00BFF002084F8AC001C48006807
:104970000028EDD0C0680028EAD0BDE870400047AC
:1049800041B938B994F8CA00A0B1322000F0B9F8A2
:10499000A4F8E200B4F8E210B4F8E4000A1A94F8BB
:1049A000E6108A420CDD284400F0D8F834F8E40F11
:1049B000A178CBE709480121423800F0CFF8E9E7B8
:1049C000D1B2284400F0CAF802E0D1B200F000FFF2
:1049D00034F8E20F608070BDE80C00200C0E00205F
:1049E0007C0000202DE9F047324CDFF8CC904FF0EE
:1049F000000894F8AC00012829D0022857D1FFF70D
:104A0000F9FB002000F0EAF92C4E002505EB4507E4
:104A1000F05D00F0A7F9B8198178407800F0AEFE9B
:104A20006D1CEDB2102DF1D3002000F09BF994F82D
:104A3000040100F0EBF984F8AC80D9F800000028FC
:104A400035D04068002832D0BDE8F047004794F8E0
:104A5000AD00D0B984F8D88084F8D980A4F8E48077
:104A6000A4F8E28045460B213E20CE3400F086FEBD
:104A700010213F2000F082FE14F8CE0901280AD050
:104A800084F8AC500E4801F0E7F9D9F8000000288E
:104A90000DD0C068D6E70D2000F033F840F040019B
:104AA0000D2000F06BFE064801F0A6F9EDE7BDE829
:104AB000F0870000E80C00207C000020E87A000865
:104AC000200E002070B50025012000F04BF9FF21D9
:104AD000112000F053FE052000F080F90024012091
:104AE000FCF71FF82C2000F00CF800F00100A040AB
:104AF000641C0543E4B2202CF1D300F055FC284699
:104B000070BD08B50122694600F004F89DF8000068
:104B100008BD00002DE9F04104460F480E46154639
:104B200000218046FCF786FC0B4804F07F017C38AE
:104B3000074600F0E9FE002406E00021384600F0B8
:104B4000E3FE3055641CE4B2AC42F6D34046BDE807
:104B5000F0410121FCF76EBC880D00200A46014699
:104B60000020FFF7D7BF000010B520B1012808D002
:104B70004FF0FF3010BD1120FFF7C3FF4008404247
:104B800010BD08480849D0F8B00088424FF01B001B
:104B900003D9FFF7B6FF9D3810BDFFF7B2FFA43869
:104BA00010BD0000E80C002040DD4A1F73B53B4CEF
:104BB0000546002094F8AD1011B101296BD12DE00C
:104BC0000020A4F8E4009DF80410A4F8E21094F882
:104BD000CA0058B1322000F0D1FD00BF9DF804207A
:104BE000501E3F2807D884F8E7200BE0012101A8D8
:104BF00000F0EEFDF2E72946294802F0CBFD202027
:104C000084F8E70094F8E7102846D03400F0E0FD7F
:104C1000A08AE17D0844A08220683CE094F8FD0071
:104C200001284FF0330021D0FFF76BFF00F0BE01E9
:104C30003320491C00F0A2FD1D213B2000F09EFD09
:104C40009DF8041084F80C11222000F097FD00213B
:104C50000E2000F093FD00210D2000F08FFD0120BB
:104C6000FFF74FFF30F0F80009D00DE0FFF749FFE4
:104C700000F0BE01332000F081FD1921DDE700F0D6
:104C8000A7FB0120FBF74DFF9DF80410284600F01C
:104C90009FFDD4F8000100F0AFFB7CBDE80C0020C4
:104CA000E80B002010B503280AD001210748FCF7C3
:104CB000C1FB00210548BDE810400C30FCF7BABB31
:104CC00000210248FCF7B6FB0121F3E7C8020020EF
:104CD00005490A78824205D0087008B1FFF700BB89
:104CE000FFF714BB704700002C0000200E4910B5E0
:104CF000C1F8B000FBF71FFC00220C4BFBF784FB54
:104D0000FBF745FC0446C0F30741062000F036FDE2
:104D1000C4F30721072000F031FDE1B2BDE81040E7
:104D2000082000F02BBD0000E80C002080844E40DD
:104D300070B50D46044600F015F824B1012C0DD1D4
:104D40002946232006E0064890F8CA00002805D12D
:104D500029463220BDE8704000F010BD70BD000053
:104D6000E80C002010B504460120FFF7CAFE1A49DE
:104D7000000601D5012000E0002081F8AD00C0B29E
:104D8000A04227D081F8AD40012C0FD000F00CFBE1
:104D90000120FFF7B6FE00F07F01012000F0EEFCDD
:104DA0000021402000F0EAFC30210EE000F0FCFA87
:104DB0000120FFF7A6FE40F08001012000F0DEFC9C
:104DC0000021402000F0DAFC0021BDE81040412025
:104DD00000F0D4BC10BD0000E80C002010B50400A9
:104DE00010D00020FFF774FF2046FFF75BFF012083
:104DF000FFF787FE00F0F8012143BDE810400120D5
:104E000000F0BCBC0120FFF763FFF0E710B50446DB
:104E10000120FFF7A7FF064880F804410CB13421B8
:104E200000E01221BDE81040392000F0A7BC0000CE
:104E3000E80C002070B504460920FFF762FE064624
:104E40004D20FFF75EFE05462248D0F8B000FFF780
:104E500077FA06F07F01084340F0700001062BD579
:104E6000112C02DD45F0070502E005F0F8052D1DC7
:104E7000E943490703D0022C0CDA02240DE0052C8B
:104E800001DA052402E0142C00DD142400F0F00106
:104E9000641F05E0112C00DD112400F0F001A41EB8
:104EA00004F00F000143092000F068FC2946BDE82A
:104EB00070404D2000F062BC4FF0FF318C4201DAAF
:104EC0000C4602E00E2C00DD0E2400F0F001641C04
:104ED000E6E70000E80C002070B5854C054600268A
:104EE00094F8AD0010B1012824D124E014F8CE6F5D
:104EF0004020FFF706FE00F0030040F00C014020C8
:104F000000F03CFC4120FFF7FCFD40F0C1014120D6
:104F100000F034FC3520FFF7F4FD00F03F00207670
:104F20001E210D2000F02AFC0020A072E072E08219
:104F3000A082CE3C9EE094F8FD0001284FF03300A3
:104F400027D0FFF7DEFD00F0BE013320491C00F042
:104F500015FC1D213B2000F011FCD4F8EC000928C1
:104F60004FF031007ED2FFF7CCFD00F07F01312001
:104F700000F004FC0021302000F000FCD4F8EC002C
:104F800009285BD2DFE800F00E19242F3A45565667
:104F90005600FFF7B6FD40F04101332000F0EEFB74
:104FA0001921D7E748212F2000F0E8FBD4F8B00002
:104FB000FBF7C1FA00224F4B35E044212F2000F0CF
:104FC000DDFBD4F8B000FBF7B6FA00224A4B2AE02A
:104FD00044212F2000F0D2FBD4F8B000FBF7ABFA4D
:104FE0000022464B1FE044212F2000F0C7FBD4F8DD
:104FF000B000FBF7A0FA0022414B14E044212F201F
:1050000000F0BCFBD4F8B000FBF795FA00223D4B52
:1050100009E044212F2000F0B1FBD4F8B000FBF7E9
:105020008AFA0022384BFBF7D6F8FBF7B0FAFFF705
:105030005DFE03E040212F2000F0A0FB94F8FB0070
:1050400094F8FE60012831D01F21112000F096FB5A
:105050004020FFF756FD00F03F01402000F08EFB9E
:10506000002100E01CE00F2000F088FB00210D2053
:1050700000F084FB4FF480712448FBF770F80120A6
:1050800084F8AC0035B12946214800F0ADFE204837
:1050900000F0B2FE94F8AD0090B116B3052021E007
:1050A000FFF72FFD40F080013120C5E71D211120C1
:1050B00000F064FB4020FFF724FD00F03301CCE753
:1050C0000520FFF78BFE002E10D11148D4F8D41024
:1050D000143000F089FEBDE870400D48143000F037
:1050E0008BBE0620BDE87040FFF778BE70BD0000A3
:1050F000E80C00200082BE40005AC4400082CE402E
:105100008057D4408084DE40C058E440E80B002043
:105110000C0E00202DE9FC5F9B4614468A46804613
:10512000DDF844900D9F0F9EFFF71CFE380A994D45
:105130000090B8F1000F06D0B8F1010F74D1BAF1A8
:10514000020F73D9FEE745F8BCAFAC600C986860FD
:10515000AE731098E87385F81090149868741598D9
:10516000A874AF812046FBF7E6F904460B4601918F
:10517000224600208849FBF747F90322FBF7B3F9E1
:1051800080468B460E98FBF7D6F942465B46FBF706
:10519000C9F80022814BFBF7C5F8FBF7F8F9A861C5
:1051A000224600207E49019BFBF72EF9FBF7EFF921
:1051B00084B2210A022000F0E1FAE1B2032000F0FB
:1051C000DDFA5046FBF7FAFF0146122000F0D6FA4E
:1051D0000C98FBF7F3FF0146132000F0CFFA2520CF
:1051E000009900F0CBFAF9B2262000F0C7FA0EB110
:1051F000109900E0FF21322000F0C0FA3020FFF7C4
:1052000080FC00F06F000EB1002100E08021084317
:1052100040EA0911302000F0B1FA3120FFF771FCAB
:1052200040F040013120A5E0B2E0FFE728460AF156
:105230000708E0E93B840C2C80F809B0478106732D
:105240001099417380F80E901299C17313990174EB
:1052500014994174159985F8FE1001D90C2402E0C7
:10526000062C00D20624B8F1070F03D0B8F1080FBE
:1052700002D003E00B2C47D00C2C45D05FF000018E
:1052800085F8F4101D20FFF73CFC4FEA081141EAB5
:105290004B003043C1B21D2000F070FA1E20FFF712
:1052A00030FC00F0080040EA041141EA89000E9940
:1052B000032202EA11210843C1B21E2000F05EFA67
:1052C0002620FFF71EFC00F0F70195F8F40041EAF4
:1052D000C000C1B2262000F051FA0E98C1B21F20C2
:1052E00000F04CFA2020009900F048FAF9B2212091
:1052F00000F044FA1EB12220109900F03FFA95F810
:10530000FB00012802D00EE00121B9E74420FFF79D
:10531000F8FB40F08001442000F030FA95F8FC10D2
:10532000242000F02BFAB8F1090F02D00321362017
:1053300010E01C49D5F8B00088424FF002014FF050
:10534000360003D900F01AFA642102E000F016FAE0
:105350007F213A2000F012FA062C4FF031000DD0D8
:10536000FFF7CFFB00F0F8013120C91C00F006FA6E
:105370000A213720BDE8FC5F00F000BAFFF7C1FB4F
:1053800000F0F8013120491D00F0F8F90C21F0E798
:10539000BDE8FC9FE80C00200000F03F00408F407B
:1053A00080847E4140DD4A1F10B5074800F054FD5F
:1053B0000548143800F050FD0020FFF70FFD0349A9
:1053C000002081F8AC0010BD0C0E0020E80C00207D
:1053D00010B5074800F040FD0548143800F03CFDCA
:1053E0000120FFF7FBFC0349002081F8AC0010BD51
:1053F0000C0E0020E80C002010B50146254800F0F6
:10540000F3FC254C94F8AD0010B101282DD119E022
:105410004020FFF776FB00F0030040F01001402031
:1054200000F0ACF94120FFF76CFB00F03E01412099
:1054300000F0A4F93520FFF764FB00F03F0084F88A
:10544000E60012E094F8FB00012819D0F7211120A2
:1054500000F094F94020FFF754FB00F03F0000BF3C
:1054600040F04001402000F089F9022084F8AC00AF
:10547000084800F0C1FCBDE810400320FFF7AEBCB7
:10548000F521112000F07AF94020FFF73AFB00F0F7
:105490003300E5E7F80D0020E80C00202DE9FF4F70
:1054A00081B01D46DDE90E4BDDE910688946DDF867
:1054B00054A0129F0198FFF755FC4846FFF7BAFC2D
:1054C0007548320A0199009231B1012972D180F8F0
:1054D000E890022D54D9FEE700F8B49F03990461C7
:1054E000C0E90115868280F81680077680F819A039
:1054F0001699C1610398FBF71EF80022674BFAF773
:1055000083FFFBF744F885B2290A042000F036F93E
:10551000E9B2052000F032F92046FBF70CF802460C
:105520000B4600205E49FAF76FFFFBF730F884B2B4
:10553000210A022000F022F9E1B2032000F01EF956
:105540002520009900F01AF9F1B2262000F016F992
:105550003020FFF7D6FA00F06F00B8F1000F01D04D
:10556000002100E08021084340EA0711302000F0CC
:1055700005F93120FFF7C5FA40F04001312078E00D
:10558000ED1DC0E93B5480F8F5B0A0F8F66080F856
:10559000F880139980F8FB10149A80F8FC2080F8AA
:1055A000FA7080F8FDA0169AC0F800210C2C02D9E0
:1055B0000C2403E06CE0062C00D20624072D02D058
:1055C000082D02D003E00B2C08D00C2C06D00022B2
:1055D00080F8F4208146012902D00EE00122F7E78D
:1055E0004420FFF78EFA40F08001442000F0C6F816
:1055F00099F8FC10242000F0C1F81D20FFF781FA73
:10560000290141EA4B0040EA0800C1B21D2000F028
:10561000B5F81E20FFF775FA00F00B0040EA041001
:1056200040EA8700C1B21E2000F0A8F82620FFF74C
:1056300068FA00F0F70199F8F40041EAC000C1B23D
:10564000262000F09BF82020009900F097F8F1B296
:10565000212000F093F8062C4FF031000ED0FFF718
:1056600050FA00F0F8013120C91C00F087F80A2137
:10567000372005B0BDE8F04F00F080B8FFF741FAE1
:1056800000F0F8013120491D00F078F80C21EFE717
:1056900005B0BDE8F08F0000E80C002080844E408B
:1056A00080847E4170B506468AB00D461046FAF7F2
:1056B00042FF00221E4BFAF735FEFAF768FF044658
:1056C0003046FFF713FB002005900690CDE9070454
:1056D0000521CDE90101039004904FF49650002379
:1056E00000901A4629461846FFF7D8FE3120FFF7EA
:1056F00008FA00F0BF01312000F040F8F02140200E
:1057000000F03CF8A021412000F038F8214609487B
:1057100000F06AFB0849022081F8AC00054800F05F
:105720006BFB0AB00320BDE87040FFF757BB0000D9
:1057300000408F40F80D0020E80C002010B50E4C02
:1057400094F8AD00002815D0012813D1FA211120BA
:1057500000F014F84020FFF7D4F900F0FC014020DD
:1057600000F00CF8032084F8AC00BDE810400720DE
:10577000FFF734BB10BD0000E80C002013B5012278
:1057800001A900F001F81CBD2DE9F04104460F48C5
:105790000E46154600218046FBF74CFE0B4844F0B0
:1057A00080017C38074600F0AFF8002405E0315D49
:1057B000384600F0A9F8641CE4B2AC42F7D3404686
:1057C000BDE8F0410121FBF735BE0000880D002047
:1057D0000A4601460020FFF7D7BF000010B500F0D1
:1057E00099FDBDE81040022101A000F093BD00002A
:1057F0000D0A000000F08EBD10B504464FF40062A3
:105800001221002001F072F8002C1CD80E484178BB
:10581000007801EB002082B20421002001F066F83C
:105820000948801C4178007801EB002082B21021E9
:10583000002001F05BF8044A0C211232BDE8104050
:10584000002001F071B810BD470000207CB504466F
:10585000FDF77BF900250095019594F958102B462A
:10586000012204F15800FBF7BFFC0220CDE900053E
:1058700094F964100023012204F16400FBF7B4FCE6
:105880000095019594F970100023012204F1700035
:10589000FBF7AAFC012000900190024694F97C10CD
:1058A000002304F17C00FBF79FFC7CBD30B5002495
:1058B000039D846061B14FF40061C16004620721FF
:1058C0004462C0E90A41C0E904231DB1446030BD0F
:1058D000C460F3E74FF48271416030BD094B002290
:1058E0001B6803E05B08521C072A01D28B42F9D8DF
:1058F000302101EAC201D20700D008221143C16160
:10590000704700003C00002070B5044600680D465A
:10591000016841F040010160FAF7DAFF2068816810
:10592000C9438907FBD4E9B2C16020688168C943D3
:10593000C907FBD1C068C4B2FAF7D2FF204670BDD8
:105940002DE9FF4F83B08B460446109FFAF7C0FF46
:105950000525022604F1580004F1640904F17008D9
:1059600004F17C0ABBF1070F03D0BBF11F0F2ED04F
:1059700021E033490A6842F480520A600A6822F43E
:1059800080520A602E490C310A6842F480520A6043
:10599000096801F4805100912A492DE04FF400700C
:1059A000A0610020009000E0009600231A461946EE
:1059B0002046FFF77BFF24492046FFF78FFF204654
:1059C000FDF7D7F807B0BDE8F04FFAF789BF1C49DB
:1059D000091D0A6842F480420A600A6822F4804283
:1059E0000A60174910310A6842F480420A60096867
:1059F00001F48041009115492160CDE90065002343
:105A000002225946FBF7F0FBCDE900650023022294
:105A100048460599FBF7E8FBCDE900650023022223
:105A200040460699FBF7E0FB0126CDE9006500231F
:105A3000022239465046FBF7D7FB7F1CB4D1ADE7B5
:105A40001438024000300140809698000038004031
:105A500010B5FBF7C3FEBDE81040FDF7EAB8000043
:105A600030B5244895B0016841F08051016000686C
:105A700000F0805014902048016821F4C05141F496
:105A80000061016001240520CDE900040220C50366
:105A90000294CDE909054FF440200B90A0050C902D
:105AA0006846FCF763F90F200D9003200E9000204C
:105AB0000F901090119001210DA8FBF7F1FF12A893
:105AC000CDE91245FBF738FFFCF7D4F84FF47A71B3
:105AD000B0FBF1F0FDF799F80420FDF789F80320F9
