:020000040000FA
:0600000002143C0208821C
:03001300020BA439
:03002B000211EED1
:030033000211ECCB
:030053000207B7EA
:03005B0002104E42
:03006B000211D4AB
:100083000208160100F0FF0700080000FFFF000050
:10009300050400000003000147726F757000FF0440
:1000A30000100020FD000206FFFF02011004010101
:1000B300001E01DA1D0000EC1D000000000000001E
:1000C3000000000000000000000000104E65776C87
:1000D300616E6420456475000000000000000000AC
:1000E300000000000000000000000000000000000D
:1000F30000000000000000000000000000000000FD
:1001030000000000000000000000000000000000EC
:1001130000000000000000000000000000000000DC
:1001230000000000000000000000000000000000CC
:1001330000000000000000000000000000000000BC
:1001430000000000000000000000000000000000AC
:10015300000000000000000000000000000000009C
:10016300000000000000000000000000000000008C
:10017300000000000000000000000000000000007C
:10018300000000000000000000000000000000006C
:10019300000000000000000000000000000000005C
:1001A300000000000000000000000000000000004C
:1001B300000000000000000000000000000000003C
:1001C300000000000000000000000804010001001E
:1001D30003588402208501040000D712000000E8C0
:1001E300030000FFFF28130188130000E803000049
:1001F30064006400B801A0BB0D00A0BB0D000202A7
:10020300020704051E02051E020A0101080103B8C4
:100213000B020102E8030A0500FFFF0205030101C7
:10022300FF0F0F2E00000000452D00000000FF000F
:100233000000FF0012144C601D12145B70051919A5
:1002430019801A121303701F121317C37003E66782
:100253003319191940071818182208080874FFF6EB
:1002630018F618F618F62212131760171214E9700D
:100273002192F01214F27019501720F01408080894
:10028300090909E7F61819E7F61819E7F61819E73F
:10029300F6221214F260E6E869701F0808E624806B
:1002A300F608E436F618547FB47F0CE654806007F2
:1002B300F6E418F618F622181822E9C6CC08C6CDBB
:1002C30008C6CE08C6CFC0E0E8C0E0EAC0E0EBC095
:1002D300E009E9F809E7FA09E7FBE6F918E6F8C3E4
:1002E300EC98ED99EE9AEBC2E7F5F0EFC2E795F0E3
:1002F300500E600CEBCFFBEACEFAE9CDF9E8CCF86F
:10030300EAA2E7D2E7FAEB33FB13F5F0EEA2E7D26A
:10031300E7FEEF33FFC5F013A2E730E601B313C5E1
:10032300F0C3C0E0C0F07F00C39BFB605E94186025
:100333000F401D14601AD0E023F9D0E0F80204182E
:100343008AF0E9486003D2F0E4AFF0FAF9F8803BB1
:10035300EB30E40D89F0EA6003D2F0E4AFF0F9CAC0
:10036300F8EB30E30D88F0EF6002D2F0AFF0E4CAAF
:10037300C9F8EB54076014FBC3EA13FAE913F9E86D
:1003830013F8EF135002D2E0FFDBEDD0E0C0E03012
:10039300E739C3E49FFFF5F0EC98FC42F0ED99FDDB
:1003A30042F0EE9AFE42F0D0E0F9D0E0F8E5F060DA
:1003B3007AE923F9EE20E742D8028067C3EF33FFDF
:1003C300EC33FCED33FDEE33FE80EAEC28FCED3933
:1003D300FDEE3AFED0E023F9D0E0F84002801BC3E3
:1003E300EE13FEED13FDEC13FCEF135002D2E0FF0E
:1003F30008B800067F7F74FF802EEF3350178CF010
:1004030020F00260100CBC000C0DBD00080EBE00F5
:100413000408E860DFE933E813FFEE2313FE4F4DD2
:100423004C8008E95480FFE4FEFDFCEE33EF33F427
:100433007004FCFD7E80D0E0FBD0E0FAD0E0F8D081
:10044300E0CFC618CEC618CDC618CCC6F9221214F2
:100453004C70041818182212145B700D74FFF618F0
:1004630019F61819F61819F622E7548066F61214CD
:10047300F2700F1214E970F014F608F608F608F695
:1004830080D11214E9700CF608F608768008E64469
:100493007F80EC12131A700C12130660BFE65480AF
:1004A300F6E480BB121306700519191980A5E869D3
:1004B300700C763F18768018F618F6E8F922E6CD28
:1004C300C0E018ECC0E0E633CD33CDD313F6E71923
:1004D300FCE7191933CC33C3947F400ECD9D5024D0
:1004E30008E65480F6E418F6800FF4043D14501423
:1004F30008E6447FF6187680E418F618F6D0E0FC98
:10050300D0E0FD22CCD313CCFD18E4C6CBC0E01859
:10051300E4C6CAC0E00808ED08C633E613F618E4DB
:1005230033C675F003C3CA97CA09CB97CB199C404E
:10053300047D08802EBD00030205FA16B6FF0506EA
:1005430006081618C3CA33CACB33CB33CA27CA0922
:10055300CB37CB193CC37D08803E187D0820E75C70
:10056300C633C6CA33CACB33CB33DDF1D5F0EB3058
:10057300E77BCA97CA09CB974ACB199C406F4B704C
:1005830025E620E0218066187D08C3CA97CA09CBF7
:1005930097CB199CD3C633C6CA33CACB33CB33509C
:1005A300C9DDE7D5F0E1D3E4C636C608C636C608CA
:1005B300C636C608C636C61818188031C3CA97CAC5
:1005C30009CB97CB199CB34097C633C6CA33CACB62
:1005D30033CB33DD34D5F02EC6A2E0C640C8CA27DC
:1005E300CA09CB37194A70BECB3CB480B90808E6B8
:1005F3003308E633601F181818D0E0FAD0E0FBD0B8
:10060300E0FCD0E0FD22187D08CA27CA09CB37CB0E
:10061300193CD3808013F618E4B67F11F618B6FFA1
:100623000EF618C60470D20808768080CAF618F64B
:1006330018F680C50012144C604F12145B6012E769
:10064300548066F612130370111214E9703B090902
:1006530009F4F618F618F618F62212131770151285
:1006630014F208080860EAE6447FF618768018E476
:10067300F618F6221214F260161214E97012E4F658
:1006830008F608F608E65480F6090909181818222E
:10069300EAC0E0EBC0E0ECC0E0EDC0E0E687F0A428
:1006A300FBACF008E687F0A42CFCE435F0FA18095B
:1006B300E687F0A42C4B60027401CA35F0FCE433E6
:1006C300FB09E687F0D2F7A42CCB35F0FC1908E63A
:1006D30087F0A42BCC35F0FBE433FD0819E687F053
:1006E300D2E7A42C4ACB35F0CD3400FC09E687F0E1
:1006F300D2E7A42DCC35F0FDE433FA0918E687F0F0
:10070300D2F7A42CCD35F0CA3400FC08E687F0D22A
:10071300E7D2F7A42ACC35F07A7E20E70B0ACB3355
:10072300CBCD33CDCC33CC33CB3350147004ED303D
:10073300E00ED2F1E4CD3DCDCC3CCC3B5005DA0507
:10074300C2F1EB547FC63308E63392F0FBE733097B
:10075300E733C39A502D2B70190C0D4C4D7015189F
:1007630006E608C333700D20F10AA2F013F6E4186D
:10077300800B4024E4F630F002768018F618F61861
:10078300F68024D33B14501074FFA2F013F61876AE
:1007930080E418F618F6800FA2F013F618E6330378
:1007A300F618ECF618EDF6D0E0FDD0E0FCD0E0FB57
:1007B300D0E0FA22C0E074F1120C75A2AFE433F575
:1007C30009D2AF85A708AFA1EF5508FE74105E608C
:1007D300061216BA75A1EF74085E60081216C0758A
:1007E300A1F78024EFA2E092F0E508A2E082F050A6
:1007F30017906198E0F89004A4E0C398A2D265D062
:10080300335002E8F075A1FEE509A2E092AF7F0242
:10081300020D31C0E074F2120C75A2AFE433FED2C4
:10082300AF9061A4E0F8759B00E591585408600807
:100833007591F712170E8023E591585410600875CF
:1008430091EF1217148014E591A2E092F0E8A2E070
:1008530082F05007E0C2E0F012185E9061A3E0F866
:10086300E5E9585404600E12183475E9FB9061935E
:10087300E0A2E640F2EEA2E092AF7F01020D31C0AA
:10088300E074F2120C75A2AFE433FED2AF9061A50F
:10089300E0F8E5BF585404600675BFFB1218768074
:1008A300D4C3E498F8E499F91208E58026C3E49ADE
:1008B300FAE49BFBE920E7E91208E5E498F8E499F8
:1008C300F922C3E498F8E499F91208E5E498F8E406
:1008D30099F9C3E49AFAE49BFB22EB20E7CFE920E2
:1008E300E7E0B90010BB0008E88AF084F8AAF02218
:1008F300E4FBC8FA22EB70227B10C833C8C933C9A2
:10090300335007C39AC3DBF280069A50012ADBEA0D
:10091300C833F4C8C933F4C9FA2275F008E4C833FC
:10092300C8C933C933C99AC99B5004C92AC93BD51D
:10093300F0ECFBC833F4C8E4C9FA2212097E20F0B4
:100943001430E72B74FFFCFBFA747F8022E4FCFB7A
:10095300FA7480801AB48008BC00F2BB00EF800FE9
:1009630050EBF9E4C39AFAE49BFBE49CFCE499C6DC
:10097300CC18C6CB18C6CA18C6F922E4C9C608CA19
:10098300C608CBC6D3330308CCC63392F0C3947FD7
:10099300402E94184019C9B90704CACBCC2250255C
:1009A300C309CA33CACB33CBCC33CC33D9F422F407
:1009B300600DC9CCC313CB13CBCA13CAD9F6CC224F
:1009C300E4FCFBFA2214FCFBFA22080808EAC0E064
:1009D300EBC0E086F0E7A4FA180986F0E7A42AFA48
:1009E300180986F0E7A42AFA180986F0E7A42AFA78
:1009F3001986F0E7A4FBE5F02AFA190886F0E7A4C4
:100A03002BFBE5F03AFA190886F0E7A42BFBE5F097
:100A13003AFA18180986F0E7A4C5F02BFBE43AFA72
:100A23001908E7C5F0C6A426F6E5F03BFBE43AFA5D
:100A33001886F0E7A4F6E5F00826F6E43B08F6E4AA
:100A43003A08F6D0E0FBD0E0FA22D083D082ECC0A3
:100A5300E0EDC0E0EEC0E0EFC0E0E493A3FCE4937C
:100A6300A3FDE493A3FEE493A3FFEF4E4D4C601567
:100A7300120F88EC24FFFCED34FFFDEE34FFFEEF94
:100A830034FFFF80E5E493A3FCE493A3FDE493A385
:100A9300FEE493A3FFEF4E4D4C60151210A2EC241D
:100AA300FFFCED34FFFDEE34FFFEEF34FFFF80E586
:100AB300D0E0FFD0E0FED0E0FDD0E0FCE493A3C0A3
:100AC300E0E493C0E022E4CFC0E0E4CEC0E0E4CDB4
:100AD300C0E0E4CCC0E075F020E626F608E633F685
:100AE30008E633F608E633F6181818EC33FCED3352
:100AF300FDEE33FEEF33FFC3EC9709ED9709EE9755
:100B030009EF97191919400FFFEC97FC09ED97FDB1
:100B130009EE97FE191906D5F0BFECF709EDF709B1
:100B2300EEF709EFF7191919D0E0FCD0E0FDD0E09A
:100B3300FED0E0FF222518C582C0E0E51934FFC5C9
:100B430083C0E0E518C3958224F810AF08858319A4
:100B53008582188008858319858218D2AFCEF0A3C9
:100B6300E520F0A37808E608F0A3DEFAEFF0A3E5AA
:100B73008124FAF8E608F0A3E608F0A3E608F0A358
:100B83000808E608F0A3E608F0A315811581D0E074
:100B9300FED0E0F8158115811581E8C0E0EEC0E0D4
:100BA30022C0E0C0D0E8C0E0E9C0E0C082C083A9B1
:100BB300C1901295E0C394404002E4F0E0F8740160
:100BC30028F0745528F582E43412F583E9F0D083D4
:100BD300D082D0E0F9D0E0F8D0D0D0E03274F8126F
:100BE3000C0F74FF121284EAFEEBFFEE8518828568
:100BF3001983F07C017D00AA18AB19121BD0EEFA01
:100C0300EFFB74011211837F01020F092518C582BE
:100C1300C0E0E51934FFC583C0E0E518C39582241D
:100C2300F910AF0885831985821880088583198593
:100C33008218D2AFCEF0A3E520F0A37808E608F03F
:100C4300A3DEFAEFF0A3E58124FBF8E608F0A3E6C0
:100C530008F0A30808E608F0A3E608F0A315811539
:100C630081D0E0FED0E0F815811581E8C0E0EEC048
:100C7300E022C0D02518C582C0E0E51934FFC58342
:100C8300C0E0E518C3958224F310AF088583198566
:100C930082188008858319858218D2AFC8F0A3E92A
:100CA300F0A3EAF0A3EBF0A37908E709F0A3D8FADD
:100CB300ECF0A3EDF0A3EEF0A3EFF0A3D0E0F0A3EC
:100CC300D0E0F0A3D0E0F0A3E520F0A3E5F0F0A39B
:100CD30022E9799EC608CAC608CBC608CCC6C3702B
:100CE300207996CACBCC7019798ECBCC70137986C8
:100CF300CC700EF9802ACA33CACB33CBCC33CC3376
:100D03001930E7F2CCCBCA3350147004EA30E00D4B
:100D1300E4CA3ACACB3BCBCC3CCC500209C3E9135F
:100D2300C6CC182313C6CB18C6CA18C6F922851910
:100D330083851882E0C0E0A3E0F9A3E0FAA3E0FB17
:100D4300A37808E0F608A3DFFAE0FCA3E0FDA3E044
:100D5300FEA3E0FFA3E0C0E0A3E0C0E0A3E0F5D082
:100D6300A3E0F520A3E0A3F5F010AF088583198570
:100D730082188008858319858218D2AFD082D083E8
:100D8300D0E0F8D0E0321214D4B90003020DC8E465
:100D930090040178C879128002F0A3D8FCD9FA7ABA
:100DA300C87B1590008678B279028015E493A3ADD1
:100DB30082AE838A828B83F0A3AA82AB838D828ED9
:100DC30083D8E9D9E7758281758384740512116527
:100DD30075828C75832C7400121165E47375F010A1
:100DE3008E1A8F1B85821F85831E85188285198322
:100DF300E0CEA3E0CF851F82851E83EBC9EAC8ED51
:100E0300CBECCAC3E833C8E933C9EA33CAEB33CB03
:100E1300C3EA9EF51DEB9FF51CB35004AB1CAA1D42
:100E2300EC33CCED33CDD5F0DAAE1AAF1B22D08341
:100E3300D082ECC0E0EDC0E0E493A3FCE493A3FD17
:100E4300ED4C600D120F49EC24FFFCED34FFFD80E7
:100E5300EFE493A3FCE493A3FDED4C600D12102388
:100E6300EC24FFFCED34FFFD80EFD0E0FDD0E0FC8F
:100E7300E493A3C0E0E493C0E0228519838518823C
:100E8300E0A3FEE0A3F5207808E0A3F608DFFAE08C
:100E9300A3FFE0A3C0E0E0A3C0E0E0A3C0E0E0A3C1
:100EA300C0E0E0A3C0E010AF0885821885831980F5
:100EB30008858218858319D2AFD083D08202116B43
:100EC300D083D082E9C0E0E493A3C386F0C5F09554
:100ED300F0F908E493A386F0C5F095F0700BE49362
:100EE300A3C3994005E9048002A3E475F002A42595
:100EF30082F582E5F03583F583D0E0F9E493A3C06E
:100F0300E0E493C0E022851983851882E0A3FEE024
:100F1300A3F5207808E0A3F608DFFAE0A3FFE0A337
:100F2300C0E0E0A3C0E0E0A3C0E0E0A3C0E010AFF6
:100F3300088582188583198008858218858319D2CC
:100F4300AFD083D08222C0E0C3E4939608740193A8
:100F53009618400FE493667008087401936618703E
:100F6300007019A3A3C3E49396087401939618A37E
:100F7300A3400DD0E0D0E0D0E0020E6DA3A3A3A365
:100F8300A3A3D0E022C0E0C0F088F012133FA8F082
:100F93004007121222A8F0701AA3A3A3A312133FAF
:100FA300A8F0A3A3A3A34013D0F0D0E0D0E0D0E0F7
:100FB300020AB3A3A3A3A3A3A3A3A3A3A3D0F0D081
:100FC300E0227404800474028000CCC0E0EDC0E031
:100FD300E518C39CCCAD1950011D10AF068C188DBC
:100FE3001980068C188D19D2AF1210E7D0E0FDD00E
:100FF300E0FC2274028000CCC0E0EDC0E0E518C341
:101003009CCCAD1950011D10AF068C188D198006AC
:101013008C188D19D2AF1210C5D0E0FDD0E0FC22A0
:10102300C0E0C0F088F0E49366700808740193662A
:10103300187000A8F0A3A3700BD0F0D0E0D0E0D0DC
:10104300E0020E6DA3A3D0F0D0E022C0E0C0D0C078
:1010530082C083C2D8C2C343CB10900495E0600C16
:10106300900496E02401F0A3E03400F0D083D08212
:10107300D0D0D0E032D083D082CCC0E0E493A36060
:10108300061211271470FAE493A3600612129A143D
:1010930070FAD0E0FCE493A3C0E0E493C0E022C084
:1010A300E0C0F088F0121222A8F0A3A3A3A3700B50
:1010B300D0F0D0E0D0E0D0E0020AB3A3A3D0F0D0C8
:1010C300E022CAC0E0E493A3C582CCC582C583CD28
:1010D300C583F0A3C582CCC582C583CDC583DAE5BC
:1010E300D0E0CA22CAC0E0E0A3C582CCC582C583D2
:1010F300CDC583F0A3C582CCC582C583CDC583DAB4
:10110300E6D0E0CA227009080808226016181818E9
:10111300C6C333C608C633C608C633C608C633C6F5
:10112300D5E0EA22C0E0E493A3D39C5010E493A358
:10113300C39C400AD0E0D0E0D0E0021095A3A3A363
:10114300D0E022C008C3E096F50808A3E096420861
:1011530008A3E096420808A3E09645087001D3D09F
:101163000822C09FF59FE473D09F22D083D082C012
:101173009FE493C0E0740193C0E0740293F59F224F
:1011830000C0D0251810AF08F518500C05198008B9
:10119300F51850020519D2AFD0D0227404800A7416
:1011A300038006740280027401C0E0F4041211B9D2
:1011B300D0E0121497222518F58210AF08F51840D5
:1011C3000C15198008F51840021519D2AF8519833B
:1011D30022C0E0C0D0E8C0E0A8A8D2AFE8A2E7925E
:1011E300AFD0E0F8D0D0D0E03280E6C0E0C0D0E8A5
:1011F300C0E0A8A8D2AFC2C7E8A2E792AFD0E0F898
:10120300D0D0D0E032BB0102E722C082C083898202
:101213008A83BB0003E08002E493D083D08222E47C
:10122300936670130874019366700C0874029366D6
:1012330070050874039366226016080808C6C31372
:10124300C618C613C618C613C618C613C6D5E0EA11
:10125300222518F8E43519F9222518FAE43519FB83
:10126300222518FCE43519FD22C3E0C696F608A32F
:10127300E0C696F608A3E0C696F608A3E0C696F67F
:1012830022251810AF08F518400C15198008F51819
:1012930040021519D2AF22C0E0E493A36C7009D0C9
:1012A300E0D0E0D0E0021095A3A3D0E022E0667086
:1012B3001008A3E066700A08A3E066700408A3E0C0
:1012C3006622C3E09608A3E09608A3E09608A3E08D
:1012D30096A2D265D03322E76670100809E76670DC
:1012E3000A0809E76670040809E76622C3E096F076
:1012F30008A3E096F008A3E096F008A3E096F02296
:10130300181818E60846087009E626087005E6333B
:10131300F4220822191919E70947097009E727096F
:101323007005E733F4220922C3E697F60809E69726
:10133300F60809E697F60809E697F622C3E49396BA
:101343000874019396087402939608740393962283
:10135300E627F60809E637F60809E637F60809E648
:1013630037F622E056F608A3E056F608A3E056F651
:1013730008A3E056F622E657F60809E657F60809E9
:10138300E657F60809E657F622700422600D18C6E0
:10139300C333C608C633C6D5E0F41822E026F608E0
:1013A300A3E036F608A3E036F608A3E036F622E01B
:1013B30026F008A3E036F008A3E036F008A3E036F1
:1013C300F022E056F008A3E056F008A3E056F00838
:1013D300A3E056F022E647F60809E647F60809E6D1
:1013E30047F60809E647F622E4C396F608E496F6BC
:1013F30008E496F608E496F622600D08C6A2E71301
:10140300C618C613C6D5E0F322C3E09608A3E09638
:1014130008A3E09608A3E09622C6F4C608C6F4C65D
:1014230008C6F4C608C6F4C622C3E7960809E796B9
:101433000809E7960809E7962275D00075813F757C
:10144300180175190400020D89E6084608C31346FE
:1014530008336002E633F422E7094709C313470957
:10146300336002E733F422600C08C6C313C618C600
:1014730013C6D5E0F422E6F008A3E6F008A3E6F0ED
:1014830008A3E6F022E0F608A3E0F608A3E0F608D6
:10149300A3E0F622CAC0E0E6F0A308DAFAD0E0FA45
:1014A30022E0FAA3E0FBA3E0FCA3E0FD22EAF0A321
:1014B300EBF0A3ECF0A3EDF022E0F8A3E0F9A3E056
:1014C300FAA3E0FB22E8F0A3E9F0A3EAF0A3EBF030
:1014D30022E5C754F84401F5C77901222518F5829E
:1014E300E43519F58322E72719471947194722E6F7
:1014F3002618461846184622C2AF75D69F0200002A
:101503002212116E52860412116EC5860412116ED8
:1015130009870412116E61870412116E8387041206
:10152300116E13880412116EA4880412116EF088D0
:101533000412116E1C890412116E5D890412116E5E
:10154300FE8A0412116EE08B0412116EBC8C04121D
:10155300116EB3FF0212116E81900512116E9290FB
:101563000512116E30910512116E3B910512116E29
:1015730055910512116EF8FF0312116E5B97051258
:10158300116E69930512116E79930512116E8E9384
:101593000512116EF6930512116E958C0512116EDC
:1015A300198D0512116E818D0512116E558205126A
:1015B300116E6E820512116E87820512116E9A8268
:1015C3000512116ED1820512116E06830512116E7A
:1015D30082830512116E39840512116E649105120E
:1015E300116E80910512116EA3910512116E00EA1E
:1015F3000412116E0EEA0412116E87EA0412116EC0
:101603005CEB0412116E2EED0412116EC87F0012F2
:10161300116E8A960512116EA6960512116EB99671
:101623000512116EBE960512116E718B0512116EA5
:10163300CC960512116ED7960512116ED2FE0412C6
:10164300116E73ED0412116E29EE0412116E30EF58
:101653000412116E08CA0412116E34CA0412116EF8
:10166300CBCC0412116E0BCD0412116E47CD0412B4
:10167300116E5BCD0412116E74CD0412116E65CE22
:101683000412116E17CF0412116E2BCF0412116EB8
:10169300667E0012116E8A7E0012116EA37E001206
:1016A300116EE17E0012116E117F0012116E3E7FEA
:1016B3000012116EA47F0012116EA77F0012116E2B
:1016C300B17F0012116EBE7F0012116E59FD01121F
:1016D300116E79FD0112116EB8FD0112116ED6FD66
:1016E3000112116EF1FD0112116E57FE0112116EFE
:1016F30063FE0112116EC0FE0112116ECFFE0112C4
:10170300116EF3FE0112116EB4FF0112116EC1FFCF
:101713000112116ED2FF0112116E77950512116E2F
:101723008F950512116EBB950512116E73D40412B9
:10173300116ECDD50412116EDBD50412116EEED5E8
:101743000412116E03D60412116E18D60412116E10
:101753002BD60412116EA7D60412116E0CD70412E5
:10176300116EA2D70412116E7BD80412116E8BD89E
:101773000412116E9AD80412116E3A920512116E68
:101783005E920512116E86920512116EAE920512CB
:10179300116E00800512116E27800512116E4580AF
:1017A3000512116EB4800512116EA8F90412116EA0
:1017B300C1F90412116ECDF90412116EE1F904128C
:1017C300116EFFF90412116E09FA0412116E13FA65
:1017D3000412116E26FA0412116EACFA0412116E81
:1017E30021FB0412116E50FB0412116E9EFB0412B6
:1017F300116EEDFB0412116E08FC0412116E12FC43
:101803000412116E23FC0412116E66FC0412116E95
:101813002C950512116E6BA30412116E97A304127B
:10182300116EB4A30412116EC7A30412116EE2A3C6
:101833000412116E3CA40412116E6AA40412116EF8
:101843007AA80412116ED8A90412116E0AAA0412FE
:10185300116E6DAA0412116ED9AB0412116E01AC94
:101863000412116E16AC0412116E26AC0412116E22
:1018730066AC0412116EA8AC0412116EB8AC04125B
:10188300116E418A0512116E5B8A0512116E838AED
:101893000512116E9C8A0512116EC08A0512116E13
:1018A300DE8A0512116EF58A0512116E238B05125D
:1018B300116E3E8B0512116E04960512116E2AFCF1
:1018C3000212116E3AFC0212116E3FFD0212116EEA
:1018D30071FD0212116EA1FD0212116EC4FD0212FE
:1018E300116EDBFD0212116E15FE0212116E7AFEED
:1018F3000212116EBCFE0212116E03FF0212116E70
:1019030030FF0212116E5BFF0212116EB2B40412A9
:10191300116ECDB40412116ED3B40412116E5DB501
:101923000412116EA7B50412116E21B70412116EC1
:10193300EDB80412116E41BA0412116E99BA041271
:10194300116ED9BA0412116E08BB0412116EE8BBF2
:101953000412116E66860512116E78860512116ED9
:101963008C870512116E8F870512116E9A8E0512E0
:10197300116ED08E0512116EE88E0512116E2A8F2C
:101983000512116E3A8F0512116E498F0512116EF1
:101993008D8F0512116E60BC0412116E9ABC041275
:1019A300116E03BD0412116E22BD0412116EC4BD6B
:1019B3000412116ECDBD0412116E1EBE0412116EFF
:1019C30047BE0412116E54BE0412116EC5BE04123A
:1019D300116E53BF0412116EA1BF0412116ED7BF53
:1019E3000412116E38C00412116E61C00412116E1C
:1019F300D8C00412116E34C10412116E71C10412E5
:101A0300116EA8C10412116EBAC10412116ECCC1B9
:101A13000412116EEBC10412116EF4C10412116EA3
:101A2300AFC20412116EFBC20412116E39C3041249
:101A3300116E01890512116ECF940512116EBAFD54
:101A43000312116EF0FD0312116E38FE0312116EB4
:101A530091FF0312116E66DE0312116E97DF0312FC
:101A6300116ED3DF0312116E8DE10312116EB7E114
:101A73000312116E30E40312116E70E40312116E3F
:101A830004E60312116EA3E60312116EFBE60312C2
:101A9300116E8EE70312116EC8E70312116E0AE886
:101AA3000312116E7DE90312116EFDEA0312116E2A
:101AB3003AED0312116E68ED0312116E94ED0312E9
:101AC300116E9DED0312116EFAED0312116E8AEE83
:101AD3000312116EC6F10312116E48F20312116E56
:101AE30045970512116EFBE50412116E11E60412FF
:101AF300116EB5E60412116EF4E60412116E11E7CD
:101B03000412116E42E70412116E8FE70412116E74
:101B1300C3E70412116EFEE70412116EF3E9041217
:101B2300116E978F0512116EB38F0512116EC28F4E
:101B33000512116E1D900512116EB5F30412116E8C
:101B43006DF40412116E7BF40412116E34F5041259
:101B5300116E9A8D0512116EF98D0512116E378E65
:101B63000512116E788E0512116EBC870512116E67
:101B7300D9870512116EA9880512116ECBD80412EC
:101B8300116E13D90412116EA2D90412116EE1D988
:101B93000412116EAADA0412116EBFDB0412116E65
:101BA300E6DB0412116E0BDC0412116E1BDC041253
:101BB300116E2DDC0412116E4DDC0412116ECBDCA0
:101BC3000412116E06DD0412116E3FCF0412116E62
:101BD30057D00412116E90D00412116E2AD1041240
:101BE300116E32D20412116EB4D30412116E10D4DA
:101BF3000412116E22D40412116EE8AC0412116E99
:101C030035AC0212116E41AC0212116EA3AC02127A
:101C1300116EADAC0212116E3AAD0212116E76ADB9
:101C23000212116E40AE0212116EAEAE0212116EAE
:101C330016AF0212116EA5AF0212116E23B002127B
:101C4300116EC8B10212116E81B30212116EC7B4C4
:101C53000212116E44B60212116EEBB60212116E2D
:101C6300AFBB0212116EA6BC0212116E35BD021279
:101C7300116E5ABD0212116EF7BD0212116E14BE1F
:101C83000212116E34BE0212116EA5BE0212116E43
:101C9300C2BE0212116EF0BE0212116E88C0021291
:101CA300116EA9C00212116E4FC10212116E97C1BB
:101CB3000212116E09C20212116E8CC20212116E4F
:101CC300F1C20212116E4EC30212116EEDC3021263
:101CD300116E61C40212116E9DC40212116E0AC507
:101CE3000212116E74C60212116E07C70212116E30
:101CF300B5C70212116E17CA0212116E79CA021207
:101D0300116E22CC0212116E50CC0212116E60CEF3
:101D13000212116EF4D00212116EFFD10212116E73
:101D230043DF0112116EE2DF0112116E5EE0011258
:101D3300116E4DE10112116E4BE20112116ECAE2F6
:101D43000112116E0CE40112116EADE40112116E59
:101D53006DE60112116E74E70112116E91E7011223
:101D6300116EBCE80112116EF9E90112116EA3EABA
:101D73000112116E0DEE0112116E15F00112116EAA
:101D83009EF00112116EF8F00112116E46F101126C
:101D9300116EC1F10112116E43F20112116E7FF245
:101DA3000112116E23F90112116E7EFB0112116EE5
:101DB3005AFC0112116E65C30412116E02C404129F
:101DC300116EC8C60412116E86C70412116ECEC7F7
:101DD3000412116EF6C70412116EF9C70412116EC4
:101DE30007C80412116E0AC80412116EECC804125B
:101DF300116E1AC90412116E6BC90412116EB5C9A2
:101E03000412116E48960512116E16C90312116E53
:101E130045C90312116EBDC90312116ECCCA031258
:101E2300116E28CB0312116E9FCC0312116EBBCC23
:101E33000312116E0DCD0312116E4BCD0312116EF1
:101E43005ECD0312116EB6CD0312116E78CE03125E
:101E5300116EE6CE0312116E1DCF0312116E55CF14
:101E63000312116EDDD00312116EBCD10312116E79
:101E73000AD30312116EEDD30312116E79D4031238
:101E8300116EB9D40312116ED8D40312116E23D577
:101E93000312116E43D50312116EDCD50312116EBA
:101EA3006BD60312116EC6D60312116E06D7031238
:101EB300116E83D90312116E7EDA0312116ECCDA1E
:101EC3000312116E12DB0312116E07DC0312116E83
:101ED3002FDC0312116E32DC0312116E3CDC031291
:101EE300116E58DC0312116EE0DC0312116E19DD62
:101EF3000312116E45DD0312116E6CDD0312116EB8
:101F030090DD0312116E01DE0312116E14DE031253
:101F1300116E47DE0312116EF9930512116E0594CB
:101F23000512116E43940512116EFBFF0312116E1D
:101F3300C7B20312116EEAB20312116E37B4031261
:101F4300116E80B40312116EDEB40312116E44B528
:101F53000312116E47B50312116E98B50312116E79
:101F630012B60312116E95B60312116E98B60312D0
:101F7300116E20B70312116E63B70312116E86BB85
:101F83000312116E37BD0312116E78BD0312116E69
:101F9300EFC00312116E1DC20312116E9AC3031216
:101FA300116E20C40312116E12C50312116E95C770
:101FB3000312116EE76D0012116E876E0012116E1F
:101FC300F36E0012116E0E6F0012116E986F0012F5
:101FD300116E21A10412116E3C700012116EA370D8
:101FE3000012116E24720012116E3C730012116EF6
:101FF300BF730012116EC7750012116E6B7600125B
:10200300116E0A770012116EF8770012116ED679ED
:102013000012116E777B0012116E0A7C0012116E92
:10202300167D0012116E00800312116E638003127D
:10203300116EAB800312116EE9800312116E44819D
:102043000312116EA1810312116EDC810312116E52
:10205300ED850412116EB8820312116E2C840312E3
:10206300116EB6840312116E09850312116E238556
:102073000312116E3D850312116E97850312116EC3
:102083001D880312116E3C880312116E27890312F7
:10209300116E618A0312116EE08A0312116E178B9F
:1020A3000312116E868B0312116E478C0312116E8D
:1020B300208E0312116E218F0312116E9290031260
:1020C300116E92920312116E0D950312116EE79623
:1020D3000312116EA8970312116E20980312116E4A
:1020E30037980312116E31990312116E299A031254
:1020F300116E989A0312116EB6F60412116E0DF852
:102103000412116ECCF80412116E34F90412116E1C
:1021130071FC0412116EEFFC0412116E0CFE04121A
:10212300116EB4F00412116ECFF00412116E13F19C
:102133000412116E39F10412116E60F10412116E62
:1021430078F10412116E1AF20412116E2FF20412B6
:10215300116E51F30412116E5AF30412116E63F3EC
:102163000412116E6CF30412116E53DD0412116E1E
:1021730055E10412116E5AE10412116E5CE104126E
:10218300116EF3840512116EBE950512116EFB9646
:102193000512116E78940512116E88940512116E52
:1021A300C3E10412116ED3920512116EFD92051252
:1021B300116E27970512116EFBD50212116E2ED6E2
:1021C3000212116E9AD60212116E35D70212116ED7
:1021D300D2D70212116E17D80212116E39D8021219
:1021E300116E52D80212116E78D80212116E9AD85B
:1021F3000212116ED8D80212116E1CD90212116E7E
:102203003ED90212116EA0D90212116E67DA0212C0
:10221300116E1EDB0212116E90DB0212116E5BDC7B
:102223000212116EAEDC0212116E14DD0212116E77
:102233004EDD0212116EA0DD0212116E0EDE0212CD
:10224300116E79DE0212116E7CDE0212116EFDDE5A
:102253000212116E94DF0212116E14E00212116E5B
:1022630033E00212116E8FE10212116EA8E1021225
:10227300116E0DE20212116E1AE20212116E26E3C2
:102283000212116E33E30212116E3CE30212116E5D
:1022930014E50212116E2EE60212116EA7E6021267
:1022A300116E19E70212116E3BE70212116ECFE7AE
:1022B3000212116EA3E90212116E7AED0212116E6F
:1022C3008EED0212116E9EED0212116EA8ED021236
:1022D300116EB1ED0212116EBAED0212116EC4ED60
:1022E3000212116EF1ED0212116E1AEE0212116E4C
:1022F30025EE0212116E49EE0212116E6DEE0212FC
:10230300116ED7EE0212116E1DEF0212116E3AEF2B
:102313000212116EB7EF0212116EEEEF0212116E7E
:102323002DF00212116E7AF00212116E00F10212F8
:10233300116ECEF20212116E51F30212116E35F4C8
:102343000212116E9CF60212116EF5F60212116E54
:102353003FF70212116E9AF80212116ECFF80212B1
:10236300116E21F90212116ED6F90212116E85FA5D
:102373000212116EC2FA0212116E57FB0212116E93
:10238300C3FB0212116E46850112116E788501128C
:10239300116EA6850112116E7C870112116E5C8885
:1023A3000112116EB4880112116EEF890112116EC0
:1023B3003B8A0112116E648D0112116E5790011246
:1023C300116EA7910112116E3D920112116E499285
:1023D3000112116E7B920112116EFE930112116EA6
:1023E3000C950112116E36950112116E9D95011215
:1023F300116EF6950112116E5C960112116E7398AF
:102403000112116E029A0112116ECC9A0112116E11
:10241300129C0112116E629E0112116E32A1011201
:10242300116E3FA10112116EC6A10112116E5AA2C3
:102433000112116E9DA20112116EE6A20112116E1C
:102443003AA30112116EB3A30112116E22A4011259
:10245300116E3FA40112116E6FA40112116EA4A498
:102463000112116E74A50112116E1DA60112116ED7
:10247300A3A80112116EC3A90112116EAEAA011213
:10248300116E30AB0112116E67AF0112116EA4AF62
:102493000112116EFCAF0112116E2FB00112116EF9
:1024A30099B00112116ECFB00112116E5AB101121F
:1024B300116EB2B10112116E89B20112116E42B3E3
:1024C3000112116EDDB30112116EE5B60112116E28
:1024D30001B80112116EA4BB0112116E98BC011256
:1024E300116E9BBC0112116ECABC0112116ED0BEDB
:1024F3000112116EA9BF0112116EECBF0112116E10
:1025030042C10112116E81C10112116E13C2011277
:10251300116E47C20112116E0CC30112116E24C554
:102523000112116E95C50112116ED5C50112116EFE
:1025330063C60112116E8BC70112116E4DC80112D1
:10254300116E54CA0112116E6CCA0112116E80CA47
:102553000112116EB8CA0112116EE6CA0112116E90
:1025630065CC0112116E8ACD0112116EEECD0112EE
:10257300116EA0CE0112116ED0CE0112116E97CF43
:102583000112116E2FD00112116E55D20112116E6C
:102593008AD20112116EEDD20112116E1CD40112F6
:1025A300116EC4D40112116EF5D40112116E0DD542
:1025B3000112116E9CD50112116E50D80112116EC9
:1025C30028DA0112116E44DA0112116E60DA011277
:1025D300116E2EDB0112116E21DF0112116EF0302C
:1025E3000012116E22310012116E11350012116E9C
:1025F3005D350012116EA3350012116E45360012BF
:10260300116EA1360012116EE6360012116E2D38CE
:102613000012116E41390012116E303D0012116E1D
:10262300B43D0012116EC13E0012116E1D3F001227
:10263300116E0D410012116E82410012116E8C4118
:102643000012116E99410012116EC4410012116EF5
:10265300AB420012116E55430012116ED3430012A8
:10266300116EF3430012116E1C440012116E3E44AE
:102673000012116E9E460012116E64470012116E15
:10268300A9470012116E26480012116ED748001296
:10269300116E09490012116E4F490012116E8B49D8
:1026A3000012116EDB490012116E2F4A0012116ED7
:1026B300854A0012116ED14A0012116E3E4B001270
:1026C300116EB94B0012116E844D0012116E844EBF
:1026D3000012116EA94F0012116EE8520012116E12
:1026E300FB550012116EB8560012116EFC56001203
:1026F300116EAC580012116EC0580012116ECA58F8
:102703000012116ED4580012116EE0580012116EAF
:10271300FC580012116EA7590012116EE6590012EF
:10272300116EF0590012116EFA590012116E6A5AA5
:102733000012116EB55A0012116ECA5B0012116EAF
:10274300265C0012116EA75C0012116E665D00120A
:10275300116E6F5E0012116EA35F0012116E916015
:102763000012116EA9600012116E04610012116E45
:1027730022610012116E6A610012116E91610012E2
:10278300116E2C620012116EF2620012116E8463DC
:102793000012116EFE630012116E18650012116EA5
:1027A300C5650012116EED660012116E3D670012D1
:1027B300116EA1670012116E03680012116E316869
:1027C3000012116E55680012116E8A680012116EA4
:1027D300BB680012116EEE680012116E0E690012D2
:1027E300116E76690012116E6A6A0012116EC56A63
:1027F3000012116EEE6A0012116E766B0012116EEA
:10280300F96B0012116E246C0012116E096D001227
:10281300116EA5F20312116EDDF20312116EFEF2B8
:102823000312116E40F30312116EA2F30312116E21
:10283300ACF30312116EBCF30312116EF7F3031220
:10284300116ED7F70312116EC4F90312116EAAFBAE
:102853000312116E41FC0312116EE3FC0312116E9D
:1028630024810212116EA2810212116EFE810212E4
:10287300116E49820212116E64820212116E8F82EE
:102883000212116EAC820212116EB8820212116E24
:102893004F840212116E68840212116EED840212CB
:1028A300116E00850212116E1F850212116EC3850F
:1028B3000212116E44870212116EF7880212116E12
:1028C3008D890212116E90890212116E008A021212
:1028D300116E1E8A0212116EB58A0212116EFD8AE2
:1028E3000212116E008B0212116EC68B0212116E50
:1028F300338C0212116E598C0212116EE48C021287
:10290300116E028D0212116E488D0212116EFC8D32
:102913000212116E468E0212116E758E0212116E24
:10292300D28E0212116E078F0212116E338F0212B2
:10293300116E418F0212116E8E8F0212116EFE8F75
:102943000212116E47900212116E93900212116ED1
:10295300BF900212116ECA900212116EE890021219
:10296300116ED3910212116EDD910212116E189243
:102973000212116E28920212116E31920212116E1E
:1029830085920212116E99920212116EC89302126D
:10299300116EDD930212116E6B940212116EB094DC
:1029A3000212116E3C950212116E47950212116EBE
:1029B30089960212116EA4960212116EF0960212FB
:1029C300116E5F970212116E98970212116EB297F1
:1029D3000212116EF4970212116EC49A0212116E52
:1029E300719B0212116EDE9B0212116E1E9E021269
:1029F300116E369E0212116E399E0212116E459EA1
:102A03000212116E599E0212116E619E0212116E14
:102A1300949E0212116E969F0212116E1DA0021255
:102A2300116E8DA00212116E0FA10212116ED0A1B0
:102A33000212116EEFA10212116E90A20212116E18
:102A4300EDA20212116EF0A20212116E64A3021221
:102A5300116EB3A40212116EB9A50212116E44A62F
:102A63000212116E5FA70212116E27A80212116ED5
:102A730058A80212116E7BA80212116E84A80212CA
:102A8300116EB3A80212116E43A90212116EF9A9B5
:102A93000212116E6EAA0212116E15AB0212116EA2
:102AA3008AAB0212116EC1AB0212116EFFAB02129E
:102AB300116E73A00412116ED69F0412116ECC9F77
:102AC3000412116EC29F0412116E579F0412116EED
:102AD300439F0412116E939E0412116E999D04126A
:102AE300116EBA9C0412116E109A0412116E22997F
:102AF3000412116E9C850412116EC3840412116EAC
:102B0300B4980412116EB3B20312116E338404121B
:102B1300116EE7830412116EA9B20312116E3CB257
:102B23000312116E6DB00312116E2BB00312116EEE
:102B330039AF0312116E0DAF0312116EC4AE03123F
:102B4300116E01AE0312116EEDAA0312116EB0A83D
:102B53000312116E7DA80312116E24A80312116EC5
:102B6300B7A70312116E76A70312116E56A70312AD
:102B7300116E8FA60312116E29A60312116EC8A53A
:102B83000312116E68A50312116E62830412116E93
:102B93001D830412116E01830412116EDD80041271
:102BA300116EAF800412116E7C800412116E0080CE
:102BB3000412116E3FA40312116ED3A30312116EFC
:102BC3002BA30312116E26A30312116E25A3041265
:102BD300116E1AA30312116E4D9F0312116E279FDC
:102BE3000312116EC59E0312116EF1A20412116E2F
:102BF300669E0312116E5E820312116E539E0312C0
:102C0300116E489E0312116E179E0312116E339CB0
:102C13000312116EA69B0312116E629B0312116EB7
:102C23003B9B0312116E5F980412116E0A980412F3
:102C3300116EDD970412116EAA970412116E82971A
:102C43000412116E23970412116E03970412116E6E
:102C5300CE960412116E92930412116E67910412B0
:102C6300116E578F0412116ED48E0412116E9AA234
:102C73000412116E888E0412116E3C8E0412116EB2
:102C8300968D0412116EF16F0000000080FB0001AD
:102C930036360101000102010001030100010401B4
:102CA300060605020000070100340801000F0904AD
:102CB30001010D0100FF0E080000170200001901B9
:102CC30000FF1A0100011B0100FE1C0100081D0288
:102CD30000001F0100012001000121020000230167
:102CE300000F24020000260100012701000828022A
:102CF30000FF2A0100072B0102402C0100002D01D7
:102D030000012E0100012F0100FF30010B1D3108CE
:102D130000003A0100083B01000F3C0100013D01A6
:102D230000FF3E04000042040000460400004A0481
:102D330000004E04000052040000560400005A0430
:102D430000000103710301030103010301030103F4
:102D53002203020301031003000300030003000323
:102D630000030003000342030003240306030003DC
:102D7300000304031203250323032503230304038E
:102D830004030003000300034403000300032303BD
:102D930000036503210035038103000305030003DA
:102DA3000003000300032503230301017101010153
:102DB3000101110101013101010101018001100132
:102DC30061013B001400630173017201620143015D
:102DD3000001130106013D01350004011201000148
:102DE30000010001000104010401330133013C012E
:102DF3004401320136000001000165010001350084
:102E030081010001050182018301000103007100BA
:102E13003001600011007000310220035004800073
:102E23001000610000001400630073007200620070
:102E3300430000001300060000000000040012001D
:102E43000000000000000000040004003700370009
:102E53003C02440000000000000000006500000088
:102E6300350081000000050000008300000003021C
:102E730071023001600211027002010202020202B9
:102E83008002100261023A0041006302730272027F
:102E9300620243020002130238000002000204022D
:102EA30012020002000200020002040204023700C0
:102EB30037003C02440200023900000200026502AE
:102EC300000235028102000205028202830200022F
:102ED30036000100060000000F00000000000000A3
:102EE30000000000000003FFFF00000403FFFF00D9
:102EF30000FFFF0FF4010005C404032000010000DC
:102F03000B000000000000000003010F00000000A0
:102F130000000000000000000000000000000000AE
:102F23000000000000000000000000000000D81CAA
:102F3300081DDE1C1E1CE41C0E1DE41C1A1DEA1CCD
:102F43001E1CE41C0E1DF01C1E1C00000000F61CC1
:102F53001E1C00000000FC1C1E1C021D1E1C000089
:102F6300000000000000000000000000000000005E
:102F7300000000000000000000000000000000004E
:102F8300000000000000000000000000030020011A
:102F93004485000000002001458500000400420133
:102FA3000584030000002103AC120000FDFF210192
:102FB30041850300FDFF21014185004E00004207CA
:102FC30010160000DE1F0100DE1F0200541F0280E6
:102FD3004E1F03005A1F0400601F0480661F050074
:102FE3006C1F0600781F31008A1F3300901F3400C6
:102FF300961FFFFF000007ECFDFDFDECDCDCCCBC05
:10300300ACAC9C9C8C7C7C6C6C5C5C5C4C4C3C3CAD
:103013002C2C1C1C03EAF5E5D5D5C5B5A5959585DE
:10302300857575656555554545353525251515054D
:103033000A5626022026052C260726260C08260DCE
:103043001426FF000000160F00000B150B020002F0
:10305300220F3300000E0FD0D1D2D3D4D5D6D7D878
:10306300D9DADBDCDDDEDF5A6967426565416C6C0A
:1030730069616E63653039303016181920231A1CC4
:103083001E3000034D4C4651181A25050200011944
:103093001618161618230300303017181921301B81
:1030A3001D1F30003C40423A3F3F392F47300C0E42
:1030B300020B040B0A0708000F02040201010101BD
:1030C3000902000000000000E803000000BE040A3B
:1030D30001000E000300E803040903070310FF04C3
:1030E3000A0C041E0828020C0508151E0474F712A6
:1030F3000B38E99014ADF0901462E4F01219549077
:1031030014C5E4F0A3F09014AEF0A3F01227A612B6
:10311300195A9013E5E4F0A3F0122152024A5674AF
:10312300F0120B3874D31212841264B254806066A6
:103133009014ADE0F91219CC8A088B09AF09EA4F54
:10314300604C7C0080010CEC75F003A4F8A9F074CA
:103153003328F582743039F583E493F46029E493DA
:10316300F88A828B83E06870DDEC75F003A4F87451
:103173003428F582743039F583E493C0E074019305
:10318300F583D082120DDEAA08EFFB1219BA126B77
:10319300E464800234F1851882851983A3E0542006
:1031A300601F1226BC8A088B09AF09EA4F600A1216
:1031B3002614AA08EFFB1219BA126BE46420023436
:1031C300F1851882851983E0A2E05042901467E0EC
:1031D300640F702E900780126BEF900780C3E0940A
:1031E300E9A3E09403400A7A007B809012D7124B44
:1031F3003879001225EAE960099017311214A412F4
:103203002602851882851983E064010234D654208E
:1032130070030234DB7A207B009014ADE0F9121BBB
:1032230010EA4B4C4D701A9014C11214BCE8494A71
:103233004B700E750801750900750A00750B008047
:103243006D750C00750D00750E00750F00121B1CBB
:103253008A088B098C0A8D0B9014C11214BCE8499F
:103263004A4B60319014C17808121146400E750C18
:10327300FF750DFF750EFF750F7F801985080C858F
:10328300090D8C0E8D0F9014C1780C12126C740101
:10329300780C12123B850C08850D09850E0A850FE3
:1032A3000BE5084509450A450B70030234357C00DC
:1032B30079047A007B001226928A0C8B0DAE0CAF38
:1032C3000D02337974021214DF74FFF074031214C5
:1032D300DF74FFF074041214DF74FF124BAB12633C
:1032E3006C7407121264126622E96401706A123464
:1032F300FD4480F8A3E0F974281214DFE8F0A3E991
:103303001268B6E0C0E0742A1214DFD0E0124B98C2
:103313005408601674281214DFA3E0440112350A1E
:10332300C0E0742C1214DFD0E0F01264F56011E8F1
:10333300240B123CF0F874161214DFE8F0A3E4F047
:10334300908500120FC57406121264740B12125C7E
:103353001222B474041211838E828F83A3A3A3A3B6
:10336300A3A3A3A3A3740612350AF9122674740542
:103373001214DF126679EE4F70030234357C007944
:1033830004EEFAEFFB12269274051214DFEAF0A39F
:10339300EB1248C2E0F50CA3E0F50DE4F50EF50FD2
:1033A3007808790C12142C4023EE2404F8E43FF936
:1033B30085080C85090D8882F583C3E0950CF0A37D
:1033C300E0950D126CD9E84970A4800C8E828F832E
:1033D300A3A3A3A3E4F0A3F08E828F83A3A3A3A349
:1033E300A3A3A3A3A3A3E064018E828F83A3A3A3B8
:1033F300A3A3A37020E0540460030232C78E828F1C
:1034030083A3A3A3A3A3A3A3A3A37406F07AB712CE
:103413003630023371A3A3A3A3E060030232C78E45
:10342300828F83A3A3A3A3A3A3A3A3A37401F002E3
:1034330033711226627C0079017A007B0012269296
:10344300EA4B6003124B317C0079047A007B001253
:103453002692EA4B701380448A828B83A3A3A3A38F
:10346300126691EE98EF99400B8A828B83A3A3A3F4
:10347300A31266797C0079041226928B0BA90BEABE
:103483004970D5C3E5089EE5099F500DC3EE950825
:10349300FEEF9509FFEE4F700D124B319014C112E0
:1034A3003503A3F08024EE2EFEEF338E08F509E4F6
:1034B300F50AF50B780812119E7A201236D91211EB
:1034C30083121B1C9014C11214B0851882851983B2
:1034D300E06420FAA3E08016A3E054046013125DB5
:1034E30049122BF07901123EB7126BE46404FB809E
:1034F300047A007B00742D0264D1EE1264DFE022B3
:10350300E4F0A3F0A3F022124B9DA3A3E022C08218
:10351300C08374EA1212847C167D007900AA18AB6A
:10352300191219A274081214DF7402F090145612BF
:103533005F8512355174091214DF125F9D741312E3
:1035430014DFE4125C1C1221467416024E67E8F085
:10355300A3E9F09014601266612274F7120B3874B9
:10356300DA121284EAFEEBFFEA4F602DAC18AD19B4
:103573001226DA74061214DFE0601E74171214DFC9
:10358300E0FD74011214DFE0FCEEFAEFFB790012A8
:1035930025C0E9600479A4800279007426024A53A5
:1035A30074F7120B38EAFEEBFF8A82F583A3A3A319
:1035B300A3A3A3E0544060178A828B831264921200
:1035C3004D7660067AFF7BFF801512648E80039030
:1035D300145612636C74FE6A700374FF6B604112BD
:1035E300648E1264B8122770E98E828F83600B1287
:1035F300607B126CA4E4F0A38003126C93F07CF064
:103603007D258E828F831243ECE9F5087015EE4F0A
:1036130060097901EEFAEFFB12266EA908024A56F9
:103623007508CDAA08123630E960E380EE8E828FEA
:103633008312607F240CF582E438F583E0F91225C8
:10364300FC2274F6120B38E9FEEAFF7A0F7B0012B4
:1036530019B4EA4B601A8A828B83740CF0EEA3A32D
:10366300F0EF8A828B83124811125C7A7900802BE7
:10367300EEF91226988B09A909EA49601C8A828B04
:1036830083A3A3A3A3A3A3A3A3A3740612481AE02B
:10369300F9122356EEF91226747910025A6574F45E
:1036A300120B388A088B098C0A8D0B901467E0641F
:1036B3000F701EEA4B4C4D6018901462E064086072
:1036C30005E06404700B780812119E1236D71211AC
:1036D3008302393C7A017B009014ADE0F9121AFEA3
:1036E30074042274F4120B3874FC121284EAFEEB95
:1036F300FF8A82F583A3A3E0F91226988A088B092F
:10370300EA4B700302381F8E828F83A3A882A9839A
:10371300E0C0E0EA125C70D0E012468064F16028F9
:103723008E828F83A3E064CD601E8E828F83A3E09D
:10373300641A60148E828F83A3E064E9600A8E8228
:103743008F83A3E064E17033790012266EE9602B66
:10375300E5082404F50AE43509F50B850882850993
:1037630083A3A3A3A3A3A312475612465E1219660B
:10377300850A82850B831264B880708E828F83A33F
:10378300E0C0E074021214DFD0E0124E75124F98BD
:10379300124106C0E074031214DFD0E0F0E5081212
:1037A3006961123DAFE0AA18AB1970051222AE8011
:1037B3000312275874021214DFE064E9702D8508A0
:1037C30082850983123F15750A01780A1211AA75B9
:1037D3000AE9780A1211AA1246321240D3FCA3E076
:1037E300FD8A828B831240FD12118385088285092D
:1037F30083A3A3A3A3A3A3A3A3A3E064027012853B
:103803000882850983A3A3A3A3A3A3A3A3A37406E5
:10381300F08E828F83A3A3E0F9122674122662909E
:103823001737123D21740402393974F4120B38EA44
:10383300FEEBFF7508008A82F583A3A3A3A3A3E08D
:10384300603875080812635F79FF12242EEA4B6013
:103853001075082C8E828F83A3A3A3A3A3E0D2E0C9
:10386300F08E828F83A3A3A3A3A3E0540364016018
:1038730003023928430811023928EA241812525E38
:103883006036EA241A12525E6003F4701312664122
:103893007003A3E0696003023928750822023928FE
:1038A300EA241B12392C241A12525EFAEE2419123E
:1038B300525EF9122344806D8A828B83A3A3A3A350
:1038C300A3A3A3A3A3123D0C70037508018E828FDB
:1038D300831266457003A3E0697006E508D2E1F53B
:1038E30008E50860158E828F83A3A3E07006E508C0
:1038F300D2E58004E508D2E6F508124D696401704B
:1039030006E508D2E0F5088E828F83A3A3E0601555
:10391300EE241D12557DF912275EE964016006E568
:1039230008C2E0F508A9088010F582E43FF5831288
:103933006CFCEA2274091211837F04020E7D74F079
:10394300120B3874D7121284EAFEEBFF8A82F583D6
:10395300A3A3A3A3E0600E9017351264FC60069046
:103963001735123D2174031212648E828F83A3A331
:10397300A3125E4812636A1226DAE97003023AD28E
:10398300780174051214DFE0C394024002780074D6
:10399300071214DFE0C3940240027800740C12147F
:1039A300DFE064F87003A3E0F47003023AD2740C0E
:1039B3001214DFE064F97003A3E0F47003023AD257
:1039C300740C1214DFE064FA7003A3E0F4700302D2
:1039D3003AD2740C1214DFE064FB7003A3E0F470BA
:1039E30003023AD274061214DFE0F9901450E0692E
:1039F3006003023AD2E8A2E04003023AD2742712EB
:103A030014DFE06003023AD2EE24131266577422E5
:103A13001214DF125E52241C12665774101214DF44
:103A2300125F9D74091214DFE0601D741A1214DF13
:103A3300E0FD74041214DFE0FC8E828F8312636A4C
:103A430079011225C0E9703B740312125C12260E31
:103A5300E9F50C74091214DFE0702C90144AE0604D
:103A6300267422596422601F74425964427014748C
:103A7300201214DF123D06600E74201214DF123C74
:103A8300FF60047ACF804AE9A2E6504D74201214F5
:103A9300DF12558324FD600F14600C24FD6008249D
:103AA300FD600424FE702874201214DF123CF870A9
:103AB3000E74201214DF125BA9A3E0640D601A7464
:103AC3000312125C122788E96401700D023CE87A44
:103AD300D37B00121F2A023CE8EE242DF582E43F3B
:103AE300F583123F0C7003A3E069701D750800781D
:103AF300081211AA78081211AAEE242F12525EF9A5
:103B0300123D121240FD12118374091214DFE0708A
:103B130003023BB0123D1212636C1227D68A0E8B3E
:103B23000FEA4B7003023C4174041214DFE0F88E79
:103B3300828F83A3A3E028F8A3E03400F9E8240DDF
:103B4300123CF0F88A828B83A3A3A3E068600EE89B
:103B53008A828B83A3A3A312480A1235047904E94A
:103B63001214DF12527DA3E02AF8A3E03400888206
:103B7300F583A3AA82AB831219A88A088B098C0A3E
:103B83008D0B850E82850F83A3A3A3A3780812113F
:103B9300464003023CE8908498780812139F850EF0
:103BA30082850F83A3A3126D02A3124FA190146207
:103BB300E064046008E064096003023CE8E50CA2E9
:103BC300E54003023C7BEE242F125266F0EE2430D4
:103BD30012525EC0E074011214DFD0E0F0EE243123
:103BE30012525EC0E074021214DFD0E0F0741412BB
:103BF30014DFE064017026740E1214DF1246592498
:103C03001312525E687003A3E0697011740C1214EE
:103C1300DF123D0C700774141214DFE4F0EE242558
:103C2300F582E43FF583120FC5740412126474071E
:103C330012125C1222B47404121183023CE8901431
:103C4300A7E064016003023BB074201214DF123D4D
:103C5300067009E50CA2E65003023BB0741012147F
:103C6300DFE0F47003A3E0F4607BEEFCEFFD74038C
:103C730012125C12261A806DA2E650697420121487
:103C8300DF12608B7016741A1214DFE06402705531
:103C9300740312125C7900122752804974201214A3
:103CA300DF123CFF7014741A1214DFE064047035E1
:103CB300740312125C122746802B74201214DF1235
:103CC3003CF8700C7900740312125C12279480156F
:103CD30074201214DF125BA9E0640C7008740312E1
:103CE300125C1227A074290264D1E82406F582E449
:103CF30039F583E022126498E0640322126498E0A9
:103D0300640722125587640622124D7A640222EE5A
:103D1300242BF582E43F126CFAEE124D4F22E0F5AC
:103D230008A3E0AA08FBE4FCFD1226022274F412A5
:103D33000B38EAFEEBFF8C088D099013C7E0600F88
:103D43001266417003A3E069700512233280537930
:103D53000012635F1223628A828B83E5824583604C
:103D63002CA3A3A3A3A3A3E054186021E508241C58
:103D7300123DAC120FC9123DA8120FC9EE2418123E
:103D830040E4125844126619121183801579008E8B
:103D9300828F83A3A3A312607112584412636C121F
:103DA300233802393CE5082413F582E43509F58309
:103DB3002274F7120B3874F7121284EAFEEBFF90A9
:103DC3001462E06403600DE064016008E06409606C
:103DD30003023EB28A828B83A3E06003023E807CAF
:103DE300007D007A027B001219601266BE8A82127D
:103DF300665B901453125F9D7953122134901462C1
:103E0300E06409600990146012636C1227D085186E
:103E1300828519837401125BC19014627404F07477
:103E23000112125C794A12212E74011212647A581B
:103E33007B14121B649012DAE0640B70057406F0B5
:103E430080057900123EB79014531260777A037B92
:103E5300001219609014561260777A047B001219CD
:103E63006090144DE0A2E35004D2F08002C2F0123D
:103E73005BAE9017311214A4122602802FFC7D0032
:103E83007A037B101219609012DAE0640B700374EA
:103E93000AF09013CAE4F0FA7B4012599E8E828F87
:103EA30083A3E0F9123EB7901462E4F0122644743F
:103EB30009024A539014601263701222C622C08210
:103EC300C0839013E51264FC7017901462E024FB26
:103ED3006005146007800A9013EC801F9013EE8036
:103EE3001AE8496007123CED6401700C8A828B83E7
:103EF300A3E0F91222BA800E9014DC1264FC60066F
:103F0300125BAA120DDE0256F5126661901460E090
:103F13006822126661E8FAE9FB2274F5120B387421
:103F2300D81212848A088B098A828B83A3A3A3A342
:103F3300A3A3A3A3E0C3940F50030240CE8A828BB2
:103F430083A3A3A312667974151212648A828B83E6
:103F5300A3A3A3A3A3A3A3A31240D3FAA3E0FB1297
:103F6300265074151214DFE0702E850882850983AC
:103F7300A3A3A3A3A3A3A3A3E0C3940B401A8E827A
:103F83008F83A3A3A3A3A3A3A3A3E064027009EE57
:103F9300240B12525EF460030240CE74171214DF36
:103FA300E06007640260030240CE901462E06402A2
:103FB300601CE0640660179013E51264FC70030252
:103FC30040CE123CED640160030240CE8025901385
:103FD300E51264FC701D75080078081211AA7808B0
:103FE3001211AAEE24101240E48E828F831240FD38
:103FF3001211838E828F83126CD112468912665DF1
:1040030074021214DF125E521234FEC0E074041202
:1040130014DFD0E0124106F508A3E0F509740F7828
:104023000812146A74051214DFE508F074191214E7
:10403300DFE0C0E074061214DFD0E0F0741B12144A
:10404300DFE0C0E074071214DFD0E0F0741612143E
:10405300DFE0C0E074091214DFD0E0F0741712142B
:10406300DFE0C0E074081214DFD0E0F0EE24101299
:10407300525EC0E0740A1214DFD0E0F0741A121416
:10408300DFE0C0E0740B1214DFD0E0F074271214E9
:10409300DFE0C0E0740C1214DFD0E0F0741C1214E3
:1040A300DFA982AA8389088A09750A007808121190
:1040B300A27C087D0074101214DFAA82AB83125213
:1040C30055121183AA18AB191222C07428024BB1DE
:1040D300E0F98A828B83A3A3A3A3A3A3A3A3A3E04F
:1040E30022F582E43FF583E0F98E828F83A3A3A3B5
:1040F300A3A3A3A3A3A3126CFC2212637012271021
:10410300740222F0EE125849E02274F2120B387452
:10411300F81212848A0A8B0B8C0C8D0D89089084FB
:104123002BAC18AD1974081210E7C200AC0AAD0B22
:10413300AA18AB191262ED7002D2009014AE80136C
:10414300AC0AAD0BEE240BFAE43FFB1262ED701BDD
:10415300124D401249D3601EA20040E48E828F8329
:10416300E0650C7004A3E0650D70E58E828F83A378
:10417300A3E0650870DAEEFAEFFB7408024696C016
:1041830082C0839014AE0256F2C082C0839014AEF4
:10419300E4F0A30243E874F7120B389014AE126BE9
:1041A300EA800FEA2414F582E4126676121A50EEBE
:1041B300FAEFFBEA4B70EC9014AEE4F0A3F0024A82
:1041C3005674F2120B388A0C8B0DEDFF890B8A8221
:1041D3008B83E08C828D83F0A3A882A9838A828B50
:1041E3008312428D124804E0C454F0FA8882898312
:1041F300E04AF0EC2402F8E43FF9850C828B83A3B8
:10420300A312428D1242A0E0333354FC124294E0D5
:1042130033333354F8124294A3E0A2E0E43313138C
:10422300FA88828983E04AF0EC2403FE50010FE50B
:104233000C2407F508E4350DF509750A0078081212
:1042430011A27C087D00EEFAEF125254121183EE94
:104253002408FE50010FE50C240FF508E4350DF595
:104263000978081211A27C037D00EEFAEF12525472
:10427300121183E50BC3940F400DE50C2412F58254
:10428300E4350D125858F0024699A3E088828983D9
:1042930022FA88828983E04A1242A0A322F0850C85
:1042A300828B83A3A3A3A32274F2120B38EBFF8C9C
:1042B3000C8D0D8A82F583E08C828D83126CBBA3F7
:1042C300A882A983E012569D12467FC4125697F026
:1042D300EA126CC51256A412467DA2E2E4338C8224
:1042E3008D8312467C131313541F12569DA312463B
:1042F3007CA2E7E4338C828D83A3A3A3A3A3A3F0BF
:10430300EA2403FE50010FF5088F09750A007808A7
:104313001211A27C087D00E50C24071252501211E1
:1043230083EE2408FE50010FF5088F097808121157
:10433300A27C037D00E50C240F1252501211838ED0
:10434300828F83A3A3A3E0C0E0126CE1D0E0F0026C
:10435300469974F6120B38EAFEEBFF8A82F583A3C3
:10436300858208858309E0F91222DE8508828509A2
:1043730083E064EB601E8E828F83A3E064E16014AC
:104383008E828F83A3E064F1600A8E828F83A3E021
:10439300641A70078E828F83A3E4F090173112148E
:1043A300A412260275080178081211AA8E828F833F
:1043B300A3E0F50878081211AA790090146012603E
:1043C300779014561240FD121183122662025A6529
:1043D300C082C083E99014C07003E480027401803A
:1043E30004EAF0A3EBF00256F512637012214C229B
:1043F30074F6120B389014C0E0701B7C0079017ABC
:10440300007B00122692EA4B600C8A828B83126433
:10441300FC60031225F6025A65C082C0831248B3BA
:10442300401079FF12268CE9F89030EAE493C398A0
:1044330050047901800279000256F574F2120B38A8
:104443008A0A8B0B8909C2008A828B83A3A3A3A345
:10445300A3A3A3A3E0F91226988A0C8B0DAE0CAF8D
:104463000D750801EA4F600302451F850A82850B1B
:1044730083126071850A82850B83A3A3A3A3A3A3DD
:10448300A312465E1226808A0C8B0DAE0CAF0DEA8A
:104493004F700302462B8A828B83A3A3A3A3E4F06A
:1044A300A3F0E50A240CFAE4350BFB8A82F583E0DA
:1044B300C0E0124632D0E0F0E50A240D1246522441
:1044C3000D125F97122776124D581264B8E50A242D
:1044D300111246522411125F97E50A2413126688BB
:1044E300C0E0124D4AD0E0F0D200EE2406F8E43FDB
:1044F300F912464512468054046003024591901711
:1045030043E0F50A750B007407780A12138C8E8248
:104513008F83A3A3A3A3A3A312463CF08E828F830E
:10452300A3A3A3A3A3A3E0F50AA3E0F50B74077861
:104533000A12146AE50A5407FCE50960618E828F4A
:1045430083A3A3A3A3A3A3A3A3A37402124BAB129A
:104553004948600B90144E1252DEA3A3125F9DECE8
:104563007003024602EE2406F8E43FF9E8FAE91282
:104573004645F0EC24FFF50AE434FFF50B740778A5
:104583000A12138C8A82898312463CF080718E82D0
:104593008F83A3A3A3A3A3A3E0448002451EEC70CF
:1045A3000575080080598E828F83A3A3A3A3A3A3B9
:1045B300E05420600C1219AEEA547F7900245F8026
:1045C300198E828F83A3A3A3A3A3A3E05410601A1D
:1045D3001219AEEA540F7900240A5001098E828F12
:1045E30083A3A3A3A3F0A3E9800D8E828F83A3A348
:1045F300A3A37401F0A3E412468974041248C9A268
:104603000050288E828F83A3A3A3A3126376F9EEAF
:10461300FAEFFB122686E960121264F56003124674
:104623006BEEFAEFFB121A50750800A9088067EECB
:10463300240CF582E43FF58322E0450AF0A3E0452C
:104643000B228882F583E0547FF0A3E054FC22F52B
:1046530082E4350BF583126661EE22A3E0F9850A45
:1046630082850B8312637022124672124AC822EEAD
:10467300240FF582E43FF58322A3A3A3A312468468
:10468300221266A4E02212468D22124BA1A3A3A3F9
:104693002274031211837F06020E7D74F4120B3809
:1046A30074F71212847E00122698EA4B70030247B5
:1046B300518A828B83A3A3A3A3A3A3A3A3A3E0648D
:1046C3000660030247518A828B83A3A3A3A3A3A3F8
:1046D300A3E0FF8A828B83126C83E0C0E07408122C
:1046E30014DFD0E0124A79125F8A125F9D1226AA64
:1046F300EF540860578518828519831260777A0012
:104703007B0012267AEA4B7043126CEC7C007D002E
:104713007A007B0080228E828F83125583F470038C
:10472300A3E0F46027901460124756124A5B601CA2
:104733007C007D00EEFAEFFB12267A8A0A8B0BAE21
:104743000AAF0BEE4F70CF79001221647E01EEF9B0
:1047530002393712475A22E0FCA3E0FD8E828F8391
:1047630022C082C0838A828B83E58245837009904D
:1047730014C580068A828B83A3A312497C60208A96
:10478300828B83A3A3A3A3A3A3A3E0540860E5ECB4
:104793004D60101249827003A3E06D70D780047AD4
:1047A300007B000256F574F2120B388A088B0989D4
:1047B3000AECFEEDFF7A147B00121A4AEA4B6037CB
:1047C3008A828B83A3A3A3A3A3A3A3A3A3E41248D3
:1047D3001AE50A124A65EEF0A3EF12480A124A805C
:1047E3001248118A828B83126D041247FD1263F300
:1047F300A3124804F0A3F0024699EA240FF582E4D9
:1048030022126CBFA3A322124A6BE4F0A322A3F0EB
:10481300126C7C1263F32212481E22124A6FA3A366
:10482300A3A32274F5120B38EAFEEBFF890A8C0866
:104833008D09EA4F60757401697012790112268C33
:10484300E9F89030ECE493C3985015800A74046936
:1048530070091248B3500979118052740269704B80
:104863008E828F83A3A3A3A3A3A3A3A3A3E50A1267
:1048730048C2124F9812657DA3E4F0A3F09014C5CB
:104883001264FC6018800312665D88828983A3A387
:1048930012497C88828983A3A370EC80039014C59A
:1048A300EEF0A3EF1248C97900800279C1024BB43C
:1048B300790412268CE9F89030EBE493C398221222
:1048C3006581A3A3A322F07A207B009014ADE0F9C5
:1048D3001219F622C082C083E9F879009014C580CA
:1048E3001D8A828B83A3A3A3A3A3A3A3A3A3E0688B
:1048F300600574FF687001098A828B83A3A3124940
:104903007C70DE0256F574F7120B38EA4B70059093
:1049130014C580068A828B83A3A312497C601F8AF5
:10492300828B83A3A3A3A3A3A3A3A3A3E06970E49C
:10493300EC600F8A828B8312494870D880047A0016
:104943007B00024A56126C9CE0540422C082C0834E
:104953009014C580068A828B83A3A312497C6012BC
:104963008A828B83A3A3A3A3A3A3A3A3E06970E574
:1049730080047A007B000256F5126370EA4B228AA8
:10498300828B831255876C2274F2120B388A0A8B3E
:104993000B8C0C8D0D750800750900EA4B602A908D
:1049A30014C580068E828F83A3A31249D3601AACE9
:1049B3000CAD0DEEFAEFFB850A82850B83120DDE3B
:1049C300E9640170DF8E088F09AA08AB09024699D2
:1049D300E0FEA3E0FFEE4F2274F7120B389014C5EC
:1049E30012665D7C007D00800DE8FCE9FD8882890C
:1049F30083A3A312665DE8496030EA687002EB693D
:104A030070E79014C512636CE86A7002E96B8882E0
:104A13008983A3A3700812665D9014C5800912668A
:104A23005D8C828D83A3A3125F9D802774F7120B85
:104A330038EAFEEBFFEA4F60151226A4124AB412BD
:104A430064F5600312466BEEFAEFFB121A50800313
:104A53001211837F01020E7D126370122158E964E3
:104A63001A22124A6BA3A322124A6F22F08A828B64
:104A730083A3A3A3A322126CBF1255872212481E3D
:104A8300A32274F6120B389014C51266798014129F
:104A93006696124AB412466BEEFAEFFB121A50AE48
:104AA30008AF09EE4F70E89014C5E4F0A3F0025A82
:104AB300658E828F83126C70F583124AC88E828F43
:104AC30083124AC822E0FAA3E0FB121A5022C082E2
:104AD300C083EAFCEBFDEA4D6017EA24FBF582EBA9
:104AE30034FF1264FA7007124B26E0F460071219C0
:104AF300BA7905802B9014ADE0C0E0124B26D0E0CC
:104B0300F09030E3E493F97AC77B141219F0E96467
:104B130001700B7A007B20124B35790080027904F7
:104B23000256F5EA24FFF582EB34FFF583227A205F
:104B33007B009014ADE0F91219F62274F4120B38CD
:104B4300A2AFE433F508C2AF9014C71249D360385B
:104B5300EE24FBF582EF34FF1264FA7A007B209097
:104B630014AD6005124B388005E0F91219FCE4F529
:104B73000AF50B780A1211A6EEFCEFFD7AC77B1437
:104B83001219EA7402121183E508A2E092AFEEFA59
:104B9300EFFB02393C124B9DE022124BA122124B38
:104BA300ABA3A3A3A3A3A322F08E828F832212110C
:104BB300837F03020E7D74F2120B3874FA1212848F
:104BC300EAFEEBFF7508FE7509FF122668E960052A
:104BD3007911024D3B12525B603C901758E0C4338D
:104BE30054E0F8E0333354FC48C0E0EE125C6A3F13
:104BF300F583D0E01266B8FAA3E0FB79FF12242E06
:104C0300EA4B60127508FFEE240F12525E4404F063
:104C130012525BD2E0F08E828F83124D746006EEE7
:104C230024121266D0EE241312525E700D9030E6F9
:104C3300E493C0E0124D4AD0E0F08E828F83E0A26D
:104C4300E7500454038019EE241412525E7012903C
:104C5300143FE0C0E0124D40D0E0F090143FE00478
:104C6300F0EE241112525E64017016901747E06053
:104C73000D90144AE0700A8E828F83E070031266EF
:104C8300CD8E828F83E064017013EE240B12557D69
:104C930064027009EE240F12525E4440F0AC18AD6A
:104CA30019EEFAEFFB1226D48A0A8B0B74FE650801
:104CB300700374FFF47003126696EA4B60768E827B
:104CC3008F83E0C0E074011214DFD0E0F0740412AB
:104CD30014DFEEF0A3EFF0EE241E126657740212F7
:104CE30014DF125F9D7401121254880C890D780C25
:104CF3001211A6EE2420124D5D1211AA124D581264
:104D03000FC9EE240E124D5D1211AA901453120F07
:104D1300C974081214DFE0F9AC08AD091226CE7489
:104D230008121183E9FE74106E700BAA0AAB0B1202
:104D33001A5080027E10EEF97406024696EE241491
:104D4300F582E43FF58322EE124D4F222413F582C0
:104D5300E43FF58322EE12467322F582E43FF583A6
:104D6300E0F50C780C228E828F83A3A3A3A3A3A3C5
:104D7300A3A3A3124D7A22E0FAA3E0FB122770E962
:104D830022C082C08374D712128490839574031255
:104D9300126474261210E78A828B83A3A3A3A3123F
:104DA300665D740E1214DF12650212665D740C12D6
:104DB30014DF124E7D240D124E6DC0E0741A1214CE
:104DC300DFD0E0F01263F912665B74201214DF1275
:104DD3004E7D2415124E6DC0E074081214DFD0E02E
:104DE300F0EA241CF582E43B12665B74121214DFB2
:104DF300124E7D2411124E6DC0E074091214DFD0DF
:104E0300E0F0EA2412124E6DC0E074071214DFD0F2
:104E1300E0F0EA241EF582E43B12665B742412146C
:104E2300DF124E7D2420124E6DC0E074261214DF73
:104E3300D0E0124E7574FFF074011214DF74FFF0AA
:104E430074021214DF74FFF0908500120FC574040E
:104E5300121264740712125C1222B47404121183C6
:104E6300790074291211830256F5F582E43BF58328
:104E7300E022F085188285198322E8F0A3E9F0EA9D
:104E83002274F4120B3874EC1212848A0A8B0B8C82
:104E9300088D09E9FF7E107A217B00121A4A8518D2
:104EA30082851983EAF0A3EB12650CE849700302CB
:104EB3004F917C217D007900851882851983E0FA62
:104EC3001219A290146012636C85188285198312DB
:104ED300607B2409F582E438F5831264B8742012E8
:104EE30014DF12665D74111214DFE81255EC1264BC
:104EF300BE38F58374021255EF126C8A7402125590
:104F0300D9124F981255EF126C67EFF074221214F6
:104F1300DF12559AF9A3E0C912696139F583E812E2
:104F230052AFA3E0C9241FF582E439124F9F7423C3
:104F33001214DF12636C74061214DF1264B874085F
:104F43001214DFE8F074261214DF126492C082C0D8
:104F530083740C1214DFAC82AD83D083D0827405CA
:104F63001210E774251214DFE0C0E074131214DF8B
:104F7300D0E0F07900AA18AB1912266EE96401702B
:104F8300047E00800985188285198312466EEEF926
:104F93007414023939E508F0A3E50922F583E50A1B
:104FA300F0A3E50BF02274F0120B3874FF12128495
:104FB300EAFEEBFF8C088D098A82F583A37408F05F
:104FC300EA241612525E60088A828B83A37410F05F
:104FD300EA241712525E60098A828B83A3E02408B5
:104FE300F0EA12525C60088A828B83A3E004F08AA1
:104FF300828B83A3A3A3A3A3A3E060198A828B83D9
:10500300A3A3A3A3A3A3A3E0C3332402F88A828B9D
:1050130083A3E028F0EA24111252666004740E8020
:1050230001E4F0901752E0640170168A828B83E0EA
:105033006401600D9013CAE0600712524674018048
:1050430004125246E41252AF8A828B83A3E0F8EA39
:105053001234FE28298C828D83F0EA241112525EC9
:10506300600512588729F0850882850983E0C39477
:10507300754009750C00750D0002523DE0FA7B0086
:10508300121A4A8A0C8B0DEA4B700302523D8E8230
:105093008F83E0FA9014501252A874027808121306
:1050A3008CEA4508FAAB09EE24121252A274067870
:1050B3000812138CA808EA48FCEBFD12525B60044B
:1050C300780180027800EE2416FAE43FFBE4C8F985
:1050D300ED49FDEE241112525EF508880974097832
:1050E3000812138CED4509FD8A828B831252A87432
:1050F3000B780812138CED4509FDEE24171252A20A
:10510300740C780812138CED4509FD8E828F83A3EE
:10511300A3A3A3A3A31252A8740A780812138CEDB5
:105123004509FDEE24231252A2740D780812138C44
:10513300ED4509F9EC850C82850D83F0E9A3F0EECA
:1051430024021252851252C4F0EE2404125285A393
:10515300A31252C4A3A3F0EE2413125295F0EE242B
:1051630014125295A3F0750B088A828B83E06015A5
:1051730012656E126077E50C2408FAE4350DFB1214
:105183001B64750B10EE241712525E60191260FA3D
:10519300126077A80BE50C28FAE4350DFB121B64AB
:1051A3007408250BF50B8E828F83A3A3A3A3A3A35C
:1051B300E0604EEE2407F50EE43FF50F850E82F511
:1051C30083E0C0E0125274D0E01252B4E0C0E008B1
:1051D300125276D0E01252B4A31264E81211A285DF
:1051E3000E82850F83E012554EA80BE50C28125250
:1051F30050121183850E82850F83E0C333250BF58F
:105203000B12525B6008C0E0125274D0E0F01258E7
:10521300441264E81211A21234FDFC7D00740312DF
:1052230014DF12527DE0F8E50C28F8E4350DF9E8B7
:105233002AFAE439125254121183AA0CAB0D7401E9
:105243000264D1EA2423F582E43FF58322FAE435AC
:105253000DFB121996740322EE2415F582E43FF533
:1052630083E022F582E43FF583E085188285198384
:1052730022A80BE50C2812556122E0FA8E828F8357
:10528300A322F8E43FF98882F583E0850C82850D3B
:105293008322F582E43FF5831252CEA3A3A322F522
:1052A30082E43FF583E0F50875090022126CADF93D
:1052B30022F0050B8E828F83A3A3A3A3A3A3A3A38F
:1052C30022A3A31266A4A31252CE22E0850C8285E8
:1052D3000D83A3A3A32274030239391266618E825C
:1052E3008F83A3A32274F0120B3874FD121284125D
:1052F30064B274021214DFE9F08C0C8D0D750B018E
:105303007C267D007900AA0CAB0D1219A27402123F
:1053130014DFE0C3940850030254D712528DF0AC4B
:105323000CAD0D851882851983125583FA85188271
:10533300851983125BA9125880E96003750B0085F8
:1053430018828519831264921255A4E0F9EA850C38
:1053530082850D83A3A3A3A3A3A3A3A3A3F0A3E97C
:105363001255D9A3A31255A4A3A3E0F9E50C126522
:1053730011EA1255EC126067C0E0E50C2411126CBF
:10538300E5D0E01255EF2407F582E438F583E0C059
:10539300E0126CE1D0E01264A574081255D0A3E0CA
:1053A3006026851882851983E02408F8A3E0340079
:1053B300F9E50C2413F582E4350D125F9B850C820D
:1053C300850D83A3E02408F0850C82850D83A3A3B8
:1053D300A3A3A3A3A3A3E0602A850C82850D83A3C3
:1053E30085820E85830F125591F8A3E03400F9E509
:1053F3000C125C6A350D125F9B850E82850F83E06C
:105403002408F0125555E4F0125569E4F0A3126430
:10541300A5A3A3A3A3E060111255B5850C82850D46
:1054230083A3A3A3A3A31255E1E50C125576E07061
:10543300030254C31255B5FA125555EA1255E1F851
:10544300851882851983E028FBA3E034008B82F55D
:1054530083E0F8E50C241A126CE5E81255E1E8C381
:105463009AE50C5056125571F89030E4E493C398C2
:1054730050047E0C8006E50C125571FE850C828566
:105483000D83125590F508A3E03400F509750A0061
:1054930078081211A2EE12554E7AF67B0812525575
:1054A30012118312556974F6F0A37408F0EEC33336
:1054B300F8850E82850F83E0288004125576E4F088
:1054C300850C82850D83A3E0F8850C82850D83E02E
:1054D300C398500479008070125590FAA3E0340009
:1054E300FBE50C1266C7126CE81264B8850C828562
:1054F3000D83E0C398C0E0E50C2417126CE5D0E0FF
:105503001255D0E06040E50C2417FEE4350DFF8E04
:1055130082F583E024F2F0E50C241DF8E4350DF95F
:105523008882F583E0240EFAA3E03400FB888289A5
:10553300831264B890144BE0F91225C6E9F88E8201
:105543008F83E0C398F0A90B0264CF25E0FCE4331A
:10555300FD22E50C12555B22241912556122F582B6
:10556300E4350DF58322E50C241B125561221255F7
:105573005BE02212649F12556422F582E43FF583B7
:1055830012558722126666F5838882E022A312559C
:10559300952212559A2822E0F8851882851983E00E
:1055A30022A3A3E0FA851882851983126498A3A322
:1055B300A322850C82850D83A385820E85830F121A
:1055C3005595FAA3E034008A82F583E0221264A998
:1055D300A3A3A3A3A3221255F4F583888222F08503
:1055E3000E82850F83E004F022F0A3E91255F4C87C
:1055F30022126CB1F8A3E02274F4120B388A088BE0
:1056030009EA1256A4A3A3F0EA1313543F125697C0
:10561300A3F0EAC413131256A41256AE7409780AFF
:1056230012146A12568EA3A3A3A3A3A3F0EB1256DC
:10563300901256AD740A780A12146AE50A5401C02E
:10564300E0EC12649F3DF583D0E01256B2740B7800
:105653000A12146A12568E1256AB740C780A12147C
:105663006A12568EA31256AB740D780A12146AE5A9
:105673000A5401C0E0EC2424F582E43DF583D0E034
:10568300F0740E780812146A023928E50A54018C62
:10569300828D832212569DA3A322540F8C828D8365
:1056A3002254038C828D8322A3A3A3A3A3A3A3F0D9
:1056B3008A0A8B0B22C082C08379008A828B83A3E0
:1056C300A3A3A3A3A3E090144A600EE0701F8A82F1
:1056D3008B83A3A3E070168012E0601112635F90C6
:1056E3001453E06A7003A3E06B6002790180031234
:1056F300636CD083D08202116B74F2120B388A0A66
:105703008B0B890CECFEEDFF8A828B83E0FA125837
:1057130080850A82850B83A3A3125874E0F9EA8E6D
:10572300828F83A3A3A3A3A3A3A3A3A31258991212
:105733005874A3A3E0F9125844EA125899A3A3E0BA
:10574300C0E0EE2411F582E43FF583D0E01258A0C7
:10575300A3A3A3E0C0E0EE2412F582E43FF583D0D7
:10576300E012657D74081248C2A3A3A3E06017E5A5
:105773000A2408F8E4350BF9124D4AE8F0A3E912BC
:10578300657DE02408F08E828F83A3A3A3A3A3A344
:10579300A3A3E060188E828F83A3125863EE2415AF
:1057A300125F97850882850983E02408F08E828F33
:1057B30083A3A3A3A3A3E060248E828F83A3858204
:1057C30008858309E0F8E50A28F582E4350B1258C9
:1057D30058A3A3F0850882850983E004F0EEFAEF6D
:1057E300FB1226E6E9F50D70498E828F83A3A3A3EE
:1057F300A3A3A3125852A37014E0F8E50A28FAE40D
:10580300350BFB12583A1264B8E50C801A12586330
:10581300E8240EF8500109EE241D125F97125887F1
:10582300F9E50CC39924F2C398C0E0EE1260F1D0FD
:10583300E0F0A90D024699EE241DF582E43FF583BD
:1058430022EE12584922240BF582E43FF58322E02D
:105853008E828F8322F583E08E828F83A3A3A3227C
:10586300858208858309E0F8E50A28F8E4350BF911
:1058730022E0FA850A82850B83A3A3A3221266D9A9
:105883001226E02290144BE0F91225C6E9F88508A8
:1058930082850983E022F0A3E91258A022F0850A49
:1058A30082850B83A3A3A3A322C082C0837AD37B65
:1058B3001479E212212E7AD37B140256F5C082C0EA
:1058C300839014530256F2C082C08390145602563A
:1058D300F2C082C083794A12212E0256F574F61261
:1058E3000B389014DBE0FE04F0EEF9122698EA4B35
:1058F30070F0EE60EDF9025A6574F2120B38EAFEAD
:10590300EBFF8C088D09890A1227D6740E1214DF57
:10591300E0F9740F1214DFE0F8EA4B7012E8701B21
:10592300A90AAC08AD09EEFAEFFB1227F48065E88B
:105933006017E970068A828B83E4F07401687054FF
:10594300E99014DE7024E4801EE97048EA24021210
:105953004E6DA80A28F8E4340013E813F070358A72
:10596300828B83A3A37401F0802AE004F090174490
:10597300E0F89014DEE0C398401AE4F0901456E087
:105983006E7003A3E06F700CEEFAEFFB7901122245
:10599300D812599A0246997A017B009014ADE0F926
:1059A300121B0A2274F4120B388A088B098C0A8D95
:1059B3000B90849878081212B070077A01124B3357
:1059C300801E9017317808121479EA4B4C4D600D04
:1059D300780812119E1236D7121183800312599A36
:1059E30002393CC082C0839017350243E4C082C0B1
:1059F300839017370243E474F6120B387E00750860
:105A03003F75091478081211A67C6E7D007A217BFC
:105A130000121AC27402121183E9640A70027E0131
:105A230012222AE9640A7004EED2E1FE90043612CF
:105A330064FC600F125BAA120DDEE9640A7004EEC7
:105A4300D2E3FE122452E9640A7004EED2E4FE1299
:105A5300209EE9640A7004EED2E5FEEEF98003129B
:105A630011837F02020E7D74F6120B3812195A75D8
:105A7300083F75091478081211A675086E75090098
:105A830078081211A6125AA7121183122230900419
:105A9300381264FC6006125BAA120DDE122458123F
:105AA30020B080BE7C007D007A217B00121ACE7468
:105AB300042274F6120B3874FF1212847E007508E8
:105AC3003F75091478081211A67C6E7D007A217B3C
:105AD30000121AC27402121183E96003025B817817
:105AE300081211A675086E8E0978081211A67C009B
:105AF3007D007A217B00121AD47404121183E97099
:105B03007D901453E064FE7003A3E0F460707E01A3
:105B1300901462E064086005E06404705C85188298
:105B2300851983EE125BC17A6A7B1479431221349F
