:020000040000FA
:06000000020D940202FF54
:0300130002059251
:03002B00020B7E47
:03003300020B7C41
:0300530002023472
:03005B00020A088E
:03006B00020B6421
:100083000202930100F0FF0700080000FFFF0000D9
:10009300050400000003000147726F757000FF0440
:1000A30000100020FD000206FFFF020101001E01F7
:1000B300721600008416000000000000000000001B
:1000C3000000000000000000104E65776C616E6454
:1000D30020456475000000000000000000000000DF
:1000E300000000000000000000000000000000000D
:1000F30000000000000000000000000000000000FD
:1001030000000000000000000000000000000000EC
:1001130000000000000000000000000000000000DC
:1001230000000000000000000000000000000000CC
:1001330000000000000000000000000000000000BC
:1001430000000000000000000000000000000000AC
:10015300000000000000000000000000000000009C
:10016300000000000000000000000000000000008C
:10017300000000000000000000000000000000007C
:10018300000000000000000000000000000000006C
:10019300000000000000000000000000000000005C
:1001A300000000000000000000000000000000004C
:1001B300000000000000000000000000000000003C
:1001C3000000000000000008040100010003D083C8
:1001D300025A8401040000C612000000E803000074
:1001E300FFFF17130188130000E803000064006495
:1001F30000B801A0BB0D00A0BB0D00020202070462
:10020300051E02051E020A0101080103B80B0201C3
:1002130002E8030A0500FFFF0205030101FF0F497E
:1002230026000000007F2500000000FF000000FF03
:1002330000C0E074F1120663A2AFE433F509D2AF54
:1002430085A708AFA1EF5508FE74105E6006120F74
:10025300C475A1EF74085E6008120FCA75A1F78018
:1002630024EFA2E092F0E508A2E082F0501790613B
:1002730098E0F89004A3E0C398A2D265D03350026B
:10028300E8F075A1FEE509A2E092AF7F020206C283
:10029300C0E074F2120663A2AFE433FED2AF906102
:1002A300A4E0F8759B00E59158540860087591F730
:1002B3001210188023E59158541060087591EF12BD
:1002C300101E8014E591A2E092F0E8A2E082F050C3
:1002D30007E0C2E0F01211689061A3E0F8E5E95885
:1002E3005404600E12113E75E9FB906193E0A2E69F
:1002F30040F2EEA2E092AF7F010206C2C0E074F2C8
:10030300120663A2AFE433FED2AF9061A5E0F8E535
:10031300BF585404600675BFFB12118080D4C3E438
:1003230098F8E499F91203628026C3E49AFAE49BED
:10033300FBE920E7E9120362E498F8E499F922C3A0
:10034300E498F8E499F9120362E498F8E499F9C39C
:10035300E49AFAE49BFB22EB20E7CFE920E7E0B93C
:100363000010BB0008E88AF084F8AAF022E4FBC876
:10037300FA22EB70227B10C833C8C933C933500744
:10038300C39AC3DBF280069A50012ADBEAC833F42E
:10039300C8C933F4C9FA2275F008E4C833C8C933AD
:1003A300C933C99AC99B5004C92AC93BD5F0ECFB90
:1003B300C833F4C8E4C9FA22080808EAC0E0EBC06D
:1003C300E086F0E7A4FA180986F0E7A42AFA1809E8
:1003D30086F0E7A42AFA180986F0E7A42AFA198610
:1003E300F0E7A4FBE5F02AFA190886F0E7A42BFB53
:1003F300E5F03AFA190886F0E7A42BFBE5F03AFAA0
:1004030018180986F0E7A4C5F02BFBE43AFA19089B
:10041300E7C5F0C6A426F6E5F03BFBE43AFA1886F6
:10042300F0E7A4F6E5F00826F6E43B08F6E43A081C
:10043300F6D0E0FBD0E0FA22D083D082ECC0E0ED2E
:10044300C0E0EEC0E0EFC0E0E493A3FCE493A3FDBF
:10045300E493A3FEE493A3FFEF4E4D4C6015120902
:1004630018EC24FFFCED34FFFDEE34FFFEEF34FF08
:10047300FF80E5E493A3FCE493A3FDE493A3FEE4EC
:1004830093A3FFEF4E4D4C6015120A32EC24FFFC90
:10049300ED34FFFDEE34FFFEEF34FFFF80E5D0E0E7
:1004A300FFD0E0FED0E0FDD0E0FCE493A3C0E0E4A5
:1004B30093C0E022E4CFC0E0E4CEC0E0E4CDC0E0EE
:1004C300E4CCC0E075F020E626F608E633F608E64D
:1004D30033F608E633F6181818EC33FCED33FDEE6B
:1004E30033FEEF33FFC3EC9709ED9709EE9709EF5E
:1004F30097191919400FFFEC97FC09ED97FD09EEC9
:1005030097FE191906D5F0BFECF709EDF709EEF7D9
:1005130009EFF7191919D0E0FCD0E0FDD0E0FED0C7
:10052300E0FF222518C582C0E0E51934FFC583C06A
:10053300E0E518C3958224F810AF088583198582F6
:10054300188008858319858218D2AFCEF0A3E520E1
:10055300F0A37808E608F0A3DEFAEFF0A3E5812420
:10056300FAF8E608F0A3E608F0A3E608F0A3080803
:10057300E608F0A3E608F0A315811581D0E0FED0CC
:10058300E0F8158115811581E8C0E0EEC0E022C0D6
:10059300E0C0D0E8C0E0E9C0E0C082C083A9C19058
:1005A3001285E0C394404002E4F0E0F8740128F0BF
:1005B300744528F582E43412F583E9F0D083D082C0
:1005C300D0E0F9D0E0F8D0D0D0E03274F81205FDD5
:1005D30074FF120C14EAFEEBFFEE85188285198373
:1005E300F07C017D00AA18AB1912146EEEFAEFFB32
:1005F3007401120B2E7F010208992518C582C0E0F1
:10060300E51934FFC583C0E0E518C3958224F910CA
:10061300AF08858319858218800885831985821818
:10062300D2AFCEF0A3E520F0A37808E608F0A3DE6E
:10063300FAEFF0A3E58124FBF8E608F0A3E608F05F
:10064300A30808E608F0A3E608F0A315811581D0F6
:10065300E0FED0E0F815811581E8C0E0EEC0E022AD
:10066300C0D02518C582C0E0E51934FFC583C0E0BA
:10067300E518C3958224F310AF0885831985821882
:100683008008858319858218D2AFC8F0A3E9F0A347
:10069300EAF0A3EBF0A37908E709F0A3D8FAECF0AA
:1006A300A3EDF0A3EEF0A3EFF0A3D0E0F0A3D0E02E
:1006B300F0A3D0E0F0A3E520F0A3E5F0F0A32285BA
:1006C3001983851882E0C0E0A3E0F9A3E0FAA3E070
:1006D300FBA37808E0F608A3DFFAE0FCA3E0FDA3A0
:1006E300E0FEA3E0FFA3E0C0E0A3E0C0E0A3E0F5E9
:1006F300D0A3E0F520A3E0A3F5F010AF088583199C
:100703008582188008858319858218D2AFD082D05C
:1007130083D0E0F8D0E032120E0EB900030207597D
:10072300E490040178B779128002F0A3D8FCD9FAD7
:100733007AB77B1590008678AF79028015E493A38E
:10074300AD82AE838A828B83F0A3AA82AB838D8230
:100753008E83D8E9D9E77582517583EB7404120A45
:10076300F57582C47583247400120AF50475F010BC
:100773008E1A8F1B85821F85831E85188285198398
:10078300E0CEA3E0CF851F82851E83EBC9EAC8EDC7
:10079300CBECCAC3E833C8E933C9EA33CAEB33CB7A
:1007A300C3EA9EF51DEB9FF51CB35004AB1CAA1DB9
:1007B300EC33CCED33CDD5F0DAAE1AAF1B22D083B8
:1007C300D082ECC0E0EDC0E0E493A3FCE493A3FD8E
:1007D300ED4C600D1208D9EC24FFFCED34FFFD80D5
:1007E300EFE493A3FCE493A3FDED4C600D1209B376
:1007F300EC24FFFCED34FFFD80EFD0E0FDD0E0FC06
:10080300E493A3C0E0E493C0E022D083D082E9C0A4
:10081300E0E493A3C386F0C5F095F0F908E493A34D
:1008230086F0C5F095F0700BE493A3C3994005E9F6
:10083300048002A3E475F002A42582F582E5F03575
:1008430083F583D0E0F9E493A3C0E0E493C0E0220E
:10085300851983851882E0A3FEE0A3F5207808E0DC
:10086300A3F608DFFAE0A3FFE0A3C0E0E0A3C0E043
:10087300E0A3C0E0E0A3C0E0E0A3C0E010AF0885C0
:1008830082188583198008858218858319D2AFD091
:1008930083D082020AFB851983851882E0A3FEE0D8
:1008A300A3F5207808E0A3F608DFFAE0A3FFE0A3AE
:1008B300C0E0E0A3C0E0E0A3C0E0E0A3C0E010AF6D
:1008C300088582188583198008858218858319D243
:1008D300AFD083D08222C0E0C3E49396087401931F
:1008E3009618400FE49366700808740193661870B5
:1008F300007019A3A3C3E49396087401939618A3F5
:10090300A3400DD0E0D0E0D0E00207FDA3A3A3A352
:10091300A3A3D0E022C0E0C0F088F0120C93A8F0AB
:100923004007120BB2A8F0701AA3A3A3A3120C934F
:10093300A8F0A3A3A3A34013D0F0D0E0D0E0D0E06D
:100943000204A1A3A3A3A3A3A3A3A3A3A3D0F0D00F
:10095300E0227404800474028000CCC0E0EDC0E0A7
:10096300E518C39CCCAD1950011D10AF068C188D32
:100973001980068C188D19D2AF120A77D0E0FDD0FA
:10098300E0FC2274028000CCC0E0EDC0E0E518C3B7
:100993009CCCAD1950011D10AF068C188D19800623
:1009A3008C188D19D2AF120A55D0E0FDD0E0FC228D
:1009B300C0E0C0F088F0E4936670080874019366A1
:1009C300187000A8F0A3A3700BD0F0D0E0D0E0D053
:1009D300E00207FDA3A3D0F0D0E022D083D082CCE5
:1009E300C0E0E493A36006120AB71470FAE493A379
:1009F3006006120C2A1470FAD0E0FCE493A3C0E062
:100A0300E493C0E022C0E0C0D0C082C083C2D8C299
:100A1300C343CB10900495E0600C900496E024014E
:100A2300F0A3E03400F0D083D082D0D0D0E032C045
:100A3300E0C0F088F0120BB2A8F0A3A3A3A3700B3D
:100A4300D0F0D0E0D0E0D0E00204A1A3A3D0F0D056
:100A5300E022CAC0E0E493A3C582CCC582C583CD9E
:100A6300C583F0A3C582CCC582C583CDC583DAE532
:100A7300D0E0CA22CAC0E0E0A3C582CCC582C58348
:100A8300CDC583F0A3C582CCC582C583CDC583DA2A
:100A9300E6D0E0CA22C008C3E096F50808A3E096B2
:100AA300420808A3E096420808A3E09645087001AF
:100AB300D3D00822C0E0E493A3D39C5010E493A3C3
:100AC300C39C400AD0E0D0E0D0E00209FBA3A3A37B
:100AD300D0E0227009080808226016181818C6C347
:100AE30033C608C633C608C633C608C633C6D5E000
:100AF300EA22C09FF59FE473D09F22D083D082C0A7
:100B03009FE493C0E0740193C0E0740293F59F22C5
:100B13002518F58210AF08F518400C15198008F553
:100B23001840021519D2AF8519832200C0D02518A9
:100B330010AF08F518500C05198008F51850020578
:100B430019D2AFD0D0227404800A740380067402D1
:100B530080027401C0E0F404120B13D0E0120DD133
:100B630022C0E0C0D0E8C0E0A8A8D2AFE8A2E792D4
:100B7300AFD0E0F8D0D0D0E03280E6C0E0C0D0E81B
:100B8300C0E0A8A8D2AFC2C7E8A2E792AFD0E0F80E
:100B9300D0D0D0E032BB0102E722C082C083898279
:100BA3008A83BB0003E08002E493D083D08222E4F3
:100BB300936670130874019366700C08740293664D
:100BC30070050874039366226016080808C6C313E9
:100BD300C618C613C618C613C618C613C6D5E0EA88
:100BE30022C3E0C696F608A3E0C696F608A3E0C6BD
:100BF30096F608A3E0C696F6222518F8E43519F907
:100C0300222518FAE43519FB222518FCE43519FDD1
:100C130022251810AF08F518400C15198008F5188F
:100C230040021519D2AF22C0E0E493A36C7009D03F
:100C3300E0D0E0D0E00209FBA3A3D0E022E7667096
:100C4300100809E766700A0809E76670040809E7EF
:100C53006622C3E09608A3E09608A3E09608A3E003
:100C630096A2D265D03322E066701008A3E06670C6
:100C73000A08A3E066700408A3E06622C3E096F0C6
:100C830008A3E096F008A3E096F008A3E096F0220C
:100C9300C3E49396087401939608740293960874B8
:100CA30003939622C3E697F60809E697F60809E642
:100CB30097F60809E697F622E657F60809E657F687
:100CC3000809E657F60809E657F622E056F608A3A0
:100CD300E056F608A3E056F608A3E056F622E056DF
:100CE300F008A3E056F008A3E056F008A3E056F09E
:100CF30022E026F608A3E036F608A3E036F608A3BA
:100D0300E036F622E627F60809E637F60809E6375D
:100D1300F60809E637F622E647F60809E647F60835
:100D230009E647F60809E647F622700422600D1823
:100D3300C6C333C608C633C6D5E0F41822E026F08E
:100D430008A3E036F008A3E036F008A3E036F0226B
:100D5300E4C396F608E496F608E496F608E496F6F5
:100D630022C6F4C608C6F4C608C6F4C608C6F4C646
:100D730022C3E09608A3E09608A3E09608A3E096B2
:100D830022C3E7960809E7960809E7960809E79654
:100D93002275D00075813F7518017519040002078B
:100DA3001AE6F008A3E6F008A3E6F008A3E6F022AB
:100DB300600C08C6C313C618C613C6D5E0F422E0F8
:100DC300F608A3E0F608A3E0F608A3E0F622CAC0FB
:100DD300E0E6F0A308DAFAD0E0FA22E8F0A3E9F0BB
:100DE300A3EAF0A3EBF022E0F8A3E0F9A3E0FAA36F
:100DF300E0FB22EAF0A3EBF0A3ECF0A3EDF022E09A
:100E0300FAA3E0FBA3E0FCA3E0FD22E5C754F8440A
:100E130001F5C77901222518F582E43519F58322F6
:100E2300C2AF75D69F02000022120AFE98EB03128E
:100E33000AFE14EC03120AFE47EC03120AFE75ECD9
:100E430003120AFE99EE03120AFEB5EE03120AFE1E
:100E5300FAEE03120AFE7FEF03120AFECBEF031230
:100E63000AFE5BF003120AFE34F103120AFE85F157
:100E730003120AFEEAF103120AFE5DF203120AFEEE
:100E8300A1F203120AFEF9F203120AFE1BF3031284
:100E93000AFEABF303120AFE3CF403120AFE88F4C3
:100EA30003120AFEB4F403120AFEF5F403120AFE57
:100EB30096F603120AFE78F703120AFE54F8031299
:100EC3000AFEBFFA04120AFE1DFC04120AFE2EFCDF
:100ED30004120AFE48FC04120AFEFDFF02120AFE77
:100EE300EBFF01120AFEB8F804120AFEC8F8041256
:100EF3000AFEDDF804120AFE45F904120AFEAEF4F6
:100F030004120AFE32F504120AFE9AF504120AFECE
:100F1300B3F604120AFECFF604120AFEF2F6041226
:100F23000AFE1CDA04120AFE2ADA04120AFEA3DA03
:100F330004120AFE78DB04120AFE4ADD04120AFEDA
:100F430057FC04120AFEEFFC04120AFE02FD04120F
:100F53000AFE8AF304120AFE5EF204120AFEC3FAC0
:100F630002120AFEEFFA02120AFE86FD02120AFEBE
:100F7300C6FD02120AFE02FE02120AFE16FE02124B
:100F83000AFE2FFE02120AFE20FF02120AFED2FF01
:100F930002120AFEE6FF02120AFE36ED04120AFEF0
:100FA3005AED04120AFE73ED04120AFEB1ED0412A7
:100FB3000AFEE1ED04120AFE0EEE04120AFE74EEBE
:100FC30004120AFE77EE04120AFE81EE04120AFEF0
:100FD3008EEE04120AFE55E604120AFE75E60412AA
:100FE3000AFEB4E604120AFED2E604120AFEEDE695
:100FF30004120AFE53E704120AFE5FE704120AFE14
:10100300BCE704120AFECBE704120AFEEFE7041260
:101013000AFEB0E804120AFEBDE804120AFECEE896
:1010230004120AFE0AFB04120AFE22FB04120AFE41
:101033004EFB04120AFE55C104120AFEAFC204128B
:101043000AFEBDC204120AFED0C204120AFEE5C2A1
:1010530004120AFEFAC204120AFE0DC304120AFEA7
:1010630089C304120AFEEEC304120AFE84C40412E6
:101073000AFE5DC504120AFE6DC504120AFE7CC594
:1010830004120AFE89F704120AFEADF704120AFEDF
:10109300D5F704120AFEFDF704120AFEFCE8041257
:1010A3000AFE23E904120AFE41E904120AFEB0E92A
:1010B30004120AFE82E304120AFE9BE304120AFEF0
:1010C300A7E304120AFEBBE304120AFED9E30412E7
:1010D3000AFEE3E304120AFEEDE304120AFE00E44F
:1010E30004120AFE86E404120AFEFBE404120AFE5A
:1010F3002AE504120AFE78E504120AFEC7E5041283
:101103000AFEE2E504120AFEECE504120AFEFDE51E
:1011130004120AFE40E604120AFE24FA04120AFE2E
:10112300EAA004120AFE16A104120AFE33A1041255
:101133000AFE46A104120AFE61A104120AFEBBA123
:1011430004120AFEE9A104120AFEF9A504120AFE1A
:1011530057A704120AFE89A704120AFEECA7041279
:101163000AFE58A904120AFE80A904120AFE95A9D0
:1011730004120AFEA5A904120AFEE5A904120AFE36
:1011830027AA04120AFE37AA04120AFE2EF1041239
:101193000AFE48F104120AFE70F104120AFE89F1F4
:1011A30004120AFEADF104120AFECBF104120AFE88
:1011B300E2F104120AFE10F204120AFE2BF20412E8
:1011C3000AFE97FB04120AFE93D604120AFEA3D664
:1011D30004120AFEA8D704120AFEDAD704120AFE82
:1011E3000AD804120AFE2DD804120AFE44D80412A7
:1011F3000AFE7ED804120AFEE3D804120AFE25D999
:1012030004120AFE6CD904120AFE99D904120AFECA
:10121300C4D904120AFE60B204120AFE7BB204129D
:101223000AFE81B204120AFE0BB304120AFE55B37E
:1012330004120AFECFB404120AFE9BB604120AFE7D
:10124300EFB704120AFE47B804120AFE87B8041265
:101253000AFEB6B804120AFE96B904120AFE98EE04
:1012630004120AFEAAEE04120AFEBEEF04120AFEDC
:10127300C1EF04120AFE01FF03120AFE37FF031235
:101283000AFE4FFF03120AFE91FF03120AFEA1FF9B
:1012930003120AFEB0FF03120AFEF4FF03120AFE52
:1012A3000EBA04120AFE48BA04120AFEB1BA0412B4
:1012B3000AFED0BA04120AFE72BB04120AFE7BBBFA
:1012C30004120AFECCBB04120AFEF5BB04120AFE8A
:1012D30002BC04120AFE73BC04120AFE01BD04120E
:1012E3000AFE4FBD04120AFE85BD04120AFEE6BDC6
:1012F30004120AFE0FBE04120AFE86BE04120AFE80
:10130300E2BE04120AFE1FBF04120AFE56BF0412F5
:101313000AFE68BF04120AFE7ABF04120AFE99BFCE
:1013230004120AFEA2BF04120AFE5DC004120AFEE2
:10133300A9C004120AFEE7C004120AFEEEEF04126B
:101343000AFEC7F904120AFEAC7D00120AFEE27D12
:1013530000120AFE2A7E00120AFE837F00120AFE92
:10136300DAC603120AFE0BC803120AFE47C80312A9
:101373000AFE01CA03120AFE2BCA03120AFEA4CCF8
:1013830003120AFEE4CC03120AFE78CE03120AFE0D
:1013930017CF03120AFE6FCF03120AFE02D0031205
:1013A3000AFE3CD003120AFE7ED003120AFEF1D1DC
:1013B30003120AFE71D303120AFEAED503120AFE0C
:1013C300DCD503120AFE08D603120AFE11D6031255
:1013D3000AFE6ED603120AFEFED603120AFE3ADA9C
:1013E30003120AFEBCDA03120AFEEA7F00120AFEA7
:1013F3008ED204120AFEA4D204120AFE48D30412A7
:101403000AFE87D304120AFEA4D304120AFED5D31C
:1014130004120AFE22D404120AFE56D404120AFE4F
:1014230091D404120AFE86D604120AFE8FDD04123A
:101433000AFE47DE04120AFE55DE04120AFE0EDF20
:1014430004120AFE8FFC04120AFEA2FC04120AFE16
:10145300B3F504120AFE12F604120AFE50F6041241
:101463000AFE91F604120AFE1DCA04120AFE35CBC7
:1014730004120AFE6ECB04120AFE08CC04120AFE02
:10148300E2CC04120AFED9CD04120AFE35CE0412B0
:101493000AFE47CE04120AFE67AA04120AFE35ACFE
:1014A30002120AFE41AC02120AFEA3AC02120AFEA9
:1014B300ADAC02120AFE3AAD02120AFE76AD02127A
:1014C3000AFE40AE02120AFEAEAE02120AFE16AFCA
:1014D30002120AFEA5AF02120AFE23B002120AFE8E
:1014E300C8B102120AFE7CB302120AFEDDB4021274
:1014F3000AFE84B502120AFE48BA02120AFE3FBB74
:1015030002120AFECEBB02120AFEF3BB02120AFE4D
:1015130090BC02120AFEADBC02120AFECDBC02123E
:101523000AFE3EBD02120AFE5BBD02120AFE89BD1F
:1015330002120AFE21BF02120AFE42BF02120AFE73
:10154300E8BF02120AFE30C002120AFEA2C0021253
:101553000AFE25C102120AFE8AC102120AFEE7C16F
:1015630002120AFE86C202120AFEFAC202120AFE20
:1015730036C302120AFEA3C302120AFE0DC50212EB
:101583000AFEA0C502120AFE4EC602120AFEB0C827
:1015930002120AFE12C902120AFEBBCA02120AFE94
:1015A300E9CA02120AFEF9CC02120AFE8DCF021218
:1015B3000AFE98D002120AFE87DE01120AFE26DF17
:1015C30001120AFEA2DF01120AFE91E001120AFED5
:1015D3008FE101120AFE0EE201120AFE50E301122C
:1015E3000AFEF1E301120AFEB1E501120AFEB8E6B2
:1015F30001120AFED5E601120AFE00E801120AFEF4
:101603003DE901120AFEE7E901120AFE51ED01125A
:101613000AFE59EF01120AFEE2EF01120AFE3CF044
:1016230001120AFE8AF001120AFE05F101120AFEF6
:1016330087F101120AFEC3F101120AFE67F80112D3
:101643000AFEC2FA01120AFE9EFB01120AFE2EF9DD
:1016530003120AFECBF903120AFED1FB03120AFEA0
:101663008FFC03120AFED7FC03120AFEFFFC0312CF
:101673000AFE02FD03120AFE10FD03120AFE13FD09
:1016830003120AFE85FE03120AFEB3FE03120AFECC
:10169300DBFB04120AFE8AB103120AFEB9B103127C
:1016A3000AFE31B203120AFE40B303120AFE9CB3D0
:1016B30003120AFE13B503120AFE2FB503120AFE24
:1016C30081B503120AFEBFB503120AFED2B5031297
:1016D3000AFE2AB603120AFEECB603120AFE5AB732
:1016E30003120AFE91B703120AFEC9B703120AFED8
:1016F30051B903120AFE30BA03120AFE7EBB03126B
:101703000AFE61BC03120AFEEDBC03120AFE2DBDE4
:1017130003120AFE4CBD03120AFE97BD03120AFE12
:10172300B7BD03120AFE50BE03120AFEDFBE031248
:101733000AFE3ABF03120AFE7ABF03120AFEF7C17A
:1017430003120AFEF2C203120AFE40C303120AFE88
:1017530086C303120AFE7BC403120AFEA3C4031248
:101763000AFEA6C403120AFEB0C403120AFECCC4C6
:1017730003120AFE54C503120AFE8DC503120AFEA4
:10178300B9C503120AFEE0C503120AFE04C603121A
:101793000AFE75C603120AFE88C603120AFEBBC6FA
:1017A30003120AFE48F904120AFE54F904120AFE4F
:1017B30092F904120AFEFAFF02120AFE3B9B03127D
:1017C3000AFE5E9B03120AFEAB9C03120AFEF49C04
:1017D30003120AFE529D03120AFEB89D03120AFE6B
:1017E300BB9D03120AFE0C9E03120AFE869E031281
:1017F3000AFE099F03120AFE0C9F03120AFE949F1E
:1018030003120AFED79F03120AFEFAA303120AFE6B
:10181300ABA503120AFEECA503120AFE63A9031289
:101823000AFE91AA03120AFE0EAC03120AFE94AC3E
:1018330003120AFE86AD03120AFE09B003120AFE62
:1018430019DB03120AFEB9DB03120AFE25DC0312BD
:101853000AFE40DC03120AFECADC03120AFE23DD81
:1018630003120AFE6EDD03120AFED5DD03120AFE21
:1018730056DF03120AFE6EE003120AFEF1E00312C2
:101883000AFEF9E203120AFE9DE303120AFE3CE498
:1018930003120AFE2AE503120AFE08E703120AFEF0
:1018A300A9E803120AFE189B04120AFE48EA03126F
:1018B3000AFE008003120AFE638003120AFEAB8055
:1018C30003120AFEE98003120AFE448103120AFE90
:1018D300A18103120AFEDC8103120AFE5E82031257
:1018E3000AFEB88203120AFE2C8403120AFEB6848F
:1018F30003120AFE098503120AFE238503120AFE58
:101903003D8503120AFE978503120AFEA4A0041262
:101913000AFE3C8803120AFE278903120AFE618A23
:1019230003120AFEE08A03120AFE178B03120AFE51
:10193300868B03120AFE478C03120AFE208E0312C3
:101943000AFE218F03120AFE929003120AFE92925C
:1019530003120AFE0D9503120AFEE79603120AFE0E
:10196300A89703120AFE209803120AFE379803125F
:101973000AFE319903120AFE299A03120AFE989A63
:1019830003120AFE90E004120AFEE7E104120AFEC3
:10199300A6E204120AFE0EE304120AFE93FC0112ED
:1019A3000AFEAEFC01120AFEF2FC01120AFE18FD49
:1019B30001120AFE3FFD01120AFE57FD01120AFE43
:1019C300F9FD01120AFE0EFE01120AFE30FF01129A
:1019D3000AFE39FF01120AFE42FF01120AFE4BFF03
:1019E30001120AFEADC504120AFEAFC904120AFEB3
:1019F300B4C904120AFEB6C904120AFEC3EB0412E8
:101A03000AFE51FB04120AFEC3FC04120AFE94FFF1
:101A130001120AFEA4FF01120AFE56CE04120AFEA8
:101A230022F804120AFE4CF804120AFE10FD0412F6
:101A33000AFE6FFA04120AFE94D402120AFEC7D4F5
:101A430002120AFE33D502120AFECED502120AFE94
:101A53006BD602120AFEB0D602120AFED2D60212C8
:101A63000AFEEBD602120AFE11D702120AFE33D780
:101A730002120AFE71D702120AFEB5D702120AFE3B
:101A8300D7D702120AFE39D802120AFE00D902126F
:101A93000AFEB7D902120AFE29DA02120AFEF4DAA2
:101AA30002120AFE47DB02120AFEADDB02120AFE35
:101AB300E7DB02120AFE39DC02120AFEA7DC02127D
:101AC3000AFE12DD02120AFE15DD02120AFE96DD7F
:101AD30002120AFE2DDE02120AFEADDE02120AFE19
:101AE300CCDE02120AFE28E002120AFE41E00212D4
:101AF3000AFEA6E002120AFEB3E002120AFEBFE1EA
:101B030002120AFECCE102120AFED5E102120AFE1B
:101B1300ADE302120AFEC7E402120AFE40E5021216
:101B23000AFEB2E502120AFED4E502120AFE68E6D4
:101B330002120AFE3CE802120AFE13EC02120AFE2B
:101B430027EC02120AFE37EC02120AFE41EC0212E3
:101B53000AFE4AEC02120AFE53EC02120AFE5DEC84
:101B630002120AFE8AEC02120AFEB3EC02120AFE09
:101B7300BEEC02120AFEE2EC02120AFE06ED0212AB
:101B83000AFE70ED02120AFEB6ED02120AFED3ED52
:101B930002120AFE50EE02120AFE87EE02120AFE3B
:101BA300C6EE02120AFE13EF02120AFE99EF0212A8
:101BB3000AFE67F102120AFEEAF102120AFECEF2EF
:101BC30002120AFE35F502120AFE8EF502120AFE11
:101BD300D8F502120AFE33F702120AFE68F7021260
:101BE3000AFEBAF702120AFE6FF802120AFE1EF983
:101BF30002120AFE5BF902120AFEF0F902120AFE51
:101C03005CFA02120AFE8A8401120AFEBC840112E3
:101C13000AFEEA8401120AFEC08601120AFEA087A8
:101C230001120AFEF88701120AFE338901120AFE25
:101C33007F8901120AFEA88C01120AFE9B8F0112F2
:101C43000AFEEB9001120AFE819101120AFE8D91A8
:101C530001120AFEBF9101120AFE429301120AFE0B
:101C6300509401120AFE7A9401120AFEE1940112C1
:101C73000AFE3A9501120AFEA09501120AFEB797D1
:101C830001120AFE469901120AFE109A01120AFE77
:101C9300569B01120AFEA69D01120AFE76A00112AE
:101CA3000AFE83A001120AFE0AA101120AFE9EA1E6
:101CB30001120AFEE1A101120AFE2AA201120AFE82
:101CC3007EA201120AFEF7A201120AFE66A3011206
:101CD3000AFE83A301120AFEB3A301120AFEE8A3BC
:101CE30001120AFEB8A401120AFE61A501120AFE3E
:101CF300E7A701120AFE07A901120AFEF2A90112BF
:101D03000AFE74AA01120AFEABAE01120AFEE8AE85
:101D130001120AFE40AF01120AFE73AF01120AFE5E
:101D2300DDAF01120AFE13B001120AFE9EB00112CA
:101D33000AFEF6B001120AFECDB101120AFE86B206
:101D430001120AFE21B301120AFE29B601120AFE8C
:101D530045B701120AFEE8BA01120AFEDCBB011202
:101D63000AFEDFBB01120AFE0EBC01120AFE14BEFC
:101D730001120AFEEDBE01120AFE30BF01120AFE75
:101D830086C001120AFEC5C001120AFE57C1011224
:101D93000AFE8BC101120AFE50C201120AFE68C478
:101DA30001120AFED9C401120AFE19C501120AFE64
:101DB300A7C501120AFECFC601120AFE91C701127E
:101DC3000AFE98C901120AFEB0C901120AFEC4C96B
:101DD30001120AFEFCC901120AFE2ACA01120AFEF6
:101DE300A9CB01120AFECECC01120AFE32CD01129A
:101DF3000AFEE4CD01120AFE14CE01120AFEDBCE66
:101E030001120AFE73CF01120AFE99D101120AFED2
:101E1300CED101120AFE31D201120AFE60D30112A1
:101E23000AFE08D401120AFE39D401120AFE51D463
:101E330001120AFEE0D401120AFE94D701120AFE2F
:101E43006CD901120AFE88D901120AFEA4D9011223
:101E53000AFE72DA01120AFE65DE01120AFE292960
:101E630000120AFE5B2900120AFE4A2D00120AFE26
:101E7300962D00120AFEDC2D00120AFE7E2E0012A1
:101E83000AFEDA2E00120AFE1F2F00120AFE663027
:101E930000120AFE7A3100120AFE693500120AFEA8
:101EA300ED3500120AFEFA3600120AFE563700120A
:101EB3000AFE463900120AFEBB3900120AFEC53972
:101EC30000120AFED23900120AFEFD3900120AFE80
:101ED300E43A00120AFE8E3B00120AFE0C3C00128A
:101EE3000AFE2C3C00120AFE553C00120AFE773C07
:101EF30000120AFED73E00120AFE9D3F00120AFEA0
:101F0300E23F00120AFE5F4000120AFE1041001277
:101F13000AFE424100120AFE884100120AFEC44131
:101F230000120AFE144200120AFE684200120AFE60
:101F3300BE4200120AFE0A4300120AFE7743001251
:101F43000AFEF24300120AFEBD4500120AFEBD4618
:101F530000120AFEE24700120AFE214B00120AFE9B
:101F6300344E00120AFEF14E00120AFE354F0012E3
:101F73000AFEE55000120AFEF95000120AFE035150
:101F830000120AFE0D5100120AFE195100120AFE38
:101F9300355100120AFEE05100120AFE1F520012D0
:101FA3000AFE295200120AFE335200120AFEA352FD
:101FB30000120AFEEE5200120AFE035400120AFE39
:101FC3005F5400120AFEE05400120AFE9F550012ED
:101FD3000AFEA85600120AFEDC5700120AFECA586F
:101FE30000120AFEE25800120AFE3D5900120AFED0
:101FF3005B5900120AFEA35900120AFECA590012C5
:102003000AFE655A00120AFE2B5B00120AFEBD5B34
:1020130000120AFE375C00120AFE515D00120AFE2E
:10202300FE5D00120AFE265F00120AFE765F0012B2
:102033000AFEDA5F00120AFE3C6000120AFE6A60C2
:1020430000120AFE8E6000120AFEC36000120AFE2E
:10205300F46000120AFE276100120AFE47610012B3
:102063000AFEAF6100120AFEA36200120AFEFE62BC
:1020730000120AFE276300120AFEAF6300120AFE73
:10208300326400120AFE5D6400120AFE4265001209
:102093000AFE008004120AFE388004120AFE5980E8
:1020A30004120AFE9B8004120AFEFD8004120AFE3B
:1020B300078104120AFE178104120AFE52810412D8
:1020C3000AFE328504120AFE1F8704120AFE0589DE
:1020D30004120AFE9C8904120AFE3E8A04120AFEB6
:1020E300248102120AFEA28102120AFEFE8102125A
:1020F3000AFE498202120AFE648202120AFE8F82DB
:1021030002120AFEAC8202120AFEB88202120AFE10
:102113004F8402120AFE688402120AFEED84021240
:102123000AFE008502120AFE1F8502120AFEC385FB
:1021330002120AFE448702120AFEF78802120AFEFE
:102143008D8902120AFE908902120AFE008A021287
:102153000AFE1E8A02120AFEB58A02120AFEFD8ACE
:1021630002120AFE008B02120AFEC68B02120AFE3C
:10217300338C02120AFE598C02120AFEE48C0212FC
:102183000AFE028D02120AFE488D02120AFEFC8D1F
:1021930002120AFE468E02120AFE758E02120AFE11
:1021A300D28E02120AFE078F02120AFE338F021228
:1021B3000AFE418F02120AFE8E8F02120AFEFE8F62
:1021C30002120AFE479002120AFE939002120AFEBE
:1021D300BF9002120AFECA9002120AFEE89002128F
:1021E3000AFED39102120AFEDD9102120AFE189230
:1021F30002120AFE289202120AFE319202120AFE0B
:10220300859202120AFE999202120AFEC8930212E2
:102213000AFEDD9302120AFE6B9402120AFEB094C8
:1022230002120AFE3C9502120AFE479502120AFEAA
:10223300899602120AFEA49602120AFEF096021270
:102243000AFE5F9702120AFE989702120AFEB297DD
:1022530002120AFEF49702120AFEC49A02120AFE3E
:10226300719B02120AFEDE9B02120AFE1E9E0212DE
:102273000AFE369E02120AFE399E02120AFE459E8D
:1022830002120AFE599E02120AFE619E02120AFE01
:10229300949E02120AFE969F02120AFE1DA00212CB
:1022A3000AFE8DA002120AFE0FA102120AFED0A19D
:1022B30002120AFEEFA102120AFE90A202120AFE05
:1022C300EDA202120AFEF0A202120AFE64A3021297
:1022D3000AFEB3A402120AFEB9A502120AFE44A61C
:1022E30002120AFE5FA702120AFE27A802120AFEC2
:1022F30058A802120AFE7BA802120AFE84A8021240
:102303000AFEB3A802120AFE43A902120AFEF9A9A1
:1023130002120AFE6EAA02120AFE15AB02120AFE8E
:102323008AAB02120AFEC1AB02120AFEFFAB021213
:102333000AFE399A04120AFE8F9704120AFEA19626
:1023430004120AFE339604120AFE987D00120AFE56
:102353008E7D00120AFE217D00120AFE527B0012BE
:102363000AFE107B00120AFE1E7A00120AFEF279A0
:1023730000120AFEA97900120AFEE67800120AFE8C
:10238300D27500120AFE957300120AFE62730012E0
:102393000AFE097300120AFE9C7200120AFE5B72A7
:1023A30000120AFE3B7200120AFE747100120AFE4A
:1023B3000E7100120AFEAD7000120AFE4D7000127B
:1023C3000AFE246F00120AFE70A004120AFE19A06E
:1023D30004120AFEA09E04120AFEF29D04120AFED3
:1023E300559D04120AFE4B9D04120AFE419D0412E0
:1023F3000AFEB86E00120AFE106E00120AFE0B6E81
:1024030000120AFED69C04120AFEFF6D00120AFE99
:10241300326A00120AFE0C6A00120AFEAA6900124E
:102423000AFEC29C04120AFE4B6900120AFE1D88B2
:1024330003120AFE386900120AFE2D6900120AFE11
:10244300FC6800120AFE186700120AFE8B6600126F
:102453000AFE476600120AFE206600120AFEDE9597
:1024630004120AFE899504120AFE5C9504120AFE00
:10247300299504120AFE019504120AFEA29404127D
:102483000AFE829404120AFE4D9404120AFE11916C
:1024930004120AFEE68E04120AFED68C04120AFE09
:1024A300538C04120AFE129C04120AFE078C0412B7
:1024B3000AFEBB8B04120AFE158B04120AFE3CE9CA
:1024C3000300000080FBE4730001363601010001C4
:1024D30002010001030100010401060605020000D8
:1024E300070100340801000F090401010D0100FF79
:1024F3000E08000017020000190100FF1A01000175
:102503001B0100FE1C0100081D0200001F01000149
:1025130020010001210200002301000F240200001A
:102523002601000127010008280200FF2A010007F5
:102533002B0102402C0100002D0100012E0100019E
:102543002F0100FF30010B1D310800003A01000884
:102553003B01000F3C0100013D0100FF3E04000070
:1025630042040000460400004A0400004E04000038
:1025730052040000560400005A04000001037103D2
:102583000103010301030103010322030203010306
:102593001003000300030003000300030003000310
:1025A300420300032403060300030003040312038E
:1025B3002503230325032303040304030003000368
:1025C3000003440300030003230300036503210006
:1025D3003503810300030503000300030003000325
:1025E300250323030101710101010101110101010E
:1025F3003101010101018001100161013B0014005F
:1026030063017301720162014301000113010601B9
:102613003D01350004011201000100010001000128
:1026230004010401330133013C014401320136004A
:102633000001000165010001350081010001050170
:102643008201830100010300710030016000110069
:10265300700031022003500480001000610000006C
:102663001400630073007200620043000000130053
:10267300060000000000040012000000000000003B
:10268300000004000400370037003C02440000004F
:10269300000000000000650000003500810000001C
:1026A3000500000083000000030271023001600294
:1026B3001102700201020202020280021002610290
:1026C3003A00410063027302720262024302000293
:1026D3001302380000020002040212020002000288
:1026E3000002000204020402370037003C024402E5
:1026F3000002390000020002650200023502810275
:102703000002050282028302000236000100060075
:1027130000000F00000000000000000000000000A7
:1027230003FFFF00000403FFFF0000FFFF0FF4019E
:102733000005C4040320000100000B00000000009A
:1027430000000003010F0000000000000000000073
:102753000000000000000000000000000000000076
:1027630000000000000000007015A0157615BC14D1
:102773007C15A6157C15B2158215BC147C15A615FF
:102783008815BC14000000008E15BC140000000066
:102793009415BC149A15BC1400000000000000003E
:1027A3000000000000000000000000000000000026
:1027B3000000000000000000000000000000000016
:1027C30000000000000003002001898400000000D5
:1027D3002001888400000400420164830300000098
:1027E30021039B120000FDFF210185840300FDFFEF
:1027F30021018584004E00004207FC1500006A1881
:1028030001006A180200E0170280DA170300E617D6
:102813000400EC170480F2170500F81706000418EB
:102823003100161833001C1834002218FFFF000073
:1028330007ECFDFDFDECDCDCCCBCACAC9C9C8C7CE7
:102843007C6C6C5C5C5C4C4C3C3C2C2C1C1C03EA90
:10285300F5E5D5D5C5B5A595958585757565655595
:10286300554545353525251515050AD61E02A01EE5
:1028730005AC1E07A61E0C881E0D941EFF0000004B
:10288300160F00000B150B020002220F3300000E7F
:102893000FD0D1D2D3D4D5D6D7D8D9DADBDCDDDE8D
:1028A300DF5A6967426565416C6C69616E636530C7
:1028B30039303016181920231A1C1E3000034D4CD2
:1028C3004651181A25050200011916181616182361
:1028D3000300303017181921301B1D1F30003C40F6
:1028E300423A3F3F392F47300C0E020B040B0A07C5
:1028F30008000F02040201010101090200000000A7
:102903000000E803000000BE040A01000E000300FB
:10291300E8030903070310FF040A0C041E08280236
:102923000C0508151E0474F7120526E990149CF093
:10293300901451E4F012125E9014B4E4F0A3F090FA
:10294300149DF0A3F01220261212649013D4E4F025
:10295300A3F01219CC02428F74F012052674D3121D
:102963000C14125CEB5480606690149CE0F9121214
:10297300D68A088B09AF09EA4F604C7C0080010CB2
:10298300EC75F003A4F8A9F0746D28F58274283966
:10299300F583E493F46029E493F88A828B83E068F7
:1029A30070DDEC75F003A4F8746E28F58274283991
:1029B300F583E493C0E0740193F583D0821224C9B4
:1029C300AA08EFFB1212C412641D6480022D2A852B
:1029D3001882851983A3E05420601F121F3C8A08C4
:1029E3008B09AF09EA4F600A121E94AA08EFFB1283
:1029F30012C412641D6420022D2A8518828519834E
:102A0300E0A2E05042901456E0640F702E90077FCE
:102A130012642890077FC3E094E9A3E09403400A7B
:102A23007A007B809012C61243717900121E6AE904
:102A3300600990171D120E02121E828518828519D5
:102A430083E06401022D0F54207003022D147A20B9
:102A53007B0090149CE0F912141AEA4B4C4D701A47
:102A63009014B0120DEAE8494A4B700E75080175CF
:102A73000900750A00750B00806D750C00750D005B
:102A8300750E00750F001214268A088B098C0A8DA7
:102A93000B9014B0120DEAE8494A4B60319014B020
:102AA3007808120A98400E750CFF750DFF750EFF1E
:102AB300750F7F801985080C85090D8C0E8D0F907D
:102AC30014B0780C120BE47401780C120BCB850C48
:102AD30008850D09850E0A850F0BE5084509450A8A
:102AE300450B7003022C6E7C0079047A007B001284
:102AF3001F128A0C8B0DAE0CAF0D022BB274021297
:102B03000E1974FFF07403120E1974FFF07404129B
:102B13000E1974FF1243E4125BA57407120C0C1216
:102B23005E5BE96401706A122D364480F8A3E0F914
:102B33007428120E19E8F0A3E91260EFE0C0E07404
:102B43002A120E19D0E01243D154086016742812C9
:102B53000E19A3E04401122D43C0E0742C120E1988
:102B6300D0E0F0125D2E6011E8240B123529F874C1
:102B730016120E19E8F0A3E4F0908432120955748A
:102B830006120C0C740B120C04121B347404120B7B
:102B93002E8E828F83A3A3A3A3A3A3A3A3A37406AD
:102BA300122D43F9121EF47405120E19125EB2EEC1
:102BB3004F7003022C6E7C007904EEFAEFFB121FB8
:102BC300127405120E19EAF0A3EB1240FBE0F50CA8
:102BD300A3E0F50DE4F50EF50F7808790C120D84DA
:102BE3004023EE2404F8E43FF985080C85090D8899
:102BF30082F583C3E0950CF0A3E0950D126512E80E
:102C03004970A4800C8E828F83A3A3A3A3E4F0A3B3
:102C1300F08E828F83A3A3A3A3A3A3A3A3A3A3E061
:102C230064018E828F83A3A3A3A3A3A37020E05484
:102C3300046003022B008E828F83A3A3A3A3A3A309
:102C4300A3A3A37406F07AB7122E69022BAAA3A337
:102C5300A3A3E06003022B008E828F83A3A3A3A30D
:102C6300A3A3A3A3A37401F0022BAA121EE27C0068
:102C730079017A007B00121F12EA4B600312436A48
:102C83007C0079047A007B00121F12EA4B701380D8
:102C9300448A828B83A3A3A3A3125ECAEE98EF99FF
:102CA300400B8A828B83A3A3A3A3125EB27C007919
:102CB30004121F128B0BA90BEA4970D5C3E5089EBA
:102CC300E5099F500DC3EE9508FEEF9509FFEE4F02
:102CD300700D12436A9014B0122D3CA3F08024EEC1
:102CE3002EFEEF338E08F509E4F50AF50B7808128A
:102CF3000B497A20122F12120B2E1214269014B0A5
:102D0300120DF6851882851983E06420FAA3E0800A
:102D130016A3E05404601312558212242879011279
:102D230036F012641D6404FB80047A007B00742D6A
:102D3300025D0AEE125D18E022E4F0A3F0A3F02294
:102D43001243D6A3A3E022C082C08374EA120C14F8
:102D53007C167D007900AA18AB191212AC74081204
:102D63000E197402F09014451257BE122D8A74097D
:102D7300120E191257D67413120E19E41254551267
:102D830019C074160246A0E8F0A3E9F090144F129C
:102D93005E9A2274F712052674DA120C14EAFEEB1B
:102DA300FFEA4F602DAC18AD19121F5A7406120EAC
:102DB30019E0601E7417120E19E0FD7401120E194A
:102DC300E0FCEEFAEFFB7900121E40E9600479A4FF
:102DD30080027900742602428C74F7120526EAFEFB
:102DE300EBFF8A82F583A3A3A3A3A3A3E0544060CC
:102DF300178A828B83125CCB1245AF60067AFF7B06
:102E0300FF8015125CC78003901445125BA574FE06
:102E13006A700374FF6B6041125CC7125CF1121F8E
:102E2300F0E98E828F83600B1258B41264DDE4F0F4
:102E3300A380031264CCF07C707D1E8E828F83127C
:102E43003C25E9F5087015EE4F60097901EEFAEFBC
:102E5300FB121EEEA90802428F7508CDAA08122E96
:102E630069E960E380EE8E828F831258B8240CF5F3
:102E730082E438F583E0F9121E7C2274F6120526EB
:102E8300E9FEEAFF7A0F7B001212BEEA4B601A8A50
:102E9300828B83740CF0EEA3A3F0EF8A828B8312F0
:102EA300404A1254B37900802BEEF9121F188B0994
:102EB300A909EA49601C8A828B83A3A3A3A3A3A3C2
:102EC300A3A3A37406124053E0F9121BD6EEF91222
:102ED3001EF4791002529E74F41205268A088B0997
:102EE3008C0A8D0B901456E0640F701EEA4B4C4D08
:102EF3006018901451E064086005E06404700B7876
:102F030008120B49122F10120B2E0231757A017B16
:102F13000090149CE0F912140874042274F412054E
:102F23002674FC120C14EAFEEBFF8A82F583A3A33A
:102F3300E0F9121F188A088B09EA4B700302305814
:102F43008E828F83A3A882A983E0C0E0EA1254A9EA
:102F5300D0E0123EB964F160288E828F83A3E064CF
:102F6300CD601E8E828F83A3E0641A60148E828FDD
:102F730083A3E064E9600A8E828F83A3E064E17037
:102F8300337900121EEEE9602BE5082404F50AE408
:102F93003509F50B850882850983A3A3A3A3A3A3FE
:102FA300123F8F123E97121270850A82850B83128D
:102FB3005CF180708E828F83A3E0C0E07402120EF6
:102FC30019D0E01246AE1247D112393FC0E0740364
:102FD300120E19D0E0F0E50812619A1235E8E0AA62
:102FE30018AB197005121B2E8003121FD87402121E
:102FF3000E19E064E9702D85088285098312374E26
:10300300750A01780A120B55750AE9780A120B55ED
:10301300123E6B12390CFCA3E0FD8A828B831239BA
:1030230036120B2E850882850983A3A3A3A3A3A32A
:10303300A3A3A3E064027012850882850983A3A376
:10304300A3A3A3A3A3A3A37406F08E828F83A3A336
:10305300E0F9121EF4121EE290172312355A74047B
:1030630002317274F4120526EAFEEBFF7508008A3A
:1030730082F583A3A3A3A3A3E06038750808125BBA
:103083009879FF121CAEEA4B601075082C8E828F64
:1030930083A3A3A3A3A3E0D2E0F08E828F83A3A391
:1030A300A3A3A3E054036401600302316143081145
:1030B300023161EA2418124A976036EA241A124A46
:1030C300976003F47013125E7A7003A3E0696003E0
:1030D300023161750822023161EA241B1231652431
:1030E3001A124A97FAEE2419124A97F9121BC4804E
:1030F3006D8A828B83A3A3A3A3A3A3A3A3A3123544
:103103004570037508018E828F83125E7E7003A360
:10311300E0697006E508D2E1F508E50860158E82DE
:103123008F83A3A3E07006E508D2E58004E508D207
:10313300E6F5081245A264017006E508D2E0F50839
:103143008E828F83A3A3E06015EE241D124DB6F982
:10315300121FDEE964016006E508C2E0F508A9086C
:103163008010F582E43FF583126535EA2274091273
:103173000B2E7F0402085374F012052674D7120C29
:1031830014EAFEEBFF8A82F583A3A3A3A3E0600EF8
:10319300901721125D35600690172112355A74037A
:1031A300120C0C8E828F83A3A3A3125681125BA3EE
:1031B300121F5AE9700302330B78017405120E19BA
:1031C300E0C39402400278007407120E19E0C3941E
:1031D3000240027800740C120E19E064F87003A325
:1031E300E0F4700302330B740C120E19E064F970EF
:1031F30003A3E0F4700302330B740C120E19E064A2
:10320300FA7003A3E0F4700302330B740C120E196B
:10321300E064FB7003A3E0F4700302330B74061243
:103223000E19E0F990143FE069600302330BE8A242
:10323300E0400302330B7427120E19E060030233DC
:103243000BEE2413125E907422120E1912568B2465
:103253001C125E907410120E191257D67409120EB6
:1032630019E0601D741A120E19E0FD7404120E1990
:10327300E0FC8E828F83125BA37901121E40E970FA
:103283003B7403120C04121E8EE9F50C7409120E22
:1032930019E0702C901439E060267422596422607E
:1032A3001F744259644270147420120E1912353F70
:1032B300600E7420120E1912353860047ACF804ADA
:1032C300E9A2E6504D7420120E19124DBC24FD6084
:1032D3000F14600C24FD600824FD600424FE702894
:1032E3007420120E19123531700E7420120E191239
:1032F30053E2A3E0640D601A7403120C0412200855
:10330300E96401700D0235217AD37B001217B602EE
:103313003521EE242DF582E43FF583123745700302
:10332300A3E069701D7508007808120B5578081220
:103333000B55EE242F124A97F912354B12393612D8
:103343000B2E7409120E19E070030233E912354B88
:10335300125BA51220568A0E8B0FEA4B70030234C0
:103363007A7404120E19E0F88E828F83A3A3E028E7
:10337300F8A3E03400F9E8240D123529F88A828B8A
:1033830083A3A3A3E068600EE88A828B83A3A3A32D
:10339300124043122D3D7904E9120E19124AB6A3C5
:1033A300E02AF8A3E034008882F583A3AA82AB83E2
:1033B3001212B28A088B098C0A8D0B850E82850F37
:1033C30083A3A3A3A37808120A984003023521908C
:1033D300841E7808120CF4850E82850F83A3A31232
:1033E300653BA31247DA901451E064046008E0647B
:1033F300096003023521E50CA2E540030234B4EE73
:10340300242F124A9FF0EE2430124A97C0E0740131
:10341300120E19D0E0F0EE2431124A97C0E0740284
:10342300120E19D0E0F07414120E19E06401702624
:10343300740E120E19123E922413124A97687003E7
:10344300A3E0697011740C120E19123545700774DC
:1034530014120E19E4F0EE2425F582E43FF58312ED
:1034630009557404120C0C7407120C04121B3474E7
:1034730004120B2E023521901496E06401600302BE
:1034830033E97420120E1912353F7009E50CA2E6D8
:1034930050030233E97410120E19E0F47003A3E031
:1034A300F4607BEEFCEFFD7403120C04121E9A8091
:1034B3006DA2E650697420120E191258C470167466
:1034C3001A120E19E0640270557403120C04790089
:1034D300121FD280497420120E19123538701474D9
:1034E3001A120E19E0640470357403120C04121FCF
:1034F300C6802B7420120E19123531700C790074AA
:1035030003120C0412201480157420120E19125386
:10351300E2E0640C70087403120C04122020742976
:10352300025D0AE82406F582E439F583E022125CA1
:10353300D1E0640322125CD1E0640722124DC0641F
:1035430006221245B3640222EE242BF582E43F12D5
:103553006533EE12458822E0F508A3E0AA08FBE4F0
:10356300FCFD121E822274F4120526EAFEEBFF8C88
:10357300088D099013B6E0600F125E7A7003A3E022
:10358300697005121BB280537900125B98121BE21B
:103593008A828B83E5824583602CA3A3A3A3A3A381
:1035A300E054186021E508241C1235E5120959126C
:1035B30035E1120959EE241812391D12507D125E9D
:1035C30052120B2E801579008E828F83A3A3A31230
:1035D30058AA12507D125BA5121BB8023175E5087B
:1035E3002413F582E43509F5832274F71205267452
:1035F300F7120C14EAFEEBFF901451E06403600D24
:10360300E064016008E0640960030236EB8A828BA0
:1036130083A3E060030236B97C007D007A027B005D
:1036230012126A125EF78A82125E94901442125743
:10363300D679531219AE901451E0640960099014BD
:103643004F125BA5122050851882851983740112CD
:1036530053FA9014517404F07401120C04794A1251
:1036630019A87401120C0C7A477B1412146290127D
:10367300C9E0640B70057406F0800579001236F01A
:103683009014421258B07A037B0012126A901445C8
:103693001258B07A047B0012126A90143CE0A2E341
:1036A3005004D2F08002C2F01253E790171D120E9D
:1036B30002121E82802FFC7D007A037B1012126A95
:1036C3009012C9E0640B7003740AF09013B9E4F02C
:1036D300FA7B401251D78E828F83A3E0F91236F022
:1036E300901451E4F0121EC4740902428C90144FDA
:1036F300125BA9121B4622C082C0839013D4125DB1
:10370300357017901451E024FB6005146007800A9C
:103713009013DB801F9013DD801AE8496007123590
:10372300266401700C8A828B83A3E0F9121B3A8012
:103733000E9014CB125D3560061253E31224C902B6
:103743004F2E125E9A90144FE06822125E9AE8FAA6
:10375300E9FB2274F512052674D8120C148A088B1F
:10376300098A828B83A3A3A3A3A3A3A3A3E0C394E4
:103773000F50030239078A828B83A3A3A3125EB27D
:103783007415120C0C8A828B83A3A3A3A3A3A3A3F4
:10379300A312390CFAA3E0FB121ED07415120E19F2
:1037A300E0702E850882850983A3A3A3A3A3A3A303
:1037B300A3E0C3940B401A8E828F83A3A3A3A3A376
:1037C300A3A3A3E064027009EE240B124A97F460EA
:1037D300030239077417120E19E0600764026003CD
:1037E300023907901451E06402601CE0640660171C
:1037F3009013D4125D357003023907123526640124
:10380300600302390780259013D4125D35701D754E
:1038130008007808120B557808120B55EE24101285
:10382300391D8E828F83123936120B2E8E828F832F
:1038330012650A123EC2125E967402120E191256D5
:103843008B122D37C0E07404120E19D0E012393FE9
:10385300F508A3E0F509740F7808120DB374051287
:103863000E19E508F07419120E19E0C0E07406127F
:103873000E19D0E0F0741B120E19E0C0E0740712A9
:103883000E19D0E0F07416120E19E0C0E07409129C
:103893000E19D0E0F07417120E19E0C0E07408128C
:1038A3000E19D0E0F0EE2410124A97C0E0740A1209
:1038B3000E19D0E0F0741A120E19E0C0E0740B1266
:1038C3000E19D0E0F07427120E19E0C0E0740C1248
:1038D3000E19D0E0F0741C120E19A982AA8389086C
:1038E3008A09750A007808120B4D7C087D00741054
:1038F300120E19AA82AB83124A8E120B2EAA18AB90
:1039030019121B4074280243EAE0F98A828B83A3CD
:10391300A3A3A3A3A3A3A3A3E022F582E43FF58378
:10392300E0F98E828F83A3A3A3A3A3A3A3A3A312CC
:10393300653522125BA9121F90740222F0EE125019
:1039430082E02274F212052674F8120C148A0A8B90
:103953000B8C0C8D0D89089083BBAC18AD197408C2
:10396300120A77C200AC0AAD0BAA18AB19125B2678
:103973007002D20090149D8013AC0AAD0BEE240BA1
:10398300FAE43FFB125B26701B12457912420C606E
:103993001EA20040E48E828F83E0650C7004A3E0D6
:1039A300650D70E58E828F83A3A3E0650870DAEE60
:1039B300FAEFFB7408023ECFC082C08390149D02CD
:1039C3004F2BC082C08390149DE4F0A3023C21746A
:1039D300F712052690149D126423800FEA2414F530
:1039E30082E4125EAF12135AEEFAEFFBEA4B70EC6D
:1039F30090149DE4F0A3F002428F74F21205268A1C
:103A03000C8B0DEDFF890B8A828B83E08C828D8377
:103A1300F0A3A882A9838A828B83123AC612403DFF
:103A2300E0C454F0FA88828983E04AF0EC2402F877
:103A3300E43FF9850C828B83A3A3123AC6123AD9C9
:103A4300E0333354FC123ACDE033333354F8123AB3
:103A5300CDA3E0A2E0E4331313FA88828983E04A1A
:103A6300F0EC2403FE50010FE50C2407F508E435C0
:103A73000DF509750A007808120B4D7C087D00EEE0
:103A8300FAEF124A8D120B2EEE2408FE50010FE5B9
:103A93000C240FF508E4350DF5097808120B4D7C5D
:103AA300037D00EEFAEF124A8D120B2EE50BC39441
:103AB3000F400DE50C2412F582E4350D125091F000
:103AC300023ED2A3E08882898322FA88828983E036
:103AD3004A123AD9A322F0850C828B83A3A3A3A312
:103AE3002274F2120526EBFF8C0C8D0D8A82F5836E
:103AF300E08C828D831264F4A3A882A983E0124E22
:103B0300D6123EB8C4124ED0F0EA1264FE124EDD55
:103B1300123EB6A2E2E4338C828D83123EB51313B8
:103B230013541F124ED6A3123EB5A2E7E4338C8280
:103B33008D83A3A3A3A3A3A3F0EA2403FE50010F41
:103B4300F5088F09750A007808120B4D7C087D0073
:103B5300E50C2407124A89120B2EEE2408FE5001AD
:103B63000FF5088F097808120B4D7C037D00E50CD7
:103B7300240F124A89120B2E8E828F83A3A3A3E0F4
:103B8300C0E012651AD0E0F0023ED274F6120526A8
:103B9300EAFEEBFF8A82F583A3858208858309E029
:103BA300F9121B5E850882850983E064EB601E8E33
:103BB300828F83A3E064E160148E828F83A3E06429
:103BC300F1600A8E828F83A3E0641A70078E828F5E
:103BD30083A3E4F090171D120E02121E82750801D2
:103BE3007808120B558E828F83A3E0F508780812AC
:103BF3000B55790090144F1258B090144512393672
:103C0300120B2E121EE202529EC082C083E9901450
:103C1300AF7003E4800274018004EAF0A3EBF002C6
:103C23004F2E125BA91219C62274F61205269014A0
:103C3300AFE0701B7C0079017A007B00121F12EA4F
:103C43004B600C8A828B83125D356003121E7602F1
:103C5300529EC082C0831240EC401079FF121F0CA9
:103C6300E9F8902923E493C39850047901800279F9
:103C730000024F2E74F21205268A0A8B0B8909C2A1
:103C8300008A828B83A3A3A3A3A3A3A3A3E0F91214
:103C93001F188A0C8B0DAE0CAF0D750801EA4F602F
:103CA30003023D58850A82850B831258AA850A822E
:103CB300850B83A3A3A3A3A3A3A3123E97121F0061
:103CC3008A0C8B0DAE0CAF0DEA4F7003023E648A73
:103CD300828B83A3A3A3A3E4F0A3F0E50A240CFA45
:103CE300E4350BFB8A82F583E0C0E0123E6BD0E043
:103CF300F0E50A240D123E8B240D1257D0121FF645
:103D0300124591125CF1E50A2411123E8B24111223
:103D130057D0E50A2413125EC1C0E0124583D0E0F8
:103D2300F0D200EE2406F8E43FF9123E7E123EB9CB
:103D330054046003023DCA90172FE0F50A750B0087
:103D43007407780A120D2D8E828F83A3A3A3A3A3D6
:103D5300A3123E75F08E828F83A3A3A3A3A3A3E034
:103D6300F50AA3E0F50B7407780A120DB3E50A54BC
:103D730007FCE50960618E828F83A3A3A3A3A3A39A
:103D8300A3A3A374021243E4124181600B90143D78
:103D9300124B17A3A31257D6EC7003023E3BEE243B
:103DA30006F8E43FF9E8FAE9123E7EF0EC24FFF569
:103DB3000AE434FFF50B7407780A120D2D8A828901
:103DC30083123E75F080718E828F83A3A3A3A3A376
:103DD300A3E04480023D57EC700575080080598EBE
:103DE300828F83A3A3A3A3A3A3E05420600C121286
:103DF300B8EA547F7900245F80198E828F83A3A34E
:103E0300A3A3A3A3E05410601A1212B8EA540F79C3
:103E130000240A5001098E828F83A3A3A3A3F0A3D6
:103E2300E9800D8E828F83A3A3A3A37401F0A3E47F
:103E3300123EC27404124102A20050288E828F8364
:103E4300A3A3A3A3125BAFF9EEFAEFFB121F06E9DC
:103E53006012125D2E6003123EA4EEFAEFFB121302
:103E63005A750800A9088067EE240CF582E43FF533
:103E73008322E0450AF0A3E0450B228882F583E024
:103E8300547FF0A3E054FC22F582E4350BF5831252
:103E93005E9AEE22A3E0F9850A82850B83125BA961
:103EA30022123EAB12430122EE240FF582E43FF5CA
:103EB3008322A3A3A3A3123EBD22125EDDE022123E
:103EC3003EC6221243DAA3A3A3227403120B2E7F4E
:103ED3000602085374F412052674F7120C147E00BC
:103EE300121F18EA4B7003023F8A8A828B83A3A3B3
:103EF300A3A3A3A3A3A3A3E064066003023F8A8A48
:103F0300828B83A3A3A3A3A3A3A3E0FF8A828B83B0
:103F13001264BCE0C0E07408120E19D0E01242B281
:103F23001257C31257D6121F2AEF54086057851829
:103F3300828519831258B07A007B00121EFAEA4B6D
:103F430070431265257C007D007A007B0080228E01
:103F5300828F83124DBCF47003A3E0F460279014A6
:103F63004F123F8F124294601C7C007D00EEFAEFEB
:103F7300FB121EFA8A0A8B0BAE0AAF0BEE4F70CF01
:103F830079001219DE7E01EEF9023170123F93229D
:103F9300E0FCA3E0FD8E828F8322C082C0838A82ED
:103FA3008B83E582458370099014B480068A828BE3
:103FB30083A3A31241B560208A828B83A3A3A3A307
:103FC300A3A3A3E0540860E5EC4D60101241BB705D
:103FD30003A3E06D70D780047A007B00024F2E7438
:103FE300F21205268A088B09890AECFEEDFF7A1482
:103FF3007B00121354EA4B60378A828B83A3A3A3FB
:10400300A3A3A3A3A3A3E4124053E50A12429EEE83
:10401300F0A3EF1240431242B912404A8A828B83C3
:1040230012653D124036125C2CA312403DF0A3F002
:10403300023ED2EA240FF582E4221264F8A3A322FB
:104043001242A4E4F0A322A3F01264B5125C2C2262
:10405300124057221242A8A3A3A3A32274F5120568
:1040630026EAFEEBFF890A8C088D09EA4F60757416
:10407300016970127901121F0CE9F8902925E49364
:10408300C3985015800A74046970091240EC5009F2
:1040930079118052740269704B8E828F83A3A3A31C
:1040A300A3A3A3A3A3A3E50A1240FB1247D1125D66
:1040B300B6A3E4F0A3F09014B4125D356018800346
:1040C300125E9688828983A3A31241B5888289836D
:1040D300A3A370EC80039014B4EEF0A3EF1241029B
:1040E3007900800279C10243ED7904121F0CE9F8CB
:1040F300902924E493C39822125DBAA3A3A322F0C8
:104103007A207B0090149CE0F912130022C082C035
:1041130083E9F879009014B4801D8A828B83A3A36A
:10412300A3A3A3A3A3A3A3E068600574FF6870011E
:10413300098A828B83A3A31241B570DE024F2E74CA
:10414300F7120526EA4B70059014B480068A828B19
:1041530083A3A31241B5601F8A828B83A3A3A3A366
:10416300A3A3A3A3A3E06970E4EC600F8A828B830B
:1041730012418170D880047A007B0002428F12645E
:10418300D5E0540422C082C0839014B480068A828E
:104193008B83A3A31241B560128A828B83A3A3A34B
:1041A300A3A3A3A3A3E06970E580047A007B0002C4
:1041B3004F2E125BA9EA4B228A828B83124DC06C6D
:1041C3002274F21205268A0A8B0B8C0C8D0D75084E
:1041D30000750900EA4B602A9014B480068E828F22
:1041E30083A3A312420C601AAC0CAD0DEEFAEFFBE5
:1041F300850A82850B831224C9E9640170DF8E0866
:104203008F09AA08AB09023ED2E0FEA3E0FFEE4FFE
:104213002274F71205269014B4125E967C007D007A
:10422300800DE8FCE9FD88828983A3A3125E96E8EA
:10423300496030EA687002EB6970E79014B4125B6E
:10424300A5E86A7002E96B88828983A3A3700812C8
:104253005E969014B48009125E968C828D83A3A31C
:104263001257D6802774F7120526EAFEEBFFEA4FB2
:104273006015121F241242ED125D2E6003123EA43C
:10428300EEFAEFFB12135A8003120B2E7F01020882
:1042930053125BA91219D2E9641A221242A4A3A3EE
:1042A300221242A822F08A828B83A3A3A3A3221201
:1042B30064F8124DC022124057A32274F612052649
:1042C3009014B4125EB28014125ECF1242ED123E0D
:1042D300A4EEFAEFFB12135AAE08AF09EE4F70E8E3
:1042E3009014B4E4F0A3F002529E8E828F83126482
:1042F300A9F5831243018E828F8312430122E0FAD0
:10430300A3E0FB12135A22C082C083EAFCEBFDEA4E
:104313004D6017EA24FBF582EB34FF125D3370071F
:1043230012435FE0F460071212C47905802B9014E6
:104333009CE0C0E012435FD0E0F090291CE493F9C5
:104343007AB67B141212FAE96401700B7A007B20AF
:1043530012436E790080027904024F2EEA24FFF59E
:1043630082EB34FFF583227A207B0090149CE0F9E2
:104373001213002274F4120526A2AFE433F508C227
:10438300AF9014B612420C6038EE24FBF582EF3482
:10439300FF125D337A007B2090149C6005124371F9
:1043A3008005E0F9121306E4F50AF50B780A120BFF
:1043B30051EEFCEFFD7AB67B141212F47402120B69
:1043C3002EE508A2E092AFEEFAEFFB02317512433D
:1043D300D6E0221243DA221243E4A3A3A3A3A3A3A6
:1043E30022F08E828F8322120B2E7F0302085374D6
:1043F300F212052674FA120C14EAFEEBFF7508FE9E
:104403007509FF121EE8E960057911024574124A25
:1044130094603C901744E0C43354E0F8E0333354E1
:10442300FC48C0E0EE1254A33FF583D0E0125EF1E6
:10443300FAA3E0FB79FF121CAEEA4B60127508FF8A
:10444300EE240F124A974404F0124A94D2E0F08EFD
:10445300828F831245AD6006EE2412125F09EE24AB
:1044630013124A97700D90291FE493C0E0124583FD
:10447300D0E0F08E828F83E0A2E7500454038019CA
:10448300EE2414124A97701290142EE0C0E01245E5
:1044930079D0E0F090142EE004F0EE2411124A9744
:1044A30064017016901733E0600D901439E0700AC0
:1044B3008E828F83E07003125F068E828F83E064A7
:1044C300017013EE240B124DB664027009EE240F33
:1044D300124A974440F0AC18AD19EEFAEFFB121FE5
:1044E300548A0A8B0B74FE6508700374FFF470031F
:1044F300125ECFEA4B60768E828F83E0C0E0740158
:10450300120E19D0E0F07404120E19EEF0A3EFF0BE
:10451300EE241E125E907402120E191257D6740105
:10452300120BFC880C890D780C120B51EE2420120F
:104533004596120B55124591120959EE240E124558
:1045430096120B559014421209597408120E19E071
:10455300F9AC08AD09121F4E7408120B2EE9FE7454
:10456300106E700BAA0AAB0B12135A80027E10EE68
:10457300F97406023ECFEE2414F582E43FF583225C
:10458300EE124588222413F582E43FF58322EE12CE
:104593003EAC22F582E43FF583E0F50C780C228EE5
:1045A300828F83A3A3A3A3A3A3A3A3A31245B3228D
:1045B300E0FAA3E0FB121FF0E922C082C08374D7A4
:1045C300120C149082D27403120C0C7426120A7704
:1045D3008A828B83A3A3A3A3125E96740E120E1971
:1045E300125D3B125E96740C120E191246B6240D20
:1045F3001246A6C0E0741A120E19D0E0F0125C3213
:10460300125E947420120E191246B624151246A691
:10461300C0E07408120E19D0E0F0EA241CF582E41D
:104623003B125E947412120E191246B624111246EE
:10463300A6C0E07409120E19D0E0F0EA2412124663
:10464300A6C0E07407120E19D0E0F0EA241EF5822A
:10465300E43B125E947424120E191246B6242012FF
:1046630046A6C0E07426120E19D0E01246AE74FFBF
:10467300F07401120E1974FFF07402120E1974FF14
:10468300F09084321209557404120C0C7407120C46
:1046930004121B347404120B2E79007429120B2E8E
:1046A300024F2EF582E43BF583E022F085188285E4
:1046B300198322E8F0A3E9F0EA2274F412052674C0
:1046C300EC120C148A0A8B0B8C088D09E9FF7E10FF
:1046D3007A217B00121354851882851983EAF0A38B
:1046E300EB125D45E84970030247CA7C217D0079DE
:1046F30000851882851983E0FA1212AC90144F12C8
:104703005BA58518828519831258B42409F582E4C0
:1047130038F583125CF17420120E19125E9674112F
:10472300120E19E8124E25125CF738F58374021243
:104733004E281264C37402124E121247D1124E282D
:104743001264A0EFF07422120E19124DD3F9A3E0F4
:10475300C912619A39F583E8124AE8A3E0C9241F14
:10476300F582E4391247D87423120E19125BA5742B
:1047730006120E19125CF17408120E19E8F0742671
:10478300120E19125CCBC082C083740C120E19ACCA
:1047930082AD83D083D0827405120A777425120EFA
:1047A30019E0C0E07413120E19D0E0F07900AA18D2
:1047B300AB19121EEEE9640170047E0080098518AE
:1047C30082851983123EA7EEF97414023172E5084B
:1047D300F0A3E50922F583E50AF0A3E50BF02274C3
:1047E300F012052674FF120C14EAFEEBFF8C088D01
:1047F300098A82F583A37408F0EA2416124A9760A3
:10480300088A828B83A37410F0EA2417124A9760F4
:10481300098A828B83A3E02408F0EA124A95600890
:104823008A828B83A3E004F08A828B83A3A3A3A34E
:10483300A3A3E060198A828B83A3A3A3A3A3A3A347
:10484300E0C3332402F88A828B83A3E028F0EA24AE
:1048530011124A9F6004740E8001E4F090173EE049
:10486300640170168A828B83E06401600D9013B932
:10487300E06007124A7F74018004124A7FE4124AFF
:10488300E88A828B83A3E0F8EA122D3728298C82E9
:104893008D83F0EA2411124A9760051250C029F063
:1048A300850882850983E0C394754009750C0075FA
:1048B3000D00024A76E0FA7B001213548A0C8B0D2A
:1048C300EA4B7003024A768E828F83E0FA90143F9C
:1048D300124AE174027808120D2DEA4508FAAB0971
:1048E300EE2412124ADB74067808120D2DA808EA8A
:1048F30048FCEBFD124A946004780180027800EED4
:104903002416FAE43FFBE4C8F9ED49FDEE24111245
:104913004A97F508880974097808120D2DED4509A1
:10492300FD8A828B83124AE1740B7808120D2DEDF8
:104933004509FDEE2417124ADB740C7808120D2D7D
:10494300ED4509FD8E828F83A3A3A3A3A3A3124ADC
:10495300E1740A7808120D2DED4509FDEE242312AA
:104963004ADB740D7808120D2DED4509F9EC850C21
:1049730082850D83F0E9A3F0EE2402124ABE124AA7
:10498300FDF0EE2404124ABEA3A3124AFDA3A3F032
:10499300EE2413124ACEF0EE2414124ACEA3F0757D
:1049A3000B088A828B83E06015125DA71258B0E56D
:1049B3000C2408FAE4350DFB121462750B10EE2477
:1049C30017124A9760191259331258B0A80BE50C05
:1049D30028FAE4350DFB1214627408250BF50B8ECF
:1049E300828F83A3A3A3A3A3A3E0604EEE2407F5C2
:1049F3000EE43FF50F850E82F583E0C0E0124AAD69
:104A0300D0E0124AEDE0C0E008124AAFD0E0124A0B
:104A1300EDA3125D21120B4D850E82850F83E012EB
:104A23004D87A80BE50C28124A89120B2E850E829E
:104A3300850F83E0C333250BF50B124A946008C03E
:104A4300E0124AADD0E0F012507D125D21120B4D01
:104A5300122D36FC7D007403120E19124AB6E0F8CB
:104A6300E50C28F8E4350DF9E82AFAE439124A8D01
:104A7300120B2EAA0CAB0D7401025D0AEA2423F576
:104A830082E43FF58322FAE4350DFB1212A074038E
:104A930022EE2415F582E43FF583E022F582E43F1C
:104AA300F583E085188285198322A80BE50C28126B
:104AB3004D9A22E0FA8E828F83A322F8E43FF9888D
:104AC30082F583E0850C82850D8322F582E43FF530
:104AD30083124B07A3A3A322F582E43FF583E0F5FA
:104AE30008750900221264E6F922F0050B8E828F05
:104AF30083A3A3A3A3A3A3A3A322A3A3125EDDA3C0
:104B0300124B0722E0850C82850D83A3A3A3227495
:104B130003023172125E9A8E828F83A3A32274F0F2
:104B230012052674FD120C14125CEB7402120E199A
:104B3300E9F08C0C8D0D750B017C267D007900AAA4
:104B43000CAB0D1212AC7402120E19E0C394085090
:104B530003024D10124AC6F0AC0CAD0D85188285C8
:104B63001983124DBCFA8518828519831253E212F8
:104B730050B9E96003750B00851882851983125CAF
:104B8300CB124DDDE0F9EA850C82850D83A3A3A347
:104B9300A3A3A3A3A3A3F0A3E9124E12A3A3124DAD
:104BA300DDA3A3E0F9E50C125D4AEA124E25125883
:104BB300A0C0E0E50C241112651ED0E0124E28249B
:104BC30007F582E438F583E0C0E012651AD0E012FD
:104BD3005CDE7408124E09A3E060268518828519ED
:104BE30083E02408F8A3E03400F9E50C2413F582EC
:104BF300E4350D1257D4850C82850D83A3E0240878
:104C0300F0850C82850D83A3A3A3A3A3A3A3A3E091
:104C1300602A850C82850D83A385820E85830F12FE
:104C23004DCAF8A3E03400F9E50C1254A3350D1274
:104C330057D4850E82850F83E02408F0124D8EE44D
:104C4300F0124DA2E4F0A3125CDEA3A3A3A3E060E1
:104C530011124DEE850C82850D83A3A3A3A3A3128A
:104C63004E1AE50C124DAFE07003024CFC124DEEF0
:104C7300FA124D8EEA124E1AF8851882851983E0CE
:104C830028FBA3E034008B82F583E0F8E50C241ABB
:104C930012651EE8124E1AE8C39AE50C5056124DDF
:104CA300AAF890291DE493C39850047E0C8006E56E
:104CB3000C124DAAFE850C82850D83124DC9F50891
:104CC300A3E03400F509750A007808120B4DEE12C3
:104CD3004D877AF57B08124A8E120B2E124DA27461
:104CE300F5F0A37408F0EEC333F8850E82850F83C5
:104CF300E0288004124DAFE4F0850C82850D83A378
:104D0300E0F8850C82850D83E0C398500479008018
:104D130070124DC9FAA3E03400FBE50C125F0012D8
:104D23006521125CF1850C82850D83E0C398C0E098
:104D3300E50C241712651ED0E0124E09E06040E531
:104D43000C2417FEE4350DFF8E82F583E024F2F088
:104D5300E50C241DF8E4350DF98882F583E0240E73
:104D6300FAA3E03400FB88828983125CF190143A41
:104D7300E0F9121E46E9F88E828F83E0C398F0A90A
:104D83000B025D0825E0FCE433FD22E50C124D9493
:104D9300222419124D9A22F582E4350DF58322E57A
:104DA3000C241B124D9A22124D94E022125CD8124D
:104DB3004D9D22F582E43FF583124DC022125E9F82
:104DC300F5838882E022A3124DCE22124DD32822EE
:104DD300E0F8851882851983E022A3A3E0FA8518F9
:104DE30082851983125CD1A3A3A322850C82850D2E
:104DF30083A385820E85830F124DCEFAA3E0340080
:104E03008A82F583E022125CE2A3A3A3A3A3221266
:104E13004E2DF583888222F0850E82850F83E00470
:104E2300F022F0A3E9124E2DC8221264EAF8A3E09F
:104E33002274F41205268A088B09EA124EDDA3A315
:104E4300F0EA1313543F124ED0A3F0EAC413131223
:104E53004EDD124EE77409780A120DB3124EC7A342
:104E6300A3A3A3A3A3F0EB124EC9124EE6740A78D0
:104E73000A120DB3E50A5401C0E0EC125CD83DF50B
:104E830083D0E0124EEB740B780A120DB3124EC7A7
:104E9300124EE4740C780A120DB3124EC7A3124ECD
:104EA300E4740D780A120DB3E50A5401C0E0EC2452
:104EB30024F582E43DF583D0E0F0740E7808120DFA
:104EC300B3023161E50A54018C828D8322124ED6DE
:104ED300A3A322540F8C828D832254038C828D834F
:104EE30022A3A3A3A3A3A3A3F08A0A8B0B22C082AA
:104EF300C08379008A828B83A3A3A3A3A3A3E09097
:104F03001439600EE0701F8A828B83A3A3E07016AE
:104F13008012E06011125B98901442E06A7003A360
:104F2300E06B600279018003125BA5D083D082021B
:104F33000AFB74F21205268A0A8B0B890CECFEED30
:104F4300FF8A828B83E0FA1250B9850A82850B832C
:104F5300A3A31250ADE0F9EA8E828F83A3A3A3A388
:104F6300A3A3A3A3A31250D21250ADA3A3E0F9129B
:104F7300507DEA1250D2A3A3E0C0E0EE2411F582E3
:104F8300E43FF583D0E01250D9A3A3A3E0C0E0EE41
:104F93002412F582E43FF583D0E0125DB674081263
:104FA30040FBA3A3A3E06017E50A2408F8E4350B4C
:104FB300F9124583E8F0A3E9125DB6E02408F08E08
:104FC300828F83A3A3A3A3A3A3A3A3E060188E82CA
:104FD3008F83A312509CEE24151257D08508828527
:104FE3000983E02408F08E828F83A3A3A3A3A3E005
:104FF30060248E828F83A3858208858309E0F8E588
:105003000A28F582E4350B125091A3A3F085088298
:10501300850983E004F0EEFAEFFB121F66E9F50D54
:1050230070498E828F83A3A3A3A3A3A312508BA340
:105033007014E0F8E50A28FAE4350BFB12507312FA
:105043005CF1E50C801A12509CE8240EF85001091B
:10505300EE241D1257D01250C0F9E50CC39924F267
:10506300C398C0E0EE12592AD0E0F0A90D023ED257
:10507300EE241DF582E43FF58322EE1250822224B2
:105083000BF582E43FF58322E08E828F8322F58342
:10509300E08E828F83A3A3A322858208858309E000
:1050A300F8E50A28F8E4350BF922E0FA850A828547
:1050B3000B83A3A3A322125F12121F602290143A40
:1050C300E0F9121E46E9F8850882850983E022F09B
:1050D300A3E91250D922F0850A82850B83A3A3A3E7
:1050E300A322C082C0837AC27B1479E21219A87A00
:1050F300C27B14024F2EC082C083901442024F2BF6
:10510300C082C083901445024F2BC082C083794A6A
:105113001219A8024F2E74F61205269014CAE0FE47
:1051230004F0EEF9121F18EA4B70F0EE60EDF9028D
:10513300529E74F2120526EAFEEBFF8C088D098954
:105143000A122056740E120E19E0F9740F120E197A
:10515300E0F8EA4B7012E8701BA90AAC08AD09EE3F
:10516300FAEFFB1220748065E86017E970068A8203
:105173008B83E4F07401687054E99014CD7024E4D7
:10518300801EE97048EA24021246A6A80A28F8E419
:10519300340013E813F070358A828B83A3A3740160
:1051A300F0802AE004F0901730E0F89014CDE0C3CB
:1051B30098401AE4F0901445E06E7003A3E06F701A
:1051C3000CEEFAEFFB7901121B581251D3023ED2B7
:1051D3007A017B0090149CE0F91214142274F412E7
:1051E30005268A088B098C0A8D0B90841E78081279
:1051F3000C6A70077A0112436C801E90171D7808A1
:10520300120DA4EA4B4C4D600D7808120B49122F76
:1052130010120B2E80031251D3023175C082C0834A
:10522300901721023C1DC082C083901723023C1DAE
:1052330074F61205267E0075082E75091478081277
:105243000B517C6E7D007A217B001213CC74021209
:105253000B2EE9640A70027E01121AAAE9640A702D
:1052630004EED2E1FE900436125D35600F1253E373
:105273001224C9E9640A7004EED2E3FE121CD2E9D7
:10528300640A7004EED2E4FE12192AE9640A700477
:10529300EED2E5FEEEF98003120B2E7F02020853D5
:1052A30074F612052612126475082E75091478080F
:1052B300120B5175086E7509007808120B511252C2
:1052C300E0120B2E121AB0900438125D35600612EC
:1052D30053E31224C9121CD812193C80BE7C007DF2
:1052E300007A217B001213D874042274F612052667
:1052F30074FF120C147E0075082E750914780812B9
:105303000B517C6E7D007A217B001213CC74021248
:105313000B2EE960030253BA7808120B5175086E1D
:105323008E097808120B517C007D007A217B0012D4
:1053330013DE7404120B2EE9707D901442E064FEB8
:105343007003A3E0F460707E01901451E064086080
:1053530005E06404705C851882851983EE1253FAA4
:105363007A597B1479431219AE7A567B1479471212
:1053730019AE7A477B14794A1253D57A4F7B147945
:10538300501219AE7A427B1479531219AE7A577BB5
:105393001479541219AE7A447B1479E11219AE9040
:1053A300143CE0A2E35004D2F08002C2F01253E7AF
:1053B30080051212647E00121A9E90043A125D3523
:1053C30060061253E31224C9121CE4EEF9740102BD
:1053D300529B1219AE7A457B14794B1219AE22A354
:1053E300125CD222A2F0E433851882851983125409
:1053F3005979521219AE2212545979421219AE2216
:1054030074F6120526E9FEA2E0501C75082E7509F4
:10541300147808120B5175086E7509007808120B81
:10542300511252E0120B2EEEA2E35003121AA4EE15
:10543300A2E2500E90043C125D3560061253E31253
:1054430024C902529E121ECA7A9F7B1479451219EF
:10545300AE2212545922F0AA18AB192274F712057E
:105463002674ED120C14E9FE90149BF0AC18AD19E0
:1054730012548B7412120E19EE125498AA18AB1907
:10548300125448741302428C901752E0F97A9F7BAE
:1054930014121ED022F0901752E0F97C9F7D142243
:1054A3002415F582E4221264B63509F58322EFFB55
:1054B30090149CE0F91212CA22EE24161254C3224D
:1054C300F582E43FF5837401F0221264B53FF5835E
:1054D3001254D722125E9FF98882F5832274F41244
:1054E30005268A088B097A007B041251D71255824C
:1054F3009014517409F0125B1A1235E1125BA51274
:105503005B26640170677A0F7B001212BE8A0A8BD6
:105513000BAF0BEA4F60568A828B837402F0E50867
:10552300125F003509125F1EFC88828983A3A3E002
:10553300FBEC8A828F83A3A3125CF288828983A304
:10554300A3A3E08A828F83125573FAA3E0FB794AFF
:105553001219AE850882850983A3A3A3A3A3A3E09D
:1055630070069012C97405F0AA0A1254B10231757B
:10557300A3F0E5082415F582E43509F583E02290CC
:1055830013D6125E9A901723E8F0A3E9F09013D88C
:10559300125E9A901721E8F0A3E9F02274F4120541
:1055A3002674FD120C148A088B097401120E1974E7
:1055B30002125DD7700302567A1254CD7404F0A31D
:1055C300E4125697E06401700888828983A37420EB
:1055D300F0850882850983A3A3A3A3A3E0640170D4
:1055E3000988828983A3E0D2E6F08508828509834E
:1055F300A3A3A3A3A3A3E06401700A88828983A35E
:10560300E0D2E78006EA1245847401125692E06400
:10561300017020850882850983A3A3125D35600488
:10562300EA1254BD850882850983A3A3125E96EA14
:105633001257CE850882850983A3A3A3A3A3A3A39B
:10564300E064017009EA240F1254BFA3E4F0850853
:10565300828509831245AF6009EE240F124A9744ED
:1056630004F01256A385088285098312567F1256C9
:1056730089125EE3F980027910024B12E0F8A3E08D
:10568300F98E828F8322A3A3E8F0A3E9F0EE22121E
:105693005697A322F0850882850983A3A3A3A32297
:1056A300EE1259182274F512052674F3120C14899C
:1056B3000AEAFEEBFF7508007509007C0D7D007991
:1056C30000AA18AB191212AC1250731258BD741FF2
:1056D30058600C7AD37B001217B679000257B9E8E9
:1056E300A2E55008740C120E197401F0E8A2E750F9
:1056F30008740B120E197401F0E8A2E6740A50083C
:10570300120E197401F08008120E19E0640170136F
:105713008E828F83A3A3A3A3A3A3A3E06036EE2467
:105723001380128E828F83A3A3A3A3A3A3A3A3E0B7
:105733006022EE2415F582E43FF583125ED5E50879
:1057430045096010AC08AD097402120E19AA82ABA8
:105753008312146212507D1257BE1257D6740A1266
:105763000E19E06401704690174CE06047640170C5
:105773000690173BE0603DEE240B125E90901445BB
:10578300E0687003A3E069702B1245A27026E50858
:1057930045096019121F728A088B09AC08AD097498
:1057A30002120E19AA82AB83125B266007AA18ABFA
:1057B30019121B52A90A740D0243EA1257C222E0BE
:1057C300F8A3E0F9851882851983222418F582E469
:1057D3003FF583E8F0A3E9F02274F712052674CDB0
:1057E300120C14EAFEEBFF8A82F5831258B41258A6
:1057F300A0A2E0400302589B8A828B831254D3A356
:10580300A3A3A3A3A3E054FE1261A7740D120C0C6F
:10581300EA241E1246A6125E6F125BA5121F6CE9E4
:105823007076742A120E191258C4706C7C0D7D00A8
:105833007900AA18AB191212AC7416120E1912576A
:10584300BE1257D6742A120E191258BDA2E550087B
:10585300740B120E197401F0E8A2E75008740A12CF
:105863000E197401F0E8A2E6500474208002742239
:10587300120E191258B07402120E19AA82AB8312B7
:1058830014628E828F83A3A3E0C0E0740C120E19FE
:10589300D0E0125455121B4C743302428C2406F58B
:1058A30082E438F583E022A3A3A3A3A3A31265355F
:1058B300221258B822125E9FC822125CCFA3E0F8CE
:1058C30022124DC0640422E9F87900740468600A66
:1058D300740A68600574036870027901020AFB7434
:1058E300F61205268A828B837424F0A3A37401F035
:1058F300121ACE8A088B09AE08AF09EA4F60078AED
:10590300828B83125910EEFAEFFB02529E7401F060
:10591300EA1259182212592A7401F0121F721259ED
:1059230033EAF0A3EBF0222417F582E43FF5832258
:10593300EE241AF582E43FF58322C082C0839014DB
:10594300B87401F0E9A2E350037403F0E9A2E15053
:1059530004E0D2E2F0024F2E74F612052679007CA1
:10596300008A088B09780812080DF8FF0790598EF2
:10597300598E598E598E5986598A59905982597C14
:1059830001800A7C0480067C0280027C089014B8A3
:10599300E05C600479028005EC6002790102529EAA
:1059A30074F61205268A828B83E07014A3A3A312D4
:1059B3005D35600C8A828B83125BA2121D328004D8
:1059C3007A007B0002529EC082C0837800E875F0A3
:1059D30003A4FCA9F0E9FD125A596A7003A3E06B12
:1059E300701890076FE493C0E074B92CF5827414B7
:1059F30039F583D0E0F079C5805908E8C3940340B2
:105A0300CC7800E875F003A4FCADF0125A5964FE9B
:105A13007003A3E0F4601E08E8C3940340E5780034
:105A2300E875F003A4FCADF074B92CF58274143D51
:105A3300F583E07015E8125F53125CF190076FE491
:105A43009388828983F07900800908E8C39403402E
:105A5300CF79C7024F2E74BA2CF58274143DF583A7
:105A6300E02274F412052674F3120C14EAFEEBFF21
:105A73008C088D09750A12EA4F70057900025B15CF
:105A8300901442E06E7003A3E06F7014125B1AAAC5
:105A930008AB09125B267005750A018003750A00BD
:105AA300851882851983E4F004120E19EEF0A3EF32
:105AB300125455121A86E960297403120E19AA8228
:105AC300AB83121A62E964017018750A0174031238
:105AD3000E19AC82AD83AA08AB09125B266003756D
:105AE3000A00AC08AD09EEFAEFFB12205CE9F8748A
:105AF3000A687005750A01801774A0687012AC08F3
:105B0300AD09EEFAEFFB122068EEFAEFFB12207AF2
:105B1300A90A740D023172121F728A0A8B0BAC0A26
:105B2300AD0B2212145CE92274F7120526EAFEEB90
