:020000040000FA
:06000000020E5D02034D3B
:030013000205E003
:03002B00020C0EB6
:03003300020C0CB0
:0300530002028224
:03005B00020A583E
:03006B00020BF491
:100083000202E10100F0FF0700080000FFFF00008B
:10009300070400000003000147726F757000FF043E
:1000A30000100502640A2FAC092FAC09C0C1C2C3FA
:1000B300C4C5C6C7C8C9CACBCCCDCECF5A6967425F
:1000C3006565416C6C69616E636530390100FFFFE2
:1000D300F2E0A16100000000000110858B0F910F79
:1000E3009D0F970F0020FD000206FFFF0201010094
:1000F3001E01FB1700000D180000000000000000A7
:1001030000000000000000000000104E65776C61E5
:100113006E642045647500000000000000000000CC
:1001230000000000000000000000000000000000CC
:1001330000000000000000000000000000000000BC
:1001430000000000000000000000000000000000AC
:10015300000000000000000000000000000000009C
:10016300000000000000000000000000000000008C
:10017300000000000000000000000000000000007C
:10018300000000000000000000000000000000006C
:10019300000000000000000000000000000000005C
:1001A300000000000000000000000000000000004C
:1001B300000000000000000000000000000000003C
:1001C300000000000000000000000000000000002C
:1001D300000000000000000000000000000000001C
:1001E300000000000000000000000000000000000C
:1001F30000000000000000000000000000000000FC
:1002030000000000000000000008040100010003DA
:10021300428402D48401040000C118000000E803F2
:100223000000FFFF3B190188130000E8030000648E
:10023300006400B801A0BB0D00A0BB0D00020207C3
:10024300040101051E02051E020A0A010101080933
:100253000103B80B02803E0102E8030A050001FF17
:10026300FF01140105030101FF0F10FEFF702D00B4
:10027300000000A62C00000000FF000000FF00C0EB
:10028300E074F11206B1A2AFE433F509D2AF85A74A
:1002930008AFA1EF5508FE74105E600612112375B6
:1002A300A1EF74085E600812112975A1F78024EF8D
:1002B300A2E092F0E508A2E082F05017906198E086
:1002C300F89004BCE0C398A2D265D0335002E8F0A2
:1002D30075A1FEE509A2E092AF7F02020710C0E01C
:1002E30074F21206B1A2AFE433FED2AF9061A4E080
:1002F300F8759B00E59158540860087591F7121141
:10030300778023E59158541060087591EF12117DA1
:100313008014E591A2E092F0E8A2E082F05007E0B9
:10032300C2E0F01212C79061A3E0F8E5E958540463
:10033300600E12129D75E9FB906193E0A2E640F214
:10034300EEA2E092AF7F01020710C0E074F2120642
:10035300B1A2AFE433FED2AF9061A5E0F8E5BF5898
:100363005404600675BFFB1212DF80D4C3E498F80F
:10037300E499F91203B08026C3E49AFAE49BFBE9FB
:1003830020E7E91203B0E498F8E499F922C3E4986A
:10039300F8E499F91203B0E498F8E499F9C3E49AFC
:1003A300FAE49BFB22EB20E7CFE920E7E0B900105A
:1003B300BB0008E88AF084F8AAF022E4FBC8FA221A
:1003C300EB70227B10C833C8C933C9335007C39AB3
:1003D300C3DBF280069A50012ADBEAC833F4C8C9AA
:1003E30033F4C9FA2275F008E4C833C8C933C933F2
:1003F300C99AC99B5004C92AC93BD5F0ECFBC83341
:10040300F4C8E4C9FA22080808EAC0E0EBC0E086B1
:10041300F0E7A4FA180986F0E7A42AFA180986F087
:10042300E7A42AFA180986F0E7A42AFA1986F0E75E
:10043300A4FBE5F02AFA190886F0E7A42BFBE5F004
:100443003AFA190886F0E7A42BFBE5F03AFA1818F4
:100453000986F0E7A4C5F02BFBE43AFA1908E7C5CF
:10046300F0C6A426F6E5F03BFBE43AFA1886F0E77B
:10047300A4F6E5F00826F6E43B08F6E43A08F6D0DD
:10048300E0FBD0E0FA22D083D082ECC0E0EDC0E004
:10049300EEC0E0EFC0E0E493A3FCE493A3FDE49398
:1004A300A3FEE493A3FFEF4E4D4C6015120968ECD5
:1004B30024FFFCED34FFFDEE34FFFEEF34FFFF803D
:1004C300E5E493A3FCE493A3FDE493A3FEE493A3E5
:1004D300FFEF4E4D4C6015120A82EC24FFFCED3405
:1004E300FFFDEE34FFFEEF34FFFF80E5D0E0FFD0E9
:1004F300E0FED0E0FDD0E0FCE493A3C0E0E493C0D1
:10050300E022E4CFC0E0E4CEC0E0E4CDC0E0E4CC40
:10051300C0E075F020E626F608E633F608E633F683
:1005230008E633F6181818EC33FCED33FDEE33FE12
:10053300EF33FFC3EC9709ED9709EE9709EF97198E
:100543001919400FFFEC97FC09ED97FD09EE97FE93
:10055300191906D5F0BFECF709EDF709EEF709EF26
:10056300F7191919D0E0FCD0E0FDD0E0FED0E0FF90
:10057300222518C582C0E0E51934FFC583C0E0E534
:1005830018C3958224F810AF0885831985821880D3
:1005930008858319858218D2AFCEF0A3E520F0A396
:1005A3007808E608F0A3DEFAEFF0A3E58124FAF871
:1005B300E608F0A3E608F0A3E608F0A30808E608B7
:1005C300F0A3E608F0A315811581D0E0FED0E0F892
:1005D300158115811581E8C0E0EEC0E022C0E0C0BE
:1005E300D0E8C0E0E9C0E0C082C083A9C190187818
:1005F300E0C394404002E4F0E0F8740128F074385A
:1006030028F582E43418F583E9F0D083D082D0E072
:10061300F9D0E0F8D0D0D0E03274F812064B74FF72
:10062300120CBAEAFEEBFFEE851882851983F07C83
:10063300017D00AA18AB191215F1EEFAEFFB740154
:10064300120BBE7F010208E92518C582C0E0E51937
:1006530034FFC583C0E0E518C3958224F910AF08C1
:100663008583198582188008858319858218D2AFFE
:10067300CEF0A3E520F0A37808E608F0A3DEFAEFB6
:10068300F0A3E58124FBF8E608F0A3E608F0A3084D
:1006930008E608F0A3E608F0A315811581D0E0FE73
:1006A300D0E0F815811581E8C0E0EEC0E022C0D0AB
:1006B3002518C582C0E0E51934FFC583C0E0E518FD
:1006C300C3958224F310AF088583198582188008A7
:1006D300858319858218D2AFC8F0A3E9F0A3EAF0A5
:1006E300A3EBF0A37908E709F0A3D8FAECF0A3EDA4
:1006F300F0A3EEF0A3EFF0A3D0E0F0A3D0E0F0A3DB
:10070300D0E0F0A3E520F0A3E5F0F0A32285198360
:10071300851882E0C0E0A3E0F9A3E0FAA3E0FBA31D
:100723007808E0F608A3DFFAE0FCA3E0FDA3E0FE0F
:10073300A3E0FFA3E0C0E0A3E0C0E0A3E0F5D0A303
:10074300E0F520A3E0A3F5F010AF088583198582B7
:10075300188008858319858218D2AFD082D083D0C0
:10076300E0F8D0E032120ED7B900030207A7E490F5
:100773000401785179198002F0A3D8FCD9FA7A518F
:100783007B1C90008678FD79028015E493A3AD82EB
:10079300AE838A828B83F0A3AA82AB838D828E83FE
:1007A300D8E9D9E77582547583EA7406120B857507
:1007B30082ED75832B7400120B85E4730075F010C2
:1007C3008E1A8F1B85821F85831E85188285198348
:1007D300E0CEA3E0CF851F82851E83EBC9EAC8ED77
:1007E300CBECCAC3E833C8E933C9EA33CAEB33CB2A
:1007F300C3EA9EF51DEB9FF51CB35004AB1CAA1D69
:10080300EC33CCED33CDD5F0DAAE1AAF1B22D08367
:10081300D082ECC0E0EDC0E0E493A3FCE493A3FD3D
:10082300ED4C600D120929EC24FFFCED34FFFD8033
:10083300EFE493A3FCE493A3FDED4C600D120A03D4
:10084300EC24FFFCED34FFFD80EFD0E0FDD0E0FCB5
:10085300E493A3C0E0E493C0E022D083D082E9C054
:10086300E0E493A3C386F0C5F095F0F908E493A3FD
:1008730086F0C5F095F0700BE493A3C3994005E9A6
:10088300048002A3E475F002A42582F582E5F03525
:1008930083F583D0E0F9E493A3C0E0E493C0E022BE
:1008A300851983851882E0A3FEE0A3F5207808E08C
:1008B300A3F608DFFAE0A3FFE0A3C0E0E0A3C0E0F3
:1008C300E0A3C0E0E0A3C0E0E0A3C0E010AF088570
:1008D30082188583198008858218858319D2AFD041
:1008E30083D082020B8B851983851882E0A3FEE0F7
:1008F300A3F5207808E0A3F608DFFAE0A3FFE0A35E
:10090300C0E0E0A3C0E0E0A3C0E0E0A3C0E010AF1C
:10091300088582188583198008858218858319D2F2
:10092300AFD083D08222C0E0C3E4939608740193CE
:100933009618400FE4936670080874019366187064
:10094300007019A3A3C3E49396087401939618A3A4
:10095300A3400DD0E0D0E0D0E002084DA3A3A3A3B1
:10096300A3A3D0E022C0E0C0F088F0120D23A8F0CA
:100973004007120C5BA8F0701AA3A3A3A3120D23C4
:10098300A8F0A3A3A3A34013D0F0D0E0D0E0D0E01D
:100993000204EFA3A3A3A3A3A3A3A3A3A3D0F0D071
:1009A300E0227404800474028000CCC0E0EDC0E057
:1009B300E518C39CCCAD1950011D10AF068C188DE2
:1009C3001980068C188D19D2AF120AE9D0E0FDD038
:1009D300E0FC2274028000CCC0E0EDC0E0E518C367
:1009E3009CCCAD1950011D10AF068C188D198006D3
:1009F3008C188D19D2AF120AC7D0E0FDD0E0FC22CB
:100A0300C0E0C0F088F0E493667008087401936650
:100A1300187000A8F0A3A3700BD0F0D0E0D0E0D002
:100A2300E002084DA3A3D0F0D0E022D083D082CC43
:100A3300C0E0E493A36006120B0A1470FAE493A3D4
:100A43006006120CA41470FAD0E0FCE493A3C0E097
:100A5300E493C0E022C0E0C0D0C082C083C2D8C249
:100A6300C343CB109004AEE0600C9004AFE02401CC
:100A7300F0A3E03400F0D083D082D0D0D0E032C0F5
:100A8300E0C0F088F0120C5BA8F0A3A3A3A3700B43
:100A9300D0F0D0E0D0E0D0E00204EFA3A3D0F0D0B8
:100AA300E022A2E792D65002F40430F70663F0FF87
:100AB30005F0B3400384800384F40430D60563F067
:100AC300FF05F022CAC0E0E493A3C582CCC582C56A
:100AD30083CDC583F0A3C582CCC582C583CDC58331
:100AE300DAE5D0E0CA22CAC0E0E0A3C582CCC58261
:100AF300C583CDC583F0A3C582CCC582C583CDC5CF
:100B030083DAE6D0E0CA22C0E0E493A3D39C50107A
:100B1300E493A3C39C400AD0E0D0E0D0E0020A4BA8
:100B2300A3A3A3D0E022C008C3E096F50808A3E07E
:100B330096420808A3E096420808A3E09645087089
:100B430001D3D00822700908080822601618181863
:100B5300C6C333C608C633C608C633C608C633C6BB
:100B6300D5E0EA22C5822518C582C583351910AFA1
:100B730007F5198582188007F519858218D2AFC544
:100B83008322C09FF59FE473D09F22D083D082C07D
:100B93009FE493C0E0740193C0E0740293F59F2235
:100BA3007404800A74038006740280027401C0E036
:100BB300F404120BD9D0E0120E9A2200C0D02518EB
:100BC30010AF08F518500C05198008F518500205E8
:100BD30019D2AFD0D0222518F58210AF08F51840EE
:100BE3000C15198008F51840021519D2AF85198321
:100BF30022C0E0C0D0E8C0E0A8A8D2AFE8A2E79244
:100C0300AFD0E0F8D0D0D0E03280E6C0E0C0D0E88A
:100C1300C0E0A8A8D2AFC2C7E8A2E792AFD0E0F87D
:100C2300D0D0D0E032BB0102E722C082C0838982E8
:100C33008A83BB0003E08002E493D083D0822260E6
:100C430016080808C6C313C618C613C618C613C6A3
:100C530018C613C6D5E0EA22E4936670130874013C
:100C63009366700C087402936670050874039366A8
:100C7300222518F8E43519F9222518FAE43519FB69
:100C8300222518FCE43519FD22C3E0C696F608A315
:100C9300E0C696F608A3E0C696F608A3E0C696F665
:100CA30022C0E0E493A36C7009D0E0D0E0D0E0026E
:100CB3000A4BA3A3D0E022251810AF08F518400C67
:100CC30015198008F51840021519D2AF22E766708E
:100CD300100809E766700A0809E76670040809E75F
:100CE3006622C3E09608A3E09608A3E09608A3E073
:100CF30096A2D265D03322E066701008A3E0667036
:100D03000A08A3E066700408A3E06622C3E697F628
:100D13000809E697F60809E697F60809E697F62222
:100D2300C3E4939608740193960874029396087427
:100D330003939622C3E096F008A3E096F008A3E09D
:100D430096F008A3E096F022E627F60809E637F6C0
:100D53000809E637F60809E637F622E493F608743D
:100D63000193F608740293F608740393F622E0469F
:100D7300F008A3E046F008A3E046F008A3E046F03D
:100D830022E026F608A3E036F608A3E036F608A329
:100D9300E036F622E026F008A3E036F008A3E036BA
:100DA300F008A3E036F022E657F60809E657F608FE
:100DB30009E657F60809E657F622E056F608A3E0D7
:100DC30056F608A3E056F608A3E056F622E056F0DE
:100DD30008A3E056F008A3E056F008A3E056F0227B
:100DE300E046F608A3E046F608A3E046F608A3E0CB
:100DF30046F622E647F60809E647F60809E647F607
:100E03000809E647F622700422600D18C6C333C6EC
:100E130008C633C6D5E0F41822E4C396F608E49670
:100E2300F608E496F608E496F622C6F4C608C6F475
:100E3300C608C6F4C608C6F4C622C3E09608A3E0F3
:100E43009608A3E09608A3E09622C3E7960809E76D
:100E5300960809E7960809E7962275D00075813F41
:100E630075180175190400020768E6F008A3E6F097
:100E730008A3E6F008A3E6F022600C08C6C313C675
:100E830018C613C6D5E0F422E0F608A3E0F608A3DB
:100E9300E0F608A3E0F622CAC0E0E6F0A308DAFA17
:100EA300D0E0FA22E8F0A3E9F0A3EAF0A3EBF02202
:100EB300E0F8A3E0F9A3E0FAA3E0FB22EAF0A3EB56
:100EC300F0A3ECF0A3EDF022E0FAA3E0FBA3E0FC37
:100ED300A3E0FD22E5C754F84401F5C779012225B3
:100EE30018F582E43519F58322C2AF75D69F020047
:100EF3000022120B8E12E805120B8E57E805120B17
:100F03008EDCE805120B8E28E905120B8EB8E90575
:100F1300120B8E91EA05120B8EE2EA05120B8E4735
:100F2300EB05120B8EBAEB05120B8EFEEB05120BC3
:100F33008E56EC05120B8E78EC05120B8E08ED0520
:100F4300120B8E99ED05120B8EE5ED05120B8E112A
:100F5300EE05120B8E52EE05120B8EF3EF05120BFC
:100F63008ED5F005120B8EB1F105120B8E49F906E1
:100F7300120B8EB5C804120B8EE8C804120B8E3008
:100F8300C904120B8E3CCB04120B8EA5CD04120B9D
:100F93008ED8CD04120B8EB4D004120B8E6AD304F8
:100FA300120B8E00D404120B8E7ED704120B8E4FBD
:100FB300D804120B8EB3D904120B8E35DA04120B3C
:100FC3008E2DDB04120B8E6EDD04120B8EF5DD0409
:100FD300120B8EF6DF04120B8E1CE304120B8E1F12
:100FE300E304120B8E32E304120B8E7FE304120B25
:100FF3008E406C00120B8E147100120B8E787100F0
:10100300120B8E9D7200120B8E877600120B8E666A
:101013007A00120B8E867C00120B8ECC7C00120B96
:101023008E9B7E00120B8EA7FA06120B8EB8FA0661
:10103300120B8ED2FA06120B8EF87F00120B8EE57E
:101043007F00120B8EC6F706120B8ED6F706120B15
:101053008EEBF706120B8E53F806120B8EBFF306B8
:10106300120B8E43F406120B8EABF406120B8EC1D9
:10107300F506120B8EDDF506120B8E00F606120B2B
:101083008EDDD806120B8EEBD806120B8E64D906B2
:10109300120B8E39DA06120B8E0BDC06120B8EE165
:1010A300FA06120B8E79FB06120B8E8CFB06120BC3
:1010B3008E9BF206120B8E6FF106120B8E17B20681
:1010C300120B8E43B206120B8EDAB406120B8E1A73
:1010D300B506120B8E56B506120B8E6AB506120BA9
:1010E3008E83B506120B8E74B606120B8E26B706C8
:1010F300120B8E3AB706120B8E9DED06120B8EC1A4
:10110300ED06120B8EDAED06120B8E18EE06120B9D
:101113008E48EE06120B8E75EE06120B8EDBEE0674
:10112300120B8EDEEE06120B8EE8EE06120B8EF518
:10113300EE06120B8E6FE506120B8E8FE506120B71
:101143008ECEE506120B8EECE506120B8E07E60635
:10115300120B8E6DE606120B8E79E606120B8ED6F7
:10116300E606120B8EE5E606120B8E09E706120B56
:101173008ECAE706120B8ED7E706120B8EE8E70638
:10118300120B8E94F906120B8EACF906120B8ED845
:10119300F906120B8E18C106120B8E72C206120BC1
:1011A3008E80C206120B8E93C206120B8EA8C20645
:1011B300120B8EBDC206120B8ED0C206120B8E4CC2
:1011C300C306120B8EB1C306120B8E47C406120B55
:1011D3008E20C506120B8E30C506120B8E3FC50638
:1011E300120B8E97F606120B8EBBF606120B8EE3CE
:1011F300F606120B8E0BF706120B8E9FFD05120BD4
:101203008EC6FD05120B8EE4FD05120B8E53FE05F3
:10121300120B8E9CE206120B8EB5E206120B8EC1E8
:10122300E206120B8ED5E206120B8EF3E206120BC8
:101233008EFDE206120B8E07E306120B8E1AE306EF
:10124300120B8EA0E306120B8E15E406120B8E44CE
:10125300E406120B8E92E406120B8EE1E406120BE7
:101263008EFCE406120B8E06E506120B8E17E506BE
:10127300120B8E5AE506120B8E5EF806120B8EA821
:101283008A06120B8ED48A06120B8EF18A06120B73
:101293008E048B06120B8E1F8B06120B8E798B0618
:1012A300120B8EA78B06120B8EB78F06120B8E15A1
:1012B3009106120B8E479106120B8EAA9106120B02
:1012C3008E169306120B8E3E9306120B8E539306C5
:1012D300120B8E639306120B8EA39306120B8EE5ED
:1012E3009306120B8EF59306120B8E3FF006120B2C
:1012F3008E59F006120B8E81F006120B8E9AF006B1
:10130300120B8EBEF006120B8EDCF006120B8EF360
:10131300F006120B8E21F106120B8E3CF106120B16
:101323008E21FA06120B8E54D506120B8E64D50647
:10133300120B8E69D606120B8E9BD606120B8ECB22
:10134300D606120B8EEED606120B8E05D706120B9F
:101353008E3FD706120B8EA4D706120B8EE6D70646
:10136300120B8E2DD806120B8E5AD806120B8E85B1
:10137300D806120B8EEEFF01120B8EF1FF01120B3A
:101383008EF4FF01120B8EEF9B06120B8E0A9C0646
:10139300120B8E109C06120B8E9A9C06120B8EE477
:1013A3009C06120B8E5E9E06120B8E2AA006120B53
:1013B3008E7EA106120B8ED6A106120B8E16A206E6
:1013C300120B8E45A206120B8E25A306120B8E3925
:1013D300EC06120B8E59EC06120B8E6DED06120BFA
:1013E3008E70ED06120B8EC4F406120B8EFAF40601
:1013F300120B8E12F506120B8E54F506120B8E6429
:10140300F506120B8E73F506120B8EB7F506120B4B
:101413008E9DA306120B8EC8A306120B8E11A40673
:10142300120B8E7AA406120B8E99A406120B8EB29F
:10143300A406120B8E54A506120B8E5DA506120B85
:101443008EAEA506120B8ED7A506120B8EE4A5064B
:10145300120B8E55A606120B8EE3A606120B8E31C7
:10146300A706120B8E67A706120B8EC8A706120BD0
:101473008EF1A706120B8E68A806120B8EC4A8065F
:10148300120B8E01A906120B8E38A906120B8E4A77
:10149300A906120B8E5CA906120B8E7BA906120BF2
:1014A3008E84A906120B8E3FAA06120B8E8BAA06F8
:1014B300120B8EC9AA06120B8EFFEE06120B8E8636
:1014C3007F00120B8E16E806120B8E4CE806120BE9
:1014D3008E94E806120B8EEDE906120B8ED7AD053E
:1014E300120B8E08AF05120B8E44AF05120B8EFE46
:1014F300B005120B8E28B105120B8EA1B305120B8A
:101503008EE1B305120B8E75B505120B8E14B6055D
:10151300120B8E6CB605120B8EFFB605120B8E39AD
:10152300B705120B8E7BB705120B8EEEB805120BA7
:101533008E6EBA05120B8EABBC05120B8ED9BC0591
:10154300120B8E05BD05120B8E0EBD05120B8E6B95
:10155300BD05120B8EFBBD05120B8E37C105120B99
:101563008EB9C105120B8E9AFB06120B8EB0FB06C9
:10157300120B8EE5FB03120B8EFBFB03120B8E9FEC
:10158300FC03120B8EDEFC03120B8EFBFC03120B0F
:101593008E2CFD03120B8E79FD03120B8EADFD0312
:1015A300120B8EE8FD03120B8EDDFF03120B8E9BD5
:1015B300DF06120B8E53E006120B8E61E006120B50
:1015C3008E1AE106120B8E19FB06120B8E2CFB06EC
:1015D300120B8EFEFE04120B8E5DFF04120B8E9B0C
:1015E300FF04120B8EDCFF04120B8EA8C906120B2C
:1015F3008EC0CA06120B8EF9CA06120B8E93CB0647
:10160300120B8E66CC06120B8E5DCD06120B8EB9B5
:10161300CD06120B8ECBCD06120B8E259406120B24
:101623008E008004120B8E0C8004120B8E6D8204CC
:10163300120B8E778204120B8E098304120B8E45D4
:101643008304120B8E0F8404120B8E7D8404120B01
:101653008EE68404120B8E648504120B8EAA850415
:10166300120B8E2A8604120B8ED78704120B8E8FD1
:101673008904120B8EEA8A04120B8E918B04120BCF
:101683008E599004120B8E509104120B8EDF91042D
:10169300120B8E049204120B8EA19204120B8EBEB7
:1016A3009204120B8EDE9204120B8E4F9304120BD4
:1016B3008E6C9304120B8E9A9304120B8E32950444
:1016C300120B8E539504120B8EF99504120B8E4157
:1016D3009604120B8EB39604120B8E369704120BDC
:1016E3008E9B9704120B8EF89704120B8E97980417
:1016F300120B8E0B9904120B8E479904120B8EB4A6
:101703009904120B8E1E9B04120B8EB19B04120BB9
:101713008E5F9C04120B8EC19E04120B8E2F9F04AE
:10172300120B8ED8A004120B8E06A104120B8E1678
:10173300A304120B8E9EA504120B8EA9A604120BF2
:101743008EA9AA04120B8E48AB04120B8EC4AB04F1
:10175300120B8EB3AC04120B8EB1AD04120B8E3090
:10176300AE04120B8E72AF04120B8E13B004120B65
:101773008ED3B104120B8EDAB204120B8EF7B204BD
:10178300120B8E22B404120B8E5FB504120B8E095A
:10179300B604120B8E73B904120B8E7BBB04120BAF
:1017A3008E04BC04120B8E5EBC04120B8EACBC0404
:1017B300120B8E27BD04120B8EA9BD04120B8EE5EE
:1017C300BD04120B8E89C404120B8EE4C604120BE3
:1017D3008EC0C704120B8E4EB706120B8EEBB706E4
:1017E300120B8E88B906120B8E46BA06120B8E6642
:1017F300BA06120B8E8EBA06120B8E91BA06120B14
:101803008E9FBA06120B8EA2BA06120B8EA7BB06C8
:10181300120B8ED5BB06120B8E65FA06120B8E3891
:10182300D605120B8ECAD605120B8E41D705120BA5
:101833008E61DA05120B8E13DC05120B8E5EDE054C
:10184300120B8EABDF05120B8E50E205120B8E7A54
:10185300E205120B8EAAE205120B8E44E305120B6E
:101863008EDBE305120B8EECE305120B8EF3E3051F
:10187300120B8E77E405120B8EC0E405120B8EFA61
:10188300E304120B8E29E404120B8EADE404120B55
:101893008E10E604120B8EFEE604120B8E6DE80426
:1018A300120B8E92E804120B8EE4E804120B8E7670
:1018B300E904120B8EC2E904120B8ED5E904120B54
:1018C3008E32EA04120B8EFFEA04120B8E6DEB04C8
:1018D300120B8EA4EB04120B8EEDEB04120B8E9500
:1018E300ED04120B8E74EE04120B8EC2EF04120B76
:1018F3008EA5F004120B8E31F104120B8E6AF104E3
:10190300120B8E89F104120B8ED4F104120B8EF498
:10191300F104120B8EB1F204120B8ED4F304120BEA
:101923008E2FF404120B8E6FF404120B8E77F504D2
:10193300120B8EFEF704120B8E24F804120B8E9FEB
:10194300F804120B8EC4F804120B8E4BF904120B1D
:101953008E27FA04120B8E65FA04120B8EE9FA0431
:10196300120B8ED4FB04120B8ED7FB04120B8EE1E9
:10197300FB04120B8EEBFB04120B8E07FC04120B01
:101983008E83FC04120B8EBCFC04120B8ED8FC0459
:10199300120B8E04FD04120B8E2BFD04120B8E4FC3
:1019A300FD04120B8E8AFD04120B8EFDFD04120B37
:1019B3008E31FE04120B8E3BFE04120B8E77FE0457
:1019C300120B8EACFE04120B8ECBFE04120B8EA9EF
:1019D300F806120B8EC1F806120B8EFB7F00120B5A
:1019E3008EF5AA06120B8E44AB06120B8E02AD06C1
:1019F300120B8EBCAE06120B8EFAAE06120B8EEFD6
:101A0300AF06120B8EFAB006120B8E1CB106120B28
:101A13008E66B106120B8EE7B106120B8E75E202CB
:101A2300120B8E98E202120B8EF6E302120B8E3F1C
:101A3300E402120B8E9DE402120B8E03E502120BDD
:101A43008E06E502120B8E4EE502120B8ED2E502D4
:101A5300120B8E5AE602120B8E5DE602120B8EE516
:101A6300E602120B8E28E702120B8E91EB02120B89
:101A73008E31ED02120B8E72ED02120B8EE8F00224
:101A8300120B8E24F202120B8E01F302120B8E8BB9
:101A9300F302120B8EC4F302120B8E58F602120BD2
:101AA3008E1FF802120B8EBAF802120B8E40F90247
:101AB300120B8E32FA02120B8EE7FB02120B8EDF31
:101AC300FC02120B8E55FE02120B8E9BFE02120BB2
:101AD3008E46FF02120B8E16C205120B8EB1C20583
:101AE300120B8E24C305120B8E3FC305120B8EC936
:101AF300C305120B8E22C405120B8E6DC405120B87
:101B03008ECCC405120B8ED9C505120B8EF6C805F3
:101B1300120B8E2CCA05120B8EB5CA05120B8EB989
:101B2300CC05120B8E5DCD05120B8E07CE05120B65
:101B33008EE9CE05120B8ECBD005120B8E40D2054B
:101B4300120B8E4FD305120B8EDCD305120B8EE8CE
:101B5300D405120B8E3BD903120B8E9ED903120BA5
:101B63008EE6D903120B8E24DA03120B8E7FDA036F
:101B7300120B8EDCDA03120B8E17DB03120B8E991A
:101B8300DB03120B8EF3DB03120B8E67DD03120BE9
:101B93008EE5DD03120B8EFDDE03120B8E25DF03B4
:101BA300120B8E74E003120B8E85E003120B8E9DD5
:101BB300E003120B8EB2E103120B8E8FE203120BC2
:101BC3008E8CE303120B8EB0E303120B8EC7E30379
:101BD300120B8EE8E303120B8E0AE403120B8E2919
:101BE300E403120B8EFDE403120B8E57E503120B75
:101BF3008EF8E703120B8E51E803120B8E70E80385
:101C0300120B8E5BE903120B8E91E903120B8ECB41
:101C1300EA03120B8E4AEB03120B8E81EB03120BBA
:101C23008EBBEB03120B8E2AEC03120B8EEBEC0331
:101C3300120B8EC4EE03120B8ECBEF03120B8E3CF2
:101C4300F103120B8E3CF303120B8EB7F503120B49
:101C53008E91F703120B8E52F803120B8ECAF80300
:101C6300120B8EE1F803120B8EDBF903120B8ED3EA
:101C7300FA03120B8E42FB03120B8E50DC06120B7F
:101C83008E00DE06120B8EBFDE06120B8E27DF06DA
:101C9300120B8E248706120B8EF8CD06120B8E3C88
:101CA300CE06120B8E62CE06120B8E89CE06120B57
:101CB3008EA1CE06120B8EB9CE06120B8E5BCF060B
:101CC300120B8E9DCF06120B8EBFD006120B8EC841
:101CD300D006120B8ED1D006120B8EDAD006120B61
:101CE3008EE4D006120B8E28BC06120B8E5CC00647
:101CF300120B8E6AC006120B8E6FC006120B8EC6B5
:101D0300EA06120B8EF6E705120B8E4DFB06120B3D
:101D13008E97FF01120B8EA7FF01120B8E70C50663
:101D2300120B8E30F706120B8E5AF706120B8EBA71
:101D3300FB06120B8EF9F806120B8E008003120BB2
:101D43008E328003120B8E9E8003120B8E39810319
:101D5300120B8ED88103120B8E1D8203120B8E3F42
:101D63008203120B8E588203120B8E7E8203120B98
:101D73008EA08203120B8EDE8203120B8E2283034C
:101D8300120B8E448303120B8EA68303120B8E6DEC
:101D93008403120B8E248503120B8E968503120B7C
:101DA3008E688603120B8EB28603120B8E05870391
:101DB300120B8E6B8703120B8EA58703120B8EF704
:101DC3008703120B8E138803120B8E3E8803120BAC
:101DD3008E458A03120B8E998B03120B8EBB8B03DA
:101DE300120B8EEF8B03120B8E108C03120B8E1FB4
:101DF3008C03120B8E2A8C03120B8EDA8C03120BBC
:101E03008E438D03120B8EF08D03120B8E288E03DF
:101E1300120B8EEE8E03120B8EFB8F03120B8E456D
:101E23009003120B8ED49003120B8E389103120B76
:101E33008E739103120B8EDF9303120B8E33950374
:101E4300120B8E6C9803120B8E399903120B8EC7EB
:101E53009903120B8EF09903120B8E629A03120BE5
:101E63008EF69A03120B8E549B03120B8E469C0321
:101E7300120B8E689C03120B8EC49D03120B8EDD16
:101E83009D03120B8EF09D03120B8E5F9E03120BAC
:101E93008E6B9F03120B8E789F03120B8E819F0311
:101EA300120B8E59A103120B8E7FA203120B8E8F7E
:101EB300A203120B8E91A303120B8E08A403120B21
:101EC3008E37A403120B8E3DA503120B8E83A5033D
:101ED300120B8E4FA703120B8E27AB03120B8E31FF
:101EE300AB03120B8E45AB03120B8E4FAB03120BDE
:101EF3008E59AB03120B8E63AB03120B8E7CAB03B9
:101F0300120B8E86AB03120B8EFAAB03120B8E05EC
:101F1300AC03120B8E2AAC03120B8E35AC03120BDF
:101F23008E83AC03120B8E8DAC03120B8E98AC0315
:101F3300120B8EBCAC03120B8EE0AC03120B8E3C67
:101F4300AD03120B8E82AD03120B8E9FAD03120BEA
:101F53008E1CAE03120B8E53AE03120B8E92AE0386
:101F6300120B8EDFAE03120B8E61AF03120B8EFAD0
:101F7300AF03120B8ECAB103120B8E28B203120BDE
:101F83008E44B303120B8E6AB303120B8EA9B403F0
:101F9300120B8ECFB703120B8E10BA03120B8EECFB
:101FA300BB03120B8E82BC03120B8EA9BE03120B52
:101FB3008E55BF03120B8E8ABF03120B8EEFBF0326
:101FC300120B8EF9BF03120B8E23C203120B8E4A20
:101FD300C303120B8E8AC303120B8E30C403120B7E
:101FE3008EC1C503120B8E4AC703120B8E6AC70339
:101FF300120B8EC3C703120B8EC5C803120B8E0FB1
:10200300C903120B8E5FC903120B8E49CA03120B4D
:102013008EBECA03120B8ED8CB03120B8E53CC0386
:10202300120B8E58CD03120B8E03D003120B8E228C
:10203300D003120B8E83D103120B8E45D303120BE5
:102043008E99D303120B8E51D403120B8E00D5033A
:10205300120B8E56D503120B8E0CD603120B8EA1C8
:10206300D603120B8E0DD703120B8E47D703120B19
:102073008E78D703120B8ED4D803120B8E008002F6
:10208300120B8E328002120B8E698002120B8E525B
:102093008202120B8E358302120B8E8D8302120B7A
:1020A3008EC88402120B8E148502120B8E3C88029A
:1020B300120B8E9E8B02120B8EEB8C02120B8E81F7
:1020C3008D02120B8E8D8D02120B8EBF8D02120BA1
:1020D3008E418F02120B8E4F9002120B8E7990025B
:1020E300120B8ED09002120B8E299102120B8E9539
:1020F3009102120B8EAC9302120B8E3B9502120BC4
:102103008E059602120B8E439702120B8E73990261
:10211300120B8E439C02120B8E509C02120B8ED715
:102123009C02120B8E7F9D02120B8EC29D02120B1C
:102133008E0B9E02120B8E5F9E02120B8EC49E02AA
:10214300120B8E2C9F02120B8E499F02120B8E795B
:102153009F02120B8EAE9F02120B8E7EA002120BF9
:102163008E27A102120B8EABA302120B8ECBA402FD
:10217300120B8EB4A502120B8E36A602120B8E58CA
:10218300AA02120B8E95AA02120B8EEDAA02120B53
:102193008E20AB02120B8EA1AB02120B8EEEAB02A2
:1021A300120B8E79AC02120B8ECBAC02120B8EA2E9
:1021B300AD02120B8E5BAE02120B8EF6AE02120B49
:1021C3008E0FB202120B8E2FB302120B8EE0B602E9
:1021D300120B8EFEB702120B8E01B802120B8E3059
:1021E300B802120B8E36BA02120B8E0FBB02120B01
:1021F3008E44BB02120B8E4CBC02120B8E02BD022C
:10220300120B8EA3BE02120B8EC8BE02120B8E07D8
:10221300BF02120B8E79BF02120B8E5DC002120B2E
:102223008E2AC102120B8E60C302120B8ED1C3021F
:10223300120B8E11C402120B8E72C402120B8E3556
:10224300C802120B8E24C902120B8E0BCA02120B88
:102253008E83CA02120B8E45CB02120B8E43CD0224
:10226300120B8E5BCD02120B8E6FCD02120B8EA75B
:10227300CD02120B8ED5CD02120B8E5CCF02120B48
:102283008E67D002120B8EB9D002120B8E21D102AF
:10229300120B8ED3D102120B8E03D202120B8EE7D6
:1022A300D202120B8E98D302120B8E87D502120B19
:1022B3008EBCD502120B8E24D602120B8E53D7027C
:1022C300120B8E05D802120B8E36D802120B8E4ECD
:1022D300D802120B8EDDD802120B8E91DB02120B89
:1022E3008E69DD02120B8E85DD02120B8EA1DD02DB
:1022F300120B8E6FDE02120B8E53E202120B8E9BB9
:10230300D106120B8EDBD106120B8E8ED306120B67
:102313008E9DD306120B8E539705120B8E6A9C0566
:10232300120B8EB59C05120B8E059F05120B8E9911
:10233300A005120B8E27A105120B8E88A305120B85
:102343008E8DA505120B8EE1A505120B8EF0A70548
:10235300120B8E21A805120B8E61A805120B8E7C21
:10236300A805120B8ED7A805120B8EF9A805120B20
:102373008E00A905120B8E18A905120B8EF8A9055C
:10238300120B8ED7AA05120B8E1B8501120B8E53CF
:102393008501120B8E318A01120B8E778A01120B83
:1023A3008EC48B01120B8E2F8C01120B8EB88D01F4
:1023B300120B8EC89001120B8EE39101120B8EF556
:1023C3009B01120B8E889C01120B8EDA9F01120B5C
:1023D3008ED6A001120B8E31A101120B8E7BA201AE
:1023E300120B8E69A301120B8E05A601120B8E79B7
:1023F300A701120B8EFCA701120B8EFFA701120B74
:102403008E74A801120B8E7EA801120B8E8BA8016D
:10241300120B8EB6A801120B8E66A901120B8E5FEA
:10242300AA01120B8E0AAB01120B8E28AB01120B01
:102433008E41AB01120B8E6AAB01120B8E8CAB017A
:10244300120B8EE1AD01120B8EA6AE01120B8EEBB9
:10245300AE01120B8E6AAF01120B8E16B001120B76
:102463008E48B001120B8E9CB001120B8ED7B001B7
:10247300120B8E1EB101120B8E6EB101120B8E73F5
:10248300B101120B8EC7B101120B8EF3B101120B06
:102493008EDCB201120B8E2DB301120B8E8DB301A4
:1024A300120B8EE7B301120B8E82B401120B8EC195
:1024B300B701120B8ED3B801120B8E4DBA01120B5A
:1024C3008E5DBD01120B8EFBBD01120B8EF1C0019F
:1024D300120B8EB0C101120B8EF4C101120B8E9F31
:1024E300C301120B8EB3C301120B8EBDC301120BBA
:1024F3008EC7C301120B8ED3C301120B8EF8C30117
:10250300120B8ED1C501120B8E26C601120B8E3013
:10251300C601120B8E3AC601120B8EAFC601120B07
:102523008EFEC601120B8E0FC801120B8E5CC80102
:10253300120B8E69C901120B8EADC901120B8E539A
:10254300CA01120B8E46CB01120B8E0CCC01120B5F
:102553008E2FCD01120B8E4DCE01120B8E35CF0176
:10256300120B8E4DCF01120B8EA4CF01120B8EAE28
:10257300CF01120B8EB9CF01120B8ED7CF01120BE5
:102583008E1FD001120B8E81D001120B8EA8D001A9
:10259300120B8EBAD001120B8E55D101120B8E8AFB
:1025A300D101120B8E71D201120B8EB6D201120B16
:1025B3008E9CD301120B8EC3D301120B8E46D40112
:1025C300120B8EB7D401120B8E40D601120B8E6CF8
:1025D300D701120B8E2FD801120B8EF7D801120BD5
:1025E3008E81D901120B8EA9DA01120B8E4BDB01FE
:1025F300120B8EC6DB01120B8E82DC01120B8ECC0A
:10260300DC01120B8E26DD01120B8EFEDD01120B97
:102613008E21DE01120B8ED4DE01120B8EF6DE014B
:10262300120B8E5FDF01120B8E75E101120B8E6DA3
:10263300E201120B8E31E301120B8E63E501120BE3
:102643008EADE501120B8EFDE501120B8E61E601E5
:10265300120B8EC3E601120B8EF1E601120B8E15DF
:10266300E701120B8E4AE701120B8E7BE701120B77
:102673008EAEE701120B8EFEE701120B8E51E801BD
:10268300120B8E76E901120B8E16EB01120B8E7173
:10269300EB01120B8E9AEB01120B8E27EC01120B3E
:1026A3008E95EC01120B8EA3EC01120B8EC7EC017D
:1026B300120B8E1CED01120B8E37ED01120B8EE9FE
:1026C300ED01120B8E21EE01120B8E64EE01120B43
:1026D3008EC7EE01120B8EC9F001120B8EF3F001BF
:1026E300120B8EEAF101120B8EF4F201120B8EA47F
:1026F300F301120B8E82F401120B8EBAF401120B4A
:102703008EDBF401120B8E1DF501120B8E7FF5018A
:10271300120B8E89F501120B8E99F501120B8ED4D3
:10272300F501120B8EB4F901120B8EA1FB01120BF2
:102733008E87FD01120B8E1EFE01120B8EC0FE0151
:10274300120B8E313200120B8EDC3200120B8E8A8A
:102753003300120B8E903400120B8EB03400120B28
:102763008ED93500120B8E943700120B8E0738006A
:10277300120B8EAB3800120B8EB73900120B8E2260
:102783003A00120B8E5E3A00120B8EA13A00120B26
:102793008EDC3A00120B8E1E3B00120B8EB33B00F5
:1027A300120B8E2F3C00120B8EF93C00120B8ED6AF
:1027B3003D00120B8E6E3E00120B8E883E00120BF4
:1027C3008EB83E00120B8EE93E00120B8EAF3F0017
:1027D300120B8EBF3F00120B8E0E4000120B8E1B8E
:1027E3004000120B8E244000120B8EA24000120BED
:1027F3008EFE4000120B8E494100120B8E64410085
:10280300120B8E8F4100120B8EAC4100120B8EB84F
:102813004100120B8E4F4300120B8E684300120BC4
:102823008EED4300120B8E004400120B8E1F4400EA
:10283300120B8EC34400120B8E444600120B8EF70C
:102843004700120B8E8D4800120B8E904800120B1E
:102853008E004900120B8E1E4900120B8EB54900E3
:10286300120B8EFD4900120B8E004A00120B8EC60E
:102873004A00120B8E334B00120B8E594B00120B76
:102883008EE44B00120B8E024C00120B8E484C0050
:10289300120B8EFC4C00120B8E464D00120B8E75E4
:1028A3004D00120B8ED24D00120B8E074E00120BF1
:1028B3008E334E00120B8E414E00120B8E8E4E0045
:1028C300120B8EFE4E00120B8E474F00120B8E938F
:1028D3004F00120B8EBF4F00120B8ECA4F00120B0C
:1028E3008EE84F00120B8ED35000120B8EDD50007A
:1028F300120B8E185100120B8E285100120B8E7C76
:102903005100120B8E905100120B8EBF5200120B0E
:102913008ED45200120B8E625300120B8EA75300FB
:10292300120B8E335400120B8E3E5400120B8E800A
:102933005500120B8E9B5500120B8EE75500120BA0
:102943008E565600120B8E8F5600120B8EA9560010
:10295300120B8E095700120B8EA85700120B8EF321
:102963005700120B8EC35A00120B8E755B00120BAD
:102973008EE25B00120B8E225E00120B8E3A5E001B
:10298300120B8E3D5E00120B8E495E00120B8E5DA4
:102993005E00120B8E655E00120B8E985E00120BAA
:1029A3008E9B5F00120B8E286000120B8E986000C6
:1029B300120B8E1A6100120B8EDB6100120B8EFA62
:1029C3006100120B8E9B6200120B8EF86200120BD9
:1029D3008EFB6200120B8E6F6300120B8EBE6400BF
:1029E300120B8EC46500120B8E4F6600120B8E6A9B
:1029F3006700120B8E326800120B8E636800120B95
:102A03008E866800120B8E8F6800120B8EBE6800D4
:102A1300120B8E4E6900120B8E046A00120B8E7914
:102A23006A00120B8E206B00120B8E956B00120B3B
:102A33008ECC6B00120B8E0A6C00120B8E1A87065B
:102A4300120B8EAF8606120B8E948606120B8EE443
:102A53008506120B8EEA8406120B8E108406120B67
:102A63008E668106120B8E788006120B8E0A800604
:102A7300120B8E429705120B8E2E9705120B8E2486
:102A83009705120B8EB79605120B8EE89405120B61
:102A93008EA69405120B8EBC9305120B8E90930594
:102AA300120B8E479305120B8E849205120B8E60C8
:102AB3008F05120B8E028D05120B8ED28C05120B15
:102AC3008E828C05120B8E1C8C05120B8EDB8B05F4
:102AD300120B8EBB8B05120B8EED8A05120B8E87A4
:102AE3008A05120B8ED2E505120B8E268A05120B70
:102AF3008EA4E505120B8E71E505120B8EF5E40528
:102B0300120B8E628A06120B8E2E8A06120B8ED73A
:102B13008906120B8EC68905120B8E648805120B6B
:102B23008EF88705120B8E798806120B8E4C87055B
:102B3300120B8E478705120B8E308705120B8EFB07
:102B43008605120B8E8D8305120B8ECB8706120B17
:102B53008E8A8305120B8EDBF906120B8E718305A9
:102B6300120B8E668305120B8E358305120B8E5C5A
:102B73008105120B8ECF8005120B8E8B8005120BF5
:102B83008E008005120B8E54FD05120B8EFFFC0583
:102B9300120B8ED2FC05120B8E9FFC05120B8E7747
:102BA300FC05120B8E18FC05120B8EF8FB05120B9D
:102BB3008EC3FB05120B8E87F805120B8E5CF60590
:102BC300120B8E4CF405120B8EC9F305120B8E2ECD
:102BD3008706120B8E7DF305120B8E31F305120B54
:102BE3008E8BF205120B8EDACD0600000080FB00FF
:102BF3000136360101000102010001030100010455
:102C030001060605020000070100340801000F0950
:102C13000401010D0100FF0E080000170200001956
:102C23000100FF1A0100011B0100FE1C0100081D29
:102C33000200001F01000120010001210200002306
:102C430001000F24020000260100012701000828CB
:102C53000200FF2A0100072B0102402C0100002D76
:102C63000100012E0100012F0100FF30010B1D3176
:102C73000800003A0100083B01000F3C0100013D40
:102C83000100FF3E04000042040000460400004A25
:102C93000400004E04000052040000560400005AD1
:102CA3000400000103710301030103010301030194
:102CB30003220302030103100300030003000300C4
:102CC300030003000300034203000324030603007D
:102CD300030003040312032503230325032303042F
:102CE300030403000300030003440300030003235E
:102CF300030003650321003503810300030503007B
:102D030003000300030003250323030304710402E8
:102D13000460041104700402040204010402041098
:102D2300046104000414046304730472046204431E
:102D33000400041304060400040004040412040041
:102D430004000400040004510464000004000400AF
:102D53000444040004000400040004650400043572
:102D63000481046400050400048304000403007167
:102D73000030016000110070003102200350048014
:102D83000010006100000014006300730072006211
:102D930000430000001300060000000000040012BE
:102DA30000000000000000000004000400370037AA
:102DB300003C024400000000000000000065000029
:102DC30000350081000000050000008300000001C1
:102DD3000171010101010111010101310101010130
:102DE300018001100161013B001400630173017252
:102DF30001620143010001130106013D0135000495
:102E0300011201000100010001000104010401336A
:102E13000133013C01440132013600000100016528
:102E230001000135008101000105018201830100D8
:102E330001030271023001600211027002010202F9
:102E43000202028002100261023A0041006302732F
:102E530002720262024302000213023800000200FF
:102E63000204021202000200020002000204020431
:102E730002370037003C024402000239000002001E
:102E8300026502000235028102000205028202830A
:102E9300020002210010002081701C210011004358
:102EA300810000210012002083711C2100130020E7
:102EB30083721C210014002083731C21001500431E
:102EC300813E04210016001A81741C210017001A88
:102ED30081771C210020001883400421002100F188
:102EE300837A1C21002200F1838A1C2100FDFF212B
:102EF300819A1C36000100060000000F000000004C
:102F030000000000000000000003FFFF00000403B6
:102F1300FFFF0000FFFF0FF4010005C404032000BE
:102F23000100000B000000000000000003010F007F
:102F3300000000000000000000000000000000008E
:102F4300000000000000000000000000000000007E
:102F530000F9162917FF163F1605172F1705173BFC
:102F6300170B173F1605172F1711173F16000000F1
:102F73000017173F16000000001D173F1623173FC9
:102F83001600000000000000000000000000000028
:102F9300000000000000000000000000000000002E
:102FA3000000000000000000000000000013009576
:102FB3001A1F009B1A1F80A11A0000071B0100079C
:102FC3001B0200411A02803B1A0300471A04004DFA
:102FD3001A0480531A0500591A0600651A3100773E
:102FE3001A33007D1A3400831A3600891AFFFF0052
:102FF300000A0000000200000004000000080000B6
:1030030000100000002000000040000000800000CD
:10301300000001000000020000000400000008009E
:10302300000010000000200000004000000000032A
:103033000020011A8500000000200119850000040A
:103043000042017B830300000021038F180000FD71
:10305300FF210116850300FDFF21011685004E00A7
:10306300004207D81C01C52306F52308EF230B13E1
:1030730024102F2002CB2305E32307D1230CAD23F8
:103083000DB923641F1EFF000007ECFDFDFDECDC02
:10309300DCCCBCACAC9C9C8C7C7C6C6C5C5C5C4C7D
:1030A3004C3C3C2C2C1C1C03EAF5E5D5D5C5B5A539
:1030B300959585857575656555554545353525253D
:1030C30015150500160F00000B150B020002220F49
:1030D3003300000E0FD0D1D2D3D4D5D6D7D8D9DA76
:1030E300DBDCDDDEDFC0C1C2C3C4C5C6C7C8C9CA15
:1030F300CBCCCDCECF0000000000000000000000CC
:1031030000000000005A6967426565416C6C6961A3
:103113006E63653039303016181920231A1C1E309F
:10312300303017181921301B1D1F300001191618D4
:1031330016161823030000034D4C4651181A250593
:1031430002003C40423A3F3F392F47300C0E020BFE
:10315300040B0A0708000F0204020101010109021E
:1031630000000000000000BE040AE8030000E803BA
:103173000000010003007F0000000E0004040304AC
:10318300050A0C1008070C081E0028FF031002098B
:10319300033C0C050815091EE4F0A3F0A3F0A322D9
:1031A30012319BF022901B511247A71227AF221214
:1031B30031B622E0F508E4F509F50AF50B22E82417
:1031C300FBF582E934FFF58322E82411F582E43923
:1031D300F583E022F5831231DD22E0F508A3E0F563
:1031E3000922122A2B7404120BBE7F080208A3744F
:1031F30001F09004D4E0640F227409120BBE7F0423
:103203000208A3EA2413FAE43FFB122959E92279BD
:1032130005122965740622A3A3E024F5C39413229F
:10322300122A379004F41267657A147B0022C08255
:10323300C083901B3074A3F0A37427F0A374B5F07C
:10324300A37427F0901B34748BF0A37427F0A3743A
:1032530085F0A37427F0A374C1F0A37427F0A374BB
:10326300C7F0A37427F0A374BBF0A37427F0A3746F
:1032730073F0A37427F0901B407497F0A37427F0A6
:10328300A3749DF0A37427F0A37491F0A37427F0A3
:10329300A374CDF0A37427F0901B511251766009EB
:1032A300901B511247A31214D7901B4E124ABD74A0
:1032B30008125E12A3F0901BFAF0901B53F07C0BE4
:1032C300FDF97A547B1B1214237C0B7D0079007A61
:1032D3005F7B1B12142302491774F712057474F7EA
:1032E300120CBAEAFEEBFF12336F7405124BDB7458
:1032F30003F0123486124BBD2430FCE43FFD8C8274
:1033030012336712337B6008123B9474FFF0A3F00F
:10331300EE242EE43F1C1CFD8C82F583A3E0C0E069
:103323008A828B8312486FD0E012337B8882898331
:103333001250AA2403F0EE123B9E120EE27403F025
:103343009004E91209A97402120C84123768120B53
:10335300BEE9F5087007EEFAEFFB12283FA90874DF
:1033630009023BADF583E08882898322EA12337434
:10337300221252B93FF58322126092124BC9E8F030
:10338300A3E9126369E02274F0120574EAFEEBFF0D
:103393008C0C8D0D890B123486F583124BD174106E
:1033A300120EE2E0F508A3123369F0E824FFF58278
:1033B300E912377AE508F0E824FEF582E912377A54
:1033C300E50BF09004EEE0C0E0E824FDF582E9129D
:1033D300377AD0E0F09004EDE0C0E0E824FCF58219
:1033E300E912377AD0E0F07412120EE21231D912D8
:1033F30031C1E509F0E824FAF8E934FFF98882F5E8
:1034030083E508F0EE2404FCE43FFD88088A828B00
:1034130083E0F50E8C828D83E0250EC39508126040
:10342300921249F7850C82850D83A3A3A3A3A3A3BB
:10343300A3A3E064037009EE124BABF0A3E4800393
:1034430012377F1237877409F075085475091B7595
:103453000A007808120BA7125B5C120BBE7508FFFB
:103463007509FF7808120BABAC0CAD0D123768125F
:103473000BBEE9F5087007EEFAEFFB12283FA90827
:103483000231EDEA2402FAE43FFB8A8222C082C0C1
:1034930083901B70E0C39408400474078001E08AA2
:1034A300828B83F033333354F8F902491774F012E3
:1034B30005748A088B09890A8C0E8D0F750C00A27E
:1034C300AFE433F50BC2AF901B6A80451235B2509F
:1034D3003D1235CC64037036E50824F9F508E50997
:1034E30034FFF5098E828F83A3A3E02405FCA3E0B8
:1034F3003400FDAA08AB091215E5E50824FFF50819
:10350300E50934FFF5097410250CF50C150A123979
:10351300A1126B1AE50A6004EE4F70B0E50BA2E04E
:1035230092AFA2AFE433F50BC2AF901B6A803E1299
:1035330050838882F5831242F7850882850983F0D8
:103543008A8289831235C3A3A3E0C0E0E50824FF80
:10355300F582E50912377AD0E0F0E50824FEF50894
:10356300E50934FFF509050C150A1239A11237F5DF
:1035730060211235CC640270F11235B2EE40B01204
:103583004CF2A2E550E4850E82850F837401F0E5C9
:103593000A70D7E50BA2E092AF850882850983E51F
:1035A3000CF0E50824FFFAE50934FFFB0231ED12C4
:1035B30035B8A2E622EE2411F582E43FF583E0223A
:1035C3001235C7221250C8A3228E828F83A3A3125F
:1035D300487312579F2274F012057474F3120CBAD5
:1035E3007403120EE2E9F07402120EE2EAF08B0B9E
:1035F300851882851983E4F004120C7C122755E99F
:10360300F89004D3E0292437F508FA7B0012143B21
:103613008A0C8B0DAE0CAF0DEA4F700302375FEAD5
:103623002402F50EE43FF50FA808EA28F8E43BF975
:10363300850E82850F831240F39004D3E0F9FAC319
:10364300E49AFA95E0FB850E82850F83E02AF50C58
:10365300A3E03BF50D9004D11231D9750A00780827
:10366300120BA7E9FC7D00AA0CAB0D124B2D120B1C
:10367300BEAC18AD197401120EE2E0F9E50C24FF9B
:10368300FAE50D34FFFB12275B8A828B83E4F0E5B6
:103693000BC454F0F9901BFBE0C4333354C0F890CF
:1036A30004CDE0A2E0E43313134849440FC0E0EA39
:1036B30024FFF582EB12377AD0E0F0EA24FEF50C12
:1036C300EB34FFF50D7403120EE2E0F87402120EF0
:1036D300E2E0C454F048850C82850D83F0A80C8584
:1036E3000E82850F83125DDF2AC3988E828F83A398
:1036F300A3A3A3F0850E82850F83E8F0A3E50DF065
:1037030012377F123787E4F0740C120EE2E4F0757F
:10371300085F75091B7808120BA7125B5C120BBEBE
:10372300851882851983E06009EE240E124CF44457
:1037330008F0122947E9F9E4F508F5097808120BAE
:10374300AB7406120C8412376A120BBEE97006EED4
:10375300FAEFFB800BEEFAEFFB1214417A007B00C9
:10376300740D0231EA7903EEFAEFFB12295F74025A
:1037730022EE24FFF582EF34FFF58322EE12337439
:10378300E4F0A322F012378C22EE125A7F3FF58326
:103793002274F21205748A0C8B0DA2AFE433F50A7E
:1037A300C2AF750800750900901B6A802C1239B1ED
:1037B3005024850C82850D83A3A3125B6F8E828FA9
:1037C30083A3A31247A312294DE9600A1239ACC29D
:1037D300E6F08E088F091239A11237F570CFE5088C
:1037E3004509600612388ED2E6F0E50AA2E092AFF0
:1037F300800DE0FEA3E0FFEE4F227402120BBE7FAA
:10380300060208A374F01205748A0E8B0F8C0C8DBC
:103813000D750A00A2AFE433F50BC2AF7E007F0043
:10382300901B6A8010AE08AF09123886124CF2D290
:10383300E7F0124781124795603412388EA2E750A1
:10384300F1850882850983A3A31209A9AC0CAD0DE8
:10385300AA0EAB0F1229537402120BBEE960D3EE0A
:103863004F60C2123C2870061238A0D2E4F0E50B78
:10387300A2E092AFEE4F6006122839750A01A90A39
:103883000231ED1235B8D2E4F0EE22E508125A996E
:103893003509F583E022AA82AB831215E58E828F68
:1038A30083A3A3124873E02274F212057474FE1208
:1038B3000CBA750C00750D00851882851983E4F028
:1038C300A3F0A2AF33F50AC2AF901B6A126B1A8042
:1038D3002BEE24FBF582EF34FF1231D7780C120B59
:1038E300AB12398F120BBEEEFCEFFDAA18AB191207
:1038F300145FAE08AF09901B70E014F0EE4F602B1D
:103903001239B1501DEE240BF8E43FF98882F58398
:10391300E024FFF0A3E034FFF0888289831251761C
:1039230060AF8E0C8F0D1239A180A1E50AA2E0923F
:10393300AF901B70E0602C9004D4E0640F6006909D
:103943001BFAE0701E7A487B1B122A3790850012FF
:1039530009A57A487B1B12499F120BBE800574F0A0
:10396300124880AA18AB191214658A088B09AE088D
:10397300AF09EA4F60131227671239ACA2E28E82B5
:103983008F83A350D974E980D70237FDEEFCEFFD96
:103993007A6A7B1B1214717402228E0A8F0BEE2437
:1039A300FBF582EF34FFF58322EE1235B92212358F
:1039B300B8A2E72274F7120574EAFEEBFF12276739
:1039C30012486C1207BDE964019004F0700AE02408
:1039D30001F8A3E0340080031247F2F9124EF41207
:1039E30049F7901B70E0701F9004D4E0640F7017C8
:1039F3007A487B1B122A379085001209A57A487BE7
:103A03001B12499F120BBEA8A8C2AF901B70E00403
:103A1300F0E8A2E78004E508A2E092AF024E027448
:103A2300F7120574EAFEEBFFEA123A58F012276721
:103A3300EEFCEFFD7A6A7B1B12146BA8A8C2AF9051
:103A43001B701243469004D4E0640F70057908128A
:103A530028FF024E021235B9C2E42274F71205742C
:103A630074EA120CBAEAFEEBFF9004CDE0602A85FB
:103A730018828519837401F0120EE2E4123B1312CB
:103A83000EE2123899C0E0740A120EE2D0E0125D21
:103A9300FF740B120EE212505F7416023BAD74F703
:103AA300120574EAFEEBFF122749E9F974DC696039
:103AB3001E74DD69601974E469601474F369600F3E
:103AC30074DE69600A74DF69600574DB697007EE90
:103AD300FAEFFB122905024E0274F712057474EB18
:103AE300120CBAEAFEEBFF8518828519837406125D
:103AF3003B13120EE2AA82AB831215E5EE2408FCF7
:103B0300E43FFD740A120EE212505F7415023BADDE
:103B1300F0EA2413FCE43FFD74022274F7120574E7
:103B230074F7120CBAEAFEEBFFEA2430124CF4608D
:103B33005DEA123B9E120EE27403F09004E912094F
:103B4300A9123B941209A99004FCE0F97404120C25
:103B530084EEFAEFFB12274F7404120BBEE9F974DB
:103B6300DC69602374DD69601E74E469601974F3B1
:103B730069601474DE69600F74DF69600A74E86950
:103B8300600574DB697007EEFAEFFB122905023357
:103B930062EE242EF582E43FF58322125F70AA18A9
:103BA300AB191215E57408227403120BBE024E0200
:103BB30074F21205748A0C8B0D750A00750B00756F
:103BC30008E7A2AFE433F509C2AF901B6A80031282
:103BD300399D1237F560251239B150F3123C287024
:103BE300EEEE2432123DBFE06870E4780A120BABAC
:103BF30012398F120BBE901B70E014F0E509A2E09E
:103C030092AFEE4F6013EEFAEFFB12276779F0EEF7
:103C1300FAEFFB122905750800A908AA0CAB0D12CF
:103C2300290502380212378CE064012274F412056C
:103C33007474F7120CBAEAFEEBFF8A82F583A3E0F1
:103C430064F37003023CCD8A828B83A3E064DF605C
:103C5300798A828B83A3E064E8606F8A828B83A373
:103C6300E064DB60651227A9E9F5087055EE240EC0
:103C7300124CF4604D123CD760487408120EE212E5
:103C83003CE61209A97508FF7509FF7808120BAB0A
:103C93008E828F83A3A3A3A3A3A3A3A3E0F9740496
:103CA300120C8412274F7404120BBEE9F50874F347
:103CB30069600F74DF69600A74E869600574DB6921
:103CC300700F8E828F83A3E508F0EEFAEFFB1227C5
:103CD300B50231FCEE240FFAE43FFB79091227EB1E
:103CE300EA4B22740212556574FFF0A3123CF322CF
:103CF3001250B3A3A32274F1120574EAFEEBFF750D
:103D030008008A82F583A3A3A3A3A3A312321A40B4
:103D1300037508E88A828B83A3A3A3A3A3A3A3A306
:103D2300A3A3E0C3941040057508E880138A828B2F
:103D330083A3A3A3A3A3A3A3A3A3A3E0640F600BE1
:103D4300901BD7E0540870037508E8EA240B123D72
:103D5300BFA3A3A3A3A3A3A3A3E0C398500DEA24E3
:103D63000B124CF4640F60037508E89004EDE0F463
:103D73007003A3E0F470037508EC7A237B0012143C
:103D8300D18B0BA90B901B51123DCE60278E828FD6
:103D930083A3A3A982AA83890C8A0D750E00780CCC
:103DA300120BA77C237D00901B51E0FA124B2D12BE
:103DB3000BBE800375081AA908025B57F582E43F1E
:103DC300F583E0F88A828B83A3A322EAF0A3EBF0C6
:103DD300EA492274F5120574EAFEEBFF8A82F58341
:103DE300A3A3A3A3A3A3A3A3E09004D4123E66E0DA
:103DF3009004EFF0EA240B124CF49004CF123E66C9
:103E0300A3E0901BFBF0F9121225901BFBE0600B63
:103E1300EE2404124CE62406123E5C901BFA123187
:103E2300F26004740180027400901B531264AA129E
:103E33000BA77C0B7D007A547B1B124B2D120BBE00
:103E4300EE2418F508E43FF5097808120BA77C0B5C
:103E53007D007A5F7B1B024B1AFAE43FFB79E11288
:103E6300120D22126494A3A3A3A32274F712057460
:103E7300EAFEEBFF8A82F583A3E070031231A812F6
:103E8300601B024E0274F7120574EAFEEBFF901BEF
:103E9300511251766010901B511247A3901B51E4AD
:103EA300F0A3F01214D78E828F83740812488712FE
:103EB3001CE7024E0274F6120574901BFAE06010C0
:103EC300901B53E0700A123ED6EA4B600312283F60
:103ED3000261159004CFE0FB9004EFE0FA9004D464
:103EE300E0F91227612274F412057474E7120CBA14
:103EF300EAFEEBFF750B018A82F583A3A3A3A3A3B9
:103F0300A3A3E0A2E25069EA242BF582E43F125B0B
:103F13006DEA2413FAE43FFB12276DE97052908493
:103F230034E064017005750B008045123FA8120B45
:103F3300A77C0B7D007411120C7C124B2D120BBE4F
:103F4300122947E9FA740E120C7488088909780853
:103F5300120BAB7508307509007808120BABEE1223
:103F63005DC81209A9125F627901123214120BBEE5
:103F73008518828519837410F0125F627402120E21
:103F8300E2AA82AB831215D9EE242B12675B740B62
:103F9300120EE21249F7740D120EE2E50B1261D410
:103FA30074190231FEEE24081264B222C082C08367
:103FB300901BFBE060031229B9024917C082C0833A
:103FC300901BF27430F0A3741BF0A37434F0A37449
:103FD3001BF0A37440F0A3741BF0901E43740EF007
:103FE300A3742DF0901BDC7443F0A37427F0901B93
:103FF300757479F0A37427F0901B77747FF0A37422
:1040030027F0901BD7E0440202441BC082C083EA1E
:10401300FCEBFD7903025122C082C083790802625E
:1040230095C082C08374FE120CBA901B7D7427F076
:10403300A37428F0901B7F7421F0A37428F08007E9
:104043007A6A7B1B124080901B6A12517670F19042
:104053001B6C12517660097A6C7B1B12408080EFD7
:10406300901B6AE4F0A3F0901B70F0A3F0A3F09010
:104073001B8B7463F0A37428F07402801C12146504
:10408300851882851983EAF0A3EB1240941229352F
:1040930022F0AA18AB19227411120BBE024917742D
:1040A300F6120574E9FF744429F582E43431F5838B
:1040B300E493FEFA7B0012143BEA4B6007EA2E12EC
:1040C30040F080267A027B0012143BEA4B6017749F
:1040D300232FF582E43431F583E4938A828B83F0D2
:1040E300A3741A1244B97A007B000261151249E6DF
:1040F300E812608FA3A3A3A3E4F022E9FC740629CA
:10410300F8EAA2E0501EE875F00A84E5F0F96014BD
:10411300740A28C399F8E9C394054004740A28F87B
:10412300740B28F8ECC394134004791480027906C5
:10413300E82979002409F85001097A0A7B0012035F
:10414300A8E8F9020B8BC082C083901BD7E054020E
:10415300600A121CEDE960047901800279000249CA
:1041630017C082C083901BD7E054026014901B7069
:10417300E0700A1251736009124189500479018079
:104183000279000249171231CCA2E722C082C08310
:10419300908431E0F8901B72E0C398500512143BF1
:1041A30080047A007B00024917C082C0831229353C
:1041B3007900024917C082C08374FE120CBA8518B5
:1041C30082851983EAF0A3EB124322A3A3A3A3A33B
:1041D300E0600A14605724FE605A0242929004D4AD
:1041E300E0640F601212290BE9700C12479D901BBB
:1041F3007912486F1207BD9004FCE0C0E085188275
:10420300851983125096D0E01243227414125AB3C4
:10421300FCA3E0FD7A6C7B1B12145FA8A8C2AF90CD
:104223001B7212434679201228FF02407C1245F08C
:10423300741580D91245F0A3A3A3A3E060511245DE
:10424300F01238A4C0E0851882851983E02406F5AE
:1042530082E43BF583D0E0125AB32402F8A3E0349E
:1042630000F98882F583E02401FAA3E03400FB8897
:10427300828983EAF0A3EB125AB31246308518827F
:1042830085198360131242F760051243094048AA57
:1042930018AB1912293580921242F760F2124309C2
:1042A3005021124316FA851882851983A3E0C82486
:1042B300061245ECF874591252AB3431F583E4938A
:1042C3006A60148518828519831242F7640870BFE7
:1042D300124316640870B81243161412432A240AB0
:1042E300C0E085188285198312486FD0E012432AF3
:1042F300040242101242FB221247F2C82406F5823E
:10430300E438F583E0228518828519831242FBC3C2
:10431300940A228518828519831235C7A3E02212D5
:104323004334F583888222124334C8240612461A82
:1043330022F08518828519831247F222A8A8C2AFFA
:10434300901B71E004F0E8A2E792AF22C082C08321
:10435300901B8112517660081245F71207BD800247
:10436300790002491774F7120574EAFEEBFFEA12AB
:10437300378D74011249A5F8A3E0F912336F12497E
:10438300F7EA2435124CF4C0E0EA2413F582E43F43
:10439300F583D0E0F0EA2436124CF4C0E0EA2414AA
:1043A300F582E43FF583D0E0F0EA2438124CF4C000
:1043B300E0EA2418F582E43FF583D0E0F0EA242F05
:1043C300F582E43FF5831209A9125F6FEA243112E3
:1043D3004CF4F912376E120BBEE9F5087007EEFACA
:1043E300EFFB12283FA908024E02C082C0831229A4
:1043F3000BE96004792080027901024917C082C069
:1044030083EA2411124411D2E0800DEA240DF582CF
:10441300E43BF583E022F0A3F0024917C082C08396
:1044230012440E640170111244B3400C8A828B83D0
:10443300A3E0F912290580661244A4A2E650128A69
:10444300828B83A3E0F9901B7B12486F1207BD8018
:104453004D12440E6401700D1244B350088A828BCE
:1044630083743080368A828B83A3E0641B8A828BB9
:1044730083700474228024A3E0700D12440EF87438
:10448300181252AB3431800B12440EF874231252BB
:10449300AB3431F583E4938A828B831244B90249A6
:1044A300171244A822EA2410F582E43BF583E022A4
:1044B3001244A8A2E322F0901BD2E0F9121447227F
:1044C30074F7120574E9FE12517370030245E9EEA5
:1044D3006014741B6E701AE8125A7F39F583E06416
:1044E3000570030245C1901B741245F7A3E402450E
:1044F300C874E96E7068E82412F582E439F583E044
:10450300700B121CF3E9600512463A606179EE12F2
:10451300118F901B73124611901B73603A12463D24
:10452300901B73700B12461114F01213450245E9E8
:1045330012462FC2E71247D8240D1245EC640370CC
:104543000912460A12478ED2E2F079ED12118F1248
:1045530046221207BD80781245FD74E9806774E135
:104563006E703E121CF3E9605512463A7050900487
:10457300F6E0C0E012460A2412F582E438F583D04F
:10458300E0F09004E5E0C0E0901B7312460612468B
:1045930006D0E0F09004E5E004F0790112132D80D9
:1045A30045741C6E7018901B731247A3901B8312E3
:1045B300486F1207BD901B73E4F0A3F08028901B93
:1045C300731245FDEEF0901B731247A312282D12B0
:1045D30047B9E054806003126284901B73E4F0A334
:1045E300F079101228FF024E0212461A2285188211
:1045F300851983A3E0F5838882221246012212489B
:1046030077A3221250C422901B731250A52212507A
:10461300A5241212461A22F582E438F583E022908B
:104623001B731247A7901B7712487322E0F8A3E08D
:10463300C8241012461A22901B731247C0E0540478
:104643002274F4120574750A00750B00A2AFE433EB
:10465300FEC2AF125173600302473712486C120750
:10466300BDE94410F8901B6A800985080A85090B87
:10467300124781124795700302473712388E5868E4
:1046830070E8780A120BABAC08AD09123993120B20
:10469300BE901B73E508F0A3E5091247D812478EB5
:1046A300A2E7500302473E901B71E014F0EEA2E034
:1046B30092AF901B73E0240EF8A3E03400F9E8FEF8
:1046C300E9FF8882F5831247A3901B7312431CF9F9
:1046D3001227F1E9901B6E125E128E828F83E054D3
:1046E30080601812460A24131245ECF9121249127B
:1046F300460A24141245ECF912123D1247B9A3E0FD
:104703005401605F901B6E12517660451247CF6073
:10471300401247CFF87900901B6E1247A31203B0E3
:10472300E8C0E01247ADD0E01247DDC39413401157
:104733007402800FEEA2E092AF8037901B700246A6
:10474300AD7400C0E0901B74E0C8124778D0E080DD
:104753000D1247AD74011247D81247787401F079EE
:1047630003800C901B7312462FA2E1B3E433F912BA
:10477300132D023201241AF582E438F58322E50869
:1047830024FBF582E50934FFF58322125A99124678
:104793001D221231DDE5084509228518828519831A
:1047A3001247A722E0FAA3E0FB221250A22419F534
:1047B30082E438F58322901B731247C0221247F21A
:1047C300C81247C8221252B938F583221250A224C4
:1047D3001812461A221247EAC8221247EAF58388BA
:1047E30082A3A3A3A3E022F0901B731247F222E05B
:1047F300F8A3E02274F7120574EAFEEBFF12292FE7
:10480300124CF1A2E3400A123C28700590842F80D9
:1048130003908430E0F9EEFCEFFD7A6A7B1B1214FF
:1048230077E96038EEFAEFFB901B7D12486F1207B1
:10483300BDEE240E124CF45404701212433FEE12D8
:104843003370A3E05401701E1228398019EEFAEF79
:10485300FB901B7512486F1207BD800A8E828F83EF
:10486300A374F1124880024E02901B7F12487322F8
:1048730012487722E0F8A3E0F58388822212488762
:1048830012282D22F0EEFAEFFB2202491074F712E0
:104893000574EAFEEBFF7900901BD7E05402700C1D
:1048A300EA2433124CF45404600279E8901BD7E0F5
:1048B3005460700CEA2433124CF45402600279E819
:1048C3008A828B83A3A3A3A3E0F8908435E0C398E3
:1048D300500279E8EA2431124CF4700CEA242E12C7
:1048E3004CF4700479F5800BE9700512281BE9F983
:1048F300E96007EEFAEFFB122905024E02C082C0FF
:10490300838A828B83740DF0121CE78007C082C0F8
:1049130083122839D083D082020B8B74F41205746E
:10492300EAFEEBFF8A82F583E4F0A31249A554045F
:1049330090842F7012E0F8901B71E0C398401279B5
:10494300F1122905023201E0F8901B70E0C3985080
:10495300EE1249ABA3E054016037EA2437124CF45A
:10496300C394054033EA2433124CF4540570297A76
:10497300857B1B122A37EE2437F582E43FF5831239
:1049830031B27808120BA37A857B1B12499F120B55
:10499300BEEEFA12539C80AC79E880A5122A2B74E0
:1049A3000422F01249ABE022EA2433F582E43FF516
:1049B300832274F6120574E9FE2451FAE43400FBF1
:1049C30012143BEA4B6015EE8A828B83A3A3A3A345
:1049D300F0EA24511249E61249F780047A007B0079
:1049E300026115F8E43BF98A828B83A3A322126741
:1049F30065901C4FE8F0A3E9F022024910C082C081
:104A030083901B8E748DF0A37428F0A374BDF0A360
:104A13007428F0A37493F0A37428F0A37499F0A3FB
:104A23007428F0A374B7F0A37428F0A374ABF0A3B5
:104A33007428F0A374A5F0A37428F0A374C3F0A39F
:104A43007428F0A374C9F0A37428F0A374CFF0A35F
:104A53007428F0A374DBF0A37428F0A3749FF0A36D
:104A63007428F0A37487F0A37428F0A37481F0A3CF
:104A73007428F0901BAA74B1F0A37428F0A374D522
:104A8300F0A37428F0A374EFF0A37429F0A374E1E6
:104A9300F0A37428F0A374E7F0A37428F0901BCE5E
:104AA300E4F0901BD1F0901BBA124ABD7402F0904F
:104AB3001BC3124ABD740102441B74FFF0A3742884
:104AC300F0A32274F512057474F1120CBA851882DE
:104AD3008519837402F07401120EE2E9F060047A1E
:104AE300FF7BFF7402120EE212555A7508C6750950
:104AF3001B750A007808120BA77C0B7D0074071244
:104B03000EE2AA82AB83124B2D120BBEAA18AB196D
:104B1300121CE7740F8003124B2D120BBE7F03028E
:104B230008A37C0B7D007AC67B1B1214117403222D
:104B330074F712057474FD120CBA851882851983F3
:104B4300740AF07401120EE2E9F07402120EE2EA42
:104B53001261D4023BAB74F612057474F7120CBAEB
:104B6300EAFEEBFFEA124BAB124BDB7402F0EA24D2
:104B730028FCE43FFDAA18AB191215D9EE24311213
:104B83004BB12433125BD3120BAB7402120C847936
:104B9300831A1A12376C120BBEE9F5087007EEFA86
:104BA300EFFB12283F02610E123374740122F58267
:104BB300E43FF5831231DD12507BF583124BC9E8D4
:104BC300F0A3E9F0EE22124BD18A828B8322E024F8
:104BD300FFF8A3E034FFF922F0A3E4F0EA12378DE3
:104BE3002274F0120574126643120E8B7808790C46
:104BF3001204097808120BA37ABD7B1B0231E574FA
:104C0300F412057474C6120CBA9004D4E0640F60F5
:104C13000D851882851983742E12557980227AB4F2
:104C23007B1B1232231203B088088909E4F50AF5C5
:104C33000B7808120BA37AB47B1B12499F120BBE8D
:104C4300743A0231FE74F5120574EAFEEBFF8A82B0
:104C5300F583A3E0F87078EA2430124CF464026020
:104C630007E06403600278E8EA2426F582E43FF56E
:104C73008312321C400478E88058E87052EA2426F4
:104C8300123E5CEE2431124CE62430124CF46402E2
:104C9300700EEE242812675B9004E31249F7801725
:104CA3009004E374FEF0A304F0EE2428FCE43FFD3B
:104CB3007ADA7B041215E5EE241B123FAB120BA725
:104CC300124B25120BBEEEFAEFFB12287BE9F8E834
:104CD300600EE88E828F83A3125F777417126021B0
:104CE300024B20FAE43FFB795012120DEE22EE2420
:104CF30010F582E43FF583E02274F612057474F72D
:104D0300120CBA901BD1E070377401F0F91212F74C
:104D1300AA18AB191229417508C675091B78081220
:104D23000BAB7508017509007808120BAB9004E909
:104D33001209A97406120C847A03123212120BBEE2
:104D430002611074F7120574124F227004A374EBFE
:104D5300F0901BD1E0A2E25003C2E2F0E0A2E150E6
:104D630005124F3380098E828F83742A12602102C9
:104D73004E0274F412057474FE120CBA124E281209
:104D8300506EEC8518828519831250BDE0F50B70C7
:104D930015AA18AB19795312120DEE2413FAE43F36
:104DA300FB794A12120D123FA8120BA7124B2512C0
:104DB3000BBE12479DA90B12286F901BD1E0A2E1F5
:104DC3005003124F3A901BD1E4F074020231FE7487
:104DD300F7120574EAFEEBFF8A82F583A374EBF006
:104DE300901BD1E0A2E150077A0079EB122875EE0F
:104DF300FAEFFB1228AB8007EEFAEFFB1229AD7F27
:104E0300010208A374F7120574124E28901BCEE416
:104E1300F0901BD1F07AFF7BFF8E828F83A3E0F9A2
:104E230012286F80DA124F737ABD7B1B122A372246
:104E330074F7120574EAFEEBFF1228A580BA74F723
:104E4300120574124FB0A3A3A3E0600474008002A0
:104E530074EB124E815003C2E2F0E0A2E15005125E
:104E63004F848011A2E0500D8E828F83742AF0A3A9
:104E730074EB126021EEFAEFFB12285180818E82CF
:104E83008F83A3F0901BD1E0A2E22274F612057483
:104E9300EAFEEBFF901BD1E0D2E1F079011212F7A9
:104EA3008E828F83A3E07038122947E9FAEE240D2E
:104EB300F508E43FF5097808120BAB75080175098D
:104EC300007808120BAB124EF41209A9EE2402FC6F
:104ED300E43FFD123212120BBEE98E828F83A3F0E0
:104EE3008E828F83A3E060067A00F912287502612F
:104EF30015EE240BF582E43FF5832274F712057453
:104F0300124F227004A374EBF0901BD1E0A2E25085
:104F130003C2E2F0E0A2E15003124F33024E02EA71
:104F2300FEEBFF79011212FD8E828F83E064202253
:104F3300C2E1F0124F3A227A008E828F83A3E0F906
:104F43001228752274F7120574124F738E828F83A1
:104F5300A3A3A3A3E060047400800274EB124E8148
:104F63005003C2E2F0E0A2E15003124F84024E78F4
:104F7300EAFEEBFF79011212FD7AB47B1B122A378A
:104F830022C2E11264A5E0A2E4E433FA124F3C2208
:104F930074F7120574124FB074EB124E865003C2AD
:104FA300E2F0E0A2E15003124F33024E02EAFEEBBD
:104FB300FF79011212FD8E828F83A32274F71205EB
:104FC30074124FD5024DFB74F7120574124FD502BC
:104FD3004E02EAFEEBFF7AB47B1B122A37EEFAEF9E
:104FE300FB1228CF2274F712057474EF120CBAEA7D
:104FF300FEEBFFEA125F637ADA7B041215D3E960F2
:10500300568518828519837409F07401120EE274AF
:10501300EFF012506E7402120EE2EC1250BDA3A315
:10502300E0C0E07404120EE2D0E01250AA640870EB
:10503300158E828F83A3A3125096E0C0E0740512ED
:105043000EE2D0E080067405120EE2E4125DFF74F6
:1050530006120EE212505F7411023BADAA82AB83BB
:10506300122977AA18AB19121CE72212507BF58379
:1050730012508DFCA3E0F922EE125083FB888222AA
:105083002402F8E43FF9E8FAE9221247F28882F5AC
:1050930083E0221250A52407F582E438F583229099
:1050A3001B731247F2C8221250AE221250B3E022F1
:1050B300F08E828F83A3A3A3A32212608F1250C406
:1050C300221250C822E0F8A3E0F5838882A3A3222A
:1050D300C082C0831229B9024917C082C083901BC2
:1050E300EE748EF0A3741BF0A374AAF0A3741BF0E8
:1050F300901E3D74D2F0A3742DF0A37434F0A37406
:105103002EF0901BDA7469F0A37428F0901BD7E09B
:10511300440102441BC082C083EAFCEBFD79021206
:10512300291D02491774F612057474FE120CBA9005
:105133001BD312517660077AD37B1B122935901B40
:10514300D9E4F0900B9B12517660208007AA18AB2C
:1051530019122935901BD2E0F91214538B09A909AE
:10516300851882851983123DCE70E27402026112A2
:10517300901B73126765E8492274F7120574E9FA04
:105183007B00901BD2E0F912147D024E0274F712D9
:10519300057474F0120CBAEAFCEBFDE9FE8A828B0B
:1051A30083E0F8744F1252AB3431F583E493C0E0DB
:1051B3007401120EE2D0E0F0640B700DE98A828B69
:1051C30083A3F012299B0252A6E070030252A66445
:1051D3000C6003025297741A6E700B7404120EE281
:1051E300E4F0A30252967404120EE212555AEA2412
:1051F30032125A63C0E07403120EE2D0E0126490DC
:10520300120EB37406120EE2120EA78C828D83A3C4
:10521300A3A3A3A3A3A3A3A3126761740A120EE219
:10522300E8F0A3E91252B0E05410600985188285B2
:105233001983E48013EC2412125A63F89004F6E005
:10524300C398851882851983F0E0C0E0740C120EB0
:10525300E2D0E0F0EC2415125A63C0E0740D120E94
:10526300E2D0E0F0EC2416125A63C0E0740E120E82
:10527300E2D0E0F0EC2417125A63C0E0740F120E70
:10528300E2D0E01252B0A3E0540160087401120EA0
:10529300E27411F07402120EE2EEF07401120C7C4F
:1052A300121CE77410023BAD28F582E422F0EC12E5
:1052B30052B93DF58322240EF582E422C082C083D5
:1052C300901BD9E0640370047901800279000249DC
:1052D3001774F7120574901BD9E012534F743B28CF
:1052E300F582741E39F5831257E1C2E7F012535663
:1052F300A3E493FE25E0FCE433FD743B2CF58274B8
:105303001E3D125B6DEC4D6005EE901BD9F08A8259
:105313008B83E025E0FCE433FDE82CF582E93DF5E1
:1053230083E493FCC4540F25E0F874E81252AB34C1
:105333001BF5831251767005122989800CEC540FEA
:1053430012535612486F1207BD024E0225E0F8E4CD
:1053530033F92225E0FCE82CF582E439F583227445
:10536300F212057474FE120CBA890B8A088B0912A7
:1053730054011253F2601A125E0CF50A7808120BEC
:10538300A712540E2402125B63120BBE12539A80AF
:10539300031254200237FDAA0CEFFB901BD2E0F955
:1053A3001214472274F012057474FE120CBA890B9E
:1053B3008A0E8B0F125401F5081253F26027125E06
:1053C3000CA808EA281240F0850E08850F09F50A93
:1053D3007808120BA712540E125B61120BBE125304
:1053E3009A79008005125420791A74020231EAFA7C
:1053F3007B0012143B8A0C8B0DAF0DEA4F227439DC
:1054030029F582E43431F583E49322A80B742E1238
:1054130052AB3431F583E493FC7D00EA2285188294
:10542300851983E50BF0791AAA18AB1912290522FD
:10543300C082C083E9901BD202441B74F612057428
:1054430074FE120CBAEAFEEBFFEA54207030803986
:10545300A8A8C2AF901B72E0141243488A828B83C0
:10546300125547901BD512555A122911851882855A
:105473001983E0641560077AD57B1B1229357A6C92
:105483007B1B121465EA4B70C7EF5480700C8016B7
:10549300901BD5EAF0A3EB12556D901BD2E0F912E5
:1054A3001453EA4B70EAEE5410600B851882851989
:1054B30083742D125579EEA2E0500B85188285195D
:1054C300837424125579EE5402600B851882851972
:1054D300837425125579EE5404600B85188285195F
:1054E300837426125579EE5408600B85188285194A
:1054F300837428125579EE5440600D7401120EE244
:10550300125560742C125579EE5480600D7401129B
:105513000EE2125560742F125579901BD3125176F7
:10552300601BA8A8C2AF901BD31247A3901BD3E460
:10553300F0A3124348A3EAF0A3E912556D7A007B66
:105543000002516E12554B22E0851882851983F0B3
:1055530022A3A3A3A3A3A3EAF0A3EBF022E412558F
:105563006522F085188285198322F01229117AD5D4
:105573007B1B1229352212409412291122C082C0AA
:1055830083901BD51261CF687002EB697007901B83
:10559300D5E4F0A3F002491774F7120574EAFEEBA1
:1055A300FFEA4F7003121039A2AFE433F508C2AF1C
:1055B3008E828F831251766028E824FBFAE934FF48
:1055C300FB901BD5125B6FE86C7002E96D7007905E
:1055D3001BD5E4F0A3F08E828F83E4F0A3F01214C2
:1055E300D7023A19C082C083901BFC747DF0A37468
:1055F30029F0A3748FF0A37429F0A37495F0A37416
:1056030029F0A3744BF0A37428F0A3749BF0A37444
:1056130029F0A37445F0A37428F0A37451F0A37484
:1056230028F0901C0A74CBF0A37429F0A374A1F0A2
:10563300A37429F0A374A7F0A37429F0A374B3F09F
:10564300A37429F0A374ADF0A37429F0901BFBE4B9
:1056530002441BC082C0839004E3E064FE7003A392
:10566300E0F470097CDA7D041215D9801C8A828BE0
:1056730083A3A3A3A3A3A3A3A37402F09004E3129D
:1056830067618A828B831249F7024917C082C083FC
:105693009004EDC3E094FEA3E094FF4004790380FB
:1056A300027902024917C082C0831257EA8C828DA5
:1056B3008312579F687039740268701C8A828B83C7
:1056C3001256F8E06870298A828B83A31256F8A3D6
:1056D300E068701C7901801A7403687013EC240568
:1056E300FC50010DEA2405FA50010B1215DF80026C
:1056F3007900024917A3A3A3A3A3E0F88C828D83A7
:10570300A3A3A3A3A32274F61205747E00740A1242
:105713000EE2E0125793FF8A828B83A3A3A3A3A372
:10572300A3A3A3E06F706474026F704E8A828B83AD
:10573300C082C08388828983A3A3A3A3A3E0F508BF
:1057430088828983A3A3A3A3A3A3E0FBAA08D0838E
:10575300D082E06A7003A3E06B703088828983A3F0
:10576300A3A3E0FA88828983A3A3A3A3E0F9EA6C45
:105773007002E96D70157E01801174036F700CE87F
:105783002405FCE439FD1215DFE9FEEEF90261158B
:10579300F8A3E0F98882F58312579F22A3E013133D
:1057A300543F540322C082C0838A828B83A3A3A362
:1057B300A3A3A3A3A3E0640270169004E31257E12A
:1057C300687003A3E06970047901800F7900800B8E
:1057D300EAFCEBFD7ADA7B041215D3024917126750
:1057E300658A828B83E0228A828B8312579FF822F9
:1057F30074F012057474FC120CBAE98518828519C9
:1058030083F07402120EE2ECF0A3EDF08A0A8B0B24
:105813007508007402120EE2E02408125A63C0E015
:105823007401120EE2D0E0125AB3A2E75008750ECB
:10583300FF750FFF800A9004E9E0F50EA3E0F50F72
:10584300851882851983E0C2E7125AB8542060078D
:10585300125A8574088004125A85E4125AB8540403
:105863006007125A9074808005125A907410125A6D
:10587300B854106006125A6BE4800B9004F6E0C033
:10588300E0125A6BD0E0125AB8A2E0500375082018
:105893005408600674104508F5088A828B83A3A315
:1058A300E024FFFEA3E034FFFFEA125A76C394021A
:1058B300E0400F640B6009E0148E828F83125AA9B3
:1058C30074034508F508750900900509E064017043
:1058D300118A828B83A3A3A3A3E0C39467400375B8
:1058E3000910851882851983E0F50C750D00740E77
:1058F300780C120E09E50D4509F509E06402701BE9
:105903009004EEE08E828F83F09004EDE0C0E0120D
:105913003774D0E0F0EE24FEFE801CE06403701DBB
:10592300EE24F9FEEF34FFFF7CFD7D04EEFAEFFB7E
:105933001215E5EE24FF1EEF34FFFF8003E0602F16
:105943007401120EE2E060187414120EE2E0650EA8
:105953007004A3E0650F700874404508F508800FD4
:105963008E828F83E50FF0123774E50E125A9F74FF
:1059730001120EE2E0F50C750D00740A780C120E9C
:1059830009E50D4509F509E0640270237402120E5E
:10599300E21261CA8E828F83F07402120EE2123811
:1059A300A6C0E0123774D0E0F0EE24FEFE8020E0C3
:1059B30064037021EE24F9FEEF34FFFF7402120E2C
:1059C300E2125B6FEEFAEFFB1215E5EE24FF1EEF1A
:1059D30034FFFF8003E0601C7414120EE2A3E08E18
:1059E300828F83F07414120EE2E0C0E0123774D099
:1059F300E0125A9FEEF8EFF9E824FF1EE934FFFFA7
:105A0300E50A125A7670059004D980039004E5E004
:105A1300FA04F0EA88828983125F77E509125AA9AA
:105A23008E82F583E508F0E50A2404F8E4350BF9E2
:105A3300E50A2402FAE4350BFBEEFC8A828B83E051
:105A4300F50888828983E02508C39C126092EEF0F2
:105A5300A3EFF0850A82850B83A3E4F0F90231E812
:105A6300F582E43DF583E022EA2412F582E4350B66
:105A7300F58322125A7F350BF583E022240DF5823C
:105A8300E422EA2410F582E4350BF58322EA125A64
:105A930099350BF583222411F582E422F0EE24FEDE
:105AA300FEEF34FFFF22F0EE24FF1EEF34FFFF2250
:105AB300125565E022F0EA1252B9350BF583E02264
:105AC30074F112057474FE120CBA85188285198359
:105AD300ECF0A3EDF0890B8A0E750A1A7415120EF9
:105AE300E21269F41227EB8A0C8B0DAE0CAF0DEAB0
:105AF3004F605A7413120EE21261CF125BCEF0A301
:105B0300E9124BDEE50BF0750A007808120BA77C4F
:105B13000B7D00EA125B61120BBE7411120EE212CE
:105B230009A97402120EE2125B6FA90E12376A12F0
