:020000040000FA
:060000000211B00207A985
:03002B0002259714
:03004300021001A7
:03004B00020E8220
:030053000206FBA7
:03005B00020E9101
:03006300020E9DED
:10008300020745010101010503010F10FEFF0300F3
:100093000300030003000300030003000300030045
:1000A30005000A00140028004F009E000000041AF7
:1000B300041A041A041ABA18B418041AAA28000055
:1000C3000000E627000000000C0000000C00010AFD
:1000D300D0075808ED04FF01010030110000008B28
:1000E30011E80364006400B8010202000010000577
:1000F3000207011E02051E020A03B80B02803E011D
:1001030003320002019287010A01E0020206303144
:100113003233343536373839414243444546002873
:100123006E756C6C20706F696E74657229003F3F49
:100133003F000000803FF9021550B743BA51000059
:10014300204100E7DB2E0000A04010000000080063
:1001530000000A0000001211CF60461211FC603D3E
:10016300E9687008F618F618F618F622748067F72F
:1001730012018D090909748067F7221211FC601DB1
:100183001211CF7005191919801A121044701F1219
:100193001083C37003E66733191919400718181839
:1001A3002208080874FFF618F618F618F62212103B
:1001B300836017121244702192F012123A70195090
:1001C3001720F014080808090909E7F61819E7F6D3
:1001D3001819E7F61819E7F62212123A60E6E869E9
:1001E300701F0808E62480F608E436F618547FB436
:1001F3007F0CE654806007F6E418F618F622181808
:1002030022E9C6CC08C6CD08C6CE08C6CFC0E0E8F2
:10021300C0E0EAC0E0EBC0E009E9F809E7FA09E762
:10022300FBE6F918E6F8C3EC98ED99EE9AEBC2E712
:10023300F5F0EFC2E795F0500E600CEBCFFBEACE82
:10024300FAE9CDF9E8CCF8EAA2E7D2E7FAEB33FB17
:1002530013F5F0EEA2E7D2E7FEEF33FFC5F013A2EA
:10026300E730E601B313C5F0C3C0E0C0F07F00C3BD
:100273009BFB605B9418600C401AD0E023F9D0E03C
:10028300F802035C8AF0E9486003D2F0E4AFF0FAC5
:10029300F9F8803BEB30E40D89F0EA6003D2F0E437
:1002A300AFF0F9CAF8EB30E30D88F0EF6002D2F05B
:1002B300AFF0E4CAC9F8EB54076014FBC3EA13FABE
:1002C300E913F9E813F8EF135002D2E0FFDBEDD0A6
:1002D300E0C0E030E739C3E49FFFF5F0EC98FC425F
:1002E300F0ED99FD42F0EE9AFE42F0D0E0F9D0E055
:1002F300F8E5F0607AE923F9EE20E742D802806757
:10030300C3EF33FFEC33FCED33FDEE33FE80EAEC59
:1003130028FCED39FDEE3AFED0E023F9D0E0F840B9
:1003230002801BC3EE13FEED13FDEC13FCEF135021
:1003330002D2E0FF08B800067F7F74FF802EEF3300
:1003430050178CF020F00260100CBC000C0DBD00A7
:10035300080EBE000408E860DFE933E813FFEE236C
:1003630013FE4F4D4C8008E95480FFE4FEFDFCEE84
:1003730033EF33F47004FCFD7E80D0E0FBD0E0FA71
:10038300D0E0F8D0E0CFC618CEC618CDC618CCC67C
:10039300F9221211FC7004181818221211CF700DD3
:1003A30074FFF61819F61819F61819F622E754808F
:1003B30066F612123A700F12124470F014F608F631
:1003C30008F608F680D1121244700CF608F6087687
:1003D3008008E6447F80EC121086700C1210476090
:1003E300BFE65480F6E480BB121047700519191953
:1003F30080A5E869700C763F18768018F618F6E841
:10040300F922E6CDC0E018ECC0E0E633CD33CDD31E
:1004130013F6E719FCE7191933CC33C3947F400E65
:10042300CD9D502408E65480F6E418F6800FF404BA
:100433003D14501408E6447FF6187680E418F61845
:10044300F6D0E0FCD0E0FD22CCD313CCFD18E4C6FB
:10045300CBC0E018E4C6CAC0E00808ED08C633E61E
:1004630013F618E433C675F003C3CA97CA09CB97CA
:10047300CB199C40047D08802EBD000302053E1667
:10048300B6FF050606081618C3CA33CACB33CB33E7
:10049300CA27CA09CB37CB193CC37D08803E187DD8
:1004A3000820E75CC633C6CA33CACB33CB33DDF18E
:1004B300D5F0EB30E77BCA97CA09CB974ACB199C97
:1004C300406F4B7025E620E0218066187D08C3CA83
:1004D30097CA09CB97CB199CD3C633C6CA33CACBA9
:1004E30033CB3350C9DDE7D5F0E1D3E4C636C608D4
:1004F300C636C608C636C608C636C61818188031AA
:10050300C3CA97CA09CB97CB199CB34097C633C6C6
:10051300CA33CACB33CB33DD34D5F02EC6A2E0C603
:1005230040C8CA27CA09CB37194A70BECB3CB4802E
:10053300B90808E63308E633601F181818D0E0FA44
:10054300D0E0FBD0E0FCD0E0FD22187D08CA27CA2A
:1005530009CB37CB193CD3808013F618E4B67F114F
:10056300F618B6FF0EF618C60470D2080876808017
:10057300CAF618F618F680C5001211FC604F121166
:10058300CF6012E7548066F61210447011121244C1
:10059300703B090909F4F618F618F618F62212103A
:1005A30083701512123A08080860EAE6447FF618C9
:1005B300768018E4F618F62212123A6016121244E4
:1005C3007012E4F608F608F608E65480F6090909FD
:1005D30018181822EAC0E0EBC0E0ECC0E0EDC0E080
:1005E300E687F0A4FBACF008E687F0A42CFCE43526
:1005F300F0FA1809E687F0A42C4B60027401CA359F
:10060300F0FCE433FB09E687F0D2F7A42CCB35F0FA
:10061300FC1908E687F0A42BCC35F0FBE433FD0886
:1006230019E687F0D2E7A42C4ACB35F0CD3400FC91
:1006330009E687F0D2E7A42DCC35F0FDE433FA09BF
:1006430018E687F0D2F7A42CCD35F0CA3400FC08A5
:10065300E687F0D2E7D2F7A42ACC35F07A7E20E7FA
:100663000B0ACB33CBCD33CDCC33CC33CB3350147C
:100673007004ED30E00ED2F1E4CD3DCDCC3CCC3B6B
:100683005005DA05C2F1EB547FC63308E63392F026
:10069300FBE73309E733C39A502D2B70190C0D4C2C
:1006A3004D70151806E608C333700D20F10AA2F049
:1006B30013F6E418800B4024E4F630F00276801839
:1006C300F618F618F68024D33B14501074FFA2F0EA
:1006D30013F6187680E418F618F6800FA2F013F6D6
:1006E30018E63303F618ECF618EDF6D0E0FDD0E08B
:1006F300FCD0E0FBD0E0FA22C0E074F2120ABCE5C1
:10070300A7FAE5A1FBEA5B541060081220D653A1B7
:10071300EF802AEAA2E0C0D0EBA2E092F012110E21
:10072300158182F05017906198E0FA901692E0C319
:100733009AA2D265D0335002EAF053A1FE7F0102A0
:100743000B73C0E074F2120ABC9061A4E0FA759BCB
:1007530000E5915A540860087591F7122118802A10
:10076300E5915A541060087591EF12211E801BEA1F
:10077300A2E0C0D0E591A2E092F012110E158182A1
:10078300F05007E0C2E0F012223E9061A3E0FAE5E8
:10079300E95A5404600E12221475E9FB906193E048
:1007A300A2E640F28097C0E074F2120ABC9061A501
:1007B300E0FAE5BF5A5404600653BFFB1222560207
:1007C3000740C3E498F8E499F91208068026C3E4C5
:1007D3009AFAE49BFBE920E7E9120806E498F8E4B7
:1007E30099F922C3E498F8E499F9120806E498F811
:1007F300E499F9C3E49AFAE49BFB22EB20E7CFE9FF
:1008030020E7E0B90010BB0008E88AF084F8AAF0FA
:1008130022E4FBC8FA22EB70227B10C833C8C93329
:10082300C9335007C39AC3DBF280069A50012ADB0F
:10083300EAC833F4C8C933F4C9FA2275F008E4C826
:1008430033C8C933C933C99AC99B5004C92AC93BA0
:10085300D5F0ECFBC833F4C8E4C9FA2212089F2090
:10086300F01430E72B74FFFCFBFA747F8022E4FC66
:10087300FBFA7480801AB48008BC00F2BB00EF80DE
:100883000F50EBF9E4C39AFAE49BFBE49CFCE49974
:10089300C6CC18C6CB18C6CA18C6F922E4C9C608FE
:1008A300CAC608CBC6D3330308CCC63392F0C3946D
:1008B3007F402E94184019C9B90704CACBCC2250E3
:1008C30025C309CA33CACB33CBCC33CC33D9F422B7
:1008D300F4600DC9CCC313CB13CBCA13CAD9F6CC5E
:1008E30022E4FCFBFA2214FCFBFA22080808EAC003
:1008F300E0EBC0E086F0E7A4FA180986F0E7A42A43
:10090300FA180986F0E7A42AFA180986F0E7A42A58
:10091300FA1986F0E7A4FBE5F02AFA190886F0E74E
:10092300A42BFBE5F03AFA190886F0E7A42BFBE5C4
:10093300F03AFA18180986F0E7A4C5F02BFBE43A5D
:10094300FA1908E7C5F0C6A426F6E5F03BFBE43A3E
:10095300FA1886F0E7A4F6E5F00826F6E43B08F675
:10096300E43A08F6D0E0FBD0E0FA22080808E630C3
:10097300E7111210C1120986080808C64480C61878
:10098300181822181818E9799EC608CAC608CBC6D3
:1009930008CCC6C370207996CACBCC7019798ECB9C
:1009A300CC70137986CC700EF9802ACA33CACB3344
:1009B300CBCC33CC331930E7F2CCCBCA33501470E1
:1009C30004EA30E00DE4CA3ACACB3BCBCC3CCC5072
:1009D3000209C3E913C6CC182313C6CB18C6CA1819
:1009E300C6F922E4CFC0E0E4CEC0E0E4CDC0E0E449
:1009F300CCC0E075F020C3E633F608E633F608E62C
:100A030033F608E633F6181818EC33FCED33FDEE35
:100A130033FEEF33FFC3EC9709ED9709EE9709EF28
:100A230097191919400FFFEC97FC09ED97FD09EE93
:100A330097FE191906D5F0BEECF709EDF709EEF7A5
:100A430009EFF7191919D0E0FCD0E0FDD0E0FED092
:100A5300E0FF222518C582C0E0E51934FFC583C035
:100A6300E0E518C3958224F8F8E4C5A885831985C1
:100A73008218C5A8E8CEF0A3E520F0A37808E6081D
:100A8300F0A3DEFAEFF0A3E58124FAF8E608F0A379
:100A9300E608F0A3E608F0A30808E608F0A3E608D2
:100AA300F0A315811581D0E0FED0E0F81581158102
:100AB3001581E8C0E0EEC0E022C0D02518C582C091
:100AC300E0E51934FFC583C0E0E518C3958224F33C
:100AD30010AF08858319858218800885831985825C
:100AE30018D2AFC8F0A3E9F0A3EAF0A3EBF0A3791F
:100AF30008E709F0A3D8FAECF0A3EDF0A3EEF0A316
:100B0300EFF0A3D0E0F0A3D0E0F0A3D0E0F0A3E5B2
:100B130020F0A3E5F0F0A322121225B90003020B83
:100B23005DE490030178C2791A8002F0A3D8FCD95E
:100B3300FA901CC2AA82AB8390008678D479018094
:100B430015E493A3AC82AD838A828B83F0A3AA823C
:100B5300AB838C828D83D8E9D9E77582017583C411
:100B63007403120F487582927583257400120F481F
:100B7300851983851882E0C0E0A3E0F9A3E0FAA316
:100B8300E0FBA37808E0F608A3DFFAE0FCA3E0FDAE
:100B9300A3E0FEA3E0FFA3E0C0E0A3E0C0E0A3E086
:100BA300F5D0A3E0F520A3E0A3F5F0E4C5A8858381
:100BB30019858218C5A8D082D083D0E0F8D0E0325E
:100BC3001211FC601C1211CF601712123A70071237
:100BD30012447001D322C0D01212447006D0D0B395
:100BE30022C32233D0D0501430E0F6C3E79608096D
:100BF300E7960809E7960809E796B32220E0D5E6C9
:100C0300970809E6970809E6970809E697B32212B9
:100C130011FC601B1211CF601612123A70071212E8
:100C230044600CB322C0D01212447005D0D022C34A
:100C33002233D0D0501330E0EBC3E7960809E79690
:100C43000809E7960809E7962220E0E4E6970809F1
:100C5300E6970809E6970809E69722D083D082EC45
:100C6300C0E0EDC0E0E493A3FCE493A3FDED4C608E
:100C73000D120CF0EC24FFFCED34FFFD80EFE49348
:100C8300A3FCE493A3FDED4C600D120E2DEC24FFA9
:100C9300FCED34FFFD80EFD0E0FDD0E0FCE493A356
:100CA300C0E0E493C0E022D083D082E9C0E0E493C3
:100CB300A3C386F0C5F095F0F908E493A386F0C5C5
:100CC300F095F0700BE493A3C3994005E904800207
:100CD300A3E475F002A42582F582E5F03583F5835C
:100CE300D0E0F9E493A3C0E0E493C0E022C0E0C302
:100CF300E49396087401939618400FE49366700882
:100D030008740193661870007019A3A3C3E4939643
:100D1300087401939618A3A3400DD0E0D0E0D0E06F
:100D2300020C9AA3A3A3A3A3A3D0E02285198385CE
:100D33001882E0A3FEE0A3F5207808E0A3F608DF1D
:100D4300FAE0A3FFE0A3C0E0E0A3C0E0E0A3C0E0BB
:100D5300E0A3C0E0E0A3C0E0E4C5A88582188583D2
:100D630019C5A8D083D082020F4ED083D082C5F09C
:100D7300E493A3C5F0C395F0F5F0E493A3C395F012
:100D83004005E5F0048001E475F002A42582F582B4
:100D9300E5F03583F583E493A3C0E0E493C0E02258
:100DA3007404800474028000CCC0E0EDC0E0E51858
:100DB300C39CCCAD1950011D10AF068C188D198042
:100DC300068C188D19D2AF120ECBD0E0FDD0E0FC0B
:100DD3002274028000CCC0E0EDC0E0E518C39CCCD7
:100DE300AD1950011D10AF068C188D1980068C1893
:100DF3008D19D2AF120EA9D0E0FDD0E0FC22121162
:100E0300FC60251211CF602012123A7003021244C3
:100E1300080808E76670101819E766700A1819E7DA
:100E23006670041819E76622F422C0E0C0F088F067
:100E3300E4936670080874019366187000A8F0A321
:100E4300A3700BD0F0D0E0D0E0D0E0020C9AA3A3C3
:100E5300D0F0D0E022D083D082CCC0E0E493A36072
:100E630006120F0B1470FAE493A3600612102E14EB
:100E730070FAD0E0FCE493A3C0E0E493C0E022C0A6
:100E8300E074F2120ABC1220167F01020B73C0E059
:100E930074F2120ABC12201C80EFC0E074F2120A32
:100EA300BC12202280E3CAC0E0E493A3C582CCC570
:100EB30082C583CDC583F0A3C582CCC582C583CD4E
:100EC300C583DAE5D0E0CA22CAC0E0E0A3C582CC7C
:100ED300C582C583CDC583F0A3C582CCC582C58336
:100EE300CDC583DAE6D0E0CA22700908080822607B
:100EF30016181818C6C333C608C633C608C633C681
:100F030008C633C6D5E0EA22C0E0E493A3D39C50DD
:100F130010E493A3C39C400AD0E0D0E0D0E0020EDB
:100F230075A3A3A3D0E022C5822518C582C5833546
:100F33001910AF07F5198582188007F519858218EE
:100F4300D2AFC58322C09FF59FE473D09F22D08385
:100F5300D082C09FE493C0E0740193C0E074029315
:100F6300F59F227404800A7403800674028002745D
:100F730001C0E0F404120F81D0E012120B222518F5
:100F8300F58210AF08F518400215198008F51840CE
:100F9300021519D2AF85198322BB0102E722C08251
:100FA300C08389828A83BB0003E08002E493D083F9
:100FB300D08222C0D0251810AF08F51850020519A9
:100FC3008008F51850020519D2AFD0D02260160858
:100FD3000808C6C313C618C613C618C613C618C650
:100FE30013C6D5E0EA22C3E0C696F608A3E0C69688
:100FF300F608A3E0C696F608A3E0C696F622C0E07C
:1010030074F2120ABCC2C0E5D1A2E4500312204C10
:101013007F01020B73251810AF08F518400215194C
:101023008008F51840021519D2AF22C0E0E493A35B
:101033006C7009D0E0D0E0D0E0020E75A3A3D0E03D
:1010430022181818E6084608700AE608C333700524
:10105300E633F4220822C3E7960809E7960809E76E
:10106300960809E796A2D265D03322E0667010088D
:10107300A3E066700A08A3E066700408A3E0662292
:10108300191919E7094709700AE709C3337005E716
:1010930033F4220922C3E09608A3E09608A3E0965E
:1010A30008A3E096A2D265D03322C3E096F008A34A
:1010B300E096F008A3E096F008A3E096F022181853
:1010C30018E4C396F608E496F608E496F608E49660
:1010D300F622E026F608A3E036F608A3E036F60883
:1010E300A3E036F622E026F008A3E036F008A3E0FA
:1010F30036F008A3E036F022E627F60809E637F6CD
:101103000809E637F60809E637F622C0E0E8C0E04A
:10111300E58124FCF8E6A2E7D0E0F8D0E022E65728
:10112300F60809E657F60809E657F60809E657F6FA
:1011330022E056F608A3E056F608A3E056F608A305
:10114300E056F622E647F60809E647F60809E647B9
:10115300F60809E647F622700422600D18C6C33369
:10116300C608C633C6D5E0F41822E056F008A3E05B
:1011730056F008A3E056F008A3E056F022C6F4C6E2
:1011830008C6F4C608C6F4C608C6F4C622C3E09669
:1011930008A3E09608A3E09608A3E09622C3E79687
:1011A3000809E7960809E7960809E7962275D0002B
:1011B30075814075180175190300020B1B600C083B
:1011C300C6C313C618C613C6D5E0F422E7094709F8
:1011D300C3134709336002E733F422E6F008A3E6BA
:1011E300F008A3E6F008A3E6F022E0F608A3E0F691
:1011F30008A3E0F608A3E0F622E6084608C3134670
:1012030008336002E633F422CAC0E0E6F0A308DA4A
:10121300FAD0E0FA22C5822518C582C5833519C5DF
:10122300832274F855C74401F5C77901222518F5BF
:1012330082E43519F58322E6C33318461846184667
:1012430022E7C33319471947194722120F51848ADA
:1012530001120F51A78A01120F51CF8A01120F51A8
:10126300E18A01120F51EB8A01120F516F8B0112A8
:101273000F51DE8B01120F51878C01120F518F8C8E
:1012830001120F51308D01120F51938D01120F5125
:10129300658E01120F51DC8E01120F51198F01124D
:1012A3000F51808F01120F51CD9001120F51E99010
:1012B30001120F51429101120F51DF9101120F518F
:1012C3002F9201120F51CA9201120F5177930112FB
:1012D3000F51B59301120F51259401120F517094C0
:1012E30001120F51A99401120F51D79501120F51F9
:1012F300119701120F51729701120F51BB970112EF
:101303000F51E39701120F51669801120F51E6989E
:1013130001120F51599901120F517E9901120F5168
:101323008F9901120F51059A01120F51A99A0112B7
:101333000F51EB9A01120F51719B01120F51989BA0
:1013430001120F51C09C01120F51D39C01120F5176
:101353002C9D01120F516D9D01120F51F59E01122B
:101363000F518BA001120F51BAA001120F514DA1C1
:1013730001120F51A6A101120F5192A201120F5196
:1013830095A401120F519FA401120F51A9A4011298
:101393000F51B3A401120F51BDA401120F51D7A4D1
:1013A30001120F51E1A401120F51EBA401120F51CD
:1013B300F5A401120F5116A501120F5164A50112D4
:1013C3000F516EA501120F5192A501120F51B6A52F
:1013D30001120F5115A601120F5160A601120F51F0
:1013E3007EA601120F51EEA601120F512BA7011277
:1013F3000F5172A701120F51DAA701120F514CA816
:1014030001120F5180A901120F51A3A901120F510B
:1014130066AA01120F518CAA01120F516CAB011273
:101423000F51CDAD01120F5134AF01120F51F7B06F
:1014330001120F5149B101120F512CB201120F5178
:1014430079B201120F51E4B201120F51EEB201123F
:101453000F510DB501120F5132B501120F5183B562
:1014630001120F5184B601120F51BCB601120F5174
:10147300FCB601120F515FB701120F5178B8011278
:101483000F51D8B801120F51BEB901120F51C4BB8D
:1014930001120F51E0BB01120F5185BD01120F5113
:1014A300CBBD01120F51A9BE01120F5113BF01127F
:1014B3000F5144BF01120F5180BF01120F510EC0D3
:1014C30001120F5111C001120F517DC001120F51B2
:1014D300C12A00120F51132B00120F514A2D001273
:1014E3000F51962D00120F51582E00120F51CF2E6F
:1014F30000120F51F72F00120F51343200120F5107
:10150300CB3200120F516B3900120F51F139001217
:101513000F516E3C00120F51523D00120F51F73D17
:1015230000120F51103F00120F51414000120F5192
:10153300344100120F51654400120F512846001226
:101543000F51884600120F513E4700120F51EB47CF
:1015530000120F51164800120F51A34800120F51E9
:10156300904900120F51644A00120F51024B0012AE
:101573000F512F4B00120F51514B00120F514A4D77
:1015830000120F51254E00120F51724E00120F51CF
:10159300D34E00120F51954F00120F51CA4F001234
:1015A3000F51185000120F51485000120F5186501E
:1015B30000120F51DE5000120F51E35000120F5171
:1015C3003E5100120F51665100120F518552001205
:1015D3000F51F15200120F515B5300120F51E4539C
:1015E30000120F51035600120F51E15600120F5112
:1015F300505800120F51E25900120F51725A001243
:101603000F51795B00120F51025C00120F51495CBC
:1016130000120F51C05D00120F51D45D00120F5123
:10162300EE5D00120F51095E00120F51155E00129C
:101633000F51335E00120F51EA5F00120F51236006
:1016430000120F51306000120F517F6000120F51D2
:10165300726100120F51B66100120F51396200120C
:101663000F513D6300120F51F96300120F5174655E
:1016730000120F514E6600120F51E56600120F5112
:10168300776700120F518E6700120F51B267001275
:101693000F51BC6700120F51C86700120F51E66764
:1016A30000120F512A6800120F517B6800120F516C
:1016B3009C6800120F51D96900120F51256A00125C
:1016C3000F511C6B00120F51446B00120F51A66B8C
:1016D30000120F511F6C00120F51306D00120F5189
:1016E300DC6D00120F51C96E00120F512D6F0012E5
:1016F3000F51C46F00120F51947000120F51C37039
:1017030000120F51227100120F51D07100120F51AC
:10171300F67100120F516E7200120F519372001284
:101723000F51B67200120F51F17200120F51CF74A4
:1017330000120F51BC7500120F51747600120F5135
:101743000B7800120F515F7800120F517E78001250
:101753000F51ED7800120F51617900120F51BA79D0
:1017630000120F51E07900120F511B7A00120F5132
:10177300477A00120F51927A00120F51EB7A00123E
:101783000F51677B00120F514B7C00120F51B87C35
:1017930000120F51E17C00120F51477D00120F51CF
:1017A3009C7D00120F51D67D00120F512B7E00122B
:1017B3000F51507E00120F51967E00120F51B37ECF
:1017C30000120F515D7F00120F5177DC03120F518E
:1017D300C2DC03120F513CC101120F5170C101123F
:1017E3000F5146C201120F511AC301120F5145C4C2
:1017F30001120F51C9C501120F5147C601120F51F2
:101803000EC701120F512FC801120F51A1C80112A7
:101813000F5103C901120F5151C901120F515BC975
:1018230001120F5199C901120F5102CA01120F512E
:10183300A1CA01120F511FCB01120F51D4CB0112B8
:101843000F5146CC01120F516CCC01120F519CCC9D
:1018530001120F51C9CC01120F516FCD01120F515B
:101863007FCD01120F51D2CD01120F51DECD0112E6
:101873000F51EACD01120F51F3CD01120F5154CE86
:1018830001120F51B4CE01120F5105CF01120F51A6
:1018930020CF01120F5150CF01120F5171CF0112FE
:1018A3000F517DCF01120F51BED001120F51DCD069
:1018B30001120F5145D101120F5158D101120F518D
:1018C3006FD101120F5102D201120F5101D3011234
:1018D3000F51FDD301120F517FD401120F5189D43F
:1018E30001120F51ECD401120F51FDD401120F510B
:1018F30040D501120F5187D501120F51BDD50112E9
:101903000F51F3D501120F5111D601120F5135D6D4
:1019130001120F5176D601120F5169D701120F51DF
:10192300AFD701120F51EAD701120F5149D8011253
:101933000F5171D801120F51AAD801120F51B8D803
:1019430001120F5119D901120F5156D901120F511A
:1019530098D901120F51C9D901120F51FDD90112A2
:101963000F5108DA01120F5126DA01120F51EEDA84
:1019730001120F51F8DA01120F5137DB01120F5127
:101983004DDB01120F51B7DB01120F51CBDB0112FB
:101993000F51C3DC01120F51D6DC01120F51EBDCE6
:1019A30001120F518BDD01120F51EFDD01120F51A7
:1019B300B2DE01120F51BDDE01120F51DCDF011245
:1019C3000F51F8DF01120F5150E001120F5187E060
:1019D30001120F51A1E001120F5115E101120F5134
:1019E300A6E101120F51EEE101120F5109E40112B8
:1019F3000F5173E401120F51DEE401120F5137E767
:101A030001120F5147E701120F514AE701120F511B
:101A130056E701120F516AE701120F5172E70112E3
:101A23000F51A7E701120F5155E801120F51C5E8F5
:101A330001120F5129E901120F51C2E901120F518D
:101A43005CEA01120F518AEA01120F511AEB0112DB
:101A53000F5126EB01120F5155EB01120F5177EB8A
:101A630001120F519EEB01120F5104EC01120F51A1
:101A73006EED01120F5171ED01120F51E8ED0112DC
:101A83000F51D4EE01120F51ACEF01120F5136F08A
:101A930001120F516BF101120F511DF201120F517F
:101AA30056F201120F5187F201120F5190F20112F7
:101AB3000F517CF301120F51F8F301120F5188F407
:101AC30001120F5152F501120F51D6F501120F51A8
:101AD3000CF601120F5155F601120F518C8B0312A4
:101AE3000F519E8B03120F51118C03120F51478C10
:101AF30003120F519E8C03120F51568E03120F5176
:101B03003A9003120F512D9303120F515B9303125B
:101B13000F517F9303120F51EE9303120F5122942F
:101B230003120F51928401120F519B9403120F5110
:101B3300DC9403120F51B79A03120F51108A01124A
:101B43000F51EA9A03120F51FB9A03120F51529B42
:101B530003120F51A59B03120F51029C03120F5145
:101B63004C9C03120F51379E03120F5194DB031247
:101B73000F5172B903120F5155BA03120F5158BACC
:101B830003120F5197BA03120F51F0BA03120F51F8
:101B93001BBB03120F51728801120F5121BB031299
:101BA3000F51F1BB03120F5170CF03120F518BCFA3
:101BB30003120F51D6CF03120F5120D003120F512E
:101BC300C3D003120F5148CC03120F518ECD031211
:101BD3000F51977F00120F51E7CD03120F5100CE23
:101BE30003120F5140CE03120F51EFCE03120F51C8
:101BF3001ECF03120F5143BC03120F51BEBC03127D
:101C03000F51C9BC03120F51EEBC03120F517AF7E7
:101C130002120F51C0F702120F5130F802120F5186
:101C230058F802120F511AF902120F5123F9021236
:101C33000F5179F902120F51A4F902120F5103FA4D
:101C430002120F51A2FA02120F51DEFA02120F51C1
:101C530038FB02120F518FFB02120F51BDFB021210
:101C63000F513CFC02120F5189FC02120F51C8FCA8
:101C730002120F51FCFC02120F510EFD02120F5102
:101C830020FD02120F513FFD02120F51FEFD021201
:101C93000F51D3FE01120F5163C803120F51C7C86E
:101CA30003120F51EBC803120F51F1C903120F5165
:101CB300D1B902120F51B9BA02120F51F5BA021279
:101CC3000F51A6BC02120F51E8BC02120F519CBE69
:101CD30002120F51E3BE02120F51C0BF02120F5185
:101CE3004BC002120F51E2C002120F5136C1021251
:101CF3000F5176C102120F5133C302120F51A1C407
:101D030002120F51B3C602120F51C1C602120F5174
:101D130025C702120F5179C702120F516ECA021260
:101D23000F51D4FF01120F51EAFF01120F513CABC7
:101D330003120F5154AB03120F51FCAB03120F519B
:101D43003DAC03120F515AAC03120F517DAC031279
:101D53000F51C4AC03120F51FDAC03120F5131AD3F
:101D630003120F51BFAE03120F51C9D703120F5104
:101D73003DD803120F5182D803120F5193D8031287
:101D83000F519DD803120F51BCD803120F5135D9EF
:101D930003120F516EE902120F51B7E902120F51EC
:101DA300B8EA02120F5145EB02120F518FEB0212E8
:101DB3000F51E0EB02120F51C5ED02120F51DBEE92
:101DC30002120F5116EF02120F5116F102120F51A8
:101DD30031F102120F5172F102120F51AEF10212E0
:101DE3000F5107F202120F5120F202120F513DF26E
:101DF30002120F51A1F202120F514CF402120F51B1
:101E03006EF402120F51A3F402120F51CBF402121B
:101E13000F51D8F402120F51DDF402120F5147F59E
:101E230002120F51FEF502120F5132F602120F5138
:101E33003CF602120F513FF602120F51A1F60212A5
:101E43000F51BEF602120F5126F702120F5161F71E
:101E530002120F5164F702120F51D5D603120F511C
:101E6300E6D603120F5177D703120F519B9F02122D
:101E73000F51C99F02120F5138A102120F51C6A16F
:101E830002120F5142A202120F51A5A202120F51C8
:101E9300E7A202120F515EA302120F5109A402120C
:101EA3000F518BA402120F51C7A402120F5183A822
:101EB30002120F5150AA02120F511AAB02120F5104
:101EC3003EAB02120F5129AD02120F519BAF02120A
:101ED3000F5128B002120F5139B102120F51A0B4A1
:101EE30002120F51B0B402120F511AB602120F515F
:101EF30095B602120F51AFB702120F512FB902124A
:101F03000F51B9DA02120F5178DB02120F51ECDBD9
:101F130002120F5170DC02120F51C7DC02120F5173
:101F2300C6DD02120F5123DE02120F5138E10212F5
:101F33000F51CAE102120F512FE202120F51CEE3E9
:101F430002120F5189E402120F51F5E402120F51EC
:101F530089E602120F5126E702120F5126E80212F8
:101F63000F5167DD03120F5169DD03120F5168CA68
:101F730003120F51B5CA03120F5164CB03120F5151
:101F8300CACB03120F517EC403120F51D7C40312DD
:101F93000F51F4D903120F5140DA03120F5127FEE8
:101FA30002120F5135FE02120F516EDD03120F5153
:101FB30012DB03120F5122DB03120F513ADB031220
:101FC3000F518BDB03120F51A5D403120F51CCD445
:101FD30003120F5155D503120F51BCD503120F51E4
:101FE300DD9E03120F51F17F00120F5102B603124F
:101FF3000F5110B603120F5190B603120F5157B77A
:1020030003120F510DB903120F51D8D003120F5100
:1020130013D103120F5137D103120F5195D103126C
:102023000F51F7D103120F511A9503120F519995BE
:1020330003120F51499603120F51CA9603120F51FF
:10204300DA9703120F517E9903120F51E799031286
:102053000F51559A03120F51639A03120F51729A3B
:1020630003120F51859A03120F519B9A03120F51BA
:10207300A49A03120F51009F03120F51519F031291
:102083000F5165A103120F519DA103120F51C2A15C
:1020930003120F51DBA103120F51F4A103120F51CD
:1020A300F5A203120F5184A303120F5148C6031262
:1020B3000F518BC603120F519CC603120F51CFC68B
:1020C30003120F5105C703120F513BC703120F51E0
:1020D300B4C703120F51F1C703120F51FDBE031210
:1020E3000F5125BF03120F5162BF03120F5174BF6B
:1020F30003120F5190BF03120F51F8BF03120F5178
:1021030001C003120F5162C003120F5186C00312A4
:102113000F514DC103120F515AC103120F516BC11D
:1021230003120F510BDC03120F5158DC03120F5132
:10213300DEAE03120F5139B003120F5146B0031232
:102143000F515CB003120F5179B003120F5190B0CD
:1021530003120F51A5B003120F5129B103120F51EE
:1021630008B203120F5151B203120F5161B203129D
:102173000F5159D903120F517ED903120F51A7D909
:1021830003120F51CFD903120F5199C103120F51EB
:10219300B2C103120F51BEC103120F51D2C10312B8
:1021A3000F51F6C103120F5102C203120F5111C294
:1021B30003120F5124C203120F5177C203120F519E
:1021C300B1C203120F51E1C203120F5130C3031204
:1021D3000F517EC303120F5196C303120F51A0C3B5
:1021E30003120F51B1C303120F51F6C303120F5160
:1021F3008E9E03120F519BF601120F51C7F6011267
:102203000F51E3F601120F51F6F601120F510CF7BD
:1022130001120F5176F701120F51A9F701120F5155
:102223000EFB01120F5137FC01120F5167FC011213
:102233000F51D0FC01120F51B4FD01120F51DCFDFF
:1022430001120F51F1FD01120F5101FE01120F5145
:1022530042FE01120F5197FE01120F51A7FE011208
:102263000F516ED303120F5189D303120F51B2D3FF
:1022730003120F51CCD303120F51F1D303120F5199
:1022830010D403120F5129D403120F5158D403123F
:102293000F5173D403120F51CCDC03120F5170B2E0
:1022A30003120F5177B203120F5184B303120F516C
:1022B300B6B303120F51DCB303120F510FB4031261
:1022C3000F5121B403120F515CB403120F51CCB45C
:1022D30003120F5109B503120F5156B503120F51D3
:1022E30084B503120F51A4B503120F5136D2031252
:1022F3000F5158D203120F516BD303120F51D5D57F
:1023030003120F5133D603120F5172D603120F511A
:10231300B3D603120F51008003120F510A80031228
:102323000F514D8003120F513E8203120F5124832C
:1023330003120F51668303120F51978303120F5138
:10234300248403120F51598603120F516889031213
:102353000F51558A03120F51D38A03120F51128B57
:1023630003120F51588B03120F51678B03120F5136
:10237300C3A303120F51E2A303120F512BA40312A1
:102383000F5147A403120F5178A403120F518FA4C6
:1023930003120F519CA403120F51B9A403120F513E
:1023A300A6A503120F51DDA503120F51E7A50312D2
:1023B3000F51F4A603120F51FFA603120F5111A7D9
:1023C30003120F511AA703120F5124A703120F511F
:1023D3008DA703120F5120AB03120F510CDD031213
:1023E3000F513BDD03120F5185DA03120F51AEDAA1
:1023F30003120F51B7CA02120F518FCF02120F519E
:10240300558401120F511A8401120F51F6830112E0
:102413000F51DB8301120F516B8301120F5199820C
:1024230001120F51FE8101120F518D8101120F51C3
:10243300E98801120F51D99A03120F516E810112CB
:102443000F515C8101120F514D8801120F510A88FF
:1024530001120F51709F02120F51529F02120F511E
:102463007E9E02120F51E29D02120F516E9C0212C8
:102473000F511A9A02120F51B59902120F516E960B
:1024830002120F51469602120F51EB9502120F5191
:10249300C89502120F51229502120F51CA940212CB
:1024A3000F51279302120F51249302120F513392AB
:1024B30002120F51139202120F51639102120F5124
:1024C300E58F02120F51AC8F02120F517D8F021252
:1024D3000F511A8701120F518A8601120F51D985A4
:1024E30001120F517A8F02120F516C8F02120F518A
:1024F300588F02120F51FF8401120F514B8F02129A
:102503000F51738E02120F51FF8D02120F51C58DA1
:1025130002120F516D8D02120F51C48801120F5117
:102523001EBB03120F51B38401120F513C8D0212D3
:102533000F516E8A02120F512C8A02120F51208AF8
:1025430002120F51938902120F51E18802120F51A7
:10255300808602120F51EA8302120F51B4830212D2
:102563000F51528202120F51018202120F513A810E
:1025730002120F510D8102120F51678002120F5187
:102583003A8002120F51008002120F515F94030030
:10259300000080FBC2C732E47387000100461D249C
:1025A300000200201D25000200221D260002002437
:1025B3001D27000200261D28000100281D290001F7
:1025C30000291D840004002A1D860001002E1D2AF7
:1025D3000001002F1D2B000100301D2C00010032D3
:1025E3001D2D000800E0112E000100331D2F0001F6
:1025F30000341D30000100351D31000100361D324D
:10260300000100E81133000100E911340001003733
:102613001D36000100EA1183000200441D62001010
:1026230000F31163000100031264000100DD116572
:10263300000100311D6D000100431D6E000200DE2C
:102643001143000100381D44000200391D450001FB
:10265300003B1D460002003C1D47000800EB1148EB
:102663000001003E1D490001003F1D4A00020040D9
:102673001D4B000100421D04000100471DA1000184
:1026830000491D37000100481D0000000000000044
:1026930001363601010001020100010301000104BA
:1026A30001060605020000070100340801000F09B6
:1026B3000401010D0100FF0E0800001702000019BC
:1026C3000100FF1A0100011B0100FE1C0100081D8F
:1026D3000200001F0100012001000121020000236C
:1026E30001000F2402000026010001270100082831
:1026F3000200FF2A0100072B0102402C0100002DDC
:102703000100012E0100012F0100FF30010B1C31DC
:102713000800003A0100083B01000F2F01000003ED
:102723000271023001600211027002010202020210
:10273300028002100261023A0041006302730272D6
:102743000262024302000213023800000200020484
:102753000212020002000200020002040204023715
:102763000037003C02440200023900000200026507
:102773000200023502810200020502820283020086
:102783000201017101010101011101010131010185
:102793000101018001100161013B00140063017319
:1027A300017201620143010001130106013D01357C
:1027B30000040112010001000100010001040104F1
:1027C30001330133013C01440132013600000100B1
:1027D30001650100013500810100010501820183CA
:1027E300010001010371030103010301030103015B
:1027F3000322030203010310030003000300030089
:102803000300030003000342030003240306030041
:1028130003000304031203250323032503230304F3
:102823000304030003000300034403000300032322
:10283300030003650321003503810300030503003F
:102843000300030003030471040204600411047011
:1028530004020402040104020410046104000414C9
:10286300046304730472046204430400041304063F
:10287300040004000404041204000400040004001F
:102883000451046400000400040004440400040030
:102893000400040004650400043504810464000595
:1028A300040004830400040300710030016000117C
:1028B300007000310220035004800010006100000A
:1028C30000140063007300720062004300000013F1
:1028D30000060000000000040012000000000000D9
:1028E30000000004000400370037003C02440000ED
:1028F30000000000000000650000003500810000BA
:1029030000050000008300000036000100060000FF
:10291300000F0000000000000000000000000003A2
:10292300FFFF00000403FFFF0000FFFF0FF401009F
:1029330005C4040320000100000B00000000000098
:10294300000003010F0000261F1300C01E01002614
:102953001F02008A1E0300901E0400961E05009CA1
:102963001E0600A81EFFFF0000010C1506421508F5
:102973003C150B5415109414021215053015071845
:10298300150CF4140D0015FF0000030003000400F0
:10299300080010001F003E007B00F600EC01D70387
:1029A300AF075D0FB91E713D000003EAF5E5D5D50C
:1029B300C5B5A595958585757565655555454535A4
:1029C300352525151505141944191A1920193E1909
:1029D30032192C194A1950195619621926190E1948
:1029E30008199C36063A703DD9404344AD47174B0E
:1029F300814EEA5100160F00000B150B0200022254
:102A03000F32000006000102030405060708090A45
:102A13000B0C0D0E0F041A161A1C1ADE18221AD8E4
:102A230018E4187C1A9A1AA01A821A8E1A881A188D
:102A33001812184E185418481800180C0E020B04DC
:102A43000B0A0708000F00034948424D18172505D4
:102A53000200011916181616152303003030171833
:102A63001921301B1D1F3000383C3E363B3B352BB4
:102A7300432C303016181920231A1C1E3038195CC9
:102A830019941A68196E19701A281A2E1A3A1A34D8
:102A93001A24182A181E185A180005150D091008AB
:102AA3000400BE040A301842180E00040015000189
:102AB3000309280C100A0900000504080F08C08246
:102AC300C083E99003CCF0E4900380F01222EC90F1
:102AD30003DFE4F0A3F09003CDF0A3F01217461246
:102AE30024481213F81222F2900342E4F0A3F09068
:102AF30003F3E07002A3E060099003F31260431252
:102B0300259A902ABFE493FA79021223B20252EA79
:102B130074F2120A56EAFEEBFF74805FF9E4700167
:102B2300E960619003CCE0F9121C3E8A088B09EA44
:102B33007001EB60467B0080010BEB75F003A4246E
:102B43006CF8E5F03429F988828983E493FA74FFF9
:102B53006A6021850882850983E06A70DCAA08AB74
:102B63000988828983A3E493C0E0740193F583D039
:102B73008212259AAA08AB09121C32EEFA74806FEE
:102B8300FB022D3C74105FF9E47001E9601D12151E
:102B9300D28A088B09EA7001EB600A121500AA08B1
:102BA300AB09121C32EEFA741080D4EE5420700379
:102BB300022C89750C00124F877001EB70107C0298
:102BC3007D007A207B009003CCE0F9121D4C7C0041
:102BD30079047A007B0012159C8A088B09800D7496
:102BE3000188828983F0850A08850B09E50870024C
:102BF300E509606D7C007904AA08AB0912159C8A6B
:102C03000A8B0B750C01E50824041277DF24FFF00F
:102C1300A3E034FF127C147002A3E070C9E508241A
:102C230009F8E5093400F9850882850983A3A3A37C
:102C3300A3A3A3A3A3A3A3E0640170A38508828530
:102C43000983A3A3A3A3A3A3E054047092740688E7
:102C5300828983F07AB7850882850983122E4D8095
:102C63008512156C7C0079017A007B0012159CEAB1
:102C73007001EB7009E50C70057A20122D3F74206A
:102C83006EFAEF022B83EE541060071214347410A3
:102C930080EEEE5440600712147C744080E2EE54E0
:102CA300806007121344748080D674015FF9E47066
:102CB30001E9601A9003F5E07002A3E06009900354
:102CC300F512604312259AEEFA7401022B827408FE
:102CD3005FF9E47001E9602D1214049011E8E064D7
:102CE30001701B9011E9E06015FC75F0E8A4CCAA13
:102CF300F075F003A42AFD7A007B08122EC6EEFAC3
:102D03007408022B8274025FF9E47001E9600A120D
:102D13001710EEFA7402022B8274045FF9E4700157
:102D2300E960121263CF125D3C7901123D48EEFA5D
:102D33007404022B827A007B000239DC7B0090034F
:102D4300CCE0F9121D522274F7120A5674E11210E4
:102D530018EAFEEBFFEE7001EF60338518828519E8
:102D630083AC82AD831215FC7406121230E0601E30
:102D73007417121230E0FD7401121230E0FCEEFA07
:102D8300EFFB790012245AE9600479A480027900E8
:102D930002522F74F6120A56EAFEEBFF8E828F83DD
:102DA300A3A3A3A3A3A3E0544060178E828F83122F
:102DB300604312654760067AFF7BFF8024122E4131
:102DC300801590036BE0A2E1500A7900122E4112A4
:102DD300140A800312162074FE6A700374FF6B607A
:102DE300458E828F8312604312656312169EE98EAD
:102DF300828F836006122E3AE48005122E3A740104
:102E0300F07CDC7D148E828F83125DEA1223ACE9A1
:102E1300F5087015EE7001EF60097901EEFAEFFB2A
:102E23001215780260397508CDAA088E828F831235
:102E33002E4DE960DF80ECE0240D12583A228E8299
:102E43008F8312675CFAA3E0FB22E0240C1252800A
:102E5300F91214E82274F6120A56E9FEEAFF7A0F11
:102E63007B00121C2CEA7001EB6019740C8A828BB4
:102E730083F0EEA3A3F0EF8A828B83A3F012623078
:102E830079008034EEF91215A28A088B09A808A9E3
:102E930009E87001E9601F740688828983A3A3A3EC
:102EA300A3A3A3A31275ADA3A3A3A3A3E0F9121431
:102EB3008EEEF912157E7910026059EAFCEBFD7A69
:102EC300017B009003CCE0F9121D462274EE120A36
:102ED30056EAFEEBFF8C088D09890E74121212302C
:102EE300E0F510A3E0F511851082F583E4F0A3F07B
:102EF300122FDFEE241DF8EF3400F9880C890D88BA
:102F030082122FEC601F850A82850B831232C570F3
:102F130014850A82850B831256BA85108285118324
:102F2300125D3C8003750E00850C82850D8312674C
:102F330058120D6D0109DA2F4F2F692F722F7D2F34
:102F4300DA2FA12FDA2FB12FCA2FD32F7810120F18
:102F53006EAC08AD09EEFAEFFB12141C7402120FEB
:102F6300B6E9F50E8071EEFAEFFB1214228068A920
:102F73000EEEFAEFFB1216CE80E7127C2464027089
:102F830056E50E7010850A82850B83126C19700347
:102F9300A3E0697042EEFAEFFB12166E8039127CE1
:102FA3002464027032EEFAEFFB1216568029900366
:102FB300F7E07002A3E0601FEEFAEFFB9003F71255
:102FC300604312259A8010EEFAEFFB1216DA80079F
:102FD300EEFAEFFB1216E6A90E024D33EE2409F8C2
:102FE300EF3400F9880A890B22F58312675CF91222
:102FF3001680E92274ED120A5674DE121018EAFEE6
:10300300EBFFEE24021259B5F91215A28A088B09B7
:10301300EA7001EB70030230E3EE240CF50CEF12BF
:10302300497CEA2409F50AEB1274AEEA2406F50E8C
:10303300EB1238E28E828F83A3AE82AF83E064F11A
:103043006017E064CD6012E0641A600DE064E9602B
:1030530008E064E16003023164850E82850F83A377
:10306300E05408F9E47001E970030230F074058557
:103073000A82850B83F09003FBE07002A3E06009F2
:103083009003FB12604312259A9003FDE07002A3A4
:10309300E0603490036BE0A2E1502C85088285093F
:1030A300831277F2A3A3A3A3A3A3A3A31252391258
:1030B3003900EA7001EB600F8E828F83E0F9900391
:1030C300FD12604312259A850A82850B83E0640210
:1030D30070037406F0851082851183E0F912157E62
:1030E30012156C7422120FB67F0B020D2F7900128A
:1030F3001578E9606C90036BE0A2E1505885088273
:10310300850983126FAF7002A3E060497403121242
:1031130030126F968E828F83E064E9701812322525
:10312300120F728E828F83E0F5127812120F7212D1
:103133004422120FB6740C121230125DEA12603D73
:103143001265637900740E1212301255E5740C1275
:1031530012301238F9850E82850F831255EF023033
:10316300788E828F83E0C0E07402121230D0E012B6
:1031730039301263241243FC127C2A851882851984
:1031830083AA82AB837005121374800312167A8E9E
:10319300828F83E064F16034E064CD602FE0641AD1
:1031A300602AE064E16025E064F06020740212129A
:1031B30030E0FC74B76C6014123225120F72ECF518
:1031C300127812120F72124422120FB690036BE0A0
:1031D300A2E140030230CA850A82850B83E06402C0
:1031E300702A850E82850F83E05404601F12603DB0
:1031F300126547701312603D74FFF0A3F0740585E8
:103203000A82850B830230D7740380F38E828F8307
:10321300E064E960030230CAAA08AB091216EC02A3
:1032230030CA850882850983126765751201781291
:103233002274F5120A568A088B09750A00EA2409D2
:103243001253C5FEE9FF8E828F831232C570037558
:103253000A018E828F83125C407003A3E06B7006B9
:10326300E50AD2E1F50AE5082402FEE5093400FF88
:10327300E50A60138E828F83E07006E50AD2E5804B
:1032830004E50AD2E6F50A12169EE964017006E522
:103293000AD2E0F50A8E828F83E06017E508241DC9
:1032A300F582E5093400122FEC64016006E50AC2D9
:1032B300E0F50AE50AA2E14004D2E7F50AA90A0209
:1032C3006B0812654B64022274E8120A5674DC120E
:1032D3001018EAFEEBFF74031212301263357514F3
:1032E300007515007405121230AC82AD838E828F87
:1032F30083A3A3A3126534125DEA1215FCEE241B0B
:103303001256B47412121230125D3C740B12123046
:10331300E06022741C121230E0FD7406121230E0D9
:10332300FC8E828F83A3A3125DEA790112245AE9EA
:1033330060030238D57405121230AA82AB831214CB
:10334300FAE9F508740B121230E0700E900368E08E
:103353006008E9A2E140030238D5EE2412F516EF26
:103363003400F517EE242A1274ABEE242C1238EA3B
:10337300123F09E0687003A3E069701C75090078C7
:1033830009120F727809120F72EE242E1238F112FD
:10339300390C124432120FB67408121230E0FA904C
:1033A300036EE06A60030238D5740B121230E070CA
:1033B3000302344E12390C1239008A0A8B0BA80A05
:1033C300A90BE87001E970030234F274061212309B
:1033D300123907FAA3E03400FB740D2AF582E43BAB
:1033E300F583E0FAE82404F50AE91274AEE824034D
:1033F300F582E9127C2A6A600DEAF0908147780C25
:103403001211ED123955790474061212301239076C
:10341300FCA3E034008C82F583A3AA82AB83121C45
:10342300208A0C8B0D8C0E8D0F850A82850B837879
:10343300101211ED7810790C1211A050030238D537
:10344300908143780C1210D5123955EE242412388A
:10345300DFEE2430F50CEF12497CEE242F1274AB0F
:1034630090036BE0A2E15003023589900380E0FAF8
:1034730074046A600874096A60030238D5E508A217
:10348300E5400302353812393CC0E07401121230B2
:10349300D0E012445CC0E07402121230D0E0F07449
:1034A30016121230E06401702074101212301239B7
:1034B300247003A3E0697011740E1212301232C526
:1034C30070077416121230E4F0850E82850F831292
:1034D3000DA37404121230AC82AD8374091212303E
:1034E300AA82AB8312137A7404120FB60238D590F2
:1034F30003C5E06401600302344E742212123012D9
:10350300675864067009E508A2E6500302344E7456
:1035130012121230E064FF7004A3E064FF70030230
:1035230038D5EEFCEFFD7405121230AA82AB83127C
:1035330015060238D5A2E640030238D574221212CA
:103543003012391C701C741C121230E064026003C8
:103553000238D57405121230AA82AB8312166E029A
:1035630038D574076A60030238D5741C121230E030
:10357300640460030238D57405121230AA82AB8347
:103583001216620238D57416121230E0601D8E8254
:103593008F83A3A312444E14125B4CA312444EC058
:1035A300E07416121230D0E0F07006E508C2E7F5B9
:1035B30008900380E0FA74046A600574096A706114
:1035C300740E121230125C407003A3E06B6017128A
:1035D300169EE96402600F740A121230E054036409
:1035E3000160030238D57407121230E0701B1239E0
:1035F3003CC0E07401121230D0E012445CC0E074AD
:1036030002121230D0E00234CB742212123012397B
:103613001C700302354974076A60030238D502350A
:103623006D75090074615508700302373DE508A202
:10363300E050708516828517831255E574051212C2
:1036430030AA82AB83121482E9705512162CE9F565
:10365300097416121230E0700F74101212301239FE
:10366300247003A3E069603BA9098516828517834B
:103673001255E57405121230AA82AB83121488E93D
:103683006013740E121230126BA0121230125D3CD2
:10369300751404800EE508C2E5F50875090080037A
:1036A30053089FE508A2E5503C12393CC0E0740181
:1036B300121230D0E012445CC0E07402121230D017
:1036C300E0F0850E82850F83120DA374041212306D
:1036D300AC82AD837409121230AA82AB8312137ABF
:1036E3007404120FB6E508A2E640030237FC740324
:1036F30012123085820A85830B780A120F6EA9098C
:103703008516828517831255E57407121230AA8233
:10371300AB831214EE7402120FB6E9F509700302BB
:1037230037FC7422121230126758640160030237A7
:10373300FC74104514F5140237FC7407121230E0C0
:103743006401703B74221212301267586405702FA3
:1037530074031212308582088583097808120F6E6C
:1037630079008516828517831255E5740712123086
:10377300AA82AB831214EE7402120FB60238D57408
:1037830016121230E07003023525121572E9600338
:103793000238D5740E121230126BA0121230125D61
:1037A3003C7809120F72741E121230AC82AD83740E
:1037B3000F121230125DEA740A121230E0F9121479
:1037C300B27401120FB6E9600F7514208E828F83D5
:1037D300A3A3126758543FF07900741012123012E9
:1037E30055E5740E1212301238F9E960067420455B
:1037F30014F51412162CE9F5097403121230E0645F
:10380300FE7004A3E064FF7003750900E508A2E7F6
:1038130040030238D5E50970030238D57403121248
:10382300301239247003A3E069700B741D12123037
:10383300E070030235258E828F83A3A3A3A3E0FA4E
:103843007B00121CA48A0A8B0BEA7001EB70030243
:1038530038D58E828F83A3A3E0F50CA3E0F50D7515
:103863000E00780C120F6A8E828F83A3A3A3A3E0AA
:10387300FC7D00124A4D120FB67407121230E08518
:103883001882851983F07401121230E4F0A31239FF
:103893003085820C85830D780C120F6E7814120F0D
:1038A3006EE509F5087808120F728E828F83A3A341
:1038B300A3A3E0F974081212301255E5AA0AAB0B60
:1038C3001215EA7405120FB6E96007AA0AAB0B12C8
:1038D3001CAA7424120FB67F10020D2FF50EEF34BD
:1038E30000F50F22EE240BF582EF12780622F58203
:1038F300EF1263F3F92212527C1214162212527C35
:1039030012177622126EFA2A22850A82850B8312F7
:1039130053DE8516828517832212675CFA74046A64
:10392300221256CC851682851783E0682212393419
:1039330022F085188285198322EE242E1263F085E6
:10394300188285198312394C22F0850A82850B83EC
:10395300E022850A82850B83E50CF0A3E50DF0A335
:10396300E50EF0A3E50FF02274F2120A56EAFEEB1D
:10397300FF8C088D09122FDF79008882F583125D91
:10398300EA1214A08A828B83E5827002E583603A8F
:10399300A3A3A3A3A3A3E05418602FE508241BF556
:1039A30082E5091238ED120DA7E5082412F582E528
:1039B300091238ED120DA7EE24181238F11239E16D
:1039C3001214BE7404120FB6800879001239E11282
:1039D300142E80057403120FB67F06020D2F850A7D
:1039E30082850B831253DEEE240B1252752274EE82
:1039F300120A5674EA1210188A0C8B0DEA2402F587
:103A03000EEB1238E20A0AFB1212608A088B09AE27
:103A130008AF09750901850C82850D83A3E0F508BC
:103A2300750A01AC0EAD0F851882851983AA82AB86
:103A3300831223107408121230126335740A12129F
:103A4300307402F07413121230E4F0E50C240AF51A
:103A53000CE50D12497C901CC4E07010EE7001EF70
:103A6300700AE50870067509C3023BC7900380E03E
:103A7300640860067509C2023BC3850C82850D8309
:103A8300E0A2E1500EA2E35005750A04800C750A0A
:103A9300038007A2E35003750A02EE7001EF60642E
:103AA3008E828F83A3A3A3A3E0FA74046A600574D0
:103AB300036A700C7404650A601C7403650A60165B
:103AC30074026A600574016A70207402650A6006F4
:103AD3007401650A700F8E828F8312473812123079
:103AE300125D3C801F74026A600574016A700A8E5D
:103AF300828F8312489912259AAA0EAB0F12126C69
:103B03007E007F007408121230E064FE7004A3E0AC
:103B130064FF703812244EE97032E5086017900391
:103B2300BDE06402700F901CCB124738121230E8CC
:103B3300F0A3E98016850C82850D83E05402F91207
:103B4300143A7408121230EAF0A3EBF0740812125C
:103B530030123C67700374FF6B70057509C7806092
:103B6300E508F50B780B120F72850C82850D83E047
:103B7300F9AC0EAD0F1213987401120FB6E9704031
:103B8300A90AAC0EAD0F7408121230123D418A100F
:103B93008B11AE10AF11EE7001EF601C740265085B
:103BA300700BEE2405127C2754FB4408F0740A12B0
:103BB3001230E4F0F50980087408121230126335EC
:103BC300E508700F851882851983AA82AB831223B7
:103BD3008E8010FCA90A851882851983AA82AB837B
:103BE30012165CE9FAEE7001EF603EEE2405F8EF81
:103BF3003400F9E508601288828983E0D2E6F07424
:103C03000265087004E0D2E5F0850C82850D83E03F
:103C1300A2E6500888828983E0D2E7F08E828F8300
:103C2300A3A3A3A3A3A3E004F0E5097003EA602F11
:103C3300FC7D007A017B101222F8EE7001EF600721
:103C4300AA0EAB0F12126C7408121230123C67707A
:103C53000374FF6B600990035A12604312259A7430
:103C630016024D3012527C74FE6A2274F6120A5602
:103C730074F71210188A088B09900380E0FA740312
:103C83006A600D74016A600874096A6003023D3E4C
:103C93008508828B83A3AE82AF83E06003023D235A
:103CA3007C007D007A027B001222F8E508240212D0
:103CB3004D38126A10125D3C795312238279001237
:103CC3003D48900380E06409600990037E125DEA39
:103CD30012177074011260767404900380F07401FB
:103CE300121230AA82AB83794A12237C7401121216
:103CF30030AC82AD837A767B031223107900740192
:103D0300121230AC82AD83900374123D4190036B69
:103D1300E0A2E35004D2F08002C2F012605E801889
:103D2300FC7D007A037B101222F88E828F83E0F9E8
:103D3300123D48E4900380F012154E026054125273
:103D43007C1224302290037E12527C12139222C0E2
:103D530082C083900342E07002A3E070419003802D
:103D6300E0120E58000301743D05833D06923DA108
:103D73003D90034AE07002A3E0607690034A806BB3
:103D8300900346E07002A3E06067900346805C9076
:103D93000348E07002A3E06058900348804D90030D
:103DA30042E07002A3E0600912444BFC74016C70A2
:103DB3002379009003CD800909EA126D23EB1238B1
:103DC300ED1250137001EB70EF9003CD125DEA1208
:103DD3001380801D74026C70051217048013900306
:103DE300F9E07002A3E060099003F9126043122521
:103DF3009A0252EA74F4120A5674FB1210188A08D3
:103E03008B097A0F7B00121C2C8A0A8B0BAE0AAF2C
:103E13000BEE7001EF7003023F0474028E828F83F6
:103E2300126B0E795012237C850882850983A38542
:103E33008208858309E06003023EED90037E1275DC
:103E4300A6700374FF69602F74FE68700374FF69C2
:103E53006025851882851983E0687003A3E0696093
:103E63001674EA8508828509831246107A7E7B03DD
:103E730079501223828073851882851983123F0932
:103E8300125D3C7A717B03795312237C9003711288
:103E93005D367A747B03794B12237C7A737B0379C7
:103EA300E112237C900385E0C3940F5022900373A7
:103EB300E0C0E07402121230D0E0F0740412123049
:103EC3007401F07402121230AA82AB831223A67516
:103ED3000A00780A120F72780A120F72901D4CE0D2
:103EE300F9124AF3124432120FB685088285098308
:103EF30012440EF07403900380F0EEFAEFFB1262AB
:103F03003074050253531256CC90037E2274F4127C
:103F13000A5674EB121018EA1253BFFAE9FB8A82AD
:103F23008B8378081211ED78081211809003817841
:103F33000812116D7F7F7E7F7C0075080175090073
:103F4300750A00750B00EC7808120EEC900381786B
:103F530008121134908147780812106E602A7D0090
:103F63009003CD801288828983A3A3E06C70010D36
:103F7300126D22E91238ED1250817001E970E6EDFD
:103F8300C39F5004EDFFECFE0CECC3941B40AB8AC3
:103F9300828B8378081211ED908147780812106E96
:103FA300604590038178081211DE8A828B8378083A
:103FB3001211ED85188285198378081211DE7404B5
:103FC3001212307401F0900387E0C0E074051212FE
:103FD30030D0E0F0740712123012412C805B1213C0
:103FE300BC90037E1265639003CD1250817001E98A
:103FF300602290037E12711CE06A7003A3E06B7071
:104003000A88828983A3A3E06E60D3126D22E9122A
:1040130038ED80D6EE900373F0121536E9601AE49A
:10402300900380F090034CE07002A3E0600B79C42E
:1040330090034C12604312259A741502535374F083
:10404300120A5674EB1210188A828B83A3A3A3A3BC
:10405300A3A3A3A3A31267617C00750C01750D00D4
:10406300750E00750F00EC780C120EEC850C0885AC
:104073000D09850E0A850F0B900381780812113400
:10408300908147780812106E6025901CCAE0C0E04A
:104093008C08EA2508F582EB127C2AFDD0E0C39D4B
:1040A300500D780C121180900381780C12116D0C55
:1040B300ECC3941B40A490038178081211ED908106
:1040C30047780812106E603985188285198378083D
:1040D3001211DE74041212307401F07407121230DC
:1040E3007401F0900387E0C0E07405121230D0E051
:1040F300F0740712123012412C7406900380F08082
:1041030023E4900380F0FCFD7A047B101222F890E4
:10411300034CE07002A3E0600B79C490034C12607F
:104123004312259A74150277C5E4126B1212239A6F
:104133002274EC120A5674ED1210188A828B83A330
:10414300124413EA24081253C5FEE9FF8518828539
:104153001983AC82AD838E828F8312443BA3A3A3C6
:10416300A3125DEA121560851882851983E07076C3
:104173008E828F83E0C3940B406C8508828509830C
:10418300A3A3A3A3A3A3A3A3E064027059900380F2
:10419300E0FAE5082410F510E5093400F511E50807
:1041A300240912497874026A604174066A603C907B
:1041B3000342E07002A3E0600712444B64016054C1
:1041C30074086A600574046A701C7402121230E089
:1041D300F97407121230AC82AD83850C82850D838E
:1041E300125DEA1215667413026E92900342E07038
:1041F30002A3E0701F750A00780A120F72780A1280
:104203000F72851082851183124405124D401244AA
:1042130032120FB69003CD1278599003CD126E8AE5
:10422300E508240DF50EE5091238E280318E828F00
:1042330083E0F8A3124405E0687003A3E0697012F9
:104243008E828F83A3A3E0FA850E82850F83E06AB3
:10425300606B8E0A8F0BEE126D23EF127856EE70A1
:1042630001EF70C97A187B00121CA48A128B13AE5B
:1042730012AF13EE7001EF70030241E97C18127A5A
:104283003D12632CEE240C1238EA74FFF0E5082487
:104293000B1277DF1243F3127C13C41243F3A3A36D
:1042A300F09003CDE07002A3E070059003CD800A87
:1042B300E50A126D23E50B1238ED127268740112D0
:1042C300123012441DA3F0740212123012441DF076
:1042D300850E82850F8312440EA312445C1243EAB7
:1042E300125B57240DFAEF3400FB7402121230E014
:1042F3006401600E7407121230AC82AD8312231076
:1043030080097C087D0079FF121C1A741212123086
:10431300E0C0E0EE24151238EAD0E0124453FC90DA
:104323001D4CE0C39C40030241E91243FC1238EDEB
:10433300A3E05480F9E47001E97009901127E0705B
:10434300030241E97D00EE240CF8EF3400F9EE247A
:104353000BFAEF3400FB9003BDE06402701D8A8208
:104363008B83E0F50AC39C500D7405121230E0C331
:104373009405401B801AE50A6C70157405121230FF
:10438300E0C0E088828983E0FCD0E0C39C50010D4B
:104393007404121230E06020ED601D8508828509E7
:1043A30083126B38ECF0A3ED1244538A828B83F0B3
:1043B30074051212301255F67406121230E0600DB5
:1043C30074018E828F83A3A3A3A3A3A3F074041207
:1043D3001230E070030241E974018E828F83A3A33C
:1043E300A3A3A3F00241E9F8A3E0F98E828F83220D
:1043F300540F8E828F83A3A322E508240BF582E555
:104403000922E0F9850C82850D8322124974A322C7
:10441300A3A3E0F508A3E0F50922124974802185DE
:104423000C82850D8312443B1253DA8A828B8312EA
:10443300527C121632740222E0F98A828B83800244
:10444300A3A3A3A3A3A3A32290034212584AE02247
:10445300F0851082851183E022F0850C82850D831F
:10446300E02274F6120A5674C9121018900380E001
:1044730064086062900391E0F824BAF582E434168C
:10448300F583E0FA900362F0E824BBF582E4341686
:10449300F583E0FB900360F07508FF7509FFEA7888
:1044A3000812115AE508F4FCE509F4FD3395E0FE22
:1044B3009003891246057508FF7509FFEBC39A78C7
:1044C3000812115AE508F4FCE509F4FD3395E0FE02
:1044D30090038D124605E412606C790412238290D6
:1044E3000391E07009741E12123074018006741E69
:1044F300121230E4F0740F851882851983F0901C32
:10450300C9126B0E79461223827401121230E4F041
:10451300901D2FE0C0E07402121230D0E0F090033F
:104523006EE0C0E07403121230D0E0F07404121293
:1045330030E4F07405121230E4F07407121230E420
:10454300F0900391E0FAC3940F74065006121230F0
:10455300EA8005121230740FF07C927D0374081206
:104563001230AA82AB831223107C037D0079FF747F
:1045730010121230AA82AB83121C1A9003CBE0C034
:10458300E07413121230D0E012616C121230126117
:104593005B12164A900385E0C0E0741C121230D0FF
:1045A300E0F0900386E0C0E0741D121230D0E0F01A
:1045B300900373E0C0E0741A121230D0E0F090035D
:1045C3007E1256BA7418121230125D3C7420121205
:1045D30030E4F0900388E0C0E0741F121230D0E0A2
:1045E300F07434121230E4F07429121230E41246DB
:1045F300107414121230AA82AB831223A0743702F0
:104603006056ECF0A3EDF0A3EEF0A3F022F07A7184
:104613007B03795312461B221223827A747B03791C
:104623004B12238222C082C0838A828B83A3E060E1
:1046330007E4900380F0804A7408900380F09003AD
:1046430091E0701F90034CE07002A3E0600B7900CF
:1046530090034C12604312259A90037E1255E57A1B
:1046630005801A790012138C9003711255E57A06AE
:104673007B001222F89003741255E57A047B001232
:1046830022F80252EA74F4120A5674EA121018EA73
:104693002402FEEB3400FF0A0AFB1212608A088B25
:1046A30009EA7001EB70030247338A828B83A3A369
:1046B300A3A3E0FA74016A600F74026A600A7403C8
:1046C3006A600574046A7068EEFCEFFD85188285E4
:1046D30019831266CE124738121230125D3C740AE7
:1046E3001212307401F07413121230126B0D122374
:1046F30094890AAC0A7D007A077B001222F88508A8
:1047030082850983A3A3A3A3A3E0C2E0F074018578
:104713000882850983A3A3A3A3A3A3A3A3A3F074DC
:1047230002850882850983A3A3A3A3A3A3A3A3F05C
:1047330074160253531256CC74082274F0120A569C
:1047430074F81210188A0C8B0D8C0A8D0B890E8548
:104753001882851983AC82AD837583817582217438
:1047630008120ECBF50FAC0CAD0D8518828519839D
:10477300AA82AB83126F287003750F019003CD805B
:1047830030AC0CAD0DEE240DFAEF3400127B6360F8
:104793001A850882850983E0650E700F8E828F83E8
:1047A300E0650A7004A3E0650B6036EE2416123848
:1047B300EA1250D77001EF6028EE2402F508EF34B7
:1047C30000F509E50F70BA8E828F83E0650A7004E5
:1047D300A3E0650B70D5850882850983E0650E70BB
:1047E300CAEEFAEFFB0277C374F7120A569003CDB1
:1047F300E0FAA3E0800CEA2416127853121CAAEE06
:10480300FAEFFBEA7001EB70ED9003CDE4F0A3F057
:1048130002523474F4120A568A088B09EA240BFEF6
:10482300EB3400FFEA2413F582EB127C2A64037055
:1048330009EEFAEFFB121260800CE0640270548EF2
:10484300828F831277EBEA7001EB6047EA2406F864
:10485300EB122FE4850882850983A3E07007E488BF
:10486300828983802D64F16005E064E1701A888297
:104873008983E0640170118A828B8312489912251F
:104883009AEEFAEFFB12126C850A82850B83E060C5
:104893000214F002535612527C90035A12604722BC
:1048A30074F1120A568A088B09ECFEEDFF890A8A15
:1048B300828B83126EBF8A828B83124973F0EEF868
:1048C300EFF9A30EAF838A828B83A3A3E0C454F0D2
:1048D300FA88828983E04A1249861249741249810F
:1048E300E0333354FCFA8E828F83E04A124981A36A
:1048F300E033333354F8FA8E828F83E04AF008EFC3
:10490300F9A30EAF838508828B83A3A3A3A3A3A3D9
:10491300E0A2E0E492E013135480FA88828983E0F2
:104923004AF0E5082407F50CEB12497C750E007874
:104933000C120F6A7C0812599E120FB6126EA9E56B
:1049430008240F124978780C120F6A7C0312599EBF
:10495300120FB6E50AC3940F4011E5082412F5823D
:10496300E5091238ED12440EA3A3F07F07020D2FC1
:10497300A3E00243EEF50CE5093400F50D221249DC
:1049830086A322F08508828B83A3A3A32274F1124A
:104993000A56EAFEEBFF890A8C088D098E828F8303
:1049A300E08C828D83125B4CAE82AF83E0125BF2AC
:1049B300124A5FC4125BF2124A53E054038C828D95
:1049C30083124A5DA2E2E492E08C828D83124A5CF8
:1049D300131313541F125BF2A3124A5CA2E7E4926F
:1049E300E08C828D83A3A3A3A3124A538E0C8F0D55
:1049F300750E00780C120F6A7C087D00E508240709
:104A0300124A47120FB6126EA98E0C8F0D780C1234
:104A13000F6A7C037D00E508240F124A47120FB684
:104A2300E5082412F8E5093400F9E50AC3940F40B8
:104A33000A8E828F83A3A3A3E08001E48882898303
:104A4300F002496EFAE5093400FB121C0E740322CE
:104A5300A3A3125B500EAF8322A3A3A3A3F0026D03
:104A6300D674F4120A5674F9121018EAFEEBFF908A
:104A73000342E07002A3E0601012444B6402700929
:104A8300EEFAEFFB1216FE806290037EE06E700377
:104A9300A3E06F705674016960097A927B03126F09
:104AA3002870487A007B02124F8B7001EB703C90A8
:104AB300038178081211ED8518828519837808120D
:104AC30011DE900387E0C0E07404121230D0E0F0EE
:104AD30074051212307401F074061212307402124B
:104AE3006B0E121332E96098121338740702535392
:104AF30090037E1253DE90037422E0F90252EA74AB
:104B0300F6120A569003DEE0701F7C0079017A00EA
:104B13007B0012159CEA7001EB600E8A828B83E0A6
:104B23007002A3E060031214E2026059C082C083E2
:104B3300124F6B401079FF121596E9FA902AB6E4EA
:104B430093C39A50047901800279000252EA74EE09
:104B5300120A568A088B09890D750E00EA2408F596
:104B63000AEB1255D8E0F91215A28A108B11AE1078
:104B7300AF11750C01EE7001EF6003024C0685085E
:104B830082850983A3A31255FDF9850882850983CC
:104B9300125DEA12158A8A0A8B0BAE0AAF0BEE700E
:104BA30001EF7003024D298E828F83A3A3A3A3E495
:104BB300F0A3F0E508240B124D38E0C0E01238E70B
:104BC300D0E0F01216AAEE240C12655C750E01EE0D
:104BD3002406F8EF124F7AE0547FF0A3E054FC125E
:104BE3004E2054046003024C98901D28125A6B7493
:104BF30007780812115A8A828B83E04508F0A3E0F4
:104C03004509F0EE2406F8EF1253C7FCE9FD8C8248
:104C13008D83125DEA74805AF50874035BF5097499
:104C23000778081211C0E508F510EE24041274ABDE
:104C3300EE2409F508EF3400F509E50D6060740210
:104C4300850882850983124A60240D125836E0A232
:104C5300E2500F90036C1256BA850A82850B8312B9
:104C63005D3CE5107003024CF6747F5AFA74FC5BEA
:104C7300FB74FF2510F51074FF3400F511740778E9
:104C83001012115AE5104AF8E5114BF98C828D8305
:104C9300125D3C805EE04480F0A3E0024C05E51029
:104CA3007005750C00804CEA54206015121C268A8E
:104CB30010747F5510F8745F28850A82850B8380F2
:104CC3001BEA5410600E121C268A10740F5510F83C
:104CD300740F80E4850A82850B837401F0A3E4F0EA
:104CE3007404850882850983124F827001EB700377
:104CF3001260167401650E7030850A82850B83126B
:104D03004D40E0F9EEFAEFFB121590E9601BEE243B
:104D13000C1238EA1250137001EB6003121CAAEE56
:104D2300FAEFFB121CAA750C00A90C8003120FB634
:104D33007F0A020D2FFAE50934000256DB1253DE17
:104D43008508828509832274F6120A5674F71210B5
:104D5300187E001215A2EA7001EB7003024E1B8A43
:104D6300828B83A3A3A3A3A3A3A3A3A3E06406604B
:104D730003024E1B8A828B83A3A3A3A3A3A3A3E053
:104D8300FF8A828B83125844E0C0E0740812123009
:104D9300D0E0124E20F8A3E0F58388821266481211
:104DA3005D3C1215C074085FF9E47001E960678522
:104DB30018828519831255E57A007B00121584EA5F
:104DC3007001EB705190037E1253CC1223BE7C0012
:104DD3007D007A007B0080288E828F831263D9E066
:104DE30064FF7004A3E064FF602C90037E1255E51A
:104DF30012207CE9641A601E7C007D00EEFAEFFB52
:104E03001215848A088B09AE08AF09EE7001EF70A2
:104E1300C779001223C47E01EEF90260541256D8FA
:104E2300E02274F7120A56EA7001EB70059003DF73
:104E330080068A828B83A3A31250137001EB602830
:104E43008A828B83A3A3A3A3A3A3A3E05408F9E4B7
:104E53007001E960DDEC7001ED60111267546C7054
:104E630003A3E06D70CC80047A007B00025234749B
:104E7300F2120A56EAFEEBFF890A8C088D097A0EB4
:104E83007B00121CA4EA7001EB603BE48A828B83F3
:104E9300A3A3A3A3A3A3A3A3124ECCE50A1252492F
:104EA3001263228A828B83A3A3A3A3E4F0124ECCC2
:104EB300A3A3F0127264EA240CF582EB127BFBA32A
:104EC3001256D2F0A3F00239DCA312524D0244462B
:104ED30074F5120A56EAFEEBFF890A8C088D09EE77
:104EE3007001EF60567401650A701479011215960A
:104EF300E9FA902ABEE493C39A500F79118066743D
:104F030004650A7030124F6B40F18E828F83A3A326
:104F1300A3A3A3A3A3A3A3E50A125B5E127D2FE4BD
:104F2300F0A3F09003DFE07002A3E09003DF6024BE
:104F33001256BA800A7402650A60CF79C18026E8E6
:104F430024020808E9124F7A1250817001E970EFC8
:104F53008A828B83EEF0A3EF124F827001EB700312
:104F63001260167900026B087904121596E9FA901B
:104F73002ABCE493C39A221253C7FAE90256DBF020
:104F8300124F87227A207B009003CCE0F9121D5840
:104F9300EA22C082C083E9FC79009003DF801D8A86
:104FA300828B83A3A3A3A3A3A3A3A3A3E06C600502
:104FB30074FF6C7001098A828B83A3A31250137050
:104FC30001EB70DB0252EA74F7120A56EA7001EB46
:104FD30070059003DF80068A828B83A3A31250138C
:104FE3007001EB60248A828B83A3A3A3A3A3A3A34F
:104FF300A3A3E06970E1EC60148A828B83E0240D43
:10500300126DD0A2E240D080047A007B00025234B9
:1050130012527CEA22C082C0839003DF80068A8218
:105023008B83A3A31250137001EB60128A828B83CC
:10503300A3A3A3A3A3A3A3A3E06970E280047A00BC
:105043007B000252EAC082C0839003DF800688821D
:105053008983A3A31250817001E9601B888289832D
:10506300E0FCA3E0F5838C82E06A7003A3E06B703D
:10507300DDE8FAE9FB80047A007B000252EA12566B
:10508300CCE82274F1120A568A0A8B0B8C0C8D0D14
:10509300750800750900EA7001EB60319003DF8049
:1050A300068E828F83A3A31250D77001EF601EACCC
:1050B3000CAD0DEEFAEFFB850A82850B8312259A60
:1050C300E9640170DCEEF8EFF988088909AA08ABF6
:1050D3000902496EE0FEA3E0FFEE227900020F4EC3
:1050E30074F7120A569003DF1256BA7C007D0080D3
:1050F30007E8FCE9FD1256BAE87001E9603AE824D2
:1051030002F582E91238EDEA687002EB6970E21287
:105113005DEA9003DF127859E86E7002E96F700957
:105123009003DFEAF0A3EB800EEAF8EBF98C828DB3
:1051330083A3A3E8F0A3E9F002523474F7120A56EA
:10514300EAFEEBFFEE7001EF60161215BA1252532E
:10515300EA7001EB6003121CAAEEFAEFFB121CAA21
:1051630002523474F7120A56126754FCA3E0FD90FE
:1051730003DF1256BA7508007E0080338882898364
:10518300A3A3A3A3A3A3A3A3A3E0640570180E88FA
:10519300828983E0FFA3E0F5838F82E06C7003A331
:1051A300E06D7002050888828983A3A31256BAE8CA
:1051B3007001E970C7EA2404F8EB3400F9902AB3CC
:1051C300E493FCE508C39C500B902AB4E493FCEEF3
:1051D300C39C400B888289837401F0A3E4800A9006
:1051E300036C125239ECF0A3EDF074058A828B83C1
:1051F300A3A3A3A3A3A3125246A3A3E0F0A3E04453
:1052030008124E20FAA3E0FB8A828B83E064FF70CE
:1052130004A3E064FF600E90037E1255E51223B8E9
:10522300E9641A700579011223C48005741F120FF3
:10523300B67F01020D2F1253DE80033400F98882FA
:10524300898322A3A3A312524D221256D8024446A5
:105253008E828F83E0241C125280FAA3E0FB121C7F
:10526300AA8E828F8312527C121CAAEE240C125235
:105273007522F582EF3400F583E0022E4812583E82
:10528300E022C082C083EAFCEBFDEC7001ED700408
:105293007905804CEC24FBF582ED34FFF583E07057
:1052A30002A3E07011EC24FFF8ED34FFF988828942
:1052B30083E064FF6005121C3280D59003CC125545
:1052C300F6902AB8E493F97AE17B03121C62E9644D
:1052D30001700B7A007B1012601A79008002790446
:1052E30080057402120FB6D083D082020F4E74F47D
:1052F300120A56A2AFE492E0F508C2AF9003E1129E
:1053030050D77001EF603DEE24FBF582EF34FFF5DB
:1053130083E07002A3E07A007B109003CC60051257
:10532300601D8005E0F9121C6E750A00750B00788C
:105333000A120F6EEEFCEFFD7AE17B03121C5C7424
:1053430002120FB6E508A2E092AFEEFAEFFB80037C
:10535300120FB67F04020D2F74F7120A5674E1126E
:105363001018EA2413F582EB127C2AC0E0741112A0
:105373001230D0E01256C574091212301256BE1202
:1053830053BFFCE9FD8C828D831256BA740B121243
:10539300301256BE2414F582EB127C2AC0E074123C
:1053A300121230D0E0F0EA240EF582EB1238F48CBE
:1053B300828D831253CC12148802522F2404125369
:1053C300C522F8EB3400F9E8221253DE85188285F2
:1053D3001983AA82AB8322A3A3A3A3E0FCA3E0FDCA
:1053E3002274EE120A5674FC121018EAFEEBFF1236
:1053F3001572E9600579110255D3EE2412F510EF09
:105403003400F511EE2402F50AEF1255D812654760
:105413006008E4851082851183F0EE24131259A7E6
:105423007003741EF0EE2411F8EF12652C701990BE
:1054330011DDE0600D900368E0700D8E828F83E0D4
:105443007006E488828983F0EE2414080808EF12BA
:1054530077E2700C90035D1255F690035DE004F063
:10546300EE240FF508EF3400F509EE240B1238DFB4
:1054730090036BE0A2E1504F850A82850B8312658E
:105483004760448E828F83E0600B850E82850F8395
:10549300122FEE6032850882850983E05440601A3A
:1054A300850C82850D83E06401700F850882850970
:1054B30083E054FBF0A3E0F0800DEEFAEFFB12154E
:1054C300D8E970030253F88E828F83E06401701A67
:1054D300850E82850F831267586402700D850882DA
:1054E300850983E04440F0A3E0F0850882850983C1
:1054F300E05440705790036BE0A2E1504F750C00ED
:10550300780C120F72EE2406FCEF3400FD850A823C
:10551300850B83125DEA851082851183E0F91214ED
:10552300B27401120FB6E9600CE485108285118311
:10553300F01255E9F079008E828F831255FDFAA39C
:10554300E0FB121416E960041255E9F08518828510
:105553001983AC82AD83EEFAEFFB1215F08A0C8B44
:105563000D850A82850B831255E5EA7001EB605CB9
:105573008E828F83E0C0E07401121230D0E0F074A9
:1055830002121230127268740112123085820A8577
:10559300830B780A120F6E850882850983120DA783
:1055A300EE240E127C27F5087808120F7274051288
:1055B3001230E0F91215EA7405120FB6E9FE741001
:1055C3006E700BAA0CAB0D121CAA80027E10EEF9B2
:1055D3007404024D303400F50B850A82F5832212E0
:1055E30078031253DE22850882850983E04420F084
:1055F300A3E022E088828983F0221253DA02394D34
:10560300C082C08374DE1210188A828B83A3A3A383
:10561300A31256BA740E121230E8F0A3E91256C55B
:10562300740C1212301256BE240DF582EB127C2A32
:10563300C0E0741A121230D0E0F0EA240BF582EBCA
:105643001256B774201212301256BE2415F582EB8F
:10565300127C2AC0E07408121230D0E0F0EA241C55
:10566300F582EB1256B77412121230125D3C74FFBE
:10567300851882851983F0740112123074FFF07457
:105683000212123074FFF0908147120DA3740412BA
:105693001230AC82AD837407121230AA82AB83122C
:1056A300137A7404120FB6790074220252E7EE24BF
:1056B3000BF582EF1278061256CC22E8F0A3E9F03C
:1056C300EA221256D21256CC22E0F8A3E0F92212B3
:1056D30056D8A3A322F08001FB8A828B832274EC29
:1056E300120A5674F01210188A128B13ECFEEDFF97
:1056F300890F7424121230E0F50C74251212301243
:1057030044157427121230126E8A750D107A1E7B9F
:1057130000121CA474021212301265637402121276
:1057230030E07002A3E0700302582F750E00EEFA0A
:10573300EFFB12125A8A828B83E5827002E5836043
:105743001CA3A3A3A3E0FA74016A600574036A703F
:105753000CE5085440700674044509F509740455B2
:1057630009F9E47001E96003750E01851882851952
:1057730083AA82AB837950125DE174021212301254
:105783005844A31265637402121230E0240B1258BA
:10579300367402F01212301258447402F0121230AE
:1057A300126043127268740212123012674DE50FD1
:1057B300F07402121230E0240C125836E50CF07427
:1057C30002121230E0241C125836E512F0A3E5133E
:1057D300F07408121230126324740A121230E50CAA
:1057E300F0850A82850B83C082C083740D12123048
:1057F300AC82AD83D083D0827403120ECBA90E7416
:1058030002121230AA82AB83121578E96401701177
:10581300E50E6008A90C1215A21215C6750D0080BD
:105823000B7402121230125DEA121CAAA90D741035
:10583300026E9212583A2212583E22F8A3E0025204
:105843003E12584AA3A32212604B02444474EA1244
:105853000A56EAFEEBFF8C088D098E828F83A3859F
:10586300820A85830B7408F0EE24161259A7600987
:105873007410850A82850B83F0EE24171259B560E4
:105883000A850A82850B83E02408F0EE2411F8EFE1
:105893001277E26005750E0E8003750E00EE240D7F
:1058A300F514EF3400F515850A82850B83E0851422
:1058B30082851583FAE02A250E8C828D83127C144F
:1058C3006013900369E0F9122454E9FA850882858C
:1058D3000983E02AF0850882850983E0FAC3947579
:1058E30040097508007509000259957B001271CAB9
:1058F3007001EB7003025995EEFAEFFB1215F6EA0D
:10590300850882850983126564EE2402F81263DF39
:105913001259CDF0EE240408081263DFA3A3125931
:10592300CDA3A3F0EE24131259C3F0EE241412599D
:10593300C3A3F07A08850C82850D83E0600FEE2403
:10594300181255E2E5082408126E807A1085108239
:10595300851183E0600FEE241A1255E28A0CE508E4
:10596300250C126E80EE240B127C27F510A3E0F5B4
:10597300117512007810120F6A851482851583E061
:10598300FC7D00125D24E50E28FAE4391259A312B6
:105993000FB6AA08AB097F0E020D2F7D00EEFAEFBA
:1059A300FB024A4DF50CEF3400F50D850C82F583AF
:1059B300E022F510EF3400F511851082F583E02223
:1059C3001278031259D7A3A3A322A3A31275A2A3E8
:1059D3001259D722E0850882850983A3A3A32274E1
:1059E300F6120A568A828B83E0FC90036E125A6B7E
:1059F3007402780812115AE5084CFCAD09EA241226
:105A0300125A657406780812115AE5084CFCE50928
:105A13004DFDEA2411125A657409780812115AE5EA
:105A2300094DFDEA2416125A65740B780812115AAF
:105A3300E5094DFDEA2417125A65740C7808121112
:105A43005AE5094DFD8A828B83A3A3A3A3A3A312C3
:105A53005A6B740A780812115AECFAE5094DFB02E5
:105A63006059F582EB127806E0F508750900227497
:105A7300F2120A568A088B09ECFEEDFFE98E828F3B
:105A830083F0125D75C0E0EE24111238EAD0E01203
:105A93005D70C0E0EE24121238EAD0E0125B4CA82D
:105AA30082A983125D426010E5082408FAE50934EF
:105AB30000FBEE2413125B6A8E828F83A3A3A3A33E
:105AC300A3A3A3A3E0601588828983E0FAE5082AEB
:105AD300FAE5093400FBEE2415125B6AEE24191271
:105AE3007BF8EE241B127BF8127C13F50AF50CE508
:105AF30008250CF8E5093400F9EE241DFAEF34000B
:105B0300FBEAFCEBFD8C828D83125B572417FAEFC3
:105B13003400FB8A088B098E828F83E0C3950A8A3F
:105B2300828B83125B5EA3A3E0601B8A828B83E07C
