:020000040800F2
:10000000F019002009010008550A0008570A0008E5
:10001000590A00085B0A00085D0A00080000000099
:100020000000000000000000000000005F0A00085F
:10003000610A000800000000630A0008650A000861
:100040002301000823010008230100082301000800
:100050002301000823010008690A000823010008A1
:1000600023010008230100082301000823010008E0
:10007000710A0008230100087D0A0008890A0008A7
:1000800023010008230100082301000823010008C0
:1000900023010008230100082301000823010008B0
:1000A00000000000230100082301000823010008CC
:1000B0002301000823010008230100082301000890
:1000C0002301000823010008230100082301000880
:1000D00023010008950A000823010008A10A00086E
:1000E000AD0A0008230100082301000823010008CD
:1000F00023010008DFF80CD00CF046F90048004757
:1001000025020008F01900200648804706480047ED
:10011000FEE7FEE7FEE7FEE7FEE7FEE7FEE7FEE7B7
:10012000FEE7FEE789790008F50000081CB501909C
:1001300001AC074801224FF6FF73214606F052FD3D
:1001400004482146012206F075FE019802B010BD58
:10015000E80400209C04002010B504460BF0E2FCEB
:10016000C2B203482146BDE8104006F063BE00BF9E
:10017000E804002001F088BC4FF47A71484301F094
:1001800083BC00BF2DE9F041A0B06F460D46064686
:100190008021904638460BF0BAFC0CA407E016F814
:1001A000012B384621460CF029F90337013D002D7B
:1001B000F5D16C46404621460BF0BBFC20460BF0C7
:1001C000B1FCC0B220B0BDE8F08100BF253032588C
:1001D0002000000010B502F0EDFD02F0DFFD454CFF
:1001E000606810F0020F1EBF206840F00800206019
:1001F000606810F0010F1EBF206840F0040020600E
:100200004FF4007002F040FD206840F004002060D0
:10021000206840F0080020604FF40070BDE81040F6
:1002200002F026BD80B501F0B1FB00F023F800F02C
:1002300067F800F05DF900F081F900F0F9F900F0DD
:10024000EDF806200021002202F0E0FD062002F079
:100250000BFE00F0ADFA0BF0DDF90BF0B1FB0A205C
:1002600001F012FCFFF7B6FF00200BF03FF807F09B
:1002700015FCFEE710B592B005AC1C2104F1080096
:100280000BF045FC684614210BF041FC1948012293
:10029000016862F3CC2101600B20069205901020CA
:1002A0000892CDE9090202200E904FF480300F90A1
:1002B0004FF4402010904FF480001190204601F040
:1002C000B7FC18B1EFF3108072B6FEE703200121EE
:1002D00001900F2000900020CDE9020004906846B4
:1002E00001F014FF18B1EFF3108072B6FEE712B000
:1002F00010BD00BF00700040EFF3108072B6FEE743
:100300002DE9F04F87B04FF00009BE48BC4D414E7B
:1003100001224FF00108CDE90599016841F004017F
:100320000160016801F0040101910199016841F047
:1003300020010160016801F020010191019901682B
:1003400041F001010160016801F001010191019991
:10035000016841F0020101601221006800F0020012
:10036000019001982846B04705F5806441F20401E8
:1003700000222046B04720464FF401410122B047F9
:100380004FF4881A02AE4FF40050234FCDF80CA062
:10039000029005F500603146CDF81090B8474FF057
:1003A000020B28463146CDF80C80CDF808B0CDE9D7
:1003B0000499B8471020CDF80C80314602900320F4
:1003C000CDF8109005902846B84702A8314680E83D
:1003D000000D2046B84748F20410CDF80C80314695
:1003E00002902046CDE90499B84711203146039088
:1003F0004FF4805002902046CDE90498B847282059
:100400000221002202F002FD282002F02DFD07B09B
:10041000BDE8F08F3B270008A52400087FB5114CEC
:1004200011480025242103952060201DCDE90155A8
:100430000BF06DFB01261020C4E90A65C4E90D0527
:100440002046E56300F056FB08B1FFF755FF05486D
:1004500001A9CDE90156039500F084FF08B1FFF72B
:100460004BFF7FBD980300200024014010B586B0EB
:10047000044601A814210BF04AFB2168114881426F
:100480001DD1114900F55C404A6842F400724A608F
:100490004A6802F400720092009A0A6842F001026F
:1004A0000A60096801F0010100910099032102919D
:1004B000012101910021039101A901F0F3FF06B090
:1004C00010BD00BF002401401C38024001680748ED
:1004D000814218BF7047554900F55C400A6822F414
:1004E00000720A60012102F0ADB800BF0024014093
:1004F000BCB589480F4C0022016841F08071016051
:100500000021006800F08070019001980C20A04745
:10051000094D0C20A8470E2000210022A0470E20E4
:10052000A8470F2000210022A0470F202946BDE840
:10053000BC4008470D2E0008692E000880B50D4804
:100540000D4A4FF482710023C0E900214FF400717D
:100550001822C0E90233C0E906120A21C0E90A31B3
:1005600002F08EFD002814BFBDE8804080BDFFF77B
:10057000C3BE00BFEC030020003001402DE9F04174
:1005800086B0054601A814210BF0C1FA1C4C29685D
:10059000A4F5504081422FD11A484FF0020801AD16
:1005A00003270526416841F480514160416801F408
:1005B000805100910099016841F0010101602946D4
:1005C000006800F0010000900098CDF80880A0209D
:1005D00001900020039020460497059601F062FFE9
:1005E0004020CDF80880294601900120CDE903077D
:1005F0002046059601F056FF06B0BDE8F08100BF29
:10060000000002401C38024001680748814218BFC0
:100610007047064900F550400A6822F480520A608B
:10062000E02102F00FB800BF003001402038024046
:1006300010B58AB02348244B0021FA221F24CDE9AB
:100640000811CDE90611CDE90411C0E90034C0E973
:100650000212C0E90411CDE90211CDE9001103F045
:100660004BFF08B1FFF748FE4FF4805006A90690F3
:10067000144805F0D5FF08B1FFF73EFE114804F01D
:100680004CFB08B1FFF738FE0E48002404A9CDE961
:10069000044406F02DF908B1FFF72EFE7D206946CF
:1006A0000C220190602000900648CDE9024405F03C
:1006B00007FD08B1FFF720FE024800F007F80AB076
:1006C00010BD00BF480400200004004010B586B0F3
:1006D000044601A814210BF01AFA21680D48814242
:1006E00015D10D4900F500300A6842F002020A6097
:1006F0000022096801F00201009100990221CDE970
:100700000111CDE90322059101A901F0CBFE06B04C
:1007100010BD00BF000400401C38024000680849BA
:10072000884218BF704781B00648016841F0020155
:100730000160006800F002000090009801B070476E
:10074000000400402438024000680549884218BF70
:1007500070470448016821F002010160704700BF42
:100760000004004024380240FEB502200021019020
:1007700005910290012001A9CDE90300024801F092
:1007800091FE06B080BD00BF0004024010B5074CCA
:100790000C21204604F0FAFA4FF4FA7001F074F9D3
:1007A00020460C21BDE8104004F03ABB480400206C
:1007B000B0B50E4C0C21204604F0E8FA0C4D4FF475
:1007C0009670A84720460C2104F02AFB4FF496703F
:1007D000A84720460C2104F0D9FA4FF49670A84798
:1007E00020460C21BDE8B04004F01ABB48040020AC
:1007F000891A000880B50C480C4A4FF4E1310023F7
:100800004FF00C0CC0E90021C0E90233C0E9043C00
:10081000C0E9063306F0AAF8002814BFBDE88040FE
:1008200080BDFFF769BD00BF9C0400200038014077
:1008300080B50C480C4A4FF4165100234FF00C0CB5
:10084000C0E90021C0E90233C0E9043CC0E9063335
:1008500006F08CF8002814BFBDE8804080BDFFF78B
:100860004BBD00BFE8040020004800402DE9F043E4
:1008700087B0044602A814210BF049F920685049BA
:10088000884256D04F49884240F096804E48002713
:10089000416841F480414160416801F48041019127
:1008A0000199016841F00101016002A9006800F0AE
:1008B000010001900198022003904FF4C060029063
:1008C00003200497059007200690404801F0EAFDB8
:1008D0004148404D4FF0800881461430C5E900077B
:1008E0002846C5E90278C5E90477C5E9067701F02D
:1008F00051FF08B1FFF700FD384E4FF48050102132
:10090000A563AC62C6E90091C6E90278C6E904773E
:10091000C6E90670304601F03DFF08B1FFF7ECFC78
:100920002520042100226663B46202F06FFA2520BC
:1009300040E0254E002702A9B06840F48020B06056
:10094000B06800F4802001900198306840F0020007
:100950003060306800F0020001900198022003909E
:100960004FF4406002900320049705900720069002
:10097000164800F5806001F095FD154D102006F534
:10098000205180224FF44053C5E900102846C5E9A4
:100990000272C5E90477C5E9067301F0FBFE08B1F0
:1009A000FFF7AAFC2720042100226563AC6202F055
:1009B0002DFA272002F058FA07B0BDE8F08300BFF7
:1009C00000480040003801401C380240000002404E
:1009D00070020020A000002044600240300100208E
:1009E00010B5044618492068884218D01749884233
:1009F00018BF10BD8F48016821F480410160144880
:100A00004FF4C06101F01EFEA06B01F0F7FE606BB9
:100A100001F0F4FE2520BDE8104002F033BA85480D
:100A2000416821F48021416009484FF4406100F59C
:100A3000806001F007FE606B01F0E0FE2720BDE85A
:100A4000104002F01FBA00BF0048004000380140CB
:100A500000000240FEE7FEE7FEE7FEE7FEE7704724
:100A60007047704700F0E6BF012001F087BE00BF6D
:100A7000014801F0FBBF00BF70020020014801F0F7
:100A8000F5BF00BF30010020014801F0EFBF00BFFB
:100A9000A0000020014806F077BD00BF9C040020A4
:100AA000014806F071BD00BFE80400204FF400507B
:100AB00001F064BE83B05F48416841F0004141608D
:100AC000416801F0004102910299016841F0010181
:100AD0000160016801F0010101910199416841F053
:100AE00080514160406800F080500090009803B051
:100AF000704700BF7CB50446002C00F09880E06C85
:100B000078B90020A06420654A48016841F00101DD
:100B10000160006800F00100019001982046FFF795
:100B2000A5FCE06C10F0100F40F08180E06C41F209
:100B30000211884340F00200E0643F4801686268A7
:100B400021F4403111430160E1686269E06BD4E94E
:100B5000083C114341EA4020616B184340EA4C00D5
:100B600010291EBF0843A16B084321680A6812F0D0
:100B7000400F1ED12269A368D4E906E52B43012A60
:100B800040EA0E0043F4807508BF2B46B2F5807F23
:100B900008BF2B46E56A012D14D1BCF1000F0AD025
:100BA000E66C46F02006E664266D46F001062665F2
:100BB00008E022690BE0256B204E06EB45363343F7
:100BC00043F400634E681E4D2E4033434B608B68E8
:100BD0001C4DB2F5807F03EA050343EA00038B60F6
:100BE00003D10A6B22F0F87304E00B6B012A23F0A7
:100BF000F87304D1A26A144D05EB025213430B6340
:100C0000124A89681140814207D1002001222065E3
:100C1000E16C62F30101E1640AE0E06C20F0120093
:100C200040F01000E064206D40F0010020650120DC
:100C300002B070BD203802400427014000E0FFFFF1
:100C4000FF16FCFC8DF1FFC00000F0FFFEFF80BF2F
:100C5000704700BFB0B50446002C64D0E06C40F093
:100C60000200E064204600F06BF80546002D57D1E5
:100C700020686FF01F012D4A0160416811402C4A25
:100C800041608168114081602A4800BF00F5001171
:100C90002068C268114040F6FF72C160016901F02E
:100CA00040410161416901F04041416181699143E5
:100CB000214A8161C1696FF30B01C161016A6FF360
:100CC0000B010162416A6FF30B014162816A6FF3AC
:100CD0000B018162C16A6FF30B01C162016B1140AC
:100CE0000163416B01F040414163816B01F0404180
:100CF0008163C16B01F04041C163016C01F040416F
:100D00000164416C6FF3150141640C48016821F4E2
:100D1000000101602046FFF7D9FB00202065E06458
:100D20000020A06400E001252846B0BD00003CF88A
:100D30008CF080800000C0FF00800FFE042701407F
:100D4000B0B504462068016811F0400F1FD08168DB
:100D500021F00101816000F075FE05462068006801
:100D600010F0400F13D000F06DFE401B0328F5D3A8
:100D70002068006810F0400FF0D0E06C40F01000E8
:100D8000E064206D40F0010020650120B0BD00202E
:100D9000B0BD704710B50446A06C012804BF022006
:100DA00010BD0120A064204600F02CF818BB21687B
:100DB000E06C40F20172904340F48070E064486857
:100DC00010F4806F04D0E06C012262F30D30E06417
:100DD000E26C002012F4805F4FF000021CBF226D15
:100DE00022F00602A06422656FF022020A608A687F
:100DF00012F0405F00D010BD886840F080408860ED
:100E0000002010BDBCB504460020019021680A688E
:100E100012F0400F30D1886840F001008860174818
:100E200017490068B0FBF1F000EB400001E00198C9
:100E30000138019001980028F9D100F003FE054621
:100E40002068006810F0400F15D100F0FBFD401B3A
:100E50000328F5D32068006810F0400FF0D1E06C53
:100E600040F01000E0640020A064206D40F001001C
:100E70002065012000E0002002B0B0BD98000020F5
:100E800040420F0010B50446A06C012804BF0220A8
:100E900010BD0120A0642046FFF752FF30B9E16C7D
:100EA00041F20112914341F00101E1640021A1648A
:100EB00010BDF8B504460D462068816811F4806FB6
:100EC00003D0806810F4807F42D100F0BBFD06465D
:100ED0006F1C2068016811F0020F14D1002FF8D0A8
:100EE0002DB100F0AFFD801BA842F2D92068006848
:100EF00010F0020FEDD10020A064E06C40F004007F
:100F0000E06403202BE0A16911B96FF012010160C8
:100F1000E16C41F40071E164816811F0405F15D12A
:100F2000616A99B9016B11F0F87F03D0806810F401
:100F3000806F0BD1E06C20F48070E064E06C10F402
:100F4000805F02BFE06C40F00100E064002006E03A
:100F50000020A064E06C40F02000E064012001B0BB
:100F6000F0BD2DE9F04116460D46044600F06AFD3D
:100F70008046771C206801682940A94216D0002FBE
:100F8000F8D036B100F05EFDA0EB0800B042F1D918
:100F9000206800682840A842ECD00020A064E06CE3
:100FA00040F00400E0640320BDE8F0812146012DFB
:100FB00051F84C2F04D142F480326FF0010309E064
:100FC00042F480616FF02003E16454F8501F41F057
:100FD000020221460A6003600020BDE8F08100BFE4
:100FE00010B50446A06C012804BF022010BD0120EA
:100FF000A0642046FFF706FF38BB2168E06C40F292
:101000000172904340F48070E064486810F4806F8F
:1010100004D0E06C012262F30D30E064E26C002049
:101020000D4B12F4805F4FF000021CBF226D22F0C6
:101030000602A06422656FF022020A604A681A4321
:101040004A608A6812F0405F00D010BD886840F0A6
:1010500080408860002010BD2000000410B50446C8
:10106000A06C012804BF022010BD0120A06420460E
:10107000FFF766FE58B921684A6822F020024A60EC
:1010800041F20112E16C914341F00101E164002160
:10109000A16410BDF8B5044615460E46A06C0128A3
:1010A00001D1022745E00120A0642046FFF7AAFEF7
:1010B0000746F7BB2168E06C40F20172904340F4B0
:1010C0008070E064486810F4806F04D0E06C012206
:1010D00062F30D30E064E06C0027DFF85CC0174B72
:1010E000174A10F4805F4FF000001CBF206D20F005
:1010F0000600A7642065606CC0E90B3C42636FF09A
:1011000022022B460A604A6842F080624A608A687E
:1011100042F480728A605831324601F0D1FB206877
:10112000816811F0405F04D18168002741F080415F
:101130008160384601B0F0BDA911000845110008D2
:10114000AF1100080146886AC26C12F0500F03D03C
:10115000406C426B084610470168C26C42F4007252
:10116000C2648A6812F0405F1CD1426A002A18BF2C
:1011700000F0F4B80A6B12F0F87F03D08A6812F41A
:10118000806F0FD14A6822F020024A60C16C21F4BE
:101190008071C164C16C11F4805F02BFC16C41F009
:1011A0000101C16400F0DAB8806A00F0DAB8806A40
:1011B000C16C41F04001C164016D41F00401016561
:1011C00000F0CEB8B0B50446A06C012801D10225CC
:1011D0001FE00120A0642046FFF7B2FD0546B5B927
:1011E0002168886820F480708860606C426A022AF6
:1011F00002D101F096FB2168E06C41F201129043AC
:1012000040F00100E064486820F080604860002001
:10121000A0642846B0BD0068806D7047B0B5044634
:101220002068416811F0200F30D0016811F0020FE2
:101230002CD0E16C11F0100F02BFE16C41F4007191
:10124000E164816811F0405F19D1616AB9B9016B3D
:1012500011F0F87F03D0816811F4806F0FD14168DD
:1012600021F020014160E06C20F48070E064E06CCB
:1012700010F4805F02BFE06C40F00100E0642046A3
:1012800000F06CF820686FF012010160416811F005
:10129000800F16D0016811F0040F12D0E16C11F02C
:1012A000100F02BFE16C41F40051E164816811F458
:1012B000401F2FD0204600F07EFA20686FF00C010E
:1012C0000160416811F0400F0ED0016811F0010F6C
:1012D0000AD0E06C40F48030E064204600F03FF833
:1012E00020686FF001010160416811F0806F10D03B
:1012F000016811F0200F08BFB0BD216D6FF020050F
:1013000041F0020121650560204600F029F82068BF
:101310000560B0BD416C11F4401F03D0816811F429
:10132000806FC7D1416811F4806FC3D1816811F01B
:10133000405FBFD1616A0029BCD1416821F08001C2
:101340004160E06C20F48050E064E06C10F4807F39
:1013500002BFE06C40F00100E064ABE7704770470B
:101360007047704778B500220092826C012A01D143
:1013700002218AE0012282644B68062B06D8D0F84D
:1013800000C06FF0040E0CF140061DE00C2B06D8D7
:10139000D0F800C06FF0220E0CF13C0614E0122BC6
:1013A00006D8D0F800C06FF0400E0CF138060BE004
:1013B000D0F800C0182B87BF0CF130066FF07C0E00
:1013C0000CF134066FF05E0E03EB830332680C6899
:1013D0001F2573449C4005FA03F39A43224332606D
:1013E0000B68092B0DD8DCF8145003EB43020726D9
:1013F0008968964025EA060691403143CCF81410DE
:1014000023E0132B0ED803EB4306DCF81020896889
:1014100007251E3EB14005FA06F6B2431143CCF84B
:10142000101012E01A2B0ED803EB4306DCF80C2048
:10143000896807253C3EB14005FA06F6B2431143E0
:10144000CCF80C1001E000BF0B6823F0010110295B
:1014500019D10F490A6812F4000F14D10A68102B31
:1014600042F400020A600ED10A490B4A0968B1FB36
:10147000F2F101EB8101490001E00099013900918D
:1014800000990029F9D100218164084601B070BD9E
:10149000042701409800002040420F00826C012A7E
:1014A00001D1022120E010B50368D1F808C00F4C2B
:1014B000D3F804E0BCF1010F2EF0400208BF4EF05B
:1014C00040025A605A6822405A60D1E900C45A6802
:1014D00044EA0C0422435A60CA689A620969D962D4
:1014E00000218164BDE8104008467047E0FD3FFFE1
:1014F000C06C7047006D704710B50446A06C0128A1
:1015000004BF022010BD0120A0642046FFF77AFC32
:10151000B0B9E06C43F201016FF00402884340F47B
:101520008050E064E06C10F4807F04BF00202065F0
:101530000020A06421680A608A6812F4401F00D06D
:1015400010BD486810F4806F02BF886840F48000C6
:101550008860002010BD10B50446A06C012804BFAF
:10156000022010BD0120A064E06C10F4807F10D137
:101570002068406810F4806F0BD12046FFF7E0FB35
:1015800060B9E06C41F20111884340F00101002094
:1015900003E0E06C40F020010120E1640021A1643F
:1015A00010BD00BF2DE9F8430D46814600F04AFA10
:1015B0008046D9F80000416C11F4401F0FD0D9F8D3
:1015C0001410B1F5806F0AD14149424B0968C1F34B
:1015D000014142691A4217D04FF4C6721FE06F1CD6
:1015E000016811F0040F2BD1002FF9D03DB100F0AC
:1015F00029FAA0EB0801D9F80000A942F0D9016846
:1016000011F0040FECD157E007694FF4C6721F4286
:1016100005D1C068A3F11253184208BF242202FA70
:1016200001F71C266C1C09E03CB1002D44D000F0F1
:1016300009FAA0EB0800A8423ED80136BE42F3D317
:10164000D9F81810D9F8000011B96FF00C01016039
:10165000D9F84C1041F40051C9F84C10816811F4CC
:10166000401F03D0002001B0BDE8F083416C11F4AD
:10167000401F03D0816811F4806FF3D1416811F4E9
:10168000806FEFD1806810F0405FEBD1D9F8240073
:101690000028E7D1D9F84C0020F48050C9F84C005C
:1016A000D9F84C0010F4807F02BFD9F84C0040F00C
:1016B0000100C9F84C00D5E70020C9F84800D9F866
:1016C0004C0040F00400C9F84C000320CBE700BFF9
:1016D000042701402449922410B50446A06C012837
:1016E00004BF022010BD0120A0642046FFF78AFB42
:1016F000D0B9E06C43F201016FF00402884340F47A
:101700008050E064E06C10F4807F04BF002020650E
:101710000020A06421680A604A6842F080024A60A2
:101720008A6812F4401F00D010BD486810F4806F22
:1017300002BF886840F480008860002010BD10B5AA
:101740000446A06C012804BF022010BD0120A06443
:10175000E06C10F4807F15D12068406810F4806F31
:1017600010D12046FFF7ECFA88B92068416821F0D3
:101770008001416041F20111E06C884340F00101B9
:10178000002003E0E06C40F020010120E164002132
:10179000A16410BD022907D0032908D000680429DC
:1017A00014BF4830543004E000684C3001E0006859
:1017B0005030006870477047F8B500220092826C84
:1017C000012A02D14FF0020CD6E0012282640369A3
:1017D0004A68E3B1D1F810C005681F23B2EB0C02D0
:1017E00002EB820202F10F0203FA02F46B6C23EAAD
:1017F000040323F4401408D80B6803FA02F2604B88
:1018000003EB0C53234343EA02046C6409E0012A0E
:101810003FD105686A6C0C686FF3150242EAC43266
:101820006A644FF0000CCA69AB6823F47C14102A78
:101830001EBF44EA02030C6A1C43AC602B6813F021
:10184000400F34D1AE465EF8043F23F4A053CEF8E7
:1018500000308C69012C11D1102A73464FF02007FB
:1018600018BF00F14C031E6808BF4FF48067102AB0
:1018700046EA07061E6018BF4FF0010C4A69012AAC
:1018800015D174B1C26C4FF0010C42F02002C26459
:101890000DE00568C26C4FF0010C42F02002C264FA
:1018A000C1E7DEF8002042F48052CEF800200A683A
:1018B000092A0CD802EB420207236F69934027EAFA
:1018C00003038F6807FA02F21A436A6120E0132AC1
:1018D0000DD802EB42022B698F6807261E3A97400B
:1018E00006FA02F223EA02023A432A6110E01A2AB7
:1018F0000DD802EB4202EB688F6807263C3A97400E
:1019000006FA02F223EA02023A43EA6000E000BF6C
:101910004A68032A07D0022A08D0012A026814BFA5
:101920002432183204E00268203201E002681C32DE
:10193000136840F6FF77BB43CF683B4313600968E9
:1019400021F00102102A15D10E4A1029136843F420
:10195000000313600ED1B2490B4A0968B1FBF2F1E2
:1019600001EB8101490001E00099013900910099E2
:101970000029F9D100218164604601B0F0BD00BFAB
:101980000000F0FF0427014040420F0080B50B48E3
:10199000016841F004010160016841F00201016049
:1019A000032001F023FA002000F00AF808B101201A
:1019B00080BDFFF77FF8002080BD00BF003C0240E3
:1019C00070B50F4E04467068B0B14FF47A71B1FB38
:1019D000F0F00C490968B1FBF0F001F079FA01254B
:1019E0000F2C0AD848B94FF0FF30214600220025BD
:1019F00001F00CFA346000E00125284670BD00BFFC
:101A00000C00002098000020704700BF80B50748F8
:101A10004FF0FF31002281608260416042600160CE
:101A2000026000F005F8002080BD00BF10380240C1
:101A3000704700BF02484168826811448160704766
:101A40000C00002001488068704700BF0C00002097
:101A500001480068704700BF0C000020B0B5064C7C
:101A60006568854206D060602068FFF7A9FF08B16D
:101A70006560B0BD0020B0BD0C000020014840688A
:101A8000704700BF0C000020B0B50446FFF7DAFF36
:101A900005460548611C406818BF0444FFF7D2FFA3
:101AA000401BA042FAD3B0BD0C00002002480168E0
:101AB00021F002010160704710E000E00248016877
:101AC00041F002010160704710E000E000487047FB
:101AD0000004040101480068000C7047002004E085
:101AE000024800686FF31F30704700BF002004E019
:101AF00001480068704700BF5000F81F01480068A7
:101B0000704700BF5400F81F01480068704700BFCD
:101B10006400F81F0248016841F00101016070474C
:101B2000042004E00248016821F0010101607047CF
:101B3000042004E00248016841F00201016070479E
:101B4000042004E00248016821F0020101607047AE
:101B5000042004E00248016841F00401016070477C
:101B6000042004E00248016821F00401016070478C
:101B7000042004E070B5294D686820F0FF2040F48F
:101B800030406860286840F480702860FFF75AFF92
:101B90000446286810F4007F05D1FFF753FF001BAF
:101BA0000228F6D90EE0A86841F2883620F003003A
:101BB000A860A86810F00C0F06D0FFF743FF001BC9
:101BC000B042F6D9032070BD154816490160164889
:101BD0000068FFF7F5FE00B170BD286813490840A2
:101BE0002860286820F480202860FFF72BFF044637
:101BF000286810F0007F05D0FFF724FF001B0228A3
:101C0000F6D9DFE700204FF47F01A860E860E960C3
:101C1000696B41F08071696370BD00BF003802409C
:101C20009800002068FF1F000C000020FEFFFEEE61
:101C30002DE9FC470446002C00F0DB81DA49DB4E3D
:101C400048688A4600F00C08486800F4803920781B
:101C5000C00748D0B8F1080F05D0B8F10C0F09D172
:101C6000B9F1000F06D0306810F4003F3BD0606837
:101C7000C8BBBEE1606858B1012805D031680528AD
:101C80001CD141F480203060306840F480301BE08B
:101C9000306820F480303060306820F4802030607C
:101CA000FFF7D0FE0546306810F4003F1BD0FFF769
:101CB000C9FE411B03206429F5D99BE121F4803042
:101CC0003060306820F480203060FFF7BBFE0546AE
:101CD000306810F4003F06D1FFF7B4FE411B03202B
:101CE0006429F5D986E1207880072DD5B8F1040F55
:101CF0001AD0B8F10C0F08BFB9F1000F14D0E16889
:101D0000DD48002900F0E88001210160FFF79AFE1C
:101D10000546306810F0020F0ED1FFF793FE411B0D
:101D200003200229F5D965E1306810F0020F03D0D5
:101D3000E068012840F05D8152461068216920F476
:101D4000F85040EA012010602078C00617D42078AF
:101D50005746000763D5606900284DD0C648012169
:101D6000C0F88016FFF76EFE0546386B10F0020FC4
:101D700055D1FFF767FE401B0228F6D917E0B8F1EE
:101D8000000F16D0A069002800F08680BA48012113
:101D90000162FFF757FE05465746306810F4007F92
:101DA00040F08C80FFF74EFE401B0228F5D903203F
:101DB00020E1306810F4007F03D0A069002800F013
:101DC00018815546206A296801F46041884240F232
:101DD000948000F05BF9002840F00B812968206AAC
:101DE00021F46041014329602968E26921F07F41C3
:101DF00041EA0261296091E09F480021C0F8801605
:101E0000FFF720FE05465746386B10F0020F06D04C
:101E1000FFF718FE411B03200229F4D9EAE02078DD
:101E2000400740F1CD80386A10F0805F0BD1386AEE
:101E30004FF0010940F080503862386A00F080505D
:101E40000190019801E04FF000098F4FF05910F414
:101E5000807F11D1F05940F48070F051FFF7F2FD0E
:101E60000546F05910F4807F06D1FFF7EBFD411BCA
:101E700003206429F5D9BDE0A068002862D052464D
:101E8000012805D0116B052876D141F480601063DC
:101E9000106B40F4807075E0774800210162FFF715
:101EA000D1FD0546306810F4007F3FF450AFFFF7D6
:101EB000C9FD411B03200229F4D99BE03868216A3F
:101EC00020F46040084338603868E16920F07F40C2
:101ED00040EA016038603AE700210160FFF7B2FD97
:101EE0000546306810F0020F3FF42EAFFFF7AAFD51
:101EF000411B03200229F4D97CE0296821F46041C8
:101F0000014329602968E26921F07F4141EA0261C9
:101F1000296000F0BBF800286BD1206A400B4FF419
:101F20008031564A01FA00F06968C1F30311515C2F
:101F3000C8405349086053480068FFF741FD002836
:101F400058D104E75146086B20F480700863086B91
:101F500020F480600863FFF775FD054641F288377D
:101F60005046006B10F4007F22D0FFF76BFD411B41
:101F70000320B942F4D93DE021F480701063106B66
:101F800020F480601063FFF75DFD054641F288375D
:101F90005046006B10F4007F0AD1FFF753FD411B40
:101FA0000320B942F4D925E0043802400038024049
:101FB000B9F1000F51461EBF086A20F08050086238
:101FC000676A002F55D0B8F10C0F16D1012F10D031
:101FD000DAF80400A16A00F480328A4209D1E16A89
:101FE00000F470128A4204D1216B00F44000884250
:101FF0003FD0012002B0BDE8F0871F49002088468D
:102000000866FFF71FFD0546022F0BD147463068D3
:1020100010F0007F11D0FFF715FD411B03200229AE
:10202000F5D9E7E7306810F0007F22D0FFF70AFD0E
:10203000411B03200229F5D9DCE7DAF8040004F19A
:1020400028030ECB20F47D00084310431843CAF840
:10205000040001203866FFF7F5FC0446306810F0F4
:10206000007F06D1FFF7EEFC011B03200229F5D902
:10207000C0E70020BEE700BF0000474280CE000856
:10208000980000200C0000200038FEFF1D490A685F
:1020900012F0F00F01D0002226E0CB691A4A13F0AB
:1020A000805F10D181B0CB6943F08053CB61CB69A5
:1020B00003F080530093009B1368CA6922F080529A
:1020C000CA6101B000E013680022B0F5404F0BD1A7
:1020D00003F4C050B0F5C05F06D1D1F8F803012277
:1020E00040F00400C1F8F803D1F8F80320F0010033
:1020F0001043C1F8F803D1F8F80300F00100504094
:10210000704700BF08380240007000402DE9F041E0
:1021100004460D46002C6ED0614FD7F8000400F045
:102120000100A84214D2012D02BFD7F8000440F0EC
:102130000400C7F80004D7F8000420F00100284389
:10214000C7F80004D7F8000400F00100A84252D1FB
:10215000206810F0020F05D0B968A26821F0F001E4
:102160001143B960C0073DD1D7F8000400F0010069
:10217000A84214D9012D02BFD7F8000440F0040092
:10218000C7F80004D7F8000420F001002843C7F87E
:102190000004D7F8000400F00100A8422BD1206809
:1021A00010F0040F05D0B968E26821F4E061114332
:1021B000B960000706D5B868216920F4605040EA8C
:1021C000C100B86000F074F8B968364AC1F3031171
:1021D000515CC8403449086034480068BDE8F041AB
:1021E000FFF7EEBB6068032808D002284FD139689A
:1021F00011F4003F06D10120BDE8F081396811F0EB
:10220000007FF8D0B96821F003010843B860FFF7F8
:1022100019FC0646606841F2883803281CD0022861
:1022200027D0012813D1B86800F00C0004289BD0F7
:10223000FFF708FC811B03204145F4D925E0FFF797
:1022400001FC811B0320414588BFBDE8F081B868CF
:1022500010F00C0FF3D187E7B86800F00C000C28E1
:102260003FF482AFFFF7EEFB811B03204145F3D91A
:102270000BE0B86800F00C0008283FF475AFFFF7DA
:10228000E1FB811B03204145F3D9BDE8F0813968AA
:10229000012802D18907AED5B4E78905ABD5B1E7EE
:1022A0000038024080CE0008980000200C0000207A
:1022B00080B514494A68C2F381033BB11248032B2D
:1022C0000CD0022B04BF124880BD80BD08684FF4BB
:1022D0008031C0F3423001FA00F080BDC2F3834C7C
:1022E000C2F381524968094B013211F4803F13F85F
:1022F0000C3018BF0648A3FB0001002309F0AAFB1D
:1023000080BD00BF043802400024F40098CE0008CD
:1023100000127A0070B586B002200D464FF480712D
:102320000E4E1446049002900020039001910590F7
:1023300001A9706940F001007061706900F001004E
:1023400000900098064800F0ADF8316844EA0500B6
:1023500021F0EE410843306006B070BD08380240FD
:1023600000000240014801210160704770004742AF
:102370000148002101607047700047420148006831
:10238000704700BF9800002004480549054A0068CE
:102390000968C1F30221515CC840704798000020D1
:1023A0000838024090CE000804480549054A0068F4
:1023B0000968C1F3C221515CC840704798000020F1
:1023C0000838024090CE00081F2101601D490A68AC
:1023D00012F4802F06BF0A68C2F300420522426051
:1023E0000A6802F00102C2604A68C2F30422026174
:1023F0000A68C2F3002282614A68120EC2614A680A
:1024000002F4604202624A6B12F4806F06BF4A6BAC
:10241000C2F30022052282604A6B02F0010242618F
:102420000A68C2F30062013242628A6802F48032B2
:1024300082628A6802F47012C262896801F4400103
:1024400001637047003802400F2202600C4A136893
:1024500003F003034360136803F0F0038360136821
:1024600003F4E063C3604FF4E063D2F800C003EA12
:10247000DC030361D2F8F80300F001000860704744
:102480000838024010B5054C206810F0800F08BFD6
:1024900010BD00F005F88020A07010BD0C3802407F
:1024A000704700002DE9FC4F5F4A05274FF0000AF6
:1024B00001264FF003094FF00F0C4FF0000B0025E1
:1024C00090425A4A08BF042702444FEAB223042B21
:1024D00038BF4FEAB22700970C6834FA05F308BFFB
:1024E000BDE8FC8F06FA05F314EA030E00F09580B0
:1024F0004F6807F00304621E012A17D8D0F808C0FD
:1025000009FA0BF22CEA020CCA6802FA0BF242EA50
:102510000C028260C7F3001202FA05FC42689A437B
:1025200042EA0C024FF00F0C426001E0032C1DD078
:10253000C36809FA0BF2022C23EA02028B6803FA41
:102540000BF342EA0302C26010D13C4C0AF01C02B9
:102550000CFA02F304EA550707443C6A24EA030331
:102560000C6904FA02F21A433A624F68036809FAE6
:102570000BF217F4403F23EA020207F0030303FAC9
:102580000BF342EA0302026047D02B4A284C25F0A5
:102590000307134626461A68374442F001021A60C0
:1025A0001A6802F0010201920AF00C02019C0CFA76
:1025B00002F3234CA04657F8084024EA0303009C8A
:1025C00004FA02F21A4347F8082032684F6842EAD8
:1025D0000E0317F4803F08BF22EA0E0317F4003FF2
:1025E0003360726842EA0E0308BF22EA0E0317F452
:1025F000801F7360B26842EA0E0308BF22EA0E032E
:102600000C4A17F4001FB3601646326842EA0E0304
:1026100008BF22EA0E03336001260AF1040A0BF117
:10262000020B013558E700BF001002400000FEBF5A
:10263000000401400C04014020380240FCFFFF7FF1
:1026400008FCFFFF2DE9F84F344A05274FF0000B37
:102650000F244FF0000A00259042314A08BF04279A
:1026600002444FEAB223042B38BF4FEAB227009747
:1026700031FA05F208BFBDE8F88F012202FA05F928
:1026800019EA010243D0274B0BF00C0C04FA0CF8AA
:10269000AC08A3F57E7353F824E0009E0EEA080709
:1026A00006FA0CF6B74214D11E4E376897433760CE
:1026B000776897437760B7689743B7601A4E376873
:1026C00027EA0202326053F8242022EA080243F883
:1026D00024200322154E03680F2402FA0AF206EAA8
:1026E00055079343036007440BF01C033E6A04FA4A
:1026F00003F326EA03033B62C3689343C360436862
:1027000023EA09034360836823EA020282600BF133
:10271000040B0AF1020A0135AAE700BF00100240CB
:102720000000FEBF000401400C040140FCFFFF7FDD
:102730000069084018BF01207047002A08BF09043B
:1027400081617047426902EA0103914341EA034112
:102750008161704781B04FF480320092009A0A4341
:102760000092009AC261C1610099C161C169009182
:102770000121C06921EA104001B0704703490A688D
:10278000024214BF0860704708F078BE140401408C
:102790007047000001460120002908BF70472DE95D
:1027A000F043144A144B14240A6402224A6291E84A
:1027B0000451D1E90495D1E906671344B3FBF4F35E
:1027C00047F6F0749B004B641368A34343EA080385
:1027D00043EA0C0343EA0E0343EA09032B43334362
:1027E0003B4313600022CA630A6248620020BDE8CE
:1027F000F043704700600240F89FFDBF0121F8B12F
:10280000B0B50268104C0F4D1368144423F0010357
:1028100013601423B4FBF3F39C00C0E910540024AC
:1028200014601C2202EA8302914069600021C463A3
:10283000C0E90B44C0E90D4404624462BDE8B04005
:102840000846704700600240F89FFDBFB0B50446DF
:10285000206A01281BD001202062606A012814D15F
:10286000022000256062E563D4F800C0DCF80000B7
:1028700020F00100CCF80000204600F00BF82068A2
:10288000016841F00101016002E0002020620225A0
:102890002846B0BD10B5D0E910CE01240EF01C0EB4
:1028A00004FA0EF4CCF80440046863604068102811
:1028B000084608BF1046A06008BF0A46E26010BD87
:1028C00010B50446206A01281CD001202062606AED
:1028D000012815D1022060620020E063D4F800C016
:1028E000DCF8000020F00100CCF800002046FFF7E3
:1028F000D1FF2068226B016832B141F00E0109E07E
:1029000000202062022010BD21F004010160016856
:1029100041F00A010160016841F0010101600020FD
:1029200010BD416A022913D1016801230A6822F00F
:102930000E020A600A6822F001020A60D0E9101251
:1029400002F01C0203FA02F24A600021436202E034
:102950000421C16301210022026208467047416AD6
:1029600002291BD1016801230A6822F00E020A60C5
:102970000A6822F001020A60D0E9101202F01C027B
:1029800003FA02F24A60002101624362826B42B1A3
:1029900080B590470021BDE8804002E00421C1637A
:1029A0000121084670472DE9F0470446164688463F
:1029B000606A022831D12068006810F0200F30D101
:1029C0000420B8F1000F08BF0220616C01F01C0167
:1029D00000FA01F5FFF736F882464FF00809771C38
:1029E000216C0868284222D10868626C02F01C023F
:1029F00009FA02F3034225D1002FF1D0FFF722F8A4
:102A00001EB1A0EB0A00B042EAD92020E06300200A
:102A1000206201206062BDE8F0870020206204206F
:102A200001E04FF48070E0630120BDE8F087606C46
:102A3000B8F1000F00F01C000ED0042202FA00F0E2
:102A400048600FE0012000FA02F24A600021E063D2
:102A500021626062BDE8F087022202FA00F048605D
:102A60000120606200202062BDE8F087B0B5D0E9A7
:102A700010C4DCF80010026804F01C0E136813F098
:102A8000040F1EBF042404FA0EF414EA010517D142
:102A90009C0721D5022404FA0EF414EA01051BD088
:102AA000116811F0200F05D1116821F00A011160A1
:102AB000012141620021CCF804400162C16A21E099
:102AC000116811F0200F02BF116821F0040111609C
:102AD000CCF80440016B15E01B0717D5082303FA57
:102AE0000EF3194008BFB0BD116821F00E0111604E
:102AF000012101FA0EF2CCF804200022C163026227
:102B00004162416B11B1BDE8B0400847B0BD00BFA4
:102B1000036A012B02D14FF0020C1AE04FF0010CB6
:102B2000C0F820C0436A012B11D1032905D8DFE882
:102B300001F00207090BC26207E04FF0010C06E04A
:102B4000026302E0426300E082634FF0000C002168
:102B500001626046704700BF026A012A01D1022269
:102B60001FE001220262436A012B18D1042907D811
:102B7000DFE801F003080B0E10000022C2620EE035
:102B800001220CE00022026309E00022426306E019
:102B9000002203E00022C0E90B224263826300218D
:102BA000016210467047406A7047C06B7047000072
:102BB0000448016841F080510160016821F08051B2
:102BC00001607047183802400148012101607047D8
:102BD00020000E42014800210160704720000E4293
:102BE00010B51A4C1A4A1359016823F0E00319432F
:102BF000115118490B6823F480330B60136823F4D8
:102C0000803313604B6823F480334B608B6823F46C
:102C100080338B60406810F4803F1EBF136843F41C
:102C200080331360820342BF0A6842F480320A6034
:102C3000C2071EBF4A6842F480324A60800742BF22
:102C4000886840F48030886010BD00BF006CFFFFD2
:102C50000004014004040140014801210160704763
:102C600010000E42014800210160704710000E4222
:102C700090FAA0F003490122B0FA80F041F8202038
:102C8000704700BF80000E4290FAA0F00349002276
:102C9000B0FA80F041F82020704700BF80000E425B
:102CA000094A0129136823F0030340EA0300106076
:102CB0000648026822F0040202600FBF30BF40BF26
:102CC00020BF20BF704700BF0070004010ED00E043
:102CD0000B4A0129136823F0030340EA0300106044
:102CE0000848026842F0040202600FBF30BF40BFD4
:102CF00020BF20BF016821F004010160704700BFC0
:102D00000070004010ED00E00548016841F002014C
:102D100001600448016841F00401016030BF704760
:102D20000070004010ED00E00248016841F002012F
:102D30000160704710ED00E00248016821F00201D7
:102D40000160704710ED00E00248016841F0100199
:102D50000160704710ED00E00248016821F01001A9
:102D60000160704710ED00E010B5064C206810F4CB
:102D7000803F08BF10BD00F007F84FF4803020609E
:102D800010BD00BF140401407047000002480068F5
:102D900000F4C050704700BF00700040014801219E
:102DA0000160704728000E42014800210160704711
:102DB00028000E42014801210160704724000E42A4
:102DC000014800210160704724000E4202480121A1
:102DD00001608163704700BF00000E42024800217D
:102DE000816301600020704700000E4205494FF6E4
:102DF000FF030A681A4060F30A2203481043086080
:102E0000704700BF0CED00E00000FA05B0B500F01F
:102E10000F03144D124CB0F1FF3FA3F104032B44F8
:102E200003F10C03C8BF03192868C0F30220051D75
:102E3000C41E80F00700072D4FF0010538BF0024A5
:102E4000042828BF042005FA00F00138084005FADC
:102E500004F10F31A0401140084300011870B0BDCB
:102E600000E400E00CED00E0002808DB00F01F01AA
:102E70000122400902FA01F1014A42F8201070478C
:102E800000E100E000280CDB00F01F0101224009F6
:102E900002FA01F1034A42F82010BFF34F8FBFF34B
:102EA0006F8F704780E100E000F000F80648BFF344
:102EB0004F8F064A016801F4E06111430160BFF3DE
:102EC0004F8F00BFFDE700BF0CED00E00400FA05E6
:102ED000411E0020B0EB116F1CBF01207047044A57
:102EE000F023516003490B70072190601160704717
:102EF00010E000E023ED00E0044940F0010008602C
:102F0000BFF34F8FBFF36F8F704700BF94ED00E0AA
:102F10000248BFF35F8F00210160704794ED00E02D
:102F2000B0B54278114D2A600278DAB143686B601F
:102F3000037BC47A817A90F808C042EA0372437A2C
:102F400042EA046242EAC141427B41EA8241827B19
:102F5000C07B41EA424141EA004040EA032040EAA6
:102F60004C0001E000206860A860B0BD98ED00E072
:102F700002480068C0F30220704700BF0CED00E07B
:102F800070B5144E00F00F04114DB0F1FF3F01F089
:102F900007012644A1F10304C8BF46190D1D81F0A5
:102FA0000701072D30784FF0010538BF00240429B0
:102FB00028BF0421060905FA01F1E6400139314034
:102FC000116005FA04F10F3101EA1010186070BDAC
:102FD00000E400E014ED00E0002808DB00F01F0131
:102FE0000122400902FA01F1014A42F8201070471B
:102FF00000E200E000280CDB00F01F010122400984
:1030000002FA01F1044A52F82000084018BF0120DA
:1030100070470020704700BF00E200E0002808DB96
:1030200000F01F010122400902FA01F1014A42F8B1
:103030002010704780E200E000280CDB00F01F0148
:103040000122400902FA01F1044A52F82000084026
:1030500018BF012070470020704700BF00E300E068
:10306000044904280A6822F0040308BF42F004035C
:103070000B60704710E000E0AFF300807047000085
:1030800070B5044634B1606A30B10020206104F1AB
:10309000140007E0012644E06068B0F5827F03D0A9
:1030A00004F11C000021016000264FF0000CA66214
:1030B000606D30B920462665FDF760FAA06A00F41D
:1030C000005C0221616521680A6822F040020A6002
:1030D000D4E90123D4E9030502F4827203F4044322
:1030E00000F400601A43104305F0020210436269C5
:1030F00002F001021043A26902F400731843E3696D
:1031000003F038031843236A03F08003184340EAAE
:103110000C000860042000EA124048600120A66507
:103120006065304670BD704710B5044674B102202A
:1031300060652068016821F0400101602046FDF7CC
:1031400063FA0020A0652065606510BD012010BDF8
:1031500070472DE9F84304461D4616460F46206D7C
:10316000012801D10220A6E04FF00109C4F85090D7
:10317000FEF768FC8046606D01285AD10120002FBF
:1031800000F09580002E00F0928003206065002002
:10319000A065E6862763A686A063A087C4E9100021
:1031A000E087A1682068B1F5004F07D1016821F0E0
:1031B00040010160016841F4804101600168731EB3
:1031C000B3FA83F311F0400F4FEA531302BF0168C3
:1031D00041F0400101606168E268B1FA81F1B2F545
:1031E000006F4FEA511141EA030124D131B137F8A0
:1031F000021BC1602763E08E0138E0866E1C14E07C
:103200002068816811F0020F07D1FEF71BFC66B140
:10321000A0EB0800A84208D348E0216B31F8022B4C
:10322000C2602163E08E0138E086E08E0028E7D19D
:1032300025E002203BE039B139780173206B013081
:103240002063E08E0138E0866E1C15E020688168FE
:1032500011F0020F07D1FEF7F5FB6EB1A0EB0800ED
:10326000A84209D322E0216B09780173206B013059
:103270002063E08E0138E086E08E0028E6D120460B
:103280002946424600F01AF808B12020A065A0683F
:1032900038B9002000902068C168009180680090D3
:1032A0000098A06D002818BF012000E00320002135
:1032B0002165C4F8549001B0BDE8F0831CB5044604
:1032C000134813460A4613490068B0FBF1F04FF467
:1032D0007A71484301906068B0F5827F0AD1204638
:1032E000802101F0B5F878B1A06D40F02000A06514
:1032F00003200AE0019838B1019801380190206854
:10330000806810F0800FF5D1002002B010BD00BF22
:103310009800002000366E012DE9F84304461D4652
:1033200017460E466068B0F5827F02D1A06800287B
:103330007DD0206D012801D1022081E04FF00109EC
:10334000C4F85090FEF77EFB8046606D012868D17E
:103350000120002E66D0002F64D00420606500207C
:10336000A065E787A663A7872063A086C4E910004D
:10337000E086A1682068B1F5004F07D1016821F00F
:1033800040010160016821F48041016001686E1C08
:1033900011F0400F02BF016841F040010160E06898
:1033A000A8B92EE02068816811F0010F07D1FEF75F
:1033B00049FB66B1A0EB0800A84208D343E0C0680F
:1033C000A16B21F8020BA163E08F0138E087E08F49
:1033D0000028E7D118E02068816811F0010F07D1BB
:1033E000FEF730FB6EB1A0EB0800A84209D32AE03B
:1033F000007BA16B0870A06B0130A063E08F0138E7
:10340000E087E08F0028E6D120462946424600F0BA
:1034100005F908B12020A065A06D002818BF012083
:1034200000E0022000212165C4F8549008E0042047
:10343000314632463B4660652046009500F005F86F
:1034400001B0BDE8F0830320ECE72DE9F843044622
:103450001E4615460F46206D012801D10220C4E00A
:1034600001202065FEF7EEFA616D814601296DD1DC
:103470000120002F00F0B580002D00F0B280002E5A
:1034800000F0AF80606D731EDDF82080B3FA83F327
:1034900004284FEA53131CBF052060650020A06577
:1034A000E687A563A6872763A686C4E91000E6869B
:1034B0002068016811F0400F02BF016841F040012F
:1034C00001606168E268B1FA81F1B2F5006F4FEA1C
:1034D000511141EA030147D131B137F8021BC160F4
:1034E0002763E08E0138E086012608F10105E08EB1
:1034F00010B9E08F00287BD02068816811F0020F9E
:103500000CD0E18E012E09D141B1216B002631F89A
:10351000022BC2602163E18E0139E186816811F0DE
:10352000010F0AD0E18F41B1C068A16B012621F8DB
:10353000020BA163E08F0138E087FEF783FA002DCC
:10354000D5D0A0EB09004045D1D349E06068B0F583
:10355000827F07D10220042943D1A16800293FF4CA
:1035600087AF3EE002203CE039B139780173206B2F
:1035700001302063E08E0138E086012608F1010564
:10358000E08E08B9E08F98B32068816811F0020FCF
:103590000ED0E18E012E0BD151B1216B002609789E
:1035A0000173216B206801312163E18E0139E186CD
:1035B000816811F0010F0BD0E18F49B1C068A16B98
:1035C00001260870A06B0130A063E08F0138E0870E
:1035D000FEF738FA002DD3D0A0EB09004045CFD339
:1035E0000320002121650121616501B0BDE8F08360
:1035F000204641464A46FFF761FE18B12020A065EB
:103600000120EEE7A16800200029EAD1009021689E
:10361000CA680092896800910099E2E710B50446F3
:1036200094460A466068B0F5827F0ED1A068B0F576
:10363000004F02D0B0F5806F0AD12168B0F5806FDD
:103640000B6823F040030B6002D12046012101E00A
:1036500020468021634600F0FBFE00280FBF0020BB
:10366000A06D40F02000A06518BF032010BD00BF72
:10367000036D012B01D102233BE0012300290365E7
:1036800035D0A2B3436D012B30D110B50323DFF841
:1036900068E01A4C436500238365C2860163828615
:1036A000836383870168D0E902C2002A08BF744699
:1036B000BCF5004FC0E91034C387BDE8104007D106
:1036C0000A6822F040020A600A6842F480420A60F6
:1036D0004A68002342F0A0024A600A6812F0400FD4
:1036E00002BF0A6842F040020A6000E002230021A3
:1036F00001651846704700BF1F37000801370008F2
:10370000026B016832F8023BCB60C18E0139C18681
:103710000263C18E002908BF00F056BE7047026BDD
:10372000016812780A73C18E0139C186016B0131BB
:103730000163C18E002908BF00F046BE704700BF7C
:103740008368944643B94268B2F5827F04D104226B
:10375000634642650A464BE0026D012A01D102220E
:1037600040E001220265426D012A38D10122B9B33D
:10377000BCF1000F34D010B50422DFF86CE01B4C14
:10378000426500228265A0F83EC08163A0F83CC07B
:1037900002638286D0F80CC00168BCF1000F08BF3C
:1037A0007446B3F5004FC0E91042C286BDE8104030
:1037B00007D10A6822F040020A600A6822F48042B7
:1037C0000A604A6842F060024A600A6812F0400FDC
:1037D00002BF0A6842F040020A60002200E00222B2
:1037E0000021016510467047E7380008C938000815
:1037F000D0F850C0BCF1010F02D14FF0020C58E0DC
:1038000080B54FF0010CC0F850C0D0F854E0BEF1C4
:10381000010F38D14FF0010C002946D0002A44D0C6
:10382000002B42D0D0F854C0DFF88CE0BCF1040F7C
:103830001CBF4FF0050CC0F854C04FF0000CC0F88E
:1038400058C0C3860163838682638387C3871B4B0B
:10385000C2680168002A1B4A08BF7346DFF860E0AF
:1038600008BF7246C0E910324A6842F0E0024A607E
:103870000A6812F0400F18D10A684FF0000C42F0AD
:1038800040020A6011E0D0F804C0BCF5827F0AD182
:103890004FF0020CBEF1040F07D1D0F808E0BEF1E2
:1038A000000FB7D001E04FF0020C00210165BDE828
:1038B00080406046704700BF57390008073900084C
:1038C000833900082F3900080168C968826B22F823
:1038D000021BC18F0139C1878263C18F002908BFD4
:1038E00000F046BD70470168097B826B1170C18F83
:1038F0000139C187816B01318163C18F002908BF04
:1039000000F036BD70470168CA68836B23F8022B4C
:10391000C28F013AC2878363C28F2AB94A6822F0F4
:1039200040024A60C18E01B1704700F0D5BC026B05
:10393000016832F8023BCB60C38E013BC386026351
:10394000C28E2AB94A6822F080024A60C18F01B152
:10395000704700F0C1BC0168097B826B1170C18F98
:103960000139C187816B01318163C18F31B9016830
:103970004A6822F060024A60C18E01B1704700F0CF
:10398000ABBC026B016812780A73C18E0139C18623
:10399000016B01310163C18E31B901684A6822F0BF
:1039A00080024A60C18F01B1704700F095BC00BF32
:1039B000B0B50446206D012804BF0220B0BD01202F
:1039C0002065606D012831D1012081B37AB30320D5
:1039D00000236065A365E2862163A286A363C4E930
:1039E0001033A387E387A0682268B0F5004F07D1A2
:1039F000106820F040001060106840F480401060B3
:103A0000A06CDFF858C0DFF858E0164D0C32C0E962
:103A10000BCEC0E90D53E38EFEF752FF50B1A06DFF
:103A200040F01000A0650120606500E00220002148
:103A30002165B0BD2068016811F0400F02BF016828
:103A400041F040010160416841F02001416041685E
:103A500041F0020141600020E9E700BF6F3A000831
:103A6000693A0008DF3A0008806A00F02DBCBCB556
:103A70000546AC6AFDF7E6FF02462868006810F0CC
:103A8000200F27D12068416821F020014160416862
:103A900021F00201416020466421FFF70FFC18B1BC
:103AA000A06D40F02000A065A06840B90020019002
:103AB0002068C0680190206880680190019800200B
:103AC000E08601206065A06D20B12046BDE8BC40C5
:103AD00000F0F6BB2046BDE8BC4000F0F2BB806AB7
:103AE00001684A6822F003024A60816D41F01001CA
:103AF00081650121416500F0E3BB00BFB0B504461C
:103B000013460A46A16851B96068B0F5827F06D1B4
:103B10000420114660652046BDE8B0405EE0206D9F
:103B2000012804BF0220B0BD01202065606D01287E
:103B300037D10120B2B3ABB304204FF0000CB1F584
:103B4000004F6065C4F858C0E387A263A387C4E947
:103B500010CCA4F834C0A4F836C0D4F800E00BD1DF
:103B6000DEF8000020F04000CEF80000DEF8000093
:103B700020F48040CEF80000E06C1549154B164D3E
:103B800000F12C0787E82A100EF10C01E38FFEF7F5
:103B900097FE50B1A06D40F01000A0650120606557
:103BA00000E0022000212165B0BD2068016811F00D
:103BB000400F02BF016841F040010160416841F0DF
:103BC00020014160416841F0010141600020E9E7C6
:103BD000DF3C0008D93C0008DF3A0008B0B50446D5
:103BE000206D012804BF0220B0BD01202065656D55
:103BF000012D45D1012000294ED0002A4CD0002BA8
:103C00004AD0606D0025DFF8C0E0DFF8B8C00428B6
:103C10001CBF05206065A565E386E3872163A38655
:103C2000A263A387C4E91055284B616DE06C042999
:103C3000284908BF7346DFF898E008BF7146C0E91D
:103C40000B31C0E90DC5E38F21680C31FEF738FE5A
:103C500078B92268506840F0010050600C32A06CC6
:103C6000C0E90B55C0E90D55E38E216BFEF728FE28
:103C7000A8B1A06D40F01000A065012060650BE0C8
:103C80006068B0F5827F06D10220042D04D1A568BA
:103C9000002DAFD000E0022000212165B0BD2068DA
:103CA000016811F0400F02BF016841F0400101605E
:103CB000416841F020014160416841F002014160EA
:103CC0000020E9E7DF3A0008DF3C00084F3D00082C
:103CD000D93C0008493D0008806A00F0F6BAB0B54A
:103CE0000546AC6AFDF7AEFE02462868006810F093
:103CF000200F24D12068416821F020014160A16893
:103D000031B96168B1F5827F02D16FF0030101E042
:103D10006FF0010143681940416020466421FFF7BC
:103D20007DFC08B12020A0650020E08701206065AF
:103D3000A06D20B12046BDE8B04000F0C1BA2046D9
:103D4000BDE8B04000F0BEBA806A00F0BFBAB0B5BE
:103D50000546AC6AFDF776FE02462868006810F05A
:103D6000200F1ED12068416821F0200141602046CB
:103D70006421FFF7A3FA18B1A06D40F02000A06500
:103D80002068416821F0030141600020E086E0875F
:103D900001206065A06D20B12046BDE8B04000F074
:103DA0008FBA2046BDE8B04000F08DBA1FB504467A
:103DB000434845F6C0510068B0FBF1F06421484328
:103DC00002900298039021680A4652F8040F20F0EE
:103DD00020001060106810F0800F10D03948606427
:103DE000039830B1039801380390606D0728F7D12C
:103DF00003E0A06D40F04000A065029803901068B9
:103E000010F0400F10D030482064039830B1039870
:103E100001380390606D0728F7D103E0A06D40F0F2
:103E20004000A06502980390106810F0020F1DD0AA
:103E3000A06CD8B100218163FEF773FD08B140206A
:103E4000A06521680A4652F8040F20F002001060B5
:103E5000039838B1039801380390886810F0020F76
:103E6000F6D003E0A06D40F04000A065106810F0AF
:103E7000010F11D0E06C78B100218163FEF751FD94
:103E800008B14020A0652168086820F04000086063
:103E9000486820F00100486000230122E387E386A0
:103EA000A06D40284FF001001CBFA36500200193C6
:103EB000CB680193896801910199626504B010BDD6
:103EC00098000020CD3E0008E53E000801684A68E1
:103ED00022F080024A600A6822F040020A6007214C
:103EE0004165704782B0002145F6C05201911349E7
:103EF0000968B1FBF2F1642251430091009941B18C
:103F000000990139009101688A6812F0020FF5D01A
:103F100004E00168826D42F0400282650A6822F086
:103F200040020A604A6822F0E0024A60C9680191D2
:103F300001990721416502B0704700BF9800002039
:103F40007FB50446414845F6C0510068B0FBF1F02A
:103F5000642148430290029803902168486820F049
:103F600020004860486810F0800F10D03848606426
:103F7000039830B1039801380390606D0728F7D19A
:103F800003E0A06D40F04000A065029803904868EF
:103F900010F0400F10D02F482064039830B10398E0
:103FA00001380390606D0728F7D103E0A06D40F061
:103FB0004000A06502980390A06C28B14A68264B87
:103FC000920703EAE2728263E26C32B14B68234EDD
:103FD00003F001035B42334093634968012658B103
:103FE00011F0020108D0FEF7BAFC002620B1A06C47
:103FF000866340200126A0652068406810F0010F0C
:1040000009D0E06C38B1FEF7AAFC0025D8B1E06C0D
:1040100085634020A0650025AEB1E587E5860125D2
:104020000120A16D40294FF000011CBF0025A565AE
:1040300001912168CA6801928968019101996065BE
:10404000204600F081F8284604B070BD980000209A
:10405000CD3E0008E53E000861400008DD40000854
:10406000E0B5806A0022816C8A631B4945F6C05224
:104070000968B1FBF2F164225143019101684A6879
:1040800022F002024A60019941B10199013901917E
:104090000168896811F0020FF5D003E0816D41F0ED
:1040A00040018165C16C11B1896B01B18CBD0021EA
:1040B000C187C186826D402A18BF81650091016861
:1040C000C9680091016889680091009901214165E2
:1040D00000F03AF88CBD00BF980000201CB5846A3F
:1040E00000222068016821F040010160E16C8A63D0
:1040F000416821F001014160FDF7A4FC0246204621
:104100006421FFF7DBF818B1A06D40F04000A06516
:10411000A06C10B1806B00B11CBD0020E087E08670
:10412000A16D402918BFA06501902068C06801906A
:10413000206880680190019801206065204602B0E7
:10414000BDE81040AFF300807047016D012901D137
:10415000022106E001684A6822F003024A60002159
:10416000016508467047016D012901D1022106E071
:1041700001684A6842F003024A600021016508466E
:104180007047B0B50446A06C40B1FEF7CAFB28B139
:10419000A06D012540F01000A06500E00025E06C56
:1041A00038B1FEF7BEFB20B1A06D012540F0100034
:1041B000A0652068416821F003014160012060652D
:1041C0002846B0BD1FB5044620684168826811F0DA
:1041D000400F05D002F04103012B01D1216C05E015
:1041E0000B0608D512F0020305D0616C204604B01E
:1041F000BDE8104008478B0653D512F0600350D03D
:1042000012F0400315D0636D032B07D100210291FA
:10421000C168029180680290029842E0A36D43F069
:104220000403A36500230393C36803938368039384
:10423000039B12F020020CD0A26D42F00102A26595
:104240000022019282680192026822F0400202601C
:10425000019AA26D2AB34268890722F0E002426007
:104260004FF0010262651DD0416821F003014160F9
:10427000E06C40B10E498163FEF771FB18B1A06D8F
:1042800040F04000A065A06C58B109498163FEF779
:1042900066FB002808BF1FBDA06D40F04000A06570
:1042A0001FBD1FBD204604B0BDE8104000F008B897
:1042B000B5420008806A0021C187C186AFF3008043
:1042C0007047704770477047704770477047406D40
:1042D0007047806D704700BF1CB50446234845F603
:1042E000C0510068B0FBF1F0642148430190FDF734
:1042F000A9FB02462068416821F020014160019934
:1043000039B1019901390191816811F0020FF6D09C
:1043100003E0A06D40F02000A06520466421FEF778
:10432000CDFF18B1A06D40F02000A065A06838B99D
:10433000002000902068C16800918068009000987B
:10434000A06D28B1012060652046FFF7B9FF1CBDB4
:10435000606D01216165042803D12046FFF7B2FF9B
:104360001CBD2046FFF7AFFF1CBD00BF980000201A
:104370001CB504462068416821F060014160FDF7EA
:1043800061FB024620466421FFF748F918B1A06D91
:1043900040F02000A065A06838B900200190206896
:1043A000C168019180680190019801206065A06D4D
:1043B00020B12046BDE81C40FFF782BF2046BDE883
:1043C0001C40FFF77FBF00BF1CB504461F4845F6E1
:1043D000C0510068B0FBF1F0642148430190FDF743
:1043E00031FB0246019840B10198013801902068E4
:1043F000816811F0020FF5D004E02068A16D41F052
:104400002001A165416821F0A0014160204664219E
:10441000FEF754FF18B1A06D40F02000A065A06821
:1044200038B9002000902068C16800918068009031
:10443000009801206065A06D18B12046FFF740FF8D
:104440001CBD2046FFF73DFF1CBD00BF98000020AB
:104450002DE9FC411E4617460D460446FDF7F2FACB
:10446000301AC619FDF7EEFA804622480137006877
:10447000C0F3CB30704301900DE067B1FDF7E2FA75
:10448000A0EB0800B0420FD2019801990139002831
:10449000019108BF0646206880682840A842ECD0F9
:1044A000002002B0BDE8F0812068416821F0E00101
:1044B00041606168B1F5827F0AD1A168B1F5004F12
:1044C00002D0B1F5806F03D1016821F04001016095
:1044D000A16AB1F5005F07D1016821F400510160C4
:1044E000016841F4005101600020206501206065F1
:1044F0000320D6E79800002010B50446ACB1E06B6D
:1045000020B90020A0632046FCF708F90220211DF5
:10451000E063206800F00CF80120206520646064EE
:10452000A064E064E063002010BD012010BD70476E
:104530000268B0F1804F0ED0114B98420BD0114B56
:1045400098420CD0104B984209D0104B984206D09C
:104550000F4B984207D14B6822F070021A43CB6888
:1045600022F440721A430B6922F080021A4302605F
:104570008A68C2620968816201214161704700BF97
:10458000000400400010014000080140000C014000
:104590000008004010B50446022041F21112E06309
:1045A0002068016A114203D1016821F00101016014
:1045B0002046FCF7C9F80020206520646064A064F0
:1045C000E064A063E063002010BD7047C16B012967
:1045D0001CBF012070470221C1630068B0F1804F09
:1045E00008D00A49884205D00949884202D00949C1
:1045F000884204D1816801F00701062903D00168CF
:1046000041F0010101600020704700BF000400403C
:104610000008014000080040016841F211130A6AD5
:104620001A4203D10A6822F001020A600121C16323
:1046300000207047C16B01291CBF01207047022177
:10464000C1630068C168B0F1804F41F00101C160F1
:1046500008D00A49884205D00949884202D0094950
:10466000884204D1816801F00701062903D001685E
:1046700041F0010101600020704700BF00040040CC
:104680000008014000080040016841F21113CA68A7
:1046900022F00102CA600A6A1A4203D10A6822F0B3
:1046A00001020A600121C1630020704710B5044671
:1046B0001346E06B022804BF022010BDE06B012806
:1046C00012D101B983B90220164AE063E069C262DF
:1046D000154AE0690263154AE06942632268E069AD
:1046E0002C32FEF7EDF808B1012010BD2068C1683A
:1046F000B0F1804F41F48071C16008D00C4988420C
:1047000005D00C49884202D00B49884204D1816807
:1047100001F00701062903D0016841F001010160A1
:10472000002010BD3D4700085147000857470008CA
:10473000000400400008014000080040806AC16990
:10474000896909B101F07CBB0121C16301F078BB2B
:10475000806A02F0ACB810B5846A216A81420BD03D
:10476000616A81420DD0A16A81420FD0E16A814223
:1047700011D004F13C0012E00120A06104F14000DE
:104780000DE00220A06104F1440008E00420A061D3
:1047900004F1480003E00820A06104F14C0001216D
:1047A0000160204602F087F80020A06110BD10B51E
:1047B00004462068C16821F48071C160E069FEF799
:1047C000CEF8206841F21112016A114203D101684A
:1047D00021F0010101600120E063002010BD10B54F
:1047E0000446ACB1E06B20B90020A063204600F085
:1047F00011F80220211DE0632068FFF799FE0120D7
:10480000206520646064A064E064E063002010BD63
:10481000012010BD704710B50446022041F211126C
:10482000E0632068016A114203D1016821F00101AF
:104830000160204600F00AF80020206520646064D2
:10484000A064E064A063E063002010BD704700BF77
:1048500010B5044621B1042905D104F1440008E053
:1048600004F1400005E00829084618BF0C20204448
:104870004030006801281CBF012010BD21B104296F
:1048800005D104F1440008E004F1400005E00829E6
:10489000084618BF0C20204440300222026001224A
:1048A000206800F01FF82068B0F1804F08D00A4956
:1048B000884205D00949884202D00949884204D17A
:1048C000816801F00701062903D0016841F0010168
:1048D0000160002010BD00BF00040040000801403E
:1048E0000008004001F01F01012303FA01FC036AE4
:1048F00002FA01F123EA0C030362026A1143016226
:104900007047B0B5044600220D462068FFF7EAFF65
:10491000206841F21112016A114203D1016821F0AD
:1049200001010160042D03D02DB904F1400007E01E
:1049300004F1440004E0082D18BF0C256019403034
:10494000012101600020B0BD10B5044621B1042949
:1049500005D104F1440008E004F1400005E0082915
:10496000084618BF0C2020444030006801281CBFB6
:10497000012010BD21B1042905D104F1440008E053
:1049800004F1400005E00829084618BF0C20204427
:104990004030022202604FEAB100042807D2124AD6
:1049A00052F820202068C3681A43C26000E02068E3
:1049B0000122FFF797FF2068B0F1804F08D00B4924
:1049C000884205D00A49884202D00A49884204D167
:1049D000816801F00701062903D0016841F0010157
:1049E0000160002010BD00BFC4CE000800040040DC
:1049F0000008014000080040B0B50D4604464FEAEB
:104A0000B500042807D2144951F820102068C26864
:104A10001140C16000E0206829460022FFF762FFD4
:104A2000206841F21112016A114203D1016821F09C
:104A300001010160042D03D02DB904F1400007E00D
:104A400004F1440004E0082D18BF0C256019403023
:104A5000012101600020B0BDD4CE0008B0B50D46E4
:104A6000044625B1042D05D104F1440008E004F109
:104A7000400005E0082D284618BF0C202044403097
:104A80000068022804BF0220B0BD25B1042D05D165
:104A900004F1440008E004F1400005E0082D284638
:104AA00018BF0C20204440300068012801D112B901
:104AB0000BB10120B0BD25B1042D05D104F1440096
:104AC00008E004F1400005E0082D284618BF0C203E
:104AD00020444030022101604FEAB500032819D874
:104AE000DFE800F0021A3046206A3C49C1623C49C6
:104AF000206A01633B49206A41632168206A01F111
:104B0000340C11466246FDF7DBFE0028D1D14FF48C
:104B1000007143E0206845E0606A3049C162304975
:104B2000606A01632F49606A41632168606A01F12C
:104B3000380C11466246FDF7C3FE0028B9D14FF488
:104B400080612BE0A06A2549C1622549A06A016302
:104B50002449A06A41632168A06A01F13C0C114616
:104B60006246FDF7ADFE0028A3D14FF4006115E0C9
:104B7000E06A1A49C1621A49E06A01631949E06AA8
:104B800041632168E06A01F1400C11466246FDF77D
:104B900097FE00287FF48DAF4FF480512068C268E3
:104BA0001143C16029460122FFF79CFE2068B0F145
:104BB000804F08D00C49884205D00C49884202D069
:104BC0000B49884204D1816801F00701062903D00E
:104BD000016841F0010101600020B0BDF54B000803
:104BE000514C0008574700080004004000080140ED
:104BF0000008004010B5846A216A81420FD0616AC2
:104C0000814212D0A16A814216D0E16A814219D153
:104C10000821A1618069A8B90120E06412E00121A6
:104C2000A161806970B921640CE00221A1618069F1
:104C300040B90120606405E00421A161806908B9E0
:104C40000120A064204601F0FAF80020A06110BD08
:104C500010B5846A216A81420AD0616A814209D012
:104C6000A16A814208D0E16A814207D1082004E0AC
:104C7000012002E0022000E00420A061204601F0B3
:104C800018FE0020A06110BDB0B50D4604464FEAE5
:104C9000B500032820D8DFE800F0020910172068CB
:104CA000C16821F40071C160206A13E02068C16806
:104CB00021F48061C160606A0CE02068C16821F461
:104CC0000061C160A06A05E02068C16821F48051DC
:104CD000C160E06AFDF743FE206829460022FFF725
:104CE00001FE206841F21112016A114203D10168EC
:104CF00021F001010160042D03D02DB904F1400021
:104D000007E004F1440004E0082D18BF0C256019E9
:104D10004030012101600020B0BD10B50446ACB1A7
:104D2000E06B20B90020A063204600F011F80220BB
:104D3000211DE0632068FFF7FBFB01202065206454
:104D40006064A064E064E063002010BD012010BD39
:104D5000704710B50446022041F21112E06320684A
:104D6000016A114203D1016821F00101016020466E
:104D700000F00AF80020206520646064A064E0640C
:104D8000A063E063002010BD704700BF10B504466B
:104D900021B1042905D104F1440008E004F14000E8
:104DA00005E00829084618BF0C2020444030006860
:104DB00001281CBF012010BD21B1042905D104F137
:104DC000440008E004F1400005E00829084618BF47
:104DD0000C20204440300222026001222068FFF7AC
:104DE00081FD2068B0F1804F08D00A49884205D083
:104DF0000949884202D00949884204D1816801F0FA
:104E00000701062903D0016841F00101016000207B
:104E100010BD00BF00040040000801400008004031
:104E2000B0B5044600220D462068FFF75BFD206800
:104E300041F21112016A114203D1016821F001010E
:104E40000160042D03D02DB904F1400007E004F106
:104E5000440004E0082D18BF0C25601940300121E2
:104E600001600020B0BD00BF10B5044621B1042987
:104E700005D104F1440008E004F1400005E00829F0
:104E8000084618BF0C2020444030006801281CBF91
:104E9000012010BD21B1042905D104F1440008E02E
:104EA00004F1400005E00829084618BF0C20204402
:104EB0004030022202604FEAB100042807D2124AB1
:104EC00052F820202068C3681A43C26000E02068BE
:104ED0000122FFF707FD2068B0F1804F08D00B4991
:104EE000884205D00A49884202D00A49884204D142
:104EF000816801F00701062903D0016841F0010132
:104F00000160002010BD00BFC4CE000800040040B6
:104F10000008014000080040B0B50D4604464FEAC5
:104F2000B500042807D2144951F820102068C2683F
:104F30001140C16000E0206829460022FFF7D2FC42
:104F4000206841F21112016A114203D1016821F077
:104F500001010160042D03D02DB904F1400007E0E8
:104F600004F1440004E0082D18BF0C2560194030FE
:104F7000012101600020B0BDD4CE0008B0B50D46BF
:104F8000044625B1042D05D104F1440008E004F1E4
:104F9000400005E0082D284618BF0C202044403072
:104FA0000068022804BF0220B0BD25B1042D05D140
:104FB00004F1440008E004F1400005E0082D284613
:104FC00018BF0C20204440300068012801D112B9DC
:104FD0000BB10120B0BD25B1042D05D104F1440071
:104FE00008E004F1400005E0082D284618BF0C2019
:104FF00020444030022101604FEAB500032819D84F
:10500000DFE800F0021A3046206A3C49C1623C49A0
:10501000206A01633B49206A41632168206A01F1EB
:10502000340C11466246FDF74BFC0028D1D14FF4F9
:10503000007143E0206845E0606A3049C162304950
:10504000606A01632F49606A41632168606A01F107
:10505000380C11466246FDF733FC0028B9D14FF4F5
:1050600080612BE0A06A2549C1622549A06A0163DD
:105070002449A06A41632168A06A01F13C0C1146F1
:105080006246FDF71DFC0028A3D14FF4006115E036
:10509000E06A1A49C1621A49E06A01631949E06A83
:1050A00041632168E06A01F1400C11466246FDF758
:1050B00007FC00287FF48DAF4FF480512068C26850
:1050C0001143C16029460122FFF70CFC2068B0F1B2
:1050D000804F08D00C49884205D00C49884202D044
:1050E0000B49884204D1816801F00701062903D0E9
:1050F000016841F0010101600020B0BDF54B0008DE
:10510000514C0008574700080004004000080140C7
:1051100000080040B0B50D4604464FEAB50003282C
:1051200020D8DFE800F0020910172068C16821F4D8
:105130000071C160206A13E02068C16821F48061B9
:10514000C160606A0CE02068C16821F40061C16040
:10515000A06A05E02068C16821F48051C160E06A5E
:10516000FDF7FDFB206829460022FFF7BBFB206806
:1051700041F21112016A114203D1016821F00101CB
:105180000160042D03D02DB904F1400007E004F1C3
:10519000440004E0082D18BF0C256019403001219F
:1051A00001600020B0BD10B50446ACB1E06B20B981
:1051B0000020A063204600F011F80220211DE063CA
:1051C0002068FFF7B5F90120206520646064A064C1
:1051D000E064E063002010BD012010BD704710B5F1
:1051E0000446022041F21112E0632068016A114274
:1051F00003D1016821F001010160204600F00AF8A6
:105200000020206520646064A064E064A063E06323
:10521000002010BD704700BF10B5044621B104291D
:1052200005D104F1440008E004F1400005E008293C
:10523000084618BF0C2020444030006801281CBFDD
:10524000012010BD21B1042905D104F1440008E07A
:1052500004F1400005E00829084618BF0C2020444E
:1052600040300222026001222068FFF73BFB2068E9
:10527000B0F1804F08D00A49884205D009498842D8
:1052800002D00949884204D1816801F0070106294A
:1052900003D0016841F001010160002010BD00BF92
:1052A000000400400008014000080040B0B504467A
:1052B00000220D462068FFF715FB206841F211120D
:1052C000016A114203D1016821F001010160042D3E
:1052D00003D02DB904F1400007E004F1440004E0DC
:1052E000082D18BF0C2560194030012101600020F5
:1052F000B0BD00BF10B5044621B1042905D104F1A9
:10530000440008E004F1400005E00829084618BF01
:105310000C2020444030006801281CBF012010BD33
:1053200021B1042905D104F1440008E004F1400052
:1053300005E00829084618BF0C202044403002220E
:1053400002604FEAB100042807D2124A52F8202026
:105350002068C3681A43C26000E020680122FFF79A
:10536000C1FA2068B0F1804F08D00B49884205D0BF
:105370000A49884202D00A49884204D1816801F072
:105380000701062903D0016841F0010101600020F6
:1053900010BD00BFC4CE000800040040000801405A
:1053A00000080040B0B50D4604464FEAB500042899
:1053B00007D2144951F820102068C2681140C1601A
:1053C00000E0206829460022FFF78CFA206841F2AD
:1053D0001112016A114203D1016821F0010101603B
:1053E000042D03D02DB904F1400007E004F144007E
:1053F00004E0082D18BF0C25601940300121016020
:105400000020B0BDD4CE0008F8B50F461D461646A4
:10541000044627B1042F05D104F1440008E004F14B
:10542000400005E0082F384618BF0C2020444030CB
:105430000068022805D0012801D126B91DB101203C
:105440008BE0022089E027B1042F05D104F144004C
:1054500008E004F1400005E0082F384618BF0C2092
:105460002044403002210122016039462068FFF7C4
:1054700039FA2168B1F1804F08D03948814205D00E
:105480003848814202D03848814204D1886800F00F
:105490000700062803D0086840F0010008604FEAC2
:1054A000B700032858D8DFE800F002162A3F206A28
:1054B0002E4A34312B46C2622D4A206A02632D4A9D
:1054C000206A42633246206AFDF7FAF90028B6D115
:1054D0004FF400703CE0606A244A38312B46C262C7
:1054E000234A606A0263234A606A42633246606A02
:1054F000FDF7E6F90028A2D14FF4806028E0A06A09
:105500001A4A3C312B46C262194AA06A0263194A00
:10551000A06A42633246A06AFDF7D2F900287FF400
:105520008EAF4FF4006013E0E06A104A40312B4622
:10553000C2620F4AE06A02630E4AE06A4263324680
:10554000E06AFDF7BDF900287FF479AF4FF4805091
:105550002168CA681043C860002001B0F0BD00BFD8
:105560000004004000080140000800407955000890
:10557000D55500085747000810B5846A216A814252
:105580000FD0616A814212D0A16A814216D0E16ACD
:10559000814219D10821A1618069A8B90120E06484
:1055A00012E00121A161806970B921640CE002213F
:1055B000A161806940B90120606405E00421A16116
:1055C000806908B90120A064204600F036FC002064
:1055D000A06110BD10B5846A216A81420AD0616A57
:1055E000814209D0A16A814208D0E16A814207D193
:1055F000082004E0012002E0022000E00420A06175
:10560000204601F055F90020A06110BDB0B5044658
:1056100000220D462068FFF765F94FEAB500032820
:1056200020D8DFE800F0020910172068C16821F4D3
:105630000071C160206A13E02068C16821F48061B4
:10564000C160606A0CE02068C16821F40061C1603B
:10565000A06A05E02068C16821F48051C160E06A59
:10566000FDF77DF9206841F21112016A114203D160
:10567000016821F001010160042D03D02DB904F16E
:10568000400007E004F1440004E0082D18BF0C2599
:1056900060194030012101600020B0BDB0B5044662
:1056A0000D46DCB1E06B20B90020A063204600F07D
:1056B00017F80220211DE0632068FEF739FF2068FB
:1056C000016821F00801016001682943016001209F
:1056D000206520646064E0630020B0BD0120B0BD9F
:1056E000704710B50446022041F21112E0632068B1
:1056F000016A114203D1016821F0010101602046D5
:1057000000F008F80020206520646064A063E06376
:10571000002010BD7047B0B505460124296C686CA7
:10572000012908BF01280DD10220002101220024F7
:10573000286468642868FFF7D5F8286804210122E6
:10574000FFF7D0F82046B0BD10B504460021002276
:105750002068FFF7C7F8206804210022FFF7C2F88D
:10576000206841F21112016A114203D1016821F04F
:1057700001010160012020646064002010BDB0B50B
:1057800004460125216C606C012908BF012815D150
:10579000022001220025206460642068C16841F075
:1057A0000201C160C16841F00401C1600021FFF73E
:1057B00099F8206804210122FFF794F82846B0BD2B
:1057C00010B5044600222068C16821F00201C160C2
:1057D000C16821F00401C1600021FFF783F820684F
:1057E00004210022FFF77EF8206841F21112016ABD
:1057F000114203D1016821F0010101600120206400
:105800006064002010BD2DE9F84F04460D46002CC1
:1058100042D0E06B20B90020A063204600F040F8A1
:10582000022044F20702E0632068816891438160AE
:10583000211DFEF77DFE20688168D0F818A0D0F801
:1058400020C0D5E9003ED5E902B7D5E90489D5E9FC
:10585000062619432B6A4BEA02224FF6FC4581606B
:105860004FF6FF71AA432AEA01013943114341EA85
:10587000062141EA081141EA033181612CF0AA01B5
:1058800041EA0E0141EA091101620120206520640C
:105890006064E063002000E0012001B0BDE8F08F0B
:1058A000704710B50446022041F21112E0632068EF
:1058B000016A114203D1016821F001010160204613
:1058C00000F008F80020206520646064A063E063B5
:1058D000002010BD704710B504460429236C626C8B
:1058E00005D049B9012B0ED1022020641AE0012A0B
:1058F00009D10220606412E0012B4FF0010008BFC3
:10590000012A02D010BD012010BD02200029206410
:10591000606407D0206800210122FEF7E3FF2068C1
:10592000042101E0206800210122FEF7DBFF20684E
:10593000016841F001010160002010BDB0B50D46C5
:105940000446042D08D015B92068002106E020681F
:1059500000210022FEF7C6FF206804210022FEF786
:10596000C1FF206841F21112016A114203D101689E
:1059700021F00101016045F00400042805D1042D47
:1059800005D03DB904F1400009E00120206404F194
:10599000440004E0082D18BF0C2560194030012197
:1059A00001600020B0BDB0B504460429236C626CD0
:1059B00005D079B9012B14D10220206429E0012AF5
:1059C0000FD1022004210122042560642068FEF723
:1059D00089FF24E0012B4FF0010008BF012A02D00B
:1059E000B0BD0120B0BD022000292064606410D049
:1059F000206800210122FEF775FF206804210122A2
:105A00000425FEF76FFF2068C16841F00201C16004
:105A100005E0206800210122FEF764FF02252068CE
:105A2000C1682943C160016841F0010101600020A3
:105A3000B0BDB0B50D4604463DB12068042D0CD173
:105A400004210022FEF74EFF15E02068002100220D
:105A5000FEF748FF6FF002000FE000210022FEF782
:105A600041FF206804210022FEF73CFF2068C16846
:105A700021F00201C1606FF004002168CA68104083
:105A800041F21112C860086A104203D1086820F080
:105A90000100086045F00400042808D165B1042D18
:105AA00007D0082D18BF0C256019403006E00120F2
:105AB000206404F1440001E004F140000121016090
:105AC0000020B0BD2DE9F84304461E46089D042978
:105AD000236C606C2AD000294FD1022B66D0012B99
