:020000040800F2
:10000000B0200020CD01000861680008D701000879
:10001000DD630008DD26000859BC00080000000070
:10002000000000000000000000000000DF010008E8
:10003000652B000800000000E301000891A80008FB
:10004000E7010008E7010008E7010008E7010008F0
:10005000E7010008E701000867310008AD3100083A
:10006000BB310008C9310008D7310008E70100089A
:10007000E7010008E7010008E7010008E7010008C0
:10008000E7010008E7010008E7010008E7010008B0
:10009000E7010008E7010008E7010008E531000872
:1000A00000000000E7010008E7010008E701000880
:1000B000C1AA0008B5AB0008C5AB0008E7010008FD
:1000C000E7010008E7010008E7010008E701000870
:1000D000E701000805B5000861B60008E70100085F
:1000E00075310008DD790008E7010008E701000824
:1000F000E701000800F002F800F059F80AA090E8C3
:10010000000C82448344AAF10107DA4501D100F0D2
:100110004EF8AFF2090EBAE80F0013F0010F18BF46
:10012000FB1A43F001031847BCE40000DCE40000C4
:10013000103A24BF78C878C1FAD8520724BF30C813
:1001400030C144BF04680C607047000000230024E5
:1001500000250026103A28BF78C1FBD8520728BFD7
:1001600030C148BF0B60704766290DF0F7816429E4
:1001700000F0BE80782900F0F780632900F09B85AD
:10018000732900F0A085002070471FB500F004FE21
:100190000400002000210CF0D7F8401C6060002013
:1001A00000210CF0BBF8E0601FBD10B510BD00F0E1
:1001B00023FF1146FFF7E9FF0BF0B4FF01F0C6F98A
:1001C00003B4FFF7F2FF03BC0BF0E4FD09488047DE
:1001D00009480047FEE7FEE7FEE7FEE7FEE7FEE729
:1001E000FEE7FEE7FEE7FEE704480549054A064B41
:1001F000704700005DAA0008F5000008B00E00205E
:10020000B0200020B0100020B01000207047000087
:100210000FB4044910B503AA029800F059FD10BCB0
:100220005DF814FB780000200FB41CB5074B06AA3C
:100230007B4469460090059800F01BFD002069464C
:1002400000F02AFD1CBC5DF814FB0000650A0000EC
:1002500070B5044685690068C10601D5302600E006
:100260002026C00707D070BDD4E901213046904751
:10027000206A401C20626D1EF6D570BD70B5044624
:1002800085690078C00707D170BDD4E9012120201D
:100290009047206A401C20626D1EF6D570BD70B577
:1002A0000C460546012A05D02878800600D5EA6963
:1002B000002302E0012305E05B1C934202D2E05CD4
:1002C0000028F9D1A869E618C01AA861286A18445C
:1002D00028622846FFF7BCFF04E0D5E9012114F8A5
:1002E000010B9047B442F8D32846FFF7C7FF70BD13
:1002F0002DE9F0410646002410687529314616A5FF
:1003000010D0AFF30080002802DA404213A507E0C6
:1003100031688A0701D512A502E0490704D511A565
:10032000012401E0AFF3008000210A2206F1240736
:1003300009E0B0FBF2FCB0FBF2F302FB1C00303032
:1003400078541846491C0028F3D123462A463046E3
:10035000BDE8F04100F020BA000000002D000000D0
:100360002B0000002000000070B504460D46214619
:100370001068AFF300802188090502D50F4A7A443E
:1003800002E00E4A7A440E32002104F1240305E013
:1003900000F00F060009965D5E54491C0028F7D155
:1003A00020780023000704D5702D02D009B1022364
:1003B00011322046BDE8704000F0EEB9FAE00000CE
:1003C0002DE9F05F894604464FF0000ADFF824B1BA
:1003D000FB44C0F820A02046E168884700287DD073
:1003E000252806D0D4E901219047206A401C2062CC
:1003F000F1E700255F462046E16888472028064649
:1004000007DB312E05D2B81910F8200C08B10543CE
:10041000F1E7A80701D525F00405C4F81CA00027C2
:10042000C4F818A02A2E09D030460BF0ACFC38B323
:1004300004EB8708303EC8F8186019E059F8041B2F
:10044000204604EB87029161E1688847012F064648
:1004500018D1E069002820DA25F020051DE0D8F841
:10046000180000EB800006EB40003038C8F8180098
:100470002046E168884706460BF085FC0028EED14F
:10048000012F0AD02E2E08D12046E16888477F1C14
:100490000646022F45F02005C4DBA069002803DAD8
:1004A000404245F00105A061E80701D025F01005A4
:1004B000A6B1A6F14100192802D8203645F40065FE
:1004C0004A463146204625604D46FFF74DFE60B155
:1004D000012807D0ED1D25F0070000E007E000F13E
:1004E000080978E705F1040975E730467AE7206ADC
:1004F000BDE8F09FD0E0000030B505460B462A4627
:1005000013F8014B12F8010B08B1A042F8D01CB14E
:10051000002802D06D1CF1E7284630BD40EA0103F7
:1005200010B59B070FD1042A0DD310C808C9121F9C
:100530009C42F8D020BA19BA884201D9012010BDD6
:100540004FF0FF3010BD1AB1D30703D0521C07E0A3
:10055000002010BD10F8013B11F8014B1B1B07D107
:1005600010F8013B11F8014B1B1B01D1921EF1D178
:10057000184610BD40EA0103024630B59B0710D172
:100580004FF0013400E008C208C91D1B9D4315EA65
:10059000C41FF8D013F0FF0102F8011B0DD01B0A95
:1005A000F8E711F8013B002B02F8013B05D011F8E8
:1005B000013B002B02F8013BF3D130BD10B5431CC9
:1005C00002E010F8011B71B18107FAD14FF001323E
:1005D00002C88C1A8C4314EAC211F9D0C01A0A0658
:1005E00003D0C01E10BDC01A10BD0A0401D0801E69
:1005F00010BD0902FCD0401E10BD032A40F230801D
:1006000010F0030C00F0158011F8013BBCF1020F53
:10061000624498BF11F801CB00F8013B38BF11F8D4
:10062000013BA2F1040298BF00F801CB38BF00F8EB
:10063000013B11F0030300F02580083AC0F0088068
:1006400051F8043B083A51F804CBA0E80810F5E74C
:10065000121D5CBF51F8043B40F8043BAFF300802F
:10066000D20724BF11F8013B11F801CB48BF11F8A4
:10067000012B24BF00F8013B00F801CB48BF00F874
:10068000012B704710B5203AC0F00B80B1E818502C
:10069000203AA0E81850B1E81850A0E81850BFF46C
:1006A000F5AF5FEA027C24BFB1E81850A0E818500B
:1006B00044BF18C918C0BDE810405FEA827C24BF5F
:1006C00051F8043B40F8043B08BF7047D20728BFED
:1006D00031F8023B48BF11F8012B28BF20F8023B3C
:1006E00048BF00F8012B70474FF000020429C0F00A
:1006F000128010F0030C00F01B80CCF1040CBCF154
:10070000020F18BF00F8012BA8BF20F8022BA1EBA5
:100710000C0100F00DB85FEAC17C24BF00F8012B8A
:1007200000F8012B48BF00F8012B70474FF0000282
:1007300000B5134694469646203922BFA0E80C50D7
:10074000A0E80C50B1F12001BFF4F7AF090728BFB2
:10075000A0E80C5048BF0CC05DF804EB890028BF2E
:1007600040F8042B08BF704748BF20F8022B11F057
:10077000804F18BF00F8012B7047704770477047D3
:10078000704710B500F00CFB006810BD10B50446B2
:1007900000F006FB046010BD2DE9F0470D469946B8
:1007A0009246044600F124080168880604D5E069F1
:1007B00021F01001216000E00120A84201DD471B6B
:1007C00000E00027A1697A1902EB0900081AA0616C
:1007D0002078C00602D42046FFF73AFD002608E044
:1007E000D4E901211AF806009047206A401C761CC3
:1007F00020624E45F4DB2078C0060AD52046FFF77C
:1008000027FD06E0D4E9012130209047206A401CF2
:100810002062381EA7F10107F4DC07E0D4E90121CA
:1008200018F805009047206A401C2062281EA5F198
:100830000105F3DC2046FFF721FD2078000602D5F4
:100840000220BDE8F0870120FBE770472DE9FF4F4C
:100850000C461E464FF0FF378BB0D2E90001DDF8A1
:1008600060800A908A46C1F30A5505B93D460021C9
:1008700008464FF00000BAF1000F00F4400005DA1E
:1008800000EB80004FF4400101EA50004FEA90591C
:10089000B9F1010F00DDB9460A9850EA4A000ED0BE
:1008A00044F61050A5F2FF3545432F14B8F1000F60
:1008B0001ED07542291E1EDDC9F100021CE0B8F1F0
:1008C000010F4FF0000001D0302103E0F24305E0BA
:1008D0002154401CB042FBDB304600220021215451
:1008E0000B99C1F80880C1E900200FB0BDE8F08F76
:1008F000BD1B6D1CDEE74A4600DA694206A800F01F
:1009000001FB06AB93E8070003AB83E80700504602
:100910000A9901F0B0F88DE80700A0F500501F38E3
:1009200000900398002D0ADD42F21F014A46084458
:10093000002303A90390684601F05CFB09E0A0F5E1
:1009400000504A461F38002303A90390684601F06F
:100950007BFB8DE807000004000C03D04FF0FF3054
:10096000410800E01046B8F1000F03D000220092C9
:1009700015461EE0751E05D400F016FA3032625599
:100980006D1EF9D5B3460122084302D000227F1C18
:1009900004E02078302801D100227F1E002A099728
:1009A00084D01DE0112D07DA00F0FEF930326255D7
:1009B0006D1C50EA0102F5D1084302D00098C8B17D
:1009C0000EE00021681E05E0235C625C6354225443
:1009D000401E491C8142F7DBAB46A81B401E099014
:1009E000002004F80B000B98099AC0F80880C0E9B1
:1009F000002B7AE711264FF0000857E72DE9F04F5A
:100A000088460446D21D22F0070191B0D1E90001C9
:100A1000CDE90A010BF022F902460B98C00F01D074
:100A20002D2007E02068810701D52B2002E020213E
:100A300001EAC000032A099001D0072A05DB03461A
:100A40004146204600F0FEF90BE12078800601D5F2
:100A5000E06900E00620B8F1650F814606D0B8F1E4
:100A6000660F18D0B8F1670F70D131E00020B9F1EE
:100A7000110F009001DB112301E009F101030AAA23
:100A800001A90CA8FFF7E2FEDDE90C70002609F1D0
:100A90000105834647E001204B4600904FF0004798
:100AA0000AAA01A90CA8FFF7D1FEDDE90DB00C9947
:100AB0005D46002610B909F101000D18B9EB0500DB
:100AC00003D4C0F1FF3609F10105A5EB09002BE0C5
:100AD000B9F1010F01DA4FF001090020B9F1110F4E
:100AE0000090484601DD112300E003460AAA01A94F
:100AF0000CA8FFF7ABFEDDE90C704D4600268346DF
:100B0000207800070AD4AB4500DA5D4601A8012D24
:100B100004DD411911F8011C302907D04F4502DAD4
:100B200017F1040F04DA012082460FE06D1EEEE794
:100B3000002F02DCED1B3E4403E0781CA84200DDE0
:100B40007D1CB81B00F1010A4FF000472078000718
:100B500003D4AA4501DB4FF0FF3A0021B7F1004F63
:100B60000DF143088DF8431024D002202B23002FD1
:100B700001DA7F422D230A21021EA0F1010000DCD0
:100B80005FB197FBF1FC97FBF1F201FB1C7C174670
:100B90000CF1300C08F801CDEEE7A8F1010003706C
:100BA0002188090501D5452100E06521A0F1010852
:100BB00000F8011C09980FA9A1EB0807FF1D00B15F
:100BC0000120411901EBEA70A1693844081A401E5E
:100BD000A0612078C00602D42046FFF739FB0998AF
:100BE00028B1D4E901219047206A401C2062207876
:100BF000C00622D52046FFF72BFB1EE0002E04DBAB
:100C0000B34502DD01A8805D00E03020D4E9012178
:100C10009047206A401C2062761CAAF101005FEA1E
:100C2000000A0AD100F0B8F8C0680168405CD4E955
:100C300001219047206A401C2062281EA5F1010571
:100C4000DCDC07E0D4E9012118F8010B9047206AA9
:100C5000401C2062381EA7F10107F3DC2046FFF795
:100C60000DFB032011B041E601694A1C02610878BE
:100C7000704700B58FB0CDE90131002105910549DC
:100C80007944CDE9031011466846FFF799FB0FB090
:100C900000BD0000E5FFFFFF0A6802F8010B0A60D3
:100CA000704710B5436913B1AFF3008001E0FFF75F
:100CB000F6FA012010BD127800F124010A7000221A
:100CC0004A700122EDE711684FF0FF32E9E70000BA
:100CD000074B70B50D467B44FFF7CBFF0446284613
:100CE00000F082F910B14FF0FF3070BD204670BDAA
:100CF000A3B200000FB4002300B589B00CA9009185
:100D00000B99CB60214B7B440693214B7B4407938B
:100D100004236FF00042CDE901321E4A7A446B464B
:100D20000892024600200CF07BFC09B05DF814FB31
:100D300070B506464FF0FF3015460C46324686B079
:100D40000091CDE9010169460020049004A8FFF755
:100D5000D1FF02460498211825B108B1084600E0E9
:100D600020462860049800280DD0002A02DD009853
:100D7000884208D03246081B69460094CDE9010438
:100D800004A8FFF7B7FF06B070BD0000BB0100006C
:100D9000D30100001301000000487047700E0020CE
:100DA00000487047500E002030B5B0F10A024FEAFB
:100DB000900E71F100034EEA817EB0EB0E0061EB04
:100DC00091014FEA101E4EEA017E10EB0E0041EB3E
:100DD00011114FEA102E4EEA016E10EB0E0041EB9E
:100DE00011214FEA104E4EEA014E10EB0E0041EB7E
:100DF0001141401841F100014FEAD00040EA417032
:100E00004FEAD10110EB80054FEA810444EA907467
:100E100044EB01046D1944EB0404521BA3414FF051
:100E2000000348BF0A3200D530BD401C41F100012B
:100E300030BD10B5044600F005F90068005D00F013
:100E4000010010BD2DE9F0411F460446032601684C
:100E5000072A01F4006004DB08B116A505E016A519
:100E600003E008B115A500E015A521F010002060F1
:100E7000A069C01EA0610FB1401EA0612046FFF70F
:100E8000E7F94FB1D4E9012138469047206A401C68
:100E90002062C01C206206E0206AFAE7D4E9012142
:100EA00015F8010B9047761EF8D22046FFF7E6F9B9
:100EB000BDE8F0814E414E006E616E00494E460025
:100EC000696E6600426842B1016811F8013B23B1C6
:100ED000521EC0E90012184670470121C160881EE9
:100EE000704742685AB1C368016843B983688B424E
:100EF00005D0491E521CC0E90012002070474FF077
:100F0000FF3070472DE9F047814616468AB03548D4
:100F100078440DC88DE80D0032487844801C03AC3D
:100F20000DC884E80D0041F69B300844372190FB42
:100F3000F1F290FBF1F5A5F1800501FB12041B3CD9
:100F400002D56442012000E00020DFF898A080462E
:100F50000027FA44AAF1BE0A0EE0E0070AD03246A2
:100F6000684607EB470101230AEB810101F06CF8A9
:100F70008DE8070064107F1C002CEED1194F7F44D0
:100F8000AE3F19E0E80715D007EB04100DF1180A81
:100F900090E80E008AE80E00C068F04201D198196E
:100FA00008903246012306A903A801F04DF803ABCF
:100FB00083E807006D10641C002DE3D14FF001039E
:100FC00032466946B8F1000F03A802D001F012F8CA
:100FD00001E001F039F8C9E90001C9F808200AB0B8
:100FE000BDE8F08720D60000007B00F0800070474D
:100FF00000487047500E00207546FFF7F9FFAE46D7
:1010000005006946534620F00700854618B020B514
:10101000FFF7EAF8BDE820404FF000064FF0000768
:101020004FF000084FF0000B21F00701AC46ACE890
:10103000C009ACE8C009ACE8C009ACE8C0098D46FD
:101040007047000010B5FFF7A7FE001D10BD00BFE0
:10105000F9B200002DE9FF4F06468BB00878FF2853
:1010600006D0491C2D2805D000244FF0000908E0C7
:1010700000200CE00124F8E709EB8903491C00EB90
:1010800043090878FF28F7D114B1C9F1000081465F
:10109000107800252C46AA4629462D2801D02B2859
:1010A00004D1521C2D2813D0002082468B46107884
:1010B000FF280FD04FF0000C0A21521CA5FB01782D
:1010C00004FB018105FB0C11C5194BEB0104EEE794
:1010D0000120EAE7002108464FF00000BAF1000FB6
:1010E00002D000EB80004008C0F38157012F01DDE2
:1010F0004FF0FF370E9955EA040009EB01080BD0B9
:101100004FF0020918F5FA7F16DA4FEACA70002F7D
:10111000706008DD012007E04FEACA70C6E900B040
:101120000FB0BDE8F08F00203060FFF739FEC0F847
:1011300000901821084616E0B8F5FA7F18DD002F58
:1011400002DAF748784401E0F6487844D0E9001024
:10115000C6E9001040EACA707060FFF721FEC0F8CF
:101160000090142108460FB0BDE8F04F0CF0F3B921
:10117000002108464FF00000B8F10001099002DAA2
:10118000C7F1000200E03A4601DAC8F1000106A802
:10119000FFF7B8FE06AB93E8070003AB83E8070050
:1011A00044F23E005BEA04010090584604D144F248
:1011B0001E012C465D460091210C0904014306D115
:1011C0000099240444EA15442D041039009104F0D8
:1011D0007F41014306D10099240244EA15642D029F
:1011E0000839009104F07041014306D100992401AF
:1011F00044EA15742D01091F009104F04041014398
:1012000006D10099A40044EA9574AD00891E0091AE
:1012100004F00041084304D100986D196441401E58
:1012200000904FF001033A466846B8F1000FCDE94F
:10123000014503A902DD00F01CFF01E000F0EFFE14
:10124000BAF1000F04460D4601D084F0004400219D
:1012500008464FF00000099940F2FF77484010F02F
:101260000C0F07D124F00040284303D0C4F30A50E8
:10127000B84212D1FFF794FDC0F80090C4F30A50B1
:10128000B8420AD1A8487844D0E90010C6E9001055
:1012900004F000410843706042E7C6E900543FE7AC
:1012A0002DE9FF4F1F464FF0000A4FF0FF3845462B
:1012B00091B0D7E90146CDF83CA0FFF76DFDC068BD
:1012C0000168405C1090B96912986D1C8847396AB2
:1012D000814688470028F6D1B9F1FF3F0AD0002E99
:1012E00024F4D06411DDB9F12B0F08D0B9F12D0F22
:1012F0000BD102E0404615B013E744F48064B969AD
:1013000012986D1C8847761E8146600504A901D598
:101310002D2000E02B20002E01F1010B0DF13008F3
:101320008DF810003FDDB9F1690F08D0B9F1490F10
:1013300005D0B9F16E0F02D0B9F14E0F1CD13B466A
:1013400001A8009580E85002DDE912126FF002005A
:101350000CF06AF9C11CCED10EE0B96912986D1C6F
:10136000884781461398761E44F4007405600F98F0
:10137000401C002E0F9016DDB9F1300FEDD0B9F101
:10138000780F02D0B9F1580F0DD10F9801280AD16A
:101390003B46CDE90054DDE91212001F02960CF025
:1013A00041F9C11CA7D1109989453ED144F0800470
:1013B00006E01399681CAAF1010A44F4007408605D
:1013C000B9696D1C1298761E884730288146F0D086
:1013D0002BE01099894505D1200603D4761E44F0F0
:1013E000800418E048460AF0CEFC08B3761E0DF1E2
:1013F00023018B4544F4007408D2A9F130000BF8A6
:10140000010B200607D5AAF1010003E0200602D453
:101410000AF101008246A00502D51399681C0860F4
:10142000B96912986D1C88478146002ED1DC53E0C3
:10143000002E51DDB9F1650F02D0B9F1450F4BD146
:10144000A00549D5B9696D1C1298761E24F4407424
:101450008847002E81460CDD2B2804D0B9F12D0FD2
:1014600007D144F48074B96912986D1C8847761EC0
:101470008146E00501D52D2100E02B2108F8011B54
:10148000CDF8008021E0761E0DF13901884544F445
:1014900000740CD2A9F1300010F0FF0088F80000B1
:1014A00002D10099884509D908F1010806E0E00554
:1014B00001D51E4801E042F20F708246B9691298C8
:1014C0006D1C8847814613980560002E04DD484650
:1014D0000AF059FC0028D6D1F96912988847FF20F4
:1014E00053468BF8000088F8000000200A900B900B
:1014F00004AA0CA90AA8FFF7ADFDA00502D46FF05D
:101500000100F8E614F0240F12D0E0071CD138686F
:10151000DDE90A12031D3B600068C0E9001213E018
:10152000C4D40000B6D400007AD30000F1D8FFFF85
:101530000AA968460AF0B6FBE00705D13868009AA8
:10154000011D3960006802602846D4E610B50446E3
:10155000AFF300802046BDE81040FEF731BE00002A
:101560004FF0013C50F8042B51F8043B9A4221D132
:10157000A2EB0C03934313EACC1317D150F8042BBE
:1015800051F8043B9A4215D1A2EB0C03934313EAA2
:10159000CC130BD150F8042B51F8043B9A4209D1DB
:1015A000A2EB0C03934313EACC13DBD04FF0000003
:1015B000704700BFD01A01BAB1FA81F101F01801E9
:1015C00022FA01F0CB40C1F12001DBB2C0B2C01A57
:1015D0002CFA01F3D11A914311EAC311E6D17047F5
:1015E0002DE9FF4F1F464FF03C0987B04FF00042F6
:1015F000DDE9141001F10108DDF858A002EA4050BD
:101600000390002005908346054604460490B9697E
:10161000461E08988847AAF1010A0290BAF1000F05
:101620003BDD02982E2815D0102100F016FA002874
:101630002EDB4FF0010B0599014317D0B9F1000FD4
:101640000BDB4A46C11700F0F5F905430C43A9F13D
:10165000040905E0012004900BE008B145F0010504
:1016600001200590049820B9361D02E0049800B1CD
:10167000361FB969089808F101088847BBF1000FC7
:10168000AAF1010A0290C9D00999C1F80080C5E702
:101690000298702808D0502806D0F9690898884721
:1016A000BBF1000F14D04FE0002002900120BBF1ED
:1016B000000F049009D0B969089808F1010888471B
:1016C000AAF10109B9F1000F07DCF9690898884708
:1016D0006FF001000BB0BDE8F08F2B2804D02D284F
:1016E0000CD14FF0FF300490B969089808F1010857
:1016F0008847A9F10109B9F1000FE6DD411CE4D0EA
:101700000A2100F0AAF90028DFDB029908F101089C
:1017100001EB810100EB41000290B969089888470C
:101720000A2100F09AF9099AA9F10109B9F1000F0B
:10173000C2F8008001DD0028E7DAF96908988847D7
:101740000499029800FB016655EA040004D004F0F5
:101750004041090002D006E0039898E0A40044EA62
:101760009574AD00B61E04F00041080002D16D1959
:101770006441761E159810F0240F03D04FF00B092A
:101780005C4803E04FF028096FF07D008246564523
:1017900007DAAAEB06018944B9F1410F01DD4FF0E8
:1017A000410901200021A9F1010200F043F902469C
:1017B00028400B462140084301D0012100E00021D0
:1017C000501E029143F1FF3128402140084301D0CF
:1017D000012000E000200299834651EA0B014FD01E
:1017E000002108464FF00000039900F4400039B191
:1017F00000EB80004FF4400100EBD07001EA600084
:101800008015012802DD4FF0FF3000E013D0401CAE
:1018100036D0029860B3BBF1000F0CD14A460120CC
:10182000002100F007F928402140084301D00120A1
:1018300000E00020E0B101204A46002100F0FAF863
:10184000034640190A4661412D1A8C4111D3B9F162
:10185000400F09DD159810F0240F02D0AAF13406CC
:1018600003E0AAF1170600E0761C00254FF00044C3
:1018700006E05B1E42F1FF3220EA030521EA020482
:10188000CAF10100B04206DA1B49039808430190EF
:10189000002000900EE0039AC4F3D321E80A0A4323
:1018A000164940EA44500A433146CDE900026846F1
:1018B0000AF05EFA159810F0240F0BD01598C007A7
:1018C00015D13868DDE90012031D3B600068C0E9EE
:1018D00000120CE002A869460AF0E4F91598C00766
:1018E00005D13868029A011D3960006802604046DF
:1018F000F0E6000002FCFFFF0000F07F0000F03F78
:101900002DE9FF4F92461D4685B04FF00041DDE9BD
:10191000124BDDE914727F1E01EA4B50414940F041
:10192000FF4940EA0108002122F0200049280491E3
:1019300002D04E2828D04CE03BA0012607C88DE8F5
:101940000700A9690698641C88477F1E014606D4D3
:101950001DF8060018B121F0200181420BD0E96981
:1019600006988847032E34D0082E32D06FF001003D
:1019700009B0BDE8F08F761C032E01D0082EE0D10F
:10198000601CCAF80000DCE7A9690698641C884757
:101990007F1E2AD420F02000412826D1A96906986C
:1019A000641C88477F1E20D420F020004E281CD1C4
:1019B000A9690698641C88477F1E48F4002849F4EA
:1019C0008009CAF8004001D4282806D0E9690698A1
:1019D00088475FEACB7012D022E0A9690698641CA0
:1019E00088477F1E01D4002803DAE96906988847F2
:1019F000BCE72928F1D1641CCAF80040E9E71BF0D4
:101A0000240F07D028680499031D2B600068C0E9E3
:101A1000001805E02868021D2A600068C0F80090E0
:101A20002046A5E70000F07F494E46494E495459EB
:101A300000000000B2F120030AD5C2F1200301FA30
:101A400002F120FA03F300FA02F041EA03017047C1
:101A500000FA03F14FF0000070473A2800D2303806
:101A600020F02002412A01D3A2F13700884201D39D
:101A70004FF0FF3070475FEA400C08BF91F0000F55
:101A80004FEA8C234FEAC12243EA51514FEA1C50DE
:101A900018BF00F5F0404FEA300018BF41F0004198
:101AA0005FEA6C5C00F02980BCF1FF3F08BF40F0AA
:101AB00080407047130C06BF12044FF0100C4FF01B
:101AC000000C130E04BF12020CF1080C130F04BF1C
:101AD00012010CF1040C930F04BF92000CF1020CE4
:101AE000D30F04BF52000CF1010C11464FF000025D
:101AF000A0F11F00A0EB0C00704711F0004F08BFD1
:101B0000704731F000413FF4D5AF0B0C06BF09041C
:101B10004FF0100C4FF0000C0B0E04BF09020CF13B
:101B2000080C0B0F04BF09010CF1040C8B0F04BF50
:101B300089000CF1020CCB0F04BF49000CF1010C21
:101B4000CCF12003A0EB0C0022FA03F302FA0CF212
:101B500041EA030100F10100704720F07F4C80EA68
:101B6000030023F07F47ACEB070303F57C5300F041
:101B7000004003F1FF032DE980494FEA154B09B4FA
:101B80004FEA144325EA0B4E24EA03480FF20426D9
:101B900006EB132749083E785FEA320203FB06672B
:101BA000C7F5000707FB06F64FEA54374FEAD6465B
:101BB00006F1020607FB066CCCF1005C4FEA1C47FD
:101BC0002CEA074C07FB06F40CFB06F504EB154664
:101BD0004FEA961634BF00204FF000404FEAD1374D
:101BE00006FB07FC4FEA1C4C0CFB0BF7D21B03FB5C
:101BF0000CF761EB07010CFB0EF7B0EB074072EB43
:101C000017420CFB08F734BFA2EB0742B2EB0742C6
:101C100061EB17414FEA0C444FEA910706FB07FCC2
:101C20004FEA1C4C0CFB0BF7B0EBC74072EB573282
:101C300003FB0CF734BFA2EBC742B2EBC74261EB28
:101C400057310CFB0EF7B0EBC70072EB57720CFB71
:101C500008F734BFA2EBC702B2EBC70261EB5771C2
:101C6000039F4FEA816141EA921104EBCC044FEAF1
:101C7000D1374FEA826206FB07FC42EA90124FEA34
:101C800080604FEA1C4C0CFB0BF7D21B03FB0CF7DC
:101C900061EB07010CFB0EF7B0EB074072EB17424C
:101CA0000CFB08F734BFA2EB0742B2EB074261EB33
:101CB00017414FEA8C554FEA910704EB9C2406FB31
:101CC00007FC4FEA1C4C0CFB0BF7B0EBC74072EB68
:101CD000573203FB0CF734BFA2EBC742B2EBC7424B
:101CE00061EB57310CFB0EF7B0EBC70072EB57728C
:101CF0000CFB08F734BFA2EBC702B2EBC70261EBE3
:101D0000577115EB4C254FEA816141EA92114FEA78
:101D100082624FEAD13742EA901206FB07FC44F197
:101D200000044FEA80604FEA1C4C0CFB0BF7D21BFF
:101D300003FB0CF761EB07010CFB0EF7B0EB074060
:101D400072EB17420CFB08F734BFA2EB0742B2EB71
:101D5000074261EB174115EB1C154FEA813141EA4F
:101D600092414FEA823242EA90424FEA80304FEA93
:101D70000C7644F1000448EA03434EEA0B484FF066
:101D8000000EB2EB080C71EB030724BF6246394624
:101D90004EEB0E0E4FF0000B0018524149414BEB39
:101DA0000B0BB2EB080C71EB03077BF1000B24BFAC
:101DB000624639464EEB0E0E4FF0000B00185241B2
:101DC00049414BEB0B0BB2EB080C71EB03077BF1BA
:101DD000000B24BF624639464EEB0E0E51EA020755
:101DE00018BF46F0010616EB0E7655F1000254F1CD
:101DF000000103D5BDE88901BDE80088BDE889017F
:101E0000BDE80048B619524141EB0101A3F10103BD
:101E1000704780807F7E7D7C7B7A79787776767557
:101E20007473727171706F6E6E6D6C6C6B6A6A69CF
:101E30006868676666656464636362616160605F69
:101E40005F5E5E5D5D5C5C5B5B5A5A5959585857E2
:101E5000575656555555545453535252525151504A
:101E600050504F4F4F4E4E4D4D4D4C4C4C4B4B4B9D
:101E70004A4A4A49494948484847474747464646E3
:101E8000454545444444444343434342424242411E
:101E90004141000046EA0646A3F570534FEA164654
:101EA00046EA42564FEAD22242EA415210B54FEA80
:101EB000D121A3F1010300F02FF820F0004000F140
:101EC000020C00F0004701EB00501146BCF5006F1A
:101ED00040EA070000D210BDBAF1000F0AD01CB5CD
:101EE00003B44FF004004FF004014FF000000FBCAA
:101EF000BDE810404FF00001BBF1010FB9BF04482D
:101F00004FF0FF310348002140EA070010BD00BF39
:101F1000FFFFEF7F0000F07F002B9C4630D477005E
:101F20002BD01CB54FEA370703B44FF010004FF029
:101F30001001BAF1000F06D0BCF1000FDCBF40F079
:101F4000080040F008014FF000000FBCBDE8104051
:101F50000BF1010BBBF1010F08BF5FEA170722BFAE
:101F600012F1010211F101014FF0004143F10003B0
:101F700000F0004043EA00007047F9D35708D0E76B
:101F800046EA064613F1400F4FEA16461FDD13F1ED
:101F9000200FDFBF16430A46002120335B42BED02C
:101FA000C3F1200746EA064602FA07F74FEA16464B
:101FB00046EA0706C3F1200722FA03F201FA07F7FF
:101FC00021FA03F14FF0000342EA0702A7E746EACD
:101FD000020646EA06464FEA164646EA0106BCBF36
:101FE00046EA0646360C4FF000034FF000024FF071
:101FF000000194E72DE9804C9A46934670B491E82D
:10200000380007C831EA400C48BF34EA430C03D516
:10201000FFF7A3FDFFF780FFF0BCBDE8008C2DE9C2
:10202000804C9A46934670B491E8380007C831EA6C
:10203000400C48BF34EA430C03D5FFF78EFDFFF791
:1020400029FFF0BCBDE8008C2DE9804C9A469346F0
:1020500070B491E8380007C810F0804F08BF13F043
:10206000804F03D100F01AF8FFF756FFF0BCBDE82F
:10207000008C2DE9804C9A46934670B491E8380064
:1020800007C810F0804F08BF13F0804F03D100F055
:1020900005F8FFF7FFFEF0BCBDE8008C20F07F479D
:1020A00080EA030023F07F4C07EB0C03A3F57C537D
:1020B00000F00040A3F1FE0392F0000F00F0B380A7
:1020C00095F0000F00F077802DE901494FEA1140AB
:1020D0004FEA144621EA004800FB06FC24EA0647C2
:1020E00008FB06F607FB08F800FB07F718EB0648A5
:1020F0004CEB164C4FEA124B18EB07484FEA1546CB
:102100004CEB174022EA0B4E0BFB06FC25EA064778
:102110000EFB06F607FB0EFE0BFB07F71EEB064E4B
:102120004CEB164C4FF000061EEB074E4CEB174BDA
:1021300018EB0B0840F1000018EB0E0B58EB0008F1
:1021400040F100008F1A4FF000013CBFC943661BED
:1021500014BFB5EB040C00213CBFC943F61B4FEA8A
:1021600017444EEA8E0E27EA04454FEA1C4704FB4B
:1021700007622CEA074C05FB07F70CFB05F604FB8E
:102180000CFC16EB074642EB174216EB0C4642EBF3
:102190001C421BEB060658EB0202414146EA9E0632
:1021A00001D5BDE80189B619524141EB0101A3F106
:1021B0000103BDE801894FEA14454FEA114724EABB
:1021C000054621EA074C05FB07F406FB07F70CFB65
:1021D00006F105FB0CFC11EB074144EB17444FEAF9
:1021E000124711EB0C4144EB1C4422EA074C05FB5F
:1021F00007F206FB07F70CFB06F605FB0CFC16EBDB
:10220000074642EB174216EB0C4642EB1C456A1898
:1022100054F1000148BF7047B619524141EB01012A
:10222000A3F10103704795F0000F37D04FEA114238
:102230004FEA144721EA024624EA074C02FB07F161
:1022400006FB07F70CFB06F402FB0CFC14EB07443F
:1022500041EB17414FEA154714EB0C4441EB1C418D
:1022600025EA074C02FB07F506FB07F70CFB06F611
:1022700002FB0CFC16EB074645EB174516EB0C462C
:1022800045EB1C42121951F1000148BF7047B619C5
:10229000524141EB0101A3F1010370474FEA14459C
:1022A0004FEA114724EA054621EA074C05FB07F1EE
:1022B00006FB07F70CFB06F24FF0000605FB0CFCD3
:1022C00012EB074241EB174112EB0C4251EB1C4160
:1022D00048BF7047921841EB0101A3F10103704719
:1022E00010B506F08BF9002400224FF480511D48F0
:1022F00001F0EEFE00224FF400611B4801F0E8FE01
:102300000121562006F062F900BF01E0601CC4B252
:10231000282CFBDB0021562006F058F9002401E0B0
:10232000601CC4B2282CFBDB41F6F571552006F089
:102330004DF9002401E0601CC4B2282CFBDB012213
:10234000D102094801F0C4FE002401E0601CC4B2BF
:10235000282CFBDB00224FF40061034801F0B8FE9B
:1023600010BD0000000002400004024070B50546A8
:10237000052D1FD10121562006F028F9002401E087
:10238000601CC4B2282CFBDB0021562006F01EF98D
:10239000002401E0601CC4B2282CFBDB41F6F5717F
:1023A000552006F013F9002401E0601CC4B2282C6B
:1023B000FBDB42E0062D1FD10121562006F006F975
:1023C000002401E0601CC4B2282CFBDB0021562055
:1023D00006F0FCF8002401E0601CC4B2282CFBDBF2
:1023E00041F6F671552006F0F1F8002401E0601C7A
:1023F000C4B2282CFBDB20E0072D1ED10121562082
:1024000006F0E4F8002401E0601CC4B2282CFBDBD9
:102410000021562006F0DAF8002401E0601CC4B266
:10242000282CFBDB41F6F771552006F0CFF800248D
:1024300001E0601CC4B2282CFBDB70BD70B5044603
:10244000002520E000222021104801F041FE04F088
:10245000800028B1012280210C4801F039FE04E0FF
:1024600000228021094801F033FE01222021074883
:1024700001F02EFE6006040E00222021034801F028
:1024800027FE681CC5B2082DDCDB70BD00000240D1
:1024900070B504462546E11704EB1161C1F307202E
:1024A000FFF7CCFFE0B2FFF7C9FF70BD70B504467F
:1024B000FFF716FF0A2000F056FB0520FFF756FF36
:1024C0000A2000F050FB20460AF08AFE0546294605
:1024D000052000F095F9214601A0FDF799FE70BD99
:1024E000414435343130C9E8D6C3CEAA347E3230C7
:1024F0006D41C4A3CABDA3ACCAE4B3F6B5E7C1F746
:102500003D25646D410D0A000021014A117070479C
:102510006C00002010B50446012C01D105F084FFA9
:102520000148047010BD00003100002000B585B0E6
:102530001648FFF7E9FF164808F02AF806F098FA5F
:1025400000200090034603225021019002A801F0D0
:10255000BBF900200090034603225121019002A8FC
:1025600001F0B2F900200090034602462E210190AE
:1025700002A801F0A9F900200090034602462F218D
:10258000019002A801F0A0F905B000BDCC05002023
:10259000280D002072B603480078401C01490870DD
:1025A000704700001C00002004480078401E0349CA
:1025B00008700846007800B962B670471C00002019
:1025C00008B51348007840B901F0C6FD08F066F977
:1025D00005F0D2FE00F050F801E008F0BBF94FF032
:1025E000FF301D231E221F2100900A4808F06EF8BC
:1025F00006F060FA0648007840B9012004490870E6
:1026000001F044F9012801D100F06AF808BD00008A
:102610001A000020280D00201CB500200090034661
:10262000012213210190114801F04EF90020009081
:1026300003460122142101900D4801F045F90020C4
:10264000012103460A46CDE900100821094801F09E
:102650003BF90121054801F0D8FA0121044801F0B5
:10266000D4FA0021034801F0D0FA1CBD84050020F3
:10267000900500209C05002000B585B001F006F90A
:10268000012811D100200090034603220B21019064
:1026900002A801F019F900200090034603220C2142
:1026A000019002A801F010F90020009001230322FC
:1026B0001221019002A801F007F9002000900346C2
:1026C00003220821019002A801F0FEF801F046FB68
:1026D00001F030FB01F038FB05B000BD00BFFEE7A4
:1026E00010B50B48007890B90A490B4808F0C2FBB6
:1026F0004FF47A71084808F089FC074808F090FC0C
:1027000001E008F051FC024800780028F9D010BD23
:102710001B0000203D7800088006002010B502460E
:10272000002003E013780344D8B2521C0B1EA1F121
:102730000104E1B2F6D110BD10B50246002003E05D
:1027400013780344D8B2521C0B1EA1F10104E1B26C
:10275000F6D110BD10B50246002003E01378034403
:10276000D8B2521C0B1EA1F10104E1B2F6D110BD8A
:1027700010B54FF480710448FDF7B6FF00200349FF
:1027800008800349087010BDDB0900204E000020BE
:10279000500000202DE9F05F06460F461446002544
:1027A000394630460AF062FE8246394620460AF033
:1027B0005DFE83464FF083410AF05AFD8146514643
:1027C0000AF010FC80464FF081410AF09DFB05465F
:1027D0000A4928460AF018FE01D2084D07E04FF0DA
:1027E000814128460AF010FD01D24FF0814529466B
:1027F000052000F005F82846BDE8F09F0000A04144
:102800002DE9F04105460E46052D23D14FF08141BB
:1028100030460AF0F9FC02D24FF0814615E02D490E
:1028200030460AF0F1FD02D84FF6F0740DE04FF09B
:10283000814130460AF01AFE80464FF08B410AF083
:1028400017FD07460AF090FC84B22146012005F0EE
:10285000BDFE3CE0062D1CD11E4930460AF0D4FDD9
:1028600002D84FF6F0740FE01A4930460AF0BAFB6E
:1028700080464FF08B410AF0FBFC07460AF074FCDF
:102880004FF6FF7101EA00142146012005F09EFE7B
:102890001DE0072D1BD1104930460AF0B5FD02D8C6
:1028A0004FF6F0740FE00C4930460AF09BFB80466F
:1028B0004FF08B410AF0DCFC07460AF055FC4FF65E
:1028C000FF7101EA00142146012005F07FFEBDE8FA
:1028D000F08100000000A0410000C04100B589B0B7
:1028E00000BF1E48006840F000501C4908600846C0
:1028F000006800F00050019000BF00BF00BF174803
:102900000838006840F0010014490839086008469A
:10291000006800F00100019000BF00BF102004908B
:10292000032005900020069004A90D4801F0E0FA6C
:102930000C480D490860084601F09BF90020029000
:1029400002200390002202A9074801F066F9002145
:10295000054801F0B9F909B000BD00002438024073
:102960000000024000740040940600202DE9F84F5A
:1029700004460D464FF06632184B2046294609F0B2
:10298000E7FD06460022164B0AF03AF804460D46CB
:102990000022144B204629460AF032F880460022D5
:1029A000114B09F019FD064600220E4B09F0D0FD2F
:1029B000824609F091FF009009F0D2FF04460D46CF
:1029C0002046294609F088FF064633460022114674
:1029D000064801F063F9BDE8F88F000066660A401A
:1029E0000000B04000002440000014409406002085
:1029F00070B504460D46FFF771FF0A2000F0B3F8EA
:102A000020462946FFF7B2FF22462B4601A0FDF7DC
:102A1000FFFB70BD444143CAE4B3F6B5E7D1B93D0D
:102A200025322E3266560D0A0000000010B590B017
:102A30004FF480513B4800F0F9FD55208DF800001F
:102A4000AA208DF8010002226946364800F01EFED9
:102A500040216846FDF76AFE17208DF800007020BF
:102A60008DF80100042230492E48083000F00EFE97
:102A7000022269462B480C3000F008FE40212B480A
:102A8000FDF754FE40212A48FDF750FE2948FDF786
:102A900095FD0446224627492248103000F0F6FDF5
:102AA0002548FDF78BFD0446224623491D4850303A
:102AB00000F0ECFD012221491A48903000F0E6FDBB
:102AC00001221F491748983000F0E0FD4021684678
:102AD000FDF72CFE00208DF8000001208DF801008C
:102AE000022269460F48A03000F0D0FD4021684620
:102AF000FDF71CFE19208DF80000DB208DF8010089
:102B000043208DF8020040208DF80300042269461E
:102B10000448A83000F0BAFD0AA0FDF779FB10B018
:102B200010BD0000000008085CDA00080405002061
:102B30004405002064DA0008A4DA0008E4DA00089A
:102B4000E5DA00084441544120454550524F4DBB01
:102B5000D6B8B4B3F6B3A7C9E8D6C3CDEAB1CFA30C
:102B6000A10D0A00704710B50446204601F000F997
:102B700010BD000038B504F0CDFC04F04EFC284830
:102B80000078002837D127480078012833D126A2C1
:102B90000021084604F0F8FD102005230090244889
:102BA00002880021382004F0ADFD22A2022100207D
:102BB00004F0EAFD1020032300902048027802214F
:102BC000382004F09FFD1EA20421002004F0DCFD4B
:102BD0001D4800681D49B0FBF1F410200423224673
:102BE00019460090382004F08DFD19A2062100201E
:102BF00004F0CAFD12E00FA20221002004F0C4FD7F
:102C00001020032300900D4802780221382004F0A0
:102C100079FD0FA20421002004F0B6FD38BD0000AC
:102C20000F00002000000020204E657449643A0027
:102C3000100000202041646472203A000E00002041
:102C40002046726571203A0014000020A086010021
:102C50002056322E302E312E3100000038B52B4850
:102C6000007800B138BD04F0D8FB2948007800286E
:102C700037D128480078012833D127A200210846FF
:102C800004F082FD102005230090254802880021D1
:102C9000382004F037FD23A20221002004F074FD47
:102CA000102003230090214802780221382004F0EC
:102CB00029FD1FA20421002004F066FD1E480068C3
:102CC0001E49B0FBF1F4102004232246194600905F
:102CD000382004F017FD1AA20621002004F054FD4C
:102CE00012E010A20221002004F04EFD1020032368
:102CF00000900E4802780221382004F003FD10A253
:102D00000421002004F040FD00BFABE718000020C4
:102D10000F00002000000020204E657449643A0036
:102D2000100000202041646472203A000E00002050
:102D30002046726571203A0014000020A086010030
:102D40002056322E302E312E310000002DE9F04178
:102D5000C0B000250024671E002600BF31E04FF4FC
:102D600080716846FDF7E2FCFFF702FD17A1684697
:102D7000FDF75AFA6846FDF721FC00F0FF084146CE
:102D8000684607F00FFA1420FFF7EDFE03F09AFAF9
:102D900012A11448FDF7B0FB054615B94FF0FF37F7
:102DA0000DE0E8793038C4B2022C05DB052C03DCD9
:102DB00060B240B0BDE8F0814FF0FF3700BF701C3B
:102DC000C6B2032ECBDB3846F3E7000041542B4359
:102DD000495053544154555300000000535441543A
:102DE00055533A00DB09002070B5C0B005460E46C9
:102DF00000244FF480716846FDF798FC00F042F91A
:102E000000B901E04FF0FF34002C02DA204640B058
:102E100070BD00F011F908B9002401E06FF0010461
:102E2000002C01DA2046F2E73146284600F068F827
:102E30002046ECE7F0B5C1B004460D4600264FF43D
:102E4000807101A8FDF772FCFFF792FC2B46224629
:102E500012A101A8FDF7E8F901A8FDF7AFFBC7B281
:102E6000394601A807F09EF900BF06E003F02AFAF0
:102E70006420FFF778FE03F025FA3046711CCEB2CD
:102E80000F28F3DB0CA10D48FDF736FB18B94FF006
:102E9000FF3041B0F0BD0020FBE7000041542B4360
:102EA000495053544152543D22544350222C222520
:102EB00073222C25640000004F4B0000DB0900202A
:102EC00010B5FFF755FC062109A007F06BF903F0D8
:102ED000F9F90A20FFF747FE03F0F4F906A10748C5
:102EE000FDF70AFB10B94FF0FF3010BD0020FCE7E2
:102EF00041542B52535400004F4B0000DB0900207B
:102F000070B5C0B004460D464FF480716846FDF7B9
:102F10000DFCFFF72DFC2B46224607A16846FDF766
:102F200083F96846FDF74AFBC6B23146684607F0AA
:102F300039F940B070BD000041542B43574A41500D
:102F40005F4355523D222573222C22257322000017
:102F500010B5C0B0FFF70CFC4FF480716846FDF768
:102F6000E5FB0FA16846FDF75FF96846FDF726FB14
:102F7000C4B22146684607F015F903F0A3F96420AE
:102F8000FFF7F1FD03F09EF909A10A48FDF7B4FA35
:102F900018B94FF0FF3040B010BD0020FBE7000033
:102FA00041542B43574D4F44455F4355523D3200EA
:102FB0004F4B0000DB090020F0B5C1B004460D46C0
:102FC0001646FFF7D5FB4FF4807101A8FDF7AEFB65
:102FD0002B4622460FA101A80096FDF725F901A86E
:102FE000FDF7ECFAC7B2394601A807F0DBF803F0A9
:102FF00069F96420FFF7B7FD03F064F90CA10D48EF
:10300000FDF77AFA18B94FF0FF3041B0F0BD00205B
:10301000FBE7000041542B43575341505F43555247
:103020003D222573222C222573222C25642C34006A
:103030004F4B0000DB09002010B5FFF799FB112171
:1030400009A007F0AFF803F03DF96420FFF78BFD0E
:1030500003F038F909A10A48FDF74EFA10B94FF00C
:10306000FF3010BD0020FCE741542B435744484338
:10307000505F4355523D312C310000004F4B000052
:10308000DB09002010B5FFF773FB0F2109A007F043
:1030900089F803F017F96420FFF765FD03F012F9D2
:1030A00008A10948FDF728FA10B94FF0FF3010BD0C
:1030B0000020FCE741542B43574D4F44455F435597
:1030C000523D31004F4B0000DB0900202DE9F0415B
:1030D00006460F460025FFF7F3FE03F0F3F84FF422
:1030E0007A70FFF740FD03F0EDF800BF06E0FFF750
:1030F0002FFF044604B903E0681CC5B2032DF6DBBC
:1031000000BF002509E0052239463046FFF754FF8D
:10311000044604B903E0681CC5B2032DF3DB00BF0D
:103120002046BDE8F0812DE9F04106460F46002516
:10313000FFF7C6FE03F0C6F84FF47A70FFF713FDF1
:1031400003F0C0F800BF0AE039463046FFF74CFEF6
:10315000044614B92046BDE8F081681CC5B2032DB1
:10316000F2DB2046F7E710B505F05EF9012000F02C
:10317000B1FE10BD10B505F057F94FF4806000F0B6
:10318000A9FE4FF4006000F0A5FE4FF4805000F05F
:10319000A1FE4FF4005000F09DFE4FF4804000F07F
:1031A00099FE4FF4004000F095FE10BD10B505F0FB
:1031B0003BF9022000F08EFE10BD10B505F034F989
:1031C000042000F087FE10BD10B505F02DF9082091
:1031D00000F080FE10BD10B505F026F9102000F0BB
:1031E00079FE10BD10B505F01FF9202000F072FE29
:1031F000402000F06FFE802000F06CFE4FF48070E5
:1032000000F068FE4FF4007000F064FE10BD30B5B1
:1032100003460025002407E01878904202D11D469D
:10322000284630BD601CC4B28C42F5DB0020F8E7B4
:1032300030B503460025002407E01878904202D1FB
:103240001D46284630BD601CC4B28C42F5DB002010
:10325000F8E730B503460025002407E018789042CF
:1032600002D11D46284630BD601CC4B28C42F5DB3D
:103270000020F8E72DE9F04104460D46002600271E
:10328000B0464CF2503000F095F90646002E36D18B
:103290001C48006820F480701A49086035B1257018
:1032A0004CF2503000F086F9064628E024F003087E
:1032B000D8F80070A007C10EFF2000FA01F827EA35
:1032C000080724F00301022000F060FD064600BF5D
:1032D00000200D49087400BF24F003013A46102075
:1032E00000F07EFD064600BF0748007C012802D1A1
:1032F0000220BDE8F08101200349087400BF304678
:10330000F7E70000043C0240DC0A00202DE9F04110
:1033100004460D4600260027B0464CF2503000F01F
:1033200049F90646002E46D12448006820F48070F2
:103330002249086035B125804CF2503000F03AF94E
:10334000064638E000BF00201D49087400BF04F0A5
:103350000300032819D024F00308D8F80070A00750
:10336000C10E4FF6FF7000FA01F827EA080724F0B3
:103370000301022000F00AFD064624F003013A464C
:10338000102000F02DFD064609E000222146042011
:1033900000F026FD0022611C042000F021FD00BF8A
:1033A0000748007C012802D10220BDE8F0810120FD
:1033B0000349087400BF3046F7E70000043C0240B0
:1033C000DC0A002070B504460D4600264CF2503051
:1033D00000F0F0F806465EB90648006820F48070F8
:1033E0000449086025604CF2503000F0E3F80646CE
:1033F000304670BD043C02402DE9F04104460D46C4
:103400000026B04600274CF2503000F0D3F80646B4
:1034100086BB35B125704CF2503000F0CBF8064633
:1034200028E024F00307D7F80080A007C10EFF2092
:1034300000FA01F728EA070824F00301022000F04F
:10344000A5FC064600BF00200B49087400BF24F00D
:1034500003014246102000F0C3FC064600BF0648A8
:10346000007C012802D10220BDE8F0810120024940
:10347000087400BF3046F7E7DC0A00202DE9F04170
:1034800004460D4600260027B0464CF2503000F0AE
:1034900091F80646002E40D135B125804CF25030CF
:1034A00000F088F8064638E000BF00201C49087488
:1034B00000BF04F00300032819D024F00308D8F853
:1034C0000070A007C10E4FF6FF7000FA01F827EA5E
:1034D000080724F00301022000F058FC064624F0FF
:1034E00003013A46102000F07BFC064609E000226A
:1034F0002146042000F074FC0022611C042000F02E
:103500006FFC00BF0648007C012802D10220BDE804
:10351000F08101200249087400BF3046F7E700003F
:10352000DC0A002070B504460D4600264CF25030EF
:1035300000F040F806462EB925604CF2503000F0FD
:1035400039F80646304670BD00201849096801F474
:103550008071B1F5807F07D11549496941F00201B9
:10356000134A516140F480701049096801F40071F8
:10357000B1F5007F07D10E49496941F001010C4ABC
:10358000516140F400700949096801F40061B1F526
:10359000006F07D10649496941F00401044A5161AD
:1035A00040F400600149086070470000183C024088
:1035B000DC0A002070B5044600F090FD054609E0E5
:1035C000601C38B124B100F089FD401BA04201D934
:1035D000032070BD1448006800F001000028EFD1FE
:1035E0001148006800F00200022801D10E4908606D
:1035F0000D48006800F48070B0F5807F0DD00A4857
:10360000006800F40060B0F5006F06D0064800685E
:1036100000F40070B0F5007F03D1FFF795FF0120A3
:10362000D7E70020D5E70000183C02402DE9F0471D
:1036300005460E46012400274FF000094FF0000810
:103640004FEA960900F01AFC044684B9A84600BF68
:103650000BE04146022000F099FB044614B12046DD
:10366000BDE8F08708F104087F1C4F45F1D300F056
:10367000ADFB04462046F3E770B504460D461646FA
:10368000324621462846FCF7B8FF70BD2DE9F043CD
:10369000C1B005460E4617464FF001080024A1466A
:1036A00000BF16E03A463146284600F019F8804639
:1036B0003A4601A92846FFF7DFFF3A46314601A8FE
:1036C000FCF72CFF8146B9F1000F00D103E0601C2C
:1036D000C4B2032CE6DB00BF404641B0BDE8F08336
:1036E0002DE9F04706460C46174601254FF0000825
:1036F0004FF0000900F0C2FB05469DB9B14600BF7E
:103700000EE022784946042000F06AFB054615B118
:103710002846BDE8F087641C09F1010908F1010899
:10372000B845EED300F052FB05462846F1E770B5E8
:1037300004460D4606266088B0F5807F38D012DC3E
:10374000102830D008DC012825D0022825D00428F4
:1037500025D0082836D124E0202826D0402825D09E
:1037600080282FD123E0B0F5805F26D009DCB0F5AA
:10377000007F1ED0B0F5806F1DD0B0F5006F21D155
:103780001AE0B0F5005F19D0B0F5804F17D0B0F552
:10379000004F17D114E0062615E0072613E008268F
:1037A00011E009260FE00A260DE000BF00BF00BFB0
:1037B00000BF172607E000BF00BF00BF00BF00BF6B
:1037C000282600E000BF00BF1DB1304600F0F4FC29
:1037D00002E0304600F0E2FC70BD70B505460C46D4
:1037E00006266888B0F5807F38D012DC102830D0EB
:1037F00008DC012825D0022825D0042825D0082857
:1038000036D124E0202826D0402825D080282FD16A
:1038100023E0B0F5805F26D009DCB0F5007F1ED034
:10382000B0F5806F1DD0B0F5006F21D11AE0B0F572
:10383000005F19D0B0F5804F17D0B0F5004F17D109
:1038400014E0062615E0072613E0082611E00926F5
:103850000FE00A260DE000BF00BF00BF00BF172623
:1038600007E000BF00BF00BF00BF00BF282600E088
:1038700000BF00BF1CB1304600F09EFC02E03046A5
:1038800000F08CFC204607F08BFE70BD00207047D6
:103890000246002111E00B4850F8310090420AD84E
:1038A000084B481C53F83000904204D9184600EBEE
:1038B000C10000797047481CC1B21529EBD300BF85
:1038C000FEE70000CCE300082DE9FC4704460D4666
:1038D00016461F46DDE90A893B4632462946204600
:1038E000CDE9008900F002F8BDE8FC872DE9F0433E
:1038F00087B004460E4615461F46DDE90E98267031
:10390000701C10B907B0BDE8F083207800F00F01FB
:10391000012088406080207800F0F00078B94748A6
:10392000606000BF4648006840F0010044490860FC
:103930000846006800F00100019000BF4EE02078CA
:1039400000F0F00010280FD13E48606000BF3C48F6
:10395000006840F002003A4908600846006800F03C
:103960000200019000BF39E0207800F0F00020282C
:103970000FD13548606000BF3148006840F0040056
:103980002F4908600846006800F00400019000BF5D
:1039900024E0207800F0F00030280FD12B48606040
:1039A00000BF2748006840F0080025490860084625
:1039B000006800F00800019000BF0FE0244860603C
:1039C00000BF1F48006840F020001D4908600846FD
:1039D000006800F02000019000BF00BF60880290E6
:1039E00084F80A90CDF810900220059015B90020B7
:1039F000039017E0032D02D10320039012E0022D63
:103A000009D1012F02D11220039001E0022003907E
:103A1000CDF8188006E0012F02D11120039001E0BB
:103A200001200390012D03D14146204600F0C6F845
:103A300002A9606800F05CFA00BF63E70000024082
:103A40001C3802400004024000080240000C024002
:103A50000014024010B5044604B900BF94F90000F8
:103A6000401C08B9002010BD6188606800F028FB88
:103A7000F9E700002DE9F04385B004460D461646EF
:103A80001F464FF000084FF0060917B905B0BDE812
:103A9000F08360880090012D02D14448019006E037
:103AA000022D02D14248019001E042480190A07AE3
:103AB0000290022003906946606800F019FA052E12
:103AC0000ED2DFE806F00304070A0E0000BF4FF035
:103AD000030809E04FF0020806E04FF0010803E098
:103AE00000BF4FF0000800BF00BF6088B0F5807FC6
:103AF0003DD012DC102834D008DC012825D0022863
:103B000026D0042827D008283DD127E020282BD014
:103B100040282AD0802836D128E0B0F5805F2CD00C
:103B200009DCB0F5007F23D0B0F5806F23D0B0F56D
:103B3000006F28D120E0B0F5005F1FD0B0F5804FB6
:103B40001DD0B0F5004F1ED11AE04FF006091BE062
:103B50004FF0070918E04FF0080915E04FF0090988
:103B600012E04FF00A090FE000BF00BF00BF00BF26
:103B70004FF0170908E000BF00BF00BF00BF00BF43
:103B80004FF0280900E000BF00BF207800F00F00D0
:103B9000094941F8207000224146484600F019FBCF
:103BA000484600F009FB00BF70E70000000011105C
:103BB0000000211000003110A806002070B5044656
:103BC0000D460CB1606800B900BF94F90000401CBC
:103BD00000B970BDEAB26188606800F079FA00BF90
:103BE000F7E710B504462046FFF734FF10BD2DE976
:103BF000F04104460D4616461F463B4632462946CE
:103C00002046FFF737FFBDE8F08170B504460D464A
:103C100029462046FFF7D2FF70BD30B50346002489
:103C200000BF5879012801D1022030BD0120587110
:103C300000BF02201871D1E9000528430443186829
:103C4000006840F6FE759540A84304FA02F5284343
:103C50001D68286018680068C0259540A8431D6845
:103C600028600120187100BF0020587100BF00BFFC
:103C7000DBE710B504460CB9012010BD207920B94E
:103C800000206071204600F008F80220207100201A
:103C90002061012020710020EFE7704738B504460D
:103CA000002000902068009029B902F10800009DD2
:103CB0002844009004E002F11400009D2844009084
:103CC00000980360002038BD024600BF50790128EB
:103CD00001D1022070470120507100BF02201071F5
:103CE0001068006801238B4018431368186061B99D
:103CF0001068006800F03C003C2813D11068406850
:103D000040F00100136858600CE01068006800F48F
:103D10007010B0F5701F05D11068406840F00200C7
:103D2000136858600120107100BF0020507100BF5F
:103D300000BFCFE70348406840F0010001494860F8
:103D400070470000002004E00348406840F0040091
:103D50000149486070470000002004E003484068C3
:103D600040F002000149486070470000002004E074
:103D700031B5002400F0B2F9044600BF00F0AEF9FE
:103D8000001B00998842F9D338BD000070B5044685
:103D90000D4600264CF25030FFF70CFC06468EB95B
:103DA000002009494861022C00D12860012C01D172
:103DB000002028800CB9002028704CF25030FFF70A
:103DC000F9FB0646304670BDDC0A00200348006857
:103DD00040F001000149086000207047043C0240A7
:103DE0002DE9F04104460E461546012700BF224842
:103DF000007C012802D10220BDE8F08101201E498B
:103E0000087400BF4CF25030FFF7D4FB07465FBB8D
:103E1000002019494861042C04D1E9B23046FFF76B
:103E200029FA0746082C04D1A9B23046FFF76EFAEA
:103E30000746102C04D129463046FFF7C3FA07463F
:103E4000022C04D129463046FFF76CFB0746012CB3
:103E500004D1A9B23046FFF711FB074624B9E9B2F5
:103E60003046FFF7C9FA074600BF00200249087430
:103E700000BF3846C0E70000DC0A002007480068A1
:103E800000F0010030B106480449083108600548D7
:103E9000086001E0012070470020FCE7043C02407C
:103EA000EFCDAB890504030270B504460025002C54
:103EB00005DD02E06410681CC5B2012CFAD104488B
:103EC00050F8250018B1024951F82500804770BD0F
:103ED000A806002010B5044604480068204020B120
:103EE000024804602046FFF7DFFF10BD14040140C4
:103EF00078B50346002200240020CAE0012696403F
:103F00000D6805EA0604002C71D04D68022D02D020
:103F10004D68122D13D1D60803F1200555F826005F
:103F20005507EE0E0F25B540A8435607F60E0D694E
:103F3000B5402843D60803F1200545F82600186847
:103F400056000325B540A8430D7905F0030556003A
:103F5000B540284318604D68012D08D04D68022DEA
:103F600005D04D68112D02D04D68122D13D19868DF
:103F700056000325B540A8435600CD68B5402843F8
:103F80009860586801259540A8430D79C5F3001540
:103F9000954028435860D86856000325B540A8438B
:103FA00056008D68B5402843D8604D6805F08055AF
:103FB000B5F1805F6CD100BF394D2D6845F001052A
:103FC000374E356035462D6805F00105009500BF78
:103FD00000BF344D960855F8260095072E0F0F2583
:103FE000B540A843304DAB4202D1002515E04FE06B
:103FF0002E4DAB4201D101250FE02D4DAB4201D139
:1040000002250AE02B4DAB4201D1032505E02A4DE4
:10401000AB4201D1042500E005259607360FB540D7
:104020002843204D960845F82600244D2868A043D3
:104030004D6805F48035B5F5803F00D120431F4D14
:1040400028602D1D2868A0434D6805F40035B5F59E
:10405000003F00D12043194D2D1D28602D1D2868DB
:10406000A0434D6805F48015B5F5801F00D12043AD
:10407000124D083528602D1D2868A0434D6805F4B1
:104080000015B5F5001F00D120430C4D0C352860FC
:10409000521C0D68D540002D7FF430AF78BD000074
:1040A00020380240080001400000024000040240A5
:1040B00000080240000C02400010024000040140D1
:1040C000024613690B400BB1012000E0002070474D
:1040D0000AB1816101E00B04836170470148006807
:1040E000704700005800002070B504460CB901204C
:1040F00070BD4CF6CC402168086045F255502168EF
:104100000860D4E9001048602168A0688860FFF763
:10411000E5FF054606E0FFF7E1FF401B302801D927
:104120000320E5E72068C0680028F4D14AF6AA20F9
:10413000216808600020DBE701464AF6AA200A68E9
:10414000106000207047000002480068401C0149D0
:10415000086070475800002010B5032000F078F880
:10416000002000F005F800F017F8002010BD000056
:1041700070B50446074800684FF47A71B0FBF1F55A
:10418000284601F047FD00222146501E00F021F88C
:10419000002070BD540000207047000000BF00F0F8
:1041A0001F0201219140034A430942F8231000BF36
:1041B0007047000080E100E000BF00F01F02012115
:1041C00091404209920002F1E022C2F8001100BFC2
:1041D00070472DE9F05F80460D461646002702F035
:1041E00071FD074639462A46334601F00700C0F103
:1041F000070ABAF1040F02D94FF0040A01E0C0F136
:10420000070AD14600F1040ABAF1070F02D24FF0B3
:10421000000A01E0A0F1030AD4464FF0010A0AFAAD
:1042200009FAAAF1010A0AEA020A0AFA0CFA4FF09C
:10423000010B0BFA0CFBABF1010B0BEA030B4AEA87
:104240000B042146404602F045FDBDE8F09F00000A
:1042500000BF00F00702064B19684FF6FF03194034
:10426000044B0B4343EA0221014B196000BF704726
:104270000CED00E00000FA0500BF00BF00BF00BF6A
:1042800000BFBFF34F8F00BF00BF00BF09480068E9
:1042900000F4E06008490843001D0649086000BFBB
:1042A00000BF00BFBFF34F8F00BF00BF00BF00BF04
:1042B00000BFFDE70CED00E00000FA0501208102DF
:1042C00091FAA1F1B1FA81F1014A42F82100704757
:1042D00000000E420120410291FAA1F1B1FA81F1F0
:1042E000014A42F82100704700000E42024800686F
:1042F00000F4C05070470000007000400020102102
:1043000091FAA1F1B1FA81F1014A42F82100704716
:1043100000000E420D4A126822F0030202430B4BCA
:104320001A600B4A126842F00402094B1A60012914
:1043300001D130BF02E040BF20BF20BF044A126855
:1043400022F00402024B1A60704700000070004027
:1043500010ED00E0F8B5044600260025207800F0B6
:10436000010000287ED0207800F0010000B100BFDD
:1043700000276A48006800F0805070B900BF6748A5
:10438000006840F08050654908600846006800F009
:104390008050009000BF00BF01276148006800F412
:1043A0008070B0B95E48006840F480705C49086075
:1043B000FFF794FE064606E0FFF790FE801B642898
:1043C00001D90320F8BD5648006800F48070002829
:1043D000F2D052482438006800F0C045606800F010
:1043E000C040A8420DD0606800F44030B0F5403FB6
:1043F00007D14A482438006800F4003008B1012091
:10440000E0E746481030006800F44035002D59D0F0
:10441000606800F44030A84254D0207800F00100D9
:1044200078B33E481030006820F440350121C805BB
:1044300090FAA0F0B0FA80F03A4A02EB8000C0F89F
:10444000801600214FF4000090FAA0F0B0FA80F03E
:1044500002EB8000C0F8801630481030056005F48B
:10446000807000E057E060B1FFF738FE064609E0D3
:10447000FFF734FE801B41F28831884202D90320C5
:10448000A0E71FE04020C10091FAA1F1B1FA81F14B
:1044900008430121B1EB601F03D120482438006894
:1044A00002E01E48103000684021CA0092FAA2F2D1
:1044B000B2FA82F2114301F01F020121914008403B
:1044C0000028D5D000BF00BF606800F44030B0F5D0
:1044D000403F0BD111482438006820F0C04061688B
:1044E00001F0C04108430D492439086000BF0B4862
:1044F00010300068616801F4403108430749103109
:10450000086000BF012F05D10448006820F08050EA
:104510000249086000BF002054E700002438024030
:10452000007000400000474270B504460D4600266A
:10453000B348006800F00100A84218D200BF012D66
:1045400005D1AF48006840F00400AD490860AC48B0
:10455000006820F001002843A949086000BF084610
:10456000006800F00100A84201D0012070BD207851
:1045700000F00200022807D1A248006820F0F000F5
:10458000A16808439F490860207800F001000028D6
:104590007BD06068022821D12020010391FAA1F18B
:1045A000B1FA81F108430121B1EB601F03D19548B5
:1045B0000838006802E093482C30006820210A0384
:1045C00092FAA2F2B2FA82F2114301F01F02012123
:1045D0009140084000286CD10120C7E7606803289B
:1045E00020D12020010591FAA1F1B1FA81F108430F
:1045F0000121B1EB601F03D182480838006802E056
:1046000080482C30006820210A0592FAA2F2B2FA02
:1046100082F2114301F01F02012191400840A8BB22
:104620000120A3E76068012820D12020022191FA0F
:10463000A1F1B1FA81F108430121B1EB601F03D16F
:1046400070480838006802E06E482C30006820216D
:10465000022292FAA2F2B2FA82F2114301F01F0290
:1046600001219140084088B901207FE72020010105
:1046700091FAA1F1B1FA81F108430121B1EB601F78
:1046800005D160480838006804E069E011E05D4841
:104690002C30006820210A0192FAA2F2B2FA82F2CA
:1046A000114301F01F0201219140084008B9012087
:1046B0005CE75448006820F00300616808435149F2
:1046C0000860FFF70BFD06466068022810D108E07D
:1046D000FFF704FD801B41F28831884201D9032095
:1046E00044E74848006800F00C000828F0D137E0A3
:1046F0006068032810D108E0FFF7F0FC801B41F24E
:104700008831884201D9032030E73E48006800F034
:104710000C000C28F0D123E06068012810D108E0DB
:10472000FFF7DCFC801B41F28831884201D903206D
:104730001CE73448006800F00C000428F0D10FE0BA
:1047400008E0FFF7CBFC801B41F28831884201D999
:1047500003200BE72B48006800F00C000028F0D184
:104760002748006800F00100A84218D900BF012DB9
:1047700005D12348006840F0040021490860204822
:10478000006820F0010028431D49086000BF08466A
:10479000006800F00100A84201D00120E6E6207880
:1047A00000F00400042807D11648006820F4E060F7
:1047B000E168084313490860207800F008000828E1
:1047C00008D11048006820F46050216940EAC10017
:1047D0000C49086000F04EF80A49096801F0F00140
:1047E000F02292FAA2F2B2FA82F2D140064A515C69
:1047F000C840064908600020FFF7BAFC0020B5E673
:10480000003C02400838024069DB000854000020E8
:1048100001480068704700005400002000B5FFF711
:10482000F7FF0749096801F4E0614FF4E06292FA8A
:10483000A2F2B2FA82F2D140024A515CC84000BDF5
:104840000838024079DB000800B5FFF7E1FF0749AF
:10485000096801F460514FF4605292FAA2F2B2FA80
:1048600082F2D140024A515CC84000BD0838024083
:1048700079DB0008F0B50021002300240022002588
:104880000020254E316801F00C067EB3042E04D0C2
:10489000082E04D00C2E2AD103E020483AE020480C
:1048A00038E001F470164FF4701797FAA7F7B7FACB
:1048B00087F7FE401B4FBB5D01F440064FF44007F5
:1048C00097FAA7F7B7FA87F7FE40741C124E3668BE
:1048D00006F4803626B1124E5E43B6FBF4F203E0D6
:1048E0000E4E5E43B6FBF4F2104613E000E000BF4C
:1048F000094E361F366806F460464FF4604797FA53
:10490000A7F7B7FA87F726FA07F56E1C0127B74015
:10491000F80300BF00BFF0BD083802400024F400D7
:1049200000127A0060DB0008F8B504460025207804
:1049300000F00100002879D0F748006800F00C0072
:1049400008280CD0F448006800F00C000C282BD18B
:10495000F148006800F48030B0F5803F24D1202079
:10496000010391FAA1F1B1FA81F108430121B1EB00
:10497000601F03D1E8480838006802E0E6482C30A0
:10498000006820210A0392FAA2F2B2FA82F21143DD
:1049900001F01F020121914008400028CBD060683F
:1049A000002843D10120F8BD00BF6068012808D16C
:1049B000D9480838006840F48030D7490839086081
:1049C0002DE0606868B9D4480838006820F4803069
:1049D000D149083908600846006820F48020086042
:1049E0001DE0606805280DD1CB480838006840F408
:1049F0008020C949083908600846006840F48030C2
:104A000008600CE0C4480838006820F48030C249CF
:104A1000083908600846006820F48020086000BF5C
:104A2000606860B3FFF75AFB054607E052E0FFF706
:104A300055FB401B642801D90320B4E72020010363
:104A400091FAA1F1B1FA81F108430121B1EB601FA4
:104A500003D1B1480838006802E0AF482C30006844
:104A600020210A0392FAA2F2B2FA82F2114301F073
:104A70001F020121914008400028D8D02AE0FFF70A
:104A80002DFB054606E0FFF729FB401B642801D9F2
:104A9000032088E72020010391FAA1F1B1FA81F106
:104AA00008430121B1EB601F03D19B48083800681F
:104AB00002E099482C30006820210A0392FAA2F201
:104AC000B2FA82F2114301F01F0201219140084025
:104AD0000028D8D1207800F00200022845D18E4865
:104AE000006800F00C0004280AD08B48006800F031
:104AF0000C000C283BD18848006800F48030A8BB2B
:104B00002020022191FAA1F1B1FA81F1084301219B
:104B1000B1EB601F03D180480838006802E07E488E
:104B20002C3000682021022292FAA2F2B2FA82F21C
:104B3000114301F01F0201219140084020B1E068BB
:104B4000012801D001202EE77348001F006820F4DF
:104B5000F8504FF4F85292FAA2F2B2FA82F22169B6
:104B6000914008436C49091F08607DE0FFE7E06859
:104B7000F0B3012090FAA0F1B1FA81F1674A42F84E
:104B80002100FFF7ABFA054606E0FFF7A7FA401B46
:104B9000022801D9032006E72020022191FAA1F181
:104BA000B1FA81F108430121B1EB601F03D15A48EA
:104BB0000838006802E058482C30006820210222A2
:104BC00092FAA2F2B2FA82F2114301F01F0201211D
:104BD000914008400028D8D04F48001F006820F4BA
:104BE000F8504FF4F85292FAA2F2B2FA82F200E0D0
:104BF00006E02169914008434749091F086033E0F6
:104C00000020012191FAA1F1B1FA81F1434A42F861
:104C10002100FFF763FA054606E0FFF75FFA401B45
:104C2000022801D90320BEE62020022191FAA1F139
:104C3000B1FA81F108430121B1EB601F03D136487D
:104C40000838006802E034482C3000682021022235
:104C500092FAA2F2B2FA82F2114301F01F0201218C
:104C6000914008400028D8D1207800F0100010288A
:104C700073D12948006800F00C0000286ED1202074
:104C8000010191FAA1F1B1FA81F108430121B1EBDF
:104C9000601F03D120480838006802E01E482C300D
:104CA000006820210A0192FAA2F2B2FA82F21143BC
:104CB00001F01F0201219140084018B1A06908B914
:104CC000012070E61449091F206A096801F4604157
:104CD000884225D9206A02F02DFE08B1012062E643
:104CE0000D48001F006820F46040216A08430A490B
:104CF000091F08600846006820F07F404FF07F429F
:104D000092FAA2F2B2FA82F2E169914008430249B2
:104D1000091F086023E000000838024000004742F5
:104D2000FC48006820F46040216A0843F9490860A3
:104D30000846006820F07F404FF07F4292FAA2F2CE
:104D4000B2FA82F2E16991400843F2490860206AB0
:104D500002F0F0FD18B1012025E6A5E01FE04FF4B8
:104D6000604191FAA1F1B1FA81F1206AC840401C7A
:104D700001218140C803E749091D096801F0F001DC
:104D8000F02292FAA2F2B2FA82F2D140E24A515CE7
:104D9000C840E24908600020FFF7EAF984E0A06912
:104DA000F0B30120010291FAA1F1B1FA81F1DC4ADC
:104DB00042F82100FFF792F9054606E0FFF78EF969
:104DC000401B022801D90320EDE52020010191FAC2
:104DD000A1F1B1FA81F108430121B1EB601F03D1C8
:104DE000CC48001F006802E0CA483030006820212B
:104DF0000A0192FAA2F2B2FA82F2114301F01F0202
:104E00000121914008400028D8D0C248006820F411
:104E10006040216A0843BF4908600846006800E016
:104E20000DE020F07F404FF07F4292FAA2F2B2FAFA
:104E300082F2E16991400843B649086034E00020FD
:104E40004FF4807191FAA1F1B1FA81F1B44A42F8BC
:104E50002100FFF743F9054606E0FFF73FF9401B45
:104E6000022801D903209EE52020010191FAA1F139
:104E7000B1FA81F108430121B1EB601F03D1A548CC
:104E8000001F006802E0A3483030006820210A01BA
:104E900092FAA2F2B2FA82F2114301F01F0201214A
:104EA000914008400028D8D1207800F00800082858
:104EB0006ED16069A8B3012090FAA0F1B1FA81F136
:104EC000974A02EB8101C1F88006FFF707F9054612
:104ED00006E0FFF703F9401B022801D9032062E531
:104EE0004020022191FAA1F1B1FA81F10843012198
:104EF000B1EB601F03D18748001F006802E08548BE
:104F0000303000684021022292FAA2F2B2FA82F214
:104F1000114301F01F020121914008400028D8D020
:104F200036E0FFE70021012090FAA0F0B0FA80F00F
:104F30007B4A02EB8000C0F88016FFF7CFF80546E9
:104F400006E0FFF7CBF8401B022801D903202AE531
:104F50004020022191FAA1F1B1FA81F10843012127
:104F6000B1EB601F03D16B48001F006802E0694885
:104F7000303000684021022292FAA2F2B2FA82F2A4
:104F8000114301F01F020121914008400028D8D1AF
:104F9000207800F00400042875D100265D482030F8
:104FA000006800F0805080B900BF5A482030006887
:104FB00040F080505749203108600846006800F0F2
:104FC0008050009000BF00BF01265648006800F4E2
:104FD0008070B0B95348006840F48070514908604F
:104FE000FFF77CF8054606E0FFF778F8401B6428D9
:104FF00001D90320D7E44B48006800F480700028F2
:10500000F2D000BFA068012808D1424830300068C3
:1050100040F480703F49303108602DE0A06868B9E5
:105020003C483030006820F480703A4930310860E4
:105030000846006820F4806008601DE0A06805282C
:105040000DD134483030006840F48060314930314F
:1050500008600846006840F4807008600CE02D4845
:105060003030006820F480702A49303108600846EA
:10507000006820F48060086000BFA06870B3FFF78C
:105080002DF8054609E06AE0FFF728F8401B41F2D9
:105090008831884201D9032085E44020C10091FA7B
:1050A000A1F1B1FA81F108430121B1EB601F03D1F5
:1050B0001848001F006802E01648303000684021A0
:1050C000CA0092FAA2F2B2FA82F2114301F01F0270
:1050D0000121914008400028D6D035E0FEF7FEFFC0
:1050E000054608E0FEF7FAFF401B41F2883188428E
:1050F00001D9032057E44020C10091FAA1F1B1FA8F
:1051000081F108430121B1EB601F0DD10148001F5F
:1051100000680BE00438024069DB000854000020FE
:1051200000004742007000406C4800684021CA00FF
:1051300092FAA2F2B2FA82F2114301F01F020121A7
:10514000914008400028CDD1012E07D16348103886
:10515000006820F0805061491039086000BF606A23
:10516000F0B35E482C38006800F00C000C287AD0B0
:10517000606A022879D100204FF0807191FAA1F184
:10518000B1FA81F1564A42F82100FEF7A7FF054621
:1051900006E0FEF7A3FF401B022801D9032002E42A
:1051A0002020010591FAA1F1B1FA81F10843012112
:1051B000B1EB601F03D149483438006801E047482B
:1051C000006820210A0592FAA2F2B2FA82F2114393
:1051D00001F01F020121914008400028D9D100E0D0
:1051E0007AE0D4E90A010843216B08433B492C3992
:1051F000096821F47D01084338492C3908600120F1
:10520000010691FAA1F1B1FA81F1354A42F8210083
:10521000FEF764FF054606E0FEF760FF401B02282C
:1052200001D9032009E42020010591FAA1F1B1FA86
:1052300081F108430121B1EB601F03D127483438C5
:10524000006801E02548006820210A0592FAA2F2D0
:10525000B2FA82F2114301F01F020121914008408D
:105260000028D9D038E035E0FFE700214FF080700A
:1052700090FAA0F0B0FA80F0194A42F82010FEF738
:105280002DFF054606E0FEF729FF401B022801D945
:10529000032058E42020010591FAA1F1B1FA81F12F
:1052A00008430121B1EB601F03D10C48343800687A
:1052B00001E00A48006820210A0592FAA2F2B2FA37
:1052C00082F2114301F01F020121914008400028A1
:1052D000D9D101E0012036E4002034E43438024022
:1052E00000004742704770B50446002500BF207F8C
:1052F000012801D1022070BD0120207700BF0220CB
:10530000607700BFCA202168486253202168486244
:1053100000BF2068806820F4806021688860206871
:10532000806820F4804021688860FEF7D7FE05463B
:1053300012E0FEF7D3FE401BB0F57A7F0CD900BF18
:10534000FF202168486200BF0320607700BF002073
:10535000207700BF0320CEE72068C068C0F380003C
:105360000028E6D000BFFF202168486200BF01206E
:10537000607700BF0020207700BF00BFBBE7704709
:1053800010B5044620688068C0F3003078B120680A
:10539000C068C0F3002050B12046FFF7F0FF20683E
:1053A000C06800F0800060F4C0702168C8602068A8
:1053B0008068C0F3403078B12068C068C0F34020F6
:1053C00050B12046FFF78EFF2068C06800F08000D3
:1053D00060F420702168C8604FF400300249086012
:1053E0000120607710BD00001404014070B5044630
:1053F0000D46002600BF207F012801D1022070BD8C
:105400000120207700BF0220607700BFCA202168FA
:10541000486253202168486200BFB5F5807F29D1DA
:105420002068806820F48070216888602068806827
:1054300020F4805021688860FEF750FE064612E096
:10544000FEF74CFE801BB0F57A7F0CD900BFFF2021
:105450002168486200BF0320607700BF00202077EA
:1054600000BF0320CBE72068C06800F001000028DF
:10547000E6D028E02068806820F400702168886009
:105480002068806820F4005021688860FEF726FEBE
:10549000064612E0FEF722FE801BB0F57A7F0CD99B
:1054A00000BFFF202168486200BF0320607700BF73
:1054B0000020207700BF0320A1E72068C068C0F368
:1054C00040000028E6D000BFFF202168486200BFEE
:1054D0000120607700BF0020207700BF00BF8EE76B
:1054E0002DE9F04106460C46174698460025B7F5CB
:1054F000807F05D14FF48070A0613068C56904E0F9
:105500004FF40070A0613068056AC5F30540207053
:10551000C5F30620607005F07F00A07005F48000E0
:10552000000CE070C5F30560207505F08040206137
:1055300005F08030E060B8F1000F0FD1207802F064
:1055400063FA2070607802F05FFA6070A07802F071
:105550005BFAA070207D02F057FA20750020BDE8AC
:10556000F081000070B505460B46164600242868F9
:1055700040680E4900EA0104200CD870C4F30420EE
:10558000587004F03F009870C4F3423018705EB950
:10559000D87802F039FAD870587802F035FA587095
:1055A000987802F031FA9870002070BD3FFFFF003C
:1055B0002DE9F04106460C46174600253068006884
:1055C0000F4900EA0105C5F305402070C5F3062028
:1055D000607005F07F00A07005F48000000CE070A2
:1055E0005FB9207802F010FA2070607802F00CFAAF
:1055F0006070A07802F008FAA0700020BDE8F08189
:105600007F7F7F0010B504460CB9012010BD607F7C
:1056100020B900202077204600F04EF80220607765
:1056200000BFCA202168486253202168486200BF39
:10563000204602F001FA40B100BFFF202168486215
:1056400000BF042060770120E0E7206880681949E6
:1056500008402168886021696068084361690843DF
:10566000216889680843216888602168E0680861CA
:1056700020680169208941EA0040216808612068AA
:10568000C06820F080002168C8602068006C20F4A9
:105690008020216808642068006CA16908432168A3
:1056A000086400BFFF202168486200BF01206077C6
:1056B0000020ABE7BFFF8FFF704700002DE9F047E8
:1056C00004460D4616460027B84600BF207F012835
:1056D00002D10220BDE8F0870120207700BF022020
:1056E00060774EBB2068806800F0400000B102E0A7
:1056F0000020E87000BF286900B900E000BF2878EA
:1057000002F08DF94FEA0049687802F088F949EA19
:105710000029A87802F083F949EA0009E87849EA03
:105720000049287D02F07BF949EA006029690843B5
:10573000E96840EA01082AE02068806800F040003B
:1057400020B1287802F060F9804602E00020E8707D
:1057500000BF286920B9287D02F056F9804604E090
:10576000287D02F051F9804600BF2878000469784E
:1057700040EA0120A9780843E97840EA0140297D00
:1057800040EA016029690843E96840EA010800BF6E
:10579000CA202168486253202168486200BFA86976
:1057A000B0F5807F3AD12068806820F4807021684D
:1057B00088602068C06800F0800060F4C0702168D4
:1057C000C860FEF78BFC074612E0FEF787FCC01BA3
:1057D000B0F57A7F0CD900BFFF202168486200BF76
:1057E0000320607700BF0020207700BF032071E70F
:1057F0002068C06800F001000028E6D02068C0F8EA
:105800001C802068806840F480702168886020686F
:10581000806840F480502168886039E020688068A2
:1058200020F40070216888602068C06800F0800063
:1058300060F420702168C860FEF750FC074612E053
:10584000FEF74CFCC01BB0F57A7F0CD900BFFF20DF
:105850002168486200BF0320607700BF00202077E6
:1058600000BF032036E72068C068C0F3400000286E
:10587000E6D02068C0F820802068806840F400707E
:10588000216888602068806840F400502168886042
:105890000D48006840F400300B4908600A480830A1
:1058A000006840F4003008490831086000BFFF205C
:1058B0002168486200BF0120607700BF0020207788
:1058C00000BF00BF06E70000000401402DE9F041E1
:1058D00004460D461646002700BF207F012802D14E
:1058E0000220BDE8F0810120207700BF0220607710
:1058F0004EB9687800F01000102804D1687800F0E4
:10590000EF000A30687086B9E87802F088F803047E
:10591000687802F084F843EA0023A87802F07FF860
:105920000343287843EA403711E0687802F06CF8C6
:105930000746A87802F068F80746E8780004697816
:1059400040EA0120A9780843297840EA413700BF9E
:10595000CA202168486253202168486200BF20465F
:1059600002F06AF860B100BFFF202168486200BF02
:105970000420607700BF0020207700BF0120B0E73F
:1059800013483840216848602068C06820F08000D3
:105990002168C860204600F0B3F860B100BFFF2066
:1059A0002168486200BF0420607700BF0020207794
:1059B00000BF012095E700BFFF202168486200BFBB
:1059C0000120607700BF0020207700BF00BF88E77C
:1059D0003FFFFF002DE9F04104460D461646002723
:1059E00000BF207F012802D10220BDE8F081012004
:1059F000207700BF02206077CEB92068806800F071
:105A0000400000B102E00020E87000BF287802F0FA
:105A100006F80304687802F002F843EA0023A87845
:105A200001F0FDFF0343E87843EA004716E02068F1
:105A3000806800F0400020B1287801F0E5FF0746BB
:105A400002E00020E87000BF28780004697840EA8E
:105A50000120A9780843E97840EA014700BFCA203D
:105A60002168486253202168486200BF204601F047
:105A7000E3FF60B100BFFF202168486200BF04203F
:105A8000607700BF0020207700BF0120ADE71B48F2
:105A90003840216808602068806820F480202168F0
:105AA0008860D5E9010108432168896808432168B5
:105AB00088602068C06820F080002168C8602046A7
:105AC00000F01EF860B100BFFF202168486200BFEF
:105AD0000420607700BF0020207700BF012084E70A
