:020000040800F2
:10000000202C0020FD0100089D5B0008070200086D
:100010005B590008B90E000871A500080000000037
:100020000000000000000000000000000F020008B7
:100030006912000800000000130200083191000856
:10004000170200081702000817020008170200082C
:100050001702000817020008FB1B0008411C0008DB
:100060004F1C00085D1C00086B1C000817020008EC
:1000700017020008170200081702000817020008FC
:1000800017020008170200081702000817020008EC
:10009000170200081702000817020008791C000860
:1000A00000000000170200081702000817020008ED
:1000B0000196000811960008219600081702000812
:1000C00017020008170200081702000817020008AC
:1000D00017020008719E0008799F000817020008A7
:1000E000091C000831620008170200081702000806
:1000F0001702000800F002F800F071F80AA090E87A
:10010000000C82448344AAF10107DA4501D100F0D2
:1001100066F8AFF2090EBAE80F0013F0010F18BF2E
:10012000FB1A43F001031847B4E30000D4E30000D6
:100130000A444FF0000C10F8013B13F0070408BF0D
:1001400010F8014B1D1108BF10F8015B641E05D0AB
:1001500010F8016B641E01F8016BF9D113F0080F60
:100160001EBF10F8014BAD1C0C1B09D16D1E58BFF2
:1001700001F801CBFAD505E014F8016B01F8016B29
:100180006D1EF9D59142D6D370470000002300249C
:1001900000250026103A28BF78C1FBD8520728BF97
:1001A00030C148BF0B607047642900F0C1807829D6
:1001B00000F0FA80632900F01484732900F0198498
:1001C000002070471FB500F083FB040000200021D1
:1001D0000DF052FA401C60601FBD10B510BD00F05C
:1001E0002DFD1146FFF7EEFF0BF074FA00F059FDFC
:1001F00003B4FFF7F2FF03BC0AF0D5FC09488047BF
:1002000009480047FEE7FEE7FEE7FEE7FEE7FEE7F8
:10021000FEE7FEE7FEE7FEE704480549054A064B10
:1002200070470000FD920008F5000008202600201D
:10023000202C0020202800202028002070470000CB
:1002400010B500F045FB001D10BD00BF2DD400000F
:100250000FB4044910B503AA029800F0CFFB10BCFC
:100260005DF814FB4C0100200FB41CB5074B06AA27
:100270007B4469460090059800F091FB0020694698
:1002800000F0A0FB1CBC5DF814FB0000510700004F
:1002900070B5044685690068C10601D5302600E0C6
:1002A0002026C00707D070BDD4E901213046904711
:1002B000206A401C20626D1EF6D570BD70B50446E4
:1002C00085690078C00707D170BDD4E901212020DD
:1002D0009047206A401C20626D1EF6D570BD70B537
:1002E0000C460546012A05D02878800600D5EA6923
:1002F000002302E0012305E05B1C934202D2E05C94
:100300000028F9D1A869E618C01AA861286A18441B
:1003100028622846FFF7BCFF04E0D5E9012114F864
:10032000010B9047B442F8D32846FFF7C7FF70BDD2
:100330002DE9F0410646002410687529314616A5BE
:1003400010D0AFF30080002802DA404213A507E086
:1003500031688A0701D512A502E0490704D511A525
:10036000012401E0AFF3008000210A2206F12407F6
:1003700009E0B0FBF2FCB0FBF2F302FB1C003030F2
:1003800078541846491C0028F3D123462A463046A3
:10039000BDE8F04100F0A4BA000000002D0000000C
:1003A0002B0000002000000070B504460D462146D9
:1003B0001068AFF300802188090502D50F4A7A44FE
:1003C00002E00E4A7A440E32002104F1240305E0D3
:1003D00000F00F060009965D5E54491C0028F7D115
:1003E00020780023000704D5702D02D009B1022324
:1003F00011322046BDE8704000F072BA22E00000E1
:100400002DE9F05F894604464FF0000ADFF824B179
:10041000FB44C0F820A02046E168884700287DD032
:10042000252806D0D4E901219047206A401C20628B
:10043000F1E700255F462046E16888472028064608
:1004400007DB312E05D2B81910F8200C08B105438E
:10045000F1E7A80701D525F00405C4F81CA0002782
:10046000C4F818A02A2E09D030460AF095FB38B3FC
:1004700004EB8708303EC8F8186019E059F8041BEF
:10048000204604EB87029161E1688847012F064608
:1004900018D1E069002820DA25F020051DE0D8F801
:1004A000180000EB800006EB40003038C8F8180058
:1004B0002046E168884706460AF06EFB0028EED128
:1004C000012F0AD02E2E08D12046E16888477F1CD4
:1004D0000646022F45F02005C4DBA069002803DA98
:1004E000404245F00105A061E80701D025F0100564
:1004F000A6B1A6F14100192802D8203645F40065BE
:100500004A463146204625604D46FFF74DFE60B114
:10051000012807D0ED1D25F0070000E007E000F1FD
:10052000080978E705F1040975E730467AE7206A9B
:10053000BDE8F09FF8DF000070B5064600F0CCF98A
:100540000468054630460A22002100F069FA2C6052
:1005500070BD30B505460B462A4613F8014B12F81C
:10056000010B08B1A042F8D01CB1002802D06D1CCC
:10057000F1E7284630BD40EA010310B59B070FD1D3
:10058000042A0DD310C808C9121F9C42F8D020BA03
:1005900019BA884201D9012010BD4FF0FF3010BDBB
:1005A0001AB1D30703D0521C07E0002010BD10F889
:1005B000013B11F8014B1B1B07D110F8013B11F84F
:1005C000014B1B1B01D1921EF1D1184610BD40EA10
:1005D0000103024630B59B0710D14FF0013400E013
:1005E00008C208C91D1B9D4315EAC41FF8D013F0AB
:1005F000FF0102F8011B0DD01B0AF8E711F8013BBF
:10060000002B02F8013B05D011F8013B002B02F84A
:10061000013BF3D130BD10B5431C02E010F8011BC3
:1006200071B18107FAD14FF0013202C88C1A8C43A4
:1006300014EAC211F9D0C01A0A0603D0C01E10BDB8
:10064000C01A10BD0A0401D0801E10BD0902FCD0E2
:10065000401E10BD421E12F8013F002BFBD111F8C5
:10066000013B002B02F8013BF9D17047032A40F20D
:10067000308010F0030C00F0158011F8013BBCF144
:10068000020F624498BF11F801CB00F8013B38BF5C
:1006900011F8013BA2F1040298BF00F801CB38BF6A
:1006A00000F8013B11F0030300F06780083AC0F046
:1006B000088051F8043B083A51F804CBA0E8081030
:1006C000F5E7121D5CBF51F8043B40F8043BAFF363
:1006D0000080D20724BF11F8013B11F801CB48BFBD
:1006E00011F8012B24BF00F8013B00F801CB48BFF3
:1006F00000F8012B7047431A28BF9A427FF6B6AF25
:10070000032A1044114440F2268010F0030F1EBF4C
:1007100011F8013D521E00F8013D10F0030F7FF467
:10072000F6AF11F0030300F0C681083AC0F00B8069
:1007300051F8043D083A51F804CD40F8043D40F822
:1007400004CDFFF7F3BF121D5CBF51F8043D40F824
:10075000043DAFF30080D20724BF11F8013D11F82A
:1007600001CD48BF11F8012C24BF00F8013D00F86D
:1007700001CD48BF00F8012C704710B5203AC0F0F9
:100780000B80B1E81850203AA0E81850B1E8185092
:10079000A0E81850BFF4F5AF5FEA027C24BFB1E8CF
:1007A0001850A0E8185044BF18C918C0BDE8104040
:1007B0005FEA827C24BF51F8043B40F8043B08BF49
:1007C0007047D20728BF31F8023B48BF11F8012B10
:1007D00028BF20F8023B48BF00F8012B70474FF0BC
:1007E00000020429C0F0128010F0030C00F01B80FE
:1007F000CCF1040CBCF1020F18BF00F8012BA8BF0C
:1008000020F8022BA1EB0C0100F00DB85FEAC17CCF
:1008100024BF00F8012B00F8012B48BF00F8012B82
:1008200070474FF0000200B51346944696462039B3
:1008300022BFA0E80C50A0E80C50B1F12001BFF499
:10084000F7AF090728BFA0E80C5048BF0CC05DF8FF
:1008500004EB890028BF40F8042B08BF704748BF4D
:1008600020F8022B11F0804F18BF00F8012B7047C1
:1008700010B5044610F0030F08BF11F0030F40F04D
:1008800015804FF0013E121FC0F20E8051F8043B5C
:10089000A3EB0E0C2CEA030C1CEACE1C08BF40F89C
:1008A000043BF0D0A1F1040102F10402521E08DB66
:1008B00011F8013B002B00F8013BF7D11146FFF77F
:1008C0008EFF204610BD704770477047704700008C
:1008D00000487047DC25002000487047BC250020F8
:1008E0002DE9F0470D4699469246044600F124084A
:1008F0000168880604D5E06921F01001216000E05C
:100900000120A84201DD471B00E00027A1697A19F8
:1009100002EB0900081AA0612078C00602D4204624
:10092000FFF7B6FC002608E0D4E901211AF806001A
:100930009047206A401C761C20624E45F4DB2078EC
:10094000C0060AD52046FFF7A3FC06E0D4E9012142
:1009500030209047206A401C2062381EA7F1010712
:10096000F4DC07E0D4E9012118F805009047206A7B
:10097000401C2062281EA5F10105F3DC2046FFF78C
:100980009DFC2078000602D50220BDE8F0870120FA
:10099000FBE7000001694A1C02610878704700B556
:1009A0008FB0CDE901310021059105497944CDE9A8
:1009B000031011466846FFF723FD0FB000BD00008D
:1009C000E5FFFFFF0A6802F8010B0A60704710B5E7
:1009D000436913B1AFF3008001E0FFF780FC012011
:1009E00010BD127800F124010A7000224A70012221
:1009F000EDE711684FF0FF32E9E70000074B70B5F3
:100A00000D467B44FFF7CBFF0446284600F0D1F8A3
:100A100010B14FF0FF3070BD204670BDEFAA00004E
:100A20002DE9F04791460F4680460446002614F80B
:100A3000015B2DB1FFF704FC0068405DC007F6D1F3
:100A40002B2D02D02D2D18D0641E4A463946204643
:100A500000F060F827B13968A14201D1C7F80080E1
:100A60004FF0020471050BD54042002803DDFFF76B
:100A700033FF0460A007BDE8F08746F48066E4E732
:100A80000028F8DAFFF728FF04606FF00040F2E773
:100A9000431A28BF9A427FF670AE104410F0030F3D
:100AA00011441EBF11F8013D521E00F8013D10F027
:100AB000030F7FF4F6AF103AC0F00A8010B531E9A9
:100AC0001850103A20E91850BFF4F9AFBDE81040B3
:100AD000530724BF31E9081020E9081044BF51F83A
:100AE000043D40F8043D12F0030F08BF7047D207E1
:100AF00028BF31F8023D48BF11F8012C28BF20F86B
:100B0000023D48BF00F8012C7047000000487047C4
:100B1000BC2500202DE9F05F824615468B46002754
:100B20000AF10104B9460078302801D09DB113E0E4
:100B300014F8010B0127782803D0582801D045B1BB
:100B40000AE00DB1102D07D1002714F8010B102574
:100B500002E0082500E00A250026B0460EE005FB6D
:100B6000080005FB06F101271FFA80F801EB10468B
:100B7000B6F5803F00D3B94614F8010B294600F0C2
:100B800082F80028EBDABBF1000F05D00FB1641E2C
:100B900000E05446CBF80040B9F1000F06D0FFF753
:100BA0009BFE02210160C81EBDE8F09F48EA064096
:100BB000FAE7007B00F08000704700004FF0013C36
:100BC00050F8042B51F8043B9A4221D1A2EB0C03BC
:100BD000934313EACC1317D150F8042B51F8043B7C
:100BE0009A4215D1A2EB0C03934313EACC130BD119
:100BF00050F8042B51F8043B9A4209D1A2EB0C03A4
:100C0000934313EACC13DBD04FF00000704700BFD2
:100C1000D01A01BAB1FA81F101F0180122FA01F0FB
:100C2000CB40C1F12001DBB2C0B2C01A2CFA01F3F3
:100C3000D11A914311EAC311E6D170477546FFF707
:100C400065FFAE4605006946534620F0070085461D
:100C500018B020B5FFF7E0FABDE820404FF00006DD
:100C60004FF000074FF000084FF0000B21F0070194
:100C7000AC46ACE8C009ACE8C009ACE8C009ACE8D7
:100C8000C0098D4670473A2800D2303820F0200243
:100C9000412A01D3A2F13700884201D34FF0FF303F
:100CA000704710B50446AFF300802046BDE8104001
:100CB000FFF79EBA0021014A1170704740010020E1
:100CC00010B50446012C01D105F058FF014804700D
:100CD00010BD00004100002000B585B01648FFF7A8
:100CE000E9FF164808F0A5F806F0C8F900200090C2
:100CF000034603225021019002A801F0F3FC0020DA
:100D00000090034603225121019002A801F0EAFC61
:100D100000200090034602462E21019002A801F017
:100D2000E1FC00200090034602462F21019002A81A
:100D300001F0D8FC05B000BDE80E0020942400208E
:100D400072B603480078401C0149087070470000E3
:100D50003600002004480078401E03490870084609
:100D6000007800B962B67047360000201949096D55
:100D7000090EC1721749096D090C8172154950316C
:100D80000988090A417213495031097801721149E1
:100D9000496D090EC1710F49496D090C81710D49E9
:100DA00054310988090A41710A495431097801719D
:100DB0000849496E090EC1700649496E090C8170D7
:100DC000044964310988090A41700249643109788B
:100DD000017070470000F81F08B51348007840B94B
:100DE00002F03CF808F0AAF905F070FE00F032F8C5
:100DF00001E008F0FFF94FF0FF300523062207213C
:100E000000900A4808F0B2F806F05AF9064800784F
:100E100040B901200449087001F046FC012801D1C5
:100E200000F04CF808BD000034000020942400209D
:100E30001CB50020009003460122182101900448AF
:100E400001F050FC0121024801F0EDFD1CBD000045
:100E5000DC0E002000B585B001F026FC012811D180
:100E600000200090034603220B21019002A801F00C
:100E700039FC00200090034603220C21019002A8B7
:100E800001F030FC00200090012303221221019088
:100E900002A801F027FC002000900346032208214D
:100EA000019002A801F01EFC01F0DAFD01F0C4FD82
:100EB00001F0CCFD05B000BD00BFFEE710B50B484A
:100EC000007890B90A490B4808F082FC4FF47A7117
:100ED000084808F049FD074808F050FD01E008F017
:100EE00011FD024800780028F9D010BD350000201F
:100EF000B95F00089C0F002010B596B0002400F0E8
:100F0000BBF90446022C06D0032C2DD0042C03D0B0
:100F1000052C30D122E000BF00F0F6FB402106A8EE
:100F2000FFF77FFC1748C0782E2216498978CDE953
:100F30000121CDE903201348407800901148027840
:100F40002E2311A106A8FFF78FF91348038806AADC
:100F50001249134800F036FA04460EE011491248CF
:100F600000F084FA044608E000BF01200F49087031
:100F700000BF002401E0012400BF00BF204616B0DE
:100F800010BD00002400002025642563256425632E
:100F90002564256325640000280000209C0E0020A5
:100FA0005C0E00201C0E0020DC0D002079000020CB
:100FB00010B50648008842F21071884204DD002016
:100FC00002490880FFF798FF10BD00005200002082
:100FD00010B50246002003E013780344D8B2521C37
:100FE0000B1EA1F10104E1B2F6D110BD10B502460D
:100FF000002003E013780344D8B2521C0B1EA1F169
:101000000104E1B2F6D110BD10B50246002003E0A4
:1010100013780344D8B2521C0B1EA1F10104E1B2B3
:10102000F6D110BD10B54FF480710448FFF7D7FB1F
:101030000020034908800349087010BD9712002062
:10104000680000206A00002070B505460C46144870
:1010500005701448046014481449086006221449B5
:101060004FF4106009F0F8FC042212494FF470604C
:1010700009F048FD04220F494FF4706009F042FD69
:1010800004220C49900109F03DFD00200A49087036
:10109000002344220221024800780BF0FFFE70BDBD
:1010A000C2000020DC00002078563412D800002056
:1010B000C3000020E6000020C900002010B506484B
:1010C000007830B90BF082F90120034908700AF06A
:1010D0009BFE09F027FE10BDC900002002480068F1
:1010E000401C014908607047D000002010B590B046
:1010F0004FF480514A4800F0D5FF55208DF800008C
:10110000AA208DF8010002226946454800F0FAFF46
:1011100040216846FFF785FB21208DF800009820CC
:101120008DF8010004223F493D48083000F0EAFFF5
:10113000022269463A480C3000F0E4FF40213A4868
:10114000FFF76FFB40213948FFF76BFB3848FFF78B
:1011500062FA441C224636493148103000F0D2FF72
:101160003448FFF758FA441C224632492C48503084
:1011700000F0C8FF012230492948903000F0C2FF3A
:1011800001222E492648983000F0BCFF40216846D5
:10119000FFF747FB00208DF8000001208DF80100CB
:1011A000022269461E48A03000F0ACFF402168468C
:1011B000FFF737FB19208DF80000DB208DF80100C8
:1011C00043208DF8020040208DF803000422694678
:1011D0001348A83000F096FF40211148B03000F0CD
:1011E00061FF40210E48F03000F05CFF1448FFF72B
:1011F00012FA441C224612490948B03000F082FF1E
:101200001048FFF708FA441C22460E490448F03003
:1012100000F078FF0CA0FFF71BF810B010BD000025
:10122000000008084CE10008DC0D00201C0E002026
:1012300054E1000894E10008D4E10008D5E1000879
:10124000DCE100081CE200084441544120454550BF
:10125000524F4DBBD6B8B4B3F6B3A7C9E8D6C3CD89
:10126000EAB1CFA3A10D0A00704710B5044620468D
:1012700001F000FC10BD00002DE9F041C0B00025D8
:101280000024671E002600BF31E04FF480716846DD
:10129000FFF7C7FAFFF7C6FE17A16846FEF7E4FF9F
:1012A0006846FFF7B8F900F0FF084146684607F0C6
:1012B0007DFA1420FFF7D9FF03F00CFE12A11448A9
:1012C000FFF747F9054615B94FF0FF370DE0E8790C
:1012D0003038C4B2022C05DB052C03DC60B240B010
:1012E000BDE8F0814FF0FF3700BF701CC6B2032E7F
:1012F000CBDB3846F3E7000041542B4349505354AD
:1013000041545553000000005354415455533A0082
:10131000971200202DE9F041C0B0054600240026B8
:1013200000274FF480716846FFF77BFAFFF77AFEDB
:101330001BA16846FEF798FF6846FFF76CF900F0BE
:10134000FF084146684607F031FA1420FFF78DFF89
:1013500003F0C0FD15A11948FFF7FBF804461CB9BE
:10136000701E40B0BDE8F08115A104F10E00FFF73A
:10137000F0F8064604F10E00301AC7B24FF480713F
:101380006846FFF74EFA3A4604F10E016846FFF749
:101390006FFA3A4669462846FFF768F90020E0E709
:1013A00041542B4349465352000000002B43494609
:1013B00053523A53544149502C22000097120020B6
:1013C000220000002DE9F043C1B004460D46164648
:1013D0001F464FF0000800BF00201749087000BFEB
:1013E0004FF4807101A8FFF71CFA3946304600F02F
:1013F0002DFA00B901E04FF0FF38B8F1000F03DA21
:10140000404641B0BDE8F0832B4622460BA101A81F
:10141000FEF72AFF01A8FFF7FEF800F0FF09494692
:1014200001A800F0B5F9002802DA6FF0010801E028
:101430004FF000084046E4E7790000207B22742248
:101440003A312C22646576696365223A222573223B
:101450002C226B6579223A222573222C2276657222
:10146000223A2276312E32227D00000070B5C0B0C3
:1014700005460E46002400BF00201249087000BF38
:101480004FF480716846FFF7CCF900F045FB00B9D6
:1014900001E04FF0FF34002C02DA204640B070BD6E
:1014A00000F014FB08B9002401E06FF00104002CE7
:1014B00001DA2046F2E73146284600F065FA204678
:1014C000ECE700007900002010B5044616A1204684
:1014D000FFF73FF840B1062115A000F059F900BF11
:1014E0000120154908701DE014A12046FFF731F8CE
:1014F00020B100BF01201049087013E011A120465F
:10150000FFF727F870B111A12046FFF722F820B1AC
:1015100000BF01200849087004E000BF0020064910
:10152000087000BF10BD000024234154230D0000AB
:10153000244F4B23230D000079000020244F4B2320
:10154000230000002274223A3200000022737461EA
:10155000747573223A3000002DE9FC4180460D4637
:1015600000240026002000900190002715A140468D
:10157000FEF7EFFF04460CB3641D002000900190BD
:1015800005E020780DF80700781CC7B2641CFEF750
:1015900057FE00682178405C2028F2D06846FEF7AC
:1015A000CBFF86B209A14046FEF7D3FF441C32466A
:1015B00021462846FFF75AF80020A855F0B2BDE8AA
:1015C000FC8100002B4950442C0000003A00000030
:1015D0002DE9F041C0B004460F46154600261CB95F
:1015E00000203449087061E0012C5FD13249314A52
:1015F000127801EB82104021FFF7F1F8284603F042
:10160000BDFC70B92B490A780978491C294B19701F
:10161000294901EB82102B463A4628A1FEF724FE09
:101620000DE024490A780978491C224B1970224997
:1016300001EB82102B463A4623A1FEF715FE4FF42C
:1016400080716846FFF7EDF81B48FEF7E4FF80461F
:10165000424619496846FFF709F801260DE0684639
:10166000FEF7D9FF2C220DF80020134800EB86115D
:101670006846FEF7EFFF701CC6B20E4800780128DE
:1016800003DD0C4800788642E9DB4FF48071104896
:10169000FFF7A5F80F480068401C0E49086008468F
:1016A0006A460DA103680A48FEF7DEFD40B0BDE8BA
:1016B000F081000078000020B01400202225732261
:1016C0003A22257322000000222573223A25730056
:1016D000B0130020000000207B2274223A332C2219
:1016E0006461746174797065223A312C226461748A
:1016F0006173223A7B25737D2C226D7367696422A6
:101700003A25647D0000000070B5C0B000250024BB
:1017100000BF2AE04FF480716846FFF782F8FFF7B8
:1017200081FC14A16846FEF79FFD6846FEF773FF33
:10173000C6B23146684607F039F803F0CBFB6420A7
:10174000FFF793FD03F0C6FB0DA10E48FEF701FF66
:1017500048B90DA10B48FEF7FCFE10B9002040B0BF
:1017600070BD4FF0FF35601CC4B2032CD2DB28469D
:10177000F5E7000041542B434950434C4F5345007B
:101780004F4B0000971200204552524F520000006C
:101790002DE9F041C0B006460C46002500271CB9D3
:1017A000384640B0BDE8F0814FF480716846FFF7DD
:1017B00038F8FFF737FC22461CA16846FEF754FDB7
:1017C0006846FEF728FF00F0FF084146684606F02D
:1017D000EDFF0320FFF749FD03F07CFB17A118483C
:1017E000FEF7B7FE10B94FF0FF30DAE7FFF71AFC4B
:1017F0002146304606F0E8FF002512E011A110480E
:10180000FEF7A7FE10B96FF0010701E000270AE01C
:1018100003F060FB0A20FFF728FD03F05BFB681C68
:10182000C5B2322DEADB00BF3846BAE741542B433C
:10183000495053454E443D25640000004F4B000085
:101840009712002053454E44204F4B00F0B5C1B0D5
:1018500004460D4600264FF4807101A8FEF7E1FF13
:10186000FFF7E0FB2B46224612A101A8FEF7FCFC85
:1018700001A8FEF7D0FEC7B2394601A806F096FFD0
:1018800000BF06E003F026FB6420FFF7EEFC03F048
:1018900021FB3046711CCEB20F28F3DB0CA10D48A2
:1018A000FEF757FE18B94FF0FF3041B0F0BD0020F1
:1018B000FBE7000041542B43495053544152543DDF
:1018C00022544350222C222573222C256400000030
:1018D0004F4B00009712002010B5FFF7A3FB062125
:1018E00009A006F063FF03F0F5FA0A20FFF7BDFC3C
:1018F00003F0F0FA06A10748FEF72BFE10B94FF0EF
:10190000FF3010BD0020FCE741542B52535400001F
:101910004F4B00009712002070B50024651E14483C
:10192000007810B31348FEF776FEC6B23146114870
:10193000FFF72EFF002800DA17E0002412E00EA1C6
:101940001048FEF706FE10B94FF0FF3501E0012503
:101950000AE003F0BFFA0A20FFF787FC03F0BAFAA7
:10196000601CC4B2322CEADB00BF284670BD000008
:1019700079000020B0130020227374617475732203
:101980003A3000009712002070B5C0B004460D46F2
:1019900000BF00200C49087000BF4FF480716846FA
:1019A000FEF73FFFFFF73EFB2B46224607A16846A6
:1019B000FEF75AFC6846FEF72EFEC6B23146684670
:1019C00006F0F4FE40B070BD7900002041542B4376
:1019D000574A41505F4355523D222573222C222500
:1019E0007322000010B5C0B0FFF71CFB4FF48071EC
:1019F0006846FEF716FF0FA16846FEF735FC6846FD
:101A0000FEF709FEC4B22146684606F0CFFE03F099
:101A100061FA6420FFF729FC03F05CFA09A10A4887
:101A2000FEF797FD18B94FF0FF3040B010BD002011
:101A3000FBE7000041542B43574D4F44455F43554E
:101A4000523D32004F4B000097120020F0B5C1B05C
:101A500004460D461646FFF7E5FA4FF4807101A8DB
:101A6000FEF7DFFE2B4622460FA101A80096FEF7E7
:101A7000FBFB01A8FEF7CFFDC7B2394601A806F06F
:101A800095FE03F027FA6420FFF7EFFB03F022FA3C
:101A90000CA10D48FEF75DFD18B94FF0FF3041B0C5
:101AA000F0BD0020FBE7000041542B435753415049
:101AB0005F4355523D222573222C222573222C256B
:101AC000642C34004F4B00009712002010B5FFF734
:101AD000A9FA112109A006F069FE03F0FBF96420C0
:101AE000FFF7C3FB03F0F6F909A10A48FEF731FD41
:101AF00010B94FF0FF3010BD0020FCE741542B43DC
:101B000057444843505F4355523D312C310000004B
:101B10004F4B00009712002010B5FFF783FA0F21FA
:101B200009A006F043FE03F0D5F96420FFF79DFB02
:101B300003F0D0F908A10948FEF70BFD10B94FF0EA
:101B4000FF3010BD0020FCE741542B43574D4F445C
:101B5000455F4355523D31004F4B00009712002026
:101B60002DE9F04106460F460025FFF7B5FE03F0CC
:101B7000B1F94FF47A70FFF778FB03F0ABF900BFCF
:101B800006E0FFF72FFF044604B903E0681CC5B266
:101B9000032DF6DB00BF002509E00522394630465B
:101BA000FFF754FF044604B903E0681CC5B2032DD7
:101BB000F3DB00BF2046BDE8F0812DE9F041064689
:101BC0000F460025FFF788FE03F084F94FF47A7082
:101BD000FFF74BFB03F07EF900BF0AE039463046C1
:101BE000FFF744FC044614B92046BDE8F081681CA8
:101BF000C5B2032DF2DB2046F7E710B504F0BEFFB7
:101C0000012000F0E9FF10BD10B504F0B7FF4FF45C
:101C1000806000F0E1FF4FF4006000F0DDFF4FF462
:101C2000805000F0D9FF4FF4005000F0D5FF4FF482
:101C3000804000F0D1FF4FF4004000F0CDFF10BD18
:101C400010B504F09BFF022000F0C6FF10BD10B5D8
:101C500004F094FF042000F0BFFF10BD10B504F0A5
:101C60008DFF082000F0B8FF10BD10B504F086FF0E
:101C7000102000F0B1FF10BD10B504F07FFF202050
:101C800000F0AAFF402000F0A7FF802000F0A4FF92
:101C90004FF4807000F0A0FF4FF4007000F09CFF44
:101CA00010BD30B503460C460025002107E0585C06
:101CB000904202D15D18284630BD481CC1B2A142F5
:101CC000F5DB0020F8E730B503460C46002500217F
:101CD00007E0585C904202D15D18284630BD481C90
:101CE000C1B2A142F5DB0020F8E700002DE9F04188
:101CF00004460D4600260027B0464CF2503000F056
:101D000095F90646002E36D11C48006820F48070F4
:101D10001A49086035B125704CF2503000F086F950
:101D2000064628E024F00308D8F80070A007C10E8A
:101D3000FF2000FA01F827EA080724F00301022037
:101D400000F0A6FE064600BF00200D49087400BF43
:101D500024F003013A46102000F0C4FE064600BFFE
:101D60000748007C012802D10220BDE8F081012053
:101D70000349087400BF3046F7E70000043C024006
:101D8000981300202DE9F04104460D460026002757
:101D9000B0464CF2503000F049F90646002E46D1CC
:101DA0002448006820F480702249086035B12580FD
:101DB0004CF2503000F03AF9064638E000BF0020FF
:101DC0001D49087400BF04F00300032819D024F053
:101DD0000308D8F80070A007C10E4FF6FF7000FA94
:101DE00001F827EA080724F00301022000F050FE62
:101DF000064624F003013A46102000F073FE064622
:101E000009E000222146042000F06CFE0022611C43
:101E1000042000F067FE00BF0748007C012802D1C3
:101E20000220BDE8F08101200349087400BF30465C
:101E3000F7E70000043C02409813002070B5044608
:101E40000D4600264CF2503000F0F0F806465EB920
:101E50000648006820F480700449086025604CF250
:101E6000503000F0E3F80646304670BD043C0240B6
:101E70002DE9F04104460D460026B04600274CF2FD
:101E8000503000F0D3F8064686BB35B125704CF2D1
:101E9000503000F0CBF8064628E024F00307D7F8CE
:101EA0000080A007C10EFF2000FA01F728EA07080A
:101EB00024F00301022000F0EBFD064600BF0020E5
:101EC0000B49087400BF24F003014246102000F0C3
:101ED00009FE064600BF0648007C012802D1022008
:101EE000BDE8F08101200249087400BF3046F7E7E1
:101EF000981300202DE9F04104460D4600260027E6
:101F0000B0464CF2503000F091F80646002E40D119
:101F100035B125804CF2503000F088F8064638E0A4
:101F200000BF00201C49087400BF04F00300032810
:101F300019D024F00308D8F80070A007C10E4FF69E
:101F4000FF7000FA01F827EA080724F003010220D5
:101F500000F09EFD064624F003013A46102000F0F2
:101F6000C1FD064609E000222146042000F0BAFD2A
:101F70000022611C042000F0B5FD00BF0648007C73
:101F8000012802D10220BDE8F08101200249087435
:101F900000BF3046F7E700009813002070B50446F4
:101FA0000D4600264CF2503000F040F806462EB99F
:101FB00025604CF2503000F039F80646304670BDCE
:101FC00000201849096801F48071B1F5807F07D1BC
:101FD0001549496941F00201134A516140F480708A
:101FE0001049096801F40071B1F5007F07D10E496D
:101FF000496941F001010C4A516140F400700949FE
:10200000096801F40061B1F5006F07D1064949691B
:1020100041F00401044A516140F400600149086044
:1020200070470000183C02409813002070B5044629
:1020300000F0D6FE054609E0601C38B124B100F07E
:10204000CFFE401BA04201D9032070BD1448006898
:1020500000F001000028EFD11148006800F00200F4
:10206000022801D10E4908600D48006800F4807014
:10207000B0F5807F0DD00A48006800F40060B0F52C
:10208000006F06D00648006800F40070B0F5007FCD
:1020900003D1FFF795FF0120D7E70020D5E7000027
:1020A000183C02402DE9F04705460E460124002762
:1020B0004FF000094FF000084FEA960900F060FD6C
:1020C000044684B9A84600BF0BE04146022000F058
:1020D000DFFC044614B12046BDE8F08708F104088F
:1020E0007F1C4F45F1D300F0F3FC04462046F3E794
:1020F00070B504460D461646324621462846FEF780
:10210000B5FA70BD2DE9F043C1B005460E4617463D
:102110004FF001080024A14600BF16E03A463146C0
:10212000284600F019F880463A4601A92846FFF7EC
:10213000DFFF3A46314601A8FEF71DFA8146B9F1A4
:10214000000F00D103E0601CC4B2032CE6DB00BF2B
:10215000404641B0BDE8F0832DE9F04706460C4605
:10216000174601254FF000084FF0000900F008FD68
:1021700005469DB9B14600BF0EE0227849460420CD
:1021800000F0B0FC054615B12846BDE8F087641C98
:1021900009F1010908F10108B845EED300F098FCF7
:1021A00005462846F1E700002DE9F34FCBB04FF08C
:1021B0000008C146C24600204A90002549900026EA
:1021C0004890002747904690459043904290419018
:1021D00089A0FEF73DF84C994B98FFF7EEFC08F00C
:1021E0000FFC002089490870894908804FF4167354
:1021F0001A460A21874803F0A7FD87A0FEF728F8B2
:102200008CA0FEF725F884A0FEF722F8F2E002F099
:1022100061FE7F4801884398081AC8280BDD7C4876
:10222000008843908B4800F0EAFB80F0010B594690
:10223000884800F0F8FB75480078032812DC08F0A5
:1022400003FA0446012C01D0022C03D1012049904D
:1022500082460127002C25D17FA0FDF7F9FF012040
:1022600046901FE0499801281CDC022049904FF05D
:10227000010A4698012804D0012F02D07BA0FDF767
:10228000E7FF44A90F2008F0C9FF401C10B985A042
:10229000FDF7DEFF9DF8100118B989A0FDF7D8FF02
:1022A00000E000BF59480078052825DB5748007832
:1022B0000A2821DA05BB55490978429888423DD061
:1022C000524800784290FEF7D7FFC0B244909DF884
:1022D0001001022806D0032805D0042809D00528BB
:1022E00006D107E000BF0125A9460120489002E081
:1022F00000BF00BF00BF21E0444800780A281DDB72
:10230000012D1BD00125A946FEF7B6FFC0B24490AF
:102310009DF81001022806D0032805D0042807D014
:10232000052804D105E000BF0120489005E000BF6A
:1023300000BF68A0FDF78CFF00BF00BF33480078E6
:10234000062824DC012E22D04FF0000B01A804F057
:10235000C7F88346BBF1000F0BDD63A101A8FEF7B0
:10236000F8F88046B8F1000F03D0012601204A900A
:102370004790264909784198884207D02348007839
:1023800041905E481321826A5DA0904706E02EB915
:1023900060A0FDF75DFF012601204A90B9F1000F12
:1023A0001FD0BAF1000F1CD04A98002819D04598C8
:1023B000012816D0489830B12FB1479818B15AA0CB
:1023C000FDF746FF02E060A0FDF742FF12A0FDF717
:1023D0003FFF65A0FDF73CFF0FA0FDF739FF01208F
:1023E00045900A4800781E2802DD4DB0BDE8F08F08
:1023F00002F070FD0BE70000B2E2CAD4B9A6C4DC5B
:10240000B3F5CABCBBAF2E2E2E0D0A005A00002019
:102410004E00002020A2D3193D3D3D3D3D3D3D3DB8
:102420003D3D3D3D3D3D3D3D3D3D3D3D3D3D3D3DDC
:102430003D0D0A00B2E2CAD4BFAACABCA3A13D3D69
:102440003D3D3D3D3D3D3D3D3D3D3D3D3D3E0D0A1E
:1024500000000000DC0E00205735353030B9A6C42E
:10246000DCB9CAD5CFA3A10D0A000000573535301D
:1024700030B9A6C4DCB9CAD5CF28C7EBBCECB2E9E9
:10248000CAC7B7F1CDF8CFDFBDD3B4A5B2BBC1BCCD
:10249000BBF2C2B7D3C9C6F7D2ECB3A329A3A10D2F
:1024A0000A0000005735353030CDF8CFDFC1ACBD64
:1024B000D3D7B4CCACD2ECB3A3A3A10D0A000000D7
:1024C0005735353030CDF8CFDFCEB4BDD3C8EBA310
:1024D000A10D0A0045535038323636B9A6C4DCB9CE
:1024E000CAD5CFA3A10D0A004C6F52614761746534
:1024F00077617954657374506F6E670074E20008F9
:102500004C6F52614761746577617954657374509B
:10251000696E67004C6F5261B9A6C4DCB9CAD5CFE9
:10252000A3A10D0A000000003D3D3D3D3D3DA1B78A
:10253000C9E8B1B8BACFB8F1A3A1A1B63D3D3D3DC0
:102540003D3D0D0A000000003D3D3D3D3D3DA1B734
:10255000C9E8B1B8B9CAD5CFA3A1A1B63D3D3D3DAB
:102560003D3D0D0A00000000B2E2CAD4BDE1CAF848
:10257000A3A13C3D3D3D3D3D3D3D3D3D3D3D3D3DC2
:102580003D3D0D0A00000000C0B006460F464FF06A
:1025900000080025A94639463046FFF7E1FA4FF416
:1025A00016731A460A21244803F0CEFB0020234963
:1025B0000880814622A0FDF74BFE3CE002F08AFC39
:1025C0001E480088A0EB090064280CDD00201B4990
:1025D00008808146234800F012FA80F00104214669
:1025E000204800F020FA684603F07AFF0546002DE7
:1025F0001FDD00241CA0FDF72BFE00BF06E01DF828
:1026000004101CA0FDF724FE601CC4B2AC42F6DB33
:1026100013A0FDF71DFE19A16846FDF79AFF80463D
:10262000B8F1000F04D01A481321826A19A090470C
:1026300000BF02F04FFCC1E720A2D3194E000020DA
:102640003D3D3D3D3D3DA1B7BFAAC6F4B2E2CAD46F
:10265000B9A4D7B0B3CCD0F2A1B63D3D3D3D3D3D90
:102660000D0A0000DC0E00204C6F52612052783DB4
:102670000D0A000020253032580000004C6F5261D6
:10268000476174657761795465737450696E67004A
:1026900074E200084C6F5261476174657761795448
:1026A000657374506F6E670000207047024600210A
:1026B00011E00B4850F8310090420AD8084B481CF2
:1026C00053F83000904204D9184600EBC10000795D
:1026D0007047481CC1B21529EBD300BFFEE70000CC
:1026E00034E300082DE9FC4704460D4616461F4614
:1026F000DDE90A893B46324629462046CDE9008974
:1027000000F002F8BDE8FC872DE9F04387B00446ED
:102710000E4615461F46DDE90E982670701C10B94E
:1027200007B0BDE8F083207800F00F010120884059
:102730006080207800F0F00078B94748606000BF02
:102740004648006840F001004449086008460068B7
:1027500000F00100019000BF4EE0207800F0F00092
:1027600010280FD13E48606000BF3C48006840F030
:1027700002003A4908600846006800F00200019033
:1027800000BF39E0207800F0F00020280FD1354854
:10279000606000BF3148006840F004002F490860C5
:1027A0000846006800F00400019000BF24E0207893
:1027B00000F0F00030280FD12B48606000BF2748A0
:1027C000006840F00800254908600846006800F0ED
:1027D0000800019000BF0FE02448606000BF1F4860
:1027E000006840F020001D4908600846006800F0BD
:1027F0002000019000BF00BF6088029084F80A901A
:10280000CDF810900220059015B90020039017E034
:10281000032D02D10320039012E0022D09D1012FD4
:1028200002D11220039001E002200390CDF818801D
:1028300006E0012F02D11120039001E00120039056
:10284000012D03D14146204600F0C6F802A9606878
:1028500000F0D0F900BF63E7000002401C380240DE
:102860000004024000080240000C02400014024034
:1028700010B5044604B900BF94F90000401C08B923
:10288000002010BD6188606800F09CFAF9E7000044
:102890002DE9F04385B004460D4616461F464FF01D
:1028A00000084FF0060917B905B0BDE8F08360884D
:1028B0000090012D02D14448019006E0022D02D182
:1028C0004248019001E042480190A07A0290022023
:1028D00003906946606800F08DF9052E0ED2DFE89E
:1028E00006F00304070A0E0000BF4FF0030809E0DA
:1028F0004FF0020806E04FF0010803E000BF4FF080
:10290000000800BF00BF6088B0F5807F3DD012DCBA
:10291000102834D008DC012825D0022826D004282D
:1029200027D008283DD127E020282BD040282AD0C6
:10293000802836D128E0B0F5805F2CD009DCB0F5D6
:10294000007F23D0B0F5806F23D0B0F5006F28D181
:1029500020E0B0F5005F1FD0B0F5804F1DD0B0F57E
:10296000004F1ED11AE04FF006091BE04FF0070997
:1029700018E04FF0080915E04FF0090912E04FF098
:102980000A090FE000BF00BF00BF00BF4FF01709EA
:1029900008E000BF00BF00BF00BF00BF4FF0280924
:1029A00000E000BF00BF207800F00F00094941F8A7
:1029B000207000224146484600F07EFA484600F06A
:1029C0006EFA00BF70E70000000011100000211037
:1029D00000003110B00F002070B504460D460CB158
:1029E000606800B900BF94F90000401C00B970BDD8
:1029F000EAB26188606800F0EDF900BFF7E710B552
:102A000004462046FFF734FF10BD2DE9F04104468F
:102A10000D4616461F463B46324629462046FFF7DE
:102A200037FFBDE8F08170B504460D4629462046C3
:102A3000FFF7D2FF70BD00000348406840F001007E
:102A40000149486070470000002004E003484068E6
:102A500040F004000149486070470000002004E095
:102A60000348406840F00200014948607047000098
:102A7000002004E031B5002400F0B2F9044600BFA4
:102A800000F0AEF9001B00998842F9D338BD000070
:102A900070B504460D4600264CF25030FFF7C6FADA
:102AA00006468EB9002009494861022C00D12860F1
:102AB000012C01D1002028800CB9002028704CF294
:102AC0005030FFF7B3FA0646304670BD9813002029
:102AD0000348006840F00100014908600020704789
:102AE000043C02402DE9F04104460E4615460127FC
:102AF00000BF2248007C012802D10220BDE8F081FD
:102B000001201E49087400BF4CF25030FFF78EFAC6
:102B100007465FBB002019494861042C04D1E9B283
:102B20003046FFF7E3F80746082C04D1A9B2304637
:102B3000FFF728F90746102C04D129463046FFF745
:102B40007DF90746022C04D129463046FFF726FAC4
:102B50000746012C04D1A9B23046FFF7CBF907464E
:102B600024B9E9B23046FFF783F9074600BF0020D9
:102B70000249087400BF3846C0E7000098130020DF
:102B80000748006800F0010030B1064804490831E8
:102B900008600548086001E0012070470020FCE75C
:102BA000043C0240EFCDAB890504030270B5044636
:102BB0000025002C05DD02E06410681CC5B2012C64
:102BC000FAD1044850F8250018B1024951F82500FF
:102BD000804770BDB00F002010B50446044800685F
:102BE000204020B1024804602046FFF7DFFF10BDFF
:102BF0001404014078B50346002200240020CAE0F6
:102C0000012696400D6805EA0604002C71D04D6837
:102C1000022D02D04D68122D13D1D60803F12005E4
:102C200055F826005507EE0E0F25B540A843560768
:102C3000F60E0D69B5402843D60803F1200545F886
:102C40002600186856000325B540A8430D7905F005
:102C500003055600B540284318604D68012D08D083
:102C60004D68022D05D04D68112D02D04D68122DF2
:102C700013D1986856000325B540A8435600CD6887
:102C8000B54028439860586801259540A8430D79C0
:102C9000C5F30015954028435860D86856000325B1
:102CA000B540A84356008D68B5402843D8604D68AC
:102CB00005F08055B5F1805F6CD100BF394D2D68AE
:102CC00045F00105374E356035462D6805F00105A4
:102CD000009500BF00BF344D960855F826009507B3
:102CE0002E0F0F25B540A843304DAB4202D1002531
:102CF00015E04FE02E4DAB4201D101250FE02D4DE7
:102D0000AB4201D102250AE02B4DAB4201D1032594
:102D100005E02A4DAB4201D1042500E005259607C8
:102D2000360FB5402843204D960845F82600244D1F
:102D30002868A0434D6805F48035B5F5803F00D183
:102D400020431F4D28602D1D2868A0434D6805F4C1
:102D50000035B5F5003F00D12043194D2D1D2860E9
:102D60002D1D2868A0434D6805F48015B5F5801F1A
:102D700000D12043124D083528602D1D2868A0433E
:102D80004D6805F40015B5F5001F00D120430C4D2A
:102D90000C352860521C0D68D540002D7FF430AFF3
:102DA00078BD0000203802400800014000000240C9
:102DB0000004024000080240000C024000100240E3
:102DC00000040140024613690B400BB1012000E0F2
:102DD000002070470AB1816101E00B0483617047F4
:102DE00001480068704700007000002070B504467C
:102DF0000CB9012070BD4CF6CC402168086045F24A
:102E0000555021680860D4E9001048602168A06826
:102E10008860FFF7E5FF054606E0FFF7E1FF401B8E
:102E2000302801D90320E5E72068C0680028F4D1E4
:102E30004AF6AA20216808600020DBE701464AF62E
:102E4000AA200A681060002070470000024800684D
:102E5000401C0149086070477000002010B5032035
:102E600000F068F8002000F005F800F017F80020E6
:102E700010BD000070B50446074800684FF47A7131
:102E8000B0FBF1F5284601F037FD00222146501E27
:102E900000F012F8002070BD6C000020704700BFE9
:102EA00000F01F02012191404209920002F1E0224C
:102EB000C2F8001100BF70472DE9F05F80460D4653
:102EC0001646002702F0F2FF074639462A463346E7
:102ED00001F00700C0F1070ABAF1040F02D94FF060
:102EE000040A01E0C0F1070AD14600F1040ABAF170
:102EF000070F02D24FF0000A01E0A0F1030AD44606
:102F00004FF0010A0AFA09FAAAF1010A0AEA020ACA
:102F10000AFA0CFA4FF0010B0BFA0CFBABF1010BA8
:102F20000BEA030B4AEA0B042146404602F0C6FFB7
:102F3000BDE8F09F00BF00F00702064B19684FF68E
:102F4000FF031940044B0B4343EA0221014B196074
:102F500000BF70470CED00E00000FA0500BF00BFA5
:102F600000BF00BF00BFBFF34F8F00BF00BF00BF57
:102F70000948006800F4E06008490843001D06495C
:102F8000086000BF00BF00BFBFF34F8F00BF00BF8E
:102F900000BF00BF00BFFDE70CED00E00000FA0538
:102FA0000120810291FAA1F1B1FA81F1014A42F8BE
:102FB0002100704700000E420120410291FAA1F168
:102FC000B1FA81F1014A42F82100704700000E4237
:102FD0000248006800F4C0507047000000700040D4
:102FE0000020102191FAA1F1B1FA81F1014A42F8D1
:102FF0002100704700000E420D4A126822F00302C1
:1030000002430B4B1A600B4A126842F00402094B50
:103010001A60012901D130BF02E040BF20BF20BFAC
:10302000044A126822F00402024B1A607047000042
:103030000070004010ED00E0F8B5044600260025C1
:10304000207800F0010000287ED0207800F00100F8
:1030500000B100BF00276A48006800F0805070B9D6
:1030600000BF6748006840F0805065490860084626
:10307000006800F08050009000BF00BF0127614849
:10308000006800F48070B0B95E48006840F4807059
:103090005C490860FFF7A4FE064606E0FFF7A0FEC5
:1030A000801B642801D90320F8BD5648006800F44D
:1030B00080700028F2D052482438006800F0C045E3
:1030C000606800F0C040A8420DD0606800F4403055
:1030D000B0F5403F07D14A482438006800F400307A
:1030E00008B10120E0E746481030006800F44035A0
:1030F000002D59D0606800F44030A84254D02078A8
:1031000000F0010078B33E481030006820F44035EC
:103110000121C80590FAA0F0B0FA80F03A4A02EB1B
:103120008000C0F8801600214FF4000090FAA0F053
:10313000B0FA80F002EB8000C0F880163048103002
:10314000056005F4807000E057E060B1FFF748FECD
:10315000064609E0FFF744FE801B41F288318842B1
:1031600002D90320A0E71FE04020C10091FAA1F19D
:10317000B1FA81F108430121B1EB601F03D120486E
:103180002438006802E01E48103000684021CA0060
:1031900092FAA2F2B2FA82F2114301F01F02012167
:1031A000914008400028D5D000BF00BF606800F4FF
:1031B0004030B0F5403F0BD111482438006820F072
:1031C000C040616801F0C04108430D4924390860DE
:1031D00000BF0B4810300068616801F440310843BB
:1031E00007491031086000BF012F05D1044800686D
:1031F00020F080500249086000BF002054E7000022
:1032000024380240007000400000474270B5044678
:103210000D460026B348006800F00100A84218D20D
:1032200000BF012D05D1AF48006840F00400AD4952
:103230000860AC48006820F001002843A9490860F4
:1032400000BF0846006800F00100A84201D001203C
:1032500070BD207800F00200022807D1A248006863
:1032600020F0F000A16808439F490860207800F032
:10327000010000287BD06068022821D120200103B2
:1032800091FAA1F1B1FA81F108430121B1EB601F7C
:1032900003D195480838006802E093482C30006854
:1032A00020210A0392FAA2F2B2FA82F2114301F04B
:1032B0001F0201219140084000286CD10120C7E77E
:1032C0006068032820D12020010591FAA1F1B1FA0C
:1032D00081F108430121B1EB601F03D18248083816
:1032E000006802E080482C30006820210A0592FA2C
:1032F000A2F2B2FA82F2114301F01F0201219140C1
:103300000840A8BB0120A3E76068012820D1202045
:10331000022191FAA1F1B1FA81F108430121B1EB47
:10332000601F03D170480838006802E06E482C30F6
:1033300000682021022292FAA2F2B2FA82F211432C
:1033400001F01F0201219140084088B901207FE768
:103350002020010191FAA1F1B1FA81F10843012184
:10336000B1EB601F05D160480838006804E069E0EF
:1033700011E05D482C30006820210A0192FAA2F287
:10338000B2FA82F2114301F01F020121914008407C
:1033900008B901205CE75448006820F00300616828
:1033A000084351490860FFF71BFD06466068022884
:1033B00010D108E0FFF714FD801B41F288318842EC
:1033C00001D9032044E74848006800F00C000828B1
:1033D000F0D137E06068032810D108E0FFF700FD66
:1033E000801B41F28831884201D9032030E73E48F2
:1033F000006800F00C000C28F0D123E06068012880
:1034000010D108E0FFF7ECFC801B41F288318842C4
:1034100001D903201CE73448006800F00C000428A0
:10342000F0D10FE008E0FFF7DBFC801B41F28831B0
:10343000884201D903200BE72B48006800F00C00FC
:103440000028F0D12748006800F00100A84218D9F0
:1034500000BF012D05D12348006840F00400214938
:1034600008602048006820F0010028431D490860DA
:1034700000BF0846006800F00100A84201D001200A
:10348000E6E6207800F00400042807D1164800681A
:1034900020F4E060E168084313490860207800F0F8
:1034A0000800082808D11048006820F460502169FD
:1034B00040EAC1000C49086000F04EF80A4909686A
:1034C00001F0F001F02292FAA2F2B2FA82F2D140B7
:1034D000064A515CC840064908600020FFF7CAFC54
:1034E0000020B5E6003C024008380240D9E200085E
:1034F0006C00002001480068704700006C0000204C
:1035000000B5FFF7F7FF0749096801F4E0614FF4E0
:10351000E06292FAA2F2B2FA82F2D140024A515C1F
:10352000C84000BD08380240E9E2000800B5FFF7D6
:10353000E1FF0749096801F460514FF4605292FAC3
:10354000A2F2B2FA82F2D140024A515CC84000BDF8
:1035500008380240E9E20008F0B500210023002409
:10356000002200250020254E316801F00C067EB3B4
:10357000042E04D0082E04D00C2E2AD103E02048BB
:103580003AE0204838E001F470164FF4701797FACB
:10359000A7F7B7FA87F7FE401B4FBB5D01F4400663
:1035A0004FF4400797FAA7F7B7FA87F7FE40741C65
:1035B000124E366806F4803626B1124E5E43B6FBD4
:1035C000F4F203E00E4E5E43B6FBF4F2104613E055
:1035D00000E000BF094E361F366806F460464FF41F
:1035E000604797FAA7F7B7FA87F726FA07F56E1C30
:1035F0000127B740F80300BF00BFF0BD0838024004
:103600000024F40000127A00D0E20008F8B5044665
:103610000025207800F00100002879D0F7480068E4
:1036200000F00C0008280CD0F448006800F00C00F2
:103630000C282BD1F148006800F48030B0F5803FB1
:1036400024D12020010391FAA1F1B1FA81F10843BC
:103650000121B1EB601F03D1E8480838006802E09F
:10366000E6482C30006820210A0392FAA2F2B2FA4E
:1036700082F2114301F01F0201219140084000280D
:10368000CBD06068002843D10120F8BD00BF60683E
:10369000012808D1D9480838006840F48030D7495B
:1036A000083908602DE0606868B9D44808380068B7
:1036B00020F48030D149083908600846006820F4B9
:1036C000802008601DE0606805280DD1CB480838CF
:1036D000006840F48020C94908390860084600683D
:1036E00040F4803008600CE0C4480838006820F4DA
:1036F0008030C249083908600846006820F48020FC
:10370000086000BF606860B3FFF76AFB054607E02A
:1037100052E0FFF765FB401B642801D90320B4E7A2
:103720002020010391FAA1F1B1FA81F108430121AE
:10373000B1EB601F03D1B1480838006802E0AF4820
:103740002C30006820210A0392FAA2F2B2FA82F227
:10375000114301F01F020121914008400028D8D0F8
:103760002AE0FFF73DFB054606E0FFF739FB401B6B
:10377000642801D9032088E72020010391FAA1F1F0
:10378000B1FA81F108430121B1EB601F03D19B48DD
:103790000838006802E099482C30006820210A03AC
:1037A00092FAA2F2B2FA82F2114301F01F02012151
:1037B000914008400028D8D1207800F0020002286B
:1037C00045D18E48006800F00C0004280AD08B48D0
:1037D000006800F00C000C283BD18848006800F419
:1037E0008030A8BB2020022191FAA1F1B1FA81F129
:1037F00008430121B1EB601F03D1804808380068FD
:1038000002E07E482C3000682021022292FAA2F2C7
:10381000B2FA82F2114301F01F02012191400840E7
:1038200020B1E068012801D001202EE77348001F75
:10383000006820F4F8504FF4F85292FAA2F2B2FA6B
:1038400082F22169914008436C49091F08607DE0BC
:10385000FFE7E068F0B3012090FAA0F1B1FA81F13E
:10386000674A42F82100FFF7BBFA054606E0FFF77A
:10387000B7FA401B022801D9032006E720200221C5
:1038800091FAA1F1B1FA81F108430121B1EB601F76
:1038900003D15A480838006802E058482C300068C4
:1038A0002021022292FAA2F2B2FA82F2114301F02E
:1038B0001F020121914008400028D8D04F48001F26
:1038C000006820F4F8504FF4F85292FAA2F2B2FADB
:1038D00082F200E006E02169914008434749091F50
:1038E000086033E00020012191FAA1F1B1FA81F1E1
:1038F000434A42F82100FFF773FA054606E0FFF756
:103900006FFA401B022801D90320BEE620200221C5
:1039100091FAA1F1B1FA81F108430121B1EB601FE5
:1039200003D136480838006802E034482C3000687B
:103930002021022292FAA2F2B2FA82F2114301F09D
:103940001F020121914008400028D8D1207800F0C2
:103950001000102873D12948006800F00C000028DE
:103960006ED12020010191FAA1F1B1FA81F1084351
:103970000121B1EB601F03D120480838006802E044
:103980001E482C30006820210A0192FAA2F2B2FAF5
:1039900082F2114301F01F0201219140084018B149
:1039A000A06908B9012070E61449091F206A096856
:1039B00001F46041884225D9206A02F0E5FB08B194
:1039C000012062E60D48001F006820F46040216A73
:1039D00008430A49091F08600846006820F07F4034
:1039E0004FF07F4292FAA2F2B2FA82F2E16991407C
:1039F00008430249091F086023E00000083802401C
:103A000000004742FC48006820F46040216A0843F7
:103A1000F94908600846006820F07F404FF07F4277
:103A200092FAA2F2B2FA82F2E16991400843F249B5
:103A30000860206A02F0A8FB18B1012025E6A5E085
:103A40001FE04FF4604191FAA1F1B1FA81F1206ACF
:103A5000C840401C01218140C803E749091D09688D
:103A600001F0F001F02292FAA2F2B2FA82F2D14011
:103A7000E24A515CC840E24908600020FFF7FAF9C9
:103A800084E0A069F0B30120010291FAA1F1B1FA3A
:103A900081F1DC4A42F82100FFF7A2F9054606E071
:103AA000FFF79EF9401B022801D90320EDE52020F5
:103AB000010191FAA1F1B1FA81F108430121B1EBC1
:103AC000601F03D1CC48001F006802E0CA483030B4
:103AD000006820210A0192FAA2F2B2FA82F211439E
:103AE00001F01F020121914008400028D8D0C248AF
:103AF000006820F46040216A0843BF490860084616
:103B0000006800E00DE020F07F404FF07F4292FA25
:103B1000A2F2B2FA82F2E16991400843B649086024
:103B200034E000204FF4807191FAA1F1B1FA81F1F3
:103B3000B44A42F82100FFF753F9054606E0FFF7C3
:103B40004FF9401B022801D903209EE520200101E6
:103B500091FAA1F1B1FA81F108430121B1EB601FA3
:103B600003D1A548001F006802E0A3483030006878
:103B700020210A0192FAA2F2B2FA82F2114301F074
:103B80001F020121914008400028D8D1207800F080
:103B9000080008286ED16069A8B3012090FAA0F14E
:103BA000B1FA81F1974A02EB8101C1F88006FFF773
:103BB00017F9054606E0FFF713F9401B022801D963
:103BC000032062E54020022191FAA1F1B1FA81F1CE
:103BD00008430121B1EB601F03D18748001F006833
:103BE00002E08548303000684021022292FAA2F2B9
:103BF000B2FA82F2114301F01F0201219140084004
:103C00000028D8D036E0FFE70021012090FAA0F08C
:103C1000B0FA80F07B4A02EB8000C0F88016FFF714
:103C2000DFF8054606E0FFF7DBF8401B022801D964
:103C300003202AE54020022191FAA1F1B1FA81F195
:103C400008430121B1EB601F03D16B48001F0068DE
:103C500002E06948303000684021022292FAA2F264
:103C6000B2FA82F2114301F01F0201219140084093
:103C70000028D8D1207800F00400042875D100264F
:103C80005D482030006800F0805080B900BF5A487D
:103C90002030006840F080505749203108600846C5
:103CA000006800F08050009000BF00BF0126564819
:103CB000006800F48070B0B95348006840F4807028
:103CC00051490860FFF78CF8054606E0FFF788F8D1
:103CD000401B642801D90320D7E44B48006800F456
:103CE00080700028F2D000BFA068012808D14248A7
:103CF0003030006840F480703F49303108602DE07A
:103D0000A06868B93C483030006820F480703A49B7
:103D1000303108600846006820F4806008601DE0CB
:103D2000A06805280DD134483030006840F4806028
:103D30003149303108600846006840F480700860FE
:103D40000CE02D483030006820F480702A49303172
:103D500008600846006820F48060086000BFA06822
:103D600070B3FFF73DF8054609E06AE0FFF738F861
:103D7000401B41F28831884201D9032085E440206C
:103D8000C10091FAA1F1B1FA81F108430121B1EB2F
:103D9000601F03D11848001F006802E01648303049
:103DA00000684021CA0092FAA2F2B2FA82F21143EC
:103DB00001F01F020121914008400028D6D035E0D3
:103DC000FFF70EF8054608E0FFF70AF8401B41F23E
:103DD0008831884201D9032057E44020C10091FA7C
:103DE000A1F1B1FA81F108430121B1EB601F0DD1BE
:103DF0000148001F00680BE004380240D9E20008C7
:103E00006C00002000004742007000406C480068D1
:103E10004021CA0092FAA2F2B2FA82F2114301F0F2
:103E20001F020121914008400028CDD1012E07D169
:103E300063481038006820F08050614910390860EC
:103E400000BF606AF0B35E482C38006800F00C00D8
:103E50000C287AD0606A022879D100204FF0807156
:103E600091FAA1F1B1FA81F1564A42F82100FEF728
:103E7000B7FF054606E0FEF7B3FF401B022801D955
:103E8000032002E42020010591FAA1F1B1FA81F1A9
:103E900008430121B1EB601F03D149483438006861
:103EA00001E04748006820210A0592FAA2F2B2FA1E
:103EB00082F2114301F01F020121914008400028C5
:103EC000D9D100E07AE0D4E90A010843216B084324
:103ED0003B492C39096821F47D01084338492C39C4
:103EE00008600120010691FAA1F1B1FA81F1354A89
:103EF00042F82100FEF774FF054606E0FEF770FF6A
:103F0000401B022801D9032009E42020010591FA71
:103F1000A1F1B1FA81F108430121B1EB601F03D196
:103F200027483438006801E02548006820210A0548
:103F300092FAA2F2B2FA82F2114301F01F020121B9
:103F4000914008400028D9D038E035E0FFE7002153
:103F50004FF0807090FAA0F0B0FA80F0194A42F861
:103F60002010FEF73DFF054606E0FEF739FF401B37
:103F7000022801D9032058E42020010591FAA1F17B
:103F8000B1FA81F108430121B1EB601F03D10C4864
:103F90003438006801E00A48006820210A0592FAD6
:103FA000A2F2B2FA82F2114301F01F020121914004
:103FB00008400028D9D101E0012036E4002034E493
:103FC0003438024000004742704770B5044600256F
:103FD00000BF207F012801D1022070BD0120207781
:103FE00000BF0220607700BFCA20216848625320CA
:103FF0002168486200BF2068806820F480602168E2
:1040000088602068806820F4804021688860FEF71E
:10401000E7FE054612E0FEF7E3FE401BB0F57A7FAF
:104020000CD900BFFF202168486200BF03206077E1
:1040300000BF0020207700BF0320CEE72068C068C3
:10404000C0F380000028E6D000BFFF20216848624E
:1040500000BF0120607700BF0020207700BF00BFB5
:10406000BBE7704710B5044620688068C0F3003095
:1040700078B12068C068C0F3002050B12046FFF737
:10408000F0FF2068C06800F0800060F4C070216814
:10409000C86020688068C0F3403078B12068C0688C
:1040A000C0F3402050B12046FFF78EFF2068C06863
:1040B00000F0800060F420702168C8604FF4003088
:1040C000024908600120607710BD0000140401401F
:1040D00070B504460D46002600BF207F012801D19F
:1040E000022070BD0120207700BF0220607700BF52
:1040F000CA202168486253202168486200BFB5F594
:10410000807F29D12068806820F4807021688860D1
:104110002068806820F4805021688860FEF760FE87
:10412000064612E0FEF75CFE801BB0F57A7F0CD9E4
:1041300000BFFF202168486200BF0320607700BFF6
:104140000020207700BF0320CBE72068C06800F084
:1041500001000028E6D028E02068806820F4007084
:10416000216888602068806820F400502168886099
:10417000FEF736FE064612E0FEF732FE801BB0F573
:104180007A7F0CD900BFFF202168486200BF03205E
:10419000607700BF0020207700BF0320A1E72068E0
:1041A000C068C0F340000028E6D000BFFF202168AF
:1041B000486200BF0120607700BF0020207700BF69
:1041C00000BF8EE72DE9F04106460C46174698469B
:1041D0000025B7F5807F05D14FF48070A06130686D
:1041E000C56904E04FF40070A0613068056AC5F34A
:1041F00005402070C5F30620607005F07F00A070B8
:1042000005F48000000CE070C5F30560207505F032
:104210008040206105F08030E060B8F1000F0FD1E0
:10422000207802F01BF82070607802F017F86070B8
:10423000A07802F013F8A070207D02F00FF820752E
:104240000020BDE8F081000070B505460B4616461B
:104250000024286840680E4900EA0104200CD87048
:10426000C4F30420587004F03F009870C4F3423047
:1042700018705EB9D87801F0F1FFD870587801F065
:10428000EDFF5870987801F0E9FF9870002070BD3C
:104290003FFFFF002DE9F04106460C46174600257A
:1042A000306800680F4900EA0105C5F30540207039
:1042B000C5F30620607005F07F00A07005F4800053
:1042C000000CE0705FB9207801F0C8FF20706078C2
:1042D00001F0C4FF6070A07801F0C0FFA070002062
:1042E000BDE8F0817F7F7F0010B504460CB9012046
:1042F00010BD607F20B900202077204600F04EF8E6
:104300000220607700BFCA202168486253202168DC
:10431000486200BF204601F0B9FF40B100BFFF2056
:104320002168486200BF042060770120E0E7206830
:1043300080681949084021688860216960680843DD
:104340006169084321688968084321688860216899
:10435000E068086120680169208941EA004021681D
:1043600008612068C06820F080002168C86020686B
:10437000006C20F48020216808642068006CA1692A
:1043800008432168086400BFFF202168486200BF1D
:10439000012060770020ABE7BFFF8FFF7047000070
:1043A0002DE9F04704460D4616460027B84600BFE3
:1043B000207F012802D10220BDE8F087012020776C
:1043C00000BF022060774EBB2068806800F040008C
:1043D00000B102E00020E87000BF286900B900E0E9
:1043E00000BF287801F045FF4FEA0049687801F0E6
:1043F00040FF49EA0029A87801F03BFF49EA00099B
:10440000E87849EA0049287D01F033FF49EA006075
:1044100029690843E96840EA01082AE020688068C1
:1044200000F0400020B1287801F018FF804602E03B
:104430000020E87000BF286920B9287D01F00EFF38
:10444000804604E0287D01F009FF804600BF2878FF
:104450000004697840EA0120A9780843E97840EA35
:104460000140297D40EA016029690843E96840EA82
:10447000010800BFCA2021684862532021684862B1
:1044800000BFA869B0F5807F3AD12068806820F429
:104490008070216888602068C06800F0800060F447
:1044A000C0702168C860FEF79BFC074612E0FEF76B
:1044B00097FCC01BB0F57A7F0CD900BFFF202168A4
:1044C000486200BF0320607700BF0020207700BF54
:1044D000032071E72068C06800F001000028E6D0E2
:1044E0002068C0F81C802068806840F480702168D3
:1044F00088602068806840F480502168886039E0D6
:104500002068806820F40070216888602068C06896
:1045100000F0800060F420702168C860FEF760FC45
:10452000074612E0FEF75CFCC01BB0F57A7F0CD9A1
:1045300000BFFF202168486200BF0320607700BFF2
:104540000020207700BF032036E72068C068C0F352
:1045500040000028E6D02068C0F8208020688068ED
:1045600040F40070216888602068806840F4005042
:10457000216888600D48006840F400300B490860ED
:104580000A480830006840F40030084908310860E3
:1045900000BFFF202168486200BF0120607700BF94
:1045A0000020207700BF00BF06E7000000040140A4
:1045B0002DE9F04104460D461646002700BF207F36
:1045C000012802D10220BDE8F0810120207700BF40
:1045D000022060774EB9687800F01000102804D1EE
:1045E000687800F0EF000A30687086B9E87801F06A
:1045F00040FE0304687801F03CFE43EA0023A878FB
:1046000001F037FE0343287843EA403711E0687829
:1046100001F024FE0746A87801F020FE0746E8785E
:104620000004697840EA0120A9780843297840EA23
:10463000413700BFCA202168486253202168486280
:1046400000BF204601F022FE60B100BFFF202168BC
:10465000486200BF0420607700BF0020207700BFC1
:104660000120B0E713483840216848602068C068DE
:1046700020F080002168C860204600F0B3F860B1E7
:1046800000BFFF202168486200BF0420607700BFA0
:104690000020207700BF012095E700BFFF202168A0
:1046A000486200BF0120607700BF0020207700BF74
:1046B00000BF88E73FFFFF002DE9F04104460D46AB
:1046C0001646002700BF207F012802D10220BDE846
:1046D000F0810120207700BF02206077CEB92068EA
:1046E000806800F0400000B102E00020E87000BFE8
:1046F000287801F0BEFD0304687801F0BAFD43EAB2
:104700000023A87801F0B5FD0343E87843EA0047A9
:1047100016E02068806800F0400020B1287801F0A1
:104720009DFD074602E00020E87000BF28780004E5
:10473000697840EA0120A9780843E97840EA01470E
:1047400000BFCA202168486253202168486200BF28
:10475000204601F09BFD60B100BFFF202168486248
:1047600000BF0420607700BF0020207700BF012039
:10477000ADE71B483840216808602068806820F455
:10478000802021688860D5E9010108432168896893
:104790000843216888602068C06820F08000216894
:1047A000C860204600F01EF860B100BFFF202168FD
:1047B000486200BF0420607700BF0020207700BF60
:1047C000012084E700BFFF202168486200BF01206C
:1047D000607700BF0020207700BF00BF77E70000B0
:1047E0007F7F7F0070B5044600252068C06820F0F8
:1047F000A0002168C860FEF7F3FA054607E0FEF75F
:10480000EFFA401BB0F57A7F01D9032070BD206814
:10481000C06800F020000028F1D00020F6E710B5B5
:1048200004460CB9012010BD2068006820F040004B
:1048300021680860204600F048F80020606584F890
:10484000510000BF84F8500000BF00BFEBE710B577
:1048500004460CB9012010BD94F8510028B900207D
:1048600084F85000204600F031F8022084F851000E
:104870002068006820F0400021680860D4E9010148
:104880000843E16808432169084361690843218BB3
:1048900001F400710843E1690843216A0843A16AF1
:1048A0000843216808600421A06901EA1040616A98
:1048B0000843216848602168E06A0861002060655B
:1048C000012084F851000020C5E770477047042894
:1048D00008D14FF0E021096941F004014FF0E022D6
:1048E000116107E04FF0E021096921F004014FF068
:1048F000E02211617047704770B504462546681E76
:10490000B0F1807F01D301200FE0681E4FF0E0215D
:1049100048610F214FF0FF3001F0D0FA00204FF036
:10492000E021886107200861002070BD10B5FFF705
:10493000E2FF10BD10B504460CB9012010BD94F87B
:10494000350028B9002084F83400204600F00CF827
:10495000022084F83500211D206804F069FE012042
:1049600084F835000020E9E738B504462068B0F146
:10497000804F16D100BF2648006840F0010024494E
:1049800008600846006800F00100009000BF00BF0A
:10499000002205211C20FEF78FFA1C20FEF77FFA6B
:1049A00034E01C492068884216D100BF18480068CE
:1049B00040F00200164908600846006800F0020056
:1049C000009000BF00BF002206211D20FEF774FAF0
:1049D0001D20FEF764FA19E00F492068884215D1BE
:1049E00000BF0B48006840F0040009490860084611
:1049F000006800F00400009000BF00BF0022062104
:104A00001E20FEF759FA1E20FEF749FA38BD0000B5
:104A100024380240000400400008004001460868B5
:104A2000C06840F001000A68D0600868006840F083
:104A300001000A68106000207047704710B50446F6
:104A400020680069C0F34000D8B12068C068C0F396
:104A50004000B0B16FF002002168086101202075AC
:104A60002068806900F0030018B12046FFF7E5FFD9
:104A700005E0204600F08BF8204600F089F8002081
:104A8000207520680069C0F38000D8B12068C06834
:104A9000C0F38000B0B16FF004002168086102200B
:104AA00020752068806900F4407018B12046FFF737
:104AB000C4FF05E0204600F06AF8204600F068F8E0
:104AC0000020207520680069C0F3C000D8B12068BC
:104AD000C068C0F3C000B0B16FF008002168086181
:104AE000042020752068C06900F0030018B120463A
:104AF000FFF7A3FF05E0204600F049F8204600F04C
:104B000047F80020207520680069C0F30010D8B174
:104B10002068C068C0F30010B0B16FF010002168C9
:104B20000861082020752068C06900F4407018B141
:104B30002046FFF782FF05E0204600F028F82046D7
:104B400000F026F8002020752068006900F00100C0
:104B500058B12068C06800F0010030B16FF001006A
:104B600021680861204600F015F820680069C0F34C
:104B7000801058B12068C068C0F3801030B16FF069
:104B8000400021680861204600F0A8F810BD704779
:104B90007047000010B504462068B0F1804F7BD00C
:104BA0003E492068884268D13D4800884FF6FF7131
:104BB000884204DA3A480088401C3949088039485C
:104BC00000884FF6FF71884204DA36480088401C9E
:104BD00034490880344800884FF6FF71884204DA6F
:104BE00031480088401C30490880304800884FF622
:104BF000FF71884204DA2D480088401C2B49088048
:104C00002B4800884FF6FF71884204DA2848008854
:104C1000401C2749088027480078002804DD2648E2
:104C20000088401C244908802448007880B124482A
:104C30000078401C2249087008460078032807DDE8
:104C400000201E4908701E49087001201D49087087
:104C50001D48007880B11D480078401C1B49087031
:104C600008460078032817DD002017490870174907
:104C700008700120164908700EE016492068884225
:104C80000AD1FCF72BFA14480078FF2804DA1248FE
:104C90000078401C1049087010BD0000000400405E
:104CA0004E00002050000020520000205400002040
:104CB000560000209B0000205800002067000020C4
:104CC0005B000020660000206B0000205C000020DC
:104CD0006A000020000800405A000020704710B50C
:104CE00004460CB9012010BDA06900B100E000BF6E
:104CF00094F8390028B9002084F83800204600F0E4
:104D000025F8022084F839002068C06820F400509B
:104D10002168C860204604F0F3FE2068006920F492
:104D20009040216808612068406920F02A002168CD
:104D300048612068C06840F400502168C8600020C5
:104D4000E063012084F839000020CCE7704730B5DB
:104D50000346002493F83940012C01D0122C37D19E
:104D600001B10AB9012030BD00BF93F83800012815
:104D700001D10220F7E7012083F8380000BF9962D3
:104D80009A85DA850020D86393F83900122803D178
:104D9000322083F8390002E0222083F8390000BF76
:104DA000002083F8380000BF1868C06840F48070A5
:104DB0001D68E8601868406940F001001D6868617E
:104DC0001868C06840F020001D68E8600020CAE74D
:104DD0000220C8E72DE9F04782464020C10591FA3C
:104DE000A1F1B1FA81F108430121B1EB601F02D1B9
:104DF0002248006802E02148343000684021CA059A
:104E000092FAA2F2B2FA82F2114301F01F020121DA
:104E10009140084050B11AA0FBF71AFA17483430F5
:104E2000006840F0807015493431086019481A490B
:104E3000086003204860504608F0B4FE8046002217
:104E4000164B08F0E3FC06460022154B08F0FAFE6C
:104E5000044608F063FE81B20F488160FDF7C6FF8B
:104E600010B110A0FBF7F4F90B48FDF7E7FF10B104
:104E700012A0FBF7EDF9BDE8F08700000038024012
:104E8000B4D3B6C0C1A2BFB4C3C5B9B7D6D8C6F4EF
:104E90000D0A000000300040F00F002000408F405D
:104EA00000009040B6C0C1A2BFB4C3C5B9B7B3F546
:104EB000CABCBBAFCAA7B0DC0D0A0000B6C0C1A215
:104EC000BFB4C3C5B9B7CBA2D0C2CAA7B0DC0D0A64
:104ED0000000000010B50448FDF7B0FF10B103A0BA
:104EE000FBF7B6F910BD0000F00F0020B6C0C1A25C
:104EF000BFB4C3C5B9B7CBA2D0C2CAA7B0DC0D0A34
:104F00000000000070B50446002500262046FBF78F
:104F100082FBC6B200BF0FE0FBF792F9016814F8FC
:104F2000012B885C202801D1012000E0002008B975
:104F3000002070BD681CC5B2B542EDDB0120F8E76A
:104F400070B50446002500262046FBF764FBC6B278
:104F500000BF0FE0FBF774F9016814F8012B885CBF
:104F6000202801D1012000E0002008B9002070BDF8
:104F7000681CC5B2B542EDDB0120F8E72DE9F0472A
:104F80000446002500260027A846A9462046FFF72C
:104F9000B9FF074617B13846BDE8F0872046FBF752
:104FA0003AFBC6B2002519E020782E2805D109F178
:104FB000010000F0FF09A8460DE0FBF741F9016888
:104FC00014F8012B885C202801D1012000E000208A
:104FD00008B90020E0E7641C681CC5B2B542E3DBF9
:104FE000B9F1010F01DD0020D6E7032E09DBB8F18E
:104FF000000F04DD701E404501DD0120CCE70020DC
:10500000CAE70020C8E72DE9F0470446002500263E
:105010000027A846A9462046FFF792FF074617B18A
:105020003846BDE8F0872046FBF7F5FAC6B2002502
:1050300019E020782E2805D109F1010000F0FF09C0
:10504000A8460DE0FBF7FCF8016814F8012B885C1A
:10505000202801D1012000E0002008B90020E0E76D
:10506000641C681CC5B2B542E3DBB9F1010F01DD78
:105070000020D6E7032E09DBB8F1000F04DD701E17
:10508000404501DD0120CCE70020CAE70020C8E749
:105090002DE9F04107460C46208AC0F3C50504F10E
:1050A00018004619802006F8010BC5F13F05082DB0
:1050B00013D229463046FBF792FB102104F1180069
:1050C00005F073FD04F11801204600F03DF8382189
:1050D00004F11800FBF7A5FB04E0A5F10801304638
:1050E000FBF77DFB0E2104F1180005F05EFD216940
:1050F00021656169616504F11801204600F024F81A
:105100000421204605F051FD102221463846FBF7C8
:10511000F2FA58212046FBF784FBBDE8F08100003D
:1051200007490160074941600549C9438160054954
:10513000C943C16000210161002242617047000043
:105140000123456789ABCDEFF0B505460C462868CD
:105150006968AA68EB6882EA03060E405E40276829
:105160003E44FE4F3E443044C60146EA5060084487
:1051700081EA02060640564067683E44F84F3E44C6
:1051800033441E0346EA1353034480EA01061E40DB
:105190004E40A7683E44F34F3E443244560446EA2C
:1051A000D2321A4483EA000616404640E7683E447D
:1051B000ED4F3E4431448E0546EA9121114482EA86
:1051C00003060E405E4027693E44E84F3E443044AB
:1051D000C60146EA5060084481EA0206064056408D
:1051E00067693E44E24F3E4433441E0346EA13538C
:1051F000034480EA01061E404E40A7693E44DD4F4D
:105200003E443244560446EAD2321A4483EA000647
:1052100016404640E7693E44D74F3E4431448E0530
:1052200046EA9121114482EA03060E405E40276A55
:105230003E44D24F3E443044C60146EA50600844E2
:1052400081EA020606405640676A3E44CC4F3E441F
:1052500033441E0346EA1353034480EA01061E400A
:105260004E40A76A3E44A6F524464F3E32445604BB
:1052700046EAD2321A4483EA000616404640E76AFC
:105280003E44C04F3E4431448E0546EA91211144CC
:1052900082EA03060E405E40276B3E44BA4F3E440E
:1052A0003044C60146EA5060084481EA02060640DE
:1052B0005640676B3E44B54F3E4433441E0346EAB6
:1052C0001353034480EA01061E404E40A76B3E4440
:1052D000AF4F3E443244560446EAD2321A4483EA7F
:1052E000000616404640E76B3E44AA4F3E44314418
:1052F0008E0546EA9121114481EA02061E4056407D
:1053000067683E44A44F3E443044460146EAD060BC
:10531000084480EA010616404E40A7693E449F4F6C
:105320003E4433445E0246EAD353034483EA000614
:105330000E404640E76A3E44994F3E44324496034D
:1053400046EA92421A4482EA030606405E40276813
:105350003E44944F3E4431440E0546EA1131114417
:1053600081EA02061E40564067693E448E4F3E4425
:105370003044460146EAD060084480EA01061640FF
:105380004E40A76A3E44894F3E4433445E0246EA9B
:10539000D353034483EA00060E404640E76B3E4485
:1053A000834F3E443244960346EA92421A4482EACC
:1053B000030606405E4027693E447E4F3E4431442A
:1053C0000E0546EA1131114481EA02061E4056409C
:1053D000676A3E44784F3E443044460146EAD06016
:1053E000084480EA010616404E40A76B3E44734FC6
:1053F0003E4433445E0246EAD353034483EA000644
:105400000E404640E7683E446D4F3E4432449603AA
:1054100046EA92421A4482EA030606405E40276A40
:105420003E44684F3E4431440E0546EA1131114472
:1054300081EA02061E405640676B3E44624F3E447E
:105440003044460146EAD060084480EA010616402E
:105450004E40A7683E445D4F3E4433445E0246EAF8
:10546000D353034483EA00060E404640E7693E44B6
:10547000574F3E443244960346EA92421A4482EA27
:10548000030606405E40276B3E44524F3E44314483
:105490000E0546EA1131114481EA02065E40676951
:1054A0003E444D4F3E443044060146EA10700844E5
:1054B00080EA01065640276A3E44484F3E44334442
:1054C000DE0246EA5353034483EA00064E40E76A8D
:1054D0003E44434F3E443244160446EA12421A44C4
:1054E00082EA03064640A76B3E443E4F3E443144A9
:1054F000CE0546EA5121114481EA02065E40676802
:105500003E44394F3E443044060146EA1070084498
:1055100080EA0106564027693E44344F3E443344F6
:10552000DE0246EA5353034483EA00064E40E7692D
:105530003E442F4F3E443244160446EA12421A4477
:1055400082EA03064640A76A3E442A4F3E4431445D
:10555000CE0546EA512111444EE0000078A46AD7F6
:1055600056B7C7E8DB702024EECEBDC1AF0F7CF587
:105570002AC68747134630A8019546FDD89880690A
:10558000AFF7448BBED75C892211906B937198FD65
:105590008E4379A62108B44962251EF640B340C067
:1055A000515A5E26AAC7B6E95D102FD6531444029D
:1055B00081E6A1D8C8FBD3E7E6CDE121D60737C302
:1055C000870DD5F4ED145A4505E9E3A9F8A3EFFCDE
:1055D000D9026F678A4C2A8D4239FAFF81F67187AA
:1055E00022619D6D0C38E5FD44EABEA4A9CFDE4BD7
:1055F000604BBBF670BCBFBE81EA02065E40676BC3
:105600003E44944F3E443044060146EA107008443C
:1056100080EA0106564027683E448F4F3E4433449B
:10562000DE0246EA5353034483EA00064E40E7682D
:105630003E448A4F3E443244160446EA12421A441B
:1056400082EA03064640A7693E44854F3E44314402
:10565000CE0546EA5121114481EA02065E40676A9E
:105660003E44804F3E443044060146EA10700844F0
:1056700080EA01065640276B3E447B4F3E4433444C
:10568000DE0246EA5353034483EA00064E40E76BCA
:105690003E44764F3E443244160446EA12421A44CF
:1056A00082EA03064640A7683E44714F3E443144B7
:1056B000CE0546EA5121114461EA030656402768A7
:1056C0003E446C4F3E443044860146EA90600844B4
:1056D00060EA02064E40E7693E44674F3E44334469
:1056E0009E0246EA9353034463EA01064640A76BD1
:1056F0003E44624F3E443244D60346EA52421A4484
:1057000062EA00065E4067693E445D4F3E443144B4
:105710004E0546EAD121114461EA03065640276B43
:105720003E44584F3E443044860146EA9060084467
:1057300060EA02064E40E7683E44534F3E4433441D
:105740009E0246EA9353034463EA01064640A76A71
:105750003E444E4F3E443244D60346EA52421A4437
:1057600062EA00065E4067683E44494F3E44314469
:105770004E0546EAD121114461EA03065640276AE4
:105780003E44444F3E443044860146EA906008441B
:1057900060EA02064E40E76B3E443F4F3E443344CE
:1057A0009E0246EA9353034463EA01064640A76912
:1057B0003E443A4F3E443244D60346EA52421A44EB
:1057C00062EA00065E40676B3E44354F3E4431441A
:1057D0004E0546EAD121114461EA03065640276985
:1057E0003E44304F3E443044860146EA90600844CF
:1057F00060EA02064E40E76A3E442B4F3E44334483
:105800009E0246EA9353034463EA01064640A768B2
:105810003E44264F3E443244D60346EA52421A449E
:1058200062EA00065E40676A3E44214F3E443144CE
:105830004E0546EAD12111442E6806442E606E685A
:105840000E446E60AE681644AE60EE681E44EE60B4
:10585000F0BD0000C67E9B28FA27A1EA8530EFD470
:10586000051D880439D0D4D9E599DBE6F87CA21F60
:105870006556ACC4442229F497FF2A43A72394AB6E
:1058800039A093FCC3595B6592CC0C8F7DF4EFFF7C
:10589000D15D84854F7EA86FE0E62CFE144301A302
:1058A000A111084E827E53F735F23ABDBBD2D72AFA
:1058B00091D386EB2DE9F04104460F461646256943
:1058C00005EBC6002061A84202D26069401C6061FD
:1058D000606900EB56716161C5F3C50505B304F15C
:1058E000180000EB0508C5F14005AE4206D232466D
:1058F00039464046FAF7FFFEBDE8F0812A463946B0
:105900004046FAF7F8FE102104F1180005F04DF9B1
:1059100004F118012046FFF717FC2F44761B00BF47
:1059200011E04022394604F11800FAF7E4FE102194
:1059300004F1180005F039F904F118012046FFF7C9
:1059400003FC4037403E402EEBD23246394604F14C
:105950001800FAF7D0FE00BFCEE700BFFEE7000058
:105960002DE9F047ADF5407D0024A2460026002534
:105970000027402110A8FAF754FF40216846FAF7A3
:1059800050FFA046A14640A800F0AAFD0646002E02
:105990007EDD00204F490870F1B2AA2240A8FCF732
:1059A00080F904461CB90DF5407DBDE8F08740A89C
:1059B0003044401EA11D884202D3607908B1F2E74D
:1059C000F1E740A8201A0830A1790844B04200DD70
:1059D000E9E7A079C01DC1B22046FBF7F9FAA27928
:1059E000E11D895C884272D16078812800D0DAE7B5
:1059F000E078A17800EB01201FFA80FA3648008891
:105A0000824500D0CFE7207934490978884200DD0B
:105A1000C9E74FF4807180A8FAF703FF402130A84E
:105A2000FAF7FFFE402120A8FAF7FBFE00221146FC
:105A3000104600F059F8002500273AE0E11D48190A
:105A4000FAF7E9FD401C00F0FF08B8F1200F00DD77
:105A5000A9E7E11D41444819FAF7DDFD401C00F0BB
:105A6000FF09B9F1200F00DD9DE7E01D411910A8E5
:105A7000FAF7ADFDE01D404441196846FAF7A7FD6D
:105A80006A4610A9384600F0ADF90120B84000E0A0
:105A90001DE0134909780843114908706A4610A9A6
:105AA000012000F021F808EB09002844C5B2781C59
:105AB000C7B2A079A84201DD042FBFDB00F054F883
:105AC000002804DD00BF01200649087000BF00BFA8
:105AD00069E70000200000202C0000202A000020A0
